{
  "_format": "hh-sol-artifact-1",
  "contractName": "Roles",
  "sourceName": "src/Roles.sol",
  "abi": [
    {
      "inputs": [
        {
          "internalType": "string",
          "name": "roleName",
          "type": "string"
        }
      ],
      "name": "roleIndexForName",
      "outputs": [
        {
          "internalType": "uint8",
          "name": "role",
          "type": "uint8"
        }
      ],
      "stateMutability": "pure",
      "type": "function"
    },
    {
      "inputs": [
        {
          "internalType": "uint8",
          "name": "index",
          "type": "uint8"
        }
      ],
      "name": "roleNameByIndex",
      "outputs": [
        {
          "internalType": "string",
          "name": "",
          "type": "string"
        }
      ],
      "stateMutability": "pure",
      "type": "function"
    }
  ],
  "bytecode": "0x610a0261003a600b82828239805160001a60731461002d57634e487b7160e01b600052600060045260246000fd5b30600052607381538281f3fe73000000000000000000000000000000000000000030146080604052600436106100405760003560e01c8063778f5a7b14610045578063814c24501461006f575b600080fd5b61005861005336600461074c565b61008f565b60405160ff90911681526020015b60405180910390f35b61008261007d3660046107f5565b6103cb565b60405161006691906108d5565b600080826040516020016100a39190610842565b6040516020818303038152906040528051906020012090506040516020016100da906829bab832b93ab9b2b960b91b815260090190565b604051602081830303815290604052805190602001208114156101015760015b9392505050565b6040516526b4b73a32b960d11b60208201526026016040516020818303038152906040528051906020012081141561013a5760026100fa565b6040516521b0b9ba32b960d11b6020820152602601604051602081830303815290604052805190602001208114156101735760036100fa565b604051692a3930b739b332b932b960b11b6020820152602a01604051602081830303815290604052805190602001208114156101b05760046100fa565b6040516921b7b73334b3bab932b960b11b6020820152602a01604051602081830303815290604052805190602001208114156101ed5760056100fa565b6040516926b0b4b73a30b4b732b960b11b6020820152602a016040516020818303038152906040528051906020012081141561022a5760066100fa565b6040516621b932b0ba37b960c91b6020820152602701604051602081830303815290604052805190602001208114156102645760076100fa565b604051662634b6b4ba32b960c91b60208201526027016040516020818303038152906040528051906020012081141561029e5760086100fa565b60405165213ab93732b960d11b6020820152602601604051602081830303815290604052805190602001208114156102d75760096100fa565b604051682232b9ba3937bcb2b960b91b60208201526029016040516020818303038152906040528051906020012081141561031357600a6100fa565b604051654f7261636c6560d01b60208201526026016040516020818303038152906040528051906020012081141561034c57600b6100fa565b6040516b14995cd95c9d995913185cdd60a21b6020820152602c016040516020818303038152906040528051906020012081141561038b57600c6100fa565b8260405160200161039c919061085e565b60408051601f198184030181529082905262461bcd60e51b82526103c2916004016108d5565b60405180910390fd5b606060ff8216600114156103fe57505060408051808201909152600981526829bab832b93ab9b2b960b91b602082015290565b60ff82166002141561042c57505060408051808201909152600681526526b4b73a32b960d11b602082015290565b60ff82166003141561045a57505060408051808201909152600681526521b0b9ba32b960d11b602082015290565b60ff82166004141561048c57505060408051808201909152600a8152692a3930b739b332b932b960b11b602082015290565b60ff8216600514156104be57505060408051808201909152600a81526921b7b73334b3bab932b960b11b602082015290565b60ff8216600614156104f057505060408051808201909152600a81526926b0b4b73a30b4b732b960b11b602082015290565b60ff82166007141561051f57505060408051808201909152600781526621b932b0ba37b960c91b602082015290565b60ff82166008141561054e5750506040805180820190915260078152662634b6b4ba32b960c91b602082015290565b60ff82166009141561057c575050604080518082019091526006815265213ab93732b960d11b602082015290565b60ff8216600a14156105ad5750506040805180820190915260098152682232b9ba3937bcb2b960b91b602082015290565b60ff8216600b14156105db5750506040805180820190915260068152654f7261636c6560d01b602082015290565b60ff8216600c141561060f57505060408051808201909152600c81526b14995cd95c9d995913185cdd60a21b602082015290565b61061b8260ff1661062b565b60405160200161039c9190610899565b60608161064f5750506040805180820190915260018152600360fc1b602082015290565b8160005b811561067957806106638161095b565b91506106729050600a83610900565b9150610653565b6000816001600160401b038111156106a157634e487b7160e01b600052604160045260246000fd5b6040519080825280601f01601f1916602001820160405280156106cb576020820181803683370190505b5090505b8415610744576106e0600183610914565b91506106ed600a86610976565b6106f89060306108e8565b60f81b81838151811061071b57634e487b7160e01b600052603260045260246000fd5b60200101906001600160f81b031916908160001a90535061073d600a86610900565b94506106cf565b949350505050565b60006020828403121561075d578081fd5b81356001600160401b0380821115610773578283fd5b818401915084601f830112610786578283fd5b813581811115610798576107986109b6565b604051601f8201601f19908116603f011681019083821181831017156107c0576107c06109b6565b816040528281528760208487010111156107d8578586fd5b826020860160208301379182016020019490945295945050505050565b600060208284031215610806578081fd5b813560ff811681146100fa578182fd5b6000815180845261082e81602086016020860161092b565b601f01601f19169290920160200192915050565b6000825161085481846020870161092b565b9190910192915050565b7202ab735b737bbb7103937b632903a3cb8329d1606d1b81526000825161088c81601385016020870161092b565b9190910160130192915050565b7302ab735b737bbb7102937b6329024b73232bc1d160651b8152600082516108c881601485016020870161092b565b9190910160140192915050565b6020815260006100fa6020830184610816565b600082198211156108fb576108fb61098a565b500190565b60008261090f5761090f6109a0565b500490565b6000828210156109265761092661098a565b500390565b60005b8381101561094657818101518382015260200161092e565b83811115610955576000848401525b50505050565b600060001982141561096f5761096f61098a565b5060010190565b600082610985576109856109a0565b500690565b634e487b7160e01b600052601160045260246000fd5b634e487b7160e01b600052601260045260246000fd5b634e487b7160e01b600052604160045260246000fdfea2646970667358221220547486857157890ccaedc6701641685bf14a87f8bf4422615657713f213fdf9764736f6c63430008040033",
  "linkReferences": {},
  "deployedLinkReferences": {}
}