{
  "_format": "hh-sol-artifact-1",
  "contractName": "BulkDisbursableNFTs",
  "sourceName": "src/BulkDisbursableNFTs.sol",
  "abi": [
    {
      "inputs": [],
      "stateMutability": "nonpayable",
      "type": "constructor"
    },
    {
      "anonymous": false,
      "inputs": [
        {
          "indexed": false,
          "internalType": "address",
          "name": "previousAdmin",
          "type": "address"
        },
        {
          "indexed": false,
          "internalType": "address",
          "name": "newAdmin",
          "type": "address"
        }
      ],
      "name": "AdminChanged",
      "type": "event"
    },
    {
      "anonymous": false,
      "inputs": [
        {
          "indexed": true,
          "internalType": "address",
          "name": "account",
          "type": "address"
        },
        {
          "indexed": true,
          "internalType": "address",
          "name": "operator",
          "type": "address"
        },
        {
          "indexed": false,
          "internalType": "bool",
          "name": "approved",
          "type": "bool"
        }
      ],
      "name": "ApprovalForAll",
      "type": "event"
    },
    {
      "anonymous": false,
      "inputs": [
        {
          "indexed": true,
          "internalType": "address",
          "name": "beacon",
          "type": "address"
        }
      ],
      "name": "BeaconUpgraded",
      "type": "event"
    },
    {
      "anonymous": false,
      "inputs": [
        {
          "indexed": false,
          "internalType": "uint256",
          "name": "id",
          "type": "uint256"
        },
        {
          "indexed": false,
          "internalType": "address",
          "name": "controller",
          "type": "address"
        }
      ],
      "name": "Created",
      "type": "event"
    },
    {
      "anonymous": false,
      "inputs": [
        {
          "indexed": true,
          "internalType": "address",
          "name": "previousOwner",
          "type": "address"
        },
        {
          "indexed": true,
          "internalType": "address",
          "name": "newOwner",
          "type": "address"
        }
      ],
      "name": "OwnershipTransferred",
      "type": "event"
    },
    {
      "anonymous": false,
      "inputs": [
        {
          "indexed": true,
          "internalType": "address",
          "name": "operator",
          "type": "address"
        },
        {
          "indexed": true,
          "internalType": "address",
          "name": "from",
          "type": "address"
        },
        {
          "indexed": true,
          "internalType": "address",
          "name": "to",
          "type": "address"
        },
        {
          "indexed": false,
          "internalType": "uint256[]",
          "name": "ids",
          "type": "uint256[]"
        },
        {
          "indexed": false,
          "internalType": "uint256[]",
          "name": "values",
          "type": "uint256[]"
        }
      ],
      "name": "TransferBatch",
      "type": "event"
    },
    {
      "anonymous": false,
      "inputs": [
        {
          "indexed": true,
          "internalType": "address",
          "name": "operator",
          "type": "address"
        },
        {
          "indexed": true,
          "internalType": "address",
          "name": "from",
          "type": "address"
        },
        {
          "indexed": true,
          "internalType": "address",
          "name": "to",
          "type": "address"
        },
        {
          "indexed": false,
          "internalType": "uint256",
          "name": "id",
          "type": "uint256"
        },
        {
          "indexed": false,
          "internalType": "uint256",
          "name": "value",
          "type": "uint256"
        }
      ],
      "name": "TransferSingle",
      "type": "event"
    },
    {
      "anonymous": false,
      "inputs": [
        {
          "indexed": false,
          "internalType": "string",
          "name": "value",
          "type": "string"
        },
        {
          "indexed": true,
          "internalType": "uint256",
          "name": "id",
          "type": "uint256"
        }
      ],
      "name": "URI",
      "type": "event"
    },
    {
      "anonymous": false,
      "inputs": [
        {
          "indexed": true,
          "internalType": "address",
          "name": "implementation",
          "type": "address"
        }
      ],
      "name": "Upgraded",
      "type": "event"
    },
    {
      "inputs": [],
      "name": "ADDRESS_TYPE",
      "outputs": [
        {
          "internalType": "uint256",
          "name": "",
          "type": "uint256"
        }
      ],
      "stateMutability": "view",
      "type": "function"
    },
    {
      "inputs": [],
      "name": "COUNTER_WIDTH",
      "outputs": [
        {
          "internalType": "uint8",
          "name": "",
          "type": "uint8"
        }
      ],
      "stateMutability": "view",
      "type": "function"
    },
    {
      "inputs": [],
      "name": "EXPERIMENTAL_TYPE",
      "outputs": [
        {
          "internalType": "uint256",
          "name": "",
          "type": "uint256"
        }
      ],
      "stateMutability": "view",
      "type": "function"
    },
    {
      "inputs": [],
      "name": "GATING_TYPE",
      "outputs": [
        {
          "internalType": "uint256",
          "name": "",
          "type": "uint256"
        }
      ],
      "stateMutability": "view",
      "type": "function"
    },
    {
      "inputs": [],
      "name": "MEMBERSHIP_TYPE",
      "outputs": [
        {
          "internalType": "uint256",
          "name": "",
          "type": "uint256"
        }
      ],
      "stateMutability": "view",
      "type": "function"
    },
    {
      "inputs": [],
      "name": "REACTION_TYPE",
      "outputs": [
        {
          "internalType": "uint256",
          "name": "",
          "type": "uint256"
        }
      ],
      "stateMutability": "view",
      "type": "function"
    },
    {
      "inputs": [],
      "name": "RECORDED_TIME_TYPE",
      "outputs": [
        {
          "internalType": "uint256",
          "name": "",
          "type": "uint256"
        }
      ],
      "stateMutability": "view",
      "type": "function"
    },
    {
      "inputs": [],
      "name": "RECORDING_TYPE",
      "outputs": [
        {
          "internalType": "uint256",
          "name": "",
          "type": "uint256"
        }
      ],
      "stateMutability": "view",
      "type": "function"
    },
    {
      "inputs": [],
      "name": "REPETITION_BOUNDARY",
      "outputs": [
        {
          "internalType": "uint8",
          "name": "",
          "type": "uint8"
        }
      ],
      "stateMutability": "view",
      "type": "function"
    },
    {
      "inputs": [],
      "name": "REPETITION_WIDTH",
      "outputs": [
        {
          "internalType": "uint8",
          "name": "",
          "type": "uint8"
        }
      ],
      "stateMutability": "view",
      "type": "function"
    },
    {
      "inputs": [],
      "name": "REQUIREMENT_BOUNDARY",
      "outputs": [
        {
          "internalType": "uint8",
          "name": "",
          "type": "uint8"
        }
      ],
      "stateMutability": "view",
      "type": "function"
    },
    {
      "inputs": [],
      "name": "REQUIREMENT_WIDTH",
      "outputs": [
        {
          "internalType": "uint8",
          "name": "",
          "type": "uint8"
        }
      ],
      "stateMutability": "view",
      "type": "function"
    },
    {
      "inputs": [],
      "name": "REQUIRE_ALL",
      "outputs": [
        {
          "internalType": "uint256",
          "name": "",
          "type": "uint256"
        }
      ],
      "stateMutability": "view",
      "type": "function"
    },
    {
      "inputs": [],
      "name": "REQUIRE_NONE",
      "outputs": [
        {
          "internalType": "uint256",
          "name": "",
          "type": "uint256"
        }
      ],
      "stateMutability": "view",
      "type": "function"
    },
    {
      "inputs": [],
      "name": "REQUIRE_ONE",
      "outputs": [
        {
          "internalType": "uint256",
          "name": "",
          "type": "uint256"
        }
      ],
      "stateMutability": "view",
      "type": "function"
    },
    {
      "inputs": [],
      "name": "REVIEW_TYPE",
      "outputs": [
        {
          "internalType": "uint256",
          "name": "",
          "type": "uint256"
        }
      ],
      "stateMutability": "view",
      "type": "function"
    },
    {
      "inputs": [],
      "name": "ROLE_BOUNDARY",
      "outputs": [
        {
          "internalType": "uint8",
          "name": "",
          "type": "uint8"
        }
      ],
      "stateMutability": "view",
      "type": "function"
    },
    {
      "inputs": [],
      "name": "ROLE_WIDTH",
      "outputs": [
        {
          "internalType": "uint8",
          "name": "",
          "type": "uint8"
        }
      ],
      "stateMutability": "view",
      "type": "function"
    },
    {
      "inputs": [],
      "name": "TEAM_1",
      "outputs": [
        {
          "internalType": "uint256",
          "name": "",
          "type": "uint256"
        }
      ],
      "stateMutability": "view",
      "type": "function"
    },
    {
      "inputs": [],
      "name": "TEAM_2",
      "outputs": [
        {
          "internalType": "uint256",
          "name": "",
          "type": "uint256"
        }
      ],
      "stateMutability": "view",
      "type": "function"
    },
    {
      "inputs": [],
      "name": "TEAM_3",
      "outputs": [
        {
          "internalType": "uint256",
          "name": "",
          "type": "uint256"
        }
      ],
      "stateMutability": "view",
      "type": "function"
    },
    {
      "inputs": [],
      "name": "TEAM_4",
      "outputs": [
        {
          "internalType": "uint256",
          "name": "",
          "type": "uint256"
        }
      ],
      "stateMutability": "view",
      "type": "function"
    },
    {
      "inputs": [],
      "name": "TEAM_5",
      "outputs": [
        {
          "internalType": "uint256",
          "name": "",
          "type": "uint256"
        }
      ],
      "stateMutability": "view",
      "type": "function"
    },
    {
      "inputs": [],
      "name": "TEAM_6",
      "outputs": [
        {
          "internalType": "uint256",
          "name": "",
          "type": "uint256"
        }
      ],
      "stateMutability": "view",
      "type": "function"
    },
    {
      "inputs": [],
      "name": "TEAM_7",
      "outputs": [
        {
          "internalType": "uint256",
          "name": "",
          "type": "uint256"
        }
      ],
      "stateMutability": "view",
      "type": "function"
    },
    {
      "inputs": [],
      "name": "TEAM_8",
      "outputs": [
        {
          "internalType": "uint256",
          "name": "",
          "type": "uint256"
        }
      ],
      "stateMutability": "view",
      "type": "function"
    },
    {
      "inputs": [],
      "name": "TEAM_9",
      "outputs": [
        {
          "internalType": "uint256",
          "name": "",
          "type": "uint256"
        }
      ],
      "stateMutability": "view",
      "type": "function"
    },
    {
      "inputs": [],
      "name": "TEAM_A",
      "outputs": [
        {
          "internalType": "uint256",
          "name": "",
          "type": "uint256"
        }
      ],
      "stateMutability": "view",
      "type": "function"
    },
    {
      "inputs": [],
      "name": "TEAM_B",
      "outputs": [
        {
          "internalType": "uint256",
          "name": "",
          "type": "uint256"
        }
      ],
      "stateMutability": "view",
      "type": "function"
    },
    {
      "inputs": [],
      "name": "TEAM_BOUNDARY",
      "outputs": [
        {
          "internalType": "uint8",
          "name": "",
          "type": "uint8"
        }
      ],
      "stateMutability": "view",
      "type": "function"
    },
    {
      "inputs": [],
      "name": "TEAM_C",
      "outputs": [
        {
          "internalType": "uint256",
          "name": "",
          "type": "uint256"
        }
      ],
      "stateMutability": "view",
      "type": "function"
    },
    {
      "inputs": [],
      "name": "TEAM_D",
      "outputs": [
        {
          "internalType": "uint256",
          "name": "",
          "type": "uint256"
        }
      ],
      "stateMutability": "view",
      "type": "function"
    },
    {
      "inputs": [],
      "name": "TEAM_WIDTH",
      "outputs": [
        {
          "internalType": "uint8",
          "name": "",
          "type": "uint8"
        }
      ],
      "stateMutability": "view",
      "type": "function"
    },
    {
      "inputs": [],
      "name": "TYPE_BOUNDARY",
      "outputs": [
        {
          "internalType": "uint8",
          "name": "",
          "type": "uint8"
        }
      ],
      "stateMutability": "view",
      "type": "function"
    },
    {
      "inputs": [],
      "name": "TYPE_WIDTH",
      "outputs": [
        {
          "internalType": "uint8",
          "name": "",
          "type": "uint8"
        }
      ],
      "stateMutability": "view",
      "type": "function"
    },
    {
      "inputs": [],
      "name": "UNIQUE",
      "outputs": [
        {
          "internalType": "uint256",
          "name": "",
          "type": "uint256"
        }
      ],
      "stateMutability": "view",
      "type": "function"
    },
    {
      "inputs": [],
      "name": "UNIQUENESS_BOUNDARY",
      "outputs": [
        {
          "internalType": "uint8",
          "name": "",
          "type": "uint8"
        }
      ],
      "stateMutability": "view",
      "type": "function"
    },
    {
      "inputs": [],
      "name": "UNIQUENESS_WIDTH",
      "outputs": [
        {
          "internalType": "uint8",
          "name": "",
          "type": "uint8"
        }
      ],
      "stateMutability": "view",
      "type": "function"
    },
    {
      "inputs": [],
      "name": "USE_AFTER",
      "outputs": [
        {
          "internalType": "uint256",
          "name": "",
          "type": "uint256"
        }
      ],
      "stateMutability": "view",
      "type": "function"
    },
    {
      "inputs": [],
      "name": "USE_ONCE",
      "outputs": [
        {
          "internalType": "uint256",
          "name": "",
          "type": "uint256"
        }
      ],
      "stateMutability": "view",
      "type": "function"
    },
    {
      "inputs": [],
      "name": "USE_UNLIMITED",
      "outputs": [
        {
          "internalType": "uint256",
          "name": "",
          "type": "uint256"
        }
      ],
      "stateMutability": "view",
      "type": "function"
    },
    {
      "inputs": [],
      "name": "USE_UNTIL",
      "outputs": [
        {
          "internalType": "uint256",
          "name": "",
          "type": "uint256"
        }
      ],
      "stateMutability": "view",
      "type": "function"
    },
    {
      "inputs": [],
      "name": "VANILLA_TYPE",
      "outputs": [
        {
          "internalType": "uint256",
          "name": "",
          "type": "uint256"
        }
      ],
      "stateMutability": "view",
      "type": "function"
    },
    {
      "inputs": [],
      "name": "VOUCHED_TIME_TYPE",
      "outputs": [
        {
          "internalType": "uint256",
          "name": "",
          "type": "uint256"
        }
      ],
      "stateMutability": "view",
      "type": "function"
    },
    {
      "inputs": [
        {
          "internalType": "address",
          "name": "account",
          "type": "address"
        },
        {
          "internalType": "uint256",
          "name": "id",
          "type": "uint256"
        }
      ],
      "name": "balanceOf",
      "outputs": [
        {
          "internalType": "uint256",
          "name": "",
          "type": "uint256"
        }
      ],
      "stateMutability": "view",
      "type": "function"
    },
    {
      "inputs": [
        {
          "internalType": "address[]",
          "name": "accounts",
          "type": "address[]"
        },
        {
          "internalType": "uint256[]",
          "name": "ids",
          "type": "uint256[]"
        }
      ],
      "name": "balanceOfBatch",
      "outputs": [
        {
          "internalType": "uint256[]",
          "name": "",
          "type": "uint256[]"
        }
      ],
      "stateMutability": "view",
      "type": "function"
    },
    {
      "inputs": [
        {
          "internalType": "address",
          "name": "account",
          "type": "address"
        },
        {
          "internalType": "uint256",
          "name": "id",
          "type": "uint256"
        },
        {
          "internalType": "uint256",
          "name": "value",
          "type": "uint256"
        }
      ],
      "name": "burn",
      "outputs": [],
      "stateMutability": "nonpayable",
      "type": "function"
    },
    {
      "inputs": [
        {
          "internalType": "address",
          "name": "account",
          "type": "address"
        },
        {
          "internalType": "uint256[]",
          "name": "ids",
          "type": "uint256[]"
        },
        {
          "internalType": "uint256[]",
          "name": "values",
          "type": "uint256[]"
        }
      ],
      "name": "burnBatch",
      "outputs": [],
      "stateMutability": "nonpayable",
      "type": "function"
    },
    {
      "inputs": [
        {
          "internalType": "uint256",
          "name": "id",
          "type": "uint256"
        },
        {
          "internalType": "string",
          "name": "newURI",
          "type": "string"
        },
        {
          "internalType": "uint256",
          "name": "max",
          "type": "uint256"
        }
      ],
      "name": "configure",
      "outputs": [],
      "stateMutability": "nonpayable",
      "type": "function"
    },
    {
      "inputs": [
        {
          "internalType": "address",
          "name": "maintainer",
          "type": "address"
        }
      ],
      "name": "create",
      "outputs": [
        {
          "internalType": "uint256",
          "name": "id",
          "type": "uint256"
        }
      ],
      "stateMutability": "nonpayable",
      "type": "function"
    },
    {
      "inputs": [],
      "name": "create",
      "outputs": [
        {
          "internalType": "uint256",
          "name": "id",
          "type": "uint256"
        }
      ],
      "stateMutability": "nonpayable",
      "type": "function"
    },
    {
      "inputs": [
        {
          "internalType": "uint256",
          "name": "id",
          "type": "uint256"
        }
      ],
      "name": "exists",
      "outputs": [
        {
          "internalType": "bool",
          "name": "",
          "type": "bool"
        }
      ],
      "stateMutability": "view",
      "type": "function"
    },
    {
      "inputs": [
        {
          "internalType": "enum BulkDisbursableNFTs.Role",
          "name": "role",
          "type": "uint8"
        },
        {
          "internalType": "address",
          "name": "user",
          "type": "address"
        }
      ],
      "name": "grantRole",
      "outputs": [
        {
          "internalType": "bool",
          "name": "added",
          "type": "bool"
        }
      ],
      "stateMutability": "nonpayable",
      "type": "function"
    },
    {
      "inputs": [
        {
          "internalType": "enum BulkDisbursableNFTs.Role",
          "name": "role",
          "type": "uint8"
        },
        {
          "internalType": "address",
          "name": "user",
          "type": "address"
        },
        {
          "internalType": "uint256",
          "name": "id",
          "type": "uint256"
        }
      ],
      "name": "grantRole",
      "outputs": [
        {
          "internalType": "bool",
          "name": "added",
          "type": "bool"
        }
      ],
      "stateMutability": "nonpayable",
      "type": "function"
    },
    {
      "inputs": [
        {
          "internalType": "enum BulkDisbursableNFTs.Role",
          "name": "role",
          "type": "uint8"
        }
      ],
      "name": "hasRole",
      "outputs": [
        {
          "internalType": "bool",
          "name": "has",
          "type": "bool"
        }
      ],
      "stateMutability": "view",
      "type": "function"
    },
    {
      "inputs": [
        {
          "internalType": "enum BulkDisbursableNFTs.Role",
          "name": "role",
          "type": "uint8"
        },
        {
          "internalType": "address",
          "name": "user",
          "type": "address"
        },
        {
          "internalType": "uint256",
          "name": "id",
          "type": "uint256"
        }
      ],
      "name": "hasRole",
      "outputs": [
        {
          "internalType": "bool",
          "name": "has",
          "type": "bool"
        }
      ],
      "stateMutability": "view",
      "type": "function"
    },
    {
      "inputs": [
        {
          "internalType": "enum BulkDisbursableNFTs.Role",
          "name": "role",
          "type": "uint8"
        },
        {
          "internalType": "uint256",
          "name": "id",
          "type": "uint256"
        }
      ],
      "name": "hasRole",
      "outputs": [
        {
          "internalType": "bool",
          "name": "has",
          "type": "bool"
        }
      ],
      "stateMutability": "view",
      "type": "function"
    },
    {
      "inputs": [
        {
          "internalType": "enum BulkDisbursableNFTs.Role",
          "name": "role",
          "type": "uint8"
        },
        {
          "internalType": "address",
          "name": "user",
          "type": "address"
        }
      ],
      "name": "hasRole",
      "outputs": [
        {
          "internalType": "bool",
          "name": "has",
          "type": "bool"
        }
      ],
      "stateMutability": "view",
      "type": "function"
    },
    {
      "inputs": [
        {
          "internalType": "string",
          "name": "_name",
          "type": "string"
        },
        {
          "internalType": "string",
          "name": "_symbol",
          "type": "string"
        }
      ],
      "name": "initialize",
      "outputs": [],
      "stateMutability": "nonpayable",
      "type": "function"
    },
    {
      "inputs": [
        {
          "internalType": "address",
          "name": "account",
          "type": "address"
        },
        {
          "internalType": "address",
          "name": "operator",
          "type": "address"
        }
      ],
      "name": "isApprovedForAll",
      "outputs": [
        {
          "internalType": "bool",
          "name": "",
          "type": "bool"
        }
      ],
      "stateMutability": "view",
      "type": "function"
    },
    {
      "inputs": [
        {
          "internalType": "address",
          "name": "user",
          "type": "address"
        }
      ],
      "name": "isSuper",
      "outputs": [
        {
          "internalType": "bool",
          "name": "superuser",
          "type": "bool"
        }
      ],
      "stateMutability": "view",
      "type": "function"
    },
    {
      "inputs": [],
      "name": "isSuper",
      "outputs": [
        {
          "internalType": "bool",
          "name": "superuser",
          "type": "bool"
        }
      ],
      "stateMutability": "view",
      "type": "function"
    },
    {
      "inputs": [
        {
          "internalType": "address[]",
          "name": "to",
          "type": "address[]"
        },
        {
          "internalType": "uint256",
          "name": "id",
          "type": "uint256"
        },
        {
          "internalType": "bytes",
          "name": "data",
          "type": "bytes"
        }
      ],
      "name": "mint",
      "outputs": [],
      "stateMutability": "nonpayable",
      "type": "function"
    },
    {
      "inputs": [
        {
          "internalType": "address",
          "name": "recipient",
          "type": "address"
        },
        {
          "internalType": "uint256",
          "name": "id",
          "type": "uint256"
        },
        {
          "internalType": "uint256",
          "name": "amount",
          "type": "uint256"
        },
        {
          "internalType": "bytes",
          "name": "data",
          "type": "bytes"
        }
      ],
      "name": "mint",
      "outputs": [
        {
          "internalType": "bool",
          "name": "minted",
          "type": "bool"
        }
      ],
      "stateMutability": "nonpayable",
      "type": "function"
    },
    {
      "inputs": [],
      "name": "name",
      "outputs": [
        {
          "internalType": "string",
          "name": "",
          "type": "string"
        }
      ],
      "stateMutability": "view",
      "type": "function"
    },
    {
      "inputs": [],
      "name": "owner",
      "outputs": [
        {
          "internalType": "address",
          "name": "",
          "type": "address"
        }
      ],
      "stateMutability": "view",
      "type": "function"
    },
    {
      "inputs": [],
      "name": "proxiableUUID",
      "outputs": [
        {
          "internalType": "bytes32",
          "name": "",
          "type": "bytes32"
        }
      ],
      "stateMutability": "view",
      "type": "function"
    },
    {
      "inputs": [],
      "name": "renounceOwnership",
      "outputs": [],
      "stateMutability": "nonpayable",
      "type": "function"
    },
    {
      "inputs": [
        {
          "internalType": "enum BulkDisbursableNFTs.Role",
          "name": "role",
          "type": "uint8"
        }
      ],
      "name": "roleToken",
      "outputs": [
        {
          "internalType": "uint256",
          "name": "tokenId",
          "type": "uint256"
        }
      ],
      "stateMutability": "view",
      "type": "function"
    },
    {
      "inputs": [
        {
          "internalType": "enum BulkDisbursableNFTs.Role",
          "name": "role",
          "type": "uint8"
        },
        {
          "internalType": "uint256",
          "name": "id",
          "type": "uint256"
        }
      ],
      "name": "roleToken",
      "outputs": [
        {
          "internalType": "uint256",
          "name": "tokenId",
          "type": "uint256"
        }
      ],
      "stateMutability": "view",
      "type": "function"
    },
    {
      "inputs": [
        {
          "internalType": "string",
          "name": "roleName",
          "type": "string"
        }
      ],
      "name": "roleValueForName",
      "outputs": [
        {
          "internalType": "enum BulkDisbursableNFTs.Role",
          "name": "role",
          "type": "uint8"
        }
      ],
      "stateMutability": "pure",
      "type": "function"
    },
    {
      "inputs": [
        {
          "internalType": "address",
          "name": "from",
          "type": "address"
        },
        {
          "internalType": "address",
          "name": "to",
          "type": "address"
        },
        {
          "internalType": "uint256[]",
          "name": "ids",
          "type": "uint256[]"
        },
        {
          "internalType": "uint256[]",
          "name": "amounts",
          "type": "uint256[]"
        },
        {
          "internalType": "bytes",
          "name": "data",
          "type": "bytes"
        }
      ],
      "name": "safeBatchTransferFrom",
      "outputs": [],
      "stateMutability": "nonpayable",
      "type": "function"
    },
    {
      "inputs": [
        {
          "internalType": "address",
          "name": "from",
          "type": "address"
        },
        {
          "internalType": "address",
          "name": "to",
          "type": "address"
        },
        {
          "internalType": "uint256",
          "name": "id",
          "type": "uint256"
        },
        {
          "internalType": "uint256",
          "name": "amount",
          "type": "uint256"
        },
        {
          "internalType": "bytes",
          "name": "data",
          "type": "bytes"
        }
      ],
      "name": "safeTransferFrom",
      "outputs": [],
      "stateMutability": "nonpayable",
      "type": "function"
    },
    {
      "inputs": [
        {
          "internalType": "address",
          "name": "operator",
          "type": "address"
        },
        {
          "internalType": "bool",
          "name": "approved",
          "type": "bool"
        }
      ],
      "name": "setApprovalForAll",
      "outputs": [],
      "stateMutability": "nonpayable",
      "type": "function"
    },
    {
      "inputs": [
        {
          "internalType": "string",
          "name": "_name",
          "type": "string"
        },
        {
          "internalType": "string",
          "name": "_symbol",
          "type": "string"
        }
      ],
      "name": "setDescription",
      "outputs": [],
      "stateMutability": "nonpayable",
      "type": "function"
    },
    {
      "inputs": [
        {
          "internalType": "uint256",
          "name": "id",
          "type": "uint256"
        },
        {
          "internalType": "uint256",
          "name": "max",
          "type": "uint256"
        }
      ],
      "name": "setMax",
      "outputs": [],
      "stateMutability": "nonpayable",
      "type": "function"
    },
    {
      "inputs": [
        {
          "internalType": "uint256",
          "name": "id",
          "type": "uint256"
        },
        {
          "internalType": "string",
          "name": "newURI",
          "type": "string"
        }
      ],
      "name": "setURI",
      "outputs": [],
      "stateMutability": "nonpayable",
      "type": "function"
    },
    {
      "inputs": [
        {
          "internalType": "bytes4",
          "name": "interfaceId",
          "type": "bytes4"
        }
      ],
      "name": "supportsInterface",
      "outputs": [
        {
          "internalType": "bool",
          "name": "",
          "type": "bool"
        }
      ],
      "stateMutability": "view",
      "type": "function"
    },
    {
      "inputs": [],
      "name": "symbol",
      "outputs": [
        {
          "internalType": "string",
          "name": "",
          "type": "string"
        }
      ],
      "stateMutability": "view",
      "type": "function"
    },
    {
      "inputs": [
        {
          "internalType": "uint256",
          "name": "index",
          "type": "uint256"
        }
      ],
      "name": "tokenByIndex",
      "outputs": [
        {
          "internalType": "uint256",
          "name": "id",
          "type": "uint256"
        }
      ],
      "stateMutability": "view",
      "type": "function"
    },
    {
      "inputs": [
        {
          "internalType": "uint256",
          "name": "id",
          "type": "uint256"
        }
      ],
      "name": "tokenIndex",
      "outputs": [
        {
          "internalType": "uint256",
          "name": "index",
          "type": "uint256"
        }
      ],
      "stateMutability": "view",
      "type": "function"
    },
    {
      "inputs": [
        {
          "internalType": "address",
          "name": "owner",
          "type": "address"
        },
        {
          "internalType": "uint256",
          "name": "index",
          "type": "uint256"
        }
      ],
      "name": "tokenOfOwnerByIndex",
      "outputs": [
        {
          "internalType": "uint256",
          "name": "",
          "type": "uint256"
        }
      ],
      "stateMutability": "view",
      "type": "function"
    },
    {
      "inputs": [],
      "name": "totalSupply",
      "outputs": [
        {
          "internalType": "uint256",
          "name": "count",
          "type": "uint256"
        }
      ],
      "stateMutability": "view",
      "type": "function"
    },
    {
      "inputs": [
        {
          "internalType": "uint256",
          "name": "id",
          "type": "uint256"
        }
      ],
      "name": "totalSupply",
      "outputs": [
        {
          "internalType": "uint256",
          "name": "",
          "type": "uint256"
        }
      ],
      "stateMutability": "view",
      "type": "function"
    },
    {
      "inputs": [
        {
          "internalType": "address",
          "name": "newOwner",
          "type": "address"
        }
      ],
      "name": "transferOwnership",
      "outputs": [],
      "stateMutability": "nonpayable",
      "type": "function"
    },
    {
      "inputs": [
        {
          "internalType": "address",
          "name": "newImplementation",
          "type": "address"
        }
      ],
      "name": "upgradeTo",
      "outputs": [],
      "stateMutability": "nonpayable",
      "type": "function"
    },
    {
      "inputs": [
        {
          "internalType": "address",
          "name": "newImplementation",
          "type": "address"
        },
        {
          "internalType": "bytes",
          "name": "data",
          "type": "bytes"
        }
      ],
      "name": "upgradeToAndCall",
      "outputs": [],
      "stateMutability": "payable",
      "type": "function"
    },
    {
      "inputs": [
        {
          "internalType": "uint256",
          "name": "id",
          "type": "uint256"
        }
      ],
      "name": "uri",
      "outputs": [
        {
          "internalType": "string",
          "name": "metadata",
          "type": "string"
        }
      ],
      "stateMutability": "view",
      "type": "function"
    }
  ],
  "bytecode": "0x60a06040523060601b6080523480156200001857600080fd5b50600054610100900460ff16620000365760005460ff161562000040565b62000040620000e5565b620000a85760405162461bcd60e51b815260206004820152602e60248201527f496e697469616c697a61626c653a20636f6e747261637420697320616c72656160448201526d191e481a5b9a5d1a585b1a5e995960921b606482015260840160405180910390fd5b600054610100900460ff16158015620000cb576000805461ffff19166101011790555b8015620000de576000805461ff00191690555b5062000112565b6000620000fd306200010360201b62002a891760201c565b15905090565b6001600160a01b03163b151590565b60805160601c6153746200014d60003960008181611788015281816117c801528181611fb701528181611ff7015261211c01526153746000f3fe6080604052600436106104ca5760003560e01c80635d5664e111610276578063aae5270f1161014f578063e5587f7a116100c1578063f242432a11610085578063f242432a14610d74578063f28a726d14610d94578063f2fde38b14610da9578063f5298aca14610dc9578063f73a731114610de9578063f8418ef314610dfe57600080fd5b8063e5587f7a14610cd7578063e864109214610cec578063e985e9c514610d01578063edc79bac14610d4a578063efc81a8c14610d5f57600080fd5b8063bd85b03911610113578063bd85b03914610c4b578063c3c8df9914610c78578063c5a0d9b2146106e9578063d701765014610c98578063db58fe9514610cad578063dbd406e814610cc257600080fd5b8063aae5270f14610be2578063aaeec72d14610bf7578063b8785f8a14610c0c578063ba952df114610c21578063baf42f9314610c3657600080fd5b80638da5cb5b116101e85780639eb3f243116101ac5780639eb3f24314610b435780639ed9331814610b58578063a22cb46514610b78578063a8410bc114610b98578063a9c906ae14610bad578063aa8e906614610bc257600080fd5b80638da5cb5b14610ab1578063957dc9a014610ad957806395d89b4114610aee5780639d6d7eaa14610b035780639e97b8f614610b2357600080fd5b80636fa09a791161023a5780636fa09a7914610a32578063715018a614610a47578063731133e914610a5c57806383e5b21a14610a7c578063862440e214610a91578063891fbef0146107dc57600080fd5b80635d5664e1146109a85780635e2a3386146109c8578063666e6fd5146109dd5780636755d456146109f25780636b20c45414610a1257600080fd5b80633659cfe6116103a85780634cd88b761161031a5780634f558e79116102de5780634f558e79146109055780634f6ccce7146109345780635157b5631461095457806351d294251461096957806352d1902d1461097e578063552376611461099357600080fd5b80634cd88b761461087b5780634ce7a2441461089b5780634e1273f4146108b05780634f06c0fb146108dd5780634f1ef286146108f257600080fd5b80633c176d9f1161036c5780633c176d9f146107dc5780633dbe35de146107f15780633f79f1a4146108115780634468031f1461082657806344cca2df14610846578063482895891461085b57600080fd5b80633659cfe61461075d57806339054c231461077d5780633adbbbc1146107925780633b60bd01146107a75780633b91ceef146107bc57600080fd5b806318160ddd116104415780632eb2c2d6116104055780632eb2c2d6146106c95780632ed58d81146106e95780632f745c59146106fe57806330c9cf931461071e57806334628c1f1461073357806335ab86291461074857600080fd5b806318160ddd1461063c57806318ae23751461065257806319e0755c146106675780631c45349c146106875780632a7ccf131461069c57600080fd5b80630daec9e4116104935780630daec9e41461059b5780630e89341c146105b05780630ec0370f146105d057806311bb8afd146105f257806313affe4f1461060757806314c464271461061c57600080fd5b8062fdd58e146104cf57806301ffc9a7146105025780630583e9f814610532578063067ff8661461055257806306fdde0314610579575b600080fd5b3480156104db57600080fd5b506104ef6104ea366004614720565b610e13565b6040519081526020015b60405180910390f35b34801561050e57600080fd5b5061052261051d3660046148a6565b610eaf565b60405190151581526020016104f9565b34801561053e57600080fd5b506104ef61054d366004614a16565b610eff565b34801561055e57600080fd5b50610567610f68565b60405160ff90911681526020016104f9565b34801561058557600080fd5b5061058e610f83565b6040516104f99190614c9c565b3480156105a757600080fd5b506104ef611012565b3480156105bc57600080fd5b5061058e6105cb366004614a16565b611029565b3480156105dc57600080fd5b506105f06105eb36600461482f565b611244565b005b3480156105fe57600080fd5b50610567602a81565b34801561061357600080fd5b506104ef61129b565b34801561062857600080fd5b506104ef6106373660046148de565b6112b1565b34801561064857600080fd5b50610194546104ef565b34801561065e57600080fd5b506105676112be565b34801561067357600080fd5b506105226106823660046148de565b6112d8565b34801561069357600080fd5b506104ef6112e4565b3480156106a857600080fd5b506106bc6106b73660046149d1565b611306565b6040516104f99190614c45565b3480156106d557600080fd5b506105f06106e4366004614524565b611613565b3480156106f557600080fd5b50610567600381565b34801561070a57600080fd5b506104ef610719366004614720565b6116aa565b34801561072a57600080fd5b506104ef61172e565b34801561073f57600080fd5b506104ef611750565b34801561075457600080fd5b506104ef611766565b34801561076957600080fd5b506105f06107783660046144d8565b61177d565b34801561078957600080fd5b506104ef61185d565b34801561079e57600080fd5b506104ef611896565b3480156107b357600080fd5b50610567600d81565b3480156107c857600080fd5b506105f06107d7366004614ac7565b6118b8565b3480156107e857600080fd5b50610567600881565b3480156107fd57600080fd5b506104ef61080c36600461494e565b61193b565b34801561081d57600080fd5b506104ef611bd6565b34801561083257600080fd5b50610522610841366004614913565b611be4565b34801561085257600080fd5b50610567611cb8565b34801561086757600080fd5b5061052261087636600461494e565b611cd3565b34801561088757600080fd5b506105f0610896366004614969565b611ce0565b3480156108a757600080fd5b506104ef611e06565b3480156108bc57600080fd5b506108d06108cb3660046147d9565b611e34565b6040516104f99190614c0d565b3480156108e957600080fd5b506104ef611f95565b6105f06109003660046146d5565b611fac565b34801561091157600080fd5b50610522610920366004614a16565b600090815260fb6020526040902054151590565b34801561094057600080fd5b506104ef61094f366004614a16565b612079565b34801561096057600080fd5b506104ef6120d3565b34801561097557600080fd5b506104ef612101565b34801561098a57600080fd5b506104ef61210f565b34801561099f57600080fd5b506104ef6121c3565b3480156109b457600080fd5b506105226109c33660046148f8565b6121e8565b3480156109d457600080fd5b506104ef6121f6565b3480156109e957600080fd5b506104ef61220d565b3480156109fe57600080fd5b506105f0610a0d366004614969565b61221b565b348015610a1e57600080fd5b506105f0610a2d36600461462b565b612260565b348015610a3e57600080fd5b506104ef6122a8565b348015610a5357600080fd5b506105f06122b8565b348015610a6857600080fd5b50610522610a7736600461477b565b6122ee565b348015610a8857600080fd5b506104ef6124f5565b348015610a9d57600080fd5b506105f0610aac366004614a2e565b612517565b348015610abd57600080fd5b506097546040516001600160a01b0390911681526020016104f9565b348015610ae557600080fd5b506104ef6125f3565b348015610afa57600080fd5b5061058e61261f565b348015610b0f57600080fd5b506105f0610b1e366004614a77565b61262d565b348015610b2f57600080fd5b50610522610b3e3660046148f8565b612642565b348015610b4f57600080fd5b506104ef612650565b348015610b6457600080fd5b506104ef610b733660046144d8565b61265c565b348015610b8457600080fd5b506105f0610b9336600461469b565b6127c7565b348015610ba457600080fd5b506104ef6127d2565b348015610bb957600080fd5b506104ef6127de565b348015610bce57600080fd5b50610522610bdd366004614913565b6127ea565b348015610bee57600080fd5b506104ef6127f9565b348015610c0357600080fd5b506104ef612820565b348015610c1857600080fd5b50610567600181565b348015610c2d57600080fd5b5061056761283b565b348015610c4257600080fd5b506104ef612863565b348015610c5757600080fd5b506104ef610c66366004614a16565b600090815260fb602052604090205490565b348015610c8457600080fd5b50610522610c933660046144d8565b612885565b348015610ca457600080fd5b506104ef6128ad565b348015610cb957600080fd5b506104ef6128b9565b348015610cce57600080fd5b506104ef6128d0565b348015610ce357600080fd5b506105676128e6565b348015610cf857600080fd5b506104ef6128f9565b348015610d0d57600080fd5b50610522610d1c3660046144f2565b6001600160a01b03918216600090815260666020908152604080832093909416825291909152205460ff1690565b348015610d5657600080fd5b5061052261291b565b348015610d6b57600080fd5b506104ef61292b565b348015610d8057600080fd5b506105f0610d8f3660046145c9565b612936565b348015610da057600080fd5b506104ef61297b565b348015610db557600080fd5b506105f0610dc43660046144d8565b61298c565b348015610dd557600080fd5b506105f0610de4366004614749565b612a24565b348015610df557600080fd5b50610567612a67565b348015610e0a57600080fd5b506104ef612a73565b60006001600160a01b038316610e845760405162461bcd60e51b815260206004820152602b60248201527f455243313135353a2062616c616e636520717565727920666f7220746865207a60448201526a65726f206164647265737360a81b60648201526084015b60405180910390fd5b5060008181526065602090815260408083206001600160a01b03861684529091529020545b92915050565b60006001600160e01b03198216636cdb3d1360e11b1480610ee057506001600160e01b031982166303a24d0760e21b145b80610ea957506301ffc9a760e01b6001600160e01b0319831614610ea9565b6000818152610195602052604081205480610ea95760405162461bcd60e51b815260206004820152602360248201527f5468652072657175657374656420746f6b656e20646f6573206e6f742065786960448201526239ba1760e91b6064820152608401610e7b565b6008610f76600d60ff615144565b610f809190615144565b81565b6101918054610f9190615193565b80601f0160208091040260200160405190810160405280929190818152602001828054610fbd90615193565b801561100a5780601f10610fdf5761010080835404028352916020019161100a565b820191906000526020600020905b815481529060010190602001808311610fed57829003601f168201915b505050505081565b61101e600d60ff615144565b60ff16610400901b81565b6000818152610193602052604081208054606092919061104890615193565b80601f016020809104026020016040519081016040528092919081815260200182805461107490615193565b80156110c15780601f10611096576101008083540402835291602001916110c1565b820191906000526020600020905b8154815290600101906020018083116110a457829003601f168201915b505050505090506110d183612a98565b61110e60086110e2600d60ff615144565b6110ec9190615144565b60ff1660016110fd60086002615082565b611107919061512d565b901b612a98565b611135600861111f600d60ff615144565b6111299190615144565b60ff166001901b612a98565b8051610ea9576008611149600d60ff615144565b6111539190615144565b60ff166001901b6008600d60ff61116a9190615144565b6111749190615144565b60ff16600161118560086002615082565b61118f919061512d565b901b84161415610ea9576503ffffffffff19831660008181526101936020526040902080546111bd90615193565b80601f01602080910402602001604051908101604052809291908181526020018280546111e990615193565b80156112365780601f1061120b57610100808354040283529160200191611236565b820191906000526020600020905b81548152906001019060200180831161121957829003601f168201915b505050505091505092915050565b60005b83518110156112955761128484828151811061127357634e487b7160e01b600052603260045260246000fd5b6020026020010151846001856122ee565b5061128e816151fa565b9050611247565b50505050565b6112a7600d60ff615144565b60ff166010901b81565b6000610ea982600061193b565b600360086112ce600d60ff615144565b610f769190615144565b6000610ea98233612642565b60086112f2600d60ff615144565b6112fc9190615144565b60ff166006901b81565b6000808260405160200161131a9190614b4e565b604051602081830303815290604052805190602001209050604051602001611351906829bab832b93ab9b2b960b91b815260090190565b604051602081830303815290604052805190602001208114156113775750600192915050565b6040516526b4b73a32b960d11b6020820152602601604051602081830303815290604052805190602001208114156113b25750600292915050565b6040516521b0b9ba32b960d11b6020820152602601604051602081830303815290604052805190602001208114156113ed5750600392915050565b604051692a3930b739b332b932b960b11b6020820152602a016040516020818303038152906040528051906020012081141561142c5750600492915050565b6040516921b7b73334b3bab932b960b11b6020820152602a016040516020818303038152906040528051906020012081141561146b5750600592915050565b6040516926b0b4b73a30b4b732b960b11b6020820152602a01604051602081830303815290604052805190602001208114156114aa5750600692915050565b6040516621b932b0ba37b960c91b6020820152602701604051602081830303815290604052805190602001208114156114e65750600792915050565b604051662634b6b4ba32b960c91b6020820152602701604051602081830303815290604052805190602001208114156115225750600892915050565b60405165213ab93732b960d11b60208201526026016040516020818303038152906040528051906020012081141561155d5750600992915050565b604051682232b9ba3937bcb2b960b91b60208201526029016040516020818303038152906040528051906020012081141561159b5750600a92915050565b604051654f7261636c6560d01b6020820152602601604051602081830303815290604052805190602001208114156115d65750600b92915050565b60405162461bcd60e51b81526020600482015260126024820152712ab735b737bbb7103937b632903a3cb8329760711b6044820152606401610e7b565b6001600160a01b03851633148061162f575061162f8533610d1c565b6116965760405162461bcd60e51b815260206004820152603260248201527f455243313135353a207472616e736665722063616c6c6572206973206e6f74206044820152711bdddb995c881b9bdc88185c1c1c9bdd995960721b6064820152608401610e7b565b6116a38585858585612add565b5050505050565b6001600160a01b0382166000908152610196602052604081205482106116e25760405162461bcd60e51b8152600401610e7b90614f23565b6001600160a01b03831660009081526101966020526040902080548390811061171b57634e487b7160e01b600052603260045260246000fd5b9060005260206000200154905092915050565b600861173c600d60ff615144565b6117469190615144565b60ff166004901b81565b61175c600d60ff615144565b60ff166020901b81565b611772600d60ff615144565b60ff16611000901b81565b306001600160a01b037f00000000000000000000000000000000000000000000000000000000000000001614156117c65760405162461bcd60e51b8152600401610e7b90614d3b565b7f00000000000000000000000000000000000000000000000000000000000000006001600160a01b031661180f6000805160206152f8833981519152546001600160a01b031690565b6001600160a01b0316146118355760405162461bcd60e51b8152600401610e7b90614dd0565b61183e81612ca6565b6040805160008082526020820190925261185a91839190612d30565b50565b600380600861186e600d60ff615144565b6118789190615144565b6118829190615144565b61188c9190615144565b60ff166002901b81565b60086118a4600d60ff615144565b6118ae9190615144565b60ff166005901b81565b6118c3600883611cd3565b806118d157506118d161291b565b6119375760405162461bcd60e51b815260206004820152603160248201527f596f75206d75737420686176652061204c696d6974657220746f6b656e20746f6044820152701031b430b733b29038bab0b73a34ba3c9760791b6064820152608401610e7b565b5050565b6000611949602a6002615082565b81106119975760405162461bcd60e51b815260206004820152601f60248201527f496e64696365732063616e206265206174206d6f737420343220626974732e006044820152606401610e7b565b6119a082612a98565b6119c883603c8111156119c357634e487b7160e01b600052602160045260246000fd5b612a98565b611a3460086001600380836119df600d60ff615144565b6119e99190615144565b6119f39190615144565b6119fd9190615144565b611a079190615144565b611a119190615144565b60ff1684603c81111561110757634e487b7160e01b600052602160045260246000fd5b611a96600184603c811115611a5957634e487b7160e01b600052602160045260246000fd5b14611a65576000612a98565b60016003806008611a78600d60ff615144565b611a829190615144565b611a8c9190615144565b61111f9190615144565b611aa7600861111f600d60ff615144565b611acf604051806040016040528060078152602001662d2d2d2d2d2d2d60c81b815250612eaa565b81600184603c811115611af257634e487b7160e01b600052602160045260246000fd5b14611afe576000611b41565b60016003806008611b11600d60ff615144565b611b1b9190615144565b611b259190615144565b611b2f9190615144565b611b399190615144565b60ff166001901b5b6008600160038083611b55600d60ff615144565b611b5f9190615144565b611b699190615144565b611b739190615144565b611b7d9190615144565b611b879190615144565b60ff1685603c811115611baa57634e487b7160e01b600052602160045260246000fd5b901b6008611bba600d60ff615144565b611bc49190615144565b60ff166001901b171717905092915050565b6008611882600d60ff615144565b600080611bf0856112b1565b90506000611bfe8583610e13565b1180611c1557506000611c1385858417610e13565b115b80611c6057506000611c5e856003806008611c32600d60ff615144565b611c3c9190615144565b611c469190615144565b611c509190615144565b60ff166001901b8417610e13565b115b80611cad57506000611cab85856003806008611c7e600d60ff615144565b611c889190615144565b611c929190615144565b611c9c9190615144565b60ff166001901b851717610e13565b115b9150505b9392505050565b6003806008611cc9600d60ff615144565b6112ce9190615144565b6000611cb1833384611be4565b600054610100900460ff16611cfb5760005460ff1615611cff565b303b155b611d625760405162461bcd60e51b815260206004820152602e60248201527f496e697469616c697a61626c653a20636f6e747261637420697320616c72656160448201526d191e481a5b9a5d1a585b1a5e995960921b6064820152608401610e7b565b600054610100900460ff16158015611d84576000805461ffff19166101011790555b611d8c612eed565b611dca6040518060400160405280602081526020017f4572726f723a2053696e676c6520546f6b656e20555249204e6f742055736564815250612f1c565b611dd2612f4c565b611dda612f4c565b611de2612f4c565b611dee8585858561221b565b80156116a3576000805461ff00191690555050505050565b60036008611e16600d60ff615144565b611e209190615144565b611e2a9190615144565b60ff166003901b81565b60608151835114611e995760405162461bcd60e51b815260206004820152602960248201527f455243313135353a206163636f756e747320616e6420696473206c656e677468604482015268040dad2e6dac2e8c6d60bb1b6064820152608401610e7b565b600083516001600160401b03811115611ec257634e487b7160e01b600052604160045260246000fd5b604051908082528060200260200182016040528015611eeb578160200160208202803683370190505b50905060005b8451811015611f8d57611f52858281518110611f1d57634e487b7160e01b600052603260045260246000fd5b6020026020010151858381518110611f4557634e487b7160e01b600052603260045260246000fd5b6020026020010151610e13565b828281518110611f7257634e487b7160e01b600052603260045260246000fd5b6020908102919091010152611f86816151fa565b9050611ef1565b509392505050565b611fa1600d60ff615144565b60ff16610800901b81565b306001600160a01b037f0000000000000000000000000000000000000000000000000000000000000000161415611ff55760405162461bcd60e51b8152600401610e7b90614d3b565b7f00000000000000000000000000000000000000000000000000000000000000006001600160a01b031661203e6000805160206152f8833981519152546001600160a01b031690565b6001600160a01b0316146120645760405162461bcd60e51b8152600401610e7b90614dd0565b61206d82612ca6565b61193782826001612d30565b61019454600090821061209e5760405162461bcd60e51b8152600401610e7b90614f23565b6101948054839081106120c157634e487b7160e01b600052603260045260246000fd5b90600052602060002001549050919050565b600360086120e3600d60ff615144565b6120ed9190615144565b6120f79190615144565b60ff166001901b81565b60086120ed600d60ff615144565b6000306001600160a01b037f000000000000000000000000000000000000000000000000000000000000000016146121af5760405162461bcd60e51b815260206004820152603860248201527f555550535570677261646561626c653a206d757374206e6f742062652063616c60448201527f6c6564207468726f7567682064656c656761746563616c6c00000000000000006064820152608401610e7b565b506000805160206152f88339815191525b90565b60038060086121d4600d60ff615144565b6121de9190615144565b61173c9190615144565b6000611cb1838360006127ea565b612202600d60ff615144565b60ff16610100901b81565b6008611e20600d60ff615144565b6097546001600160a01b031633146122455760405162461bcd60e51b8152600401610e7b90614eee565b61225261019185856141fc565b506116a361019283836141fc565b6001600160a01b03831633148061227c575061227c8333610d1c565b6122985760405162461bcd60e51b8152600401610e7b90614d87565b6122a3838383612f73565b505050565b60036008611878600d60ff615144565b6097546001600160a01b031633146122e25760405162461bcd60e51b8152600401610e7b90614eee565b6122ec6000613120565b565b600060016003806008612303600d60ff615144565b61230d9190615144565b6123179190615144565b6123219190615144565b61232b9190615144565b60ff166001901b60016003806008600d60ff6123479190615144565b6123519190615144565b61235b9190615144565b6123659190615144565b61236f9190615144565b60ff166001901b851614801561238e5750600061238c8686610e13565b115b1561239b575060006124ed565b60086123a9600d60ff615144565b6123b39190615144565b60ff166001901b6008600d60ff6123ca9190615144565b6123d49190615144565b60ff166001901b85161415612467576123ee600385611cd3565b806123fc57506123fc61291b565b6124625760405162461bcd60e51b815260206004820152603160248201527f596f75206d757374206861766520612043617374657220746f6b656e20746f2060448201527036b4b73a103a37b5b2b71033b0ba32b99760791b6064820152608401610e7b565b6124e1565b612472600285611cd3565b80612480575061248061291b565b6124e15760405162461bcd60e51b815260206004820152602c60248201527f596f75206d75737420686176652061204d696e74657220746f6b656e20746f2060448201526b36b4b73a103a37b5b2b7399760a11b6064820152608401610e7b565b6124ed85858585613172565b949350505050565b6008612503600d60ff615144565b61250d9190615144565b60ff166008901b81565b612522600584611cd3565b80612530575061253061291b565b6125995760405162461bcd60e51b815260206004820152603460248201527f596f75206d7573742068617665206120436f6e6669677572657220746f6b656e604482015273103a379031b430b733b29036b2ba30b230ba309760611b6064820152608401610e7b565b6000838152610193602052604090206125b39083836141fc565b50827f6bb7ff708619ba0610cba295a58592e0451dee2622938c8755667688daf3529b83836040516125e6929190614c6d565b60405180910390a2505050565b6008612601600d60ff615144565b61260b9190615144565b60ff1661261a60086002615082565b901b81565b6101928054610f9190615193565b612638848484612517565b61129584826118b8565b6000611cb183836000611be4565b611746600d60ff615144565b6101945460009081906008612673600d60ff615144565b61267d9190615144565b60ff166009901b61268e9190615027565b612699906001615027565b90506126a6600782611cd3565b806126b457506126b461291b565b61271c5760405162461bcd60e51b815260206004820152603360248201527f596f75206d757374206861766520612043726561746f7220746f6b656e20746f6044820152721031b932b0ba32903732bb903a37b5b2b7399760691b6064820152608401610e7b565b610194805460018101825560009182527fa6f1ac7ad7b125ba5a5e1c96b00ad6914f90a503b1ac3d85a9dadbb4c639df92018290556127619060029085908490613284565b50612770600584836000613284565b5061277f600884836000613284565b50604080518281526001600160a01b03851660208201527f7757890bcab34d673dfca6b71df1b57f75a2fe4231d6e8de726caf534ab1fdd6910160405180910390a192915050565b6119373383836133cf565b61188c600d60ff615144565b61250d600d60ff615144565b60006124ed8484846001613284565b6001600380600861280c600d60ff615144565b6128169190615144565b6120e39190615144565b6003806008612831600d60ff615144565b611e169190615144565b600860016003808361284f600d60ff615144565b6128599190615144565b611cc99190615144565b6008612871600d60ff615144565b61287b9190615144565b60ff166007901b81565b6000612892600183612642565b80610ea95750506097546001600160a01b0391821691161490565b6120f7600d60ff615144565b6128c5600d60ff615144565b60ff16610200901b81565b6128dc600d60ff615144565b60ff166040901b81565b60016003806008612859600d60ff615144565b6008612907600d60ff615144565b6129119190615144565b60ff166009901b81565b600061292633612885565b905090565b60006129263361265c565b6001600160a01b03851633148061295257506129528533610d1c565b61296e5760405162461bcd60e51b8152600401610e7b90614d87565b6116a385858585856134b0565b6003806008612816600d60ff615144565b6097546001600160a01b031633146129b65760405162461bcd60e51b8152600401610e7b90614eee565b6001600160a01b038116612a1b5760405162461bcd60e51b815260206004820152602660248201527f4f776e61626c653a206e6577206f776e657220697320746865207a65726f206160448201526564647265737360d01b6064820152608401610e7b565b61185a81613120565b6001600160a01b038316331480612a405750612a408333610d1c565b612a5c5760405162461bcd60e51b8152600401610e7b90614d87565b6122a38383836135d1565b610f80600d60ff615144565b612a7f600d60ff615144565b60ff166080901b81565b6001600160a01b03163b151590565b61185a81604051602401612aae91815260200190565b60408051601f198184030181529190526020810180516001600160e01b031663f5b1bba960e01b1790526136d6565b8151835114612afe5760405162461bcd60e51b8152600401610e7b90614fbc565b6001600160a01b038416612b245760405162461bcd60e51b8152600401610e7b90614e1c565b33612b338187878787876136f7565b60005b8451811015612c38576000858281518110612b6157634e487b7160e01b600052603260045260246000fd5b602002602001015190506000858381518110612b8d57634e487b7160e01b600052603260045260246000fd5b60209081029190910181015160008481526065835260408082206001600160a01b038e168352909352919091205490915081811015612bde5760405162461bcd60e51b8152600401610e7b90614ea4565b60008381526065602090815260408083206001600160a01b038e8116855292528083208585039055908b16825281208054849290612c1d908490615027565b9250508190555050505080612c31906151fa565b9050612b36565b50846001600160a01b0316866001600160a01b0316826001600160a01b03167f4a39dc06d4c0dbc64b70af90fd698a233a518aa5d07e595d983b8c0526c8f7fb8787604051612c88929190614c20565b60405180910390a4612c9e818787878787613b92565b505050505050565b612cb060066112d8565b80612cbe5750612cbe61291b565b61185a5760405162461bcd60e51b815260206004820152603960248201527f596f75206d75737420686176652061204d61696e7461696e657220746f6b656e60448201527f20746f20757067726164652074686520636f6e74726163742e000000000000006064820152608401610e7b565b7f4910fdfa16fed3260ed0e7147f7cc6da11a60208b5b9406d12a635614ffd91435460ff1615612d63576122a383613cfd565b826001600160a01b03166352d1902d6040518163ffffffff1660e01b815260040160206040518083038186803b158015612d9c57600080fd5b505afa925050508015612dcc575060408051601f3d908101601f19168201909252612dc99181019061488e565b60015b612e2f5760405162461bcd60e51b815260206004820152602e60248201527f45524331393637557067726164653a206e657720696d706c656d656e7461746960448201526d6f6e206973206e6f74205555505360901b6064820152608401610e7b565b6000805160206152f88339815191528114612e9e5760405162461bcd60e51b815260206004820152602960248201527f45524331393637557067726164653a20756e737570706f727465642070726f786044820152681a58589b195555525160ba1b6064820152608401610e7b565b506122a3838383613d99565b61185a81604051602401612ebe9190614c9c565b60408051601f198184030181529190526020810180516001600160e01b031663104c13eb60e21b1790526136d6565b600054610100900460ff16612f145760405162461bcd60e51b8152600401610e7b90614f71565b6122ec613dbe565b600054610100900460ff16612f435760405162461bcd60e51b8152600401610e7b90614f71565b61185a81613dee565b600054610100900460ff166122ec5760405162461bcd60e51b8152600401610e7b90614f71565b6001600160a01b038316612f995760405162461bcd60e51b8152600401610e7b90614e61565b8051825114612fba5760405162461bcd60e51b8152600401610e7b90614fbc565b6000339050612fdd818560008686604051806020016040528060008152506136f7565b60005b83518110156130c157600084828151811061300b57634e487b7160e01b600052603260045260246000fd5b60200260200101519050600084838151811061303757634e487b7160e01b600052603260045260246000fd5b60209081029190910181015160008481526065835260408082206001600160a01b038c1683529093529190912054909150818110156130885760405162461bcd60e51b8152600401610e7b90614cf7565b60009283526065602090815260408085206001600160a01b038b16865290915290922091039055806130b9816151fa565b915050612fe0565b5060006001600160a01b0316846001600160a01b0316826001600160a01b03167f4a39dc06d4c0dbc64b70af90fd698a233a518aa5d07e595d983b8c0526c8f7fb8686604051613112929190614c20565b60405180910390a450505050565b609780546001600160a01b038381166001600160a01b0319831681179093556040519116919082907f8be0079c531659141344cd1fd0a4f28419497f9722a3daafe3b4186f6b6457e090600090a35050565b6001600160a01b0384166131d25760405162461bcd60e51b815260206004820152602160248201527f455243313135353a206d696e7420746f20746865207a65726f206164647265736044820152607360f81b6064820152608401610e7b565b336131f2816000876131e388613e1e565b6131ec88613e1e565b876136f7565b60008481526065602090815260408083206001600160a01b038916845290915281208054859290613224908490615027565b909155505060408051858152602081018590526001600160a01b0380881692600092918516917fc3d58168c5ae7397731d063d5bbf3d657854427343f4c083240f7aacaa2d0f62910160405180910390a46116a381600087878787613e77565b600081156133a157600185603c8111156132ae57634e487b7160e01b600052602160045260246000fd5b1415613321576132bc61291b565b61331c5760405162461bcd60e51b815260206004820152602b60248201527f596f75206d75737420626520612073757065727573657220746f20637265617460448201526a32903732bb9037b732b99760a91b6064820152608401610e7b565b6133a1565b61332c600384611cd3565b8061333a575061333a61291b565b6133a15760405162461bcd60e51b815260206004820152603260248201527f596f75206d7573742068617665207468652043617374657220726f6c6520746f6044820152711030b9b9b4b3b7103732bb903937b632b99760711b6064820152608401610e7b565b6133c6846133af878661193b565b6001604051806020016040528060008152506122ee565b95945050505050565b816001600160a01b0316836001600160a01b031614156134435760405162461bcd60e51b815260206004820152602960248201527f455243313135353a2073657474696e6720617070726f76616c20737461747573604482015268103337b91039b2b63360b91b6064820152608401610e7b565b6001600160a01b03838116600081815260666020908152604080832094871680845294825291829020805460ff191686151590811790915591519182527f17307eab39ab6107e8899845ad3d59bd9653f200f220920489ca2b5937696c31910160405180910390a3505050565b6001600160a01b0384166134d65760405162461bcd60e51b8152600401610e7b90614e1c565b336134e68187876131e388613e1e565b60008481526065602090815260408083206001600160a01b038a168452909152902054838110156135295760405162461bcd60e51b8152600401610e7b90614ea4565b60008581526065602090815260408083206001600160a01b038b8116855292528083208785039055908816825281208054869290613568908490615027565b909155505060408051868152602081018690526001600160a01b03808916928a821692918616917fc3d58168c5ae7397731d063d5bbf3d657854427343f4c083240f7aacaa2d0f62910160405180910390a46135c8828888888888613e77565b50505050505050565b6001600160a01b0383166135f75760405162461bcd60e51b8152600401610e7b90614e61565b336136268185600061360887613e1e565b61361187613e1e565b604051806020016040528060008152506136f7565b60008381526065602090815260408083206001600160a01b0388168452909152902054828110156136695760405162461bcd60e51b8152600401610e7b90614cf7565b60008481526065602090815260408083206001600160a01b03898116808652918452828520888703905582518981529384018890529092908616917fc3d58168c5ae7397731d063d5bbf3d657854427343f4c083240f7aacaa2d0f62910160405180910390a45050505050565b80516a636f6e736f6c652e6c6f67602083016000808483855afa5050505050565b6136ff61291b565b6137bd5760005b83518110156137bb5761374260048786848151811061373557634e487b7160e01b600052603260045260246000fd5b6020026020010151611be4565b6137ab5760405162461bcd60e51b815260206004820152603460248201527f596f75206d75737420686176652061205472616e73666572657220746f6b656e604482015273103a37903a3930b739b332b9103a37b5b2b7399760611b6064820152608401610e7b565b6137b4816151fa565b9050613706565b505b6001600160a01b038416156139e35760005b83518110156139e157610194600101600085838151811061380057634e487b7160e01b600052603260045260246000fd5b6020026020010151815260200190815260200160002054600014156138ac5761019460000184828151811061384557634e487b7160e01b600052603260045260246000fd5b602090810291909101810151825460018101845560009384529183209091015561019454855190916101959187908590811061389157634e487b7160e01b600052603260045260246000fd5b60200260200101518152602001908152602001600020819055505b6101966000866001600160a01b03166001600160a01b0316815260200190815260200160002060010160008583815181106138f757634e487b7160e01b600052603260045260246000fd5b6020026020010151815260200190815260200160002054600014156139d1576001600160a01b038516600090815261019660205260409020845185908390811061395157634e487b7160e01b600052603260045260246000fd5b602090810291909101810151825460018181018555600094855283852090910191909155610194546001600160a01b038916845261019690925260408320875192939101918790859081106139b657634e487b7160e01b600052603260045260246000fd5b60200260200101518152602001908152602001600020819055505b6139da816151fa565b90506137cf565b505b6001600160a01b03851615613b845760005b8351811015613b8257828181518110613a1e57634e487b7160e01b600052603260045260246000fd5b6020026020010151613a4a87868481518110611f4557634e487b7160e01b600052603260045260246000fd5b11613b725760006101966000886001600160a01b03166001600160a01b031681526020019081526020016000206001016000868481518110613a9c57634e487b7160e01b600052603260045260246000fd5b602002602001015181526020019081526020016000205490506101966000886001600160a01b03166001600160a01b031681526020019081526020016000206000018181548110613afd57634e487b7160e01b600052603260045260246000fd5b90600052602060002001600090556101966000886001600160a01b03166001600160a01b031681526020019081526020016000206001016000868481518110613b5657634e487b7160e01b600052603260045260246000fd5b6020026020010151815260200190815260200160002060009055505b613b7b816151fa565b90506139f5565b505b612c9e868686868686613f41565b6001600160a01b0384163b15612c9e5760405163bc197c8160e01b81526001600160a01b0385169063bc197c8190613bd69089908990889088908890600401614b6a565b602060405180830381600087803b158015613bf057600080fd5b505af1925050508015613c20575060408051601f3d908101601f19168201909252613c1d918101906148c2565b60015b613ccd57613c2c615241565b806308c379a01415613c665750613c41615258565b80613c4c5750613c68565b8060405162461bcd60e51b8152600401610e7b9190614c9c565b505b60405162461bcd60e51b815260206004820152603460248201527f455243313135353a207472616e7366657220746f206e6f6e20455243313135356044820152732932b1b2b4bb32b91034b6b83632b6b2b73a32b960611b6064820152608401610e7b565b6001600160e01b0319811663bc197c8160e01b146135c85760405162461bcd60e51b8152600401610e7b90614caf565b6001600160a01b0381163b613d6a5760405162461bcd60e51b815260206004820152602d60248201527f455243313936373a206e657720696d706c656d656e746174696f6e206973206e60448201526c1bdd08184818dbdb9d1c9858dd609a1b6064820152608401610e7b565b6000805160206152f883398151915280546001600160a01b0319166001600160a01b0392909216919091179055565b613da283614085565b600082511180613daf5750805b156122a35761129583836140c5565b600054610100900460ff16613de55760405162461bcd60e51b8152600401610e7b90614f71565b6122ec33613120565b600054610100900460ff16613e155760405162461bcd60e51b8152600401610e7b90614f71565b61185a816141b0565b60408051600180825281830190925260609160009190602080830190803683370190505090508281600081518110613e6657634e487b7160e01b600052603260045260246000fd5b602090810291909101015292915050565b6001600160a01b0384163b15612c9e5760405163f23a6e6160e01b81526001600160a01b0385169063f23a6e6190613ebb9089908990889088908890600401614bc8565b602060405180830381600087803b158015613ed557600080fd5b505af1925050508015613f05575060408051601f3d908101601f19168201909252613f02918101906148c2565b60015b613f1157613c2c615241565b6001600160e01b0319811663f23a6e6160e01b146135c85760405162461bcd60e51b8152600401610e7b90614caf565b6001600160a01b038516613fe45760005b8351811015613fe257828181518110613f7b57634e487b7160e01b600052603260045260246000fd5b602002602001015160fb6000868481518110613fa757634e487b7160e01b600052603260045260246000fd5b602002602001015181526020019081526020016000206000828254613fcc9190615027565b90915550613fdb9050816151fa565b9050613f52565b505b6001600160a01b038416612c9e5760005b83518110156135c85782818151811061401e57634e487b7160e01b600052603260045260246000fd5b602002602001015160fb600086848151811061404a57634e487b7160e01b600052603260045260246000fd5b60200260200101518152602001908152602001600020600082825461406f919061512d565b9091555061407e9050816151fa565b9050613ff5565b61408e81613cfd565b6040516001600160a01b038216907fbc7cd75a20ee27fd9adebab32041f755214dbc6bffa90cc0225b39da2e5c2d3b90600090a250565b60606001600160a01b0383163b61412d5760405162461bcd60e51b815260206004820152602660248201527f416464726573733a2064656c65676174652063616c6c20746f206e6f6e2d636f6044820152651b9d1c9858dd60d21b6064820152608401610e7b565b600080846001600160a01b0316846040516141489190614b4e565b600060405180830381855af49150503d8060008114614183576040519150601f19603f3d011682016040523d82523d6000602084013e614188565b606091505b50915091506133c68282604051806060016040528060278152602001615318602791396141c3565b8051611937906067906020840190614280565b606083156141d2575081611cb1565b8251156141e25782518084602001fd5b8160405162461bcd60e51b8152600401610e7b9190614c9c565b82805461420890615193565b90600052602060002090601f01602090048101928261422a5760008555614270565b82601f106142435782800160ff19823516178555614270565b82800160010185558215614270579182015b82811115614270578235825591602001919060010190614255565b5061427c9291506142f4565b5090565b82805461428c90615193565b90600052602060002090601f0160209004810192826142ae5760008555614270565b82601f106142c757805160ff1916838001178555614270565b82800160010185558215614270579182015b828111156142705782518255916020019190600101906142d9565b5b8082111561427c57600081556001016142f5565b60006001600160401b038311156143225761432261522b565b604051614339601f8501601f1916602001826151ce565b80915083815284848401111561434e57600080fd5b83836020830137600060208583010152509392505050565b80356001600160a01b038116811461437d57600080fd5b919050565b600082601f830112614392578081fd5b8135602061439f82615004565b6040516143ac82826151ce565b8381528281019150858301600585901b870184018810156143cb578586fd5b855b858110156143f0576143de82614366565b845292840192908401906001016143cd565b5090979650505050505050565b600082601f83011261440d578081fd5b8135602061441a82615004565b60405161442782826151ce565b8381528281019150858301600585901b87018401881015614446578586fd5b855b858110156143f057813584529284019290840190600101614448565b600082601f830112614474578081fd5b611cb183833560208501614309565b8035603d811061437d57600080fd5b60008083601f8401126144a3578182fd5b5081356001600160401b038111156144b9578182fd5b6020830191508360208285010111156144d157600080fd5b9250929050565b6000602082840312156144e9578081fd5b611cb182614366565b60008060408385031215614504578081fd5b61450d83614366565b915061451b60208401614366565b90509250929050565b600080600080600060a0868803121561453b578081fd5b61454486614366565b945061455260208701614366565b935060408601356001600160401b038082111561456d578283fd5b61457989838a016143fd565b9450606088013591508082111561458e578283fd5b61459a89838a016143fd565b935060808801359150808211156145af578283fd5b506145bc88828901614464565b9150509295509295909350565b600080600080600060a086880312156145e0578081fd5b6145e986614366565b94506145f760208701614366565b9350604086013592506060860135915060808601356001600160401b0381111561461f578182fd5b6145bc88828901614464565b60008060006060848603121561463f578283fd5b61464884614366565b925060208401356001600160401b0380821115614663578384fd5b61466f878388016143fd565b93506040860135915080821115614684578283fd5b50614691868287016143fd565b9150509250925092565b600080604083850312156146ad578182fd5b6146b683614366565b9150602083013580151581146146ca578182fd5b809150509250929050565b600080604083850312156146e7578182fd5b6146f083614366565b915060208301356001600160401b0381111561470a578182fd5b61471685828601614464565b9150509250929050565b60008060408385031215614732578182fd5b61473b83614366565b946020939093013593505050565b60008060006060848603121561475d578081fd5b61476684614366565b95602085013595506040909401359392505050565b60008060008060808587031215614790578182fd5b61479985614366565b9350602085013592506040850135915060608501356001600160401b038111156147c1578182fd5b6147cd87828801614464565b91505092959194509250565b600080604083850312156147eb578182fd5b82356001600160401b0380821115614801578384fd5b61480d86838701614382565b93506020850135915080821115614822578283fd5b50614716858286016143fd565b600080600060608486031215614843578081fd5b83356001600160401b0380821115614859578283fd5b61486587838801614382565b9450602086013593506040860135915080821115614881578283fd5b5061469186828701614464565b60006020828403121561489f578081fd5b5051919050565b6000602082840312156148b7578081fd5b8135611cb1816152e1565b6000602082840312156148d3578081fd5b8151611cb1816152e1565b6000602082840312156148ef578081fd5b611cb182614483565b6000806040838503121561490a578182fd5b61450d83614483565b600080600060608486031215614927578081fd5b61493084614483565b925061493e60208501614366565b9150604084013590509250925092565b60008060408385031215614960578182fd5b61473b83614483565b6000806000806040858703121561497e578182fd5b84356001600160401b0380821115614994578384fd5b6149a088838901614492565b909650945060208701359150808211156149b8578384fd5b506149c587828801614492565b95989497509550505050565b6000602082840312156149e2578081fd5b81356001600160401b038111156149f7578182fd5b8201601f81018413614a07578182fd5b6124ed84823560208401614309565b600060208284031215614a27578081fd5b5035919050565b600080600060408486031215614a42578081fd5b8335925060208401356001600160401b03811115614a5e578182fd5b614a6a86828701614492565b9497909650939450505050565b60008060008060608587031215614a8c578182fd5b8435935060208501356001600160401b03811115614aa8578283fd5b614ab487828801614492565b9598909750949560400135949350505050565b60008060408385031215614ad9578182fd5b50508035926020909101359150565b6000815180845260208085019450808401835b83811015614b1757815187529582019590820190600101614afb565b509495945050505050565b60008151808452614b3a816020860160208601615167565b601f01601f19169290920160200192915050565b60008251614b60818460208701615167565b9190910192915050565b6001600160a01b0386811682528516602082015260a060408201819052600090614b9690830186614ae8565b8281036060840152614ba88186614ae8565b90508281036080840152614bbc8185614b22565b98975050505050505050565b6001600160a01b03868116825285166020820152604081018490526060810183905260a060808201819052600090614c0290830184614b22565b979650505050505050565b602081526000611cb16020830184614ae8565b604081526000614c336040830185614ae8565b8281036020840152611cad8185614ae8565b60208101603d8310614c6757634e487b7160e01b600052602160045260246000fd5b91905290565b60208152816020820152818360408301376000818301604090810191909152601f909201601f19160101919050565b602081526000611cb16020830184614b22565b60208082526028908201527f455243313135353a204552433131353552656365697665722072656a656374656040820152676420746f6b656e7360c01b606082015260800190565b60208082526024908201527f455243313135353a206275726e20616d6f756e7420657863656564732062616c604082015263616e636560e01b606082015260800190565b6020808252602c908201527f46756e6374696f6e206d7573742062652063616c6c6564207468726f7567682060408201526b19195b1959d85d1958d85b1b60a21b606082015260800190565b60208082526029908201527f455243313135353a2063616c6c6572206973206e6f74206f776e6572206e6f7260408201526808185c1c1c9bdd995960ba1b606082015260800190565b6020808252602c908201527f46756e6374696f6e206d7573742062652063616c6c6564207468726f7567682060408201526b6163746976652070726f787960a01b606082015260800190565b60208082526025908201527f455243313135353a207472616e7366657220746f20746865207a65726f206164604082015264647265737360d81b606082015260800190565b60208082526023908201527f455243313135353a206275726e2066726f6d20746865207a65726f206164647260408201526265737360e81b606082015260800190565b6020808252602a908201527f455243313135353a20696e73756666696369656e742062616c616e636520666f60408201526939103a3930b739b332b960b11b606082015260800190565b6020808252818101527f4f776e61626c653a2063616c6c6572206973206e6f7420746865206f776e6572604082015260600190565b6020808252602e908201527f4552432d3131353520456e756d657261626c653a20746f6b656e20696e64657860408201526d206f7574206f6620626f756e647360901b606082015260800190565b6020808252602b908201527f496e697469616c697a61626c653a20636f6e7472616374206973206e6f74206960408201526a6e697469616c697a696e6760a81b606082015260800190565b60208082526028908201527f455243313135353a2069647320616e6420616d6f756e7473206c656e677468206040820152670dad2e6dac2e8c6d60c31b606082015260800190565b60006001600160401b0382111561501d5761501d61522b565b5060051b60200190565b6000821982111561503a5761503a615215565b500190565b600181815b8085111561507a57816000190482111561506057615060615215565b8085161561506d57918102915b93841c9390800290615044565b509250929050565b6000611cb160ff84168360008261509b57506001610ea9565b816150a857506000610ea9565b81600181146150be57600281146150c8576150e4565b6001915050610ea9565b60ff8411156150d9576150d9615215565b50506001821b610ea9565b5060208310610133831016604e8410600b8410161715615107575081810a610ea9565b615111838361503f565b806000190482111561512557615125615215565b029392505050565b60008282101561513f5761513f615215565b500390565b600060ff821660ff84168082101561515e5761515e615215565b90039392505050565b60005b8381101561518257818101518382015260200161516a565b838111156112955750506000910152565b600181811c908216806151a757607f821691505b602082108114156151c857634e487b7160e01b600052602260045260246000fd5b50919050565b601f8201601f191681016001600160401b03811182821017156151f3576151f361522b565b6040525050565b600060001982141561520e5761520e615215565b5060010190565b634e487b7160e01b600052601160045260246000fd5b634e487b7160e01b600052604160045260246000fd5b600060033d11156121c057600481823e5160e01c90565b600060443d10156152665790565b6040516003193d81016004833e81513d6001600160401b03816024840111818411171561529557505050505090565b82850191508151818111156152ad5750505050505090565b843d87010160208285010111156152c75750505050505090565b6152d6602082860101876151ce565b509095945050505050565b6001600160e01b03198116811461185a57600080fdfe360894a13ba1a3210667c828492db98dca3e2076cc3735a920a3ca505d382bbc416464726573733a206c6f772d6c6576656c2064656c65676174652063616c6c206661696c6564a2646970667358221220b27d6f537476fe0c9ec34a54483a744081511527208db85e22d6f6762738e4f364736f6c63430008040033",
  "linkReferences": {},
  "deployedLinkReferences": {}
}