{
  "_format": "hh-sol-artifact-1",
  "contractName": "Bits",
  "sourceName": "src/BulkDisbursableNFTs.sol",
  "abi": [
    {
      "inputs": [],
      "name": "ADDRESS_TYPE",
      "outputs": [
        {
          "internalType": "uint256",
          "name": "",
          "type": "uint256"
        }
      ],
      "stateMutability": "view",
      "type": "function"
    },
    {
      "inputs": [],
      "name": "COUNTER_MASK",
      "outputs": [
        {
          "internalType": "uint256",
          "name": "",
          "type": "uint256"
        }
      ],
      "stateMutability": "view",
      "type": "function"
    },
    {
      "inputs": [],
      "name": "COUNTER_WIDTH",
      "outputs": [
        {
          "internalType": "uint8",
          "name": "",
          "type": "uint8"
        }
      ],
      "stateMutability": "view",
      "type": "function"
    },
    {
      "inputs": [],
      "name": "DISABLING_TYPE",
      "outputs": [
        {
          "internalType": "uint256",
          "name": "",
          "type": "uint256"
        }
      ],
      "stateMutability": "view",
      "type": "function"
    },
    {
      "inputs": [],
      "name": "EXPERIMENTAL_TYPE",
      "outputs": [
        {
          "internalType": "uint256",
          "name": "",
          "type": "uint256"
        }
      ],
      "stateMutability": "view",
      "type": "function"
    },
    {
      "inputs": [],
      "name": "GATING_TYPE",
      "outputs": [
        {
          "internalType": "uint256",
          "name": "",
          "type": "uint256"
        }
      ],
      "stateMutability": "view",
      "type": "function"
    },
    {
      "inputs": [],
      "name": "INTERNAL_BOUNDARY",
      "outputs": [
        {
          "internalType": "uint8",
          "name": "",
          "type": "uint8"
        }
      ],
      "stateMutability": "view",
      "type": "function"
    },
    {
      "inputs": [],
      "name": "INTERNAL_MASK",
      "outputs": [
        {
          "internalType": "uint256",
          "name": "",
          "type": "uint256"
        }
      ],
      "stateMutability": "view",
      "type": "function"
    },
    {
      "inputs": [],
      "name": "INTERNAL_WIDTH",
      "outputs": [
        {
          "internalType": "uint8",
          "name": "",
          "type": "uint8"
        }
      ],
      "stateMutability": "view",
      "type": "function"
    },
    {
      "inputs": [],
      "name": "MEMBERSHIP_TYPE",
      "outputs": [
        {
          "internalType": "uint256",
          "name": "",
          "type": "uint256"
        }
      ],
      "stateMutability": "view",
      "type": "function"
    },
    {
      "inputs": [],
      "name": "NO_MATCH_FLAGS",
      "outputs": [
        {
          "internalType": "uint256",
          "name": "",
          "type": "uint256"
        }
      ],
      "stateMutability": "view",
      "type": "function"
    },
    {
      "inputs": [],
      "name": "REACTION_TYPE",
      "outputs": [
        {
          "internalType": "uint256",
          "name": "",
          "type": "uint256"
        }
      ],
      "stateMutability": "view",
      "type": "function"
    },
    {
      "inputs": [],
      "name": "RECORDED_TIME_TYPE",
      "outputs": [
        {
          "internalType": "uint256",
          "name": "",
          "type": "uint256"
        }
      ],
      "stateMutability": "view",
      "type": "function"
    },
    {
      "inputs": [],
      "name": "RECORDING_TYPE",
      "outputs": [
        {
          "internalType": "uint256",
          "name": "",
          "type": "uint256"
        }
      ],
      "stateMutability": "view",
      "type": "function"
    },
    {
      "inputs": [],
      "name": "REPETITION_BOUNDARY",
      "outputs": [
        {
          "internalType": "uint8",
          "name": "",
          "type": "uint8"
        }
      ],
      "stateMutability": "view",
      "type": "function"
    },
    {
      "inputs": [],
      "name": "REPETITION_MASK",
      "outputs": [
        {
          "internalType": "uint256",
          "name": "",
          "type": "uint256"
        }
      ],
      "stateMutability": "view",
      "type": "function"
    },
    {
      "inputs": [],
      "name": "REPETITION_WIDTH",
      "outputs": [
        {
          "internalType": "uint8",
          "name": "",
          "type": "uint8"
        }
      ],
      "stateMutability": "view",
      "type": "function"
    },
    {
      "inputs": [],
      "name": "REQUIREMENT_BOUNDARY",
      "outputs": [
        {
          "internalType": "uint8",
          "name": "",
          "type": "uint8"
        }
      ],
      "stateMutability": "view",
      "type": "function"
    },
    {
      "inputs": [],
      "name": "REQUIREMENT_MASK",
      "outputs": [
        {
          "internalType": "uint256",
          "name": "",
          "type": "uint256"
        }
      ],
      "stateMutability": "view",
      "type": "function"
    },
    {
      "inputs": [],
      "name": "REQUIREMENT_WIDTH",
      "outputs": [
        {
          "internalType": "uint8",
          "name": "",
          "type": "uint8"
        }
      ],
      "stateMutability": "view",
      "type": "function"
    },
    {
      "inputs": [],
      "name": "REQUIRE_ALL",
      "outputs": [
        {
          "internalType": "uint256",
          "name": "",
          "type": "uint256"
        }
      ],
      "stateMutability": "view",
      "type": "function"
    },
    {
      "inputs": [],
      "name": "REQUIRE_NONE",
      "outputs": [
        {
          "internalType": "uint256",
          "name": "",
          "type": "uint256"
        }
      ],
      "stateMutability": "view",
      "type": "function"
    },
    {
      "inputs": [],
      "name": "REQUIRE_ONE",
      "outputs": [
        {
          "internalType": "uint256",
          "name": "",
          "type": "uint256"
        }
      ],
      "stateMutability": "view",
      "type": "function"
    },
    {
      "inputs": [],
      "name": "REVIEW_TYPE",
      "outputs": [
        {
          "internalType": "uint256",
          "name": "",
          "type": "uint256"
        }
      ],
      "stateMutability": "view",
      "type": "function"
    },
    {
      "inputs": [],
      "name": "ROLE_BOUNDARY",
      "outputs": [
        {
          "internalType": "uint8",
          "name": "",
          "type": "uint8"
        }
      ],
      "stateMutability": "view",
      "type": "function"
    },
    {
      "inputs": [],
      "name": "ROLE_MASK",
      "outputs": [
        {
          "internalType": "uint256",
          "name": "",
          "type": "uint256"
        }
      ],
      "stateMutability": "view",
      "type": "function"
    },
    {
      "inputs": [],
      "name": "ROLE_WIDTH",
      "outputs": [
        {
          "internalType": "uint8",
          "name": "",
          "type": "uint8"
        }
      ],
      "stateMutability": "view",
      "type": "function"
    },
    {
      "inputs": [],
      "name": "TEAM_1",
      "outputs": [
        {
          "internalType": "uint256",
          "name": "",
          "type": "uint256"
        }
      ],
      "stateMutability": "view",
      "type": "function"
    },
    {
      "inputs": [],
      "name": "TEAM_2",
      "outputs": [
        {
          "internalType": "uint256",
          "name": "",
          "type": "uint256"
        }
      ],
      "stateMutability": "view",
      "type": "function"
    },
    {
      "inputs": [],
      "name": "TEAM_3",
      "outputs": [
        {
          "internalType": "uint256",
          "name": "",
          "type": "uint256"
        }
      ],
      "stateMutability": "view",
      "type": "function"
    },
    {
      "inputs": [],
      "name": "TEAM_4",
      "outputs": [
        {
          "internalType": "uint256",
          "name": "",
          "type": "uint256"
        }
      ],
      "stateMutability": "view",
      "type": "function"
    },
    {
      "inputs": [],
      "name": "TEAM_5",
      "outputs": [
        {
          "internalType": "uint256",
          "name": "",
          "type": "uint256"
        }
      ],
      "stateMutability": "view",
      "type": "function"
    },
    {
      "inputs": [],
      "name": "TEAM_6",
      "outputs": [
        {
          "internalType": "uint256",
          "name": "",
          "type": "uint256"
        }
      ],
      "stateMutability": "view",
      "type": "function"
    },
    {
      "inputs": [],
      "name": "TEAM_7",
      "outputs": [
        {
          "internalType": "uint256",
          "name": "",
          "type": "uint256"
        }
      ],
      "stateMutability": "view",
      "type": "function"
    },
    {
      "inputs": [],
      "name": "TEAM_8",
      "outputs": [
        {
          "internalType": "uint256",
          "name": "",
          "type": "uint256"
        }
      ],
      "stateMutability": "view",
      "type": "function"
    },
    {
      "inputs": [],
      "name": "TEAM_9",
      "outputs": [
        {
          "internalType": "uint256",
          "name": "",
          "type": "uint256"
        }
      ],
      "stateMutability": "view",
      "type": "function"
    },
    {
      "inputs": [],
      "name": "TEAM_A",
      "outputs": [
        {
          "internalType": "uint256",
          "name": "",
          "type": "uint256"
        }
      ],
      "stateMutability": "view",
      "type": "function"
    },
    {
      "inputs": [],
      "name": "TEAM_B",
      "outputs": [
        {
          "internalType": "uint256",
          "name": "",
          "type": "uint256"
        }
      ],
      "stateMutability": "view",
      "type": "function"
    },
    {
      "inputs": [],
      "name": "TEAM_BOUNDARY",
      "outputs": [
        {
          "internalType": "uint8",
          "name": "",
          "type": "uint8"
        }
      ],
      "stateMutability": "view",
      "type": "function"
    },
    {
      "inputs": [],
      "name": "TEAM_C",
      "outputs": [
        {
          "internalType": "uint256",
          "name": "",
          "type": "uint256"
        }
      ],
      "stateMutability": "view",
      "type": "function"
    },
    {
      "inputs": [],
      "name": "TEAM_D",
      "outputs": [
        {
          "internalType": "uint256",
          "name": "",
          "type": "uint256"
        }
      ],
      "stateMutability": "view",
      "type": "function"
    },
    {
      "inputs": [],
      "name": "TEAM_MASK",
      "outputs": [
        {
          "internalType": "uint256",
          "name": "",
          "type": "uint256"
        }
      ],
      "stateMutability": "view",
      "type": "function"
    },
    {
      "inputs": [],
      "name": "TEAM_WIDTH",
      "outputs": [
        {
          "internalType": "uint8",
          "name": "",
          "type": "uint8"
        }
      ],
      "stateMutability": "view",
      "type": "function"
    },
    {
      "inputs": [],
      "name": "TYPE_BOUNDARY",
      "outputs": [
        {
          "internalType": "uint8",
          "name": "",
          "type": "uint8"
        }
      ],
      "stateMutability": "view",
      "type": "function"
    },
    {
      "inputs": [],
      "name": "TYPE_MASK",
      "outputs": [
        {
          "internalType": "uint256",
          "name": "",
          "type": "uint256"
        }
      ],
      "stateMutability": "view",
      "type": "function"
    },
    {
      "inputs": [],
      "name": "TYPE_WIDTH",
      "outputs": [
        {
          "internalType": "uint8",
          "name": "",
          "type": "uint8"
        }
      ],
      "stateMutability": "view",
      "type": "function"
    },
    {
      "inputs": [],
      "name": "UNIQUE",
      "outputs": [
        {
          "internalType": "uint256",
          "name": "",
          "type": "uint256"
        }
      ],
      "stateMutability": "view",
      "type": "function"
    },
    {
      "inputs": [],
      "name": "UNIQUENESS_BOUNDARY",
      "outputs": [
        {
          "internalType": "uint8",
          "name": "",
          "type": "uint8"
        }
      ],
      "stateMutability": "view",
      "type": "function"
    },
    {
      "inputs": [],
      "name": "UNIQUENESS_MASK",
      "outputs": [
        {
          "internalType": "uint256",
          "name": "",
          "type": "uint256"
        }
      ],
      "stateMutability": "view",
      "type": "function"
    },
    {
      "inputs": [],
      "name": "UNIQUENESS_WIDTH",
      "outputs": [
        {
          "internalType": "uint8",
          "name": "",
          "type": "uint8"
        }
      ],
      "stateMutability": "view",
      "type": "function"
    },
    {
      "inputs": [],
      "name": "USE_AFTER",
      "outputs": [
        {
          "internalType": "uint256",
          "name": "",
          "type": "uint256"
        }
      ],
      "stateMutability": "view",
      "type": "function"
    },
    {
      "inputs": [],
      "name": "USE_ONCE",
      "outputs": [
        {
          "internalType": "uint256",
          "name": "",
          "type": "uint256"
        }
      ],
      "stateMutability": "view",
      "type": "function"
    },
    {
      "inputs": [],
      "name": "USE_UNLIMITED",
      "outputs": [
        {
          "internalType": "uint256",
          "name": "",
          "type": "uint256"
        }
      ],
      "stateMutability": "view",
      "type": "function"
    },
    {
      "inputs": [],
      "name": "USE_UNTIL",
      "outputs": [
        {
          "internalType": "uint256",
          "name": "",
          "type": "uint256"
        }
      ],
      "stateMutability": "view",
      "type": "function"
    },
    {
      "inputs": [],
      "name": "VANILLA_TYPE",
      "outputs": [
        {
          "internalType": "uint256",
          "name": "",
          "type": "uint256"
        }
      ],
      "stateMutability": "view",
      "type": "function"
    },
    {
      "inputs": [],
      "name": "VOUCHED_TIME_TYPE",
      "outputs": [
        {
          "internalType": "uint256",
          "name": "",
          "type": "uint256"
        }
      ],
      "stateMutability": "view",
      "type": "function"
    }
  ],
  "bytecode": "0x610c5a61003a600b82828239805160001a60731461002d57634e487b7160e01b600052600060045260246000fd5b30600052607381538281f3fe73000000000000000000000000000000000000000030146080604052600436106102925760003560e01c8063067ff866146102975780630daec9e4146102b65780630f94cc50146102cc57806311bb8afd146102d457806313affe4f146102dc57806318ae2375146102e45780631c45349c146102ec5780632ed58d81146102f457806330c9cf93146102fc57806333d810881461030457806334628c1f1461030c57806335ab86291461031457806339054c231461031c5780633adbbbc1146103245780633b60bd011461032c5780633c176d9f146103345780633f79f1a41461033c57806344cca2df146103445780634ce7a2441461034c5780634f06c0fb14610354578063513e15d91461035c5780635157b5631461036457806351d294251461036c57806355237661146103745780635e2a33861461037c578063666e6fd514610384578063669d5bfa1461038c5780636fa09a79146103945780637e8ceec71461039c57806383e5b21a146103a457806384bb0fe6146103ac578063891fbef01461033457806392e4267b146103b4578063957dc9a0146103bc5780639c37625c146103c45780639eb3f243146103cc5780639f31459a146103d4578063a8410bc1146103dc578063a9c906ae146103e4578063aae5270f146103ec578063aaeec72d146103f4578063b8785f8a146103d4578063ba952df1146103fc578063baf42f9314610404578063c5a0d9b2146102f4578063d3e62b091461040c578063d701765014610414578063d7fcc1131461041c578063db58fe9514610424578063dbd406e81461042c578063e5587f7a14610434578063e86410921461043c578063f28a726d14610444578063f449d92f1461044c578063f73a731114610454578063f8418ef31461045c575b600080fd5b61029f610464565b60405160ff90911681526020015b60405180910390f35b6102be610480565b6040519081526020016102ad565b6102be610498565b61029f602081565b6102be6104d1565b61029f6104e8565b6102be610503565b61029f600381565b6102be610526565b6102be610549565b6102be6105f2565b6102be610609565b6102be610621565b6102be61065b565b61029f600d81565b61029f600881565b6102be61067e565b61029f61068d565b6102be6106a9565b6102be6106d8565b6102be6106f0565b6102be610713565b6102be610742565b6102be610751565b6102be610777565b6102be61078f565b6102be61079e565b6102be6107db565b6102be6107ec565b6102be610804565b6102be610827565b6102be610868565b6102be610879565b61029f6108a1565b6102be6108d5565b61029f600181565b6102be6108e2565b6102be6108ef565b6102be6108fc565b6102be610924565b61029f610940565b6102be610955565b6102be610978565b6102be6109c4565b6102be6109d1565b6102be6109ef565b6102be610a07565b61029f610a1e565b6102be610a32565b6102be610a55565b6102be610a67565b61029f610a91565b6102be610a9e565b6008610473600d610100610bb1565b61047d9190610beb565b81565b61048d600d610100610bb1565b60ff16610400901b81565b60086104a7600d610100610bb1565b6104b19190610beb565b60ff1660016104c260086002610af8565b6104cc9190610bd4565b901b81565b6104de600d610100610bb1565b60ff166010901b81565b600360086104f9600d610100610bb1565b6104739190610beb565b6008610512600d610100610bb1565b61051c9190610beb565b60ff166006901b81565b6008610535600d610100610bb1565b61053f9190610beb565b60ff166004901b81565b60016008816003808361055f600d610100610bb1565b6105699190610beb565b6105739190610beb565b61057d9190610beb565b6105879190610beb565b6105919190610beb565b61059b9190610beb565b60ff1660016105ab816002610af8565b6105b59190610bd4565b901b60038060086105c9600d610100610bb1565b6105d39190610beb565b6105dd9190610beb565b6105e79190610beb565b60ff166001901b1781565b6105ff600d610100610bb1565b60ff166020901b81565b610616600d610100610bb1565b60ff16611000901b81565b6003806008610633600d610100610bb1565b61063d9190610beb565b6106479190610beb565b6106519190610beb565b60ff166002901b81565b600861066a600d610100610bb1565b6106749190610beb565b60ff166005901b81565b6008610647600d610100610bb1565b600380600861069f600d610100610bb1565b6104f99190610beb565b600360086106ba600d610100610bb1565b6106c49190610beb565b6106ce9190610beb565b60ff166003901b81565b6106e5600d610100610bb1565b60ff16610800901b81565b60086106ff600d610100610bb1565b6107099190610beb565b60ff16600a901b81565b60036008610724600d610100610bb1565b61072e9190610beb565b6107389190610beb565b60ff166001901b81565b600861072e600d610100610bb1565b6003806008610763600d610100610bb1565b61076d9190610beb565b6105359190610beb565b610784600d610100610bb1565b60ff16610100901b81565b60086106c4600d610100610bb1565b60086001600380836107b3600d610100610bb1565b6107bd9190610beb565b6107c79190610beb565b6107d19190610beb565b6104a79190610beb565b6003600861063d600d610100610bb1565b60016107fa60206002610af8565b61047d9190610bd4565b6008610813600d610100610bb1565b61081d9190610beb565b60ff166008901b81565b6003806008610839600d610100610bb1565b6108439190610beb565b61084d9190610beb565b6108579190610beb565b60ff1660016104c260036002610af8565b60036008610843600d610100610bb1565b6008610888600d610100610bb1565b6108929190610beb565b60ff166104cc60086002610af8565b6001600881600380836108b7600d610100610bb1565b6108c19190610beb565b6108cb9190610beb565b61069f9190610beb565b61053f600d610100610bb1565b610651600d610100610bb1565b61081d600d610100610bb1565b60016003806008610910600d610100610bb1565b61091a9190610beb565b6107249190610beb565b6003806008610936600d610100610bb1565b6106ba9190610beb565b60086001600380836108c1600d610100610bb1565b6008610964600d610100610bb1565b61096e9190610beb565b60ff166007901b81565b6001600380600861098c600d610100610bb1565b6109969190610beb565b6109a09190610beb565b6109aa9190610beb565b6109b49190610beb565b60ff1660016104c2816002610af8565b610738600d610100610bb1565b6109de600d610100610bb1565b60ff1660016104c2600d6002610af8565b6109fc600d610100610bb1565b60ff16610200901b81565b610a14600d610100610bb1565b60ff166040901b81565b600160038060086108cb600d610100610bb1565b6008610a41600d610100610bb1565b610a4b9190610beb565b60ff166009901b81565b600380600861091a600d610100610bb1565b600160088160038083610a7d600d610100610bb1565b610a879190610beb565b61098c9190610beb565b61047d600d610100610bb1565b610aab600d610100610bb1565b60ff166080901b81565b600181815b80851115610af0578160001904821115610ad657610ad6610c0e565b80851615610ae357918102915b93841c9390800290610aba565b509250929050565b6000610b0760ff841683610b0e565b9392505050565b600082610b1d57506001610bab565b81610b2a57506000610bab565b8160018114610b405760028114610b4a57610b66565b6001915050610bab565b60ff841115610b5b57610b5b610c0e565b50506001821b610bab565b5060208310610133831016604e8410600b8410161715610b89575081810a610bab565b610b938383610ab5565b8060001904821115610ba757610ba7610c0e565b0290505b92915050565b600061ffff83811690831681811015610bcc57610bcc610c0e565b039392505050565b600082821015610be657610be6610c0e565b500390565b600060ff821660ff841680821015610c0557610c05610c0e565b90039392505050565b634e487b7160e01b600052601160045260246000fdfea26469706673582212201cea1b881cd56369b04836a1d8fe8cccd479e8e51c4895fe3b80fc3bdccfdbab64736f6c63430008040033",
  "linkReferences": {},
  "deployedLinkReferences": {}
}