{
  "_format": "hh-sol-artifact-1",
  "contractName": "bits",
  "sourceName": "src/BulkDisbursableNFTs.sol",
  "abi": [
    {
      "inputs": [],
      "name": "ADDRESS_TYPE",
      "outputs": [
        {
          "internalType": "uint256",
          "name": "",
          "type": "uint256"
        }
      ],
      "stateMutability": "view",
      "type": "function"
    },
    {
      "inputs": [],
      "name": "COUNTER_MASK",
      "outputs": [
        {
          "internalType": "uint256",
          "name": "",
          "type": "uint256"
        }
      ],
      "stateMutability": "view",
      "type": "function"
    },
    {
      "inputs": [],
      "name": "COUNTER_WIDTH",
      "outputs": [
        {
          "internalType": "uint8",
          "name": "",
          "type": "uint8"
        }
      ],
      "stateMutability": "view",
      "type": "function"
    },
    {
      "inputs": [],
      "name": "EXPERIMENTAL_TYPE",
      "outputs": [
        {
          "internalType": "uint256",
          "name": "",
          "type": "uint256"
        }
      ],
      "stateMutability": "view",
      "type": "function"
    },
    {
      "inputs": [],
      "name": "GATING_TYPE",
      "outputs": [
        {
          "internalType": "uint256",
          "name": "",
          "type": "uint256"
        }
      ],
      "stateMutability": "view",
      "type": "function"
    },
    {
      "inputs": [],
      "name": "INTERNAL_BOUNDARY",
      "outputs": [
        {
          "internalType": "uint8",
          "name": "",
          "type": "uint8"
        }
      ],
      "stateMutability": "view",
      "type": "function"
    },
    {
      "inputs": [],
      "name": "INTERNAL_MASK",
      "outputs": [
        {
          "internalType": "uint256",
          "name": "",
          "type": "uint256"
        }
      ],
      "stateMutability": "view",
      "type": "function"
    },
    {
      "inputs": [],
      "name": "INTERNAL_WIDTH",
      "outputs": [
        {
          "internalType": "uint8",
          "name": "",
          "type": "uint8"
        }
      ],
      "stateMutability": "view",
      "type": "function"
    },
    {
      "inputs": [],
      "name": "MEMBERSHIP_TYPE",
      "outputs": [
        {
          "internalType": "uint256",
          "name": "",
          "type": "uint256"
        }
      ],
      "stateMutability": "view",
      "type": "function"
    },
    {
      "inputs": [],
      "name": "NO_MATCH_FLAGS",
      "outputs": [
        {
          "internalType": "uint256",
          "name": "",
          "type": "uint256"
        }
      ],
      "stateMutability": "view",
      "type": "function"
    },
    {
      "inputs": [],
      "name": "REACTION_TYPE",
      "outputs": [
        {
          "internalType": "uint256",
          "name": "",
          "type": "uint256"
        }
      ],
      "stateMutability": "view",
      "type": "function"
    },
    {
      "inputs": [],
      "name": "RECORDED_TIME_TYPE",
      "outputs": [
        {
          "internalType": "uint256",
          "name": "",
          "type": "uint256"
        }
      ],
      "stateMutability": "view",
      "type": "function"
    },
    {
      "inputs": [],
      "name": "RECORDING_TYPE",
      "outputs": [
        {
          "internalType": "uint256",
          "name": "",
          "type": "uint256"
        }
      ],
      "stateMutability": "view",
      "type": "function"
    },
    {
      "inputs": [],
      "name": "REPETITION_BOUNDARY",
      "outputs": [
        {
          "internalType": "uint8",
          "name": "",
          "type": "uint8"
        }
      ],
      "stateMutability": "view",
      "type": "function"
    },
    {
      "inputs": [],
      "name": "REPETITION_MASK",
      "outputs": [
        {
          "internalType": "uint256",
          "name": "",
          "type": "uint256"
        }
      ],
      "stateMutability": "view",
      "type": "function"
    },
    {
      "inputs": [],
      "name": "REPETITION_WIDTH",
      "outputs": [
        {
          "internalType": "uint8",
          "name": "",
          "type": "uint8"
        }
      ],
      "stateMutability": "view",
      "type": "function"
    },
    {
      "inputs": [],
      "name": "REQUIREMENT_BOUNDARY",
      "outputs": [
        {
          "internalType": "uint8",
          "name": "",
          "type": "uint8"
        }
      ],
      "stateMutability": "view",
      "type": "function"
    },
    {
      "inputs": [],
      "name": "REQUIREMENT_MASK",
      "outputs": [
        {
          "internalType": "uint256",
          "name": "",
          "type": "uint256"
        }
      ],
      "stateMutability": "view",
      "type": "function"
    },
    {
      "inputs": [],
      "name": "REQUIREMENT_WIDTH",
      "outputs": [
        {
          "internalType": "uint8",
          "name": "",
          "type": "uint8"
        }
      ],
      "stateMutability": "view",
      "type": "function"
    },
    {
      "inputs": [],
      "name": "REQUIRE_ALL",
      "outputs": [
        {
          "internalType": "uint256",
          "name": "",
          "type": "uint256"
        }
      ],
      "stateMutability": "view",
      "type": "function"
    },
    {
      "inputs": [],
      "name": "REQUIRE_NONE",
      "outputs": [
        {
          "internalType": "uint256",
          "name": "",
          "type": "uint256"
        }
      ],
      "stateMutability": "view",
      "type": "function"
    },
    {
      "inputs": [],
      "name": "REQUIRE_ONE",
      "outputs": [
        {
          "internalType": "uint256",
          "name": "",
          "type": "uint256"
        }
      ],
      "stateMutability": "view",
      "type": "function"
    },
    {
      "inputs": [],
      "name": "REVIEW_TYPE",
      "outputs": [
        {
          "internalType": "uint256",
          "name": "",
          "type": "uint256"
        }
      ],
      "stateMutability": "view",
      "type": "function"
    },
    {
      "inputs": [],
      "name": "ROLE_BOUNDARY",
      "outputs": [
        {
          "internalType": "uint8",
          "name": "",
          "type": "uint8"
        }
      ],
      "stateMutability": "view",
      "type": "function"
    },
    {
      "inputs": [],
      "name": "ROLE_MASK",
      "outputs": [
        {
          "internalType": "uint256",
          "name": "",
          "type": "uint256"
        }
      ],
      "stateMutability": "view",
      "type": "function"
    },
    {
      "inputs": [],
      "name": "ROLE_WIDTH",
      "outputs": [
        {
          "internalType": "uint8",
          "name": "",
          "type": "uint8"
        }
      ],
      "stateMutability": "view",
      "type": "function"
    },
    {
      "inputs": [],
      "name": "TEAM_1",
      "outputs": [
        {
          "internalType": "uint256",
          "name": "",
          "type": "uint256"
        }
      ],
      "stateMutability": "view",
      "type": "function"
    },
    {
      "inputs": [],
      "name": "TEAM_2",
      "outputs": [
        {
          "internalType": "uint256",
          "name": "",
          "type": "uint256"
        }
      ],
      "stateMutability": "view",
      "type": "function"
    },
    {
      "inputs": [],
      "name": "TEAM_3",
      "outputs": [
        {
          "internalType": "uint256",
          "name": "",
          "type": "uint256"
        }
      ],
      "stateMutability": "view",
      "type": "function"
    },
    {
      "inputs": [],
      "name": "TEAM_4",
      "outputs": [
        {
          "internalType": "uint256",
          "name": "",
          "type": "uint256"
        }
      ],
      "stateMutability": "view",
      "type": "function"
    },
    {
      "inputs": [],
      "name": "TEAM_5",
      "outputs": [
        {
          "internalType": "uint256",
          "name": "",
          "type": "uint256"
        }
      ],
      "stateMutability": "view",
      "type": "function"
    },
    {
      "inputs": [],
      "name": "TEAM_6",
      "outputs": [
        {
          "internalType": "uint256",
          "name": "",
          "type": "uint256"
        }
      ],
      "stateMutability": "view",
      "type": "function"
    },
    {
      "inputs": [],
      "name": "TEAM_7",
      "outputs": [
        {
          "internalType": "uint256",
          "name": "",
          "type": "uint256"
        }
      ],
      "stateMutability": "view",
      "type": "function"
    },
    {
      "inputs": [],
      "name": "TEAM_8",
      "outputs": [
        {
          "internalType": "uint256",
          "name": "",
          "type": "uint256"
        }
      ],
      "stateMutability": "view",
      "type": "function"
    },
    {
      "inputs": [],
      "name": "TEAM_9",
      "outputs": [
        {
          "internalType": "uint256",
          "name": "",
          "type": "uint256"
        }
      ],
      "stateMutability": "view",
      "type": "function"
    },
    {
      "inputs": [],
      "name": "TEAM_A",
      "outputs": [
        {
          "internalType": "uint256",
          "name": "",
          "type": "uint256"
        }
      ],
      "stateMutability": "view",
      "type": "function"
    },
    {
      "inputs": [],
      "name": "TEAM_B",
      "outputs": [
        {
          "internalType": "uint256",
          "name": "",
          "type": "uint256"
        }
      ],
      "stateMutability": "view",
      "type": "function"
    },
    {
      "inputs": [],
      "name": "TEAM_BOUNDARY",
      "outputs": [
        {
          "internalType": "uint8",
          "name": "",
          "type": "uint8"
        }
      ],
      "stateMutability": "view",
      "type": "function"
    },
    {
      "inputs": [],
      "name": "TEAM_C",
      "outputs": [
        {
          "internalType": "uint256",
          "name": "",
          "type": "uint256"
        }
      ],
      "stateMutability": "view",
      "type": "function"
    },
    {
      "inputs": [],
      "name": "TEAM_D",
      "outputs": [
        {
          "internalType": "uint256",
          "name": "",
          "type": "uint256"
        }
      ],
      "stateMutability": "view",
      "type": "function"
    },
    {
      "inputs": [],
      "name": "TEAM_MASK",
      "outputs": [
        {
          "internalType": "uint256",
          "name": "",
          "type": "uint256"
        }
      ],
      "stateMutability": "view",
      "type": "function"
    },
    {
      "inputs": [],
      "name": "TEAM_WIDTH",
      "outputs": [
        {
          "internalType": "uint8",
          "name": "",
          "type": "uint8"
        }
      ],
      "stateMutability": "view",
      "type": "function"
    },
    {
      "inputs": [],
      "name": "TYPE_BOUNDARY",
      "outputs": [
        {
          "internalType": "uint8",
          "name": "",
          "type": "uint8"
        }
      ],
      "stateMutability": "view",
      "type": "function"
    },
    {
      "inputs": [],
      "name": "TYPE_MASK",
      "outputs": [
        {
          "internalType": "uint256",
          "name": "",
          "type": "uint256"
        }
      ],
      "stateMutability": "view",
      "type": "function"
    },
    {
      "inputs": [],
      "name": "TYPE_WIDTH",
      "outputs": [
        {
          "internalType": "uint8",
          "name": "",
          "type": "uint8"
        }
      ],
      "stateMutability": "view",
      "type": "function"
    },
    {
      "inputs": [],
      "name": "UNIQUE",
      "outputs": [
        {
          "internalType": "uint256",
          "name": "",
          "type": "uint256"
        }
      ],
      "stateMutability": "view",
      "type": "function"
    },
    {
      "inputs": [],
      "name": "UNIQUENESS_BOUNDARY",
      "outputs": [
        {
          "internalType": "uint8",
          "name": "",
          "type": "uint8"
        }
      ],
      "stateMutability": "view",
      "type": "function"
    },
    {
      "inputs": [],
      "name": "UNIQUENESS_MASK",
      "outputs": [
        {
          "internalType": "uint256",
          "name": "",
          "type": "uint256"
        }
      ],
      "stateMutability": "view",
      "type": "function"
    },
    {
      "inputs": [],
      "name": "UNIQUENESS_WIDTH",
      "outputs": [
        {
          "internalType": "uint8",
          "name": "",
          "type": "uint8"
        }
      ],
      "stateMutability": "view",
      "type": "function"
    },
    {
      "inputs": [],
      "name": "USE_AFTER",
      "outputs": [
        {
          "internalType": "uint256",
          "name": "",
          "type": "uint256"
        }
      ],
      "stateMutability": "view",
      "type": "function"
    },
    {
      "inputs": [],
      "name": "USE_ONCE",
      "outputs": [
        {
          "internalType": "uint256",
          "name": "",
          "type": "uint256"
        }
      ],
      "stateMutability": "view",
      "type": "function"
    },
    {
      "inputs": [],
      "name": "USE_UNLIMITED",
      "outputs": [
        {
          "internalType": "uint256",
          "name": "",
          "type": "uint256"
        }
      ],
      "stateMutability": "view",
      "type": "function"
    },
    {
      "inputs": [],
      "name": "USE_UNTIL",
      "outputs": [
        {
          "internalType": "uint256",
          "name": "",
          "type": "uint256"
        }
      ],
      "stateMutability": "view",
      "type": "function"
    },
    {
      "inputs": [],
      "name": "VANILLA_TYPE",
      "outputs": [
        {
          "internalType": "uint256",
          "name": "",
          "type": "uint256"
        }
      ],
      "stateMutability": "view",
      "type": "function"
    },
    {
      "inputs": [],
      "name": "VOUCHED_TIME_TYPE",
      "outputs": [
        {
          "internalType": "uint256",
          "name": "",
          "type": "uint256"
        }
      ],
      "stateMutability": "view",
      "type": "function"
    }
  ],
  "bytecode": "0x610c2461003a600b82828239805160001a60731461002d57634e487b7160e01b600052600060045260246000fd5b30600052607381538281f3fe73000000000000000000000000000000000000000030146080604052600436106102875760003560e01c8063067ff8661461028c5780630daec9e4146102ab5780630f94cc50146102c157806311bb8afd146102c957806313affe4f146102d157806318ae2375146102d95780631c45349c146102e15780632ed58d81146102e957806330c9cf93146102f157806333d81088146102f957806334628c1f1461030157806335ab86291461030957806339054c23146103115780633adbbbc1146103195780633b60bd01146103215780633c176d9f146103295780633f79f1a41461033157806344cca2df146103395780634ce7a244146103415780634f06c0fb146103495780635157b5631461035157806351d294251461035957806355237661146103615780635e2a338614610369578063666e6fd514610371578063669d5bfa146103795780636fa09a79146103815780637e8ceec71461038957806383e5b21a1461039157806384bb0fe614610399578063891fbef01461032957806392e4267b146103a1578063957dc9a0146103a95780639c37625c146103b15780639eb3f243146103b95780639f31459a146103c1578063a8410bc1146103c9578063a9c906ae146103d1578063aae5270f146103d9578063aaeec72d146103e1578063b8785f8a146103c1578063ba952df1146103e9578063baf42f93146103f1578063c5a0d9b2146102e9578063d3e62b09146103f9578063d701765014610401578063d7fcc11314610409578063db58fe9514610411578063dbd406e814610419578063e5587f7a14610421578063e864109214610429578063f28a726d14610431578063f449d92f14610439578063f73a731114610441578063f8418ef314610449575b600080fd5b610294610451565b60405160ff90911681526020015b60405180910390f35b6102b361046d565b6040519081526020016102a2565b6102b3610485565b610294602081565b6102b36104be565b6102946104d5565b6102b36104f0565b610294600381565b6102b3610513565b6102b3610536565b6102b36105df565b6102b36105f6565b6102b361060e565b6102b3610648565b610294600d81565b610294600881565b6102b361066b565b61029461067a565b6102b3610696565b6102b36106c5565b6102b36106dd565b6102b361070c565b6102b361071b565b6102b3610741565b6102b3610759565b6102b3610768565b6102b36107a5565b6102b36107b6565b6102b36107ce565b6102b36107f1565b6102b3610832565b6102b3610843565b61029461086b565b6102b361089f565b610294600181565b6102b36108ac565b6102b36108b9565b6102b36108c6565b6102b36108ee565b61029461090a565b6102b361091f565b6102b3610942565b6102b361098e565b6102b361099b565b6102b36109b9565b6102b36109d1565b6102946109e8565b6102b36109fc565b6102b3610a1f565b6102b3610a31565b610294610a5b565b6102b3610a68565b6008610460600d610100610b7b565b61046a9190610bb5565b81565b61047a600d610100610b7b565b60ff16610400901b81565b6008610494600d610100610b7b565b61049e9190610bb5565b60ff1660016104af60086002610ac2565b6104b99190610b9e565b901b81565b6104cb600d610100610b7b565b60ff166010901b81565b600360086104e6600d610100610b7b565b6104609190610bb5565b60086104ff600d610100610b7b565b6105099190610bb5565b60ff166006901b81565b6008610522600d610100610b7b565b61052c9190610bb5565b60ff166004901b81565b60016008816003808361054c600d610100610b7b565b6105569190610bb5565b6105609190610bb5565b61056a9190610bb5565b6105749190610bb5565b61057e9190610bb5565b6105889190610bb5565b60ff166001610598816002610ac2565b6105a29190610b9e565b901b60038060086105b6600d610100610b7b565b6105c09190610bb5565b6105ca9190610bb5565b6105d49190610bb5565b60ff166001901b1781565b6105ec600d610100610b7b565b60ff166020901b81565b610603600d610100610b7b565b60ff16611000901b81565b6003806008610620600d610100610b7b565b61062a9190610bb5565b6106349190610bb5565b61063e9190610bb5565b60ff166002901b81565b6008610657600d610100610b7b565b6106619190610bb5565b60ff166005901b81565b6008610634600d610100610b7b565b600380600861068c600d610100610b7b565b6104e69190610bb5565b600360086106a7600d610100610b7b565b6106b19190610bb5565b6106bb9190610bb5565b60ff166003901b81565b6106d2600d610100610b7b565b60ff16610800901b81565b600360086106ee600d610100610b7b565b6106f89190610bb5565b6107029190610bb5565b60ff166001901b81565b60086106f8600d610100610b7b565b600380600861072d600d610100610b7b565b6107379190610bb5565b6105229190610bb5565b61074e600d610100610b7b565b60ff16610100901b81565b60086106b1600d610100610b7b565b600860016003808361077d600d610100610b7b565b6107879190610bb5565b6107919190610bb5565b61079b9190610bb5565b6104949190610bb5565b6003600861062a600d610100610b7b565b60016107c460206002610ac2565b61046a9190610b9e565b60086107dd600d610100610b7b565b6107e79190610bb5565b60ff166008901b81565b6003806008610803600d610100610b7b565b61080d9190610bb5565b6108179190610bb5565b6108219190610bb5565b60ff1660016104af60036002610ac2565b6003600861080d600d610100610b7b565b6008610852600d610100610b7b565b61085c9190610bb5565b60ff166104b960086002610ac2565b600160088160038083610881600d610100610b7b565b61088b9190610bb5565b6108959190610bb5565b61068c9190610bb5565b61052c600d610100610b7b565b61063e600d610100610b7b565b6107e7600d610100610b7b565b600160038060086108da600d610100610b7b565b6108e49190610bb5565b6106ee9190610bb5565b6003806008610900600d610100610b7b565b6106a79190610bb5565b600860016003808361088b600d610100610b7b565b600861092e600d610100610b7b565b6109389190610bb5565b60ff166007901b81565b60016003806008610956600d610100610b7b565b6109609190610bb5565b61096a9190610bb5565b6109749190610bb5565b61097e9190610bb5565b60ff1660016104af816002610ac2565b610702600d610100610b7b565b6109a8600d610100610b7b565b60ff1660016104af600d6002610ac2565b6109c6600d610100610b7b565b60ff16610200901b81565b6109de600d610100610b7b565b60ff166040901b81565b60016003806008610895600d610100610b7b565b6008610a0b600d610100610b7b565b610a159190610bb5565b60ff166009901b81565b60038060086108e4600d610100610b7b565b600160088160038083610a47600d610100610b7b565b610a519190610bb5565b6109569190610bb5565b61046a600d610100610b7b565b610a75600d610100610b7b565b60ff166080901b81565b600181815b80851115610aba578160001904821115610aa057610aa0610bd8565b80851615610aad57918102915b93841c9390800290610a84565b509250929050565b6000610ad160ff841683610ad8565b9392505050565b600082610ae757506001610b75565b81610af457506000610b75565b8160018114610b0a5760028114610b1457610b30565b6001915050610b75565b60ff841115610b2557610b25610bd8565b50506001821b610b75565b5060208310610133831016604e8410600b8410161715610b53575081810a610b75565b610b5d8383610a7f565b8060001904821115610b7157610b71610bd8565b0290505b92915050565b600061ffff83811690831681811015610b9657610b96610bd8565b039392505050565b600082821015610bb057610bb0610bd8565b500390565b600060ff821660ff841680821015610bcf57610bcf610bd8565b90039392505050565b634e487b7160e01b600052601160045260246000fdfea2646970667358221220798a2f6e9efca227313d6353251620b0e0e653ede3e9fddaa316949f138404e964736f6c63430008040033",
  "linkReferences": {},
  "deployedLinkReferences": {}
}