{
  "_format": "hh-sol-artifact-1",
  "contractName": "Bits",
  "sourceName": "src/BulkDisbursableNFTs.sol",
  "abi": [
    {
      "inputs": [],
      "name": "ADDRESS_TYPE",
      "outputs": [
        {
          "internalType": "uint256",
          "name": "",
          "type": "uint256"
        }
      ],
      "stateMutability": "view",
      "type": "function"
    },
    {
      "inputs": [],
      "name": "COUNTER_MASK",
      "outputs": [
        {
          "internalType": "uint256",
          "name": "",
          "type": "uint256"
        }
      ],
      "stateMutability": "view",
      "type": "function"
    },
    {
      "inputs": [],
      "name": "COUNTER_WIDTH",
      "outputs": [
        {
          "internalType": "uint8",
          "name": "",
          "type": "uint8"
        }
      ],
      "stateMutability": "view",
      "type": "function"
    },
    {
      "inputs": [],
      "name": "DISABLING_TYPE",
      "outputs": [
        {
          "internalType": "uint256",
          "name": "",
          "type": "uint256"
        }
      ],
      "stateMutability": "view",
      "type": "function"
    },
    {
      "inputs": [],
      "name": "EXPERIMENTAL_TYPE",
      "outputs": [
        {
          "internalType": "uint256",
          "name": "",
          "type": "uint256"
        }
      ],
      "stateMutability": "view",
      "type": "function"
    },
    {
      "inputs": [],
      "name": "GATING_TYPE",
      "outputs": [
        {
          "internalType": "uint256",
          "name": "",
          "type": "uint256"
        }
      ],
      "stateMutability": "view",
      "type": "function"
    },
    {
      "inputs": [],
      "name": "INTERNAL_BOUNDARY",
      "outputs": [
        {
          "internalType": "uint8",
          "name": "",
          "type": "uint8"
        }
      ],
      "stateMutability": "view",
      "type": "function"
    },
    {
      "inputs": [],
      "name": "INTERNAL_MASK",
      "outputs": [
        {
          "internalType": "uint256",
          "name": "",
          "type": "uint256"
        }
      ],
      "stateMutability": "view",
      "type": "function"
    },
    {
      "inputs": [],
      "name": "INTERNAL_WIDTH",
      "outputs": [
        {
          "internalType": "uint8",
          "name": "",
          "type": "uint8"
        }
      ],
      "stateMutability": "view",
      "type": "function"
    },
    {
      "inputs": [],
      "name": "MEMBERSHIP_TYPE",
      "outputs": [
        {
          "internalType": "uint256",
          "name": "",
          "type": "uint256"
        }
      ],
      "stateMutability": "view",
      "type": "function"
    },
    {
      "inputs": [],
      "name": "NO_MATCH_FLAGS",
      "outputs": [
        {
          "internalType": "uint256",
          "name": "",
          "type": "uint256"
        }
      ],
      "stateMutability": "view",
      "type": "function"
    },
    {
      "inputs": [],
      "name": "REACTION_TYPE",
      "outputs": [
        {
          "internalType": "uint256",
          "name": "",
          "type": "uint256"
        }
      ],
      "stateMutability": "view",
      "type": "function"
    },
    {
      "inputs": [],
      "name": "RECORDED_TIME_TYPE",
      "outputs": [
        {
          "internalType": "uint256",
          "name": "",
          "type": "uint256"
        }
      ],
      "stateMutability": "view",
      "type": "function"
    },
    {
      "inputs": [],
      "name": "RECORDING_TYPE",
      "outputs": [
        {
          "internalType": "uint256",
          "name": "",
          "type": "uint256"
        }
      ],
      "stateMutability": "view",
      "type": "function"
    },
    {
      "inputs": [],
      "name": "REPETITION_BOUNDARY",
      "outputs": [
        {
          "internalType": "uint8",
          "name": "",
          "type": "uint8"
        }
      ],
      "stateMutability": "view",
      "type": "function"
    },
    {
      "inputs": [],
      "name": "REPETITION_MASK",
      "outputs": [
        {
          "internalType": "uint256",
          "name": "",
          "type": "uint256"
        }
      ],
      "stateMutability": "view",
      "type": "function"
    },
    {
      "inputs": [],
      "name": "REPETITION_WIDTH",
      "outputs": [
        {
          "internalType": "uint8",
          "name": "",
          "type": "uint8"
        }
      ],
      "stateMutability": "view",
      "type": "function"
    },
    {
      "inputs": [],
      "name": "REQUIREMENT_BOUNDARY",
      "outputs": [
        {
          "internalType": "uint8",
          "name": "",
          "type": "uint8"
        }
      ],
      "stateMutability": "view",
      "type": "function"
    },
    {
      "inputs": [],
      "name": "REQUIREMENT_MASK",
      "outputs": [
        {
          "internalType": "uint256",
          "name": "",
          "type": "uint256"
        }
      ],
      "stateMutability": "view",
      "type": "function"
    },
    {
      "inputs": [],
      "name": "REQUIREMENT_WIDTH",
      "outputs": [
        {
          "internalType": "uint8",
          "name": "",
          "type": "uint8"
        }
      ],
      "stateMutability": "view",
      "type": "function"
    },
    {
      "inputs": [],
      "name": "REQUIRE_ALL",
      "outputs": [
        {
          "internalType": "uint256",
          "name": "",
          "type": "uint256"
        }
      ],
      "stateMutability": "view",
      "type": "function"
    },
    {
      "inputs": [],
      "name": "REQUIRE_NONE",
      "outputs": [
        {
          "internalType": "uint256",
          "name": "",
          "type": "uint256"
        }
      ],
      "stateMutability": "view",
      "type": "function"
    },
    {
      "inputs": [],
      "name": "REQUIRE_ONE",
      "outputs": [
        {
          "internalType": "uint256",
          "name": "",
          "type": "uint256"
        }
      ],
      "stateMutability": "view",
      "type": "function"
    },
    {
      "inputs": [],
      "name": "REVIEW_TYPE",
      "outputs": [
        {
          "internalType": "uint256",
          "name": "",
          "type": "uint256"
        }
      ],
      "stateMutability": "view",
      "type": "function"
    },
    {
      "inputs": [],
      "name": "ROLE_BOUNDARY",
      "outputs": [
        {
          "internalType": "uint8",
          "name": "",
          "type": "uint8"
        }
      ],
      "stateMutability": "view",
      "type": "function"
    },
    {
      "inputs": [],
      "name": "ROLE_MASK",
      "outputs": [
        {
          "internalType": "uint256",
          "name": "",
          "type": "uint256"
        }
      ],
      "stateMutability": "view",
      "type": "function"
    },
    {
      "inputs": [],
      "name": "ROLE_WIDTH",
      "outputs": [
        {
          "internalType": "uint8",
          "name": "",
          "type": "uint8"
        }
      ],
      "stateMutability": "view",
      "type": "function"
    },
    {
      "inputs": [],
      "name": "TEAM_1",
      "outputs": [
        {
          "internalType": "uint256",
          "name": "",
          "type": "uint256"
        }
      ],
      "stateMutability": "view",
      "type": "function"
    },
    {
      "inputs": [],
      "name": "TEAM_2",
      "outputs": [
        {
          "internalType": "uint256",
          "name": "",
          "type": "uint256"
        }
      ],
      "stateMutability": "view",
      "type": "function"
    },
    {
      "inputs": [],
      "name": "TEAM_3",
      "outputs": [
        {
          "internalType": "uint256",
          "name": "",
          "type": "uint256"
        }
      ],
      "stateMutability": "view",
      "type": "function"
    },
    {
      "inputs": [],
      "name": "TEAM_4",
      "outputs": [
        {
          "internalType": "uint256",
          "name": "",
          "type": "uint256"
        }
      ],
      "stateMutability": "view",
      "type": "function"
    },
    {
      "inputs": [],
      "name": "TEAM_5",
      "outputs": [
        {
          "internalType": "uint256",
          "name": "",
          "type": "uint256"
        }
      ],
      "stateMutability": "view",
      "type": "function"
    },
    {
      "inputs": [],
      "name": "TEAM_6",
      "outputs": [
        {
          "internalType": "uint256",
          "name": "",
          "type": "uint256"
        }
      ],
      "stateMutability": "view",
      "type": "function"
    },
    {
      "inputs": [],
      "name": "TEAM_7",
      "outputs": [
        {
          "internalType": "uint256",
          "name": "",
          "type": "uint256"
        }
      ],
      "stateMutability": "view",
      "type": "function"
    },
    {
      "inputs": [],
      "name": "TEAM_8",
      "outputs": [
        {
          "internalType": "uint256",
          "name": "",
          "type": "uint256"
        }
      ],
      "stateMutability": "view",
      "type": "function"
    },
    {
      "inputs": [],
      "name": "TEAM_9",
      "outputs": [
        {
          "internalType": "uint256",
          "name": "",
          "type": "uint256"
        }
      ],
      "stateMutability": "view",
      "type": "function"
    },
    {
      "inputs": [],
      "name": "TEAM_A",
      "outputs": [
        {
          "internalType": "uint256",
          "name": "",
          "type": "uint256"
        }
      ],
      "stateMutability": "view",
      "type": "function"
    },
    {
      "inputs": [],
      "name": "TEAM_B",
      "outputs": [
        {
          "internalType": "uint256",
          "name": "",
          "type": "uint256"
        }
      ],
      "stateMutability": "view",
      "type": "function"
    },
    {
      "inputs": [],
      "name": "TEAM_BOUNDARY",
      "outputs": [
        {
          "internalType": "uint8",
          "name": "",
          "type": "uint8"
        }
      ],
      "stateMutability": "view",
      "type": "function"
    },
    {
      "inputs": [],
      "name": "TEAM_C",
      "outputs": [
        {
          "internalType": "uint256",
          "name": "",
          "type": "uint256"
        }
      ],
      "stateMutability": "view",
      "type": "function"
    },
    {
      "inputs": [],
      "name": "TEAM_D",
      "outputs": [
        {
          "internalType": "uint256",
          "name": "",
          "type": "uint256"
        }
      ],
      "stateMutability": "view",
      "type": "function"
    },
    {
      "inputs": [],
      "name": "TEAM_MASK",
      "outputs": [
        {
          "internalType": "uint256",
          "name": "",
          "type": "uint256"
        }
      ],
      "stateMutability": "view",
      "type": "function"
    },
    {
      "inputs": [],
      "name": "TEAM_WIDTH",
      "outputs": [
        {
          "internalType": "uint8",
          "name": "",
          "type": "uint8"
        }
      ],
      "stateMutability": "view",
      "type": "function"
    },
    {
      "inputs": [],
      "name": "TYPE_BOUNDARY",
      "outputs": [
        {
          "internalType": "uint8",
          "name": "",
          "type": "uint8"
        }
      ],
      "stateMutability": "view",
      "type": "function"
    },
    {
      "inputs": [],
      "name": "TYPE_MASK",
      "outputs": [
        {
          "internalType": "uint256",
          "name": "",
          "type": "uint256"
        }
      ],
      "stateMutability": "view",
      "type": "function"
    },
    {
      "inputs": [],
      "name": "TYPE_WIDTH",
      "outputs": [
        {
          "internalType": "uint8",
          "name": "",
          "type": "uint8"
        }
      ],
      "stateMutability": "view",
      "type": "function"
    },
    {
      "inputs": [],
      "name": "UNIQUE",
      "outputs": [
        {
          "internalType": "uint256",
          "name": "",
          "type": "uint256"
        }
      ],
      "stateMutability": "view",
      "type": "function"
    },
    {
      "inputs": [],
      "name": "UNIQUENESS_BOUNDARY",
      "outputs": [
        {
          "internalType": "uint8",
          "name": "",
          "type": "uint8"
        }
      ],
      "stateMutability": "view",
      "type": "function"
    },
    {
      "inputs": [],
      "name": "UNIQUENESS_MASK",
      "outputs": [
        {
          "internalType": "uint256",
          "name": "",
          "type": "uint256"
        }
      ],
      "stateMutability": "view",
      "type": "function"
    },
    {
      "inputs": [],
      "name": "UNIQUENESS_WIDTH",
      "outputs": [
        {
          "internalType": "uint8",
          "name": "",
          "type": "uint8"
        }
      ],
      "stateMutability": "view",
      "type": "function"
    },
    {
      "inputs": [],
      "name": "USE_AFTER",
      "outputs": [
        {
          "internalType": "uint256",
          "name": "",
          "type": "uint256"
        }
      ],
      "stateMutability": "view",
      "type": "function"
    },
    {
      "inputs": [],
      "name": "USE_ONCE",
      "outputs": [
        {
          "internalType": "uint256",
          "name": "",
          "type": "uint256"
        }
      ],
      "stateMutability": "view",
      "type": "function"
    },
    {
      "inputs": [],
      "name": "USE_UNLIMITED",
      "outputs": [
        {
          "internalType": "uint256",
          "name": "",
          "type": "uint256"
        }
      ],
      "stateMutability": "view",
      "type": "function"
    },
    {
      "inputs": [],
      "name": "USE_UNTIL",
      "outputs": [
        {
          "internalType": "uint256",
          "name": "",
          "type": "uint256"
        }
      ],
      "stateMutability": "view",
      "type": "function"
    },
    {
      "inputs": [],
      "name": "VANILLA_TYPE",
      "outputs": [
        {
          "internalType": "uint256",
          "name": "",
          "type": "uint256"
        }
      ],
      "stateMutability": "view",
      "type": "function"
    },
    {
      "inputs": [],
      "name": "VOUCHED_TIME_TYPE",
      "outputs": [
        {
          "internalType": "uint256",
          "name": "",
          "type": "uint256"
        }
      ],
      "stateMutability": "view",
      "type": "function"
    },
    {
      "inputs": [],
      "name": "numRoles",
      "outputs": [
        {
          "internalType": "uint8",
          "name": "",
          "type": "uint8"
        }
      ],
      "stateMutability": "view",
      "type": "function"
    },
    {
      "inputs": [
        {
          "internalType": "uint8",
          "name": "index",
          "type": "uint8"
        }
      ],
      "name": "roleNameByIndex",
      "outputs": [
        {
          "internalType": "string",
          "name": "name",
          "type": "string"
        }
      ],
      "stateMutability": "pure",
      "type": "function"
    },
    {
      "inputs": [
        {
          "internalType": "string",
          "name": "roleName",
          "type": "string"
        }
      ],
      "name": "roleValueForName",
      "outputs": [
        {
          "internalType": "enum Bits.Role",
          "name": "role",
          "type": "Bits.Role"
        }
      ],
      "stateMutability": "pure",
      "type": "function"
    }
  ],
  "bytecode": "0x61108261003a600b82828239805160001a60731461002d57634e487b7160e01b600052600060045260246000fd5b30600052607381538281f3fe73000000000000000000000000000000000000000030146080604052600436106102b35760003560e01c8063067ff866146102b85780630daec9e4146102d75780630f94cc50146102ed57806311bb8afd146102f557806313affe4f146102fd57806318ae2375146103055780631c45349c1461030d5780632a7ccf13146103155780632ed58d811461033557806330c9cf931461033d57806333d810881461034557806334628c1f1461034d57806335ab86291461035557806339054c231461035d5780633adbbbc1146103655780633b60bd011461036d5780633c176d9f146103755780633f79f1a41461037d57806344cca2df146103855780634ce7a2441461038d5780634f06c0fb14610395578063513e15d91461039d5780635157b563146103a557806351d29425146103ad57806355237661146103b55780635e2a3386146103bd578063666e6fd5146103c5578063669d5bfa146103cd5780636fa09a79146103d55780637e8ceec7146103dd578063814c2450146103e557806383e5b21a1461040557806384bb0fe61461040d578063891fbef0146103755780638b2ed3881461041557806392e4267b1461041d578063957dc9a0146104255780639c37625c1461042d5780639eb3f243146104355780639f31459a1461043d578063a8410bc114610445578063a9c906ae1461044d578063aae5270f14610455578063aaeec72d1461045d578063b8785f8a1461043d578063ba952df114610465578063baf42f931461046d578063c5a0d9b214610335578063d3e62b0914610475578063d70176501461047d578063d7fcc11314610485578063db58fe951461048d578063dbd406e814610495578063e5587f7a1461049d578063e8641092146104a5578063f28a726d146104ad578063f449d92f146104b5578063f73a7311146104bd578063f8418ef3146104c5575b600080fd5b6102c06104cd565b60405160ff90911681526020015b60405180910390f35b6102df6104e9565b6040519081526020016102ce565b6102df610501565b6102c0602081565b6102df61053a565b6102c0610551565b6102df61056c565b610328610323366004610d6b565b61058f565b6040516102ce9190610e68565b6102c0600381565b6102df6105cb565b6102df6105ee565b6102df610697565b6102df6106ae565b6102df6106c6565b6102df610700565b6102c0600d81565b6102c0600881565b6102df610723565b6102c0610732565b6102df61074e565b6102df61077d565b6102df610795565b6102df6107b8565b6102df6107e7565b6102df6107f6565b6102df61081c565b6102df610834565b6102df610843565b6102df610880565b6102df610891565b6103f86103f3366004610e14565b6108a9565b6040516102ce9190610e90565b6102df610aba565b6102df610add565b6102c0600b81565b6102df610b1e565b6102df610b2f565b6102c0610b57565b6102df610b8b565b6102c0600181565b6102df610b98565b6102df610ba5565b6102df610bb2565b6102df610bda565b6102c0610bf6565b6102df610c0b565b6102df610c2e565b6102df610c7a565b6102df610c87565b6102df610ca5565b6102df610cbd565b6102c0610cd4565b6102df610ce8565b6102df610d0b565b6102df610d1d565b6102c0610d47565b6102df610d54565b60086104dc600d610100610f93565b6104e69190610fcd565b81565b6104f6600d610100610f93565b60ff16610400901b81565b6008610510600d610100610f93565b61051a9190610fcd565b60ff16600161052b60086002610ee6565b6105359190610fb6565b901b81565b610547600d610100610f93565b60ff166010901b81565b60036008610562600d610100610f93565b6104dc9190610fcd565b600861057b600d610100610f93565b6105859190610fcd565b60ff166006901b81565b600060405162461bcd60e51b81526004016105c2906020808252600490820152636865726560e01b604082015260600190565b60405180910390fd5b60086105da600d610100610f93565b6105e49190610fcd565b60ff166004901b81565b600160088160038083610604600d610100610f93565b61060e9190610fcd565b6106189190610fcd565b6106229190610fcd565b61062c9190610fcd565b6106369190610fcd565b6106409190610fcd565b60ff166001610650816002610ee6565b61065a9190610fb6565b901b600380600861066e600d610100610f93565b6106789190610fcd565b6106829190610fcd565b61068c9190610fcd565b60ff166001901b1781565b6106a4600d610100610f93565b60ff166020901b81565b6106bb600d610100610f93565b60ff16611000901b81565b60038060086106d8600d610100610f93565b6106e29190610fcd565b6106ec9190610fcd565b6106f69190610fcd565b60ff166002901b81565b600861070f600d610100610f93565b6107199190610fcd565b60ff166005901b81565b60086106ec600d610100610f93565b6003806008610744600d610100610f93565b6105629190610fcd565b6003600861075f600d610100610f93565b6107699190610fcd565b6107739190610fcd565b60ff166003901b81565b61078a600d610100610f93565b60ff16610800901b81565b60086107a4600d610100610f93565b6107ae9190610fcd565b60ff16600a901b81565b600360086107c9600d610100610f93565b6107d39190610fcd565b6107dd9190610fcd565b60ff166001901b81565b60086107d3600d610100610f93565b6003806008610808600d610100610f93565b6108129190610fcd565b6105da9190610fcd565b610829600d610100610f93565b60ff16610100901b81565b6008610769600d610100610f93565b6008600160038083610858600d610100610f93565b6108629190610fcd565b61086c9190610fcd565b6108769190610fcd565b6105109190610fcd565b600360086106e2600d610100610f93565b600161089f60206002610ee6565b6104e69190610fb6565b606060ff82166108d857505060408051808201909152600981526829bab832b93ab9b2b960b91b602082015290565b8160ff166001141561090657505060408051808201909152600681526526b4b73a32b960d11b602082015290565b8160ff166002141561093457505060408051808201909152600681526521b0b9ba32b960d11b602082015290565b8160ff166003141561096657505060408051808201909152600a8152692a3930b739b332b932b960b11b602082015290565b8160ff166004141561099857505060408051808201909152600a81526921b7b73334b3bab932b960b11b602082015290565b8160ff16600514156109ca57505060408051808201909152600a81526926b0b4b73a30b4b732b960b11b602082015290565b8160ff16600614156109f957505060408051808201909152600781526621b932b0ba37b960c91b602082015290565b8160ff1660071415610a285750506040805180820190915260078152662634b6b4ba32b960c91b602082015290565b8160ff1660081415610a56575050604080518082019091526006815265213ab93732b960d11b602082015290565b8160ff1660091415610a875750506040805180820190915260098152682232b9ba3937bcb2b960b91b602082015290565b8160ff16600a1415610ab55750506040805180820190915260068152654f7261636c6560d01b602082015290565b919050565b6008610ac9600d610100610f93565b610ad39190610fcd565b60ff166008901b81565b6003806008610aef600d610100610f93565b610af99190610fcd565b610b039190610fcd565b610b0d9190610fcd565b60ff16600161052b60036002610ee6565b60036008610af9600d610100610f93565b6008610b3e600d610100610f93565b610b489190610fcd565b60ff1661053560086002610ee6565b600160088160038083610b6d600d610100610f93565b610b779190610fcd565b610b819190610fcd565b6107449190610fcd565b6105e4600d610100610f93565b6106f6600d610100610f93565b610ad3600d610100610f93565b60016003806008610bc6600d610100610f93565b610bd09190610fcd565b6107c99190610fcd565b6003806008610bec600d610100610f93565b61075f9190610fcd565b6008600160038083610b77600d610100610f93565b6008610c1a600d610100610f93565b610c249190610fcd565b60ff166007901b81565b60016003806008610c42600d610100610f93565b610c4c9190610fcd565b610c569190610fcd565b610c609190610fcd565b610c6a9190610fcd565b60ff16600161052b816002610ee6565b6107dd600d610100610f93565b610c94600d610100610f93565b60ff16600161052b600d6002610ee6565b610cb2600d610100610f93565b60ff16610200901b81565b610cca600d610100610f93565b60ff166040901b81565b60016003806008610b81600d610100610f93565b6008610cf7600d610100610f93565b610d019190610fcd565b60ff166009901b81565b6003806008610bd0600d610100610f93565b600160088160038083610d33600d610100610f93565b610d3d9190610fcd565b610c429190610fcd565b6104e6600d610100610f93565b610d61600d610100610f93565b60ff166080901b81565b600060208284031215610d7c578081fd5b81356001600160401b0380821115610d92578283fd5b818401915084601f830112610da5578283fd5b813581811115610db757610db7611036565b604051601f8201601f19908116603f01168101908382118183101715610ddf57610ddf611036565b81604052828152876020848701011115610df7578586fd5b826020860160208301379182016020019490945295945050505050565b600060208284031215610e25578081fd5b813560ff81168114610e35578182fd5b9392505050565b60008151808452610e54816020860160208601610ff0565b601f01601f19169290920160200192915050565b60208101600c8310610e8a57634e487b7160e01b600052602160045260246000fd5b91905290565b602081526000610e356020830184610e3c565b600181815b80851115610ede578160001904821115610ec457610ec4611020565b80851615610ed157918102915b93841c9390800290610ea8565b509250929050565b6000610e3560ff841683600082610eff57506001610f8d565b81610f0c57506000610f8d565b8160018114610f225760028114610f2c57610f48565b6001915050610f8d565b60ff841115610f3d57610f3d611020565b50506001821b610f8d565b5060208310610133831016604e8410600b8410161715610f6b575081810a610f8d565b610f758383610ea3565b8060001904821115610f8957610f89611020565b0290505b92915050565b600061ffff83811690831681811015610fae57610fae611020565b039392505050565b600082821015610fc857610fc8611020565b500390565b600060ff821660ff841680821015610fe757610fe7611020565b90039392505050565b60005b8381101561100b578181015183820152602001610ff3565b8381111561101a576000848401525b50505050565b634e487b7160e01b600052601160045260246000fd5b634e487b7160e01b600052604160045260246000fdfea2646970667358221220f7999d2ba13537afb19aad508f2872bca7ed841725518983aac27350917f05c764736f6c63430008040033",
  "linkReferences": {},
  "deployedLinkReferences": {}
}