{
  "_format": "hh-sol-artifact-1",
  "contractName": "BulkDisbursableNFTs",
  "sourceName": "src/BulkDisbursableNFTs.sol",
  "abi": [
    {
      "inputs": [],
      "stateMutability": "nonpayable",
      "type": "constructor"
    },
    {
      "anonymous": false,
      "inputs": [
        {
          "indexed": false,
          "internalType": "address",
          "name": "previousAdmin",
          "type": "address"
        },
        {
          "indexed": false,
          "internalType": "address",
          "name": "newAdmin",
          "type": "address"
        }
      ],
      "name": "AdminChanged",
      "type": "event"
    },
    {
      "anonymous": false,
      "inputs": [
        {
          "indexed": true,
          "internalType": "address",
          "name": "account",
          "type": "address"
        },
        {
          "indexed": true,
          "internalType": "address",
          "name": "operator",
          "type": "address"
        },
        {
          "indexed": false,
          "internalType": "bool",
          "name": "approved",
          "type": "bool"
        }
      ],
      "name": "ApprovalForAll",
      "type": "event"
    },
    {
      "anonymous": false,
      "inputs": [
        {
          "indexed": true,
          "internalType": "address",
          "name": "beacon",
          "type": "address"
        }
      ],
      "name": "BeaconUpgraded",
      "type": "event"
    },
    {
      "anonymous": false,
      "inputs": [
        {
          "indexed": false,
          "internalType": "uint256",
          "name": "id",
          "type": "uint256"
        },
        {
          "indexed": false,
          "internalType": "address",
          "name": "controller",
          "type": "address"
        }
      ],
      "name": "Created",
      "type": "event"
    },
    {
      "anonymous": false,
      "inputs": [
        {
          "indexed": true,
          "internalType": "address",
          "name": "previousOwner",
          "type": "address"
        },
        {
          "indexed": true,
          "internalType": "address",
          "name": "newOwner",
          "type": "address"
        }
      ],
      "name": "OwnershipTransferred",
      "type": "event"
    },
    {
      "anonymous": false,
      "inputs": [
        {
          "indexed": true,
          "internalType": "address",
          "name": "operator",
          "type": "address"
        },
        {
          "indexed": true,
          "internalType": "address",
          "name": "from",
          "type": "address"
        },
        {
          "indexed": true,
          "internalType": "address",
          "name": "to",
          "type": "address"
        },
        {
          "indexed": false,
          "internalType": "uint256[]",
          "name": "ids",
          "type": "uint256[]"
        },
        {
          "indexed": false,
          "internalType": "uint256[]",
          "name": "values",
          "type": "uint256[]"
        }
      ],
      "name": "TransferBatch",
      "type": "event"
    },
    {
      "anonymous": false,
      "inputs": [
        {
          "indexed": true,
          "internalType": "address",
          "name": "operator",
          "type": "address"
        },
        {
          "indexed": true,
          "internalType": "address",
          "name": "from",
          "type": "address"
        },
        {
          "indexed": true,
          "internalType": "address",
          "name": "to",
          "type": "address"
        },
        {
          "indexed": false,
          "internalType": "uint256",
          "name": "id",
          "type": "uint256"
        },
        {
          "indexed": false,
          "internalType": "uint256",
          "name": "value",
          "type": "uint256"
        }
      ],
      "name": "TransferSingle",
      "type": "event"
    },
    {
      "anonymous": false,
      "inputs": [
        {
          "indexed": false,
          "internalType": "string",
          "name": "value",
          "type": "string"
        },
        {
          "indexed": true,
          "internalType": "uint256",
          "name": "id",
          "type": "uint256"
        }
      ],
      "name": "URI",
      "type": "event"
    },
    {
      "anonymous": false,
      "inputs": [
        {
          "indexed": true,
          "internalType": "address",
          "name": "implementation",
          "type": "address"
        }
      ],
      "name": "Upgraded",
      "type": "event"
    },
    {
      "inputs": [
        {
          "internalType": "address",
          "name": "account",
          "type": "address"
        },
        {
          "internalType": "uint256",
          "name": "id",
          "type": "uint256"
        }
      ],
      "name": "balanceOf",
      "outputs": [
        {
          "internalType": "uint256",
          "name": "",
          "type": "uint256"
        }
      ],
      "stateMutability": "view",
      "type": "function"
    },
    {
      "inputs": [
        {
          "internalType": "address[]",
          "name": "accounts",
          "type": "address[]"
        },
        {
          "internalType": "uint256[]",
          "name": "ids",
          "type": "uint256[]"
        }
      ],
      "name": "balanceOfBatch",
      "outputs": [
        {
          "internalType": "uint256[]",
          "name": "",
          "type": "uint256[]"
        }
      ],
      "stateMutability": "view",
      "type": "function"
    },
    {
      "inputs": [
        {
          "internalType": "address",
          "name": "owner",
          "type": "address"
        },
        {
          "internalType": "uint256",
          "name": "id",
          "type": "uint256"
        },
        {
          "internalType": "uint256",
          "name": "quantity",
          "type": "uint256"
        }
      ],
      "name": "burn",
      "outputs": [],
      "stateMutability": "nonpayable",
      "type": "function"
    },
    {
      "inputs": [
        {
          "internalType": "address",
          "name": "account",
          "type": "address"
        },
        {
          "internalType": "uint256[]",
          "name": "ids",
          "type": "uint256[]"
        },
        {
          "internalType": "uint256[]",
          "name": "values",
          "type": "uint256[]"
        }
      ],
      "name": "burnBatch",
      "outputs": [],
      "stateMutability": "nonpayable",
      "type": "function"
    },
    {
      "inputs": [
        {
          "internalType": "uint256",
          "name": "id",
          "type": "uint256"
        },
        {
          "internalType": "string",
          "name": "newURI",
          "type": "string"
        },
        {
          "internalType": "uint256",
          "name": "max",
          "type": "uint256"
        }
      ],
      "name": "configure",
      "outputs": [],
      "stateMutability": "nonpayable",
      "type": "function"
    },
    {
      "inputs": [
        {
          "internalType": "enum BulkDisbursableNFTs.Role[]",
          "name": "roles",
          "type": "uint8[]"
        }
      ],
      "name": "create",
      "outputs": [
        {
          "internalType": "uint256",
          "name": "id",
          "type": "uint256"
        }
      ],
      "stateMutability": "nonpayable",
      "type": "function"
    },
    {
      "inputs": [
        {
          "internalType": "address",
          "name": "maintainer",
          "type": "address"
        },
        {
          "internalType": "enum BulkDisbursableNFTs.Role[]",
          "name": "roles",
          "type": "uint8[]"
        }
      ],
      "name": "create",
      "outputs": [
        {
          "internalType": "uint256",
          "name": "id",
          "type": "uint256"
        }
      ],
      "stateMutability": "nonpayable",
      "type": "function"
    },
    {
      "inputs": [],
      "name": "create",
      "outputs": [
        {
          "internalType": "uint256",
          "name": "id",
          "type": "uint256"
        }
      ],
      "stateMutability": "nonpayable",
      "type": "function"
    },
    {
      "inputs": [
        {
          "internalType": "uint256",
          "name": "id",
          "type": "uint256"
        }
      ],
      "name": "exists",
      "outputs": [
        {
          "internalType": "bool",
          "name": "",
          "type": "bool"
        }
      ],
      "stateMutability": "view",
      "type": "function"
    },
    {
      "inputs": [
        {
          "internalType": "enum BulkDisbursableNFTs.Role",
          "name": "role",
          "type": "uint8"
        },
        {
          "internalType": "address",
          "name": "user",
          "type": "address"
        },
        {
          "internalType": "uint256",
          "name": "index",
          "type": "uint256"
        }
      ],
      "name": "gateToken",
      "outputs": [
        {
          "internalType": "uint256",
          "name": "id",
          "type": "uint256"
        }
      ],
      "stateMutability": "view",
      "type": "function"
    },
    {
      "inputs": [
        {
          "internalType": "enum BulkDisbursableNFTs.Role",
          "name": "role",
          "type": "uint8"
        },
        {
          "internalType": "address",
          "name": "user",
          "type": "address"
        }
      ],
      "name": "grantRole",
      "outputs": [],
      "stateMutability": "nonpayable",
      "type": "function"
    },
    {
      "inputs": [
        {
          "internalType": "enum BulkDisbursableNFTs.Role",
          "name": "role",
          "type": "uint8"
        },
        {
          "internalType": "address",
          "name": "user",
          "type": "address"
        },
        {
          "internalType": "uint256",
          "name": "index",
          "type": "uint256"
        }
      ],
      "name": "grantRole",
      "outputs": [],
      "stateMutability": "nonpayable",
      "type": "function"
    },
    {
      "inputs": [
        {
          "internalType": "enum BulkDisbursableNFTs.Role",
          "name": "role",
          "type": "uint8"
        }
      ],
      "name": "hasRole",
      "outputs": [
        {
          "internalType": "bool",
          "name": "has",
          "type": "bool"
        }
      ],
      "stateMutability": "view",
      "type": "function"
    },
    {
      "inputs": [
        {
          "internalType": "enum BulkDisbursableNFTs.Role",
          "name": "role",
          "type": "uint8"
        },
        {
          "internalType": "address",
          "name": "user",
          "type": "address"
        },
        {
          "internalType": "uint256",
          "name": "id",
          "type": "uint256"
        }
      ],
      "name": "hasRole",
      "outputs": [
        {
          "internalType": "bool",
          "name": "has",
          "type": "bool"
        }
      ],
      "stateMutability": "view",
      "type": "function"
    },
    {
      "inputs": [
        {
          "internalType": "enum BulkDisbursableNFTs.Role",
          "name": "role",
          "type": "uint8"
        },
        {
          "internalType": "uint256",
          "name": "id",
          "type": "uint256"
        }
      ],
      "name": "hasRole",
      "outputs": [
        {
          "internalType": "bool",
          "name": "has",
          "type": "bool"
        }
      ],
      "stateMutability": "view",
      "type": "function"
    },
    {
      "inputs": [
        {
          "internalType": "enum BulkDisbursableNFTs.Role",
          "name": "role",
          "type": "uint8"
        },
        {
          "internalType": "address",
          "name": "user",
          "type": "address"
        }
      ],
      "name": "hasRole",
      "outputs": [
        {
          "internalType": "bool",
          "name": "has",
          "type": "bool"
        }
      ],
      "stateMutability": "view",
      "type": "function"
    },
    {
      "inputs": [
        {
          "internalType": "string",
          "name": "_name",
          "type": "string"
        },
        {
          "internalType": "string",
          "name": "_symbol",
          "type": "string"
        }
      ],
      "name": "initialize",
      "outputs": [],
      "stateMutability": "nonpayable",
      "type": "function"
    },
    {
      "inputs": [
        {
          "internalType": "address",
          "name": "account",
          "type": "address"
        },
        {
          "internalType": "address",
          "name": "operator",
          "type": "address"
        }
      ],
      "name": "isApprovedForAll",
      "outputs": [
        {
          "internalType": "bool",
          "name": "",
          "type": "bool"
        }
      ],
      "stateMutability": "view",
      "type": "function"
    },
    {
      "inputs": [
        {
          "internalType": "address",
          "name": "user",
          "type": "address"
        }
      ],
      "name": "isSuper",
      "outputs": [
        {
          "internalType": "bool",
          "name": "superuser",
          "type": "bool"
        }
      ],
      "stateMutability": "view",
      "type": "function"
    },
    {
      "inputs": [],
      "name": "isSuper",
      "outputs": [
        {
          "internalType": "bool",
          "name": "superuser",
          "type": "bool"
        }
      ],
      "stateMutability": "view",
      "type": "function"
    },
    {
      "inputs": [
        {
          "internalType": "address[]",
          "name": "to",
          "type": "address[]"
        },
        {
          "internalType": "uint256",
          "name": "id",
          "type": "uint256"
        },
        {
          "internalType": "bytes",
          "name": "data",
          "type": "bytes"
        }
      ],
      "name": "mint",
      "outputs": [],
      "stateMutability": "nonpayable",
      "type": "function"
    },
    {
      "inputs": [
        {
          "internalType": "address",
          "name": "recipient",
          "type": "address"
        },
        {
          "internalType": "uint256",
          "name": "id",
          "type": "uint256"
        },
        {
          "internalType": "uint256",
          "name": "amount",
          "type": "uint256"
        },
        {
          "internalType": "bytes",
          "name": "data",
          "type": "bytes"
        }
      ],
      "name": "mint",
      "outputs": [
        {
          "internalType": "bool",
          "name": "minted",
          "type": "bool"
        }
      ],
      "stateMutability": "nonpayable",
      "type": "function"
    },
    {
      "inputs": [],
      "name": "name",
      "outputs": [
        {
          "internalType": "string",
          "name": "",
          "type": "string"
        }
      ],
      "stateMutability": "view",
      "type": "function"
    },
    {
      "inputs": [],
      "name": "owner",
      "outputs": [
        {
          "internalType": "address",
          "name": "",
          "type": "address"
        }
      ],
      "stateMutability": "view",
      "type": "function"
    },
    {
      "inputs": [],
      "name": "proxiableUUID",
      "outputs": [
        {
          "internalType": "bytes32",
          "name": "",
          "type": "bytes32"
        }
      ],
      "stateMutability": "view",
      "type": "function"
    },
    {
      "inputs": [],
      "name": "renounceOwnership",
      "outputs": [],
      "stateMutability": "nonpayable",
      "type": "function"
    },
    {
      "inputs": [
        {
          "internalType": "enum BulkDisbursableNFTs.Role",
          "name": "role",
          "type": "uint8"
        }
      ],
      "name": "roleToken",
      "outputs": [
        {
          "internalType": "uint256",
          "name": "id",
          "type": "uint256"
        }
      ],
      "stateMutability": "view",
      "type": "function"
    },
    {
      "inputs": [
        {
          "internalType": "enum BulkDisbursableNFTs.Role",
          "name": "role",
          "type": "uint8"
        },
        {
          "internalType": "uint256",
          "name": "index",
          "type": "uint256"
        }
      ],
      "name": "roleToken",
      "outputs": [
        {
          "internalType": "uint256",
          "name": "id",
          "type": "uint256"
        }
      ],
      "stateMutability": "view",
      "type": "function"
    },
    {
      "inputs": [
        {
          "internalType": "string",
          "name": "roleName",
          "type": "string"
        }
      ],
      "name": "roleValueForName",
      "outputs": [
        {
          "internalType": "enum BulkDisbursableNFTs.Role",
          "name": "role",
          "type": "uint8"
        }
      ],
      "stateMutability": "pure",
      "type": "function"
    },
    {
      "inputs": [
        {
          "internalType": "address",
          "name": "from",
          "type": "address"
        },
        {
          "internalType": "address",
          "name": "to",
          "type": "address"
        },
        {
          "internalType": "uint256[]",
          "name": "ids",
          "type": "uint256[]"
        },
        {
          "internalType": "uint256[]",
          "name": "amounts",
          "type": "uint256[]"
        },
        {
          "internalType": "bytes",
          "name": "data",
          "type": "bytes"
        }
      ],
      "name": "safeBatchTransferFrom",
      "outputs": [],
      "stateMutability": "nonpayable",
      "type": "function"
    },
    {
      "inputs": [
        {
          "internalType": "address",
          "name": "from",
          "type": "address"
        },
        {
          "internalType": "address",
          "name": "to",
          "type": "address"
        },
        {
          "internalType": "uint256",
          "name": "id",
          "type": "uint256"
        },
        {
          "internalType": "uint256",
          "name": "amount",
          "type": "uint256"
        },
        {
          "internalType": "bytes",
          "name": "data",
          "type": "bytes"
        }
      ],
      "name": "safeTransferFrom",
      "outputs": [],
      "stateMutability": "nonpayable",
      "type": "function"
    },
    {
      "inputs": [
        {
          "internalType": "address",
          "name": "operator",
          "type": "address"
        },
        {
          "internalType": "bool",
          "name": "approved",
          "type": "bool"
        }
      ],
      "name": "setApprovalForAll",
      "outputs": [],
      "stateMutability": "nonpayable",
      "type": "function"
    },
    {
      "inputs": [
        {
          "internalType": "string",
          "name": "_name",
          "type": "string"
        },
        {
          "internalType": "string",
          "name": "_symbol",
          "type": "string"
        }
      ],
      "name": "setDescription",
      "outputs": [],
      "stateMutability": "nonpayable",
      "type": "function"
    },
    {
      "inputs": [
        {
          "internalType": "uint256",
          "name": "id",
          "type": "uint256"
        },
        {
          "internalType": "uint256",
          "name": "max",
          "type": "uint256"
        }
      ],
      "name": "setMax",
      "outputs": [],
      "stateMutability": "nonpayable",
      "type": "function"
    },
    {
      "inputs": [
        {
          "internalType": "uint256",
          "name": "id",
          "type": "uint256"
        },
        {
          "internalType": "string",
          "name": "newURI",
          "type": "string"
        }
      ],
      "name": "setURI",
      "outputs": [],
      "stateMutability": "nonpayable",
      "type": "function"
    },
    {
      "inputs": [
        {
          "internalType": "bytes4",
          "name": "interfaceId",
          "type": "bytes4"
        }
      ],
      "name": "supportsInterface",
      "outputs": [
        {
          "internalType": "bool",
          "name": "",
          "type": "bool"
        }
      ],
      "stateMutability": "view",
      "type": "function"
    },
    {
      "inputs": [],
      "name": "symbol",
      "outputs": [
        {
          "internalType": "string",
          "name": "",
          "type": "string"
        }
      ],
      "stateMutability": "view",
      "type": "function"
    },
    {
      "inputs": [
        {
          "internalType": "uint256",
          "name": "index",
          "type": "uint256"
        }
      ],
      "name": "tokenByIndex",
      "outputs": [
        {
          "internalType": "uint256",
          "name": "id",
          "type": "uint256"
        }
      ],
      "stateMutability": "view",
      "type": "function"
    },
    {
      "inputs": [
        {
          "internalType": "uint256",
          "name": "id",
          "type": "uint256"
        }
      ],
      "name": "tokenIndex",
      "outputs": [
        {
          "internalType": "uint256",
          "name": "index",
          "type": "uint256"
        }
      ],
      "stateMutability": "view",
      "type": "function"
    },
    {
      "inputs": [
        {
          "internalType": "address",
          "name": "owner",
          "type": "address"
        },
        {
          "internalType": "uint256",
          "name": "index",
          "type": "uint256"
        }
      ],
      "name": "tokenOfOwnerByIndex",
      "outputs": [
        {
          "internalType": "uint256",
          "name": "id",
          "type": "uint256"
        }
      ],
      "stateMutability": "view",
      "type": "function"
    },
    {
      "inputs": [
        {
          "internalType": "uint256",
          "name": "id",
          "type": "uint256"
        }
      ],
      "name": "totalSupply",
      "outputs": [
        {
          "internalType": "uint256",
          "name": "",
          "type": "uint256"
        }
      ],
      "stateMutability": "view",
      "type": "function"
    },
    {
      "inputs": [
        {
          "internalType": "address",
          "name": "newOwner",
          "type": "address"
        }
      ],
      "name": "transferOwnership",
      "outputs": [],
      "stateMutability": "nonpayable",
      "type": "function"
    },
    {
      "inputs": [],
      "name": "typeSupply",
      "outputs": [
        {
          "internalType": "uint256",
          "name": "count",
          "type": "uint256"
        }
      ],
      "stateMutability": "view",
      "type": "function"
    },
    {
      "inputs": [
        {
          "internalType": "address",
          "name": "newImplementation",
          "type": "address"
        }
      ],
      "name": "upgradeTo",
      "outputs": [],
      "stateMutability": "nonpayable",
      "type": "function"
    },
    {
      "inputs": [
        {
          "internalType": "address",
          "name": "newImplementation",
          "type": "address"
        },
        {
          "internalType": "bytes",
          "name": "data",
          "type": "bytes"
        }
      ],
      "name": "upgradeToAndCall",
      "outputs": [],
      "stateMutability": "payable",
      "type": "function"
    },
    {
      "inputs": [
        {
          "internalType": "uint256",
          "name": "id",
          "type": "uint256"
        }
      ],
      "name": "uri",
      "outputs": [
        {
          "internalType": "string",
          "name": "metadata",
          "type": "string"
        }
      ],
      "stateMutability": "view",
      "type": "function"
    }
  ],
  "bytecode": "0x60a06040523060601b6080523480156200001857600080fd5b50600054610100900460ff16620000365760005460ff161562000040565b62000040620000e5565b620000a85760405162461bcd60e51b815260206004820152602e60248201527f496e697469616c697a61626c653a20636f6e747261637420697320616c72656160448201526d191e481a5b9a5d1a585b1a5e995960921b606482015260840160405180910390fd5b600054610100900460ff16158015620000cb576000805461ffff19166101011790555b8015620000de576000805461ff00191690555b5062000112565b6000620000fd306200010360201b6200241e1760201c565b15905090565b6001600160a01b03163b151590565b60805160601c6153896200014d600039600081816114b7015281816114f701528181611a5e01528181611a9e0152611bd201526153896000f3fe60806040526004361061020c5760003560e01c8062fdd58e1461021157806301ffc9a7146102445780630583e9f81461027457806306fdde03146102945780630e89341c146102b65780630ec0370f146102d657806314c46427146102f857806316730ab01461031857806319e0755c146103385780632a7ccf13146103585780632eb2c2d6146103855780632f745c59146103a55780633659cfe6146103c55780633b91ceef146103e55780633dbe35de146104055780634468031f1461042557806348289589146104455780634cd88b76146104655780634e1273f4146104855780634f1ef286146104b25780634f558e79146104c55780634f6ccce7146104f457806352d1902d146105145780635d5664e1146105295780635dca8ae2146105495780636755d456146105695780636b20c45414610589578063715018a6146105a9578063731133e9146105be578063862440e2146105de5780638da5cb5b146105fe57806395d89b411461062b5780639d6d7eaa146106405780639d969a9c146106605780639e97b8f614610675578063a22cb46514610695578063aa8e9066146106b5578063bd85b039146106d5578063c3c8df9914610702578063dd25c91f14610722578063e985e9c514610742578063edc79bac1461078b578063efc81a8c146107a0578063f242432a146107b5578063f2fde38b146107d5578063f5298aca146107f5575b600080fd5b34801561021d57600080fd5b5061023161022c366004614618565b610815565b6040519081526020015b60405180910390f35b34801561025057600080fd5b5061026461025f3660046147d0565b6108b1565b604051901515815260200161023b565b34801561028057600080fd5b5061023161028f366004614940565b610901565b3480156102a057600080fd5b506102a961096f565b60405161023b9190614bc6565b3480156102c257600080fd5b506102a96102d1366004614940565b6109fe565b3480156102e257600080fd5b506102f66102f1366004614727565b610c71565b005b34801561030457600080fd5b50610231610313366004614808565b610cc8565b34801561032457600080fd5b5061023161033336600461483d565b610cd5565b34801561034457600080fd5b50610264610353366004614808565b611078565b34801561036457600080fd5b506103786103733660046148fb565b611084565b60405161023b9190614b6f565b34801561039157600080fd5b506102f66103a03660046143db565b611391565b3480156103b157600080fd5b506102316103c0366004614618565b611428565b3480156103d157600080fd5b506102f66103e036600461438f565b6114ac565b3480156103f157600080fd5b506102f66104003660046149f1565b611575565b34801561041157600080fd5b50610231610420366004614878565b6115f8565b34801561043157600080fd5b5061026461044036600461483d565b611773565b34801561045157600080fd5b50610264610460366004614878565b61179a565b34801561047157600080fd5b506102f6610480366004614893565b6117a7565b34801561049157600080fd5b506104a56104a03660046146d1565b6118f2565b60405161023b9190614b37565b6102f66104c03660046145d7565b611a53565b3480156104d157600080fd5b506102646104e0366004614940565b600090815260fb6020526040902054151590565b34801561050057600080fd5b5061023161050f366004614940565b611b09565b34801561052057600080fd5b50610231611bc5565b34801561053557600080fd5b506102f6610544366004614822565b611c74565b34801561055557600080fd5b50610231610564366004614786565b611c80565b34801561057557600080fd5b506102f6610584366004614893565b611c8c565b34801561059557600080fd5b506102f66105a436600461452d565b611cd6565b3480156105b557600080fd5b506102f6611d1e565b3480156105ca57600080fd5b506102646105d9366004614673565b611d59565b3480156105ea57600080fd5b506102f66105f9366004614958565b611f61565b34801561060a57600080fd5b5061061361203d565b6040516001600160a01b03909116815260200161023b565b34801561063757600080fd5b506102a961204c565b34801561064c57600080fd5b506102f661065b3660046149a1565b61205a565b34801561066c57600080fd5b5061023161206f565b34801561068157600080fd5b50610264610690366004614822565b612087565b3480156106a157600080fd5b506102f66106b036600461459d565b612095565b3480156106c157600080fd5b506102f66106d036600461483d565b6120a0565b3480156106e157600080fd5b506102316106f0366004614940565b600090815260fb602052604090205490565b34801561070e57600080fd5b5061026461071d36600461438f565b6120ad565b34801561072e57600080fd5b5061023161073d3660046144e2565b6120e2565b34801561074e57600080fd5b5061026461075d3660046143a9565b6001600160a01b03918216600090815260666020908152604080832093909416825291909152205460ff1690565b34801561079757600080fd5b50610264612287565b3480156107ac57600080fd5b50610231612292565b3480156107c157600080fd5b506102f66107d0366004614480565b6122b2565b3480156107e157600080fd5b506102f66107f036600461438f565b6122f7565b34801561080157600080fd5b506102f6610810366004614641565b612394565b60006001600160a01b0383166108865760405162461bcd60e51b815260206004820152602b60248201527f455243313135353a2062616c616e636520717565727920666f7220746865207a60448201526a65726f206164647265737360a81b60648201526084015b60405180910390fd5b5060008181526065602090815260408083206001600160a01b03861684529091529020545b92915050565b60006001600160e01b03198216636cdb3d1360e11b14806108e257506001600160e01b031982166303a24d0760e21b145b806108ab57506301ffc9a760e01b6001600160e01b03198316146108ab565b600081815261019560205260409020548061096a5760405162461bcd60e51b815260206004820152602360248201527f5468652072657175657374656420746f6b656e20646f6573206e6f742065786960448201526239ba1760e91b606482015260840161087d565b919050565b610191805461097d90615108565b80601f01602080910402602001604051908101604052809291908181526020018280546109a990615108565b80156109f65780601f106109cb576101008083540402835291602001916109f6565b820191906000526020600020905b8154815290600101906020018083116109d957829003601f168201915b505050505081565b600081815261019360205260409020805460609190610a1c90615108565b80601f0160208091040260200160405190810160405280929190818152602001828054610a4890615108565b8015610a955780601f10610a6a57610100808354040283529160200191610a95565b820191906000526020600020905b815481529060010190602001808311610a7857829003601f168201915b5050505050905080516000141561096a576008610ab5600d61010061507f565b610abf91906150b9565b600160ff919091161b6008610ad7600d61010061507f565b610ae191906150b9565b60ff166001610af260086002614fd4565b610afc91906150a2565b901b8316141561096a576000600160088160038083610b1e600d61010061507f565b610b2891906150b9565b610b3291906150b9565b610b3c91906150b9565b610b4691906150b9565b610b5091906150b9565b610b5a91906150b9565b60ff166001610b6a816002614fd4565b610b7491906150a2565b901b6003806008610b88600d61010061507f565b610b9291906150b9565b610b9c91906150b9565b610ba691906150b9565b60ff166001901b1719600160206002610bbf9190614fd4565b610bc991906150a2565b19841616600081815261019360205260409020805491925090610beb90615108565b80601f0160208091040260200160405190810160405280929190818152602001828054610c1790615108565b8015610c645780601f10610c3957610100808354040283529160200191610c64565b820191906000526020600020905b815481529060010190602001808311610c4757829003601f168201915b5050505050915050919050565b60005b8351811015610cc257610cb1848281518110610ca057634e487b7160e01b600052603260045260246000fd5b602002602001015184600185611d59565b50610cbb8161516f565b9050610c74565b50505050565b60006108ab8260006115f8565b600080610ce185610cc8565b90506000604051806101000160405280856001600860016003806008600d60ff16610100610d0f919061507f565b610d1991906150b9565b610d2391906150b9565b610d2d91906150b9565b610d3791906150b9565b610d4191906150b9565b610d4b91906150b9565b60ff166001610d5b816002614fd4565b610d6591906150a2565b901b6003806008610d79600d61010061507f565b610d8391906150b9565b610d8d91906150b9565b610d9791906150b9565b600160ff919091161b861717178152602001856003806008610dbc600d61010061507f565b610dc691906150b9565b610dd091906150b9565b610dda91906150b9565b60ff166001901b85171781526020016001600860016003806008600d60ff16610100610e06919061507f565b610e1091906150b9565b610e1a91906150b9565b610e2491906150b9565b610e2e91906150b9565b610e3891906150b9565b610e4291906150b9565b60ff166001610e52816002614fd4565b610e5c91906150a2565b901b6003806008610e70600d61010061507f565b610e7a91906150b9565b610e8491906150b9565b610e8e91906150b9565b600160ff919091161b85171781526020016003806008610eb1600d61010061507f565b610ebb91906150b9565b610ec591906150b9565b610ecf91906150b9565b60ff166001901b84178152602001856001600860016003806008600d60ff16610100610efb919061507f565b610f0591906150b9565b610f0f91906150b9565b610f1991906150b9565b610f2391906150b9565b610f2d91906150b9565b610f3791906150b9565b60ff166001610f47816002614fd4565b610f5191906150a2565b901b8517178152602001600160088160038083610f71600d61010061507f565b610f7b91906150b9565b610f8591906150b9565b610f8f91906150b9565b610f9991906150b9565b610fa391906150b9565b610fad91906150b9565b60ff166001610fbd816002614fd4565b610fc791906150a2565b901b841781528584176020820152604001839052905060005b60088160ff16101561106957600061101f87848460ff166008811061101557634e487b7160e01b600052603260045260246000fd5b6020020151610815565b111561105757818160ff166008811061104857634e487b7160e01b600052603260045260246000fd5b60200201519350505050611071565b806110618161518a565b915050610fe0565b506000925050505b9392505050565b60006108ab8233612087565b600080826040516020016110989190614a78565b6040516020818303038152906040528051906020012090506040516020016110cf906829bab832b93ab9b2b960b91b815260090190565b604051602081830303815290604052805190602001208114156110f55750600192915050565b6040516526b4b73a32b960d11b6020820152602601604051602081830303815290604052805190602001208114156111305750600292915050565b6040516521b0b9ba32b960d11b60208201526026016040516020818303038152906040528051906020012081141561116b5750600392915050565b604051692a3930b739b332b932b960b11b6020820152602a01604051602081830303815290604052805190602001208114156111aa5750600492915050565b6040516921b7b73334b3bab932b960b11b6020820152602a01604051602081830303815290604052805190602001208114156111e95750600592915050565b6040516926b0b4b73a30b4b732b960b11b6020820152602a01604051602081830303815290604052805190602001208114156112285750600692915050565b6040516621b932b0ba37b960c91b6020820152602701604051602081830303815290604052805190602001208114156112645750600792915050565b604051662634b6b4ba32b960c91b6020820152602701604051602081830303815290604052805190602001208114156112a05750600892915050565b60405165213ab93732b960d11b6020820152602601604051602081830303815290604052805190602001208114156112db5750600992915050565b604051682232b9ba3937bcb2b960b91b6020820152602901604051602081830303815290604052805190602001208114156113195750600a92915050565b604051654f7261636c6560d01b6020820152602601604051602081830303815290604052805190602001208114156113545750600b92915050565b60405162461bcd60e51b81526020600482015260126024820152712ab735b737bbb7103937b632903a3cb8329760711b604482015260640161087d565b6001600160a01b0385163314806113ad57506113ad853361075d565b6114145760405162461bcd60e51b815260206004820152603260248201527f455243313135353a207472616e736665722063616c6c6572206973206e6f74206044820152711bdddb995c881b9bdc88185c1c1c9bdd995960721b606482015260840161087d565b611421858585858561242d565b5050505050565b6001600160a01b0382166000908152610196602052604081205482106114605760405162461bcd60e51b815260040161087d90614e75565b6001600160a01b03831660009081526101966020526040902080548390811061149957634e487b7160e01b600052603260045260246000fd5b9060005260206000200154905092915050565b306001600160a01b037f00000000000000000000000000000000000000000000000000000000000000001614156114f55760405162461bcd60e51b815260040161087d90614cb1565b7f00000000000000000000000000000000000000000000000000000000000000006001600160a01b03166115276125e4565b6001600160a01b03161461154d5760405162461bcd60e51b815260040161087d90614d34565b61155681612600565b6040805160008082526020820190925261157291839190612686565b50565b61158060088361179a565b8061158e575061158e612287565b6115f45760405162461bcd60e51b815260206004820152603160248201527f596f75206d75737420686176652061204c696d6974657220746f6b656e20746f6044820152701031b430b733b29038bab0b73a34ba3c9760791b606482015260840161087d565b5050565b600061160660206002614fd4565b82106116545760405162461bcd60e51b815260206004820152601f60248201527f496e64696365732063616e206265206174206d6f737420333220626974732e00604482015260640161087d565b81600184603c81111561167757634e487b7160e01b600052602160045260246000fd5b146116835760006116dc565b60016003806008611697600d61010061507f565b6116a191906150b9565b6116ab91906150b9565b6116b591906150b9565b6116bf91906150b9565b60ff1660016116cf816002614fd4565b6116d991906150a2565b901b5b60086001600380836116f1600d61010061507f565b6116fb91906150b9565b61170591906150b9565b61170f91906150b9565b61171991906150b9565b61172391906150b9565b60ff1685603c81111561174657634e487b7160e01b600052602160045260246000fd5b901b6008611757600d61010061507f565b61176191906150b9565b60ff166001901b171717905092915050565b600081815261019560205260408120546117909085908590610cd5565b1515949350505050565b6000611071833384611773565b600054610100900460ff166117c25760005460ff16156117ca565b6117ca612800565b61182d5760405162461bcd60e51b815260206004820152602e60248201527f496e697469616c697a61626c653a20636f6e747261637420697320616c72656160448201526d191e481a5b9a5d1a585b1a5e995960921b606482015260840161087d565b600054610100900460ff1615801561184f576000805461ffff19166101011790555b611857612811565b6118956040518060400160405280602081526020017f4572726f723a2053696e676c6520546f6b656e20555249204e6f742055736564815250612840565b61189d612870565b6118a5612870565b6118ad612870565b610194805460018101825560009182526000805160206152cd83398151915201556118da85858585611c8c565b8015611421576000805461ff00191690555050505050565b606081518351146119575760405162461bcd60e51b815260206004820152602960248201527f455243313135353a206163636f756e747320616e6420696473206c656e677468604482015268040dad2e6dac2e8c6d60bb1b606482015260840161087d565b600083516001600160401b0381111561198057634e487b7160e01b600052604160045260246000fd5b6040519080825280602002602001820160405280156119a9578160200160208202803683370190505b50905060005b8451811015611a4b57611a108582815181106119db57634e487b7160e01b600052603260045260246000fd5b6020026020010151858381518110611a0357634e487b7160e01b600052603260045260246000fd5b6020026020010151610815565b828281518110611a3057634e487b7160e01b600052603260045260246000fd5b6020908102919091010152611a448161516f565b90506119af565b509392505050565b306001600160a01b037f0000000000000000000000000000000000000000000000000000000000000000161415611a9c5760405162461bcd60e51b815260040161087d90614cb1565b7f00000000000000000000000000000000000000000000000000000000000000006001600160a01b0316611ace6125e4565b6001600160a01b031614611af45760405162461bcd60e51b815260040161087d90614d34565b611afd82612600565b6115f482826001612686565b6000808211611b6d5760405162461bcd60e51b815260206004820152602a60248201527f4552432d3131353520456e756d657261626c653a20746f6b656e7320696e64656044820152697865642066726f6d203160b01b606482015260840161087d565b61019454821115611b905760405162461bcd60e51b815260040161087d90614e75565b610194805483908110611bb357634e487b7160e01b600052603260045260246000fd5b90600052602060002001549050919050565b6000306001600160a01b037f00000000000000000000000000000000000000000000000000000000000000001614611c605760405162461bcd60e51b815260206004820152603860248201527f555550535570677261646561626c653a206d757374206e6f742062652063616c6044820152771b1959081d1a1c9bdd59da0819195b1959d85d1958d85b1b60421b606482015260840161087d565b5060008051602061530d8339815191525b90565b6115f4828260006120a0565b60006108ab33836120e2565b33611c9561203d565b6001600160a01b031614611cbb5760405162461bcd60e51b815260040161087d90614e40565b611cc8610191858561404a565b50611421610192838361404a565b6001600160a01b038316331480611cf25750611cf2833361075d565b611d0e5760405162461bcd60e51b815260040161087d90614ceb565b611d19838383612897565b505050565b33611d2761203d565b6001600160a01b031614611d4d5760405162461bcd60e51b815260040161087d90614e40565b611d576000612a32565b565b6000600160088160038083611d71600d61010061507f565b611d7b91906150b9565b611d8591906150b9565b611d8f91906150b9565b611d9991906150b9565b611da391906150b9565b611dad91906150b9565b60ff166001611dbd816002614fd4565b611dc791906150a2565b901b600160088160038083611ddf600d61010061507f565b611de991906150b9565b611df391906150b9565b611dfd91906150b9565b611e0791906150b9565b611e1191906150b9565b611e1b91906150b9565b60ff166001611e2b816002614fd4565b611e3591906150a2565b901b85161415611e995760405162461bcd60e51b815260206004820152602960248201527f43616e6e6f74206d696e7420696e7465726e616c20746f6b656e732066726f6d6044820152681037baba39b4b2329760b91b606482015260840161087d565b60016003806008611ead600d61010061507f565b611eb791906150b9565b611ec191906150b9565b611ecb91906150b9565b611ed591906150b9565b60ff166001901b60016003806008600d60ff16610100611ef5919061507f565b611eff91906150b9565b611f0991906150b9565b611f1391906150b9565b611f1d91906150b9565b60ff166001901b8516148015611f3c57506000611f3a8686610815565b115b15611f4957506000611f59565b611f5585858585612a84565b5060015b949350505050565b611f6c60058461179a565b80611f7a5750611f7a612287565b611fe35760405162461bcd60e51b815260206004820152603460248201527f596f75206d7573742068617665206120436f6e6669677572657220746f6b656e604482015273103a379031b430b733b29036b2ba30b230ba309760611b606482015260840161087d565b600083815261019360205260409020611ffd90838361404a565b50827f6bb7ff708619ba0610cba295a58592e0451dee2622938c8755667688daf3529b8383604051612030929190614b97565b60405180910390a2505050565b6097546001600160a01b031690565b610192805461097d90615108565b612065848484611f61565b610cc28482611575565b61019454600090612082906001906150a2565b905090565b600061107183836000611773565b6115f4338383612b84565b611d198383836000612c65565b60006120ba600183612087565b806108ab57506120c861203d565b6001600160a01b0316826001600160a01b03161492915050565b610194546000908060086120f9600d61010061507f565b61210391906150b9565b60ff166009901b17915061211860078361179a565b806121265750612126612287565b61218e5760405162461bcd60e51b815260206004820152603360248201527f596f75206d757374206861766520612043726561746f7220746f6b656e20746f6044820152721031b932b0ba32903732bb903a37b5b2b7399760691b606482015260840161087d565b6101948054600181019091556000805160206152cd83398151915201829055600082815261019560209081526040918290208390558151808301909252600b82526a544f4b454e20494420495360a81b908201526121ec9083612e4d565b60005b835181101561223e5761222c84828151811061221b57634e487b7160e01b600052603260045260246000fd5b602002602001015186846001612c65565b806122368161516f565b9150506121ef565b50604080518381526001600160a01b03861660208201527f7757890bcab34d673dfca6b71df1b57f75a2fe4231d6e8de726caf534ab1fdd6910160405180910390a15092915050565b6000612082336120ad565b604080516000808252602082019092526122ac33826120e2565b91505090565b6001600160a01b0385163314806122ce57506122ce853361075d565b6122ea5760405162461bcd60e51b815260040161087d90614ceb565b6114218585858585612e92565b3361230061203d565b6001600160a01b0316146123265760405162461bcd60e51b815260040161087d90614e40565b6001600160a01b03811661238b5760405162461bcd60e51b815260206004820152602660248201527f4f776e61626c653a206e6577206f776e657220697320746865207a65726f206160448201526564647265737360d01b606482015260840161087d565b61157281612a32565b6123a060098484611773565b806123af57506123af836120ad565b6124135760405162461bcd60e51b815260206004820152602f60248201527f596f75206d75737420686176652061204275726e657220746f6b656e20746f2060448201526e3232b9ba3937bc903a37b5b2b7399760891b606482015260840161087d565b611d19838383612fa1565b6001600160a01b03163b151590565b815183511461244e5760405162461bcd60e51b815260040161087d90614f0e565b6001600160a01b0384166124745760405162461bcd60e51b815260040161087d90614d6e565b33612483818787878787613094565b60005b84518110156125885760008582815181106124b157634e487b7160e01b600052603260045260246000fd5b6020026020010151905060008583815181106124dd57634e487b7160e01b600052603260045260246000fd5b60209081029190910181015160008481526065835260408082206001600160a01b038e16835290935291909120549091508181101561252e5760405162461bcd60e51b815260040161087d90614df6565b60008381526065602090815260408083206001600160a01b038e8116855292528083208585039055908b1682528120805484929061256d908490614f79565b92505081905550505050806125819061516f565b9050612486565b50846001600160a01b0316866001600160a01b0316826001600160a01b031660008051602061528d83398151915287876040516125c6929190614b4a565b60405180910390a46125dc818787878787613922565b505050505050565b60008051602061530d833981519152546001600160a01b031690565b61260a6006611078565b806126185750612618612287565b6115725760405162461bcd60e51b815260206004820152603960248201527f596f75206d75737420686176652061204d61696e7461696e657220746f6b656e604482015278103a37903ab833b930b232903a34329031b7b73a3930b1ba1760391b606482015260840161087d565b7f4910fdfa16fed3260ed0e7147f7cc6da11a60208b5b9406d12a635614ffd91435460ff16156126b957611d1983613a94565b826001600160a01b03166352d1902d6040518163ffffffff1660e01b815260040160206040518083038186803b1580156126f257600080fd5b505afa925050508015612722575060408051601f3d908101601f1916820190925261271f918101906147b8565b60015b6127855760405162461bcd60e51b815260206004820152602e60248201527f45524331393637557067726164653a206e657720696d706c656d656e7461746960448201526d6f6e206973206e6f74205555505360901b606482015260840161087d565b60008051602061530d83398151915281146127f45760405162461bcd60e51b815260206004820152602960248201527f45524331393637557067726164653a20756e737570706f727465642070726f786044820152681a58589b195555525160ba1b606482015260840161087d565b50611d19838383613b2e565b600061280b3061241e565b15905090565b600054610100900460ff166128385760405162461bcd60e51b815260040161087d90614ec3565b611d57613b53565b600054610100900460ff166128675760405162461bcd60e51b815260040161087d90614ec3565b61157281613b83565b600054610100900460ff16611d575760405162461bcd60e51b815260040161087d90614ec3565b6001600160a01b0383166128bd5760405162461bcd60e51b815260040161087d90614db3565b80518251146128de5760405162461bcd60e51b815260040161087d90614f0e565b600033905061290181856000868660405180602001604052806000815250613094565b60005b83518110156129e557600084828151811061292f57634e487b7160e01b600052603260045260246000fd5b60200260200101519050600084838151811061295b57634e487b7160e01b600052603260045260246000fd5b60209081029190910181015160008481526065835260408082206001600160a01b038c1683529093529190912054909150818110156129ac5760405162461bcd60e51b815260040161087d90614c6d565b60009283526065602090815260408085206001600160a01b038b16865290915290922091039055806129dd8161516f565b915050612904565b5060006001600160a01b0316846001600160a01b0316826001600160a01b031660008051602061528d8339815191528686604051612a24929190614b4a565b60405180910390a450505050565b609780546001600160a01b038381166001600160a01b0319831681179093556040519116919082907f8be0079c531659141344cd1fd0a4f28419497f9722a3daafe3b4186f6b6457e090600090a35050565b6001600160a01b038416612ae45760405162461bcd60e51b815260206004820152602160248201527f455243313135353a206d696e7420746f20746865207a65726f206164647265736044820152607360f81b606482015260840161087d565b33612b0481600087612af588613bb3565b612afe88613bb3565b87613094565b60008481526065602090815260408083206001600160a01b038916845290915281208054859290612b36908490614f79565b909155505060408051858152602081018590526001600160a01b0380881692600092918516916000805160206152ad833981519152910160405180910390a461142181600087878787613c0c565b816001600160a01b0316836001600160a01b03161415612bf85760405162461bcd60e51b815260206004820152602960248201527f455243313135353a2073657474696e6720617070726f76616c20737461747573604482015268103337b91039b2b63360b91b606482015260840161087d565b6001600160a01b03838116600081815260666020908152604080832094871680845294825291829020805460ff191686151590811790915591519182527f17307eab39ab6107e8899845ad3d59bd9653f200f220920489ca2b5937696c31910160405180910390a3505050565b80612d7f57600184603c811115612c8c57634e487b7160e01b600052602160045260246000fd5b1415612cff57612c9a612287565b612cfa5760405162461bcd60e51b815260206004820152602b60248201527f596f75206d75737420626520612073757065727573657220746f20637265617460448201526a32903732bb9037b732b99760a91b606482015260840161087d565b612d7f565b612d0a60038361179a565b80612d185750612d18612287565b612d7f5760405162461bcd60e51b815260206004820152603260248201527f596f75206d7573742068617665207468652043617374657220726f6c6520746f6044820152711030b9b9b4b3b7103732bb903937b632b99760711b606482015260840161087d565b612dac6040518060400160405280600b81526020016a494e44455820212121212160a81b81525083612e4d565b610cc28382612dbc576000612e2b565b600160088160038083612dd2600d61010061507f565b612ddc91906150b9565b612de691906150b9565b612df091906150b9565b612dfa91906150b9565b612e0491906150b9565b612e0e91906150b9565b60ff166001612e1e816002614fd4565b612e2891906150a2565b901b5b612e3587866115f8565b17600160405180602001604052806000815250612a84565b6115f48282604051602401612e63929190614c03565b60408051601f198184030181529190526020810180516001600160e01b03166309710a9d60e41b179052613cdd565b6001600160a01b038416612eb85760405162461bcd60e51b815260040161087d90614d6e565b33612ec8818787612af588613bb3565b60008481526065602090815260408083206001600160a01b038a16845290915290205483811015612f0b5760405162461bcd60e51b815260040161087d90614df6565b60008581526065602090815260408083206001600160a01b038b8116855292528083208785039055908816825281208054869290612f4a908490614f79565b909155505060408051868152602081018690526001600160a01b03808916928a821692918616916000805160206152ad833981519152910160405180910390a4612f98828888888888613c0c565b50505050505050565b6001600160a01b038316612fc75760405162461bcd60e51b815260040161087d90614db3565b33612ff681856000612fd887613bb3565b612fe187613bb3565b60405180602001604052806000815250613094565b60008381526065602090815260408083206001600160a01b0388168452909152902054828110156130395760405162461bcd60e51b815260040161087d90614c6d565b60008481526065602090815260408083206001600160a01b03898116808652918452828520888703905582518981529384018890529092908616916000805160206152ad833981519152910160405180910390a45050505050565b61309c612287565b61355a5760005b8351811015613558576001600881600380836130c2600d61010061507f565b6130cc91906150b9565b6130d691906150b9565b6130e091906150b9565b6130ea91906150b9565b6130f491906150b9565b6130fe91906150b9565b60ff16600161310e816002614fd4565b61311891906150a2565b901b600160088160038083613130600d61010061507f565b61313a91906150b9565b61314491906150b9565b61314e91906150b9565b61315891906150b9565b61316291906150b9565b61316c91906150b9565b60ff16600161317c816002614fd4565b61318691906150a2565b901b8583815181106131a857634e487b7160e01b600052603260045260246000fd5b602002602001015116146135485760006001600160a01b038716156131ce5760046131d1565b60025b9050600281603c8111156131f557634e487b7160e01b600052602160045260246000fd5b14156134aa57600861320a600d61010061507f565b61321491906150b9565b600160ff919091161b600861322c600d61010061507f565b61323691906150b9565b60ff16600161324760086002614fd4565b61325191906150a2565b901b86848151811061327357634e487b7160e01b600052603260045260246000fd5b602002602001015116141561335d576132b460038684815181106132a757634e487b7160e01b600052603260045260246000fd5b602002602001015161179a565b806132c257506132c2612287565b6133285760405162461bcd60e51b815260206004820152603160248201527f596f75206d757374206861766520612043617374657220746f6b656e20746f2060448201527036b4b73a103a37b5b2b71033b0ba32b99760791b606482015260840161087d565b6133586040518060400160405280600e81526020016d53454e444552204d45535341474560901b81525033613cfe565b613546565b6000613394823361033389878151811061338757634e487b7160e01b600052603260045260246000fd5b6020026020010151610901565b905061339f81613d43565b6133c3828785815181106132a757634e487b7160e01b600052603260045260246000fd5b6134285760405162461bcd60e51b815260206004820152603060248201527f596f75206d75737420686176652061204d696e74657220746f6b656e20746f2060448201526f33b2b732b930ba32903a37b5b2b7399760811b606482015260840161087d565b6134576040518060400160405280600d81526020016c544f4b454e204d45535341474560981b81525082612e4d565b6000600380600861346b600d61010061507f565b61347591906150b9565b61347f91906150b9565b61348991906150b9565b60ff166001901b821611156134a4576134a433826001612fa1565b50613546565b6001600160a01b03861615613546576134dd818684815181106132a757634e487b7160e01b600052603260045260246000fd5b6135465760405162461bcd60e51b815260206004820152603460248201527f596f75206d75737420686176652061205472616e73666572657220746f6b656e604482015273103a37903a3930b739b332b9103a37b5b2b7399760611b606482015260840161087d565b505b6135518161516f565b90506130a3565b505b6001600160a01b038416156137805760005b835181101561377e57610194600101600085838151811061359d57634e487b7160e01b600052603260045260246000fd5b602002602001015181526020019081526020016000205460001415613649576101946000018482815181106135e257634e487b7160e01b600052603260045260246000fd5b602090810291909101810151825460018101845560009384529183209091015561019454855190916101959187908590811061362e57634e487b7160e01b600052603260045260246000fd5b60200260200101518152602001908152602001600020819055505b6101966000866001600160a01b03166001600160a01b03168152602001908152602001600020600101600085838151811061369457634e487b7160e01b600052603260045260246000fd5b60200260200101518152602001908152602001600020546000141561376e576001600160a01b03851660009081526101966020526040902084518590839081106136ee57634e487b7160e01b600052603260045260246000fd5b6020908102919091018101518254600181810185556000948552838520909101919091556001600160a01b038816835261019690915260408220805487519093919092019187908590811061375357634e487b7160e01b600052603260045260246000fd5b60200260200101518152602001908152602001600020819055505b6137778161516f565b905061356c565b505b6001600160a01b038516156139145760005b8351811015613912578281815181106137bb57634e487b7160e01b600052603260045260246000fd5b60200260200101516137e787868481518110611a0357634e487b7160e01b600052603260045260246000fd5b11613902576001600160a01b0386166000908152610196602052604081208551600191820190839088908690811061382f57634e487b7160e01b600052603260045260246000fd5b602002602001015181526020019081526020016000205461385091906150a2565b6001600160a01b0388166000908152610196602052604090208054919250908290811061388d57634e487b7160e01b600052603260045260246000fd5b90600052602060002001600090556101966000886001600160a01b03166001600160a01b0316815260200190815260200160002060010160008684815181106138e657634e487b7160e01b600052603260045260246000fd5b6020026020010151815260200190815260200160002060009055505b61390b8161516f565b9050613792565b505b6125dc868686868686613d88565b613934846001600160a01b031661241e565b156125dc5760405163bc197c8160e01b81526001600160a01b0385169063bc197c819061396d9089908990889088908890600401614a94565b602060405180830381600087803b15801561398757600080fd5b505af19250505080156139b7575060408051601f3d908101601f191682019092526139b4918101906147ec565b60015b613a64576139c36151d6565b806308c379a014156139fd57506139d86151ed565b806139e357506139ff565b8060405162461bcd60e51b815260040161087d9190614bc6565b505b60405162461bcd60e51b815260206004820152603460248201527f455243313135353a207472616e7366657220746f206e6f6e20455243313135356044820152732932b1b2b4bb32b91034b6b83632b6b2b73a32b960611b606482015260840161087d565b6001600160e01b0319811663bc197c8160e01b14612f985760405162461bcd60e51b815260040161087d90614c25565b613a9d8161241e565b613aff5760405162461bcd60e51b815260206004820152602d60248201527f455243313936373a206e657720696d706c656d656e746174696f6e206973206e60448201526c1bdd08184818dbdb9d1c9858dd609a1b606482015260840161087d565b60008051602061530d83398151915280546001600160a01b0319166001600160a01b0392909216919091179055565b613b3783613ecc565b600082511180613b445750805b15611d1957610cc28383613f0c565b600054610100900460ff16613b7a5760405162461bcd60e51b815260040161087d90614ec3565b611d5733612a32565b600054610100900460ff16613baa5760405162461bcd60e51b815260040161087d90614ec3565b61157281613ffe565b60408051600180825281830190925260609160009190602080830190803683370190505090508281600081518110613bfb57634e487b7160e01b600052603260045260246000fd5b602090810291909101015292915050565b613c1e846001600160a01b031661241e565b156125dc5760405163f23a6e6160e01b81526001600160a01b0385169063f23a6e6190613c579089908990889088908890600401614af2565b602060405180830381600087803b158015613c7157600080fd5b505af1925050508015613ca1575060408051601f3d908101601f19168201909252613c9e918101906147ec565b60015b613cad576139c36151d6565b6001600160e01b0319811663f23a6e6160e01b14612f985760405162461bcd60e51b815260040161087d90614c25565b80516a636f6e736f6c652e6c6f67602083016000808483855afa5050505050565b6115f48282604051602401613d14929190614bd9565b60408051601f198184030181529190526020810180516001600160e01b031663319af33360e01b179052613cdd565b61157281604051602401613d5991815260200190565b60408051601f198184030181529190526020810180516001600160e01b031663f5b1bba960e01b179052613cdd565b6001600160a01b038516613e2b5760005b8351811015613e2957828181518110613dc257634e487b7160e01b600052603260045260246000fd5b602002602001015160fb6000868481518110613dee57634e487b7160e01b600052603260045260246000fd5b602002602001015181526020019081526020016000206000828254613e139190614f79565b90915550613e2290508161516f565b9050613d99565b505b6001600160a01b0384166125dc5760005b8351811015612f9857828181518110613e6557634e487b7160e01b600052603260045260246000fd5b602002602001015160fb6000868481518110613e9157634e487b7160e01b600052603260045260246000fd5b602002602001015181526020019081526020016000206000828254613eb691906150a2565b90915550613ec590508161516f565b9050613e3c565b613ed581613a94565b6040516001600160a01b038216907fbc7cd75a20ee27fd9adebab32041f755214dbc6bffa90cc0225b39da2e5c2d3b90600090a250565b6060613f178361241e565b613f725760405162461bcd60e51b815260206004820152602660248201527f416464726573733a2064656c65676174652063616c6c20746f206e6f6e2d636f6044820152651b9d1c9858dd60d21b606482015260840161087d565b600080846001600160a01b031684604051613f8d9190614a78565b600060405180830381855af49150503d8060008114613fc8576040519150601f19603f3d011682016040523d82523d6000602084013e613fcd565b606091505b5091509150613ff5828260405180606001604052806027815260200161532d60279139614011565b95945050505050565b80516115f49060679060208401906140ce565b60608315614020575081611071565b8251156140305782518084602001fd5b8160405162461bcd60e51b815260040161087d9190614bc6565b82805461405690615108565b90600052602060002090601f01602090048101928261407857600085556140be565b82601f106140915782800160ff198235161785556140be565b828001600101855582156140be579182015b828111156140be5782358255916020019190600101906140a3565b506140ca929150614142565b5090565b8280546140da90615108565b90600052602060002090601f0160209004810192826140fc57600085556140be565b82601f1061411557805160ff19168380011785556140be565b828001600101855582156140be579182015b828111156140be578251825591602001919060010190614127565b5b808211156140ca5760008155600101614143565b60006001600160401b03831115614170576141706151c0565b604051614187601f8501601f191660200182615143565b80915083815284848401111561419c57600080fd5b83836020830137600060208583010152509392505050565b80356001600160a01b038116811461096a57600080fd5b600082601f8301126141db578081fd5b813560206141e882614f56565b6040516141f58282615143565b8381528281019150858301600585901b87018401881015614214578586fd5b855b8581101561423957614227826141b4565b84529284019290840190600101614216565b5090979650505050505050565b600082601f830112614256578081fd5b8135602061426382614f56565b6040516142708282615143565b8381528281019150858301600585901b8701840188101561428f578586fd5b855b85811015614239576142a28261433a565b84529284019290840190600101614291565b600082601f8301126142c4578081fd5b813560206142d182614f56565b6040516142de8282615143565b8381528281019150858301600585901b870184018810156142fd578586fd5b855b85811015614239578135845292840192908401906001016142ff565b600082601f83011261432b578081fd5b61107183833560208501614157565b8035603d811061096a57600080fd5b60008083601f84011261435a578182fd5b5081356001600160401b03811115614370578182fd5b60208301915083602082850101111561438857600080fd5b9250929050565b6000602082840312156143a0578081fd5b611071826141b4565b600080604083850312156143bb578081fd5b6143c4836141b4565b91506143d2602084016141b4565b90509250929050565b600080600080600060a086880312156143f2578081fd5b6143fb866141b4565b9450614409602087016141b4565b935060408601356001600160401b0380821115614424578283fd5b61443089838a016142b4565b94506060880135915080821115614445578283fd5b61445189838a016142b4565b93506080880135915080821115614466578283fd5b506144738882890161431b565b9150509295509295909350565b600080600080600060a08688031215614497578081fd5b6144a0866141b4565b94506144ae602087016141b4565b9350604086013592506060860135915060808601356001600160401b038111156144d6578182fd5b6144738882890161431b565b600080604083850312156144f4578081fd5b6144fd836141b4565b915060208301356001600160401b03811115614517578182fd5b61452385828601614246565b9150509250929050565b600080600060608486031215614541578081fd5b61454a846141b4565b925060208401356001600160401b0380821115614565578283fd5b614571878388016142b4565b93506040860135915080821115614586578283fd5b50614593868287016142b4565b9150509250925092565b600080604083850312156145af578182fd5b6145b8836141b4565b9150602083013580151581146145cc578182fd5b809150509250929050565b600080604083850312156145e9578182fd5b6145f2836141b4565b915060208301356001600160401b0381111561460c578182fd5b6145238582860161431b565b6000806040838503121561462a578182fd5b614633836141b4565b946020939093013593505050565b600080600060608486031215614655578081fd5b61465e846141b4565b95602085013595506040909401359392505050565b60008060008060808587031215614688578182fd5b614691856141b4565b9350602085013592506040850135915060608501356001600160401b038111156146b9578182fd5b6146c58782880161431b565b91505092959194509250565b600080604083850312156146e3578182fd5b82356001600160401b03808211156146f9578384fd5b614705868387016141cb565b9350602085013591508082111561471a578283fd5b50614523858286016142b4565b60008060006060848603121561473b578081fd5b83356001600160401b0380821115614751578283fd5b61475d878388016141cb565b9450602086013593506040860135915080821115614779578283fd5b506145938682870161431b565b600060208284031215614797578081fd5b81356001600160401b038111156147ac578182fd5b611f5984828501614246565b6000602082840312156147c9578081fd5b5051919050565b6000602082840312156147e1578081fd5b813561107181615276565b6000602082840312156147fd578081fd5b815161107181615276565b600060208284031215614819578081fd5b6110718261433a565b60008060408385031215614834578182fd5b6143c48361433a565b600080600060608486031215614851578081fd5b61485a8461433a565b9250614868602085016141b4565b9150604084013590509250925092565b6000806040838503121561488a578182fd5b6146338361433a565b600080600080604085870312156148a8578182fd5b84356001600160401b03808211156148be578384fd5b6148ca88838901614349565b909650945060208701359150808211156148e2578384fd5b506148ef87828801614349565b95989497509550505050565b60006020828403121561490c578081fd5b81356001600160401b03811115614921578182fd5b8201601f81018413614931578182fd5b611f5984823560208401614157565b600060208284031215614951578081fd5b5035919050565b60008060006040848603121561496c578081fd5b8335925060208401356001600160401b03811115614988578182fd5b61499486828701614349565b9497909650939450505050565b600080600080606085870312156149b6578182fd5b8435935060208501356001600160401b038111156149d2578283fd5b6149de87828801614349565b9598909750949560400135949350505050565b60008060408385031215614a03578182fd5b50508035926020909101359150565b6000815180845260208085019450808401835b83811015614a4157815187529582019590820190600101614a25565b509495945050505050565b60008151808452614a648160208601602086016150dc565b601f01601f19169290920160200192915050565b60008251614a8a8184602087016150dc565b9190910192915050565b6001600160a01b0386811682528516602082015260a060408201819052600090614ac090830186614a12565b8281036060840152614ad28186614a12565b90508281036080840152614ae68185614a4c565b98975050505050505050565b6001600160a01b03868116825285166020820152604081018490526060810183905260a060808201819052600090614b2c90830184614a4c565b979650505050505050565b6020815260006110716020830184614a12565b604081526000614b5d6040830185614a12565b8281036020840152613ff58185614a12565b60208101603d8310614b9157634e487b7160e01b600052602160045260246000fd5b91905290565b60208152816020820152818360408301376000818301604090810191909152601f909201601f19160101919050565b6020815260006110716020830184614a4c565b604081526000614bec6040830185614a4c565b905060018060a01b03831660208301529392505050565b604081526000614c166040830185614a4c565b90508260208301529392505050565b60208082526028908201527f455243313135353a204552433131353552656365697665722072656a656374656040820152676420746f6b656e7360c01b606082015260800190565b60208082526024908201527f455243313135353a206275726e20616d6f756e7420657863656564732062616c604082015263616e636560e01b606082015260800190565b6020808252602c908201526000805160206152ed83398151915260408201526b19195b1959d85d1958d85b1b60a21b606082015260800190565b60208082526029908201527f455243313135353a2063616c6c6572206973206e6f74206f776e6572206e6f7260408201526808185c1c1c9bdd995960ba1b606082015260800190565b6020808252602c908201526000805160206152ed83398151915260408201526b6163746976652070726f787960a01b606082015260800190565b60208082526025908201527f455243313135353a207472616e7366657220746f20746865207a65726f206164604082015264647265737360d81b606082015260800190565b60208082526023908201527f455243313135353a206275726e2066726f6d20746865207a65726f206164647260408201526265737360e81b606082015260800190565b6020808252602a908201527f455243313135353a20696e73756666696369656e742062616c616e636520666f60408201526939103a3930b739b332b960b11b606082015260800190565b6020808252818101527f4f776e61626c653a2063616c6c6572206973206e6f7420746865206f776e6572604082015260600190565b6020808252602e908201527f4552432d3131353520456e756d657261626c653a20746f6b656e20696e64657860408201526d206f7574206f6620626f756e647360901b606082015260800190565b6020808252602b908201527f496e697469616c697a61626c653a20636f6e7472616374206973206e6f74206960408201526a6e697469616c697a696e6760a81b606082015260800190565b60208082526028908201527f455243313135353a2069647320616e6420616d6f756e7473206c656e677468206040820152670dad2e6dac2e8c6d60c31b606082015260800190565b60006001600160401b03821115614f6f57614f6f6151c0565b5060051b60200190565b60008219821115614f8c57614f8c6151aa565b500190565b600181815b80851115614fcc578160001904821115614fb257614fb26151aa565b80851615614fbf57918102915b93841c9390800290614f96565b509250929050565b600061107160ff841683600082614fed575060016108ab565b81614ffa575060006108ab565b8160018114615010576002811461501a57615036565b60019150506108ab565b60ff84111561502b5761502b6151aa565b50506001821b6108ab565b5060208310610133831016604e8410600b8410161715615059575081810a6108ab565b6150638383614f91565b8060001904821115615077576150776151aa565b029392505050565b600061ffff8381169083168181101561509a5761509a6151aa565b039392505050565b6000828210156150b4576150b46151aa565b500390565b600060ff821660ff8416808210156150d3576150d36151aa565b90039392505050565b60005b838110156150f75781810151838201526020016150df565b83811115610cc25750506000910152565b600181811c9082168061511c57607f821691505b6020821081141561513d57634e487b7160e01b600052602260045260246000fd5b50919050565b601f8201601f191681016001600160401b0381118282101715615168576151686151c0565b6040525050565b6000600019821415615183576151836151aa565b5060010190565b600060ff821660ff8114156151a1576151a16151aa565b60010192915050565b634e487b7160e01b600052601160045260246000fd5b634e487b7160e01b600052604160045260246000fd5b600060033d1115611c7157600481823e5160e01c90565b600060443d10156151fb5790565b6040516003193d81016004833e81513d6001600160401b03808311602484018310171561522a57505050505090565b82850191508151818111156152425750505050505090565b843d870101602082850101111561525c5750505050505090565b61526b60208286010187615143565b509095945050505050565b6001600160e01b03198116811461157257600080fdfe4a39dc06d4c0dbc64b70af90fd698a233a518aa5d07e595d983b8c0526c8f7fbc3d58168c5ae7397731d063d5bbf3d657854427343f4c083240f7aacaa2d0f62a6f1ac7ad7b125ba5a5e1c96b00ad6914f90a503b1ac3d85a9dadbb4c639df9246756e6374696f6e206d7573742062652063616c6c6564207468726f75676820360894a13ba1a3210667c828492db98dca3e2076cc3735a920a3ca505d382bbc416464726573733a206c6f772d6c6576656c2064656c65676174652063616c6c206661696c6564a2646970667358221220b8ce04f5c6ce1b31da99e7f0af6b63fc832e8de1fbf3ced7177a710d4dc6753264736f6c63430008040033",
  "linkReferences": {},
  "deployedLinkReferences": {}
}