{
  "_format": "hh-sol-artifact-1",
  "contractName": "BulkDisbursableNFTs",
  "sourceName": "src/BulkDisbursableNFTs.sol",
  "abi": [
    {
      "inputs": [],
      "stateMutability": "nonpayable",
      "type": "constructor"
    },
    {
      "anonymous": false,
      "inputs": [
        {
          "indexed": false,
          "internalType": "address",
          "name": "previousAdmin",
          "type": "address"
        },
        {
          "indexed": false,
          "internalType": "address",
          "name": "newAdmin",
          "type": "address"
        }
      ],
      "name": "AdminChanged",
      "type": "event"
    },
    {
      "anonymous": false,
      "inputs": [
        {
          "indexed": true,
          "internalType": "address",
          "name": "account",
          "type": "address"
        },
        {
          "indexed": true,
          "internalType": "address",
          "name": "operator",
          "type": "address"
        },
        {
          "indexed": false,
          "internalType": "bool",
          "name": "approved",
          "type": "bool"
        }
      ],
      "name": "ApprovalForAll",
      "type": "event"
    },
    {
      "anonymous": false,
      "inputs": [
        {
          "indexed": true,
          "internalType": "address",
          "name": "beacon",
          "type": "address"
        }
      ],
      "name": "BeaconUpgraded",
      "type": "event"
    },
    {
      "anonymous": false,
      "inputs": [
        {
          "indexed": false,
          "internalType": "uint256",
          "name": "id",
          "type": "uint256"
        },
        {
          "indexed": false,
          "internalType": "address",
          "name": "controller",
          "type": "address"
        }
      ],
      "name": "Created",
      "type": "event"
    },
    {
      "anonymous": false,
      "inputs": [
        {
          "indexed": false,
          "internalType": "uint8",
          "name": "version",
          "type": "uint8"
        }
      ],
      "name": "Initialized",
      "type": "event"
    },
    {
      "anonymous": false,
      "inputs": [
        {
          "indexed": true,
          "internalType": "address",
          "name": "previousOwner",
          "type": "address"
        },
        {
          "indexed": true,
          "internalType": "address",
          "name": "newOwner",
          "type": "address"
        }
      ],
      "name": "OwnershipTransferred",
      "type": "event"
    },
    {
      "anonymous": false,
      "inputs": [
        {
          "indexed": true,
          "internalType": "address",
          "name": "operator",
          "type": "address"
        },
        {
          "indexed": true,
          "internalType": "address",
          "name": "from",
          "type": "address"
        },
        {
          "indexed": true,
          "internalType": "address",
          "name": "to",
          "type": "address"
        },
        {
          "indexed": false,
          "internalType": "uint256[]",
          "name": "ids",
          "type": "uint256[]"
        },
        {
          "indexed": false,
          "internalType": "uint256[]",
          "name": "values",
          "type": "uint256[]"
        }
      ],
      "name": "TransferBatch",
      "type": "event"
    },
    {
      "anonymous": false,
      "inputs": [
        {
          "indexed": true,
          "internalType": "address",
          "name": "operator",
          "type": "address"
        },
        {
          "indexed": true,
          "internalType": "address",
          "name": "from",
          "type": "address"
        },
        {
          "indexed": true,
          "internalType": "address",
          "name": "to",
          "type": "address"
        },
        {
          "indexed": false,
          "internalType": "uint256",
          "name": "id",
          "type": "uint256"
        },
        {
          "indexed": false,
          "internalType": "uint256",
          "name": "value",
          "type": "uint256"
        }
      ],
      "name": "TransferSingle",
      "type": "event"
    },
    {
      "anonymous": false,
      "inputs": [
        {
          "indexed": false,
          "internalType": "string",
          "name": "value",
          "type": "string"
        },
        {
          "indexed": true,
          "internalType": "uint256",
          "name": "id",
          "type": "uint256"
        }
      ],
      "name": "URI",
      "type": "event"
    },
    {
      "anonymous": false,
      "inputs": [
        {
          "indexed": true,
          "internalType": "address",
          "name": "implementation",
          "type": "address"
        }
      ],
      "name": "Upgraded",
      "type": "event"
    },
    {
      "inputs": [
        {
          "internalType": "uint256",
          "name": "",
          "type": "uint256"
        }
      ],
      "name": "RolesProxy",
      "outputs": [
        {
          "internalType": "string",
          "name": "",
          "type": "string"
        }
      ],
      "stateMutability": "view",
      "type": "function"
    },
    {
      "inputs": [
        {
          "internalType": "address",
          "name": "account",
          "type": "address"
        },
        {
          "internalType": "uint256",
          "name": "id",
          "type": "uint256"
        }
      ],
      "name": "balanceOf",
      "outputs": [
        {
          "internalType": "uint256",
          "name": "",
          "type": "uint256"
        }
      ],
      "stateMutability": "view",
      "type": "function"
    },
    {
      "inputs": [
        {
          "internalType": "address[]",
          "name": "accounts",
          "type": "address[]"
        },
        {
          "internalType": "uint256[]",
          "name": "ids",
          "type": "uint256[]"
        }
      ],
      "name": "balanceOfBatch",
      "outputs": [
        {
          "internalType": "uint256[]",
          "name": "",
          "type": "uint256[]"
        }
      ],
      "stateMutability": "view",
      "type": "function"
    },
    {
      "inputs": [
        {
          "internalType": "address",
          "name": "owner",
          "type": "address"
        },
        {
          "internalType": "uint256",
          "name": "id",
          "type": "uint256"
        },
        {
          "internalType": "uint256",
          "name": "quantity",
          "type": "uint256"
        }
      ],
      "name": "burn",
      "outputs": [],
      "stateMutability": "nonpayable",
      "type": "function"
    },
    {
      "inputs": [
        {
          "internalType": "address",
          "name": "account",
          "type": "address"
        },
        {
          "internalType": "uint256[]",
          "name": "ids",
          "type": "uint256[]"
        },
        {
          "internalType": "uint256[]",
          "name": "values",
          "type": "uint256[]"
        }
      ],
      "name": "burnBatch",
      "outputs": [],
      "stateMutability": "nonpayable",
      "type": "function"
    },
    {
      "inputs": [
        {
          "internalType": "enum Roles.Role[]",
          "name": "grants",
          "type": "uint8[]"
        },
        {
          "internalType": "enum Roles.Role[]",
          "name": "disables",
          "type": "uint8[]"
        }
      ],
      "name": "create",
      "outputs": [
        {
          "internalType": "uint256",
          "name": "id",
          "type": "uint256"
        }
      ],
      "stateMutability": "nonpayable",
      "type": "function"
    },
    {
      "inputs": [
        {
          "internalType": "address",
          "name": "maintainer",
          "type": "address"
        },
        {
          "internalType": "enum Roles.Role[]",
          "name": "grants",
          "type": "uint8[]"
        },
        {
          "internalType": "enum Roles.Role[]",
          "name": "disables",
          "type": "uint8[]"
        }
      ],
      "name": "create",
      "outputs": [
        {
          "internalType": "uint256",
          "name": "id",
          "type": "uint256"
        }
      ],
      "stateMutability": "nonpayable",
      "type": "function"
    },
    {
      "inputs": [],
      "name": "create",
      "outputs": [
        {
          "internalType": "uint256",
          "name": "id",
          "type": "uint256"
        }
      ],
      "stateMutability": "nonpayable",
      "type": "function"
    },
    {
      "inputs": [
        {
          "internalType": "enum Roles.Role",
          "name": "toDisable",
          "type": "uint8"
        },
        {
          "internalType": "uint256",
          "name": "disablingIndex",
          "type": "uint256"
        }
      ],
      "name": "disableRole",
      "outputs": [],
      "stateMutability": "nonpayable",
      "type": "function"
    },
    {
      "inputs": [
        {
          "internalType": "uint256",
          "name": "id",
          "type": "uint256"
        }
      ],
      "name": "exists",
      "outputs": [
        {
          "internalType": "bool",
          "name": "",
          "type": "bool"
        }
      ],
      "stateMutability": "view",
      "type": "function"
    },
    {
      "inputs": [
        {
          "internalType": "enum Roles.Role",
          "name": "role",
          "type": "uint8"
        },
        {
          "internalType": "address",
          "name": "user",
          "type": "address"
        },
        {
          "internalType": "uint256",
          "name": "index",
          "type": "uint256"
        }
      ],
      "name": "gateToken",
      "outputs": [
        {
          "internalType": "uint256",
          "name": "id",
          "type": "uint256"
        }
      ],
      "stateMutability": "view",
      "type": "function"
    },
    {
      "inputs": [
        {
          "internalType": "uint256",
          "name": "id",
          "type": "uint256"
        }
      ],
      "name": "getMax",
      "outputs": [
        {
          "internalType": "int64",
          "name": "max",
          "type": "int64"
        }
      ],
      "stateMutability": "view",
      "type": "function"
    },
    {
      "inputs": [
        {
          "internalType": "uint256",
          "name": "id",
          "type": "uint256"
        }
      ],
      "name": "getPerUserMax",
      "outputs": [
        {
          "internalType": "int256",
          "name": "max",
          "type": "int256"
        }
      ],
      "stateMutability": "view",
      "type": "function"
    },
    {
      "inputs": [
        {
          "internalType": "enum Roles.Role",
          "name": "role",
          "type": "uint8"
        },
        {
          "internalType": "address",
          "name": "user",
          "type": "address"
        },
        {
          "internalType": "uint256",
          "name": "id",
          "type": "uint256"
        },
        {
          "internalType": "bool",
          "name": "singleUse",
          "type": "bool"
        }
      ],
      "name": "grantRole",
      "outputs": [],
      "stateMutability": "nonpayable",
      "type": "function"
    },
    {
      "inputs": [
        {
          "internalType": "enum Roles.Role",
          "name": "role",
          "type": "uint8"
        },
        {
          "internalType": "address",
          "name": "user",
          "type": "address"
        }
      ],
      "name": "grantRole",
      "outputs": [],
      "stateMutability": "nonpayable",
      "type": "function"
    },
    {
      "inputs": [
        {
          "internalType": "enum Roles.Role",
          "name": "role",
          "type": "uint8"
        },
        {
          "internalType": "address",
          "name": "user",
          "type": "address"
        },
        {
          "internalType": "bool",
          "name": "singleUse",
          "type": "bool"
        }
      ],
      "name": "grantRole",
      "outputs": [],
      "stateMutability": "nonpayable",
      "type": "function"
    },
    {
      "inputs": [
        {
          "internalType": "enum Roles.Role",
          "name": "role",
          "type": "uint8"
        },
        {
          "internalType": "address",
          "name": "user",
          "type": "address"
        },
        {
          "internalType": "uint256",
          "name": "id",
          "type": "uint256"
        }
      ],
      "name": "grantRole",
      "outputs": [],
      "stateMutability": "nonpayable",
      "type": "function"
    },
    {
      "inputs": [
        {
          "internalType": "enum Roles.Role",
          "name": "role",
          "type": "uint8"
        }
      ],
      "name": "hasRole",
      "outputs": [
        {
          "internalType": "bool",
          "name": "has",
          "type": "bool"
        }
      ],
      "stateMutability": "view",
      "type": "function"
    },
    {
      "inputs": [
        {
          "internalType": "enum Roles.Role",
          "name": "role",
          "type": "uint8"
        },
        {
          "internalType": "address",
          "name": "user",
          "type": "address"
        },
        {
          "internalType": "uint256",
          "name": "id",
          "type": "uint256"
        }
      ],
      "name": "hasRole",
      "outputs": [
        {
          "internalType": "bool",
          "name": "has",
          "type": "bool"
        }
      ],
      "stateMutability": "view",
      "type": "function"
    },
    {
      "inputs": [
        {
          "internalType": "enum Roles.Role",
          "name": "role",
          "type": "uint8"
        },
        {
          "internalType": "uint256",
          "name": "id",
          "type": "uint256"
        }
      ],
      "name": "hasRole",
      "outputs": [
        {
          "internalType": "bool",
          "name": "has",
          "type": "bool"
        }
      ],
      "stateMutability": "view",
      "type": "function"
    },
    {
      "inputs": [
        {
          "internalType": "enum Roles.Role",
          "name": "role",
          "type": "uint8"
        },
        {
          "internalType": "address",
          "name": "user",
          "type": "address"
        }
      ],
      "name": "hasRole",
      "outputs": [
        {
          "internalType": "bool",
          "name": "has",
          "type": "bool"
        }
      ],
      "stateMutability": "view",
      "type": "function"
    },
    {
      "inputs": [
        {
          "internalType": "string",
          "name": "_name",
          "type": "string"
        },
        {
          "internalType": "string",
          "name": "_symbol",
          "type": "string"
        }
      ],
      "name": "initialize",
      "outputs": [],
      "stateMutability": "nonpayable",
      "type": "function"
    },
    {
      "inputs": [
        {
          "internalType": "uint256",
          "name": "",
          "type": "uint256"
        }
      ],
      "name": "intValues",
      "outputs": [
        {
          "internalType": "int256",
          "name": "",
          "type": "int256"
        }
      ],
      "stateMutability": "view",
      "type": "function"
    },
    {
      "inputs": [
        {
          "internalType": "address",
          "name": "account",
          "type": "address"
        },
        {
          "internalType": "address",
          "name": "operator",
          "type": "address"
        }
      ],
      "name": "isApprovedForAll",
      "outputs": [
        {
          "internalType": "bool",
          "name": "",
          "type": "bool"
        }
      ],
      "stateMutability": "view",
      "type": "function"
    },
    {
      "inputs": [
        {
          "internalType": "address",
          "name": "user",
          "type": "address"
        }
      ],
      "name": "isSuper",
      "outputs": [
        {
          "internalType": "bool",
          "name": "superuser",
          "type": "bool"
        }
      ],
      "stateMutability": "view",
      "type": "function"
    },
    {
      "inputs": [],
      "name": "isSuper",
      "outputs": [
        {
          "internalType": "bool",
          "name": "superuser",
          "type": "bool"
        }
      ],
      "stateMutability": "view",
      "type": "function"
    },
    {
      "inputs": [
        {
          "internalType": "uint256",
          "name": "",
          "type": "uint256"
        }
      ],
      "name": "maxes",
      "outputs": [
        {
          "internalType": "int64",
          "name": "",
          "type": "int64"
        }
      ],
      "stateMutability": "view",
      "type": "function"
    },
    {
      "inputs": [
        {
          "internalType": "address[]",
          "name": "to",
          "type": "address[]"
        },
        {
          "internalType": "uint256",
          "name": "id",
          "type": "uint256"
        },
        {
          "internalType": "bytes",
          "name": "data",
          "type": "bytes"
        }
      ],
      "name": "mint",
      "outputs": [],
      "stateMutability": "nonpayable",
      "type": "function"
    },
    {
      "inputs": [
        {
          "internalType": "address",
          "name": "recipient",
          "type": "address"
        },
        {
          "internalType": "uint256",
          "name": "id",
          "type": "uint256"
        },
        {
          "internalType": "uint256",
          "name": "amount",
          "type": "uint256"
        },
        {
          "internalType": "bytes",
          "name": "data",
          "type": "bytes"
        }
      ],
      "name": "mint",
      "outputs": [
        {
          "internalType": "bool",
          "name": "minted",
          "type": "bool"
        }
      ],
      "stateMutability": "nonpayable",
      "type": "function"
    },
    {
      "inputs": [],
      "name": "name",
      "outputs": [
        {
          "internalType": "string",
          "name": "",
          "type": "string"
        }
      ],
      "stateMutability": "view",
      "type": "function"
    },
    {
      "inputs": [],
      "name": "owner",
      "outputs": [
        {
          "internalType": "address",
          "name": "",
          "type": "address"
        }
      ],
      "stateMutability": "view",
      "type": "function"
    },
    {
      "inputs": [],
      "name": "proxiableUUID",
      "outputs": [
        {
          "internalType": "bytes32",
          "name": "",
          "type": "bytes32"
        }
      ],
      "stateMutability": "view",
      "type": "function"
    },
    {
      "inputs": [],
      "name": "renounceOwnership",
      "outputs": [],
      "stateMutability": "nonpayable",
      "type": "function"
    },
    {
      "inputs": [
        {
          "internalType": "enum Roles.Role",
          "name": "role",
          "type": "uint8"
        }
      ],
      "name": "roleToken",
      "outputs": [
        {
          "internalType": "uint256",
          "name": "id",
          "type": "uint256"
        }
      ],
      "stateMutability": "view",
      "type": "function"
    },
    {
      "inputs": [
        {
          "internalType": "enum Roles.Role",
          "name": "role",
          "type": "uint8"
        },
        {
          "internalType": "uint256",
          "name": "index",
          "type": "uint256"
        }
      ],
      "name": "roleToken",
      "outputs": [
        {
          "internalType": "uint256",
          "name": "id",
          "type": "uint256"
        }
      ],
      "stateMutability": "view",
      "type": "function"
    },
    {
      "inputs": [
        {
          "internalType": "address",
          "name": "from",
          "type": "address"
        },
        {
          "internalType": "address",
          "name": "to",
          "type": "address"
        },
        {
          "internalType": "uint256[]",
          "name": "ids",
          "type": "uint256[]"
        },
        {
          "internalType": "uint256[]",
          "name": "amounts",
          "type": "uint256[]"
        },
        {
          "internalType": "bytes",
          "name": "data",
          "type": "bytes"
        }
      ],
      "name": "safeBatchTransferFrom",
      "outputs": [],
      "stateMutability": "nonpayable",
      "type": "function"
    },
    {
      "inputs": [
        {
          "internalType": "address",
          "name": "from",
          "type": "address"
        },
        {
          "internalType": "address",
          "name": "to",
          "type": "address"
        },
        {
          "internalType": "uint256",
          "name": "id",
          "type": "uint256"
        },
        {
          "internalType": "uint256",
          "name": "amount",
          "type": "uint256"
        },
        {
          "internalType": "bytes",
          "name": "data",
          "type": "bytes"
        }
      ],
      "name": "safeTransferFrom",
      "outputs": [],
      "stateMutability": "nonpayable",
      "type": "function"
    },
    {
      "inputs": [
        {
          "internalType": "address",
          "name": "operator",
          "type": "address"
        },
        {
          "internalType": "bool",
          "name": "approved",
          "type": "bool"
        }
      ],
      "name": "setApprovalForAll",
      "outputs": [],
      "stateMutability": "nonpayable",
      "type": "function"
    },
    {
      "inputs": [
        {
          "internalType": "string",
          "name": "_name",
          "type": "string"
        },
        {
          "internalType": "string",
          "name": "_symbol",
          "type": "string"
        }
      ],
      "name": "setDescription",
      "outputs": [],
      "stateMutability": "nonpayable",
      "type": "function"
    },
    {
      "inputs": [
        {
          "internalType": "uint256",
          "name": "id",
          "type": "uint256"
        },
        {
          "internalType": "int64",
          "name": "max",
          "type": "int64"
        }
      ],
      "name": "setMax",
      "outputs": [],
      "stateMutability": "nonpayable",
      "type": "function"
    },
    {
      "inputs": [
        {
          "internalType": "uint256",
          "name": "id",
          "type": "uint256"
        },
        {
          "internalType": "int64",
          "name": "max",
          "type": "int64"
        }
      ],
      "name": "setPerUserMax",
      "outputs": [],
      "stateMutability": "nonpayable",
      "type": "function"
    },
    {
      "inputs": [
        {
          "internalType": "uint256",
          "name": "id",
          "type": "uint256"
        },
        {
          "internalType": "string",
          "name": "newURI",
          "type": "string"
        }
      ],
      "name": "setURI",
      "outputs": [],
      "stateMutability": "nonpayable",
      "type": "function"
    },
    {
      "inputs": [
        {
          "internalType": "bytes4",
          "name": "interfaceId",
          "type": "bytes4"
        }
      ],
      "name": "supportsInterface",
      "outputs": [
        {
          "internalType": "bool",
          "name": "",
          "type": "bool"
        }
      ],
      "stateMutability": "view",
      "type": "function"
    },
    {
      "inputs": [],
      "name": "symbol",
      "outputs": [
        {
          "internalType": "string",
          "name": "",
          "type": "string"
        }
      ],
      "stateMutability": "view",
      "type": "function"
    },
    {
      "inputs": [
        {
          "internalType": "uint256",
          "name": "index",
          "type": "uint256"
        }
      ],
      "name": "tokenByIndex",
      "outputs": [
        {
          "internalType": "uint256",
          "name": "id",
          "type": "uint256"
        }
      ],
      "stateMutability": "view",
      "type": "function"
    },
    {
      "inputs": [
        {
          "internalType": "uint256",
          "name": "id",
          "type": "uint256"
        }
      ],
      "name": "tokenIndex",
      "outputs": [
        {
          "internalType": "uint256",
          "name": "index",
          "type": "uint256"
        }
      ],
      "stateMutability": "view",
      "type": "function"
    },
    {
      "inputs": [
        {
          "internalType": "address",
          "name": "owner",
          "type": "address"
        },
        {
          "internalType": "uint256",
          "name": "index",
          "type": "uint256"
        }
      ],
      "name": "tokenOfOwnerByIndex",
      "outputs": [
        {
          "internalType": "uint256",
          "name": "id",
          "type": "uint256"
        }
      ],
      "stateMutability": "view",
      "type": "function"
    },
    {
      "inputs": [
        {
          "internalType": "uint256",
          "name": "id",
          "type": "uint256"
        }
      ],
      "name": "totalSupply",
      "outputs": [
        {
          "internalType": "uint256",
          "name": "",
          "type": "uint256"
        }
      ],
      "stateMutability": "view",
      "type": "function"
    },
    {
      "inputs": [
        {
          "internalType": "address",
          "name": "newOwner",
          "type": "address"
        }
      ],
      "name": "transferOwnership",
      "outputs": [],
      "stateMutability": "nonpayable",
      "type": "function"
    },
    {
      "inputs": [],
      "name": "typeSupply",
      "outputs": [
        {
          "internalType": "uint256",
          "name": "count",
          "type": "uint256"
        }
      ],
      "stateMutability": "view",
      "type": "function"
    },
    {
      "inputs": [
        {
          "internalType": "uint256",
          "name": "",
          "type": "uint256"
        }
      ],
      "name": "uintValues",
      "outputs": [
        {
          "internalType": "uint256",
          "name": "",
          "type": "uint256"
        }
      ],
      "stateMutability": "view",
      "type": "function"
    },
    {
      "inputs": [
        {
          "internalType": "address",
          "name": "newImplementation",
          "type": "address"
        }
      ],
      "name": "upgradeTo",
      "outputs": [],
      "stateMutability": "nonpayable",
      "type": "function"
    },
    {
      "inputs": [
        {
          "internalType": "address",
          "name": "newImplementation",
          "type": "address"
        },
        {
          "internalType": "bytes",
          "name": "data",
          "type": "bytes"
        }
      ],
      "name": "upgradeToAndCall",
      "outputs": [],
      "stateMutability": "payable",
      "type": "function"
    },
    {
      "inputs": [
        {
          "internalType": "uint256",
          "name": "id",
          "type": "uint256"
        }
      ],
      "name": "uri",
      "outputs": [
        {
          "internalType": "string",
          "name": "metadata",
          "type": "string"
        }
      ],
      "stateMutability": "view",
      "type": "function"
    }
  ],
  "bytecode": "0x60a06040523060601b6080523480156200001857600080fd5b50600054610100900460ff16158080156200003a5750600054600160ff909116105b806200006a575062000057306200014460201b62002b191760201c565b1580156200006a575060005460ff166001145b620000d25760405162461bcd60e51b815260206004820152602e60248201527f496e697469616c697a61626c653a20636f6e747261637420697320616c72656160448201526d191e481a5b9a5d1a585b1a5e995960921b606482015260840160405180910390fd5b6000805460ff191660011790558015620000f6576000805461ff0019166101001790555b80156200013d576000805461ff0019169055604051600181527f7f26b83ff96e1f2b6a682f133852f6798a09c465da95921460cefb38474024989060200160405180910390a15b5062000153565b6001600160a01b03163b151590565b60805160601c615ea96200018e60003960008181611366015281816113a6015281816118ea0152818161192a0152611a710152615ea96000f3fe6080604052600436106102645760003560e01c8062fdd58e1461026957806301ffc9a71461029c5780630583e9f8146102cc57806306fdde03146102ec5780630e89341c1461030e5780630ec0370f1461032e57806311ef04c41461035057806314c464271461037057806316730ab01461039057806319e0755c146103b05780632eb2c2d6146103d05780632f745c59146103f05780633659cfe6146104105780633dbe35de146104305780634468031f1461045057806348289589146104705780634a80070f146104905780634cd88b76146104b05780634e1273f4146104d05780634f1ef286146104fd5780634f558e79146105105780634f6ccce71461053057806352d1902d14610550578063573b9d31146105655780635d5664e1146105855780636755d456146105a55780636b20c454146105c55780636fc0020b146105e5578063715018a614610605578063731133e91461061a578063778f5a7b1461063a5780637b59c72a14610667578063814c245014610687578063862440e2146106a75780638da5cb5b146106c757806395d89b41146106f45780639d969a9c146107095780639e97b8f61461071e578063a22cb4651461073e578063aa8e90661461075e578063b0bdf2611461077e578063b383489a1461079e578063bd85b039146107cc578063c3c8df99146107ec578063d945e78b1461080c578063dabc69871461083a578063e688f89d1461087e578063e985e9c51461089e578063edc79bac146108e7578063efc81a8c146108fc578063f242432a14610911578063f2fde38b14610931578063f5298aca14610951578063fde4047a14610971575b600080fd5b34801561027557600080fd5b50610289610284366004615021565b610991565b6040519081526020015b60405180910390f35b3480156102a857600080fd5b506102bc6102b73660046151fd565b610a2c565b6040519015158152602001610293565b3480156102d857600080fd5b506102896102e73660046153fb565b610a7c565b3480156102f857600080fd5b50610301610aea565b60405161029391906156d2565b34801561031a57600080fd5b506103016103293660046153fb565b610b79565b34801561033a57600080fd5b5061034e610349366004615130565b610dec565b005b34801561035c57600080fd5b5061034e61036b366004615413565b610e43565b34801561037c57600080fd5b5061028961038b366004615235565b610e53565b34801561039c57600080fd5b506102896103ab3660046152ac565b610e60565b3480156103bc57600080fd5b506102bc6103cb366004615235565b61127f565b3480156103dc57600080fd5b5061034e6103eb366004614dd0565b61128b565b3480156103fc57600080fd5b5061028961040b366004615021565b6112d7565b34801561041c57600080fd5b5061034e61042b366004614d84565b61135b565b34801561043c57600080fd5b5061028961044b366004615333565b611424565b34801561045c57600080fd5b506102bc61046b3660046152ac565b61159f565b34801561047c57600080fd5b506102bc61048b366004615333565b6115c6565b34801561049c57600080fd5b506102896104ab36600461518f565b6115d3565b3480156104bc57600080fd5b5061034e6104cb36600461534e565b6115e0565b3480156104dc57600080fd5b506104f06104eb3660046150da565b61177e565b6040516102939190615643565b61034e61050b366004614fd6565b6118df565b34801561051c57600080fd5b506102bc61052b3660046153fb565b611995565b34801561053c57600080fd5b5061028961054b3660046153fb565b6119a8565b34801561055c57600080fd5b50610289611a64565b34801561057157600080fd5b5061034e6105803660046152e7565b611b13565b34801561059157600080fd5b5061034e6105a036600461524f565b611b37565b3480156105b157600080fd5b5061034e6105c036600461534e565b611b44565b3480156105d157600080fd5b5061034e6105e0366004614f47565b611b67565b3480156105f157600080fd5b506103016106003660046153fb565b611baf565b34801561061157600080fd5b5061034e611bcf565b34801561062657600080fd5b506102bc61063536600461507c565b611be3565b34801561064657600080fd5b5061065a6106553660046153b6565b611deb565b604051610293919061567b565b34801561067357600080fd5b5061034e61068236600461526a565b612133565b34801561069357600080fd5b506103016106a2366004615235565b612140565b3480156106b357600080fd5b5061034e6106c2366004615447565b61250f565b3480156106d357600080fd5b506106dc6125eb565b6040516001600160a01b039091168152602001610293565b34801561070057600080fd5b506103016125fa565b34801561071557600080fd5b50610289612608565b34801561072a57600080fd5b506102bc61073936600461524f565b612620565b34801561074a57600080fd5b5061034e610759366004614fad565b61262e565b34801561076a57600080fd5b5061034e6107793660046152ac565b612639565b34801561078a57600080fd5b50610289610799366004614ed7565b612646565b3480156107aa57600080fd5b506102896107b93660046153fb565b6101a36020526000908152604090205481565b3480156107d857600080fd5b506102896107e73660046153fb565b6128a6565b3480156107f857600080fd5b506102bc610807366004614d84565b6128b8565b34801561081857600080fd5b506102896108273660046153fb565b6101a46020526000908152604090205481565b34801561084657600080fd5b5061086b6108553660046153fb565b6101a26020526000908152604090205460070b81565b60405160079190910b8152602001610293565b34801561088a57600080fd5b5061086b6108993660046153fb565b6128ed565b3480156108aa57600080fd5b506102bc6108b9366004614d9e565b6001600160a01b03918216600090815260666020908152604080832093909416825291909152205460ff1690565b3480156108f357600080fd5b506102bc61292e565b34801561090857600080fd5b50610289612939565b34801561091d57600080fd5b5061034e61092c366004614e75565b61295a565b34801561093d57600080fd5b5061034e61094c366004614d84565b61299f565b34801561095d57600080fd5b5061034e61096c36600461504a565b612a15565b34801561097d57600080fd5b5061034e61098c366004615333565b612a9f565b60006001600160a01b038316610a015760405162461bcd60e51b815260206004820152602a60248201527f455243313135353a2061646472657373207a65726f206973206e6f742061207660448201526930b634b21037bbb732b960b11b60648201526084015b60405180910390fd5b5060008181526065602090815260408083206001600160a01b03861684529091529020545b92915050565b60006001600160e01b03198216636cdb3d1360e11b1480610a5d57506001600160e01b031982166303a24d0760e21b145b80610a2657506301ffc9a760e01b6001600160e01b0319831614610a26565b6000818152610195602052604090205480610ae55760405162461bcd60e51b815260206004820152602360248201527f5468652072657175657374656420746f6b656e20646f6573206e6f742065786960448201526239ba1760e91b60648201526084016109f8565b919050565b6101918054610af890615bfe565b80601f0160208091040260200160405190810160405280929190818152602001828054610b2490615bfe565b8015610b715780601f10610b4657610100808354040283529160200191610b71565b820191906000526020600020905b815481529060010190602001808311610b5457829003601f168201915b505050505081565b600081815261019360205260409020805460609190610b9790615bfe565b80601f0160208091040260200160405190810160405280929190818152602001828054610bc390615bfe565b8015610c105780601f10610be557610100808354040283529160200191610c10565b820191906000526020600020905b815481529060010190602001808311610bf357829003601f168201915b50505050509050805160001415610ae5576008610c30600d610100615b75565b610c3a9190615baf565b600160ff919091161b6008610c52600d610100615b75565b610c5c9190615baf565b60ff166001610c6d60086002615aca565b610c779190615b98565b901b83161415610ae5576000600160088160038083610c99600d610100615b75565b610ca39190615baf565b610cad9190615baf565b610cb79190615baf565b610cc19190615baf565b610ccb9190615baf565b610cd59190615baf565b60ff166001610ce5816002615aca565b610cef9190615b98565b901b6003806008610d03600d610100615b75565b610d0d9190615baf565b610d179190615baf565b610d219190615baf565b60ff166001901b1719600160206002610d3a9190615aca565b610d449190615b98565b19841616600081815261019360205260409020805491925090610d6690615bfe565b80601f0160208091040260200160405190810160405280929190818152602001828054610d9290615bfe565b8015610ddf5780601f10610db457610100808354040283529160200191610ddf565b820191906000526020600020905b815481529060010190602001808311610dc257829003601f168201915b5050505050915050919050565b60005b8351811015610e3d57610e2c848281518110610e1b57634e487b7160e01b600052603260045260246000fd5b602002602001015184600185611be3565b50610e3681615c65565b9050610def565b50505050565b610e4f82826000612b28565b5050565b6000610a26826000611424565b600080610e6c85610e53565b9050600061019581856008610e84600d610100615b75565b610e8e9190615baf565b60ff16600a901b851717815260200190815260200160002054905080600014610ee857610194805482908110610ed457634e487b7160e01b600052603260045260246000fd5b906000526020600020015492505050611278565b6000604051806101000160405280866001600860016003806008600d60ff16610100610f149190615b75565b610f1e9190615baf565b610f289190615baf565b610f329190615baf565b610f3c9190615baf565b610f469190615baf565b610f509190615baf565b60ff166001610f60816002615aca565b610f6a9190615b98565b901b6003806008610f7e600d610100615b75565b610f889190615baf565b610f929190615baf565b610f9c9190615baf565b600160ff919091161b871717178152602001866003806008610fc1600d610100615b75565b610fcb9190615baf565b610fd59190615baf565b610fdf9190615baf565b60ff166001901b86171781526020016001600860016003806008600d60ff1661010061100b9190615b75565b6110159190615baf565b61101f9190615baf565b6110299190615baf565b6110339190615baf565b61103d9190615baf565b6110479190615baf565b60ff166001611057816002615aca565b6110619190615b98565b901b6003806008611075600d610100615b75565b61107f9190615baf565b6110899190615baf565b6110939190615baf565b600160ff919091161b861717815260200160038060086110b6600d610100615b75565b6110c09190615baf565b6110ca9190615baf565b6110d49190615baf565b60ff166001901b85178152602001866001600860016003806008600d60ff166101006111009190615b75565b61110a9190615baf565b6111149190615baf565b61111e9190615baf565b6111289190615baf565b6111329190615baf565b61113c9190615baf565b60ff16600161114c816002615aca565b6111569190615b98565b901b8617178152602001600160088160038083611176600d610100615b75565b6111809190615baf565b61118a9190615baf565b6111949190615baf565b61119e9190615baf565b6111a89190615baf565b6111b29190615baf565b60ff1660016111c2816002615aca565b6111cc9190615b98565b901b851781528685176020820152604001849052905060005b60088160ff16101561126f57600061122488848460ff166008811061121a57634e487b7160e01b600052603260045260246000fd5b6020020151610991565b111561125d57818160ff166008811061124d57634e487b7160e01b600052603260045260246000fd5b6020020151945050505050611278565b8061126781615c80565b9150506111e5565b50600093505050505b9392505050565b6000610a268233612620565b6001600160a01b0385163314806112a757506112a785336108b9565b6112c35760405162461bcd60e51b81526004016109f8906156e5565b6112d08585858585612bf2565b5050505050565b6001600160a01b03821660009081526101966020526040812054821061130f5760405162461bcd60e51b81526004016109f890615906565b6001600160a01b03831660009081526101966020526040902080548390811061134857634e487b7160e01b600052603260045260246000fd5b9060005260206000200154905092915050565b306001600160a01b037f00000000000000000000000000000000000000000000000000000000000000001614156113a45760405162461bcd60e51b81526004016109f8906157c0565b7f00000000000000000000000000000000000000000000000000000000000000006001600160a01b03166113d6612da9565b6001600160a01b0316146113fc5760405162461bcd60e51b81526004016109f8906157fa565b61140581612dc5565b6040805160008082526020820190925261142191839190612e4b565b50565b600061143260206002615aca565b82106114805760405162461bcd60e51b815260206004820152601f60248201527f496e64696365732063616e206265206174206d6f737420333220426974732e0060448201526064016109f8565b81600184600c8111156114a357634e487b7160e01b600052602160045260246000fd5b146114af576000611508565b600160038060086114c3600d610100615b75565b6114cd9190615baf565b6114d79190615baf565b6114e19190615baf565b6114eb9190615baf565b60ff1660016114fb816002615aca565b6115059190615b98565b901b5b600860016003808361151d600d610100615b75565b6115279190615baf565b6115319190615baf565b61153b9190615baf565b6115459190615baf565b61154f9190615baf565b60ff1685600c81111561157257634e487b7160e01b600052602160045260246000fd5b901b6008611583600d610100615b75565b61158d9190615baf565b60ff166001901b171717905092915050565b600081815261019560205260408120546115bc9085908590610e60565b1515949350505050565b600061127883338461159f565b6000611278338484612646565b600054610100900460ff16158080156116005750600054600160ff909116105b80611621575061160f30612b19565b158015611621575060005460ff166001145b6116845760405162461bcd60e51b815260206004820152602e60248201527f496e697469616c697a61626c653a20636f6e747261637420697320616c72656160448201526d191e481a5b9a5d1a585b1a5e995960921b60648201526084016109f8565b6000805460ff1916600117905580156116a7576000805461ff0019166101001790555b6116af612fc5565b6116ed6040518060400160405280602081526020017f4572726f723a2053696e676c6520546f6b656e20555249204e6f742055736564815250612ff4565b6116f5613024565b6116fd613024565b611705613024565b61019480546001810182556000918252600080516020615ded833981519152015561173285858585611b44565b80156112d0576000805461ff0019169055604051600181527f7f26b83ff96e1f2b6a682f133852f6798a09c465da95921460cefb38474024989060200160405180910390a15050505050565b606081518351146117e35760405162461bcd60e51b815260206004820152602960248201527f455243313135353a206163636f756e747320616e6420696473206c656e677468604482015268040dad2e6dac2e8c6d60bb1b60648201526084016109f8565b600083516001600160401b0381111561180c57634e487b7160e01b600052604160045260246000fd5b604051908082528060200260200182016040528015611835578160200160208202803683370190505b50905060005b84518110156118d75761189c85828151811061186757634e487b7160e01b600052603260045260246000fd5b602002602001015185838151811061188f57634e487b7160e01b600052603260045260246000fd5b6020026020010151610991565b8282815181106118bc57634e487b7160e01b600052603260045260246000fd5b60209081029190910101526118d081615c65565b905061183b565b509392505050565b306001600160a01b037f00000000000000000000000000000000000000000000000000000000000000001614156119285760405162461bcd60e51b81526004016109f8906157c0565b7f00000000000000000000000000000000000000000000000000000000000000006001600160a01b031661195a612da9565b6001600160a01b0316146119805760405162461bcd60e51b81526004016109f8906157fa565b61198982612dc5565b610e4f82826001612e4b565b6000806119a1836128a6565b1192915050565b6000808211611a0c5760405162461bcd60e51b815260206004820152602a60248201527f4552432d3131353520456e756d657261626c653a20746f6b656e7320696e64656044820152697865642066726f6d203160b01b60648201526084016109f8565b61019454821115611a2f5760405162461bcd60e51b81526004016109f890615906565b610194805483908110611a5257634e487b7160e01b600052603260045260246000fd5b90600052602060002001549050919050565b6000306001600160a01b037f00000000000000000000000000000000000000000000000000000000000000001614611aff5760405162461bcd60e51b815260206004820152603860248201527f555550535570677261646561626c653a206d757374206e6f742062652063616c6044820152771b1959081d1a1c9bdd59da0819195b1959d85d1958d85b1b60421b60648201526084016109f8565b50600080516020615e2d8339815191525b90565b610e3d84848415611b2c57611b2785610a7c565b611b2f565b60005b84600061304b565b610e4f8282600080611b13565b611b4c613277565b611b596101918585614a2f565b506112d06101928383614a2f565b6001600160a01b038316331480611b835750611b8383336108b9565b611b9f5760405162461bcd60e51b81526004016109f8906156e5565b611baa8383836132d6565b505050565b61019781600b8110611bc057600080fd5b018054909150610af890615bfe565b611bd7613277565b611be1600061347f565b565b6000600160088160038083611bfb600d610100615b75565b611c059190615baf565b611c0f9190615baf565b611c199190615baf565b611c239190615baf565b611c2d9190615baf565b611c379190615baf565b60ff166001611c47816002615aca565b611c519190615b98565b901b600160088160038083611c69600d610100615b75565b611c739190615baf565b611c7d9190615baf565b611c879190615baf565b611c919190615baf565b611c9b9190615baf565b611ca59190615baf565b60ff166001611cb5816002615aca565b611cbf9190615b98565b901b85161415611d235760405162461bcd60e51b815260206004820152602960248201527f43616e6e6f74206d696e7420696e7465726e616c20746f6b656e732066726f6d6044820152681037baba39b4b2329760b91b60648201526084016109f8565b60016003806008611d37600d610100615b75565b611d419190615baf565b611d4b9190615baf565b611d559190615baf565b611d5f9190615baf565b60ff166001901b60016003806008600d60ff16610100611d7f9190615b75565b611d899190615baf565b611d939190615baf565b611d9d9190615baf565b611da79190615baf565b60ff166001901b8516148015611dc657506000611dc48686610991565b115b15611dd357506000611de3565b611ddf858585856134d1565b5060015b949350505050565b60008082604051602001611dff91906154f6565b604051602081830303815290604052805190602001209050604051602001611e36906829bab832b93ab9b2b960b91b815260090190565b60405160208183030381529060405280519060200120811415611e5c5750600192915050565b6040516526b4b73a32b960d11b602082015260260160405160208183030381529060405280519060200120811415611e975750600292915050565b6040516521b0b9ba32b960d11b602082015260260160405160208183030381529060405280519060200120811415611ed25750600392915050565b604051692a3930b739b332b932b960b11b6020820152602a0160405160208183030381529060405280519060200120811415611f115750600492915050565b6040516921b7b73334b3bab932b960b11b6020820152602a0160405160208183030381529060405280519060200120811415611f505750600592915050565b6040516926b0b4b73a30b4b732b960b11b6020820152602a0160405160208183030381529060405280519060200120811415611f8f5750600692915050565b6040516621b932b0ba37b960c91b602082015260270160405160208183030381529060405280519060200120811415611fcb5750600792915050565b604051662634b6b4ba32b960c91b6020820152602701604051602081830303815290604052805190602001208114156120075750600892915050565b60405165213ab93732b960d11b6020820152602601604051602081830303815290604052805190602001208114156120425750600992915050565b604051682232b9ba3937bcb2b960b91b6020820152602901604051602081830303815290604052805190602001208114156120805750600a92915050565b604051654f7261636c6560d01b6020820152602601604051602081830303815290604052805190602001208114156120bb5750600b92915050565b6040516b14995cd95c9d995913185cdd60a21b6020820152602c01604051602081830303815290604052805190602001208114156120fc5750600c92915050565b8260405160200161210d9190615512565b60408051601f198184030181529082905262461bcd60e51b82526109f8916004016156d2565b611baa8383600084611b13565b6060600182600c81111561216457634e487b7160e01b600052602160045260246000fd5b141561218f57505060408051808201909152600981526829bab832b93ab9b2b960b91b602082015290565b600282600c8111156121b157634e487b7160e01b600052602160045260246000fd5b14156121d957505060408051808201909152600681526526b4b73a32b960d11b602082015290565b600382600c8111156121fb57634e487b7160e01b600052602160045260246000fd5b141561222357505060408051808201909152600681526521b0b9ba32b960d11b602082015290565b600482600c81111561224557634e487b7160e01b600052602160045260246000fd5b141561227157505060408051808201909152600a8152692a3930b739b332b932b960b11b602082015290565b600582600c81111561229357634e487b7160e01b600052602160045260246000fd5b14156122bf57505060408051808201909152600a81526921b7b73334b3bab932b960b11b602082015290565b600682600c8111156122e157634e487b7160e01b600052602160045260246000fd5b141561230d57505060408051808201909152600a81526926b0b4b73a30b4b732b960b11b602082015290565b600782600c81111561232f57634e487b7160e01b600052602160045260246000fd5b141561235857505060408051808201909152600781526621b932b0ba37b960c91b602082015290565b600882600c81111561237a57634e487b7160e01b600052602160045260246000fd5b14156123a35750506040805180820190915260078152662634b6b4ba32b960c91b602082015290565b600982600c8111156123c557634e487b7160e01b600052602160045260246000fd5b14156123ed575050604080518082019091526006815265213ab93732b960d11b602082015290565b600a82600c81111561240f57634e487b7160e01b600052602160045260246000fd5b141561243a5750506040805180820190915260098152682232b9ba3937bcb2b960b91b602082015290565b600b82600c81111561245c57634e487b7160e01b600052602160045260246000fd5b14156124845750506040805180820190915260068152654f7261636c6560d01b602082015290565b600c82600c8111156124a657634e487b7160e01b600052602160045260246000fd5b14156124d457505060408051808201909152600c81526b14995cd95c9d995913185cdd60a21b602082015290565b6124ff82600c8111156124f757634e487b7160e01b600052602160045260246000fd5b60ff166135e4565b60405160200161210d919061554d565b61251a6005846115c6565b80612528575061252861292e565b6125915760405162461bcd60e51b815260206004820152603460248201527f596f75206d7573742068617665206120436f6e6669677572657220746f6b656e604482015273103a379031b430b733b29036b2ba30b230ba309760611b60648201526084016109f8565b6000838152610193602052604090206125ab908383614a2f565b50827f6bb7ff708619ba0610cba295a58592e0451dee2622938c8755667688daf3529b83836040516125de9291906156a3565b60405180910390a2505050565b6097546001600160a01b031690565b6101928054610af890615bfe565b6101945460009061261b90600190615b98565b905090565b60006112788383600061159f565b610e4f3383836136fd565b611baa8383836000611b13565b6101945460009080600861265d600d610100615b75565b6126679190615baf565b60ff166009901b17915061267c6007836115c6565b8061268a575061268a61292e565b6126f25760405162461bcd60e51b815260206004820152603360248201527f596f75206d757374206861766520612043726561746f7220746f6b656e20746f6044820152721031b932b0ba32903732bb903a37b5b2b7399760691b60648201526084016109f8565b610194805460018101909155600080516020615ded833981519152018290556000828152610195602052604081208290555b84518110156127755761276385828151811061275057634e487b7160e01b600052603260045260246000fd5b602002602001015187846000600161304b565b8061276d81615c65565b915050612724565b5060005b83518110156127c5576127b38482815181106127a557634e487b7160e01b600052603260045260246000fd5b602002602001015183612a9f565b806127bd81615c65565b915050612779565b50604080518381526001600160a01b03871660208201527f7757890bcab34d673dfca6b71df1b57f75a2fe4231d6e8de726caf534ab1fdd6910160405180910390a160006128166007336000610e60565b9050600380600861282a600d610100615b75565b6128349190615baf565b61283e9190615baf565b6128489190615baf565b600160ff919091161b6003806008612863600d610100615b75565b61286d9190615baf565b6128779190615baf565b6128819190615baf565b60ff166001901b8216141561289d5761289d335b8260016137de565b50509392505050565b600090815260fb602052604090205490565b60006128c5600183612620565b80610a2657506128d36125eb565b6001600160a01b0316826001600160a01b03161492915050565b600080826040516020016129019190615589565b60408051601f19818403018152918152815160209283012060009081526101a49092529020549392505050565b600061261b336128b8565b60408051600080825260208201909252612954338283612646565b91505090565b6001600160a01b038516331480612976575061297685336108b9565b6129925760405162461bcd60e51b81526004016109f8906156e5565b6112d085858585856138e8565b6129a7613277565b6001600160a01b038116612a0c5760405162461bcd60e51b815260206004820152602660248201527f4f776e61626c653a206e6577206f776e657220697320746865207a65726f206160448201526564647265737360d01b60648201526084016109f8565b6114218161347f565b612a216009848461159f565b80612a305750612a30836128b8565b612a945760405162461bcd60e51b815260206004820152602f60248201527f596f75206d75737420686176652061204275726e657220746f6b656e20746f2060448201526e3232b9ba3937bc903a37b5b2b7399760891b60648201526084016109f8565b611baa8383836137de565b60008181526101956020526040812054612aba908490611424565b90506008612acb600d610100615b75565b612ad59190615baf565b610194805460018101909155600a60ff929092169190911b91909117600080516020615ded8339815191528201819055600090815261019560205260409020555050565b6001600160a01b03163b151590565b80612bac57612b386008846115c6565b80612b465750612b4661292e565b612bac5760405162461bcd60e51b815260206004820152603160248201527f596f75206d75737420686176652061204c696d6974657220746f6b656e20746f6044820152701031b430b733b29038bab0b73a34ba3c9760791b60648201526084016109f8565b600083604051602001612bbf9190615589565b60408051601f19818403018152918152815160209283012060009081526101a4909252902060079390930b909255505050565b8151835114612c135760405162461bcd60e51b81526004016109f89061599f565b6001600160a01b038416612c395760405162461bcd60e51b81526004016109f890615834565b33612c48818787878787613a12565b60005b8451811015612d4d576000858281518110612c7657634e487b7160e01b600052603260045260246000fd5b602002602001015190506000858381518110612ca257634e487b7160e01b600052603260045260246000fd5b60209081029190910181015160008481526065835260408082206001600160a01b038e168352909352919091205490915081811015612cf35760405162461bcd60e51b81526004016109f8906158bc565b60008381526065602090815260408083206001600160a01b038e8116855292528083208585039055908b16825281208054849290612d32908490615a5b565b9250508190555050505080612d4690615c65565b9050612c4b565b50846001600160a01b0316866001600160a01b0316826001600160a01b0316600080516020615dad8339815191528787604051612d8b929190615656565b60405180910390a4612da1818787878787614345565b505050505050565b600080516020615e2d833981519152546001600160a01b031690565b612dcf600661127f565b80612ddd5750612ddd61292e565b6114215760405162461bcd60e51b815260206004820152603960248201527f596f75206d75737420686176652061204d61696e7461696e657220746f6b656e604482015278103a37903ab833b930b232903a34329031b7b73a3930b1ba1760391b60648201526084016109f8565b7f4910fdfa16fed3260ed0e7147f7cc6da11a60208b5b9406d12a635614ffd91435460ff1615612e7e57611baa836144b7565b826001600160a01b03166352d1902d6040518163ffffffff1660e01b815260040160206040518083038186803b158015612eb757600080fd5b505afa925050508015612ee7575060408051601f3d908101601f19168201909252612ee4918101906151e5565b60015b612f4a5760405162461bcd60e51b815260206004820152602e60248201527f45524331393637557067726164653a206e657720696d706c656d656e7461746960448201526d6f6e206973206e6f74205555505360901b60648201526084016109f8565b600080516020615e2d8339815191528114612fb95760405162461bcd60e51b815260206004820152602960248201527f45524331393637557067726164653a20756e737570706f727465642070726f786044820152681a58589b195555525160ba1b60648201526084016109f8565b50611baa838383614551565b600054610100900460ff16612fec5760405162461bcd60e51b81526004016109f890615954565b611be1614576565b600054610100900460ff1661301b5760405162461bcd60e51b81526004016109f890615954565b611421816145a6565b600054610100900460ff16611be15760405162461bcd60e51b81526004016109f890615954565b8061316d57600185600c81111561307257634e487b7160e01b600052602160045260246000fd5b14156130ed5761308061292e565b6130e85760405162461bcd60e51b815260206004820152603360248201527f596f75206d75737420626520612053757065727573657220746f206372656174604482015272329037ba3432b91029bab832b93ab9b2b9399760691b60648201526084016109f8565b61316d565b6130f86003846115c6565b80613106575061310661292e565b61316d5760405162461bcd60e51b815260206004820152603260248201527f596f75206d7573742068617665207468652043617374657220726f6c6520746f6044820152711030b9b9b4b3b7103732bb903937b632b99760711b60648201526084016109f8565b60008261317b5760006131b3565b600380600861318d600d610100615b75565b6131979190615baf565b6131a19190615baf565b6131ab9190615baf565b60ff166001901b5b826131bf57600061322e565b6001600881600380836131d5600d610100615b75565b6131df9190615baf565b6131e99190615baf565b6131f39190615baf565b6131fd9190615baf565b6132079190615baf565b6132119190615baf565b60ff166001613221816002615aca565b61322b9190615b98565b901b5b6132388887611424565b1717905061325b81613249836128ed565b613254906001615a0a565b6001612b28565b612da185826001604051806020016040528060008152506134d1565b336132806125eb565b6001600160a01b031614611be15760405162461bcd60e51b815260206004820181905260248201527f4f776e61626c653a2063616c6c6572206973206e6f7420746865206f776e657260448201526064016109f8565b6001600160a01b0383166132fc5760405162461bcd60e51b81526004016109f890615879565b805182511461331d5760405162461bcd60e51b81526004016109f89061599f565b600033905061334081856000868660405180602001604052806000815250613a12565b60005b835181101561342457600084828151811061336e57634e487b7160e01b600052603260045260246000fd5b60200260200101519050600084838151811061339a57634e487b7160e01b600052603260045260246000fd5b60209081029190910181015160008481526065835260408082206001600160a01b038c1683529093529190912054909150818110156133eb5760405162461bcd60e51b81526004016109f89061577c565b60009283526065602090815260408085206001600160a01b038b168652909152909220910390558061341c81615c65565b915050613343565b5060006001600160a01b0316846001600160a01b0316826001600160a01b0316600080516020615dad8339815191528686604051613463929190615656565b60405180910390a4604080516020810190915260009052610e3d565b609780546001600160a01b038381166001600160a01b0319831681179093556040519116919082907f8be0079c531659141344cd1fd0a4f28419497f9722a3daafe3b4186f6b6457e090600090a35050565b6001600160a01b0384166135315760405162461bcd60e51b815260206004820152602160248201527f455243313135353a206d696e7420746f20746865207a65726f206164647265736044820152607360f81b60648201526084016109f8565b33600061353d856145d6565b9050600061354a856145d6565b905061355b83600089858589613a12565b60008681526065602090815260408083206001600160a01b038b1684529091528120805487929061358d908490615a5b565b909155505060408051878152602081018790526001600160a01b03808a169260009291871691600080516020615dcd833981519152910160405180910390a46135db8360008989898961462f565b50505050505050565b6060816136085750506040805180820190915260018152600360fc1b602082015290565b8160005b8115613632578061361c81615c65565b915061362b9050600a83615a73565b915061360c565b6000816001600160401b0381111561365a57634e487b7160e01b600052604160045260246000fd5b6040519080825280601f01601f191660200182016040528015613684576020820181803683370190505b5090505b8415611de357613699600183615b98565b91506136a6600a86615ca0565b6136b1906030615a5b565b60f81b8183815181106136d457634e487b7160e01b600052603260045260246000fd5b60200101906001600160f81b031916908160001a9053506136f6600a86615a73565b9450613688565b816001600160a01b0316836001600160a01b031614156137715760405162461bcd60e51b815260206004820152602960248201527f455243313135353a2073657474696e6720617070726f76616c20737461747573604482015268103337b91039b2b63360b91b60648201526084016109f8565b6001600160a01b03838116600081815260666020908152604080832094871680845294825291829020805460ff191686151590811790915591519182527f17307eab39ab6107e8899845ad3d59bd9653f200f220920489ca2b5937696c31910160405180910390a3505050565b6001600160a01b0383166138045760405162461bcd60e51b81526004016109f890615879565b336000613810846145d6565b9050600061381d846145d6565b905061383d83876000858560405180602001604052806000815250613a12565b60008581526065602090815260408083206001600160a01b038a168452909152902054848110156138805760405162461bcd60e51b81526004016109f89061577c565b60008681526065602090815260408083206001600160a01b038b81168086529184528285208a8703905582518b81529384018a9052909290881691600080516020615dcd833981519152910160405180910390a46040805160208101909152600090526135db565b6001600160a01b03841661390e5760405162461bcd60e51b81526004016109f890615834565b33600061391a856145d6565b90506000613927856145d6565b9050613937838989858589613a12565b60008681526065602090815260408083206001600160a01b038c1684529091529020548581101561397a5760405162461bcd60e51b81526004016109f8906158bc565b60008781526065602090815260408083206001600160a01b038d8116855292528083208985039055908a168252812080548892906139b9908490615a5b565b909155505060408051888152602081018890526001600160a01b03808b16928c82169291881691600080516020615dcd833981519152910160405180910390a4613a07848a8a8a8a8a61462f565b505050505050505050565b613a1a61292e565b613f7d5760005b8351811015613f7b57600160088160038083613a40600d610100615b75565b613a4a9190615baf565b613a549190615baf565b613a5e9190615baf565b613a689190615baf565b613a729190615baf565b613a7c9190615baf565b60ff166001613a8c816002615aca565b613a969190615b98565b901b600160088160038083613aae600d610100615b75565b613ab89190615baf565b613ac29190615baf565b613acc9190615baf565b613ad69190615baf565b613ae09190615baf565b613aea9190615baf565b60ff166001613afa816002615aca565b613b049190615b98565b901b858381518110613b2657634e487b7160e01b600052603260045260246000fd5b60200260200101511614613f6b5760006001600160a01b03871615613b4c576004613b4f565b60025b9050600281600c811115613b7357634e487b7160e01b600052602160045260246000fd5b1415613ecd576000613bab868481518110613b9e57634e487b7160e01b600052603260045260246000fd5b60200260200101516128ed565b60070b12613c8957613bd6858381518110613b9e57634e487b7160e01b600052603260045260246000fd5b60070b848381518110613bf957634e487b7160e01b600052603260045260246000fd5b6020026020010151613c31878581518110613c2457634e487b7160e01b600052603260045260246000fd5b60200260200101516128a6565b613c3b9190615a5b565b1315613c895760405162461bcd60e51b815260206004820181905260248201527f4d6178696d756d206d696e7420616c6c6f77616e63652065786365656465642e60448201526064016109f8565b6008613c98600d610100615b75565b613ca29190615baf565b600160ff919091161b6008613cba600d610100615b75565b613cc49190615baf565b60ff166001613cd560086002615aca565b613cdf9190615b98565b901b868481518110613d0157634e487b7160e01b600052603260045260246000fd5b6020026020010151161415613dbb57613d426003868481518110613d3557634e487b7160e01b600052603260045260246000fd5b60200260200101516115c6565b80613d505750613d5061292e565b613db65760405162461bcd60e51b815260206004820152603160248201527f596f75206d757374206861766520612043617374657220746f6b656e20746f2060448201527036b4b73a103a37b5b2b71033b0ba32b99760791b60648201526084016109f8565b613f69565b6000613df282336103ab898781518110613de557634e487b7160e01b600052603260045260246000fd5b6020026020010151610a7c565b9050613e1882878581518110613d3557634e487b7160e01b600052603260045260246000fd5b613e7d5760405162461bcd60e51b815260206004820152603060248201527f596f75206d75737420686176652061204d696e74657220746f6b656e20746f2060448201526f33b2b732b930ba32903a37b5b2b7399760811b60648201526084016109f8565b60006003806008613e91600d610100615b75565b613e9b9190615baf565b613ea59190615baf565b613eaf9190615baf565b60ff166001901b82161115613ec757613ec733612895565b50613f69565b6001600160a01b03861615613f6957613f0081868481518110613d3557634e487b7160e01b600052603260045260246000fd5b613f695760405162461bcd60e51b815260206004820152603460248201527f596f75206d75737420686176652061205472616e73666572657220746f6b656e604482015273103a37903a3930b739b332b9103a37b5b2b7399760611b60648201526084016109f8565b505b613f7481615c65565b9050613a21565b505b6001600160a01b038416156141a35760005b83518110156141a1576101946001016000858381518110613fc057634e487b7160e01b600052603260045260246000fd5b60200260200101518152602001908152602001600020546000141561406c5761019460000184828151811061400557634e487b7160e01b600052603260045260246000fd5b602090810291909101810151825460018101845560009384529183209091015561019454855190916101959187908590811061405157634e487b7160e01b600052603260045260246000fd5b60200260200101518152602001908152602001600020819055505b6101966000866001600160a01b03166001600160a01b0316815260200190815260200160002060010160008583815181106140b757634e487b7160e01b600052603260045260246000fd5b602002602001015181526020019081526020016000205460001415614191576001600160a01b038516600090815261019660205260409020845185908390811061411157634e487b7160e01b600052603260045260246000fd5b6020908102919091018101518254600181810185556000948552838520909101919091556001600160a01b038816835261019690915260408220805487519093919092019187908590811061417657634e487b7160e01b600052603260045260246000fd5b60200260200101518152602001908152602001600020819055505b61419a81615c65565b9050613f8f565b505b6001600160a01b038516156143375760005b8351811015614335578281815181106141de57634e487b7160e01b600052603260045260246000fd5b602002602001015161420a8786848151811061188f57634e487b7160e01b600052603260045260246000fd5b11614325576001600160a01b0386166000908152610196602052604081208551600191820190839088908690811061425257634e487b7160e01b600052603260045260246000fd5b60200260200101518152602001908152602001600020546142739190615b98565b6001600160a01b038816600090815261019660205260409020805491925090829081106142b057634e487b7160e01b600052603260045260246000fd5b90600052602060002001600090556101966000886001600160a01b03166001600160a01b03168152602001908152602001600020600101600086848151811061430957634e487b7160e01b600052603260045260246000fd5b6020026020010151815260200190815260200160002060009055505b61432e81615c65565b90506141b5565b505b612da1868686868686614700565b614357846001600160a01b0316612b19565b15612da15760405163bc197c8160e01b81526001600160a01b0385169063bc197c819061439090899089908890889088906004016155a0565b602060405180830381600087803b1580156143aa57600080fd5b505af19250505080156143da575060408051601f3d908101601f191682019092526143d791810190615219565b60015b614487576143e6615cf6565b806308c379a0141561442057506143fb615d0d565b806144065750614422565b8060405162461bcd60e51b81526004016109f891906156d2565b505b60405162461bcd60e51b815260206004820152603460248201527f455243313135353a207472616e7366657220746f206e6f6e20455243313135356044820152732932b1b2b4bb32b91034b6b83632b6b2b73a32b960611b60648201526084016109f8565b6001600160e01b0319811663bc197c8160e01b146135db5760405162461bcd60e51b81526004016109f890615734565b6144c081612b19565b6145225760405162461bcd60e51b815260206004820152602d60248201527f455243313936373a206e657720696d706c656d656e746174696f6e206973206e60448201526c1bdd08184818dbdb9d1c9858dd609a1b60648201526084016109f8565b600080516020615e2d83398151915280546001600160a01b0319166001600160a01b0392909216919091179055565b61455a836148b1565b6000825111806145675750805b15611baa57610e3d83836148f1565b600054610100900460ff1661459d5760405162461bcd60e51b81526004016109f890615954565b611be13361347f565b600054610100900460ff166145cd5760405162461bcd60e51b81526004016109f890615954565b611421816149e3565b6040805160018082528183019092526060916000919060208083019080368337019050509050828160008151811061461e57634e487b7160e01b600052603260045260246000fd5b602090810291909101015292915050565b614641846001600160a01b0316612b19565b15612da15760405163f23a6e6160e01b81526001600160a01b0385169063f23a6e619061467a90899089908890889088906004016155fe565b602060405180830381600087803b15801561469457600080fd5b505af19250505080156146c4575060408051601f3d908101601f191682019092526146c191810190615219565b60015b6146d0576143e6615cf6565b6001600160e01b0319811663f23a6e6160e01b146135db5760405162461bcd60e51b81526004016109f890615734565b6001600160a01b0385166147a35760005b83518110156147a15782818151811061473a57634e487b7160e01b600052603260045260246000fd5b602002602001015160fb600086848151811061476657634e487b7160e01b600052603260045260246000fd5b60200260200101518152602001908152602001600020600082825461478b9190615a5b565b9091555061479a905081615c65565b9050614711565b505b6001600160a01b038416612da15760005b83518110156135db5760008482815181106147df57634e487b7160e01b600052603260045260246000fd5b60200260200101519050600084838151811061480b57634e487b7160e01b600052603260045260246000fd5b60200260200101519050600060fb60008481526020019081526020016000205490508181101561488e5760405162461bcd60e51b815260206004820152602860248201527f455243313135353a206275726e20616d6f756e74206578636565647320746f74604482015267616c537570706c7960c01b60648201526084016109f8565b600092835260fb6020526040909220910390556148aa81615c65565b90506147b4565b6148ba816144b7565b6040516001600160a01b038216907fbc7cd75a20ee27fd9adebab32041f755214dbc6bffa90cc0225b39da2e5c2d3b90600090a250565b60606148fc83612b19565b6149575760405162461bcd60e51b815260206004820152602660248201527f416464726573733a2064656c65676174652063616c6c20746f206e6f6e2d636f6044820152651b9d1c9858dd60d21b60648201526084016109f8565b600080846001600160a01b03168460405161497291906154f6565b600060405180830381855af49150503d80600081146149ad576040519150601f19603f3d011682016040523d82523d6000602084013e6149b2565b606091505b50915091506149da8282604051806060016040528060278152602001615e4d602791396149f6565b95945050505050565b8051610e4f906067906020840190614ab3565b60608315614a05575081611278565b825115614a155782518084602001fd5b8160405162461bcd60e51b81526004016109f891906156d2565b828054614a3b90615bfe565b90600052602060002090601f016020900481019282614a5d5760008555614aa3565b82601f10614a765782800160ff19823516178555614aa3565b82800160010185558215614aa3579182015b82811115614aa3578235825591602001919060010190614a88565b50614aaf929150614b27565b5090565b828054614abf90615bfe565b90600052602060002090601f016020900481019282614ae15760008555614aa3565b82601f10614afa57805160ff1916838001178555614aa3565b82800160010185558215614aa3579182015b82811115614aa3578251825591602001919060010190614b0c565b5b80821115614aaf5760008155600101614b28565b60006001600160401b03831115614b5557614b55615ce0565b604051614b6c601f8501601f191660200182615c39565b809150838152848484011115614b8157600080fd5b83836020830137600060208583010152509392505050565b80356001600160a01b0381168114610ae557600080fd5b600082601f830112614bc0578081fd5b81356020614bcd826159e7565b604051614bda8282615c39565b8381528281019150858301600585901b87018401881015614bf9578586fd5b855b85811015614c1e57614c0c82614b99565b84529284019290840190600101614bfb565b5090979650505050505050565b600082601f830112614c3b578081fd5b81356020614c48826159e7565b604051614c558282615c39565b8381528281019150858301600585901b87018401881015614c74578586fd5b855b85811015614c1e57614c8782614d2f565b84529284019290840190600101614c76565b600082601f830112614ca9578081fd5b81356020614cb6826159e7565b604051614cc38282615c39565b8381528281019150858301600585901b87018401881015614ce2578586fd5b855b85811015614c1e57813584529284019290840190600101614ce4565b80358015158114610ae557600080fd5b600082601f830112614d20578081fd5b61127883833560208501614b3c565b8035600d8110610ae557600080fd5b60008083601f840112614d4f578182fd5b5081356001600160401b03811115614d65578182fd5b602083019150836020828501011115614d7d57600080fd5b9250929050565b600060208284031215614d95578081fd5b61127882614b99565b60008060408385031215614db0578081fd5b614db983614b99565b9150614dc760208401614b99565b90509250929050565b600080600080600060a08688031215614de7578081fd5b614df086614b99565b9450614dfe60208701614b99565b935060408601356001600160401b0380821115614e19578283fd5b614e2589838a01614c99565b94506060880135915080821115614e3a578283fd5b614e4689838a01614c99565b93506080880135915080821115614e5b578283fd5b50614e6888828901614d10565b9150509295509295909350565b600080600080600060a08688031215614e8c578081fd5b614e9586614b99565b9450614ea360208701614b99565b9350604086013592506060860135915060808601356001600160401b03811115614ecb578182fd5b614e6888828901614d10565b600080600060608486031215614eeb578081fd5b614ef484614b99565b925060208401356001600160401b0380821115614f0f578283fd5b614f1b87838801614c2b565b93506040860135915080821115614f30578283fd5b50614f3d86828701614c2b565b9150509250925092565b600080600060608486031215614f5b578081fd5b614f6484614b99565b925060208401356001600160401b0380821115614f7f578283fd5b614f8b87838801614c99565b93506040860135915080821115614fa0578283fd5b50614f3d86828701614c99565b60008060408385031215614fbf578182fd5b614fc883614b99565b9150614dc760208401614d00565b60008060408385031215614fe8578182fd5b614ff183614b99565b915060208301356001600160401b0381111561500b578182fd5b61501785828601614d10565b9150509250929050565b60008060408385031215615033578182fd5b61503c83614b99565b946020939093013593505050565b60008060006060848603121561505e578081fd5b61506784614b99565b95602085013595506040909401359392505050565b60008060008060808587031215615091578182fd5b61509a85614b99565b9350602085013592506040850135915060608501356001600160401b038111156150c2578182fd5b6150ce87828801614d10565b91505092959194509250565b600080604083850312156150ec578182fd5b82356001600160401b0380821115615102578384fd5b61510e86838701614bb0565b93506020850135915080821115615123578283fd5b5061501785828601614c99565b600080600060608486031215615144578081fd5b83356001600160401b038082111561515a578283fd5b61516687838801614bb0565b9450602086013593506040860135915080821115615182578283fd5b50614f3d86828701614d10565b600080604083850312156151a1578182fd5b82356001600160401b03808211156151b7578384fd5b6151c386838701614c2b565b935060208501359150808211156151d8578283fd5b5061501785828601614c2b565b6000602082840312156151f6578081fd5b5051919050565b60006020828403121561520e578081fd5b813561127881615d96565b60006020828403121561522a578081fd5b815161127881615d96565b600060208284031215615246578081fd5b61127882614d2f565b60008060408385031215615261578182fd5b614db983614d2f565b60008060006060848603121561527e578081fd5b61528784614d2f565b925061529560208501614b99565b91506152a360408501614d00565b90509250925092565b6000806000606084860312156152c0578081fd5b6152c984614d2f565b92506152d760208501614b99565b9150604084013590509250925092565b600080600080608085870312156152fc578182fd5b61530585614d2f565b935061531360208601614b99565b92506040850135915061532860608601614d00565b905092959194509250565b60008060408385031215615345578182fd5b61503c83614d2f565b60008060008060408587031215615363578182fd5b84356001600160401b0380821115615379578384fd5b61538588838901614d3e565b9096509450602087013591508082111561539d578384fd5b506153aa87828801614d3e565b95989497509550505050565b6000602082840312156153c7578081fd5b81356001600160401b038111156153dc578182fd5b8201601f810184136153ec578182fd5b611de384823560208401614b3c565b60006020828403121561540c578081fd5b5035919050565b60008060408385031215615425578182fd5b8235915060208301358060070b811461543c578182fd5b809150509250929050565b60008060006040848603121561545b578081fd5b8335925060208401356001600160401b03811115615477578182fd5b61548386828701614d3e565b9497909650939450505050565b6000815180845260208085019450808401835b838110156154bf578151875295820195908201906001016154a3565b509495945050505050565b600081518084526154e2816020860160208601615bd2565b601f01601f19169290920160200192915050565b60008251615508818460208701615bd2565b9190910192915050565b7202ab735b737bbb7103937b632903a3cb8329d1606d1b815260008251615540816013850160208701615bd2565b9190910160130192915050565b7302ab735b737bbb7102937b6329024b73232bc1d160651b81526000825161557c816014850160208701615bd2565b9190910160140192915050565b620dac2f60eb1b8152600381019190915260230190565b6001600160a01b0386811682528516602082015260a0604082018190526000906155cc90830186615490565b82810360608401526155de8186615490565b905082810360808401526155f281856154ca565b98975050505050505050565b6001600160a01b03868116825285166020820152604081018490526060810183905260a060808201819052600090615638908301846154ca565b979650505050505050565b6020815260006112786020830184615490565b6040815260006156696040830185615490565b82810360208401526149da8185615490565b60208101600d831061569d57634e487b7160e01b600052602160045260246000fd5b91905290565b60208152816020820152818360408301376000818301604090810191909152601f909201601f19160101919050565b60208152600061127860208301846154ca565b6020808252602f908201527f455243313135353a2063616c6c6572206973206e6f7420746f6b656e206f776e60408201526e195c881b9bdc88185c1c1c9bdd9959608a1b606082015260800190565b60208082526028908201527f455243313135353a204552433131353552656365697665722072656a656374656040820152676420746f6b656e7360c01b606082015260800190565b60208082526024908201527f455243313135353a206275726e20616d6f756e7420657863656564732062616c604082015263616e636560e01b606082015260800190565b6020808252602c90820152600080516020615e0d83398151915260408201526b19195b1959d85d1958d85b1b60a21b606082015260800190565b6020808252602c90820152600080516020615e0d83398151915260408201526b6163746976652070726f787960a01b606082015260800190565b60208082526025908201527f455243313135353a207472616e7366657220746f20746865207a65726f206164604082015264647265737360d81b606082015260800190565b60208082526023908201527f455243313135353a206275726e2066726f6d20746865207a65726f206164647260408201526265737360e81b606082015260800190565b6020808252602a908201527f455243313135353a20696e73756666696369656e742062616c616e636520666f60408201526939103a3930b739b332b960b11b606082015260800190565b6020808252602e908201527f4552432d3131353520456e756d657261626c653a20746f6b656e20696e64657860408201526d206f7574206f6620626f756e647360901b606082015260800190565b6020808252602b908201527f496e697469616c697a61626c653a20636f6e7472616374206973206e6f74206960408201526a6e697469616c697a696e6760a81b606082015260800190565b60208082526028908201527f455243313135353a2069647320616e6420616d6f756e7473206c656e677468206040820152670dad2e6dac2e8c6d60c31b606082015260800190565b60006001600160401b03821115615a0057615a00615ce0565b5060051b60200190565b6000600782810b9084900b828212801560016001603f1b0384900383131615615a3557615a35615cb4565b60016001603f1b03198390038212811615615a5257615a52615cb4565b50019392505050565b60008219821115615a6e57615a6e615cb4565b500190565b600082615a8257615a82615cca565b500490565b600181815b80851115615ac2578160001904821115615aa857615aa8615cb4565b80851615615ab557918102915b93841c9390800290615a8c565b509250929050565b600061127860ff841683600082615ae357506001610a26565b81615af057506000610a26565b8160018114615b065760028114615b1057615b2c565b6001915050610a26565b60ff841115615b2157615b21615cb4565b50506001821b610a26565b5060208310610133831016604e8410600b8410161715615b4f575081810a610a26565b615b598383615a87565b8060001904821115615b6d57615b6d615cb4565b029392505050565b600061ffff83811690831681811015615b9057615b90615cb4565b039392505050565b600082821015615baa57615baa615cb4565b500390565b600060ff821660ff841680821015615bc957615bc9615cb4565b90039392505050565b60005b83811015615bed578181015183820152602001615bd5565b83811115610e3d5750506000910152565b600181811c90821680615c1257607f821691505b60208210811415615c3357634e487b7160e01b600052602260045260246000fd5b50919050565b601f8201601f191681016001600160401b0381118282101715615c5e57615c5e615ce0565b6040525050565b6000600019821415615c7957615c79615cb4565b5060010190565b600060ff821660ff811415615c9757615c97615cb4565b60010192915050565b600082615caf57615caf615cca565b500690565b634e487b7160e01b600052601160045260246000fd5b634e487b7160e01b600052601260045260246000fd5b634e487b7160e01b600052604160045260246000fd5b600060033d1115611b1057600481823e5160e01c90565b600060443d1015615d1b5790565b6040516003193d81016004833e81513d6001600160401b038083116024840183101715615d4a57505050505090565b8285019150815181811115615d625750505050505090565b843d8701016020828501011115615d7c5750505050505090565b615d8b60208286010187615c39565b509095945050505050565b6001600160e01b03198116811461142157600080fdfe4a39dc06d4c0dbc64b70af90fd698a233a518aa5d07e595d983b8c0526c8f7fbc3d58168c5ae7397731d063d5bbf3d657854427343f4c083240f7aacaa2d0f62a6f1ac7ad7b125ba5a5e1c96b00ad6914f90a503b1ac3d85a9dadbb4c639df9246756e6374696f6e206d7573742062652063616c6c6564207468726f75676820360894a13ba1a3210667c828492db98dca3e2076cc3735a920a3ca505d382bbc416464726573733a206c6f772d6c6576656c2064656c65676174652063616c6c206661696c6564a26469706673582212209503542802cc374a27dad0a18178795fdb6dc835709a8322eae05ecb421e4dab64736f6c63430008040033",
  "linkReferences": {},
  "deployedLinkReferences": {}
}