{
  "_format": "hh-sol-artifact-1",
  "contractName": "BulkDisbursableNFTs",
  "sourceName": "src/BulkDisbursableNFTs.sol",
  "abi": [
    {
      "inputs": [],
      "stateMutability": "nonpayable",
      "type": "constructor"
    },
    {
      "anonymous": false,
      "inputs": [
        {
          "indexed": false,
          "internalType": "address",
          "name": "previousAdmin",
          "type": "address"
        },
        {
          "indexed": false,
          "internalType": "address",
          "name": "newAdmin",
          "type": "address"
        }
      ],
      "name": "AdminChanged",
      "type": "event"
    },
    {
      "anonymous": false,
      "inputs": [
        {
          "indexed": true,
          "internalType": "address",
          "name": "account",
          "type": "address"
        },
        {
          "indexed": true,
          "internalType": "address",
          "name": "operator",
          "type": "address"
        },
        {
          "indexed": false,
          "internalType": "bool",
          "name": "approved",
          "type": "bool"
        }
      ],
      "name": "ApprovalForAll",
      "type": "event"
    },
    {
      "anonymous": false,
      "inputs": [
        {
          "indexed": true,
          "internalType": "address",
          "name": "beacon",
          "type": "address"
        }
      ],
      "name": "BeaconUpgraded",
      "type": "event"
    },
    {
      "anonymous": false,
      "inputs": [
        {
          "indexed": false,
          "internalType": "uint256",
          "name": "id",
          "type": "uint256"
        },
        {
          "indexed": false,
          "internalType": "address",
          "name": "controller",
          "type": "address"
        }
      ],
      "name": "Created",
      "type": "event"
    },
    {
      "anonymous": false,
      "inputs": [
        {
          "indexed": true,
          "internalType": "address",
          "name": "previousOwner",
          "type": "address"
        },
        {
          "indexed": true,
          "internalType": "address",
          "name": "newOwner",
          "type": "address"
        }
      ],
      "name": "OwnershipTransferred",
      "type": "event"
    },
    {
      "anonymous": false,
      "inputs": [
        {
          "indexed": true,
          "internalType": "address",
          "name": "operator",
          "type": "address"
        },
        {
          "indexed": true,
          "internalType": "address",
          "name": "from",
          "type": "address"
        },
        {
          "indexed": true,
          "internalType": "address",
          "name": "to",
          "type": "address"
        },
        {
          "indexed": false,
          "internalType": "uint256[]",
          "name": "ids",
          "type": "uint256[]"
        },
        {
          "indexed": false,
          "internalType": "uint256[]",
          "name": "values",
          "type": "uint256[]"
        }
      ],
      "name": "TransferBatch",
      "type": "event"
    },
    {
      "anonymous": false,
      "inputs": [
        {
          "indexed": true,
          "internalType": "address",
          "name": "operator",
          "type": "address"
        },
        {
          "indexed": true,
          "internalType": "address",
          "name": "from",
          "type": "address"
        },
        {
          "indexed": true,
          "internalType": "address",
          "name": "to",
          "type": "address"
        },
        {
          "indexed": false,
          "internalType": "uint256",
          "name": "id",
          "type": "uint256"
        },
        {
          "indexed": false,
          "internalType": "uint256",
          "name": "value",
          "type": "uint256"
        }
      ],
      "name": "TransferSingle",
      "type": "event"
    },
    {
      "anonymous": false,
      "inputs": [
        {
          "indexed": false,
          "internalType": "string",
          "name": "value",
          "type": "string"
        },
        {
          "indexed": true,
          "internalType": "uint256",
          "name": "id",
          "type": "uint256"
        }
      ],
      "name": "URI",
      "type": "event"
    },
    {
      "anonymous": false,
      "inputs": [
        {
          "indexed": true,
          "internalType": "address",
          "name": "implementation",
          "type": "address"
        }
      ],
      "name": "Upgraded",
      "type": "event"
    },
    {
      "inputs": [
        {
          "internalType": "uint256",
          "name": "",
          "type": "uint256"
        }
      ],
      "name": "Roles",
      "outputs": [
        {
          "internalType": "string",
          "name": "",
          "type": "string"
        }
      ],
      "stateMutability": "view",
      "type": "function"
    },
    {
      "inputs": [
        {
          "internalType": "address",
          "name": "account",
          "type": "address"
        },
        {
          "internalType": "uint256",
          "name": "id",
          "type": "uint256"
        }
      ],
      "name": "balanceOf",
      "outputs": [
        {
          "internalType": "uint256",
          "name": "",
          "type": "uint256"
        }
      ],
      "stateMutability": "view",
      "type": "function"
    },
    {
      "inputs": [
        {
          "internalType": "address[]",
          "name": "accounts",
          "type": "address[]"
        },
        {
          "internalType": "uint256[]",
          "name": "ids",
          "type": "uint256[]"
        }
      ],
      "name": "balanceOfBatch",
      "outputs": [
        {
          "internalType": "uint256[]",
          "name": "",
          "type": "uint256[]"
        }
      ],
      "stateMutability": "view",
      "type": "function"
    },
    {
      "inputs": [
        {
          "internalType": "address",
          "name": "owner",
          "type": "address"
        },
        {
          "internalType": "uint256",
          "name": "id",
          "type": "uint256"
        },
        {
          "internalType": "uint256",
          "name": "quantity",
          "type": "uint256"
        }
      ],
      "name": "burn",
      "outputs": [],
      "stateMutability": "nonpayable",
      "type": "function"
    },
    {
      "inputs": [
        {
          "internalType": "address",
          "name": "account",
          "type": "address"
        },
        {
          "internalType": "uint256[]",
          "name": "ids",
          "type": "uint256[]"
        },
        {
          "internalType": "uint256[]",
          "name": "values",
          "type": "uint256[]"
        }
      ],
      "name": "burnBatch",
      "outputs": [],
      "stateMutability": "nonpayable",
      "type": "function"
    },
    {
      "inputs": [
        {
          "internalType": "enum BulkDisbursableNFTs.Role[]",
          "name": "grants",
          "type": "uint8[]"
        },
        {
          "internalType": "enum BulkDisbursableNFTs.Role[]",
          "name": "disables",
          "type": "uint8[]"
        }
      ],
      "name": "create",
      "outputs": [
        {
          "internalType": "uint256",
          "name": "id",
          "type": "uint256"
        }
      ],
      "stateMutability": "nonpayable",
      "type": "function"
    },
    {
      "inputs": [
        {
          "internalType": "address",
          "name": "maintainer",
          "type": "address"
        },
        {
          "internalType": "enum BulkDisbursableNFTs.Role[]",
          "name": "grants",
          "type": "uint8[]"
        },
        {
          "internalType": "enum BulkDisbursableNFTs.Role[]",
          "name": "disables",
          "type": "uint8[]"
        }
      ],
      "name": "create",
      "outputs": [
        {
          "internalType": "uint256",
          "name": "id",
          "type": "uint256"
        }
      ],
      "stateMutability": "nonpayable",
      "type": "function"
    },
    {
      "inputs": [],
      "name": "create",
      "outputs": [
        {
          "internalType": "uint256",
          "name": "id",
          "type": "uint256"
        }
      ],
      "stateMutability": "nonpayable",
      "type": "function"
    },
    {
      "inputs": [
        {
          "internalType": "enum BulkDisbursableNFTs.Role",
          "name": "toDisable",
          "type": "uint8"
        },
        {
          "internalType": "uint256",
          "name": "tokenId",
          "type": "uint256"
        }
      ],
      "name": "disableRole",
      "outputs": [],
      "stateMutability": "nonpayable",
      "type": "function"
    },
    {
      "inputs": [
        {
          "internalType": "uint256",
          "name": "id",
          "type": "uint256"
        }
      ],
      "name": "exists",
      "outputs": [
        {
          "internalType": "bool",
          "name": "",
          "type": "bool"
        }
      ],
      "stateMutability": "view",
      "type": "function"
    },
    {
      "inputs": [
        {
          "internalType": "enum BulkDisbursableNFTs.Role",
          "name": "role",
          "type": "uint8"
        },
        {
          "internalType": "address",
          "name": "user",
          "type": "address"
        },
        {
          "internalType": "uint256",
          "name": "index",
          "type": "uint256"
        }
      ],
      "name": "gateToken",
      "outputs": [
        {
          "internalType": "uint256",
          "name": "id",
          "type": "uint256"
        }
      ],
      "stateMutability": "view",
      "type": "function"
    },
    {
      "inputs": [
        {
          "internalType": "uint256",
          "name": "id",
          "type": "uint256"
        }
      ],
      "name": "getMax",
      "outputs": [
        {
          "internalType": "int64",
          "name": "max",
          "type": "int64"
        }
      ],
      "stateMutability": "view",
      "type": "function"
    },
    {
      "inputs": [
        {
          "internalType": "enum BulkDisbursableNFTs.Role",
          "name": "role",
          "type": "uint8"
        },
        {
          "internalType": "address",
          "name": "user",
          "type": "address"
        }
      ],
      "name": "grantRole",
      "outputs": [],
      "stateMutability": "nonpayable",
      "type": "function"
    },
    {
      "inputs": [
        {
          "internalType": "enum BulkDisbursableNFTs.Role",
          "name": "role",
          "type": "uint8"
        },
        {
          "internalType": "address",
          "name": "user",
          "type": "address"
        },
        {
          "internalType": "uint256",
          "name": "id",
          "type": "uint256"
        }
      ],
      "name": "grantRole",
      "outputs": [],
      "stateMutability": "nonpayable",
      "type": "function"
    },
    {
      "inputs": [
        {
          "internalType": "enum BulkDisbursableNFTs.Role",
          "name": "role",
          "type": "uint8"
        }
      ],
      "name": "hasRole",
      "outputs": [
        {
          "internalType": "bool",
          "name": "has",
          "type": "bool"
        }
      ],
      "stateMutability": "view",
      "type": "function"
    },
    {
      "inputs": [
        {
          "internalType": "enum BulkDisbursableNFTs.Role",
          "name": "role",
          "type": "uint8"
        },
        {
          "internalType": "address",
          "name": "user",
          "type": "address"
        },
        {
          "internalType": "uint256",
          "name": "id",
          "type": "uint256"
        }
      ],
      "name": "hasRole",
      "outputs": [
        {
          "internalType": "bool",
          "name": "has",
          "type": "bool"
        }
      ],
      "stateMutability": "view",
      "type": "function"
    },
    {
      "inputs": [
        {
          "internalType": "enum BulkDisbursableNFTs.Role",
          "name": "role",
          "type": "uint8"
        },
        {
          "internalType": "uint256",
          "name": "id",
          "type": "uint256"
        }
      ],
      "name": "hasRole",
      "outputs": [
        {
          "internalType": "bool",
          "name": "has",
          "type": "bool"
        }
      ],
      "stateMutability": "view",
      "type": "function"
    },
    {
      "inputs": [
        {
          "internalType": "enum BulkDisbursableNFTs.Role",
          "name": "role",
          "type": "uint8"
        },
        {
          "internalType": "address",
          "name": "user",
          "type": "address"
        }
      ],
      "name": "hasRole",
      "outputs": [
        {
          "internalType": "bool",
          "name": "has",
          "type": "bool"
        }
      ],
      "stateMutability": "view",
      "type": "function"
    },
    {
      "inputs": [
        {
          "internalType": "string",
          "name": "_name",
          "type": "string"
        },
        {
          "internalType": "string",
          "name": "_symbol",
          "type": "string"
        }
      ],
      "name": "initialize",
      "outputs": [],
      "stateMutability": "nonpayable",
      "type": "function"
    },
    {
      "inputs": [
        {
          "internalType": "address",
          "name": "account",
          "type": "address"
        },
        {
          "internalType": "address",
          "name": "operator",
          "type": "address"
        }
      ],
      "name": "isApprovedForAll",
      "outputs": [
        {
          "internalType": "bool",
          "name": "",
          "type": "bool"
        }
      ],
      "stateMutability": "view",
      "type": "function"
    },
    {
      "inputs": [
        {
          "internalType": "address",
          "name": "user",
          "type": "address"
        }
      ],
      "name": "isSuper",
      "outputs": [
        {
          "internalType": "bool",
          "name": "superuser",
          "type": "bool"
        }
      ],
      "stateMutability": "view",
      "type": "function"
    },
    {
      "inputs": [],
      "name": "isSuper",
      "outputs": [
        {
          "internalType": "bool",
          "name": "superuser",
          "type": "bool"
        }
      ],
      "stateMutability": "view",
      "type": "function"
    },
    {
      "inputs": [
        {
          "internalType": "uint256",
          "name": "",
          "type": "uint256"
        }
      ],
      "name": "maxes",
      "outputs": [
        {
          "internalType": "int64",
          "name": "",
          "type": "int64"
        }
      ],
      "stateMutability": "view",
      "type": "function"
    },
    {
      "inputs": [
        {
          "internalType": "address[]",
          "name": "to",
          "type": "address[]"
        },
        {
          "internalType": "uint256",
          "name": "id",
          "type": "uint256"
        },
        {
          "internalType": "bytes",
          "name": "data",
          "type": "bytes"
        }
      ],
      "name": "mint",
      "outputs": [],
      "stateMutability": "nonpayable",
      "type": "function"
    },
    {
      "inputs": [
        {
          "internalType": "address",
          "name": "recipient",
          "type": "address"
        },
        {
          "internalType": "uint256",
          "name": "id",
          "type": "uint256"
        },
        {
          "internalType": "uint256",
          "name": "amount",
          "type": "uint256"
        },
        {
          "internalType": "bytes",
          "name": "data",
          "type": "bytes"
        }
      ],
      "name": "mint",
      "outputs": [
        {
          "internalType": "bool",
          "name": "minted",
          "type": "bool"
        }
      ],
      "stateMutability": "nonpayable",
      "type": "function"
    },
    {
      "inputs": [],
      "name": "name",
      "outputs": [
        {
          "internalType": "string",
          "name": "",
          "type": "string"
        }
      ],
      "stateMutability": "view",
      "type": "function"
    },
    {
      "inputs": [],
      "name": "owner",
      "outputs": [
        {
          "internalType": "address",
          "name": "",
          "type": "address"
        }
      ],
      "stateMutability": "view",
      "type": "function"
    },
    {
      "inputs": [],
      "name": "proxiableUUID",
      "outputs": [
        {
          "internalType": "bytes32",
          "name": "",
          "type": "bytes32"
        }
      ],
      "stateMutability": "view",
      "type": "function"
    },
    {
      "inputs": [],
      "name": "renounceOwnership",
      "outputs": [],
      "stateMutability": "nonpayable",
      "type": "function"
    },
    {
      "inputs": [
        {
          "internalType": "string",
          "name": "roleName",
          "type": "string"
        }
      ],
      "name": "roleIndexForName",
      "outputs": [
        {
          "internalType": "enum BulkDisbursableNFTs.Role",
          "name": "role",
          "type": "uint8"
        }
      ],
      "stateMutability": "pure",
      "type": "function"
    },
    {
      "inputs": [
        {
          "internalType": "enum BulkDisbursableNFTs.Role",
          "name": "index",
          "type": "uint8"
        }
      ],
      "name": "roleNameByIndex",
      "outputs": [
        {
          "internalType": "string",
          "name": "",
          "type": "string"
        }
      ],
      "stateMutability": "pure",
      "type": "function"
    },
    {
      "inputs": [
        {
          "internalType": "enum BulkDisbursableNFTs.Role",
          "name": "role",
          "type": "uint8"
        }
      ],
      "name": "roleToken",
      "outputs": [
        {
          "internalType": "uint256",
          "name": "id",
          "type": "uint256"
        }
      ],
      "stateMutability": "view",
      "type": "function"
    },
    {
      "inputs": [
        {
          "internalType": "enum BulkDisbursableNFTs.Role",
          "name": "role",
          "type": "uint8"
        },
        {
          "internalType": "uint256",
          "name": "index",
          "type": "uint256"
        }
      ],
      "name": "roleToken",
      "outputs": [
        {
          "internalType": "uint256",
          "name": "id",
          "type": "uint256"
        }
      ],
      "stateMutability": "view",
      "type": "function"
    },
    {
      "inputs": [
        {
          "internalType": "address",
          "name": "from",
          "type": "address"
        },
        {
          "internalType": "address",
          "name": "to",
          "type": "address"
        },
        {
          "internalType": "uint256[]",
          "name": "ids",
          "type": "uint256[]"
        },
        {
          "internalType": "uint256[]",
          "name": "amounts",
          "type": "uint256[]"
        },
        {
          "internalType": "bytes",
          "name": "data",
          "type": "bytes"
        }
      ],
      "name": "safeBatchTransferFrom",
      "outputs": [],
      "stateMutability": "nonpayable",
      "type": "function"
    },
    {
      "inputs": [
        {
          "internalType": "address",
          "name": "from",
          "type": "address"
        },
        {
          "internalType": "address",
          "name": "to",
          "type": "address"
        },
        {
          "internalType": "uint256",
          "name": "id",
          "type": "uint256"
        },
        {
          "internalType": "uint256",
          "name": "amount",
          "type": "uint256"
        },
        {
          "internalType": "bytes",
          "name": "data",
          "type": "bytes"
        }
      ],
      "name": "safeTransferFrom",
      "outputs": [],
      "stateMutability": "nonpayable",
      "type": "function"
    },
    {
      "inputs": [
        {
          "internalType": "address",
          "name": "operator",
          "type": "address"
        },
        {
          "internalType": "bool",
          "name": "approved",
          "type": "bool"
        }
      ],
      "name": "setApprovalForAll",
      "outputs": [],
      "stateMutability": "nonpayable",
      "type": "function"
    },
    {
      "inputs": [
        {
          "internalType": "string",
          "name": "_name",
          "type": "string"
        },
        {
          "internalType": "string",
          "name": "_symbol",
          "type": "string"
        }
      ],
      "name": "setDescription",
      "outputs": [],
      "stateMutability": "nonpayable",
      "type": "function"
    },
    {
      "inputs": [
        {
          "internalType": "uint256",
          "name": "id",
          "type": "uint256"
        },
        {
          "internalType": "int64",
          "name": "max",
          "type": "int64"
        }
      ],
      "name": "setMax",
      "outputs": [],
      "stateMutability": "nonpayable",
      "type": "function"
    },
    {
      "inputs": [
        {
          "internalType": "uint256",
          "name": "id",
          "type": "uint256"
        },
        {
          "internalType": "string",
          "name": "newURI",
          "type": "string"
        }
      ],
      "name": "setURI",
      "outputs": [],
      "stateMutability": "nonpayable",
      "type": "function"
    },
    {
      "inputs": [
        {
          "internalType": "bytes4",
          "name": "interfaceId",
          "type": "bytes4"
        }
      ],
      "name": "supportsInterface",
      "outputs": [
        {
          "internalType": "bool",
          "name": "",
          "type": "bool"
        }
      ],
      "stateMutability": "view",
      "type": "function"
    },
    {
      "inputs": [],
      "name": "symbol",
      "outputs": [
        {
          "internalType": "string",
          "name": "",
          "type": "string"
        }
      ],
      "stateMutability": "view",
      "type": "function"
    },
    {
      "inputs": [
        {
          "internalType": "uint256",
          "name": "index",
          "type": "uint256"
        }
      ],
      "name": "tokenByIndex",
      "outputs": [
        {
          "internalType": "uint256",
          "name": "id",
          "type": "uint256"
        }
      ],
      "stateMutability": "view",
      "type": "function"
    },
    {
      "inputs": [
        {
          "internalType": "uint256",
          "name": "id",
          "type": "uint256"
        }
      ],
      "name": "tokenIndex",
      "outputs": [
        {
          "internalType": "uint256",
          "name": "index",
          "type": "uint256"
        }
      ],
      "stateMutability": "view",
      "type": "function"
    },
    {
      "inputs": [
        {
          "internalType": "address",
          "name": "owner",
          "type": "address"
        },
        {
          "internalType": "uint256",
          "name": "index",
          "type": "uint256"
        }
      ],
      "name": "tokenOfOwnerByIndex",
      "outputs": [
        {
          "internalType": "uint256",
          "name": "id",
          "type": "uint256"
        }
      ],
      "stateMutability": "view",
      "type": "function"
    },
    {
      "inputs": [
        {
          "internalType": "uint256",
          "name": "id",
          "type": "uint256"
        }
      ],
      "name": "totalSupply",
      "outputs": [
        {
          "internalType": "uint256",
          "name": "",
          "type": "uint256"
        }
      ],
      "stateMutability": "view",
      "type": "function"
    },
    {
      "inputs": [
        {
          "internalType": "address",
          "name": "newOwner",
          "type": "address"
        }
      ],
      "name": "transferOwnership",
      "outputs": [],
      "stateMutability": "nonpayable",
      "type": "function"
    },
    {
      "inputs": [],
      "name": "typeSupply",
      "outputs": [
        {
          "internalType": "uint256",
          "name": "count",
          "type": "uint256"
        }
      ],
      "stateMutability": "view",
      "type": "function"
    },
    {
      "inputs": [
        {
          "internalType": "address",
          "name": "newImplementation",
          "type": "address"
        }
      ],
      "name": "upgradeTo",
      "outputs": [],
      "stateMutability": "nonpayable",
      "type": "function"
    },
    {
      "inputs": [
        {
          "internalType": "address",
          "name": "newImplementation",
          "type": "address"
        },
        {
          "internalType": "bytes",
          "name": "data",
          "type": "bytes"
        }
      ],
      "name": "upgradeToAndCall",
      "outputs": [],
      "stateMutability": "payable",
      "type": "function"
    },
    {
      "inputs": [
        {
          "internalType": "uint256",
          "name": "id",
          "type": "uint256"
        }
      ],
      "name": "uri",
      "outputs": [
        {
          "internalType": "string",
          "name": "metadata",
          "type": "string"
        }
      ],
      "stateMutability": "view",
      "type": "function"
    }
  ],
  "bytecode": "0x60a06040523060601b6080523480156200001857600080fd5b50600054610100900460ff16620000365760005460ff161562000040565b62000040620000e5565b620000a85760405162461bcd60e51b815260206004820152602e60248201527f496e697469616c697a61626c653a20636f6e747261637420697320616c72656160448201526d191e481a5b9a5d1a585b1a5e995960921b606482015260840160405180910390fd5b600054610100900460ff16158015620000cb576000805461ffff19166101011790555b8015620000de576000805461ff00191690555b5062000112565b6000620000fd306200010360201b62002a821760201c565b15905090565b6001600160a01b03163b151590565b60805160601c615b0c6200014d6000396000818161139f015281816113df015281816118d0015281816119100152611a5b0152615b0c6000f3fe6080604052600436106102385760003560e01c8062fdd58e1461023d57806301ffc9a7146102705780630583e9f8146102a057806306fdde03146102c05780630e89341c146102e25780630ec0370f1461030257806311ef04c41461032457806314c464271461034457806316730ab01461036457806319e0755c146103845780632eb2c2d6146103a45780632f745c59146103c45780633659cfe6146103e45780633dbe35de146104045780634468031f1461042457806348289589146104445780634a80070f146104645780634cd88b76146104845780634e1273f4146104a45780634f1ef286146104d15780634f558e79146104e45780634f6ccce71461050457806352d1902d146105245780635d5664e1146105395780636755d456146105595780636b20c454146105795780636fc0020b14610599578063715018a6146105b9578063731133e9146105ce578063778f5a7b146105ee578063814c24501461061b578063862440e21461063b5780638da5cb5b1461065b57806395d89b41146106885780639d969a9c1461069d5780639e97b8f6146106b2578063a22cb465146106d2578063aa8e9066146106f2578063b0bdf26114610712578063bd85b03914610732578063c3c8df9914610752578063dabc698714610772578063e688f89d146107b6578063e985e9c5146107e7578063edc79bac14610830578063efc81a8c14610845578063f242432a1461085a578063f2fde38b1461087a578063f5298aca1461089a578063fde4047a146108ba575b600080fd5b34801561024957600080fd5b5061025d610258366004614d56565b6108da565b6040519081526020015b60405180910390f35b34801561027c57600080fd5b5061029061028b366004614f32565b610976565b6040519015158152602001610267565b3480156102ac57600080fd5b5061025d6102bb3660046150a2565b6109c6565b3480156102cc57600080fd5b506102d5610a34565b6040516102679190615357565b3480156102ee57600080fd5b506102d56102fd3660046150a2565b610ac3565b34801561030e57600080fd5b5061032261031d366004614e65565b610d36565b005b34801561033057600080fd5b5061032261033f3660046150ba565b610d8d565b34801561035057600080fd5b5061025d61035f366004614f6a565b610e41565b34801561037057600080fd5b5061025d61037f366004614f9f565b610e4e565b34801561039057600080fd5b5061029061039f366004614f6a565b61126d565b3480156103b057600080fd5b506103226103bf366004614af4565b611279565b3480156103d057600080fd5b5061025d6103df366004614d56565b611310565b3480156103f057600080fd5b506103226103ff366004614aa8565b611394565b34801561041057600080fd5b5061025d61041f366004614fda565b61145d565b34801561043057600080fd5b5061029061043f366004614f9f565b6115d8565b34801561045057600080fd5b5061029061045f366004614fda565b6115ff565b34801561047057600080fd5b5061025d61047f366004614ec4565b61160c565b34801561049057600080fd5b5061032261049f366004614ff5565b611619565b3480156104b057600080fd5b506104c46104bf366004614e0f565b611764565b60405161026791906152c8565b6103226104df366004614d0b565b6118c5565b3480156104f057600080fd5b506102906104ff3660046150a2565b61197f565b34801561051057600080fd5b5061025d61051f3660046150a2565b611992565b34801561053057600080fd5b5061025d611a4e565b34801561054557600080fd5b50610322610554366004614f84565b611afd565b34801561056557600080fd5b50610322610574366004614ff5565b611b09565b34801561058557600080fd5b50610322610594366004614c6b565b611b53565b3480156105a557600080fd5b506102d56105b43660046150a2565b611b9b565b3480156105c557600080fd5b50610322611bbb565b3480156105da57600080fd5b506102906105e9366004614db1565b611bf6565b3480156105fa57600080fd5b5061060e61060936600461505d565b611dfe565b6040516102679190615300565b34801561062757600080fd5b506102d5610636366004614f6a565b612146565b34801561064757600080fd5b506103226106563660046150e3565b612515565b34801561066757600080fd5b506106706125f1565b6040516001600160a01b039091168152602001610267565b34801561069457600080fd5b506102d5612600565b3480156106a957600080fd5b5061025d61260e565b3480156106be57600080fd5b506102906106cd366004614f84565b612626565b3480156106de57600080fd5b506103226106ed366004614cd1565b612634565b3480156106fe57600080fd5b5061032261070d366004614f9f565b61263f565b34801561071e57600080fd5b5061025d61072d366004614bfb565b612662565b34801561073e57600080fd5b5061025d61074d3660046150a2565b612829565b34801561075e57600080fd5b5061029061076d366004614aa8565b61283b565b34801561077e57600080fd5b506107a361078d3660046150a2565b6101a26020526000908152604090205460070b81565b60405160079190910b8152602001610267565b3480156107c257600080fd5b506107a36107d13660046150a2565b60009081526101a2602052604090205460070b90565b3480156107f357600080fd5b50610290610802366004614ac2565b6001600160a01b03918216600090815260666020908152604080832093909416825291909152205460ff1690565b34801561083c57600080fd5b50610290612870565b34801561085157600080fd5b5061025d61287b565b34801561086657600080fd5b50610322610875366004614b99565b61289c565b34801561088657600080fd5b50610322610895366004614aa8565b6128e1565b3480156108a657600080fd5b506103226108b5366004614d7f565b61297e565b3480156108c657600080fd5b506103226108d5366004614fda565b612a08565b60006001600160a01b03831661094b5760405162461bcd60e51b815260206004820152602b60248201527f455243313135353a2062616c616e636520717565727920666f7220746865207a60448201526a65726f206164647265737360a81b60648201526084015b60405180910390fd5b5060008181526065602090815260408083206001600160a01b03861684529091529020545b92915050565b60006001600160e01b03198216636cdb3d1360e11b14806109a757506001600160e01b031982166303a24d0760e21b145b8061097057506301ffc9a760e01b6001600160e01b0319831614610970565b6000818152610195602052604090205480610a2f5760405162461bcd60e51b815260206004820152602360248201527f5468652072657175657374656420746f6b656e20646f6573206e6f742065786960448201526239ba1760e91b6064820152608401610942565b919050565b6101918054610a4290615861565b80601f0160208091040260200160405190810160405280929190818152602001828054610a6e90615861565b8015610abb5780601f10610a9057610100808354040283529160200191610abb565b820191906000526020600020905b815481529060010190602001808311610a9e57829003601f168201915b505050505081565b600081815261019360205260409020805460609190610ae190615861565b80601f0160208091040260200160405190810160405280929190818152602001828054610b0d90615861565b8015610b5a5780601f10610b2f57610100808354040283529160200191610b5a565b820191906000526020600020905b815481529060010190602001808311610b3d57829003601f168201915b50505050509050805160001415610a2f576008610b7a600d6101006157d8565b610b849190615812565b600160ff919091161b6008610b9c600d6101006157d8565b610ba69190615812565b60ff166001610bb76008600261572d565b610bc191906157fb565b901b83161415610a2f576000600160088160038083610be3600d6101006157d8565b610bed9190615812565b610bf79190615812565b610c019190615812565b610c0b9190615812565b610c159190615812565b610c1f9190615812565b60ff166001610c2f81600261572d565b610c3991906157fb565b901b6003806008610c4d600d6101006157d8565b610c579190615812565b610c619190615812565b610c6b9190615812565b60ff166001901b1719600160206002610c84919061572d565b610c8e91906157fb565b19841616600081815261019360205260409020805491925090610cb090615861565b80601f0160208091040260200160405190810160405280929190818152602001828054610cdc90615861565b8015610d295780601f10610cfe57610100808354040283529160200191610d29565b820191906000526020600020905b815481529060010190602001808311610d0c57829003601f168201915b5050505050915050919050565b60005b8351811015610d8757610d76848281518110610d6557634e487b7160e01b600052603260045260246000fd5b602002602001015184600185611bf6565b50610d80816158c8565b9050610d39565b50505050565b610d986008836115ff565b80610da65750610da6612870565b610e0c5760405162461bcd60e51b815260206004820152603160248201527f596f75206d75737420686176652061204c696d6974657220746f6b656e20746f6044820152701031b430b733b29038bab0b73a34ba3c9760791b6064820152608401610942565b60009182526101a26020526040909120805460079290920b6001600160401b03166001600160401b0319909216919091179055565b600061097082600061145d565b600080610e5a85610e41565b9050600061019581856008610e72600d6101006157d8565b610e7c9190615812565b60ff16600a901b851717815260200190815260200160002054905080600014610ed657610194805482908110610ec257634e487b7160e01b600052603260045260246000fd5b906000526020600020015492505050611266565b6000604051806101000160405280866001600860016003806008600d60ff16610100610f0291906157d8565b610f0c9190615812565b610f169190615812565b610f209190615812565b610f2a9190615812565b610f349190615812565b610f3e9190615812565b60ff166001610f4e81600261572d565b610f5891906157fb565b901b6003806008610f6c600d6101006157d8565b610f769190615812565b610f809190615812565b610f8a9190615812565b600160ff919091161b871717178152602001866003806008610faf600d6101006157d8565b610fb99190615812565b610fc39190615812565b610fcd9190615812565b60ff166001901b86171781526020016001600860016003806008600d60ff16610100610ff991906157d8565b6110039190615812565b61100d9190615812565b6110179190615812565b6110219190615812565b61102b9190615812565b6110359190615812565b60ff16600161104581600261572d565b61104f91906157fb565b901b6003806008611063600d6101006157d8565b61106d9190615812565b6110779190615812565b6110819190615812565b600160ff919091161b861717815260200160038060086110a4600d6101006157d8565b6110ae9190615812565b6110b89190615812565b6110c29190615812565b60ff166001901b85178152602001866001600860016003806008600d60ff166101006110ee91906157d8565b6110f89190615812565b6111029190615812565b61110c9190615812565b6111169190615812565b6111209190615812565b61112a9190615812565b60ff16600161113a81600261572d565b61114491906157fb565b901b8617178152602001600160088160038083611164600d6101006157d8565b61116e9190615812565b6111789190615812565b6111829190615812565b61118c9190615812565b6111969190615812565b6111a09190615812565b60ff1660016111b081600261572d565b6111ba91906157fb565b901b851781528685176020820152604001849052905060005b60088160ff16101561125d57600061121288848460ff166008811061120857634e487b7160e01b600052603260045260246000fd5b60200201516108da565b111561124b57818160ff166008811061123b57634e487b7160e01b600052603260045260246000fd5b6020020151945050505050611266565b80611255816158e3565b9150506111d3565b50600093505050505b9392505050565b60006109708233612626565b6001600160a01b03851633148061129557506112958533610802565b6112fc5760405162461bcd60e51b815260206004820152603260248201527f455243313135353a207472616e736665722063616c6c6572206973206e6f74206044820152711bdddb995c881b9bdc88185c1c1c9bdd995960721b6064820152608401610942565b6113098585858585612a91565b5050505050565b6001600160a01b0382166000908152610196602052604081205482106113485760405162461bcd60e51b8152600401610942906155ba565b6001600160a01b03831660009081526101966020526040902080548390811061138157634e487b7160e01b600052603260045260246000fd5b9060005260206000200154905092915050565b306001600160a01b037f00000000000000000000000000000000000000000000000000000000000000001614156113dd5760405162461bcd60e51b8152600401610942906153f6565b7f00000000000000000000000000000000000000000000000000000000000000006001600160a01b031661140f612c48565b6001600160a01b0316146114355760405162461bcd60e51b815260040161094290615479565b61143e81612c64565b6040805160008082526020820190925261145a91839190612cea565b50565b600061146b6020600261572d565b82106114b95760405162461bcd60e51b815260206004820152601f60248201527f496e64696365732063616e206265206174206d6f737420333220426974732e006044820152606401610942565b81600184600c8111156114dc57634e487b7160e01b600052602160045260246000fd5b146114e8576000611541565b600160038060086114fc600d6101006157d8565b6115069190615812565b6115109190615812565b61151a9190615812565b6115249190615812565b60ff16600161153481600261572d565b61153e91906157fb565b901b5b6008600160038083611556600d6101006157d8565b6115609190615812565b61156a9190615812565b6115749190615812565b61157e9190615812565b6115889190615812565b60ff1685600c8111156115ab57634e487b7160e01b600052602160045260246000fd5b901b60086115bc600d6101006157d8565b6115c69190615812565b60ff166001901b171717905092915050565b600081815261019560205260408120546115f59085908590610e4e565b1515949350505050565b60006112668333846115d8565b6000611266338484612662565b600054610100900460ff166116345760005460ff161561163c565b61163c612e64565b61169f5760405162461bcd60e51b815260206004820152602e60248201527f496e697469616c697a61626c653a20636f6e747261637420697320616c72656160448201526d191e481a5b9a5d1a585b1a5e995960921b6064820152608401610942565b600054610100900460ff161580156116c1576000805461ffff19166101011790555b6116c9612e75565b6117076040518060400160405280602081526020017f4572726f723a2053696e676c6520546f6b656e20555249204e6f742055736564815250612ea4565b61170f612ed4565b611717612ed4565b61171f612ed4565b61019480546001810182556000918252600080516020615a50833981519152015561174c85858585611b09565b8015611309576000805461ff00191690555050505050565b606081518351146117c95760405162461bcd60e51b815260206004820152602960248201527f455243313135353a206163636f756e747320616e6420696473206c656e677468604482015268040dad2e6dac2e8c6d60bb1b6064820152608401610942565b600083516001600160401b038111156117f257634e487b7160e01b600052604160045260246000fd5b60405190808252806020026020018201604052801561181b578160200160208202803683370190505b50905060005b84518110156118bd5761188285828151811061184d57634e487b7160e01b600052603260045260246000fd5b602002602001015185838151811061187557634e487b7160e01b600052603260045260246000fd5b60200260200101516108da565b8282815181106118a257634e487b7160e01b600052603260045260246000fd5b60209081029190910101526118b6816158c8565b9050611821565b509392505050565b306001600160a01b037f000000000000000000000000000000000000000000000000000000000000000016141561190e5760405162461bcd60e51b8152600401610942906153f6565b7f00000000000000000000000000000000000000000000000000000000000000006001600160a01b0316611940612c48565b6001600160a01b0316146119665760405162461bcd60e51b815260040161094290615479565b61196f82612c64565b61197b82826001612cea565b5050565b60008061198b83612829565b1192915050565b60008082116119f65760405162461bcd60e51b815260206004820152602a60248201527f4552432d3131353520456e756d657261626c653a20746f6b656e7320696e64656044820152697865642066726f6d203160b01b6064820152608401610942565b61019454821115611a195760405162461bcd60e51b8152600401610942906155ba565b610194805483908110611a3c57634e487b7160e01b600052603260045260246000fd5b90600052602060002001549050919050565b6000306001600160a01b037f00000000000000000000000000000000000000000000000000000000000000001614611ae95760405162461bcd60e51b815260206004820152603860248201527f555550535570677261646561626c653a206d757374206e6f742062652063616c6044820152771b1959081d1a1c9bdd59da0819195b1959d85d1958d85b1b60421b6064820152608401610942565b50600080516020615a908339815191525b90565b61197b8282600061263f565b33611b126125f1565b6001600160a01b031614611b385760405162461bcd60e51b815260040161094290615585565b611b456101918585614763565b506113096101928383614763565b6001600160a01b038316331480611b6f5750611b6f8333610802565b611b8b5760405162461bcd60e51b815260040161094290615430565b611b96838383612efb565b505050565b61019781600b8110611bac57600080fd5b018054909150610a4290615861565b33611bc46125f1565b6001600160a01b031614611bea5760405162461bcd60e51b815260040161094290615585565b611bf46000613096565b565b6000600160088160038083611c0e600d6101006157d8565b611c189190615812565b611c229190615812565b611c2c9190615812565b611c369190615812565b611c409190615812565b611c4a9190615812565b60ff166001611c5a81600261572d565b611c6491906157fb565b901b600160088160038083611c7c600d6101006157d8565b611c869190615812565b611c909190615812565b611c9a9190615812565b611ca49190615812565b611cae9190615812565b611cb89190615812565b60ff166001611cc881600261572d565b611cd291906157fb565b901b85161415611d365760405162461bcd60e51b815260206004820152602960248201527f43616e6e6f74206d696e7420696e7465726e616c20746f6b656e732066726f6d6044820152681037baba39b4b2329760b91b6064820152608401610942565b60016003806008611d4a600d6101006157d8565b611d549190615812565b611d5e9190615812565b611d689190615812565b611d729190615812565b60ff166001901b60016003806008600d60ff16610100611d9291906157d8565b611d9c9190615812565b611da69190615812565b611db09190615812565b611dba9190615812565b60ff166001901b8516148015611dd957506000611dd786866108da565b115b15611de657506000611df6565b611df2858585856130e8565b5060015b949350505050565b60008082604051602001611e129190615192565b604051602081830303815290604052805190602001209050604051602001611e49906829bab832b93ab9b2b960b91b815260090190565b60405160208183030381529060405280519060200120811415611e6f5750600192915050565b6040516526b4b73a32b960d11b602082015260260160405160208183030381529060405280519060200120811415611eaa5750600292915050565b6040516521b0b9ba32b960d11b602082015260260160405160208183030381529060405280519060200120811415611ee55750600392915050565b604051692a3930b739b332b932b960b11b6020820152602a0160405160208183030381529060405280519060200120811415611f245750600492915050565b6040516921b7b73334b3bab932b960b11b6020820152602a0160405160208183030381529060405280519060200120811415611f635750600592915050565b6040516926b0b4b73a30b4b732b960b11b6020820152602a0160405160208183030381529060405280519060200120811415611fa25750600692915050565b6040516621b932b0ba37b960c91b602082015260270160405160208183030381529060405280519060200120811415611fde5750600792915050565b604051662634b6b4ba32b960c91b60208201526027016040516020818303038152906040528051906020012081141561201a5750600892915050565b60405165213ab93732b960d11b6020820152602601604051602081830303815290604052805190602001208114156120555750600992915050565b604051682232b9ba3937bcb2b960b91b6020820152602901604051602081830303815290604052805190602001208114156120935750600a92915050565b604051654f7261636c6560d01b6020820152602601604051602081830303815290604052805190602001208114156120ce5750600b92915050565b6040516b14995cd95c9d995913185cdd60a21b6020820152602c016040516020818303038152906040528051906020012081141561210f5750600c92915050565b8260405160200161212091906151ae565b60408051601f198184030181529082905262461bcd60e51b825261094291600401615357565b6060600182600c81111561216a57634e487b7160e01b600052602160045260246000fd5b141561219557505060408051808201909152600981526829bab832b93ab9b2b960b91b602082015290565b600282600c8111156121b757634e487b7160e01b600052602160045260246000fd5b14156121df57505060408051808201909152600681526526b4b73a32b960d11b602082015290565b600382600c81111561220157634e487b7160e01b600052602160045260246000fd5b141561222957505060408051808201909152600681526521b0b9ba32b960d11b602082015290565b600482600c81111561224b57634e487b7160e01b600052602160045260246000fd5b141561227757505060408051808201909152600a8152692a3930b739b332b932b960b11b602082015290565b600582600c81111561229957634e487b7160e01b600052602160045260246000fd5b14156122c557505060408051808201909152600a81526921b7b73334b3bab932b960b11b602082015290565b600682600c8111156122e757634e487b7160e01b600052602160045260246000fd5b141561231357505060408051808201909152600a81526926b0b4b73a30b4b732b960b11b602082015290565b600782600c81111561233557634e487b7160e01b600052602160045260246000fd5b141561235e57505060408051808201909152600781526621b932b0ba37b960c91b602082015290565b600882600c81111561238057634e487b7160e01b600052602160045260246000fd5b14156123a95750506040805180820190915260078152662634b6b4ba32b960c91b602082015290565b600982600c8111156123cb57634e487b7160e01b600052602160045260246000fd5b14156123f3575050604080518082019091526006815265213ab93732b960d11b602082015290565b600a82600c81111561241557634e487b7160e01b600052602160045260246000fd5b14156124405750506040805180820190915260098152682232b9ba3937bcb2b960b91b602082015290565b600b82600c81111561246257634e487b7160e01b600052602160045260246000fd5b141561248a5750506040805180820190915260068152654f7261636c6560d01b602082015290565b600c82600c8111156124ac57634e487b7160e01b600052602160045260246000fd5b14156124da57505060408051808201909152600c81526b14995cd95c9d995913185cdd60a21b602082015290565b61250582600c8111156124fd57634e487b7160e01b600052602160045260246000fd5b60ff166131e8565b60405160200161212091906151e9565b6125206005846115ff565b8061252e575061252e612870565b6125975760405162461bcd60e51b815260206004820152603460248201527f596f75206d7573742068617665206120436f6e6669677572657220746f6b656e604482015273103a379031b430b733b29036b2ba30b230ba309760611b6064820152608401610942565b6000838152610193602052604090206125b1908383614763565b50827f6bb7ff708619ba0610cba295a58592e0451dee2622938c8755667688daf3529b83836040516125e4929190615328565b60405180910390a2505050565b6097546001600160a01b031690565b6101928054610a4290615861565b61019454600090612621906001906157fb565b905090565b6000611266838360006115d8565b61197b338383613301565b611b968383831561265857612653846109c6565b61265b565b60005b60006133e2565b61019454600090806008612679600d6101006157d8565b6126839190615812565b60ff166009901b1791506126986007836115ff565b806126a657506126a6612870565b61270e5760405162461bcd60e51b815260206004820152603360248201527f596f75206d757374206861766520612043726561746f7220746f6b656e20746f6044820152721031b932b0ba32903732bb903a37b5b2b7399760691b6064820152608401610942565b610194805460018101909155600080516020615a50833981519152018290556000828152610195602052604081208290555b845181101561278f5761277d85828151811061276c57634e487b7160e01b600052603260045260246000fd5b6020026020010151878460016133e2565b80612787816158c8565b915050612740565b5060005b83518110156127df576127cd8482815181106127bf57634e487b7160e01b600052603260045260246000fd5b602002602001015183612a08565b806127d7816158c8565b915050612793565b50604080518381526001600160a01b03871660208201527f7757890bcab34d673dfca6b71df1b57f75a2fe4231d6e8de726caf534ab1fdd6910160405180910390a1509392505050565b600090815260fb602052604090205490565b6000612848600183612626565b8061097057506128566125f1565b6001600160a01b0316826001600160a01b03161492915050565b60006126213361283b565b60408051600080825260208201909252612896338283612662565b91505090565b6001600160a01b0385163314806128b857506128b88533610802565b6128d45760405162461bcd60e51b815260040161094290615430565b611309858585858561359d565b336128ea6125f1565b6001600160a01b0316146129105760405162461bcd60e51b815260040161094290615585565b6001600160a01b0381166129755760405162461bcd60e51b815260206004820152602660248201527f4f776e61626c653a206e6577206f776e657220697320746865207a65726f206160448201526564647265737360d01b6064820152608401610942565b61145a81613096565b61298a600984846115d8565b8061299957506129998361283b565b6129fd5760405162461bcd60e51b815260206004820152602f60248201527f596f75206d75737420686176652061204275726e657220746f6b656e20746f2060448201526e3232b9ba3937bc903a37b5b2b7399760891b6064820152608401610942565b611b968383836136ac565b60008181526101956020526040812054612a2390849061145d565b90506008612a34600d6101006157d8565b612a3e9190615812565b610194805460018101909155600a60ff929092169190911b91909117600080516020615a508339815191528201819055600090815261019560205260409020555050565b6001600160a01b03163b151590565b8151835114612ab25760405162461bcd60e51b815260040161094290615653565b6001600160a01b038416612ad85760405162461bcd60e51b8152600401610942906154b3565b33612ae781878787878761379f565b60005b8451811015612bec576000858281518110612b1557634e487b7160e01b600052603260045260246000fd5b602002602001015190506000858381518110612b4157634e487b7160e01b600052603260045260246000fd5b60209081029190910181015160008481526065835260408082206001600160a01b038e168352909352919091205490915081811015612b925760405162461bcd60e51b81526004016109429061553b565b60008381526065602090815260408083206001600160a01b038e8116855292528083208585039055908b16825281208054849290612bd19084906156be565b9250508190555050505080612be5906158c8565b9050612aea565b50846001600160a01b0316866001600160a01b0316826001600160a01b0316600080516020615a108339815191528787604051612c2a9291906152db565b60405180910390a4612c408187878787876140e6565b505050505050565b600080516020615a90833981519152546001600160a01b031690565b612c6e600661126d565b80612c7c5750612c7c612870565b61145a5760405162461bcd60e51b815260206004820152603960248201527f596f75206d75737420686176652061204d61696e7461696e657220746f6b656e604482015278103a37903ab833b930b232903a34329031b7b73a3930b1ba1760391b6064820152608401610942565b7f4910fdfa16fed3260ed0e7147f7cc6da11a60208b5b9406d12a635614ffd91435460ff1615612d1d57611b9683614258565b826001600160a01b03166352d1902d6040518163ffffffff1660e01b815260040160206040518083038186803b158015612d5657600080fd5b505afa925050508015612d86575060408051601f3d908101601f19168201909252612d8391810190614f1a565b60015b612de95760405162461bcd60e51b815260206004820152602e60248201527f45524331393637557067726164653a206e657720696d706c656d656e7461746960448201526d6f6e206973206e6f74205555505360901b6064820152608401610942565b600080516020615a908339815191528114612e585760405162461bcd60e51b815260206004820152602960248201527f45524331393637557067726164653a20756e737570706f727465642070726f786044820152681a58589b195555525160ba1b6064820152608401610942565b50611b968383836142f2565b6000612e6f30612a82565b15905090565b600054610100900460ff16612e9c5760405162461bcd60e51b815260040161094290615608565b611bf4614317565b600054610100900460ff16612ecb5760405162461bcd60e51b815260040161094290615608565b61145a81614347565b600054610100900460ff16611bf45760405162461bcd60e51b815260040161094290615608565b6001600160a01b038316612f215760405162461bcd60e51b8152600401610942906154f8565b8051825114612f425760405162461bcd60e51b815260040161094290615653565b6000339050612f658185600086866040518060200160405280600081525061379f565b60005b8351811015613049576000848281518110612f9357634e487b7160e01b600052603260045260246000fd5b602002602001015190506000848381518110612fbf57634e487b7160e01b600052603260045260246000fd5b60209081029190910181015160008481526065835260408082206001600160a01b038c1683529093529190912054909150818110156130105760405162461bcd60e51b8152600401610942906153b2565b60009283526065602090815260408085206001600160a01b038b1686529091529092209103905580613041816158c8565b915050612f68565b5060006001600160a01b0316846001600160a01b0316826001600160a01b0316600080516020615a1083398151915286866040516130889291906152db565b60405180910390a450505050565b609780546001600160a01b038381166001600160a01b0319831681179093556040519116919082907f8be0079c531659141344cd1fd0a4f28419497f9722a3daafe3b4186f6b6457e090600090a35050565b6001600160a01b0384166131485760405162461bcd60e51b815260206004820152602160248201527f455243313135353a206d696e7420746f20746865207a65726f206164647265736044820152607360f81b6064820152608401610942565b336131688160008761315988614377565b61316288614377565b8761379f565b60008481526065602090815260408083206001600160a01b03891684529091528120805485929061319a9084906156be565b909155505060408051858152602081018590526001600160a01b038088169260009291851691600080516020615a30833981519152910160405180910390a4611309816000878787876143d0565b60608161320c5750506040805180820190915260018152600360fc1b602082015290565b8160005b81156132365780613220816158c8565b915061322f9050600a836156d6565b9150613210565b6000816001600160401b0381111561325e57634e487b7160e01b600052604160045260246000fd5b6040519080825280601f01601f191660200182016040528015613288576020820181803683370190505b5090505b8415611df65761329d6001836157fb565b91506132aa600a86615903565b6132b59060306156be565b60f81b8183815181106132d857634e487b7160e01b600052603260045260246000fd5b60200101906001600160f81b031916908160001a9053506132fa600a866156d6565b945061328c565b816001600160a01b0316836001600160a01b031614156133755760405162461bcd60e51b815260206004820152602960248201527f455243313135353a2073657474696e6720617070726f76616c20737461747573604482015268103337b91039b2b63360b91b6064820152608401610942565b6001600160a01b03838116600081815260666020908152604080832094871680845294825291829020805460ff191686151590811790915591519182527f17307eab39ab6107e8899845ad3d59bd9653f200f220920489ca2b5937696c31910160405180910390a3505050565b806134fc57600184600c81111561340957634e487b7160e01b600052602160045260246000fd5b141561347c57613417612870565b6134775760405162461bcd60e51b815260206004820152602b60248201527f596f75206d75737420626520612073757065727573657220746f20637265617460448201526a32903732bb9037b732b99760a91b6064820152608401610942565b6134fc565b6134876003836115ff565b806134955750613495612870565b6134fc5760405162461bcd60e51b815260206004820152603260248201527f596f75206d7573742068617665207468652043617374657220726f6c6520746f6044820152711030b9b9b4b3b7103732bb903937b632b99760711b6064820152608401610942565b610d87838261350c57600061357b565b600160088160038083613522600d6101006157d8565b61352c9190615812565b6135369190615812565b6135409190615812565b61354a9190615812565b6135549190615812565b61355e9190615812565b60ff16600161356e81600261572d565b61357891906157fb565b901b5b613585878661145d565b176001604051806020016040528060008152506130e8565b6001600160a01b0384166135c35760405162461bcd60e51b8152600401610942906154b3565b336135d381878761315988614377565b60008481526065602090815260408083206001600160a01b038a168452909152902054838110156136165760405162461bcd60e51b81526004016109429061553b565b60008581526065602090815260408083206001600160a01b038b81168552925280832087850390559088168252812080548692906136559084906156be565b909155505060408051868152602081018690526001600160a01b03808916928a82169291861691600080516020615a30833981519152910160405180910390a46136a38288888888886143d0565b50505050505050565b6001600160a01b0383166136d25760405162461bcd60e51b8152600401610942906154f8565b33613701818560006136e387614377565b6136ec87614377565b6040518060200160405280600081525061379f565b60008381526065602090815260408083206001600160a01b0388168452909152902054828110156137445760405162461bcd60e51b8152600401610942906153b2565b60008481526065602090815260408083206001600160a01b0389811680865291845282852088870390558251898152938401889052909290861691600080516020615a30833981519152910160405180910390a45050505050565b6137a7612870565b613d1e5760005b8351811015613d1c576001600881600380836137cd600d6101006157d8565b6137d79190615812565b6137e19190615812565b6137eb9190615812565b6137f59190615812565b6137ff9190615812565b6138099190615812565b60ff16600161381981600261572d565b61382391906157fb565b901b60016008816003808361383b600d6101006157d8565b6138459190615812565b61384f9190615812565b6138599190615812565b6138639190615812565b61386d9190615812565b6138779190615812565b60ff16600161388781600261572d565b61389191906157fb565b901b8583815181106138b357634e487b7160e01b600052603260045260246000fd5b60200260200101511614613d0c5760006001600160a01b038716156138d95760046138dc565b60025b9050600281600c81111561390057634e487b7160e01b600052602160045260246000fd5b1415613c6e5760006101a2600087858151811061392d57634e487b7160e01b600052603260045260246000fd5b6020026020010151815260200190815260200160002060009054906101000a900460070b60070b121580156139db57506101a2600086848151811061398257634e487b7160e01b600052603260045260246000fd5b6020026020010151815260200190815260200160002060009054906101000a900460070b60070b6139d98684815181106139cc57634e487b7160e01b600052603260045260246000fd5b6020026020010151612829565b135b613a275760405162461bcd60e51b815260206004820181905260248201527f4d6178696d756d206d696e7420616c6c6f77616e63652065786365656465642e6044820152606401610942565b6008613a36600d6101006157d8565b613a409190615812565b600160ff919091161b6008613a58600d6101006157d8565b613a629190615812565b60ff166001613a736008600261572d565b613a7d91906157fb565b901b868481518110613a9f57634e487b7160e01b600052603260045260246000fd5b6020026020010151161415613b5957613ae06003868481518110613ad357634e487b7160e01b600052603260045260246000fd5b60200260200101516115ff565b80613aee5750613aee612870565b613b545760405162461bcd60e51b815260206004820152603160248201527f596f75206d757374206861766520612043617374657220746f6b656e20746f2060448201527036b4b73a103a37b5b2b71033b0ba32b99760791b6064820152608401610942565b613d0a565b6000613b90823361037f898781518110613b8357634e487b7160e01b600052603260045260246000fd5b60200260200101516109c6565b9050613bb682878581518110613ad357634e487b7160e01b600052603260045260246000fd5b613c1b5760405162461bcd60e51b815260206004820152603060248201527f596f75206d75737420686176652061204d696e74657220746f6b656e20746f2060448201526f33b2b732b930ba32903a37b5b2b7399760811b6064820152608401610942565b60006003806008613c2f600d6101006157d8565b613c399190615812565b613c439190615812565b613c4d9190615812565b60ff166001901b82161115613c6857613c68338260016136ac565b50613d0a565b6001600160a01b03861615613d0a57613ca181868481518110613ad357634e487b7160e01b600052603260045260246000fd5b613d0a5760405162461bcd60e51b815260206004820152603460248201527f596f75206d75737420686176652061205472616e73666572657220746f6b656e604482015273103a37903a3930b739b332b9103a37b5b2b7399760611b6064820152608401610942565b505b613d15816158c8565b90506137ae565b505b6001600160a01b03841615613f445760005b8351811015613f42576101946001016000858381518110613d6157634e487b7160e01b600052603260045260246000fd5b602002602001015181526020019081526020016000205460001415613e0d57610194600001848281518110613da657634e487b7160e01b600052603260045260246000fd5b6020908102919091018101518254600181018455600093845291832090910155610194548551909161019591879085908110613df257634e487b7160e01b600052603260045260246000fd5b60200260200101518152602001908152602001600020819055505b6101966000866001600160a01b03166001600160a01b031681526020019081526020016000206001016000858381518110613e5857634e487b7160e01b600052603260045260246000fd5b602002602001015181526020019081526020016000205460001415613f32576001600160a01b0385166000908152610196602052604090208451859083908110613eb257634e487b7160e01b600052603260045260246000fd5b6020908102919091018101518254600181810185556000948552838520909101919091556001600160a01b0388168352610196909152604082208054875190939190920191879085908110613f1757634e487b7160e01b600052603260045260246000fd5b60200260200101518152602001908152602001600020819055505b613f3b816158c8565b9050613d30565b505b6001600160a01b038516156140d85760005b83518110156140d657828181518110613f7f57634e487b7160e01b600052603260045260246000fd5b6020026020010151613fab8786848151811061187557634e487b7160e01b600052603260045260246000fd5b116140c6576001600160a01b03861660009081526101966020526040812085516001918201908390889086908110613ff357634e487b7160e01b600052603260045260246000fd5b602002602001015181526020019081526020016000205461401491906157fb565b6001600160a01b0388166000908152610196602052604090208054919250908290811061405157634e487b7160e01b600052603260045260246000fd5b90600052602060002001600090556101966000886001600160a01b03166001600160a01b0316815260200190815260200160002060010160008684815181106140aa57634e487b7160e01b600052603260045260246000fd5b6020026020010151815260200190815260200160002060009055505b6140cf816158c8565b9050613f56565b505b612c408686868686866144a1565b6140f8846001600160a01b0316612a82565b15612c405760405163bc197c8160e01b81526001600160a01b0385169063bc197c81906141319089908990889088908890600401615225565b602060405180830381600087803b15801561414b57600080fd5b505af192505050801561417b575060408051601f3d908101601f1916820190925261417891810190614f4e565b60015b61422857614187615959565b806308c379a014156141c1575061419c615970565b806141a757506141c3565b8060405162461bcd60e51b81526004016109429190615357565b505b60405162461bcd60e51b815260206004820152603460248201527f455243313135353a207472616e7366657220746f206e6f6e20455243313135356044820152732932b1b2b4bb32b91034b6b83632b6b2b73a32b960611b6064820152608401610942565b6001600160e01b0319811663bc197c8160e01b146136a35760405162461bcd60e51b81526004016109429061536a565b61426181612a82565b6142c35760405162461bcd60e51b815260206004820152602d60248201527f455243313936373a206e657720696d706c656d656e746174696f6e206973206e60448201526c1bdd08184818dbdb9d1c9858dd609a1b6064820152608401610942565b600080516020615a9083398151915280546001600160a01b0319166001600160a01b0392909216919091179055565b6142fb836145e5565b6000825111806143085750805b15611b9657610d878383614625565b600054610100900460ff1661433e5760405162461bcd60e51b815260040161094290615608565b611bf433613096565b600054610100900460ff1661436e5760405162461bcd60e51b815260040161094290615608565b61145a81614717565b604080516001808252818301909252606091600091906020808301908036833701905050905082816000815181106143bf57634e487b7160e01b600052603260045260246000fd5b602090810291909101015292915050565b6143e2846001600160a01b0316612a82565b15612c405760405163f23a6e6160e01b81526001600160a01b0385169063f23a6e619061441b9089908990889088908890600401615283565b602060405180830381600087803b15801561443557600080fd5b505af1925050508015614465575060408051601f3d908101601f1916820190925261446291810190614f4e565b60015b61447157614187615959565b6001600160e01b0319811663f23a6e6160e01b146136a35760405162461bcd60e51b81526004016109429061536a565b6001600160a01b0385166145445760005b8351811015614542578281815181106144db57634e487b7160e01b600052603260045260246000fd5b602002602001015160fb600086848151811061450757634e487b7160e01b600052603260045260246000fd5b60200260200101518152602001908152602001600020600082825461452c91906156be565b9091555061453b9050816158c8565b90506144b2565b505b6001600160a01b038416612c405760005b83518110156136a35782818151811061457e57634e487b7160e01b600052603260045260246000fd5b602002602001015160fb60008684815181106145aa57634e487b7160e01b600052603260045260246000fd5b6020026020010151815260200190815260200160002060008282546145cf91906157fb565b909155506145de9050816158c8565b9050614555565b6145ee81614258565b6040516001600160a01b038216907fbc7cd75a20ee27fd9adebab32041f755214dbc6bffa90cc0225b39da2e5c2d3b90600090a250565b606061463083612a82565b61468b5760405162461bcd60e51b815260206004820152602660248201527f416464726573733a2064656c65676174652063616c6c20746f206e6f6e2d636f6044820152651b9d1c9858dd60d21b6064820152608401610942565b600080846001600160a01b0316846040516146a69190615192565b600060405180830381855af49150503d80600081146146e1576040519150601f19603f3d011682016040523d82523d6000602084013e6146e6565b606091505b509150915061470e8282604051806060016040528060278152602001615ab06027913961472a565b95945050505050565b805161197b9060679060208401906147e7565b60608315614739575081611266565b8251156147495782518084602001fd5b8160405162461bcd60e51b81526004016109429190615357565b82805461476f90615861565b90600052602060002090601f01602090048101928261479157600085556147d7565b82601f106147aa5782800160ff198235161785556147d7565b828001600101855582156147d7579182015b828111156147d75782358255916020019190600101906147bc565b506147e392915061485b565b5090565b8280546147f390615861565b90600052602060002090601f01602090048101928261481557600085556147d7565b82601f1061482e57805160ff19168380011785556147d7565b828001600101855582156147d7579182015b828111156147d7578251825591602001919060010190614840565b5b808211156147e3576000815560010161485c565b60006001600160401b0383111561488957614889615943565b6040516148a0601f8501601f19166020018261589c565b8091508381528484840111156148b557600080fd5b83836020830137600060208583010152509392505050565b80356001600160a01b0381168114610a2f57600080fd5b600082601f8301126148f4578081fd5b813560206149018261569b565b60405161490e828261589c565b8381528281019150858301600585901b8701840188101561492d578586fd5b855b8581101561495257614940826148cd565b8452928401929084019060010161492f565b5090979650505050505050565b600082601f83011261496f578081fd5b8135602061497c8261569b565b604051614989828261589c565b8381528281019150858301600585901b870184018810156149a8578586fd5b855b85811015614952576149bb82614a53565b845292840192908401906001016149aa565b600082601f8301126149dd578081fd5b813560206149ea8261569b565b6040516149f7828261589c565b8381528281019150858301600585901b87018401881015614a16578586fd5b855b8581101561495257813584529284019290840190600101614a18565b600082601f830112614a44578081fd5b61126683833560208501614870565b8035600d8110610a2f57600080fd5b60008083601f840112614a73578182fd5b5081356001600160401b03811115614a89578182fd5b602083019150836020828501011115614aa157600080fd5b9250929050565b600060208284031215614ab9578081fd5b611266826148cd565b60008060408385031215614ad4578081fd5b614add836148cd565b9150614aeb602084016148cd565b90509250929050565b600080600080600060a08688031215614b0b578081fd5b614b14866148cd565b9450614b22602087016148cd565b935060408601356001600160401b0380821115614b3d578283fd5b614b4989838a016149cd565b94506060880135915080821115614b5e578283fd5b614b6a89838a016149cd565b93506080880135915080821115614b7f578283fd5b50614b8c88828901614a34565b9150509295509295909350565b600080600080600060a08688031215614bb0578081fd5b614bb9866148cd565b9450614bc7602087016148cd565b9350604086013592506060860135915060808601356001600160401b03811115614bef578182fd5b614b8c88828901614a34565b600080600060608486031215614c0f578081fd5b614c18846148cd565b925060208401356001600160401b0380821115614c33578283fd5b614c3f8783880161495f565b93506040860135915080821115614c54578283fd5b50614c618682870161495f565b9150509250925092565b600080600060608486031215614c7f578081fd5b614c88846148cd565b925060208401356001600160401b0380821115614ca3578283fd5b614caf878388016149cd565b93506040860135915080821115614cc4578283fd5b50614c61868287016149cd565b60008060408385031215614ce3578182fd5b614cec836148cd565b915060208301358015158114614d00578182fd5b809150509250929050565b60008060408385031215614d1d578182fd5b614d26836148cd565b915060208301356001600160401b03811115614d40578182fd5b614d4c85828601614a34565b9150509250929050565b60008060408385031215614d68578182fd5b614d71836148cd565b946020939093013593505050565b600080600060608486031215614d93578081fd5b614d9c846148cd565b95602085013595506040909401359392505050565b60008060008060808587031215614dc6578182fd5b614dcf856148cd565b9350602085013592506040850135915060608501356001600160401b03811115614df7578182fd5b614e0387828801614a34565b91505092959194509250565b60008060408385031215614e21578182fd5b82356001600160401b0380821115614e37578384fd5b614e43868387016148e4565b93506020850135915080821115614e58578283fd5b50614d4c858286016149cd565b600080600060608486031215614e79578081fd5b83356001600160401b0380821115614e8f578283fd5b614e9b878388016148e4565b9450602086013593506040860135915080821115614eb7578283fd5b50614c6186828701614a34565b60008060408385031215614ed6578182fd5b82356001600160401b0380821115614eec578384fd5b614ef88683870161495f565b93506020850135915080821115614f0d578283fd5b50614d4c8582860161495f565b600060208284031215614f2b578081fd5b5051919050565b600060208284031215614f43578081fd5b8135611266816159f9565b600060208284031215614f5f578081fd5b8151611266816159f9565b600060208284031215614f7b578081fd5b61126682614a53565b60008060408385031215614f96578182fd5b614add83614a53565b600080600060608486031215614fb3578081fd5b614fbc84614a53565b9250614fca602085016148cd565b9150604084013590509250925092565b60008060408385031215614fec578182fd5b614d7183614a53565b6000806000806040858703121561500a578182fd5b84356001600160401b0380821115615020578384fd5b61502c88838901614a62565b90965094506020870135915080821115615044578384fd5b5061505187828801614a62565b95989497509550505050565b60006020828403121561506e578081fd5b81356001600160401b03811115615083578182fd5b8201601f81018413615093578182fd5b611df684823560208401614870565b6000602082840312156150b3578081fd5b5035919050565b600080604083850312156150cc578182fd5b8235915060208301358060070b8114614d00578182fd5b6000806000604084860312156150f7578081fd5b8335925060208401356001600160401b03811115615113578182fd5b61511f86828701614a62565b9497909650939450505050565b6000815180845260208085019450808401835b8381101561515b5781518752958201959082019060010161513f565b509495945050505050565b6000815180845261517e816020860160208601615835565b601f01601f19169290920160200192915050565b600082516151a4818460208701615835565b9190910192915050565b7202ab735b737bbb7103937b632903a3cb8329d1606d1b8152600082516151dc816013850160208701615835565b9190910160130192915050565b7302ab735b737bbb7102937b6329024b73232bc1d160651b815260008251615218816014850160208701615835565b9190910160140192915050565b6001600160a01b0386811682528516602082015260a0604082018190526000906152519083018661512c565b8281036060840152615263818661512c565b905082810360808401526152778185615166565b98975050505050505050565b6001600160a01b03868116825285166020820152604081018490526060810183905260a0608082018190526000906152bd90830184615166565b979650505050505050565b602081526000611266602083018461512c565b6040815260006152ee604083018561512c565b828103602084015261470e818561512c565b60208101600d831061532257634e487b7160e01b600052602160045260246000fd5b91905290565b60208152816020820152818360408301376000818301604090810191909152601f909201601f19160101919050565b6020815260006112666020830184615166565b60208082526028908201527f455243313135353a204552433131353552656365697665722072656a656374656040820152676420746f6b656e7360c01b606082015260800190565b60208082526024908201527f455243313135353a206275726e20616d6f756e7420657863656564732062616c604082015263616e636560e01b606082015260800190565b6020808252602c90820152600080516020615a7083398151915260408201526b19195b1959d85d1958d85b1b60a21b606082015260800190565b60208082526029908201527f455243313135353a2063616c6c6572206973206e6f74206f776e6572206e6f7260408201526808185c1c1c9bdd995960ba1b606082015260800190565b6020808252602c90820152600080516020615a7083398151915260408201526b6163746976652070726f787960a01b606082015260800190565b60208082526025908201527f455243313135353a207472616e7366657220746f20746865207a65726f206164604082015264647265737360d81b606082015260800190565b60208082526023908201527f455243313135353a206275726e2066726f6d20746865207a65726f206164647260408201526265737360e81b606082015260800190565b6020808252602a908201527f455243313135353a20696e73756666696369656e742062616c616e636520666f60408201526939103a3930b739b332b960b11b606082015260800190565b6020808252818101527f4f776e61626c653a2063616c6c6572206973206e6f7420746865206f776e6572604082015260600190565b6020808252602e908201527f4552432d3131353520456e756d657261626c653a20746f6b656e20696e64657860408201526d206f7574206f6620626f756e647360901b606082015260800190565b6020808252602b908201527f496e697469616c697a61626c653a20636f6e7472616374206973206e6f74206960408201526a6e697469616c697a696e6760a81b606082015260800190565b60208082526028908201527f455243313135353a2069647320616e6420616d6f756e7473206c656e677468206040820152670dad2e6dac2e8c6d60c31b606082015260800190565b60006001600160401b038211156156b4576156b4615943565b5060051b60200190565b600082198211156156d1576156d1615917565b500190565b6000826156e5576156e561592d565b500490565b600181815b8085111561572557816000190482111561570b5761570b615917565b8085161561571857918102915b93841c93908002906156ef565b509250929050565b600061126660ff84168360008261574657506001610970565b8161575357506000610970565b816001811461576957600281146157735761578f565b6001915050610970565b60ff84111561578457615784615917565b50506001821b610970565b5060208310610133831016604e8410600b84101617156157b2575081810a610970565b6157bc83836156ea565b80600019048211156157d0576157d0615917565b029392505050565b600061ffff838116908316818110156157f3576157f3615917565b039392505050565b60008282101561580d5761580d615917565b500390565b600060ff821660ff84168082101561582c5761582c615917565b90039392505050565b60005b83811015615850578181015183820152602001615838565b83811115610d875750506000910152565b600181811c9082168061587557607f821691505b6020821081141561589657634e487b7160e01b600052602260045260246000fd5b50919050565b601f8201601f191681016001600160401b03811182821017156158c1576158c1615943565b6040525050565b60006000198214156158dc576158dc615917565b5060010190565b600060ff821660ff8114156158fa576158fa615917565b60010192915050565b6000826159125761591261592d565b500690565b634e487b7160e01b600052601160045260246000fd5b634e487b7160e01b600052601260045260246000fd5b634e487b7160e01b600052604160045260246000fd5b600060033d1115611afa57600481823e5160e01c90565b600060443d101561597e5790565b6040516003193d81016004833e81513d6001600160401b0380831160248401831017156159ad57505050505090565b82850191508151818111156159c55750505050505090565b843d87010160208285010111156159df5750505050505090565b6159ee6020828601018761589c565b509095945050505050565b6001600160e01b03198116811461145a57600080fdfe4a39dc06d4c0dbc64b70af90fd698a233a518aa5d07e595d983b8c0526c8f7fbc3d58168c5ae7397731d063d5bbf3d657854427343f4c083240f7aacaa2d0f62a6f1ac7ad7b125ba5a5e1c96b00ad6914f90a503b1ac3d85a9dadbb4c639df9246756e6374696f6e206d7573742062652063616c6c6564207468726f75676820360894a13ba1a3210667c828492db98dca3e2076cc3735a920a3ca505d382bbc416464726573733a206c6f772d6c6576656c2064656c65676174652063616c6c206661696c6564a2646970667358221220cc838a7e936fd9f74441c67139f34348b46320dc5a88e2a5734bf8f14e9ac4f264736f6c63430008040033",
  "linkReferences": {},
  "deployedLinkReferences": {}
}