{
  "_format": "hh-sol-artifact-1",
  "contractName": "BulkDisbursableNFTs",
  "sourceName": "src/BulkDisbursableNFTs.sol",
  "abi": [
    {
      "inputs": [],
      "stateMutability": "nonpayable",
      "type": "constructor"
    },
    {
      "anonymous": false,
      "inputs": [
        {
          "indexed": false,
          "internalType": "address",
          "name": "previousAdmin",
          "type": "address"
        },
        {
          "indexed": false,
          "internalType": "address",
          "name": "newAdmin",
          "type": "address"
        }
      ],
      "name": "AdminChanged",
      "type": "event"
    },
    {
      "anonymous": false,
      "inputs": [
        {
          "indexed": true,
          "internalType": "address",
          "name": "account",
          "type": "address"
        },
        {
          "indexed": true,
          "internalType": "address",
          "name": "operator",
          "type": "address"
        },
        {
          "indexed": false,
          "internalType": "bool",
          "name": "approved",
          "type": "bool"
        }
      ],
      "name": "ApprovalForAll",
      "type": "event"
    },
    {
      "anonymous": false,
      "inputs": [
        {
          "indexed": true,
          "internalType": "address",
          "name": "beacon",
          "type": "address"
        }
      ],
      "name": "BeaconUpgraded",
      "type": "event"
    },
    {
      "anonymous": false,
      "inputs": [
        {
          "indexed": false,
          "internalType": "uint256",
          "name": "id",
          "type": "uint256"
        },
        {
          "indexed": false,
          "internalType": "address",
          "name": "controller",
          "type": "address"
        }
      ],
      "name": "Created",
      "type": "event"
    },
    {
      "anonymous": false,
      "inputs": [
        {
          "indexed": true,
          "internalType": "address",
          "name": "previousOwner",
          "type": "address"
        },
        {
          "indexed": true,
          "internalType": "address",
          "name": "newOwner",
          "type": "address"
        }
      ],
      "name": "OwnershipTransferred",
      "type": "event"
    },
    {
      "anonymous": false,
      "inputs": [
        {
          "indexed": true,
          "internalType": "address",
          "name": "operator",
          "type": "address"
        },
        {
          "indexed": true,
          "internalType": "address",
          "name": "from",
          "type": "address"
        },
        {
          "indexed": true,
          "internalType": "address",
          "name": "to",
          "type": "address"
        },
        {
          "indexed": false,
          "internalType": "uint256[]",
          "name": "ids",
          "type": "uint256[]"
        },
        {
          "indexed": false,
          "internalType": "uint256[]",
          "name": "values",
          "type": "uint256[]"
        }
      ],
      "name": "TransferBatch",
      "type": "event"
    },
    {
      "anonymous": false,
      "inputs": [
        {
          "indexed": true,
          "internalType": "address",
          "name": "operator",
          "type": "address"
        },
        {
          "indexed": true,
          "internalType": "address",
          "name": "from",
          "type": "address"
        },
        {
          "indexed": true,
          "internalType": "address",
          "name": "to",
          "type": "address"
        },
        {
          "indexed": false,
          "internalType": "uint256",
          "name": "id",
          "type": "uint256"
        },
        {
          "indexed": false,
          "internalType": "uint256",
          "name": "value",
          "type": "uint256"
        }
      ],
      "name": "TransferSingle",
      "type": "event"
    },
    {
      "anonymous": false,
      "inputs": [
        {
          "indexed": false,
          "internalType": "string",
          "name": "value",
          "type": "string"
        },
        {
          "indexed": true,
          "internalType": "uint256",
          "name": "id",
          "type": "uint256"
        }
      ],
      "name": "URI",
      "type": "event"
    },
    {
      "anonymous": false,
      "inputs": [
        {
          "indexed": true,
          "internalType": "address",
          "name": "implementation",
          "type": "address"
        }
      ],
      "name": "Upgraded",
      "type": "event"
    },
    {
      "inputs": [
        {
          "internalType": "address",
          "name": "account",
          "type": "address"
        },
        {
          "internalType": "uint256",
          "name": "id",
          "type": "uint256"
        }
      ],
      "name": "balanceOf",
      "outputs": [
        {
          "internalType": "uint256",
          "name": "",
          "type": "uint256"
        }
      ],
      "stateMutability": "view",
      "type": "function"
    },
    {
      "inputs": [
        {
          "internalType": "address[]",
          "name": "accounts",
          "type": "address[]"
        },
        {
          "internalType": "uint256[]",
          "name": "ids",
          "type": "uint256[]"
        }
      ],
      "name": "balanceOfBatch",
      "outputs": [
        {
          "internalType": "uint256[]",
          "name": "",
          "type": "uint256[]"
        }
      ],
      "stateMutability": "view",
      "type": "function"
    },
    {
      "inputs": [
        {
          "internalType": "address",
          "name": "owner",
          "type": "address"
        },
        {
          "internalType": "uint256",
          "name": "id",
          "type": "uint256"
        },
        {
          "internalType": "uint256",
          "name": "quantity",
          "type": "uint256"
        }
      ],
      "name": "burn",
      "outputs": [],
      "stateMutability": "nonpayable",
      "type": "function"
    },
    {
      "inputs": [
        {
          "internalType": "address",
          "name": "account",
          "type": "address"
        },
        {
          "internalType": "uint256[]",
          "name": "ids",
          "type": "uint256[]"
        },
        {
          "internalType": "uint256[]",
          "name": "values",
          "type": "uint256[]"
        }
      ],
      "name": "burnBatch",
      "outputs": [],
      "stateMutability": "nonpayable",
      "type": "function"
    },
    {
      "inputs": [
        {
          "internalType": "uint256",
          "name": "id",
          "type": "uint256"
        },
        {
          "internalType": "string",
          "name": "newURI",
          "type": "string"
        },
        {
          "internalType": "uint256",
          "name": "max",
          "type": "uint256"
        }
      ],
      "name": "configure",
      "outputs": [],
      "stateMutability": "nonpayable",
      "type": "function"
    },
    {
      "inputs": [
        {
          "internalType": "enum BulkDisbursableNFTs.Role[]",
          "name": "roles",
          "type": "uint8[]"
        }
      ],
      "name": "create",
      "outputs": [
        {
          "internalType": "uint256",
          "name": "id",
          "type": "uint256"
        }
      ],
      "stateMutability": "nonpayable",
      "type": "function"
    },
    {
      "inputs": [
        {
          "internalType": "address",
          "name": "maintainer",
          "type": "address"
        },
        {
          "internalType": "enum BulkDisbursableNFTs.Role[]",
          "name": "roles",
          "type": "uint8[]"
        }
      ],
      "name": "create",
      "outputs": [
        {
          "internalType": "uint256",
          "name": "id",
          "type": "uint256"
        }
      ],
      "stateMutability": "nonpayable",
      "type": "function"
    },
    {
      "inputs": [],
      "name": "create",
      "outputs": [
        {
          "internalType": "uint256",
          "name": "id",
          "type": "uint256"
        }
      ],
      "stateMutability": "nonpayable",
      "type": "function"
    },
    {
      "inputs": [
        {
          "internalType": "enum BulkDisbursableNFTs.Role",
          "name": "toDisable",
          "type": "uint8"
        },
        {
          "internalType": "uint256",
          "name": "tokenId",
          "type": "uint256"
        }
      ],
      "name": "disableRole",
      "outputs": [],
      "stateMutability": "nonpayable",
      "type": "function"
    },
    {
      "inputs": [
        {
          "internalType": "uint256",
          "name": "id",
          "type": "uint256"
        }
      ],
      "name": "exists",
      "outputs": [
        {
          "internalType": "bool",
          "name": "",
          "type": "bool"
        }
      ],
      "stateMutability": "view",
      "type": "function"
    },
    {
      "inputs": [
        {
          "internalType": "enum BulkDisbursableNFTs.Role",
          "name": "role",
          "type": "uint8"
        },
        {
          "internalType": "address",
          "name": "user",
          "type": "address"
        },
        {
          "internalType": "uint256",
          "name": "index",
          "type": "uint256"
        }
      ],
      "name": "gateToken",
      "outputs": [
        {
          "internalType": "uint256",
          "name": "id",
          "type": "uint256"
        }
      ],
      "stateMutability": "view",
      "type": "function"
    },
    {
      "inputs": [
        {
          "internalType": "enum BulkDisbursableNFTs.Role",
          "name": "role",
          "type": "uint8"
        },
        {
          "internalType": "address",
          "name": "user",
          "type": "address"
        }
      ],
      "name": "grantRole",
      "outputs": [],
      "stateMutability": "nonpayable",
      "type": "function"
    },
    {
      "inputs": [
        {
          "internalType": "enum BulkDisbursableNFTs.Role",
          "name": "role",
          "type": "uint8"
        },
        {
          "internalType": "address",
          "name": "user",
          "type": "address"
        },
        {
          "internalType": "uint256",
          "name": "index",
          "type": "uint256"
        }
      ],
      "name": "grantRole",
      "outputs": [],
      "stateMutability": "nonpayable",
      "type": "function"
    },
    {
      "inputs": [
        {
          "internalType": "enum BulkDisbursableNFTs.Role",
          "name": "role",
          "type": "uint8"
        }
      ],
      "name": "hasRole",
      "outputs": [
        {
          "internalType": "bool",
          "name": "has",
          "type": "bool"
        }
      ],
      "stateMutability": "view",
      "type": "function"
    },
    {
      "inputs": [
        {
          "internalType": "enum BulkDisbursableNFTs.Role",
          "name": "role",
          "type": "uint8"
        },
        {
          "internalType": "address",
          "name": "user",
          "type": "address"
        },
        {
          "internalType": "uint256",
          "name": "id",
          "type": "uint256"
        }
      ],
      "name": "hasRole",
      "outputs": [
        {
          "internalType": "bool",
          "name": "has",
          "type": "bool"
        }
      ],
      "stateMutability": "view",
      "type": "function"
    },
    {
      "inputs": [
        {
          "internalType": "enum BulkDisbursableNFTs.Role",
          "name": "role",
          "type": "uint8"
        },
        {
          "internalType": "uint256",
          "name": "id",
          "type": "uint256"
        }
      ],
      "name": "hasRole",
      "outputs": [
        {
          "internalType": "bool",
          "name": "has",
          "type": "bool"
        }
      ],
      "stateMutability": "view",
      "type": "function"
    },
    {
      "inputs": [
        {
          "internalType": "enum BulkDisbursableNFTs.Role",
          "name": "role",
          "type": "uint8"
        },
        {
          "internalType": "address",
          "name": "user",
          "type": "address"
        }
      ],
      "name": "hasRole",
      "outputs": [
        {
          "internalType": "bool",
          "name": "has",
          "type": "bool"
        }
      ],
      "stateMutability": "view",
      "type": "function"
    },
    {
      "inputs": [
        {
          "internalType": "string",
          "name": "_name",
          "type": "string"
        },
        {
          "internalType": "string",
          "name": "_symbol",
          "type": "string"
        }
      ],
      "name": "initialize",
      "outputs": [],
      "stateMutability": "nonpayable",
      "type": "function"
    },
    {
      "inputs": [
        {
          "internalType": "address",
          "name": "account",
          "type": "address"
        },
        {
          "internalType": "address",
          "name": "operator",
          "type": "address"
        }
      ],
      "name": "isApprovedForAll",
      "outputs": [
        {
          "internalType": "bool",
          "name": "",
          "type": "bool"
        }
      ],
      "stateMutability": "view",
      "type": "function"
    },
    {
      "inputs": [
        {
          "internalType": "address",
          "name": "user",
          "type": "address"
        }
      ],
      "name": "isSuper",
      "outputs": [
        {
          "internalType": "bool",
          "name": "superuser",
          "type": "bool"
        }
      ],
      "stateMutability": "view",
      "type": "function"
    },
    {
      "inputs": [],
      "name": "isSuper",
      "outputs": [
        {
          "internalType": "bool",
          "name": "superuser",
          "type": "bool"
        }
      ],
      "stateMutability": "view",
      "type": "function"
    },
    {
      "inputs": [
        {
          "internalType": "address[]",
          "name": "to",
          "type": "address[]"
        },
        {
          "internalType": "uint256",
          "name": "id",
          "type": "uint256"
        },
        {
          "internalType": "bytes",
          "name": "data",
          "type": "bytes"
        }
      ],
      "name": "mint",
      "outputs": [],
      "stateMutability": "nonpayable",
      "type": "function"
    },
    {
      "inputs": [
        {
          "internalType": "address",
          "name": "recipient",
          "type": "address"
        },
        {
          "internalType": "uint256",
          "name": "id",
          "type": "uint256"
        },
        {
          "internalType": "uint256",
          "name": "amount",
          "type": "uint256"
        },
        {
          "internalType": "bytes",
          "name": "data",
          "type": "bytes"
        }
      ],
      "name": "mint",
      "outputs": [
        {
          "internalType": "bool",
          "name": "minted",
          "type": "bool"
        }
      ],
      "stateMutability": "nonpayable",
      "type": "function"
    },
    {
      "inputs": [],
      "name": "name",
      "outputs": [
        {
          "internalType": "string",
          "name": "",
          "type": "string"
        }
      ],
      "stateMutability": "view",
      "type": "function"
    },
    {
      "inputs": [],
      "name": "owner",
      "outputs": [
        {
          "internalType": "address",
          "name": "",
          "type": "address"
        }
      ],
      "stateMutability": "view",
      "type": "function"
    },
    {
      "inputs": [],
      "name": "proxiableUUID",
      "outputs": [
        {
          "internalType": "bytes32",
          "name": "",
          "type": "bytes32"
        }
      ],
      "stateMutability": "view",
      "type": "function"
    },
    {
      "inputs": [],
      "name": "renounceOwnership",
      "outputs": [],
      "stateMutability": "nonpayable",
      "type": "function"
    },
    {
      "inputs": [
        {
          "internalType": "enum BulkDisbursableNFTs.Role",
          "name": "role",
          "type": "uint8"
        }
      ],
      "name": "roleToken",
      "outputs": [
        {
          "internalType": "uint256",
          "name": "id",
          "type": "uint256"
        }
      ],
      "stateMutability": "view",
      "type": "function"
    },
    {
      "inputs": [
        {
          "internalType": "enum BulkDisbursableNFTs.Role",
          "name": "role",
          "type": "uint8"
        },
        {
          "internalType": "uint256",
          "name": "index",
          "type": "uint256"
        }
      ],
      "name": "roleToken",
      "outputs": [
        {
          "internalType": "uint256",
          "name": "id",
          "type": "uint256"
        }
      ],
      "stateMutability": "view",
      "type": "function"
    },
    {
      "inputs": [
        {
          "internalType": "string",
          "name": "roleName",
          "type": "string"
        }
      ],
      "name": "roleValueForName",
      "outputs": [
        {
          "internalType": "enum BulkDisbursableNFTs.Role",
          "name": "role",
          "type": "uint8"
        }
      ],
      "stateMutability": "pure",
      "type": "function"
    },
    {
      "inputs": [
        {
          "internalType": "address",
          "name": "from",
          "type": "address"
        },
        {
          "internalType": "address",
          "name": "to",
          "type": "address"
        },
        {
          "internalType": "uint256[]",
          "name": "ids",
          "type": "uint256[]"
        },
        {
          "internalType": "uint256[]",
          "name": "amounts",
          "type": "uint256[]"
        },
        {
          "internalType": "bytes",
          "name": "data",
          "type": "bytes"
        }
      ],
      "name": "safeBatchTransferFrom",
      "outputs": [],
      "stateMutability": "nonpayable",
      "type": "function"
    },
    {
      "inputs": [
        {
          "internalType": "address",
          "name": "from",
          "type": "address"
        },
        {
          "internalType": "address",
          "name": "to",
          "type": "address"
        },
        {
          "internalType": "uint256",
          "name": "id",
          "type": "uint256"
        },
        {
          "internalType": "uint256",
          "name": "amount",
          "type": "uint256"
        },
        {
          "internalType": "bytes",
          "name": "data",
          "type": "bytes"
        }
      ],
      "name": "safeTransferFrom",
      "outputs": [],
      "stateMutability": "nonpayable",
      "type": "function"
    },
    {
      "inputs": [
        {
          "internalType": "address",
          "name": "operator",
          "type": "address"
        },
        {
          "internalType": "bool",
          "name": "approved",
          "type": "bool"
        }
      ],
      "name": "setApprovalForAll",
      "outputs": [],
      "stateMutability": "nonpayable",
      "type": "function"
    },
    {
      "inputs": [
        {
          "internalType": "string",
          "name": "_name",
          "type": "string"
        },
        {
          "internalType": "string",
          "name": "_symbol",
          "type": "string"
        }
      ],
      "name": "setDescription",
      "outputs": [],
      "stateMutability": "nonpayable",
      "type": "function"
    },
    {
      "inputs": [
        {
          "internalType": "uint256",
          "name": "id",
          "type": "uint256"
        },
        {
          "internalType": "uint256",
          "name": "max",
          "type": "uint256"
        }
      ],
      "name": "setMax",
      "outputs": [],
      "stateMutability": "nonpayable",
      "type": "function"
    },
    {
      "inputs": [
        {
          "internalType": "uint256",
          "name": "id",
          "type": "uint256"
        },
        {
          "internalType": "string",
          "name": "newURI",
          "type": "string"
        }
      ],
      "name": "setURI",
      "outputs": [],
      "stateMutability": "nonpayable",
      "type": "function"
    },
    {
      "inputs": [
        {
          "internalType": "bytes4",
          "name": "interfaceId",
          "type": "bytes4"
        }
      ],
      "name": "supportsInterface",
      "outputs": [
        {
          "internalType": "bool",
          "name": "",
          "type": "bool"
        }
      ],
      "stateMutability": "view",
      "type": "function"
    },
    {
      "inputs": [],
      "name": "symbol",
      "outputs": [
        {
          "internalType": "string",
          "name": "",
          "type": "string"
        }
      ],
      "stateMutability": "view",
      "type": "function"
    },
    {
      "inputs": [
        {
          "internalType": "uint256",
          "name": "index",
          "type": "uint256"
        }
      ],
      "name": "tokenByIndex",
      "outputs": [
        {
          "internalType": "uint256",
          "name": "id",
          "type": "uint256"
        }
      ],
      "stateMutability": "view",
      "type": "function"
    },
    {
      "inputs": [
        {
          "internalType": "uint256",
          "name": "id",
          "type": "uint256"
        }
      ],
      "name": "tokenIndex",
      "outputs": [
        {
          "internalType": "uint256",
          "name": "index",
          "type": "uint256"
        }
      ],
      "stateMutability": "view",
      "type": "function"
    },
    {
      "inputs": [
        {
          "internalType": "address",
          "name": "owner",
          "type": "address"
        },
        {
          "internalType": "uint256",
          "name": "index",
          "type": "uint256"
        }
      ],
      "name": "tokenOfOwnerByIndex",
      "outputs": [
        {
          "internalType": "uint256",
          "name": "id",
          "type": "uint256"
        }
      ],
      "stateMutability": "view",
      "type": "function"
    },
    {
      "inputs": [
        {
          "internalType": "uint256",
          "name": "id",
          "type": "uint256"
        }
      ],
      "name": "totalSupply",
      "outputs": [
        {
          "internalType": "uint256",
          "name": "",
          "type": "uint256"
        }
      ],
      "stateMutability": "view",
      "type": "function"
    },
    {
      "inputs": [
        {
          "internalType": "address",
          "name": "newOwner",
          "type": "address"
        }
      ],
      "name": "transferOwnership",
      "outputs": [],
      "stateMutability": "nonpayable",
      "type": "function"
    },
    {
      "inputs": [],
      "name": "typeSupply",
      "outputs": [
        {
          "internalType": "uint256",
          "name": "count",
          "type": "uint256"
        }
      ],
      "stateMutability": "view",
      "type": "function"
    },
    {
      "inputs": [
        {
          "internalType": "address",
          "name": "newImplementation",
          "type": "address"
        }
      ],
      "name": "upgradeTo",
      "outputs": [],
      "stateMutability": "nonpayable",
      "type": "function"
    },
    {
      "inputs": [
        {
          "internalType": "address",
          "name": "newImplementation",
          "type": "address"
        },
        {
          "internalType": "bytes",
          "name": "data",
          "type": "bytes"
        }
      ],
      "name": "upgradeToAndCall",
      "outputs": [],
      "stateMutability": "payable",
      "type": "function"
    },
    {
      "inputs": [
        {
          "internalType": "uint256",
          "name": "id",
          "type": "uint256"
        }
      ],
      "name": "uri",
      "outputs": [
        {
          "internalType": "string",
          "name": "metadata",
          "type": "string"
        }
      ],
      "stateMutability": "view",
      "type": "function"
    }
  ],
  "bytecode": "0x60a06040523060601b6080523480156200001857600080fd5b50600054610100900460ff16620000365760005460ff161562000040565b62000040620000e5565b620000a85760405162461bcd60e51b815260206004820152602e60248201527f496e697469616c697a61626c653a20636f6e747261637420697320616c72656160448201526d191e481a5b9a5d1a585b1a5e995960921b606482015260840160405180910390fd5b600054610100900460ff16158015620000cb576000805461ffff19166101011790555b8015620000de576000805461ff00191690555b5062000112565b6000620000fd306200010360201b620025101760201c565b15905090565b6001600160a01b03163b151590565b60805160601c6152aa6200014d6000396000818161155e0152818161159e01528181611b0501528181611b450152611c7901526152aa6000f3fe6080604052600436106102175760003560e01c8062fdd58e1461021c57806301ffc9a71461024f5780630583e9f81461027f57806306fdde031461029f5780630e89341c146102c15780630ec0370f146102e157806314c464271461030357806316730ab01461032357806319e0755c146103435780632a7ccf13146103635780632eb2c2d6146103905780632f745c59146103b05780633659cfe6146103d05780633b91ceef146103f05780633dbe35de146104105780634468031f1461043057806348289589146104505780634cd88b76146104705780634e1273f4146104905780634f1ef286146104bd5780634f558e79146104d05780634f6ccce7146104ff57806352d1902d1461051f5780635d5664e1146105345780635dca8ae2146105545780636755d456146105745780636b20c45414610594578063715018a6146105b4578063731133e9146105c9578063862440e2146105e95780638da5cb5b1461060957806395d89b41146106365780639d6d7eaa1461064b5780639d969a9c1461066b5780639e97b8f614610680578063a22cb465146106a0578063aa8e9066146106c0578063bd85b039146106e0578063c3c8df991461070d578063dd25c91f1461072d578063e985e9c51461074d578063edc79bac14610796578063efc81a8c146107ab578063f242432a146107c0578063f2fde38b146107e0578063f5298aca14610800578063fde4047a14610820575b600080fd5b34801561022857600080fd5b5061023c610237366004614585565b610840565b6040519081526020015b60405180910390f35b34801561025b57600080fd5b5061026f61026a36600461473d565b6108dc565b6040519015158152602001610246565b34801561028b57600080fd5b5061023c61029a3660046148ad565b61092c565b3480156102ab57600080fd5b506102b461099a565b6040516102469190614b33565b3480156102cd57600080fd5b506102b46102dc3660046148ad565b610a29565b3480156102ed57600080fd5b506103016102fc366004614694565b610c9c565b005b34801561030f57600080fd5b5061023c61031e366004614775565b610cf3565b34801561032f57600080fd5b5061023c61033e3660046147aa565b610d00565b34801561034f57600080fd5b5061026f61035e366004614775565b61111f565b34801561036f57600080fd5b5061038361037e366004614868565b61112b565b6040516102469190614adc565b34801561039c57600080fd5b506103016103ab366004614348565b611438565b3480156103bc57600080fd5b5061023c6103cb366004614585565b6114cf565b3480156103dc57600080fd5b506103016103eb3660046142fc565b611553565b3480156103fc57600080fd5b5061030161040b36600461495e565b61161c565b34801561041c57600080fd5b5061023c61042b3660046147e5565b61169f565b34801561043c57600080fd5b5061026f61044b3660046147aa565b61181a565b34801561045c57600080fd5b5061026f61046b3660046147e5565b611841565b34801561047c57600080fd5b5061030161048b366004614800565b61184e565b34801561049c57600080fd5b506104b06104ab36600461463e565b611999565b6040516102469190614aa4565b6103016104cb366004614544565b611afa565b3480156104dc57600080fd5b5061026f6104eb3660046148ad565b600090815260fb6020526040902054151590565b34801561050b57600080fd5b5061023c61051a3660046148ad565b611bb0565b34801561052b57600080fd5b5061023c611c6c565b34801561054057600080fd5b5061030161054f36600461478f565b611d1b565b34801561056057600080fd5b5061023c61056f3660046146f3565b611d27565b34801561058057600080fd5b5061030161058f366004614800565b611d33565b3480156105a057600080fd5b506103016105af36600461449a565b611d7d565b3480156105c057600080fd5b50610301611dc5565b3480156105d557600080fd5b5061026f6105e43660046145e0565b611e00565b3480156105f557600080fd5b506103016106043660046148c5565b612008565b34801561061557600080fd5b5061061e6120e4565b6040516001600160a01b039091168152602001610246565b34801561064257600080fd5b506102b46120f3565b34801561065757600080fd5b5061030161066636600461490e565b612101565b34801561067757600080fd5b5061023c612116565b34801561068c57600080fd5b5061026f61069b36600461478f565b61212e565b3480156106ac57600080fd5b506103016106bb36600461450a565b61213c565b3480156106cc57600080fd5b506103016106db3660046147aa565b612147565b3480156106ec57600080fd5b5061023c6106fb3660046148ad565b600090815260fb602052604090205490565b34801561071957600080fd5b5061026f6107283660046142fc565b612154565b34801561073957600080fd5b5061023c61074836600461444f565b612189565b34801561075957600080fd5b5061026f610768366004614316565b6001600160a01b03918216600090815260666020908152604080832093909416825291909152205460ff1690565b3480156107a257600080fd5b5061026f6122ff565b3480156107b757600080fd5b5061023c61230a565b3480156107cc57600080fd5b506103016107db3660046143ed565b61232a565b3480156107ec57600080fd5b506103016107fb3660046142fc565b61236f565b34801561080c57600080fd5b5061030161081b3660046145ae565b61240c565b34801561082c57600080fd5b5061030161083b3660046147e5565b612496565b60006001600160a01b0383166108b15760405162461bcd60e51b815260206004820152602b60248201527f455243313135353a2062616c616e636520717565727920666f7220746865207a60448201526a65726f206164647265737360a81b60648201526084015b60405180910390fd5b5060008181526065602090815260408083206001600160a01b03861684529091529020545b92915050565b60006001600160e01b03198216636cdb3d1360e11b148061090d57506001600160e01b031982166303a24d0760e21b145b806108d657506301ffc9a760e01b6001600160e01b03198316146108d6565b60008181526101956020526040902054806109955760405162461bcd60e51b815260206004820152602360248201527f5468652072657175657374656420746f6b656e20646f6573206e6f742065786960448201526239ba1760e91b60648201526084016108a8565b919050565b61019180546109a890615029565b80601f01602080910402602001604051908101604052809291908181526020018280546109d490615029565b8015610a215780601f106109f657610100808354040283529160200191610a21565b820191906000526020600020905b815481529060010190602001808311610a0457829003601f168201915b505050505081565b600081815261019360205260409020805460609190610a4790615029565b80601f0160208091040260200160405190810160405280929190818152602001828054610a7390615029565b8015610ac05780601f10610a9557610100808354040283529160200191610ac0565b820191906000526020600020905b815481529060010190602001808311610aa357829003601f168201915b50505050509050805160001415610995576008610ae0600d610100614fa0565b610aea9190614fda565b600160ff919091161b6008610b02600d610100614fa0565b610b0c9190614fda565b60ff166001610b1d60086002614ef5565b610b279190614fc3565b901b83161415610995576000600160088160038083610b49600d610100614fa0565b610b539190614fda565b610b5d9190614fda565b610b679190614fda565b610b719190614fda565b610b7b9190614fda565b610b859190614fda565b60ff166001610b95816002614ef5565b610b9f9190614fc3565b901b6003806008610bb3600d610100614fa0565b610bbd9190614fda565b610bc79190614fda565b610bd19190614fda565b60ff166001901b1719600160206002610bea9190614ef5565b610bf49190614fc3565b19841616600081815261019360205260409020805491925090610c1690615029565b80601f0160208091040260200160405190810160405280929190818152602001828054610c4290615029565b8015610c8f5780601f10610c6457610100808354040283529160200191610c8f565b820191906000526020600020905b815481529060010190602001808311610c7257829003601f168201915b5050505050915050919050565b60005b8351811015610ced57610cdc848281518110610ccb57634e487b7160e01b600052603260045260246000fd5b602002602001015184600185611e00565b50610ce681615090565b9050610c9f565b50505050565b60006108d682600061169f565b600080610d0c85610cf3565b9050600061019581856008610d24600d610100614fa0565b610d2e9190614fda565b60ff16600a901b851717815260200190815260200160002054905080600014610d8857610194805482908110610d7457634e487b7160e01b600052603260045260246000fd5b906000526020600020015492505050611118565b6000604051806101000160405280866001600860016003806008600d60ff16610100610db49190614fa0565b610dbe9190614fda565b610dc89190614fda565b610dd29190614fda565b610ddc9190614fda565b610de69190614fda565b610df09190614fda565b60ff166001610e00816002614ef5565b610e0a9190614fc3565b901b6003806008610e1e600d610100614fa0565b610e289190614fda565b610e329190614fda565b610e3c9190614fda565b600160ff919091161b871717178152602001866003806008610e61600d610100614fa0565b610e6b9190614fda565b610e759190614fda565b610e7f9190614fda565b60ff166001901b86171781526020016001600860016003806008600d60ff16610100610eab9190614fa0565b610eb59190614fda565b610ebf9190614fda565b610ec99190614fda565b610ed39190614fda565b610edd9190614fda565b610ee79190614fda565b60ff166001610ef7816002614ef5565b610f019190614fc3565b901b6003806008610f15600d610100614fa0565b610f1f9190614fda565b610f299190614fda565b610f339190614fda565b600160ff919091161b86171781526020016003806008610f56600d610100614fa0565b610f609190614fda565b610f6a9190614fda565b610f749190614fda565b60ff166001901b85178152602001866001600860016003806008600d60ff16610100610fa09190614fa0565b610faa9190614fda565b610fb49190614fda565b610fbe9190614fda565b610fc89190614fda565b610fd29190614fda565b610fdc9190614fda565b60ff166001610fec816002614ef5565b610ff69190614fc3565b901b8617178152602001600160088160038083611016600d610100614fa0565b6110209190614fda565b61102a9190614fda565b6110349190614fda565b61103e9190614fda565b6110489190614fda565b6110529190614fda565b60ff166001611062816002614ef5565b61106c9190614fc3565b901b851781528685176020820152604001849052905060005b60088160ff16101561110f5760006110c488848460ff16600881106110ba57634e487b7160e01b600052603260045260246000fd5b6020020151610840565b11156110fd57818160ff16600881106110ed57634e487b7160e01b600052603260045260246000fd5b6020020151945050505050611118565b80611107816150ab565b915050611085565b50600093505050505b9392505050565b60006108d6823361212e565b6000808260405160200161113f91906149e5565b604051602081830303815290604052805190602001209050604051602001611176906829bab832b93ab9b2b960b91b815260090190565b6040516020818303038152906040528051906020012081141561119c5750600192915050565b6040516526b4b73a32b960d11b6020820152602601604051602081830303815290604052805190602001208114156111d75750600292915050565b6040516521b0b9ba32b960d11b6020820152602601604051602081830303815290604052805190602001208114156112125750600392915050565b604051692a3930b739b332b932b960b11b6020820152602a01604051602081830303815290604052805190602001208114156112515750600492915050565b6040516921b7b73334b3bab932b960b11b6020820152602a01604051602081830303815290604052805190602001208114156112905750600592915050565b6040516926b0b4b73a30b4b732b960b11b6020820152602a01604051602081830303815290604052805190602001208114156112cf5750600692915050565b6040516621b932b0ba37b960c91b60208201526027016040516020818303038152906040528051906020012081141561130b5750600792915050565b604051662634b6b4ba32b960c91b6020820152602701604051602081830303815290604052805190602001208114156113475750600892915050565b60405165213ab93732b960d11b6020820152602601604051602081830303815290604052805190602001208114156113825750600992915050565b604051682232b9ba3937bcb2b960b91b6020820152602901604051602081830303815290604052805190602001208114156113c05750600a92915050565b604051654f7261636c6560d01b6020820152602601604051602081830303815290604052805190602001208114156113fb5750600b92915050565b60405162461bcd60e51b81526020600482015260126024820152712ab735b737bbb7103937b632903a3cb8329760711b60448201526064016108a8565b6001600160a01b03851633148061145457506114548533610768565b6114bb5760405162461bcd60e51b815260206004820152603260248201527f455243313135353a207472616e736665722063616c6c6572206973206e6f74206044820152711bdddb995c881b9bdc88185c1c1c9bdd995960721b60648201526084016108a8565b6114c8858585858561251f565b5050505050565b6001600160a01b0382166000908152610196602052604081205482106115075760405162461bcd60e51b81526004016108a890614d96565b6001600160a01b03831660009081526101966020526040902080548390811061154057634e487b7160e01b600052603260045260246000fd5b9060005260206000200154905092915050565b306001600160a01b037f000000000000000000000000000000000000000000000000000000000000000016141561159c5760405162461bcd60e51b81526004016108a890614bd2565b7f00000000000000000000000000000000000000000000000000000000000000006001600160a01b03166115ce6126d6565b6001600160a01b0316146115f45760405162461bcd60e51b81526004016108a890614c55565b6115fd816126f2565b6040805160008082526020820190925261161991839190612778565b50565b611627600883611841565b8061163557506116356122ff565b61169b5760405162461bcd60e51b815260206004820152603160248201527f596f75206d75737420686176652061204c696d6974657220746f6b656e20746f6044820152701031b430b733b29038bab0b73a34ba3c9760791b60648201526084016108a8565b5050565b60006116ad60206002614ef5565b82106116fb5760405162461bcd60e51b815260206004820152601f60248201527f496e64696365732063616e206265206174206d6f737420333220426974732e0060448201526064016108a8565b81600184603c81111561171e57634e487b7160e01b600052602160045260246000fd5b1461172a576000611783565b6001600380600861173e600d610100614fa0565b6117489190614fda565b6117529190614fda565b61175c9190614fda565b6117669190614fda565b60ff166001611776816002614ef5565b6117809190614fc3565b901b5b6008600160038083611798600d610100614fa0565b6117a29190614fda565b6117ac9190614fda565b6117b69190614fda565b6117c09190614fda565b6117ca9190614fda565b60ff1685603c8111156117ed57634e487b7160e01b600052602160045260246000fd5b901b60086117fe600d610100614fa0565b6118089190614fda565b60ff166001901b171717905092915050565b600081815261019560205260408120546118379085908590610d00565b1515949350505050565b600061111883338461181a565b600054610100900460ff166118695760005460ff1615611871565b6118716128f2565b6118d45760405162461bcd60e51b815260206004820152602e60248201527f496e697469616c697a61626c653a20636f6e747261637420697320616c72656160448201526d191e481a5b9a5d1a585b1a5e995960921b60648201526084016108a8565b600054610100900460ff161580156118f6576000805461ffff19166101011790555b6118fe612903565b61193c6040518060400160405280602081526020017f4572726f723a2053696e676c6520546f6b656e20555249204e6f742055736564815250612932565b611944612962565b61194c612962565b611954612962565b610194805460018101825560009182526000805160206151ee833981519152015561198185858585611d33565b80156114c8576000805461ff00191690555050505050565b606081518351146119fe5760405162461bcd60e51b815260206004820152602960248201527f455243313135353a206163636f756e747320616e6420696473206c656e677468604482015268040dad2e6dac2e8c6d60bb1b60648201526084016108a8565b600083516001600160401b03811115611a2757634e487b7160e01b600052604160045260246000fd5b604051908082528060200260200182016040528015611a50578160200160208202803683370190505b50905060005b8451811015611af257611ab7858281518110611a8257634e487b7160e01b600052603260045260246000fd5b6020026020010151858381518110611aaa57634e487b7160e01b600052603260045260246000fd5b6020026020010151610840565b828281518110611ad757634e487b7160e01b600052603260045260246000fd5b6020908102919091010152611aeb81615090565b9050611a56565b509392505050565b306001600160a01b037f0000000000000000000000000000000000000000000000000000000000000000161415611b435760405162461bcd60e51b81526004016108a890614bd2565b7f00000000000000000000000000000000000000000000000000000000000000006001600160a01b0316611b756126d6565b6001600160a01b031614611b9b5760405162461bcd60e51b81526004016108a890614c55565b611ba4826126f2565b61169b82826001612778565b6000808211611c145760405162461bcd60e51b815260206004820152602a60248201527f4552432d3131353520456e756d657261626c653a20746f6b656e7320696e64656044820152697865642066726f6d203160b01b60648201526084016108a8565b61019454821115611c375760405162461bcd60e51b81526004016108a890614d96565b610194805483908110611c5a57634e487b7160e01b600052603260045260246000fd5b90600052602060002001549050919050565b6000306001600160a01b037f00000000000000000000000000000000000000000000000000000000000000001614611d075760405162461bcd60e51b815260206004820152603860248201527f555550535570677261646561626c653a206d757374206e6f742062652063616c6044820152771b1959081d1a1c9bdd59da0819195b1959d85d1958d85b1b60421b60648201526084016108a8565b5060008051602061522e8339815191525b90565b61169b82826000612147565b60006108d63383612189565b33611d3c6120e4565b6001600160a01b031614611d625760405162461bcd60e51b81526004016108a890614d61565b611d6f6101918585613fb7565b506114c86101928383613fb7565b6001600160a01b038316331480611d995750611d998333610768565b611db55760405162461bcd60e51b81526004016108a890614c0c565b611dc0838383612989565b505050565b33611dce6120e4565b6001600160a01b031614611df45760405162461bcd60e51b81526004016108a890614d61565b611dfe6000612b24565b565b6000600160088160038083611e18600d610100614fa0565b611e229190614fda565b611e2c9190614fda565b611e369190614fda565b611e409190614fda565b611e4a9190614fda565b611e549190614fda565b60ff166001611e64816002614ef5565b611e6e9190614fc3565b901b600160088160038083611e86600d610100614fa0565b611e909190614fda565b611e9a9190614fda565b611ea49190614fda565b611eae9190614fda565b611eb89190614fda565b611ec29190614fda565b60ff166001611ed2816002614ef5565b611edc9190614fc3565b901b85161415611f405760405162461bcd60e51b815260206004820152602960248201527f43616e6e6f74206d696e7420696e7465726e616c20746f6b656e732066726f6d6044820152681037baba39b4b2329760b91b60648201526084016108a8565b60016003806008611f54600d610100614fa0565b611f5e9190614fda565b611f689190614fda565b611f729190614fda565b611f7c9190614fda565b60ff166001901b60016003806008600d60ff16610100611f9c9190614fa0565b611fa69190614fda565b611fb09190614fda565b611fba9190614fda565b611fc49190614fda565b60ff166001901b8516148015611fe357506000611fe18686610840565b115b15611ff057506000612000565b611ffc85858585612b76565b5060015b949350505050565b612013600584611841565b8061202157506120216122ff565b61208a5760405162461bcd60e51b815260206004820152603460248201527f596f75206d7573742068617665206120436f6e6669677572657220746f6b656e604482015273103a379031b430b733b29036b2ba30b230ba309760611b60648201526084016108a8565b6000838152610193602052604090206120a4908383613fb7565b50827f6bb7ff708619ba0610cba295a58592e0451dee2622938c8755667688daf3529b83836040516120d7929190614b04565b60405180910390a2505050565b6097546001600160a01b031690565b61019280546109a890615029565b61210c848484612008565b610ced848261161c565b6101945460009061212990600190614fc3565b905090565b60006111188383600061181a565b61169b338383612c76565b611dc08383836000612d57565b600061216160018361212e565b806108d6575061216f6120e4565b6001600160a01b0316826001600160a01b03161492915050565b610194546000908060086121a0600d610100614fa0565b6121aa9190614fda565b60ff166009901b1791506121bf600783611841565b806121cd57506121cd6122ff565b6122355760405162461bcd60e51b815260206004820152603360248201527f596f75206d757374206861766520612043726561746f7220746f6b656e20746f6044820152721031b932b0ba32903732bb903a37b5b2b7399760691b60648201526084016108a8565b6101948054600181019091556000805160206151ee833981519152018290556000828152610195602052604081208290555b83518110156122b6576122a484828151811061229357634e487b7160e01b600052603260045260246000fd5b602002602001015186846001612d57565b806122ae81615090565b915050612267565b50604080518381526001600160a01b03861660208201527f7757890bcab34d673dfca6b71df1b57f75a2fe4231d6e8de726caf534ab1fdd6910160405180910390a15092915050565b600061212933612154565b604080516000808252602082019092526123243382612189565b91505090565b6001600160a01b03851633148061234657506123468533610768565b6123625760405162461bcd60e51b81526004016108a890614c0c565b6114c88585858585612f12565b336123786120e4565b6001600160a01b03161461239e5760405162461bcd60e51b81526004016108a890614d61565b6001600160a01b0381166124035760405162461bcd60e51b815260206004820152602660248201527f4f776e61626c653a206e6577206f776e657220697320746865207a65726f206160448201526564647265737360d01b60648201526084016108a8565b61161981612b24565b6124186009848461181a565b80612427575061242783612154565b61248b5760405162461bcd60e51b815260206004820152602f60248201527f596f75206d75737420686176652061204275726e657220746f6b656e20746f2060448201526e3232b9ba3937bc903a37b5b2b7399760891b60648201526084016108a8565b611dc0838383613021565b600081815261019560205260408120546124b190849061169f565b905060086124c2600d610100614fa0565b6124cc9190614fda565b610194805460018101909155600a60ff929092169190911b919091176000805160206151ee8339815191528201819055600090815261019560205260409020555050565b6001600160a01b03163b151590565b81518351146125405760405162461bcd60e51b81526004016108a890614e2f565b6001600160a01b0384166125665760405162461bcd60e51b81526004016108a890614c8f565b33612575818787878787613114565b60005b845181101561267a5760008582815181106125a357634e487b7160e01b600052603260045260246000fd5b6020026020010151905060008583815181106125cf57634e487b7160e01b600052603260045260246000fd5b60209081029190910181015160008481526065835260408082206001600160a01b038e1683529093529190912054909150818110156126205760405162461bcd60e51b81526004016108a890614d17565b60008381526065602090815260408083206001600160a01b038e8116855292528083208585039055908b1682528120805484929061265f908490614e9a565b925050819055505050508061267390615090565b9050612578565b50846001600160a01b0316866001600160a01b0316826001600160a01b03166000805160206151ae83398151915287876040516126b8929190614ab7565b60405180910390a46126ce81878787878761393a565b505050505050565b60008051602061522e833981519152546001600160a01b031690565b6126fc600661111f565b8061270a575061270a6122ff565b6116195760405162461bcd60e51b815260206004820152603960248201527f596f75206d75737420686176652061204d61696e7461696e657220746f6b656e604482015278103a37903ab833b930b232903a34329031b7b73a3930b1ba1760391b60648201526084016108a8565b7f4910fdfa16fed3260ed0e7147f7cc6da11a60208b5b9406d12a635614ffd91435460ff16156127ab57611dc083613aac565b826001600160a01b03166352d1902d6040518163ffffffff1660e01b815260040160206040518083038186803b1580156127e457600080fd5b505afa925050508015612814575060408051601f3d908101601f1916820190925261281191810190614725565b60015b6128775760405162461bcd60e51b815260206004820152602e60248201527f45524331393637557067726164653a206e657720696d706c656d656e7461746960448201526d6f6e206973206e6f74205555505360901b60648201526084016108a8565b60008051602061522e83398151915281146128e65760405162461bcd60e51b815260206004820152602960248201527f45524331393637557067726164653a20756e737570706f727465642070726f786044820152681a58589b195555525160ba1b60648201526084016108a8565b50611dc0838383613b46565b60006128fd30612510565b15905090565b600054610100900460ff1661292a5760405162461bcd60e51b81526004016108a890614de4565b611dfe613b6b565b600054610100900460ff166129595760405162461bcd60e51b81526004016108a890614de4565b61161981613b9b565b600054610100900460ff16611dfe5760405162461bcd60e51b81526004016108a890614de4565b6001600160a01b0383166129af5760405162461bcd60e51b81526004016108a890614cd4565b80518251146129d05760405162461bcd60e51b81526004016108a890614e2f565b60003390506129f381856000868660405180602001604052806000815250613114565b60005b8351811015612ad7576000848281518110612a2157634e487b7160e01b600052603260045260246000fd5b602002602001015190506000848381518110612a4d57634e487b7160e01b600052603260045260246000fd5b60209081029190910181015160008481526065835260408082206001600160a01b038c168352909352919091205490915081811015612a9e5760405162461bcd60e51b81526004016108a890614b8e565b60009283526065602090815260408085206001600160a01b038b1686529091529092209103905580612acf81615090565b9150506129f6565b5060006001600160a01b0316846001600160a01b0316826001600160a01b03166000805160206151ae8339815191528686604051612b16929190614ab7565b60405180910390a450505050565b609780546001600160a01b038381166001600160a01b0319831681179093556040519116919082907f8be0079c531659141344cd1fd0a4f28419497f9722a3daafe3b4186f6b6457e090600090a35050565b6001600160a01b038416612bd65760405162461bcd60e51b815260206004820152602160248201527f455243313135353a206d696e7420746f20746865207a65726f206164647265736044820152607360f81b60648201526084016108a8565b33612bf681600087612be788613bcb565b612bf088613bcb565b87613114565b60008481526065602090815260408083206001600160a01b038916845290915281208054859290612c28908490614e9a565b909155505060408051858152602081018590526001600160a01b0380881692600092918516916000805160206151ce833981519152910160405180910390a46114c881600087878787613c24565b816001600160a01b0316836001600160a01b03161415612cea5760405162461bcd60e51b815260206004820152602960248201527f455243313135353a2073657474696e6720617070726f76616c20737461747573604482015268103337b91039b2b63360b91b60648201526084016108a8565b6001600160a01b03838116600081815260666020908152604080832094871680845294825291829020805460ff191686151590811790915591519182527f17307eab39ab6107e8899845ad3d59bd9653f200f220920489ca2b5937696c31910160405180910390a3505050565b80612e7157600184603c811115612d7e57634e487b7160e01b600052602160045260246000fd5b1415612df157612d8c6122ff565b612dec5760405162461bcd60e51b815260206004820152602b60248201527f596f75206d75737420626520612073757065727573657220746f20637265617460448201526a32903732bb9037b732b99760a91b60648201526084016108a8565b612e71565b612dfc600383611841565b80612e0a5750612e0a6122ff565b612e715760405162461bcd60e51b815260206004820152603260248201527f596f75206d7573742068617665207468652043617374657220726f6c6520746f6044820152711030b9b9b4b3b7103732bb903937b632b99760711b60648201526084016108a8565b610ced8382612e81576000612ef0565b600160088160038083612e97600d610100614fa0565b612ea19190614fda565b612eab9190614fda565b612eb59190614fda565b612ebf9190614fda565b612ec99190614fda565b612ed39190614fda565b60ff166001612ee3816002614ef5565b612eed9190614fc3565b901b5b612efa878661169f565b17600160405180602001604052806000815250612b76565b6001600160a01b038416612f385760405162461bcd60e51b81526004016108a890614c8f565b33612f48818787612be788613bcb565b60008481526065602090815260408083206001600160a01b038a16845290915290205483811015612f8b5760405162461bcd60e51b81526004016108a890614d17565b60008581526065602090815260408083206001600160a01b038b8116855292528083208785039055908816825281208054869290612fca908490614e9a565b909155505060408051868152602081018690526001600160a01b03808916928a821692918616916000805160206151ce833981519152910160405180910390a4613018828888888888613c24565b50505050505050565b6001600160a01b0383166130475760405162461bcd60e51b81526004016108a890614cd4565b336130768185600061305887613bcb565b61306187613bcb565b60405180602001604052806000815250613114565b60008381526065602090815260408083206001600160a01b0388168452909152902054828110156130b95760405162461bcd60e51b81526004016108a890614b8e565b60008481526065602090815260408083206001600160a01b03898116808652918452828520888703905582518981529384018890529092908616916000805160206151ce833981519152910160405180910390a45050505050565b61311c6122ff565b6135725760005b835181101561357057600160088160038083613142600d610100614fa0565b61314c9190614fda565b6131569190614fda565b6131609190614fda565b61316a9190614fda565b6131749190614fda565b61317e9190614fda565b60ff16600161318e816002614ef5565b6131989190614fc3565b901b6001600881600380836131b0600d610100614fa0565b6131ba9190614fda565b6131c49190614fda565b6131ce9190614fda565b6131d89190614fda565b6131e29190614fda565b6131ec9190614fda565b60ff1660016131fc816002614ef5565b6132069190614fc3565b901b85838151811061322857634e487b7160e01b600052603260045260246000fd5b602002602001015116146135605760006001600160a01b0387161561324e576004613251565b60025b9050600281603c81111561327557634e487b7160e01b600052602160045260246000fd5b14156134c257600861328a600d610100614fa0565b6132949190614fda565b600160ff919091161b60086132ac600d610100614fa0565b6132b69190614fda565b60ff1660016132c760086002614ef5565b6132d19190614fc3565b901b8684815181106132f357634e487b7160e01b600052603260045260246000fd5b60200260200101511614156133ad57613334600386848151811061332757634e487b7160e01b600052603260045260246000fd5b6020026020010151611841565b8061334257506133426122ff565b6133a85760405162461bcd60e51b815260206004820152603160248201527f596f75206d757374206861766520612043617374657220746f6b656e20746f2060448201527036b4b73a103a37b5b2b71033b0ba32b99760791b60648201526084016108a8565b61355e565b60006133e4823361033e8987815181106133d757634e487b7160e01b600052603260045260246000fd5b602002602001015161092c565b905061340a8287858151811061332757634e487b7160e01b600052603260045260246000fd5b61346f5760405162461bcd60e51b815260206004820152603060248201527f596f75206d75737420686176652061204d696e74657220746f6b656e20746f2060448201526f33b2b732b930ba32903a37b5b2b7399760811b60648201526084016108a8565b60006003806008613483600d610100614fa0565b61348d9190614fda565b6134979190614fda565b6134a19190614fda565b60ff166001901b821611156134bc576134bc33826001613021565b5061355e565b6001600160a01b0386161561355e576134f58186848151811061332757634e487b7160e01b600052603260045260246000fd5b61355e5760405162461bcd60e51b815260206004820152603460248201527f596f75206d75737420686176652061205472616e73666572657220746f6b656e604482015273103a37903a3930b739b332b9103a37b5b2b7399760611b60648201526084016108a8565b505b61356981615090565b9050613123565b505b6001600160a01b038416156137985760005b83518110156137965761019460010160008583815181106135b557634e487b7160e01b600052603260045260246000fd5b602002602001015181526020019081526020016000205460001415613661576101946000018482815181106135fa57634e487b7160e01b600052603260045260246000fd5b602090810291909101810151825460018101845560009384529183209091015561019454855190916101959187908590811061364657634e487b7160e01b600052603260045260246000fd5b60200260200101518152602001908152602001600020819055505b6101966000866001600160a01b03166001600160a01b0316815260200190815260200160002060010160008583815181106136ac57634e487b7160e01b600052603260045260246000fd5b602002602001015181526020019081526020016000205460001415613786576001600160a01b038516600090815261019660205260409020845185908390811061370657634e487b7160e01b600052603260045260246000fd5b6020908102919091018101518254600181810185556000948552838520909101919091556001600160a01b038816835261019690915260408220805487519093919092019187908590811061376b57634e487b7160e01b600052603260045260246000fd5b60200260200101518152602001908152602001600020819055505b61378f81615090565b9050613584565b505b6001600160a01b0385161561392c5760005b835181101561392a578281815181106137d357634e487b7160e01b600052603260045260246000fd5b60200260200101516137ff87868481518110611aaa57634e487b7160e01b600052603260045260246000fd5b1161391a576001600160a01b0386166000908152610196602052604081208551600191820190839088908690811061384757634e487b7160e01b600052603260045260246000fd5b60200260200101518152602001908152602001600020546138689190614fc3565b6001600160a01b038816600090815261019660205260409020805491925090829081106138a557634e487b7160e01b600052603260045260246000fd5b90600052602060002001600090556101966000886001600160a01b03166001600160a01b0316815260200190815260200160002060010160008684815181106138fe57634e487b7160e01b600052603260045260246000fd5b6020026020010151815260200190815260200160002060009055505b61392381615090565b90506137aa565b505b6126ce868686868686613cf5565b61394c846001600160a01b0316612510565b156126ce5760405163bc197c8160e01b81526001600160a01b0385169063bc197c81906139859089908990889088908890600401614a01565b602060405180830381600087803b15801561399f57600080fd5b505af19250505080156139cf575060408051601f3d908101601f191682019092526139cc91810190614759565b60015b613a7c576139db6150f7565b806308c379a01415613a1557506139f061510e565b806139fb5750613a17565b8060405162461bcd60e51b81526004016108a89190614b33565b505b60405162461bcd60e51b815260206004820152603460248201527f455243313135353a207472616e7366657220746f206e6f6e20455243313135356044820152732932b1b2b4bb32b91034b6b83632b6b2b73a32b960611b60648201526084016108a8565b6001600160e01b0319811663bc197c8160e01b146130185760405162461bcd60e51b81526004016108a890614b46565b613ab581612510565b613b175760405162461bcd60e51b815260206004820152602d60248201527f455243313936373a206e657720696d706c656d656e746174696f6e206973206e60448201526c1bdd08184818dbdb9d1c9858dd609a1b60648201526084016108a8565b60008051602061522e83398151915280546001600160a01b0319166001600160a01b0392909216919091179055565b613b4f83613e39565b600082511180613b5c5750805b15611dc057610ced8383613e79565b600054610100900460ff16613b925760405162461bcd60e51b81526004016108a890614de4565b611dfe33612b24565b600054610100900460ff16613bc25760405162461bcd60e51b81526004016108a890614de4565b61161981613f6b565b60408051600180825281830190925260609160009190602080830190803683370190505090508281600081518110613c1357634e487b7160e01b600052603260045260246000fd5b602090810291909101015292915050565b613c36846001600160a01b0316612510565b156126ce5760405163f23a6e6160e01b81526001600160a01b0385169063f23a6e6190613c6f9089908990889088908890600401614a5f565b602060405180830381600087803b158015613c8957600080fd5b505af1925050508015613cb9575060408051601f3d908101601f19168201909252613cb691810190614759565b60015b613cc5576139db6150f7565b6001600160e01b0319811663f23a6e6160e01b146130185760405162461bcd60e51b81526004016108a890614b46565b6001600160a01b038516613d985760005b8351811015613d9657828181518110613d2f57634e487b7160e01b600052603260045260246000fd5b602002602001015160fb6000868481518110613d5b57634e487b7160e01b600052603260045260246000fd5b602002602001015181526020019081526020016000206000828254613d809190614e9a565b90915550613d8f905081615090565b9050613d06565b505b6001600160a01b0384166126ce5760005b835181101561301857828181518110613dd257634e487b7160e01b600052603260045260246000fd5b602002602001015160fb6000868481518110613dfe57634e487b7160e01b600052603260045260246000fd5b602002602001015181526020019081526020016000206000828254613e239190614fc3565b90915550613e32905081615090565b9050613da9565b613e4281613aac565b6040516001600160a01b038216907fbc7cd75a20ee27fd9adebab32041f755214dbc6bffa90cc0225b39da2e5c2d3b90600090a250565b6060613e8483612510565b613edf5760405162461bcd60e51b815260206004820152602660248201527f416464726573733a2064656c65676174652063616c6c20746f206e6f6e2d636f6044820152651b9d1c9858dd60d21b60648201526084016108a8565b600080846001600160a01b031684604051613efa91906149e5565b600060405180830381855af49150503d8060008114613f35576040519150601f19603f3d011682016040523d82523d6000602084013e613f3a565b606091505b5091509150613f62828260405180606001604052806027815260200161524e60279139613f7e565b95945050505050565b805161169b90606790602084019061403b565b60608315613f8d575081611118565b825115613f9d5782518084602001fd5b8160405162461bcd60e51b81526004016108a89190614b33565b828054613fc390615029565b90600052602060002090601f016020900481019282613fe5576000855561402b565b82601f10613ffe5782800160ff1982351617855561402b565b8280016001018555821561402b579182015b8281111561402b578235825591602001919060010190614010565b506140379291506140af565b5090565b82805461404790615029565b90600052602060002090601f016020900481019282614069576000855561402b565b82601f1061408257805160ff191683800117855561402b565b8280016001018555821561402b579182015b8281111561402b578251825591602001919060010190614094565b5b8082111561403757600081556001016140b0565b60006001600160401b038311156140dd576140dd6150e1565b6040516140f4601f8501601f191660200182615064565b80915083815284848401111561410957600080fd5b83836020830137600060208583010152509392505050565b80356001600160a01b038116811461099557600080fd5b600082601f830112614148578081fd5b8135602061415582614e77565b6040516141628282615064565b8381528281019150858301600585901b87018401881015614181578586fd5b855b858110156141a65761419482614121565b84529284019290840190600101614183565b5090979650505050505050565b600082601f8301126141c3578081fd5b813560206141d082614e77565b6040516141dd8282615064565b8381528281019150858301600585901b870184018810156141fc578586fd5b855b858110156141a65761420f826142a7565b845292840192908401906001016141fe565b600082601f830112614231578081fd5b8135602061423e82614e77565b60405161424b8282615064565b8381528281019150858301600585901b8701840188101561426a578586fd5b855b858110156141a65781358452928401929084019060010161426c565b600082601f830112614298578081fd5b611118838335602085016140c4565b8035603d811061099557600080fd5b60008083601f8401126142c7578182fd5b5081356001600160401b038111156142dd578182fd5b6020830191508360208285010111156142f557600080fd5b9250929050565b60006020828403121561430d578081fd5b61111882614121565b60008060408385031215614328578081fd5b61433183614121565b915061433f60208401614121565b90509250929050565b600080600080600060a0868803121561435f578081fd5b61436886614121565b945061437660208701614121565b935060408601356001600160401b0380821115614391578283fd5b61439d89838a01614221565b945060608801359150808211156143b2578283fd5b6143be89838a01614221565b935060808801359150808211156143d3578283fd5b506143e088828901614288565b9150509295509295909350565b600080600080600060a08688031215614404578081fd5b61440d86614121565b945061441b60208701614121565b9350604086013592506060860135915060808601356001600160401b03811115614443578182fd5b6143e088828901614288565b60008060408385031215614461578081fd5b61446a83614121565b915060208301356001600160401b03811115614484578182fd5b614490858286016141b3565b9150509250929050565b6000806000606084860312156144ae578081fd5b6144b784614121565b925060208401356001600160401b03808211156144d2578283fd5b6144de87838801614221565b935060408601359150808211156144f3578283fd5b5061450086828701614221565b9150509250925092565b6000806040838503121561451c578182fd5b61452583614121565b915060208301358015158114614539578182fd5b809150509250929050565b60008060408385031215614556578182fd5b61455f83614121565b915060208301356001600160401b03811115614579578182fd5b61449085828601614288565b60008060408385031215614597578182fd5b6145a083614121565b946020939093013593505050565b6000806000606084860312156145c2578081fd5b6145cb84614121565b95602085013595506040909401359392505050565b600080600080608085870312156145f5578182fd5b6145fe85614121565b9350602085013592506040850135915060608501356001600160401b03811115614626578182fd5b61463287828801614288565b91505092959194509250565b60008060408385031215614650578182fd5b82356001600160401b0380821115614666578384fd5b61467286838701614138565b93506020850135915080821115614687578283fd5b5061449085828601614221565b6000806000606084860312156146a8578081fd5b83356001600160401b03808211156146be578283fd5b6146ca87838801614138565b94506020860135935060408601359150808211156146e6578283fd5b5061450086828701614288565b600060208284031215614704578081fd5b81356001600160401b03811115614719578182fd5b612000848285016141b3565b600060208284031215614736578081fd5b5051919050565b60006020828403121561474e578081fd5b813561111881615197565b60006020828403121561476a578081fd5b815161111881615197565b600060208284031215614786578081fd5b611118826142a7565b600080604083850312156147a1578182fd5b614331836142a7565b6000806000606084860312156147be578081fd5b6147c7846142a7565b92506147d560208501614121565b9150604084013590509250925092565b600080604083850312156147f7578182fd5b6145a0836142a7565b60008060008060408587031215614815578182fd5b84356001600160401b038082111561482b578384fd5b614837888389016142b6565b9096509450602087013591508082111561484f578384fd5b5061485c878288016142b6565b95989497509550505050565b600060208284031215614879578081fd5b81356001600160401b0381111561488e578182fd5b8201601f8101841361489e578182fd5b612000848235602084016140c4565b6000602082840312156148be578081fd5b5035919050565b6000806000604084860312156148d9578081fd5b8335925060208401356001600160401b038111156148f5578182fd5b614901868287016142b6565b9497909650939450505050565b60008060008060608587031215614923578182fd5b8435935060208501356001600160401b0381111561493f578283fd5b61494b878288016142b6565b9598909750949560400135949350505050565b60008060408385031215614970578182fd5b50508035926020909101359150565b6000815180845260208085019450808401835b838110156149ae57815187529582019590820190600101614992565b509495945050505050565b600081518084526149d1816020860160208601614ffd565b601f01601f19169290920160200192915050565b600082516149f7818460208701614ffd565b9190910192915050565b6001600160a01b0386811682528516602082015260a060408201819052600090614a2d9083018661497f565b8281036060840152614a3f818661497f565b90508281036080840152614a5381856149b9565b98975050505050505050565b6001600160a01b03868116825285166020820152604081018490526060810183905260a060808201819052600090614a99908301846149b9565b979650505050505050565b602081526000611118602083018461497f565b604081526000614aca604083018561497f565b8281036020840152613f62818561497f565b60208101603d8310614afe57634e487b7160e01b600052602160045260246000fd5b91905290565b60208152816020820152818360408301376000818301604090810191909152601f909201601f19160101919050565b60208152600061111860208301846149b9565b60208082526028908201527f455243313135353a204552433131353552656365697665722072656a656374656040820152676420746f6b656e7360c01b606082015260800190565b60208082526024908201527f455243313135353a206275726e20616d6f756e7420657863656564732062616c604082015263616e636560e01b606082015260800190565b6020808252602c9082015260008051602061520e83398151915260408201526b19195b1959d85d1958d85b1b60a21b606082015260800190565b60208082526029908201527f455243313135353a2063616c6c6572206973206e6f74206f776e6572206e6f7260408201526808185c1c1c9bdd995960ba1b606082015260800190565b6020808252602c9082015260008051602061520e83398151915260408201526b6163746976652070726f787960a01b606082015260800190565b60208082526025908201527f455243313135353a207472616e7366657220746f20746865207a65726f206164604082015264647265737360d81b606082015260800190565b60208082526023908201527f455243313135353a206275726e2066726f6d20746865207a65726f206164647260408201526265737360e81b606082015260800190565b6020808252602a908201527f455243313135353a20696e73756666696369656e742062616c616e636520666f60408201526939103a3930b739b332b960b11b606082015260800190565b6020808252818101527f4f776e61626c653a2063616c6c6572206973206e6f7420746865206f776e6572604082015260600190565b6020808252602e908201527f4552432d3131353520456e756d657261626c653a20746f6b656e20696e64657860408201526d206f7574206f6620626f756e647360901b606082015260800190565b6020808252602b908201527f496e697469616c697a61626c653a20636f6e7472616374206973206e6f74206960408201526a6e697469616c697a696e6760a81b606082015260800190565b60208082526028908201527f455243313135353a2069647320616e6420616d6f756e7473206c656e677468206040820152670dad2e6dac2e8c6d60c31b606082015260800190565b60006001600160401b03821115614e9057614e906150e1565b5060051b60200190565b60008219821115614ead57614ead6150cb565b500190565b600181815b80851115614eed578160001904821115614ed357614ed36150cb565b80851615614ee057918102915b93841c9390800290614eb7565b509250929050565b600061111860ff841683600082614f0e575060016108d6565b81614f1b575060006108d6565b8160018114614f315760028114614f3b57614f57565b60019150506108d6565b60ff841115614f4c57614f4c6150cb565b50506001821b6108d6565b5060208310610133831016604e8410600b8410161715614f7a575081810a6108d6565b614f848383614eb2565b8060001904821115614f9857614f986150cb565b029392505050565b600061ffff83811690831681811015614fbb57614fbb6150cb565b039392505050565b600082821015614fd557614fd56150cb565b500390565b600060ff821660ff841680821015614ff457614ff46150cb565b90039392505050565b60005b83811015615018578181015183820152602001615000565b83811115610ced5750506000910152565b600181811c9082168061503d57607f821691505b6020821081141561505e57634e487b7160e01b600052602260045260246000fd5b50919050565b601f8201601f191681016001600160401b0381118282101715615089576150896150e1565b6040525050565b60006000198214156150a4576150a46150cb565b5060010190565b600060ff821660ff8114156150c2576150c26150cb565b60010192915050565b634e487b7160e01b600052601160045260246000fd5b634e487b7160e01b600052604160045260246000fd5b600060033d1115611d1857600481823e5160e01c90565b600060443d101561511c5790565b6040516003193d81016004833e81513d6001600160401b03808311602484018310171561514b57505050505090565b82850191508151818111156151635750505050505090565b843d870101602082850101111561517d5750505050505090565b61518c60208286010187615064565b509095945050505050565b6001600160e01b03198116811461161957600080fdfe4a39dc06d4c0dbc64b70af90fd698a233a518aa5d07e595d983b8c0526c8f7fbc3d58168c5ae7397731d063d5bbf3d657854427343f4c083240f7aacaa2d0f62a6f1ac7ad7b125ba5a5e1c96b00ad6914f90a503b1ac3d85a9dadbb4c639df9246756e6374696f6e206d7573742062652063616c6c6564207468726f75676820360894a13ba1a3210667c828492db98dca3e2076cc3735a920a3ca505d382bbc416464726573733a206c6f772d6c6576656c2064656c65676174652063616c6c206661696c6564a2646970667358221220ce905f8e2a0373f24c0e00589f4cde21ad6f9db60524d08489b8134ae427223564736f6c63430008040033",
  "linkReferences": {},
  "deployedLinkReferences": {}
}