{
  "_format": "hh-sol-artifact-1",
  "contractName": "BulkDisbursableNFTs",
  "sourceName": "src/BulkDisbursableNFTs.sol",
  "abi": [
    {
      "inputs": [],
      "stateMutability": "nonpayable",
      "type": "constructor"
    },
    {
      "anonymous": false,
      "inputs": [
        {
          "indexed": false,
          "internalType": "address",
          "name": "previousAdmin",
          "type": "address"
        },
        {
          "indexed": false,
          "internalType": "address",
          "name": "newAdmin",
          "type": "address"
        }
      ],
      "name": "AdminChanged",
      "type": "event"
    },
    {
      "anonymous": false,
      "inputs": [
        {
          "indexed": true,
          "internalType": "address",
          "name": "account",
          "type": "address"
        },
        {
          "indexed": true,
          "internalType": "address",
          "name": "operator",
          "type": "address"
        },
        {
          "indexed": false,
          "internalType": "bool",
          "name": "approved",
          "type": "bool"
        }
      ],
      "name": "ApprovalForAll",
      "type": "event"
    },
    {
      "anonymous": false,
      "inputs": [
        {
          "indexed": true,
          "internalType": "address",
          "name": "beacon",
          "type": "address"
        }
      ],
      "name": "BeaconUpgraded",
      "type": "event"
    },
    {
      "anonymous": false,
      "inputs": [
        {
          "indexed": false,
          "internalType": "uint256",
          "name": "id",
          "type": "uint256"
        },
        {
          "indexed": false,
          "internalType": "address",
          "name": "controller",
          "type": "address"
        }
      ],
      "name": "Created",
      "type": "event"
    },
    {
      "anonymous": false,
      "inputs": [
        {
          "indexed": true,
          "internalType": "address",
          "name": "previousOwner",
          "type": "address"
        },
        {
          "indexed": true,
          "internalType": "address",
          "name": "newOwner",
          "type": "address"
        }
      ],
      "name": "OwnershipTransferred",
      "type": "event"
    },
    {
      "anonymous": false,
      "inputs": [
        {
          "indexed": true,
          "internalType": "address",
          "name": "operator",
          "type": "address"
        },
        {
          "indexed": true,
          "internalType": "address",
          "name": "from",
          "type": "address"
        },
        {
          "indexed": true,
          "internalType": "address",
          "name": "to",
          "type": "address"
        },
        {
          "indexed": false,
          "internalType": "uint256[]",
          "name": "ids",
          "type": "uint256[]"
        },
        {
          "indexed": false,
          "internalType": "uint256[]",
          "name": "values",
          "type": "uint256[]"
        }
      ],
      "name": "TransferBatch",
      "type": "event"
    },
    {
      "anonymous": false,
      "inputs": [
        {
          "indexed": true,
          "internalType": "address",
          "name": "operator",
          "type": "address"
        },
        {
          "indexed": true,
          "internalType": "address",
          "name": "from",
          "type": "address"
        },
        {
          "indexed": true,
          "internalType": "address",
          "name": "to",
          "type": "address"
        },
        {
          "indexed": false,
          "internalType": "uint256",
          "name": "id",
          "type": "uint256"
        },
        {
          "indexed": false,
          "internalType": "uint256",
          "name": "value",
          "type": "uint256"
        }
      ],
      "name": "TransferSingle",
      "type": "event"
    },
    {
      "anonymous": false,
      "inputs": [
        {
          "indexed": false,
          "internalType": "string",
          "name": "value",
          "type": "string"
        },
        {
          "indexed": true,
          "internalType": "uint256",
          "name": "id",
          "type": "uint256"
        }
      ],
      "name": "URI",
      "type": "event"
    },
    {
      "anonymous": false,
      "inputs": [
        {
          "indexed": true,
          "internalType": "address",
          "name": "implementation",
          "type": "address"
        }
      ],
      "name": "Upgraded",
      "type": "event"
    },
    {
      "inputs": [
        {
          "internalType": "uint256",
          "name": "",
          "type": "uint256"
        }
      ],
      "name": "Roles",
      "outputs": [
        {
          "internalType": "string",
          "name": "",
          "type": "string"
        }
      ],
      "stateMutability": "view",
      "type": "function"
    },
    {
      "inputs": [
        {
          "internalType": "address",
          "name": "account",
          "type": "address"
        },
        {
          "internalType": "uint256",
          "name": "id",
          "type": "uint256"
        }
      ],
      "name": "balanceOf",
      "outputs": [
        {
          "internalType": "uint256",
          "name": "",
          "type": "uint256"
        }
      ],
      "stateMutability": "view",
      "type": "function"
    },
    {
      "inputs": [
        {
          "internalType": "address[]",
          "name": "accounts",
          "type": "address[]"
        },
        {
          "internalType": "uint256[]",
          "name": "ids",
          "type": "uint256[]"
        }
      ],
      "name": "balanceOfBatch",
      "outputs": [
        {
          "internalType": "uint256[]",
          "name": "",
          "type": "uint256[]"
        }
      ],
      "stateMutability": "view",
      "type": "function"
    },
    {
      "inputs": [
        {
          "internalType": "address",
          "name": "owner",
          "type": "address"
        },
        {
          "internalType": "uint256",
          "name": "id",
          "type": "uint256"
        },
        {
          "internalType": "uint256",
          "name": "quantity",
          "type": "uint256"
        }
      ],
      "name": "burn",
      "outputs": [],
      "stateMutability": "nonpayable",
      "type": "function"
    },
    {
      "inputs": [
        {
          "internalType": "address",
          "name": "account",
          "type": "address"
        },
        {
          "internalType": "uint256[]",
          "name": "ids",
          "type": "uint256[]"
        },
        {
          "internalType": "uint256[]",
          "name": "values",
          "type": "uint256[]"
        }
      ],
      "name": "burnBatch",
      "outputs": [],
      "stateMutability": "nonpayable",
      "type": "function"
    },
    {
      "inputs": [
        {
          "internalType": "uint256",
          "name": "id",
          "type": "uint256"
        },
        {
          "internalType": "string",
          "name": "newURI",
          "type": "string"
        },
        {
          "internalType": "uint256",
          "name": "max",
          "type": "uint256"
        }
      ],
      "name": "configure",
      "outputs": [],
      "stateMutability": "nonpayable",
      "type": "function"
    },
    {
      "inputs": [
        {
          "internalType": "enum Bits.Role[]",
          "name": "grants",
          "type": "uint8[]"
        },
        {
          "internalType": "enum Bits.Role[]",
          "name": "disables",
          "type": "uint8[]"
        }
      ],
      "name": "create",
      "outputs": [
        {
          "internalType": "uint256",
          "name": "id",
          "type": "uint256"
        }
      ],
      "stateMutability": "nonpayable",
      "type": "function"
    },
    {
      "inputs": [
        {
          "internalType": "address",
          "name": "maintainer",
          "type": "address"
        },
        {
          "internalType": "enum Bits.Role[]",
          "name": "grants",
          "type": "uint8[]"
        },
        {
          "internalType": "enum Bits.Role[]",
          "name": "disables",
          "type": "uint8[]"
        }
      ],
      "name": "create",
      "outputs": [
        {
          "internalType": "uint256",
          "name": "id",
          "type": "uint256"
        }
      ],
      "stateMutability": "nonpayable",
      "type": "function"
    },
    {
      "inputs": [],
      "name": "create",
      "outputs": [
        {
          "internalType": "uint256",
          "name": "id",
          "type": "uint256"
        }
      ],
      "stateMutability": "nonpayable",
      "type": "function"
    },
    {
      "inputs": [
        {
          "internalType": "enum Bits.Role",
          "name": "toDisable",
          "type": "uint8"
        },
        {
          "internalType": "uint256",
          "name": "tokenId",
          "type": "uint256"
        }
      ],
      "name": "disableRole",
      "outputs": [],
      "stateMutability": "nonpayable",
      "type": "function"
    },
    {
      "inputs": [
        {
          "internalType": "uint256",
          "name": "id",
          "type": "uint256"
        }
      ],
      "name": "exists",
      "outputs": [
        {
          "internalType": "bool",
          "name": "",
          "type": "bool"
        }
      ],
      "stateMutability": "view",
      "type": "function"
    },
    {
      "inputs": [
        {
          "internalType": "enum Bits.Role",
          "name": "role",
          "type": "uint8"
        },
        {
          "internalType": "address",
          "name": "user",
          "type": "address"
        },
        {
          "internalType": "uint256",
          "name": "index",
          "type": "uint256"
        }
      ],
      "name": "gateToken",
      "outputs": [
        {
          "internalType": "uint256",
          "name": "id",
          "type": "uint256"
        }
      ],
      "stateMutability": "view",
      "type": "function"
    },
    {
      "inputs": [
        {
          "internalType": "enum Bits.Role",
          "name": "role",
          "type": "uint8"
        },
        {
          "internalType": "address",
          "name": "user",
          "type": "address"
        }
      ],
      "name": "grantRole",
      "outputs": [],
      "stateMutability": "nonpayable",
      "type": "function"
    },
    {
      "inputs": [
        {
          "internalType": "enum Bits.Role",
          "name": "role",
          "type": "uint8"
        },
        {
          "internalType": "address",
          "name": "user",
          "type": "address"
        },
        {
          "internalType": "uint256",
          "name": "index",
          "type": "uint256"
        }
      ],
      "name": "grantRole",
      "outputs": [],
      "stateMutability": "nonpayable",
      "type": "function"
    },
    {
      "inputs": [
        {
          "internalType": "enum Bits.Role",
          "name": "role",
          "type": "uint8"
        }
      ],
      "name": "hasRole",
      "outputs": [
        {
          "internalType": "bool",
          "name": "has",
          "type": "bool"
        }
      ],
      "stateMutability": "view",
      "type": "function"
    },
    {
      "inputs": [
        {
          "internalType": "enum Bits.Role",
          "name": "role",
          "type": "uint8"
        },
        {
          "internalType": "address",
          "name": "user",
          "type": "address"
        },
        {
          "internalType": "uint256",
          "name": "id",
          "type": "uint256"
        }
      ],
      "name": "hasRole",
      "outputs": [
        {
          "internalType": "bool",
          "name": "has",
          "type": "bool"
        }
      ],
      "stateMutability": "view",
      "type": "function"
    },
    {
      "inputs": [
        {
          "internalType": "enum Bits.Role",
          "name": "role",
          "type": "uint8"
        },
        {
          "internalType": "uint256",
          "name": "id",
          "type": "uint256"
        }
      ],
      "name": "hasRole",
      "outputs": [
        {
          "internalType": "bool",
          "name": "has",
          "type": "bool"
        }
      ],
      "stateMutability": "view",
      "type": "function"
    },
    {
      "inputs": [
        {
          "internalType": "enum Bits.Role",
          "name": "role",
          "type": "uint8"
        },
        {
          "internalType": "address",
          "name": "user",
          "type": "address"
        }
      ],
      "name": "hasRole",
      "outputs": [
        {
          "internalType": "bool",
          "name": "has",
          "type": "bool"
        }
      ],
      "stateMutability": "view",
      "type": "function"
    },
    {
      "inputs": [
        {
          "internalType": "string",
          "name": "_name",
          "type": "string"
        },
        {
          "internalType": "string",
          "name": "_symbol",
          "type": "string"
        }
      ],
      "name": "initialize",
      "outputs": [],
      "stateMutability": "nonpayable",
      "type": "function"
    },
    {
      "inputs": [
        {
          "internalType": "address",
          "name": "account",
          "type": "address"
        },
        {
          "internalType": "address",
          "name": "operator",
          "type": "address"
        }
      ],
      "name": "isApprovedForAll",
      "outputs": [
        {
          "internalType": "bool",
          "name": "",
          "type": "bool"
        }
      ],
      "stateMutability": "view",
      "type": "function"
    },
    {
      "inputs": [
        {
          "internalType": "address",
          "name": "user",
          "type": "address"
        }
      ],
      "name": "isSuper",
      "outputs": [
        {
          "internalType": "bool",
          "name": "superuser",
          "type": "bool"
        }
      ],
      "stateMutability": "view",
      "type": "function"
    },
    {
      "inputs": [],
      "name": "isSuper",
      "outputs": [
        {
          "internalType": "bool",
          "name": "superuser",
          "type": "bool"
        }
      ],
      "stateMutability": "view",
      "type": "function"
    },
    {
      "inputs": [
        {
          "internalType": "address[]",
          "name": "to",
          "type": "address[]"
        },
        {
          "internalType": "uint256",
          "name": "id",
          "type": "uint256"
        },
        {
          "internalType": "bytes",
          "name": "data",
          "type": "bytes"
        }
      ],
      "name": "mint",
      "outputs": [],
      "stateMutability": "nonpayable",
      "type": "function"
    },
    {
      "inputs": [
        {
          "internalType": "address",
          "name": "recipient",
          "type": "address"
        },
        {
          "internalType": "uint256",
          "name": "id",
          "type": "uint256"
        },
        {
          "internalType": "uint256",
          "name": "amount",
          "type": "uint256"
        },
        {
          "internalType": "bytes",
          "name": "data",
          "type": "bytes"
        }
      ],
      "name": "mint",
      "outputs": [
        {
          "internalType": "bool",
          "name": "minted",
          "type": "bool"
        }
      ],
      "stateMutability": "nonpayable",
      "type": "function"
    },
    {
      "inputs": [],
      "name": "name",
      "outputs": [
        {
          "internalType": "string",
          "name": "",
          "type": "string"
        }
      ],
      "stateMutability": "view",
      "type": "function"
    },
    {
      "inputs": [],
      "name": "numRoles",
      "outputs": [
        {
          "internalType": "uint8",
          "name": "",
          "type": "uint8"
        }
      ],
      "stateMutability": "view",
      "type": "function"
    },
    {
      "inputs": [],
      "name": "owner",
      "outputs": [
        {
          "internalType": "address",
          "name": "",
          "type": "address"
        }
      ],
      "stateMutability": "view",
      "type": "function"
    },
    {
      "inputs": [],
      "name": "proxiableUUID",
      "outputs": [
        {
          "internalType": "bytes32",
          "name": "",
          "type": "bytes32"
        }
      ],
      "stateMutability": "view",
      "type": "function"
    },
    {
      "inputs": [],
      "name": "renounceOwnership",
      "outputs": [],
      "stateMutability": "nonpayable",
      "type": "function"
    },
    {
      "inputs": [
        {
          "internalType": "enum Bits.Role",
          "name": "role",
          "type": "uint8"
        }
      ],
      "name": "roleToken",
      "outputs": [
        {
          "internalType": "uint256",
          "name": "id",
          "type": "uint256"
        }
      ],
      "stateMutability": "view",
      "type": "function"
    },
    {
      "inputs": [
        {
          "internalType": "enum Bits.Role",
          "name": "role",
          "type": "uint8"
        },
        {
          "internalType": "uint256",
          "name": "index",
          "type": "uint256"
        }
      ],
      "name": "roleToken",
      "outputs": [
        {
          "internalType": "uint256",
          "name": "id",
          "type": "uint256"
        }
      ],
      "stateMutability": "view",
      "type": "function"
    },
    {
      "inputs": [
        {
          "internalType": "address",
          "name": "from",
          "type": "address"
        },
        {
          "internalType": "address",
          "name": "to",
          "type": "address"
        },
        {
          "internalType": "uint256[]",
          "name": "ids",
          "type": "uint256[]"
        },
        {
          "internalType": "uint256[]",
          "name": "amounts",
          "type": "uint256[]"
        },
        {
          "internalType": "bytes",
          "name": "data",
          "type": "bytes"
        }
      ],
      "name": "safeBatchTransferFrom",
      "outputs": [],
      "stateMutability": "nonpayable",
      "type": "function"
    },
    {
      "inputs": [
        {
          "internalType": "address",
          "name": "from",
          "type": "address"
        },
        {
          "internalType": "address",
          "name": "to",
          "type": "address"
        },
        {
          "internalType": "uint256",
          "name": "id",
          "type": "uint256"
        },
        {
          "internalType": "uint256",
          "name": "amount",
          "type": "uint256"
        },
        {
          "internalType": "bytes",
          "name": "data",
          "type": "bytes"
        }
      ],
      "name": "safeTransferFrom",
      "outputs": [],
      "stateMutability": "nonpayable",
      "type": "function"
    },
    {
      "inputs": [
        {
          "internalType": "address",
          "name": "operator",
          "type": "address"
        },
        {
          "internalType": "bool",
          "name": "approved",
          "type": "bool"
        }
      ],
      "name": "setApprovalForAll",
      "outputs": [],
      "stateMutability": "nonpayable",
      "type": "function"
    },
    {
      "inputs": [
        {
          "internalType": "string",
          "name": "_name",
          "type": "string"
        },
        {
          "internalType": "string",
          "name": "_symbol",
          "type": "string"
        }
      ],
      "name": "setDescription",
      "outputs": [],
      "stateMutability": "nonpayable",
      "type": "function"
    },
    {
      "inputs": [
        {
          "internalType": "uint256",
          "name": "id",
          "type": "uint256"
        },
        {
          "internalType": "uint256",
          "name": "max",
          "type": "uint256"
        }
      ],
      "name": "setMax",
      "outputs": [],
      "stateMutability": "nonpayable",
      "type": "function"
    },
    {
      "inputs": [
        {
          "internalType": "uint256",
          "name": "id",
          "type": "uint256"
        },
        {
          "internalType": "string",
          "name": "newURI",
          "type": "string"
        }
      ],
      "name": "setURI",
      "outputs": [],
      "stateMutability": "nonpayable",
      "type": "function"
    },
    {
      "inputs": [
        {
          "internalType": "bytes4",
          "name": "interfaceId",
          "type": "bytes4"
        }
      ],
      "name": "supportsInterface",
      "outputs": [
        {
          "internalType": "bool",
          "name": "",
          "type": "bool"
        }
      ],
      "stateMutability": "view",
      "type": "function"
    },
    {
      "inputs": [],
      "name": "symbol",
      "outputs": [
        {
          "internalType": "string",
          "name": "",
          "type": "string"
        }
      ],
      "stateMutability": "view",
      "type": "function"
    },
    {
      "inputs": [
        {
          "internalType": "uint256",
          "name": "index",
          "type": "uint256"
        }
      ],
      "name": "tokenByIndex",
      "outputs": [
        {
          "internalType": "uint256",
          "name": "id",
          "type": "uint256"
        }
      ],
      "stateMutability": "view",
      "type": "function"
    },
    {
      "inputs": [
        {
          "internalType": "uint256",
          "name": "id",
          "type": "uint256"
        }
      ],
      "name": "tokenIndex",
      "outputs": [
        {
          "internalType": "uint256",
          "name": "index",
          "type": "uint256"
        }
      ],
      "stateMutability": "view",
      "type": "function"
    },
    {
      "inputs": [
        {
          "internalType": "address",
          "name": "owner",
          "type": "address"
        },
        {
          "internalType": "uint256",
          "name": "index",
          "type": "uint256"
        }
      ],
      "name": "tokenOfOwnerByIndex",
      "outputs": [
        {
          "internalType": "uint256",
          "name": "id",
          "type": "uint256"
        }
      ],
      "stateMutability": "view",
      "type": "function"
    },
    {
      "inputs": [
        {
          "internalType": "uint256",
          "name": "id",
          "type": "uint256"
        }
      ],
      "name": "totalSupply",
      "outputs": [
        {
          "internalType": "uint256",
          "name": "",
          "type": "uint256"
        }
      ],
      "stateMutability": "view",
      "type": "function"
    },
    {
      "inputs": [
        {
          "internalType": "address",
          "name": "newOwner",
          "type": "address"
        }
      ],
      "name": "transferOwnership",
      "outputs": [],
      "stateMutability": "nonpayable",
      "type": "function"
    },
    {
      "inputs": [],
      "name": "typeSupply",
      "outputs": [
        {
          "internalType": "uint256",
          "name": "count",
          "type": "uint256"
        }
      ],
      "stateMutability": "view",
      "type": "function"
    },
    {
      "inputs": [
        {
          "internalType": "address",
          "name": "newImplementation",
          "type": "address"
        }
      ],
      "name": "upgradeTo",
      "outputs": [],
      "stateMutability": "nonpayable",
      "type": "function"
    },
    {
      "inputs": [
        {
          "internalType": "address",
          "name": "newImplementation",
          "type": "address"
        },
        {
          "internalType": "bytes",
          "name": "data",
          "type": "bytes"
        }
      ],
      "name": "upgradeToAndCall",
      "outputs": [],
      "stateMutability": "payable",
      "type": "function"
    },
    {
      "inputs": [
        {
          "internalType": "uint256",
          "name": "id",
          "type": "uint256"
        }
      ],
      "name": "uri",
      "outputs": [
        {
          "internalType": "string",
          "name": "metadata",
          "type": "string"
        }
      ],
      "stateMutability": "view",
      "type": "function"
    }
  ],
  "bytecode": "0x60a06040523060601b6080523480156200001857600080fd5b50600054610100900460ff16620000365760005460ff161562000040565b62000040620000e5565b620000a85760405162461bcd60e51b815260206004820152602e60248201527f496e697469616c697a61626c653a20636f6e747261637420697320616c72656160448201526d191e481a5b9a5d1a585b1a5e995960921b606482015260840160405180910390fd5b600054610100900460ff16158015620000cb576000805461ffff19166101011790555b8015620000de576000805461ff00191690555b5062000112565b6000620000fd306200010360201b6200229b1760201c565b15905090565b6001600160a01b03163b151590565b60805160601c6150036200014d60003960008181611276015281816112b60152818161182a0152818161186a015261199e01526150036000f3fe6080604052600436106102225760003560e01c8062fdd58e1461022757806301ffc9a71461025a5780630583e9f81461028a57806306fdde03146102aa5780630e89341c146102cc5780630ec0370f146102ec57806314c464271461030e57806316730ab01461032e57806319e0755c1461034e5780632eb2c2d61461036e5780632f745c591461038e5780633659cfe6146103ae5780633b91ceef146103ce5780633dbe35de146103ee5780634468031f1461040e578063482895891461042e5780634a80070f1461044e5780634cd88b761461046e5780634e1273f41461048e5780634f1ef286146104bb5780634f558e79146104ce5780634f6ccce7146104fd57806352d1902d1461051d5780635d5664e1146105325780636755d456146105525780636b20c454146105725780636fc0020b14610592578063715018a6146105b2578063731133e9146105c7578063862440e2146105e75780638b2ed388146106075780638da5cb5b1461062e57806395d89b411461065b5780639d6d7eaa146106705780639d969a9c146106905780639e97b8f6146106a5578063a22cb465146106c5578063aa8e9066146106e5578063b0bdf26114610705578063bd85b03914610725578063c3c8df9914610752578063e985e9c514610772578063edc79bac146107bb578063efc81a8c146107d0578063f242432a146107e5578063f2fde38b14610805578063f5298aca14610825578063fde4047a14610845575b600080fd5b34801561023357600080fd5b50610247610242366004614327565b610865565b6040519081526020015b60405180910390f35b34801561026657600080fd5b5061027a610275366004614503565b610901565b6040519015158152602001610251565b34801561029657600080fd5b506102476102a536600461462e565b610951565b3480156102b657600080fd5b506102bf6109bf565b604051610251919061488c565b3480156102d857600080fd5b506102bf6102e736600461462e565b610a4e565b3480156102f857600080fd5b5061030c610307366004614436565b610cc1565b005b34801561031a57600080fd5b5061024761032936600461453b565b610d18565b34801561033a57600080fd5b50610247610349366004614570565b610d25565b34801561035a57600080fd5b5061027a61036936600461453b565b611144565b34801561037a57600080fd5b5061030c6103893660046140c5565b611150565b34801561039a57600080fd5b506102476103a9366004614327565b6111e7565b3480156103ba57600080fd5b5061030c6103c9366004614079565b61126b565b3480156103da57600080fd5b5061030c6103e93660046146df565b611334565b3480156103fa57600080fd5b506102476104093660046145ab565b6113b7565b34801561041a57600080fd5b5061027a610429366004614570565b611532565b34801561043a57600080fd5b5061027a6104493660046145ab565b611559565b34801561045a57600080fd5b50610247610469366004614495565b611566565b34801561047a57600080fd5b5061030c6104893660046145c6565b611573565b34801561049a57600080fd5b506104ae6104a93660046143e0565b6116be565b6040516102519190614825565b61030c6104c93660046142dc565b61181f565b3480156104da57600080fd5b5061027a6104e936600461462e565b600090815260fb6020526040902054151590565b34801561050957600080fd5b5061024761051836600461462e565b6118d5565b34801561052957600080fd5b50610247611991565b34801561053e57600080fd5b5061030c61054d366004614555565b611a40565b34801561055e57600080fd5b5061030c61056d3660046145c6565b611a4c565b34801561057e57600080fd5b5061030c61058d36600461423c565b611a96565b34801561059e57600080fd5b506102bf6105ad36600461462e565b611ade565b3480156105be57600080fd5b5061030c611afe565b3480156105d357600080fd5b5061027a6105e2366004614382565b611b39565b3480156105f357600080fd5b5061030c610602366004614646565b611d41565b34801561061357600080fd5b5061061c600b81565b60405160ff9091168152602001610251565b34801561063a57600080fd5b50610643611e1d565b6040516001600160a01b039091168152602001610251565b34801561066757600080fd5b506102bf611e2c565b34801561067c57600080fd5b5061030c61068b36600461468f565b611e3a565b34801561069c57600080fd5b50610247611e4f565b3480156106b157600080fd5b5061027a6106c0366004614555565b611e67565b3480156106d157600080fd5b5061030c6106e03660046142a2565b611e75565b3480156106f157600080fd5b5061030c610700366004614570565b611e80565b34801561071157600080fd5b506102476107203660046141cc565b611e8d565b34801561073157600080fd5b5061024761074036600461462e565b600090815260fb602052604090205490565b34801561075e57600080fd5b5061027a61076d366004614079565b612054565b34801561077e57600080fd5b5061027a61078d366004614093565b6001600160a01b03918216600090815260666020908152604080832093909416825291909152205460ff1690565b3480156107c757600080fd5b5061027a612089565b3480156107dc57600080fd5b50610247612094565b3480156107f157600080fd5b5061030c61080036600461416a565b6120b5565b34801561081157600080fd5b5061030c610820366004614079565b6120fa565b34801561083157600080fd5b5061030c610840366004614350565b612197565b34801561085157600080fd5b5061030c6108603660046145ab565b612221565b60006001600160a01b0383166108d65760405162461bcd60e51b815260206004820152602b60248201527f455243313135353a2062616c616e636520717565727920666f7220746865207a60448201526a65726f206164647265737360a81b60648201526084015b60405180910390fd5b5060008181526065602090815260408083206001600160a01b03861684529091529020545b92915050565b60006001600160e01b03198216636cdb3d1360e11b148061093257506001600160e01b031982166303a24d0760e21b145b806108fb57506301ffc9a760e01b6001600160e01b03198316146108fb565b60008181526101956020526040902054806109ba5760405162461bcd60e51b815260206004820152602360248201527f5468652072657175657374656420746f6b656e20646f6573206e6f742065786960448201526239ba1760e91b60648201526084016108cd565b919050565b61019180546109cd90614d82565b80601f01602080910402602001604051908101604052809291908181526020018280546109f990614d82565b8015610a465780601f10610a1b57610100808354040283529160200191610a46565b820191906000526020600020905b815481529060010190602001808311610a2957829003601f168201915b505050505081565b600081815261019360205260409020805460609190610a6c90614d82565b80601f0160208091040260200160405190810160405280929190818152602001828054610a9890614d82565b8015610ae55780601f10610aba57610100808354040283529160200191610ae5565b820191906000526020600020905b815481529060010190602001808311610ac857829003601f168201915b505050505090508051600014156109ba576008610b05600d610100614cf9565b610b0f9190614d33565b600160ff919091161b6008610b27600d610100614cf9565b610b319190614d33565b60ff166001610b4260086002614c4e565b610b4c9190614d1c565b901b831614156109ba576000600160088160038083610b6e600d610100614cf9565b610b789190614d33565b610b829190614d33565b610b8c9190614d33565b610b969190614d33565b610ba09190614d33565b610baa9190614d33565b60ff166001610bba816002614c4e565b610bc49190614d1c565b901b6003806008610bd8600d610100614cf9565b610be29190614d33565b610bec9190614d33565b610bf69190614d33565b60ff166001901b1719600160206002610c0f9190614c4e565b610c199190614d1c565b19841616600081815261019360205260409020805491925090610c3b90614d82565b80601f0160208091040260200160405190810160405280929190818152602001828054610c6790614d82565b8015610cb45780601f10610c8957610100808354040283529160200191610cb4565b820191906000526020600020905b815481529060010190602001808311610c9757829003601f168201915b5050505050915050919050565b60005b8351811015610d1257610d01848281518110610cf057634e487b7160e01b600052603260045260246000fd5b602002602001015184600185611b39565b50610d0b81614de9565b9050610cc4565b50505050565b60006108fb8260006113b7565b600080610d3185610d18565b9050600061019581856008610d49600d610100614cf9565b610d539190614d33565b60ff16600a901b851717815260200190815260200160002054905080600014610dad57610194805482908110610d9957634e487b7160e01b600052603260045260246000fd5b90600052602060002001549250505061113d565b6000604051806101000160405280866001600860016003806008600d60ff16610100610dd99190614cf9565b610de39190614d33565b610ded9190614d33565b610df79190614d33565b610e019190614d33565b610e0b9190614d33565b610e159190614d33565b60ff166001610e25816002614c4e565b610e2f9190614d1c565b901b6003806008610e43600d610100614cf9565b610e4d9190614d33565b610e579190614d33565b610e619190614d33565b600160ff919091161b871717178152602001866003806008610e86600d610100614cf9565b610e909190614d33565b610e9a9190614d33565b610ea49190614d33565b60ff166001901b86171781526020016001600860016003806008600d60ff16610100610ed09190614cf9565b610eda9190614d33565b610ee49190614d33565b610eee9190614d33565b610ef89190614d33565b610f029190614d33565b610f0c9190614d33565b60ff166001610f1c816002614c4e565b610f269190614d1c565b901b6003806008610f3a600d610100614cf9565b610f449190614d33565b610f4e9190614d33565b610f589190614d33565b600160ff919091161b86171781526020016003806008610f7b600d610100614cf9565b610f859190614d33565b610f8f9190614d33565b610f999190614d33565b60ff166001901b85178152602001866001600860016003806008600d60ff16610100610fc59190614cf9565b610fcf9190614d33565b610fd99190614d33565b610fe39190614d33565b610fed9190614d33565b610ff79190614d33565b6110019190614d33565b60ff166001611011816002614c4e565b61101b9190614d1c565b901b861717815260200160016008816003808361103b600d610100614cf9565b6110459190614d33565b61104f9190614d33565b6110599190614d33565b6110639190614d33565b61106d9190614d33565b6110779190614d33565b60ff166001611087816002614c4e565b6110919190614d1c565b901b851781528685176020820152604001849052905060005b60088160ff1610156111345760006110e988848460ff16600881106110df57634e487b7160e01b600052603260045260246000fd5b6020020151610865565b111561112257818160ff166008811061111257634e487b7160e01b600052603260045260246000fd5b602002015194505050505061113d565b8061112c81614e04565b9150506110aa565b50600093505050505b9392505050565b60006108fb8233611e67565b6001600160a01b03851633148061116c575061116c853361078d565b6111d35760405162461bcd60e51b815260206004820152603260248201527f455243313135353a207472616e736665722063616c6c6572206973206e6f74206044820152711bdddb995c881b9bdc88185c1c1c9bdd995960721b60648201526084016108cd565b6111e085858585856122aa565b5050505050565b6001600160a01b03821660009081526101966020526040812054821061121f5760405162461bcd60e51b81526004016108cd90614aef565b6001600160a01b03831660009081526101966020526040902080548390811061125857634e487b7160e01b600052603260045260246000fd5b9060005260206000200154905092915050565b306001600160a01b037f00000000000000000000000000000000000000000000000000000000000000001614156112b45760405162461bcd60e51b81526004016108cd9061492b565b7f00000000000000000000000000000000000000000000000000000000000000006001600160a01b03166112e6612461565b6001600160a01b03161461130c5760405162461bcd60e51b81526004016108cd906149ae565b6113158161247d565b6040805160008082526020820190925261133191839190612503565b50565b61133f600883611559565b8061134d575061134d612089565b6113b35760405162461bcd60e51b815260206004820152603160248201527f596f75206d75737420686176652061204c696d6974657220746f6b656e20746f6044820152701031b430b733b29038bab0b73a34ba3c9760791b60648201526084016108cd565b5050565b60006113c560206002614c4e565b82106114135760405162461bcd60e51b815260206004820152601f60248201527f496e64696365732063616e206265206174206d6f737420333220426974732e0060448201526064016108cd565b81600184600b81111561143657634e487b7160e01b600052602160045260246000fd5b1461144257600061149b565b60016003806008611456600d610100614cf9565b6114609190614d33565b61146a9190614d33565b6114749190614d33565b61147e9190614d33565b60ff16600161148e816002614c4e565b6114989190614d1c565b901b5b60086001600380836114b0600d610100614cf9565b6114ba9190614d33565b6114c49190614d33565b6114ce9190614d33565b6114d89190614d33565b6114e29190614d33565b60ff1685600b81111561150557634e487b7160e01b600052602160045260246000fd5b901b6008611516600d610100614cf9565b6115209190614d33565b60ff166001901b171717905092915050565b6000818152610195602052604081205461154f9085908590610d25565b1515949350505050565b600061113d833384611532565b600061113d338484611e8d565b600054610100900460ff1661158e5760005460ff1615611596565b61159661267d565b6115f95760405162461bcd60e51b815260206004820152602e60248201527f496e697469616c697a61626c653a20636f6e747261637420697320616c72656160448201526d191e481a5b9a5d1a585b1a5e995960921b60648201526084016108cd565b600054610100900460ff1615801561161b576000805461ffff19166101011790555b61162361268e565b6116616040518060400160405280602081526020017f4572726f723a2053696e676c6520546f6b656e20555249204e6f7420557365648152506126bd565b6116696126ed565b6116716126ed565b6116796126ed565b61019480546001810182556000918252600080516020614f4783398151915201556116a685858585611a4c565b80156111e0576000805461ff00191690555050505050565b606081518351146117235760405162461bcd60e51b815260206004820152602960248201527f455243313135353a206163636f756e747320616e6420696473206c656e677468604482015268040dad2e6dac2e8c6d60bb1b60648201526084016108cd565b600083516001600160401b0381111561174c57634e487b7160e01b600052604160045260246000fd5b604051908082528060200260200182016040528015611775578160200160208202803683370190505b50905060005b8451811015611817576117dc8582815181106117a757634e487b7160e01b600052603260045260246000fd5b60200260200101518583815181106117cf57634e487b7160e01b600052603260045260246000fd5b6020026020010151610865565b8282815181106117fc57634e487b7160e01b600052603260045260246000fd5b602090810291909101015261181081614de9565b905061177b565b509392505050565b306001600160a01b037f00000000000000000000000000000000000000000000000000000000000000001614156118685760405162461bcd60e51b81526004016108cd9061492b565b7f00000000000000000000000000000000000000000000000000000000000000006001600160a01b031661189a612461565b6001600160a01b0316146118c05760405162461bcd60e51b81526004016108cd906149ae565b6118c98261247d565b6113b382826001612503565b60008082116119395760405162461bcd60e51b815260206004820152602a60248201527f4552432d3131353520456e756d657261626c653a20746f6b656e7320696e64656044820152697865642066726f6d203160b01b60648201526084016108cd565b6101945482111561195c5760405162461bcd60e51b81526004016108cd90614aef565b61019480548390811061197f57634e487b7160e01b600052603260045260246000fd5b90600052602060002001549050919050565b6000306001600160a01b037f00000000000000000000000000000000000000000000000000000000000000001614611a2c5760405162461bcd60e51b815260206004820152603860248201527f555550535570677261646561626c653a206d757374206e6f742062652063616c6044820152771b1959081d1a1c9bdd59da0819195b1959d85d1958d85b1b60421b60648201526084016108cd565b50600080516020614f878339815191525b90565b6113b382826000611e80565b33611a55611e1d565b6001600160a01b031614611a7b5760405162461bcd60e51b81526004016108cd90614aba565b611a886101918585613d42565b506111e06101928383613d42565b6001600160a01b038316331480611ab25750611ab2833361078d565b611ace5760405162461bcd60e51b81526004016108cd90614965565b611ad9838383612714565b505050565b61019781600b8110611aef57600080fd5b0180549091506109cd90614d82565b33611b07611e1d565b6001600160a01b031614611b2d5760405162461bcd60e51b81526004016108cd90614aba565b611b3760006128af565b565b6000600160088160038083611b51600d610100614cf9565b611b5b9190614d33565b611b659190614d33565b611b6f9190614d33565b611b799190614d33565b611b839190614d33565b611b8d9190614d33565b60ff166001611b9d816002614c4e565b611ba79190614d1c565b901b600160088160038083611bbf600d610100614cf9565b611bc99190614d33565b611bd39190614d33565b611bdd9190614d33565b611be79190614d33565b611bf19190614d33565b611bfb9190614d33565b60ff166001611c0b816002614c4e565b611c159190614d1c565b901b85161415611c795760405162461bcd60e51b815260206004820152602960248201527f43616e6e6f74206d696e7420696e7465726e616c20746f6b656e732066726f6d6044820152681037baba39b4b2329760b91b60648201526084016108cd565b60016003806008611c8d600d610100614cf9565b611c979190614d33565b611ca19190614d33565b611cab9190614d33565b611cb59190614d33565b60ff166001901b60016003806008600d60ff16610100611cd59190614cf9565b611cdf9190614d33565b611ce99190614d33565b611cf39190614d33565b611cfd9190614d33565b60ff166001901b8516148015611d1c57506000611d1a8686610865565b115b15611d2957506000611d39565b611d3585858585612901565b5060015b949350505050565b611d4c600584611559565b80611d5a5750611d5a612089565b611dc35760405162461bcd60e51b815260206004820152603460248201527f596f75206d7573742068617665206120436f6e6669677572657220746f6b656e604482015273103a379031b430b733b29036b2ba30b230ba309760611b60648201526084016108cd565b600083815261019360205260409020611ddd908383613d42565b50827f6bb7ff708619ba0610cba295a58592e0451dee2622938c8755667688daf3529b8383604051611e1092919061485d565b60405180910390a2505050565b6097546001600160a01b031690565b61019280546109cd90614d82565b611e45848484611d41565b610d128482611334565b61019454600090611e6290600190614d1c565b905090565b600061113d83836000611532565b6113b3338383612a01565b611ad98383836000612ae2565b61019454600090806008611ea4600d610100614cf9565b611eae9190614d33565b60ff166009901b179150611ec3600783611559565b80611ed15750611ed1612089565b611f395760405162461bcd60e51b815260206004820152603360248201527f596f75206d757374206861766520612043726561746f7220746f6b656e20746f6044820152721031b932b0ba32903732bb903a37b5b2b7399760691b60648201526084016108cd565b610194805460018101909155600080516020614f47833981519152018290556000828152610195602052604081208290555b8451811015611fba57611fa8858281518110611f9757634e487b7160e01b600052603260045260246000fd5b602002602001015187846001612ae2565b80611fb281614de9565b915050611f6b565b5060005b835181101561200a57611ff8848281518110611fea57634e487b7160e01b600052603260045260246000fd5b602002602001015183612221565b8061200281614de9565b915050611fbe565b50604080518381526001600160a01b03871660208201527f7757890bcab34d673dfca6b71df1b57f75a2fe4231d6e8de726caf534ab1fdd6910160405180910390a1509392505050565b6000612061600183611e67565b806108fb575061206f611e1d565b6001600160a01b0316826001600160a01b03161492915050565b6000611e6233612054565b604080516000808252602082019092526120af338283611e8d565b91505090565b6001600160a01b0385163314806120d157506120d1853361078d565b6120ed5760405162461bcd60e51b81526004016108cd90614965565b6111e08585858585612c9d565b33612103611e1d565b6001600160a01b0316146121295760405162461bcd60e51b81526004016108cd90614aba565b6001600160a01b03811661218e5760405162461bcd60e51b815260206004820152602660248201527f4f776e61626c653a206e6577206f776e657220697320746865207a65726f206160448201526564647265737360d01b60648201526084016108cd565b611331816128af565b6121a360098484611532565b806121b257506121b283612054565b6122165760405162461bcd60e51b815260206004820152602f60248201527f596f75206d75737420686176652061204275726e657220746f6b656e20746f2060448201526e3232b9ba3937bc903a37b5b2b7399760891b60648201526084016108cd565b611ad9838383612dac565b6000818152610195602052604081205461223c9084906113b7565b9050600861224d600d610100614cf9565b6122579190614d33565b610194805460018101909155600a60ff929092169190911b91909117600080516020614f478339815191528201819055600090815261019560205260409020555050565b6001600160a01b03163b151590565b81518351146122cb5760405162461bcd60e51b81526004016108cd90614b88565b6001600160a01b0384166122f15760405162461bcd60e51b81526004016108cd906149e8565b33612300818787878787612e9f565b60005b845181101561240557600085828151811061232e57634e487b7160e01b600052603260045260246000fd5b60200260200101519050600085838151811061235a57634e487b7160e01b600052603260045260246000fd5b60209081029190910181015160008481526065835260408082206001600160a01b038e1683529093529190912054909150818110156123ab5760405162461bcd60e51b81526004016108cd90614a70565b60008381526065602090815260408083206001600160a01b038e8116855292528083208585039055908b168252812080548492906123ea908490614bf3565b92505081905550505050806123fe90614de9565b9050612303565b50846001600160a01b0316866001600160a01b0316826001600160a01b0316600080516020614f078339815191528787604051612443929190614838565b60405180910390a46124598187878787876136c5565b505050505050565b600080516020614f87833981519152546001600160a01b031690565b6124876006611144565b806124955750612495612089565b6113315760405162461bcd60e51b815260206004820152603960248201527f596f75206d75737420686176652061204d61696e7461696e657220746f6b656e604482015278103a37903ab833b930b232903a34329031b7b73a3930b1ba1760391b60648201526084016108cd565b7f4910fdfa16fed3260ed0e7147f7cc6da11a60208b5b9406d12a635614ffd91435460ff161561253657611ad983613837565b826001600160a01b03166352d1902d6040518163ffffffff1660e01b815260040160206040518083038186803b15801561256f57600080fd5b505afa92505050801561259f575060408051601f3d908101601f1916820190925261259c918101906144eb565b60015b6126025760405162461bcd60e51b815260206004820152602e60248201527f45524331393637557067726164653a206e657720696d706c656d656e7461746960448201526d6f6e206973206e6f74205555505360901b60648201526084016108cd565b600080516020614f8783398151915281146126715760405162461bcd60e51b815260206004820152602960248201527f45524331393637557067726164653a20756e737570706f727465642070726f786044820152681a58589b195555525160ba1b60648201526084016108cd565b50611ad98383836138d1565b60006126883061229b565b15905090565b600054610100900460ff166126b55760405162461bcd60e51b81526004016108cd90614b3d565b611b376138f6565b600054610100900460ff166126e45760405162461bcd60e51b81526004016108cd90614b3d565b61133181613926565b600054610100900460ff16611b375760405162461bcd60e51b81526004016108cd90614b3d565b6001600160a01b03831661273a5760405162461bcd60e51b81526004016108cd90614a2d565b805182511461275b5760405162461bcd60e51b81526004016108cd90614b88565b600033905061277e81856000868660405180602001604052806000815250612e9f565b60005b83518110156128625760008482815181106127ac57634e487b7160e01b600052603260045260246000fd5b6020026020010151905060008483815181106127d857634e487b7160e01b600052603260045260246000fd5b60209081029190910181015160008481526065835260408082206001600160a01b038c1683529093529190912054909150818110156128295760405162461bcd60e51b81526004016108cd906148e7565b60009283526065602090815260408085206001600160a01b038b168652909152909220910390558061285a81614de9565b915050612781565b5060006001600160a01b0316846001600160a01b0316826001600160a01b0316600080516020614f0783398151915286866040516128a1929190614838565b60405180910390a450505050565b609780546001600160a01b038381166001600160a01b0319831681179093556040519116919082907f8be0079c531659141344cd1fd0a4f28419497f9722a3daafe3b4186f6b6457e090600090a35050565b6001600160a01b0384166129615760405162461bcd60e51b815260206004820152602160248201527f455243313135353a206d696e7420746f20746865207a65726f206164647265736044820152607360f81b60648201526084016108cd565b336129818160008761297288613956565b61297b88613956565b87612e9f565b60008481526065602090815260408083206001600160a01b0389168452909152812080548592906129b3908490614bf3565b909155505060408051858152602081018590526001600160a01b038088169260009291851691600080516020614f27833981519152910160405180910390a46111e0816000878787876139af565b816001600160a01b0316836001600160a01b03161415612a755760405162461bcd60e51b815260206004820152602960248201527f455243313135353a2073657474696e6720617070726f76616c20737461747573604482015268103337b91039b2b63360b91b60648201526084016108cd565b6001600160a01b03838116600081815260666020908152604080832094871680845294825291829020805460ff191686151590811790915591519182527f17307eab39ab6107e8899845ad3d59bd9653f200f220920489ca2b5937696c31910160405180910390a3505050565b80612bfc57600184600b811115612b0957634e487b7160e01b600052602160045260246000fd5b1415612b7c57612b17612089565b612b775760405162461bcd60e51b815260206004820152602b60248201527f596f75206d75737420626520612073757065727573657220746f20637265617460448201526a32903732bb9037b732b99760a91b60648201526084016108cd565b612bfc565b612b87600383611559565b80612b955750612b95612089565b612bfc5760405162461bcd60e51b815260206004820152603260248201527f596f75206d7573742068617665207468652043617374657220726f6c6520746f6044820152711030b9b9b4b3b7103732bb903937b632b99760711b60648201526084016108cd565b610d128382612c0c576000612c7b565b600160088160038083612c22600d610100614cf9565b612c2c9190614d33565b612c369190614d33565b612c409190614d33565b612c4a9190614d33565b612c549190614d33565b612c5e9190614d33565b60ff166001612c6e816002614c4e565b612c789190614d1c565b901b5b612c8587866113b7565b17600160405180602001604052806000815250612901565b6001600160a01b038416612cc35760405162461bcd60e51b81526004016108cd906149e8565b33612cd381878761297288613956565b60008481526065602090815260408083206001600160a01b038a16845290915290205483811015612d165760405162461bcd60e51b81526004016108cd90614a70565b60008581526065602090815260408083206001600160a01b038b8116855292528083208785039055908816825281208054869290612d55908490614bf3565b909155505060408051868152602081018690526001600160a01b03808916928a82169291861691600080516020614f27833981519152910160405180910390a4612da38288888888886139af565b50505050505050565b6001600160a01b038316612dd25760405162461bcd60e51b81526004016108cd90614a2d565b33612e0181856000612de387613956565b612dec87613956565b60405180602001604052806000815250612e9f565b60008381526065602090815260408083206001600160a01b038816845290915290205482811015612e445760405162461bcd60e51b81526004016108cd906148e7565b60008481526065602090815260408083206001600160a01b0389811680865291845282852088870390558251898152938401889052909290861691600080516020614f27833981519152910160405180910390a45050505050565b612ea7612089565b6132fd5760005b83518110156132fb57600160088160038083612ecd600d610100614cf9565b612ed79190614d33565b612ee19190614d33565b612eeb9190614d33565b612ef59190614d33565b612eff9190614d33565b612f099190614d33565b60ff166001612f19816002614c4e565b612f239190614d1c565b901b600160088160038083612f3b600d610100614cf9565b612f459190614d33565b612f4f9190614d33565b612f599190614d33565b612f639190614d33565b612f6d9190614d33565b612f779190614d33565b60ff166001612f87816002614c4e565b612f919190614d1c565b901b858381518110612fb357634e487b7160e01b600052603260045260246000fd5b602002602001015116146132eb5760006001600160a01b03871615612fd9576004612fdc565b60025b9050600281600b81111561300057634e487b7160e01b600052602160045260246000fd5b141561324d576008613015600d610100614cf9565b61301f9190614d33565b600160ff919091161b6008613037600d610100614cf9565b6130419190614d33565b60ff16600161305260086002614c4e565b61305c9190614d1c565b901b86848151811061307e57634e487b7160e01b600052603260045260246000fd5b6020026020010151161415613138576130bf60038684815181106130b257634e487b7160e01b600052603260045260246000fd5b6020026020010151611559565b806130cd57506130cd612089565b6131335760405162461bcd60e51b815260206004820152603160248201527f596f75206d757374206861766520612043617374657220746f6b656e20746f2060448201527036b4b73a103a37b5b2b71033b0ba32b99760791b60648201526084016108cd565b6132e9565b600061316f823361034989878151811061316257634e487b7160e01b600052603260045260246000fd5b6020026020010151610951565b9050613195828785815181106130b257634e487b7160e01b600052603260045260246000fd5b6131fa5760405162461bcd60e51b815260206004820152603060248201527f596f75206d75737420686176652061204d696e74657220746f6b656e20746f2060448201526f33b2b732b930ba32903a37b5b2b7399760811b60648201526084016108cd565b6000600380600861320e600d610100614cf9565b6132189190614d33565b6132229190614d33565b61322c9190614d33565b60ff166001901b821611156132475761324733826001612dac565b506132e9565b6001600160a01b038616156132e957613280818684815181106130b257634e487b7160e01b600052603260045260246000fd5b6132e95760405162461bcd60e51b815260206004820152603460248201527f596f75206d75737420686176652061205472616e73666572657220746f6b656e604482015273103a37903a3930b739b332b9103a37b5b2b7399760611b60648201526084016108cd565b505b6132f481614de9565b9050612eae565b505b6001600160a01b038416156135235760005b835181101561352157610194600101600085838151811061334057634e487b7160e01b600052603260045260246000fd5b6020026020010151815260200190815260200160002054600014156133ec5761019460000184828151811061338557634e487b7160e01b600052603260045260246000fd5b60209081029190910181015182546001810184556000938452918320909101556101945485519091610195918790859081106133d157634e487b7160e01b600052603260045260246000fd5b60200260200101518152602001908152602001600020819055505b6101966000866001600160a01b03166001600160a01b03168152602001908152602001600020600101600085838151811061343757634e487b7160e01b600052603260045260246000fd5b602002602001015181526020019081526020016000205460001415613511576001600160a01b038516600090815261019660205260409020845185908390811061349157634e487b7160e01b600052603260045260246000fd5b6020908102919091018101518254600181810185556000948552838520909101919091556001600160a01b03881683526101969091526040822080548751909391909201918790859081106134f657634e487b7160e01b600052603260045260246000fd5b60200260200101518152602001908152602001600020819055505b61351a81614de9565b905061330f565b505b6001600160a01b038516156136b75760005b83518110156136b55782818151811061355e57634e487b7160e01b600052603260045260246000fd5b602002602001015161358a878684815181106117cf57634e487b7160e01b600052603260045260246000fd5b116136a5576001600160a01b038616600090815261019660205260408120855160019182019083908890869081106135d257634e487b7160e01b600052603260045260246000fd5b60200260200101518152602001908152602001600020546135f39190614d1c565b6001600160a01b0388166000908152610196602052604090208054919250908290811061363057634e487b7160e01b600052603260045260246000fd5b90600052602060002001600090556101966000886001600160a01b03166001600160a01b03168152602001908152602001600020600101600086848151811061368957634e487b7160e01b600052603260045260246000fd5b6020026020010151815260200190815260200160002060009055505b6136ae81614de9565b9050613535565b505b612459868686868686613a80565b6136d7846001600160a01b031661229b565b156124595760405163bc197c8160e01b81526001600160a01b0385169063bc197c81906137109089908990889088908890600401614782565b602060405180830381600087803b15801561372a57600080fd5b505af192505050801561375a575060408051601f3d908101601f191682019092526137579181019061451f565b60015b61380757613766614e50565b806308c379a014156137a0575061377b614e67565b8061378657506137a2565b8060405162461bcd60e51b81526004016108cd919061488c565b505b60405162461bcd60e51b815260206004820152603460248201527f455243313135353a207472616e7366657220746f206e6f6e20455243313135356044820152732932b1b2b4bb32b91034b6b83632b6b2b73a32b960611b60648201526084016108cd565b6001600160e01b0319811663bc197c8160e01b14612da35760405162461bcd60e51b81526004016108cd9061489f565b6138408161229b565b6138a25760405162461bcd60e51b815260206004820152602d60248201527f455243313936373a206e657720696d706c656d656e746174696f6e206973206e60448201526c1bdd08184818dbdb9d1c9858dd609a1b60648201526084016108cd565b600080516020614f8783398151915280546001600160a01b0319166001600160a01b0392909216919091179055565b6138da83613bc4565b6000825111806138e75750805b15611ad957610d128383613c04565b600054610100900460ff1661391d5760405162461bcd60e51b81526004016108cd90614b3d565b611b37336128af565b600054610100900460ff1661394d5760405162461bcd60e51b81526004016108cd90614b3d565b61133181613cf6565b6040805160018082528183019092526060916000919060208083019080368337019050509050828160008151811061399e57634e487b7160e01b600052603260045260246000fd5b602090810291909101015292915050565b6139c1846001600160a01b031661229b565b156124595760405163f23a6e6160e01b81526001600160a01b0385169063f23a6e61906139fa90899089908890889088906004016147e0565b602060405180830381600087803b158015613a1457600080fd5b505af1925050508015613a44575060408051601f3d908101601f19168201909252613a419181019061451f565b60015b613a5057613766614e50565b6001600160e01b0319811663f23a6e6160e01b14612da35760405162461bcd60e51b81526004016108cd9061489f565b6001600160a01b038516613b235760005b8351811015613b2157828181518110613aba57634e487b7160e01b600052603260045260246000fd5b602002602001015160fb6000868481518110613ae657634e487b7160e01b600052603260045260246000fd5b602002602001015181526020019081526020016000206000828254613b0b9190614bf3565b90915550613b1a905081614de9565b9050613a91565b505b6001600160a01b0384166124595760005b8351811015612da357828181518110613b5d57634e487b7160e01b600052603260045260246000fd5b602002602001015160fb6000868481518110613b8957634e487b7160e01b600052603260045260246000fd5b602002602001015181526020019081526020016000206000828254613bae9190614d1c565b90915550613bbd905081614de9565b9050613b34565b613bcd81613837565b6040516001600160a01b038216907fbc7cd75a20ee27fd9adebab32041f755214dbc6bffa90cc0225b39da2e5c2d3b90600090a250565b6060613c0f8361229b565b613c6a5760405162461bcd60e51b815260206004820152602660248201527f416464726573733a2064656c65676174652063616c6c20746f206e6f6e2d636f6044820152651b9d1c9858dd60d21b60648201526084016108cd565b600080846001600160a01b031684604051613c859190614766565b600060405180830381855af49150503d8060008114613cc0576040519150601f19603f3d011682016040523d82523d6000602084013e613cc5565b606091505b5091509150613ced8282604051806060016040528060278152602001614fa760279139613d09565b95945050505050565b80516113b3906067906020840190613dc6565b60608315613d1857508161113d565b825115613d285782518084602001fd5b8160405162461bcd60e51b81526004016108cd919061488c565b828054613d4e90614d82565b90600052602060002090601f016020900481019282613d705760008555613db6565b82601f10613d895782800160ff19823516178555613db6565b82800160010185558215613db6579182015b82811115613db6578235825591602001919060010190613d9b565b50613dc2929150613e3a565b5090565b828054613dd290614d82565b90600052602060002090601f016020900481019282613df45760008555613db6565b82601f10613e0d57805160ff1916838001178555613db6565b82800160010185558215613db6579182015b82811115613db6578251825591602001919060010190613e1f565b5b80821115613dc25760008155600101613e3b565b80356001600160a01b03811681146109ba57600080fd5b600082601f830112613e76578081fd5b81356020613e8382614bd0565b604051613e908282614dbd565b8381528281019150858301600585901b87018401881015613eaf578586fd5b855b85811015613ed457613ec282613e4f565b84529284019290840190600101613eb1565b5090979650505050505050565b600082601f830112613ef1578081fd5b81356020613efe82614bd0565b604051613f0b8282614dbd565b8381528281019150858301600585901b87018401881015613f2a578586fd5b855b85811015613ed457613f3d82614024565b84529284019290840190600101613f2c565b600082601f830112613f5f578081fd5b81356020613f6c82614bd0565b604051613f798282614dbd565b8381528281019150858301600585901b87018401881015613f98578586fd5b855b85811015613ed457813584529284019290840190600101613f9a565b600082601f830112613fc6578081fd5b81356001600160401b03811115613fdf57613fdf614e3a565b604051613ff6601f8301601f191660200182614dbd565b81815284602083860101111561400a578283fd5b816020850160208301379081016020019190915292915050565b8035600c81106109ba57600080fd5b60008083601f840112614044578182fd5b5081356001600160401b0381111561405a578182fd5b60208301915083602082850101111561407257600080fd5b9250929050565b60006020828403121561408a578081fd5b61113d82613e4f565b600080604083850312156140a5578081fd5b6140ae83613e4f565b91506140bc60208401613e4f565b90509250929050565b600080600080600060a086880312156140dc578081fd5b6140e586613e4f565b94506140f360208701613e4f565b935060408601356001600160401b038082111561410e578283fd5b61411a89838a01613f4f565b9450606088013591508082111561412f578283fd5b61413b89838a01613f4f565b93506080880135915080821115614150578283fd5b5061415d88828901613fb6565b9150509295509295909350565b600080600080600060a08688031215614181578081fd5b61418a86613e4f565b945061419860208701613e4f565b9350604086013592506060860135915060808601356001600160401b038111156141c0578182fd5b61415d88828901613fb6565b6000806000606084860312156141e0578283fd5b6141e984613e4f565b925060208401356001600160401b0380821115614204578384fd5b61421087838801613ee1565b93506040860135915080821115614225578283fd5b5061423286828701613ee1565b9150509250925092565b600080600060608486031215614250578081fd5b61425984613e4f565b925060208401356001600160401b0380821115614274578283fd5b61428087838801613f4f565b93506040860135915080821115614295578283fd5b5061423286828701613f4f565b600080604083850312156142b4578182fd5b6142bd83613e4f565b9150602083013580151581146142d1578182fd5b809150509250929050565b600080604083850312156142ee578182fd5b6142f783613e4f565b915060208301356001600160401b03811115614311578182fd5b61431d85828601613fb6565b9150509250929050565b60008060408385031215614339578182fd5b61434283613e4f565b946020939093013593505050565b600080600060608486031215614364578081fd5b61436d84613e4f565b95602085013595506040909401359392505050565b60008060008060808587031215614397578182fd5b6143a085613e4f565b9350602085013592506040850135915060608501356001600160401b038111156143c8578182fd5b6143d487828801613fb6565b91505092959194509250565b600080604083850312156143f2578182fd5b82356001600160401b0380821115614408578384fd5b61441486838701613e66565b93506020850135915080821115614429578283fd5b5061431d85828601613f4f565b60008060006060848603121561444a578081fd5b83356001600160401b0380821115614460578283fd5b61446c87838801613e66565b9450602086013593506040860135915080821115614488578283fd5b5061423286828701613fb6565b600080604083850312156144a7578182fd5b82356001600160401b03808211156144bd578384fd5b6144c986838701613ee1565b935060208501359150808211156144de578283fd5b5061431d85828601613ee1565b6000602082840312156144fc578081fd5b5051919050565b600060208284031215614514578081fd5b813561113d81614ef0565b600060208284031215614530578081fd5b815161113d81614ef0565b60006020828403121561454c578081fd5b61113d82614024565b60008060408385031215614567578182fd5b6140ae83614024565b600080600060608486031215614584578081fd5b61458d84614024565b925061459b60208501613e4f565b9150604084013590509250925092565b600080604083850312156145bd578182fd5b61434283614024565b600080600080604085870312156145db578182fd5b84356001600160401b03808211156145f1578384fd5b6145fd88838901614033565b90965094506020870135915080821115614615578384fd5b5061462287828801614033565b95989497509550505050565b60006020828403121561463f578081fd5b5035919050565b60008060006040848603121561465a578081fd5b8335925060208401356001600160401b03811115614676578182fd5b61468286828701614033565b9497909650939450505050565b600080600080606085870312156146a4578182fd5b8435935060208501356001600160401b038111156146c0578283fd5b6146cc87828801614033565b9598909750949560400135949350505050565b600080604083850312156146f1578182fd5b50508035926020909101359150565b6000815180845260208085019450808401835b8381101561472f57815187529582019590820190600101614713565b509495945050505050565b60008151808452614752816020860160208601614d56565b601f01601f19169290920160200192915050565b60008251614778818460208701614d56565b9190910192915050565b6001600160a01b0386811682528516602082015260a0604082018190526000906147ae90830186614700565b82810360608401526147c08186614700565b905082810360808401526147d4818561473a565b98975050505050505050565b6001600160a01b03868116825285166020820152604081018490526060810183905260a06080820181905260009061481a9083018461473a565b979650505050505050565b60208152600061113d6020830184614700565b60408152600061484b6040830185614700565b8281036020840152613ced8185614700565b60208152816020820152818360408301376000818301604090810191909152601f909201601f19160101919050565b60208152600061113d602083018461473a565b60208082526028908201527f455243313135353a204552433131353552656365697665722072656a656374656040820152676420746f6b656e7360c01b606082015260800190565b60208082526024908201527f455243313135353a206275726e20616d6f756e7420657863656564732062616c604082015263616e636560e01b606082015260800190565b6020808252602c90820152600080516020614f6783398151915260408201526b19195b1959d85d1958d85b1b60a21b606082015260800190565b60208082526029908201527f455243313135353a2063616c6c6572206973206e6f74206f776e6572206e6f7260408201526808185c1c1c9bdd995960ba1b606082015260800190565b6020808252602c90820152600080516020614f6783398151915260408201526b6163746976652070726f787960a01b606082015260800190565b60208082526025908201527f455243313135353a207472616e7366657220746f20746865207a65726f206164604082015264647265737360d81b606082015260800190565b60208082526023908201527f455243313135353a206275726e2066726f6d20746865207a65726f206164647260408201526265737360e81b606082015260800190565b6020808252602a908201527f455243313135353a20696e73756666696369656e742062616c616e636520666f60408201526939103a3930b739b332b960b11b606082015260800190565b6020808252818101527f4f776e61626c653a2063616c6c6572206973206e6f7420746865206f776e6572604082015260600190565b6020808252602e908201527f4552432d3131353520456e756d657261626c653a20746f6b656e20696e64657860408201526d206f7574206f6620626f756e647360901b606082015260800190565b6020808252602b908201527f496e697469616c697a61626c653a20636f6e7472616374206973206e6f74206960408201526a6e697469616c697a696e6760a81b606082015260800190565b60208082526028908201527f455243313135353a2069647320616e6420616d6f756e7473206c656e677468206040820152670dad2e6dac2e8c6d60c31b606082015260800190565b60006001600160401b03821115614be957614be9614e3a565b5060051b60200190565b60008219821115614c0657614c06614e24565b500190565b600181815b80851115614c46578160001904821115614c2c57614c2c614e24565b80851615614c3957918102915b93841c9390800290614c10565b509250929050565b600061113d60ff841683600082614c67575060016108fb565b81614c74575060006108fb565b8160018114614c8a5760028114614c9457614cb0565b60019150506108fb565b60ff841115614ca557614ca5614e24565b50506001821b6108fb565b5060208310610133831016604e8410600b8410161715614cd3575081810a6108fb565b614cdd8383614c0b565b8060001904821115614cf157614cf1614e24565b029392505050565b600061ffff83811690831681811015614d1457614d14614e24565b039392505050565b600082821015614d2e57614d2e614e24565b500390565b600060ff821660ff841680821015614d4d57614d4d614e24565b90039392505050565b60005b83811015614d71578181015183820152602001614d59565b83811115610d125750506000910152565b600181811c90821680614d9657607f821691505b60208210811415614db757634e487b7160e01b600052602260045260246000fd5b50919050565b601f8201601f191681016001600160401b0381118282101715614de257614de2614e3a565b6040525050565b6000600019821415614dfd57614dfd614e24565b5060010190565b600060ff821660ff811415614e1b57614e1b614e24565b60010192915050565b634e487b7160e01b600052601160045260246000fd5b634e487b7160e01b600052604160045260246000fd5b600060033d1115611a3d57600481823e5160e01c90565b600060443d1015614e755790565b6040516003193d81016004833e81513d6001600160401b038083116024840183101715614ea457505050505090565b8285019150815181811115614ebc5750505050505090565b843d8701016020828501011115614ed65750505050505090565b614ee560208286010187614dbd565b509095945050505050565b6001600160e01b03198116811461133157600080fdfe4a39dc06d4c0dbc64b70af90fd698a233a518aa5d07e595d983b8c0526c8f7fbc3d58168c5ae7397731d063d5bbf3d657854427343f4c083240f7aacaa2d0f62a6f1ac7ad7b125ba5a5e1c96b00ad6914f90a503b1ac3d85a9dadbb4c639df9246756e6374696f6e206d7573742062652063616c6c6564207468726f75676820360894a13ba1a3210667c828492db98dca3e2076cc3735a920a3ca505d382bbc416464726573733a206c6f772d6c6576656c2064656c65676174652063616c6c206661696c6564a2646970667358221220c4dcb0e89b5d3c8af1158ad5dd1ec317792d103c126c648d85e42d475523042264736f6c63430008040033",
  "linkReferences": {},
  "deployedLinkReferences": {}
}