{
  "_format": "hh-sol-artifact-1",
  "contractName": "BulkDisbursableNFTs",
  "sourceName": "src/BulkDisbursableNFTs.sol",
  "abi": [
    {
      "inputs": [],
      "stateMutability": "nonpayable",
      "type": "constructor"
    },
    {
      "anonymous": false,
      "inputs": [
        {
          "indexed": false,
          "internalType": "address",
          "name": "previousAdmin",
          "type": "address"
        },
        {
          "indexed": false,
          "internalType": "address",
          "name": "newAdmin",
          "type": "address"
        }
      ],
      "name": "AdminChanged",
      "type": "event"
    },
    {
      "anonymous": false,
      "inputs": [
        {
          "indexed": true,
          "internalType": "address",
          "name": "account",
          "type": "address"
        },
        {
          "indexed": true,
          "internalType": "address",
          "name": "operator",
          "type": "address"
        },
        {
          "indexed": false,
          "internalType": "bool",
          "name": "approved",
          "type": "bool"
        }
      ],
      "name": "ApprovalForAll",
      "type": "event"
    },
    {
      "anonymous": false,
      "inputs": [
        {
          "indexed": true,
          "internalType": "address",
          "name": "beacon",
          "type": "address"
        }
      ],
      "name": "BeaconUpgraded",
      "type": "event"
    },
    {
      "anonymous": false,
      "inputs": [
        {
          "indexed": false,
          "internalType": "uint256",
          "name": "id",
          "type": "uint256"
        },
        {
          "indexed": false,
          "internalType": "address",
          "name": "controller",
          "type": "address"
        }
      ],
      "name": "Created",
      "type": "event"
    },
    {
      "anonymous": false,
      "inputs": [
        {
          "indexed": true,
          "internalType": "address",
          "name": "previousOwner",
          "type": "address"
        },
        {
          "indexed": true,
          "internalType": "address",
          "name": "newOwner",
          "type": "address"
        }
      ],
      "name": "OwnershipTransferred",
      "type": "event"
    },
    {
      "anonymous": false,
      "inputs": [
        {
          "indexed": true,
          "internalType": "address",
          "name": "operator",
          "type": "address"
        },
        {
          "indexed": true,
          "internalType": "address",
          "name": "from",
          "type": "address"
        },
        {
          "indexed": true,
          "internalType": "address",
          "name": "to",
          "type": "address"
        },
        {
          "indexed": false,
          "internalType": "uint256[]",
          "name": "ids",
          "type": "uint256[]"
        },
        {
          "indexed": false,
          "internalType": "uint256[]",
          "name": "values",
          "type": "uint256[]"
        }
      ],
      "name": "TransferBatch",
      "type": "event"
    },
    {
      "anonymous": false,
      "inputs": [
        {
          "indexed": true,
          "internalType": "address",
          "name": "operator",
          "type": "address"
        },
        {
          "indexed": true,
          "internalType": "address",
          "name": "from",
          "type": "address"
        },
        {
          "indexed": true,
          "internalType": "address",
          "name": "to",
          "type": "address"
        },
        {
          "indexed": false,
          "internalType": "uint256",
          "name": "id",
          "type": "uint256"
        },
        {
          "indexed": false,
          "internalType": "uint256",
          "name": "value",
          "type": "uint256"
        }
      ],
      "name": "TransferSingle",
      "type": "event"
    },
    {
      "anonymous": false,
      "inputs": [
        {
          "indexed": false,
          "internalType": "string",
          "name": "value",
          "type": "string"
        },
        {
          "indexed": true,
          "internalType": "uint256",
          "name": "id",
          "type": "uint256"
        }
      ],
      "name": "URI",
      "type": "event"
    },
    {
      "anonymous": false,
      "inputs": [
        {
          "indexed": true,
          "internalType": "address",
          "name": "implementation",
          "type": "address"
        }
      ],
      "name": "Upgraded",
      "type": "event"
    },
    {
      "inputs": [
        {
          "internalType": "uint256",
          "name": "",
          "type": "uint256"
        }
      ],
      "name": "Roles",
      "outputs": [
        {
          "internalType": "string",
          "name": "",
          "type": "string"
        }
      ],
      "stateMutability": "view",
      "type": "function"
    },
    {
      "inputs": [
        {
          "internalType": "address",
          "name": "account",
          "type": "address"
        },
        {
          "internalType": "uint256",
          "name": "id",
          "type": "uint256"
        }
      ],
      "name": "balanceOf",
      "outputs": [
        {
          "internalType": "uint256",
          "name": "",
          "type": "uint256"
        }
      ],
      "stateMutability": "view",
      "type": "function"
    },
    {
      "inputs": [
        {
          "internalType": "address[]",
          "name": "accounts",
          "type": "address[]"
        },
        {
          "internalType": "uint256[]",
          "name": "ids",
          "type": "uint256[]"
        }
      ],
      "name": "balanceOfBatch",
      "outputs": [
        {
          "internalType": "uint256[]",
          "name": "",
          "type": "uint256[]"
        }
      ],
      "stateMutability": "view",
      "type": "function"
    },
    {
      "inputs": [
        {
          "internalType": "address",
          "name": "owner",
          "type": "address"
        },
        {
          "internalType": "uint256",
          "name": "id",
          "type": "uint256"
        },
        {
          "internalType": "uint256",
          "name": "quantity",
          "type": "uint256"
        }
      ],
      "name": "burn",
      "outputs": [],
      "stateMutability": "nonpayable",
      "type": "function"
    },
    {
      "inputs": [
        {
          "internalType": "address",
          "name": "account",
          "type": "address"
        },
        {
          "internalType": "uint256[]",
          "name": "ids",
          "type": "uint256[]"
        },
        {
          "internalType": "uint256[]",
          "name": "values",
          "type": "uint256[]"
        }
      ],
      "name": "burnBatch",
      "outputs": [],
      "stateMutability": "nonpayable",
      "type": "function"
    },
    {
      "inputs": [
        {
          "internalType": "uint256",
          "name": "id",
          "type": "uint256"
        },
        {
          "internalType": "string",
          "name": "newURI",
          "type": "string"
        },
        {
          "internalType": "uint256",
          "name": "max",
          "type": "uint256"
        }
      ],
      "name": "configure",
      "outputs": [],
      "stateMutability": "nonpayable",
      "type": "function"
    },
    {
      "inputs": [
        {
          "internalType": "enum BulkDisbursableNFTs.Role[]",
          "name": "grants",
          "type": "uint8[]"
        },
        {
          "internalType": "enum BulkDisbursableNFTs.Role[]",
          "name": "disables",
          "type": "uint8[]"
        }
      ],
      "name": "create",
      "outputs": [
        {
          "internalType": "uint256",
          "name": "id",
          "type": "uint256"
        }
      ],
      "stateMutability": "nonpayable",
      "type": "function"
    },
    {
      "inputs": [
        {
          "internalType": "address",
          "name": "maintainer",
          "type": "address"
        },
        {
          "internalType": "enum BulkDisbursableNFTs.Role[]",
          "name": "grants",
          "type": "uint8[]"
        },
        {
          "internalType": "enum BulkDisbursableNFTs.Role[]",
          "name": "disables",
          "type": "uint8[]"
        }
      ],
      "name": "create",
      "outputs": [
        {
          "internalType": "uint256",
          "name": "id",
          "type": "uint256"
        }
      ],
      "stateMutability": "nonpayable",
      "type": "function"
    },
    {
      "inputs": [],
      "name": "create",
      "outputs": [
        {
          "internalType": "uint256",
          "name": "id",
          "type": "uint256"
        }
      ],
      "stateMutability": "nonpayable",
      "type": "function"
    },
    {
      "inputs": [
        {
          "internalType": "enum BulkDisbursableNFTs.Role",
          "name": "toDisable",
          "type": "uint8"
        },
        {
          "internalType": "uint256",
          "name": "tokenId",
          "type": "uint256"
        }
      ],
      "name": "disableRole",
      "outputs": [],
      "stateMutability": "nonpayable",
      "type": "function"
    },
    {
      "inputs": [
        {
          "internalType": "uint256",
          "name": "id",
          "type": "uint256"
        }
      ],
      "name": "exists",
      "outputs": [
        {
          "internalType": "bool",
          "name": "",
          "type": "bool"
        }
      ],
      "stateMutability": "view",
      "type": "function"
    },
    {
      "inputs": [
        {
          "internalType": "enum BulkDisbursableNFTs.Role",
          "name": "role",
          "type": "uint8"
        },
        {
          "internalType": "address",
          "name": "user",
          "type": "address"
        },
        {
          "internalType": "uint256",
          "name": "index",
          "type": "uint256"
        }
      ],
      "name": "gateToken",
      "outputs": [
        {
          "internalType": "uint256",
          "name": "id",
          "type": "uint256"
        }
      ],
      "stateMutability": "view",
      "type": "function"
    },
    {
      "inputs": [
        {
          "internalType": "enum BulkDisbursableNFTs.Role",
          "name": "role",
          "type": "uint8"
        },
        {
          "internalType": "address",
          "name": "user",
          "type": "address"
        }
      ],
      "name": "grantRole",
      "outputs": [],
      "stateMutability": "nonpayable",
      "type": "function"
    },
    {
      "inputs": [
        {
          "internalType": "enum BulkDisbursableNFTs.Role",
          "name": "role",
          "type": "uint8"
        },
        {
          "internalType": "address",
          "name": "user",
          "type": "address"
        },
        {
          "internalType": "uint256",
          "name": "index",
          "type": "uint256"
        }
      ],
      "name": "grantRole",
      "outputs": [],
      "stateMutability": "nonpayable",
      "type": "function"
    },
    {
      "inputs": [
        {
          "internalType": "enum BulkDisbursableNFTs.Role",
          "name": "role",
          "type": "uint8"
        }
      ],
      "name": "hasRole",
      "outputs": [
        {
          "internalType": "bool",
          "name": "has",
          "type": "bool"
        }
      ],
      "stateMutability": "view",
      "type": "function"
    },
    {
      "inputs": [
        {
          "internalType": "enum BulkDisbursableNFTs.Role",
          "name": "role",
          "type": "uint8"
        },
        {
          "internalType": "address",
          "name": "user",
          "type": "address"
        },
        {
          "internalType": "uint256",
          "name": "id",
          "type": "uint256"
        }
      ],
      "name": "hasRole",
      "outputs": [
        {
          "internalType": "bool",
          "name": "has",
          "type": "bool"
        }
      ],
      "stateMutability": "view",
      "type": "function"
    },
    {
      "inputs": [
        {
          "internalType": "enum BulkDisbursableNFTs.Role",
          "name": "role",
          "type": "uint8"
        },
        {
          "internalType": "uint256",
          "name": "id",
          "type": "uint256"
        }
      ],
      "name": "hasRole",
      "outputs": [
        {
          "internalType": "bool",
          "name": "has",
          "type": "bool"
        }
      ],
      "stateMutability": "view",
      "type": "function"
    },
    {
      "inputs": [
        {
          "internalType": "enum BulkDisbursableNFTs.Role",
          "name": "role",
          "type": "uint8"
        },
        {
          "internalType": "address",
          "name": "user",
          "type": "address"
        }
      ],
      "name": "hasRole",
      "outputs": [
        {
          "internalType": "bool",
          "name": "has",
          "type": "bool"
        }
      ],
      "stateMutability": "view",
      "type": "function"
    },
    {
      "inputs": [
        {
          "internalType": "string",
          "name": "_name",
          "type": "string"
        },
        {
          "internalType": "string",
          "name": "_symbol",
          "type": "string"
        }
      ],
      "name": "initialize",
      "outputs": [],
      "stateMutability": "nonpayable",
      "type": "function"
    },
    {
      "inputs": [
        {
          "internalType": "address",
          "name": "account",
          "type": "address"
        },
        {
          "internalType": "address",
          "name": "operator",
          "type": "address"
        }
      ],
      "name": "isApprovedForAll",
      "outputs": [
        {
          "internalType": "bool",
          "name": "",
          "type": "bool"
        }
      ],
      "stateMutability": "view",
      "type": "function"
    },
    {
      "inputs": [
        {
          "internalType": "address",
          "name": "user",
          "type": "address"
        }
      ],
      "name": "isSuper",
      "outputs": [
        {
          "internalType": "bool",
          "name": "superuser",
          "type": "bool"
        }
      ],
      "stateMutability": "view",
      "type": "function"
    },
    {
      "inputs": [],
      "name": "isSuper",
      "outputs": [
        {
          "internalType": "bool",
          "name": "superuser",
          "type": "bool"
        }
      ],
      "stateMutability": "view",
      "type": "function"
    },
    {
      "inputs": [
        {
          "internalType": "address[]",
          "name": "to",
          "type": "address[]"
        },
        {
          "internalType": "uint256",
          "name": "id",
          "type": "uint256"
        },
        {
          "internalType": "bytes",
          "name": "data",
          "type": "bytes"
        }
      ],
      "name": "mint",
      "outputs": [],
      "stateMutability": "nonpayable",
      "type": "function"
    },
    {
      "inputs": [
        {
          "internalType": "address",
          "name": "recipient",
          "type": "address"
        },
        {
          "internalType": "uint256",
          "name": "id",
          "type": "uint256"
        },
        {
          "internalType": "uint256",
          "name": "amount",
          "type": "uint256"
        },
        {
          "internalType": "bytes",
          "name": "data",
          "type": "bytes"
        }
      ],
      "name": "mint",
      "outputs": [
        {
          "internalType": "bool",
          "name": "minted",
          "type": "bool"
        }
      ],
      "stateMutability": "nonpayable",
      "type": "function"
    },
    {
      "inputs": [],
      "name": "name",
      "outputs": [
        {
          "internalType": "string",
          "name": "",
          "type": "string"
        }
      ],
      "stateMutability": "view",
      "type": "function"
    },
    {
      "inputs": [],
      "name": "owner",
      "outputs": [
        {
          "internalType": "address",
          "name": "",
          "type": "address"
        }
      ],
      "stateMutability": "view",
      "type": "function"
    },
    {
      "inputs": [],
      "name": "proxiableUUID",
      "outputs": [
        {
          "internalType": "bytes32",
          "name": "",
          "type": "bytes32"
        }
      ],
      "stateMutability": "view",
      "type": "function"
    },
    {
      "inputs": [],
      "name": "renounceOwnership",
      "outputs": [],
      "stateMutability": "nonpayable",
      "type": "function"
    },
    {
      "inputs": [
        {
          "internalType": "string",
          "name": "roleName",
          "type": "string"
        }
      ],
      "name": "roleIndexForName",
      "outputs": [
        {
          "internalType": "enum BulkDisbursableNFTs.Role",
          "name": "role",
          "type": "uint8"
        }
      ],
      "stateMutability": "pure",
      "type": "function"
    },
    {
      "inputs": [
        {
          "internalType": "enum BulkDisbursableNFTs.Role",
          "name": "index",
          "type": "uint8"
        }
      ],
      "name": "roleNameByIndex",
      "outputs": [
        {
          "internalType": "string",
          "name": "",
          "type": "string"
        }
      ],
      "stateMutability": "pure",
      "type": "function"
    },
    {
      "inputs": [
        {
          "internalType": "enum BulkDisbursableNFTs.Role",
          "name": "role",
          "type": "uint8"
        }
      ],
      "name": "roleToken",
      "outputs": [
        {
          "internalType": "uint256",
          "name": "id",
          "type": "uint256"
        }
      ],
      "stateMutability": "view",
      "type": "function"
    },
    {
      "inputs": [
        {
          "internalType": "enum BulkDisbursableNFTs.Role",
          "name": "role",
          "type": "uint8"
        },
        {
          "internalType": "uint256",
          "name": "index",
          "type": "uint256"
        }
      ],
      "name": "roleToken",
      "outputs": [
        {
          "internalType": "uint256",
          "name": "id",
          "type": "uint256"
        }
      ],
      "stateMutability": "view",
      "type": "function"
    },
    {
      "inputs": [
        {
          "internalType": "address",
          "name": "from",
          "type": "address"
        },
        {
          "internalType": "address",
          "name": "to",
          "type": "address"
        },
        {
          "internalType": "uint256[]",
          "name": "ids",
          "type": "uint256[]"
        },
        {
          "internalType": "uint256[]",
          "name": "amounts",
          "type": "uint256[]"
        },
        {
          "internalType": "bytes",
          "name": "data",
          "type": "bytes"
        }
      ],
      "name": "safeBatchTransferFrom",
      "outputs": [],
      "stateMutability": "nonpayable",
      "type": "function"
    },
    {
      "inputs": [
        {
          "internalType": "address",
          "name": "from",
          "type": "address"
        },
        {
          "internalType": "address",
          "name": "to",
          "type": "address"
        },
        {
          "internalType": "uint256",
          "name": "id",
          "type": "uint256"
        },
        {
          "internalType": "uint256",
          "name": "amount",
          "type": "uint256"
        },
        {
          "internalType": "bytes",
          "name": "data",
          "type": "bytes"
        }
      ],
      "name": "safeTransferFrom",
      "outputs": [],
      "stateMutability": "nonpayable",
      "type": "function"
    },
    {
      "inputs": [
        {
          "internalType": "address",
          "name": "operator",
          "type": "address"
        },
        {
          "internalType": "bool",
          "name": "approved",
          "type": "bool"
        }
      ],
      "name": "setApprovalForAll",
      "outputs": [],
      "stateMutability": "nonpayable",
      "type": "function"
    },
    {
      "inputs": [
        {
          "internalType": "string",
          "name": "_name",
          "type": "string"
        },
        {
          "internalType": "string",
          "name": "_symbol",
          "type": "string"
        }
      ],
      "name": "setDescription",
      "outputs": [],
      "stateMutability": "nonpayable",
      "type": "function"
    },
    {
      "inputs": [
        {
          "internalType": "uint256",
          "name": "id",
          "type": "uint256"
        },
        {
          "internalType": "uint256",
          "name": "max",
          "type": "uint256"
        }
      ],
      "name": "setMax",
      "outputs": [],
      "stateMutability": "nonpayable",
      "type": "function"
    },
    {
      "inputs": [
        {
          "internalType": "uint256",
          "name": "id",
          "type": "uint256"
        },
        {
          "internalType": "string",
          "name": "newURI",
          "type": "string"
        }
      ],
      "name": "setURI",
      "outputs": [],
      "stateMutability": "nonpayable",
      "type": "function"
    },
    {
      "inputs": [
        {
          "internalType": "bytes4",
          "name": "interfaceId",
          "type": "bytes4"
        }
      ],
      "name": "supportsInterface",
      "outputs": [
        {
          "internalType": "bool",
          "name": "",
          "type": "bool"
        }
      ],
      "stateMutability": "view",
      "type": "function"
    },
    {
      "inputs": [],
      "name": "symbol",
      "outputs": [
        {
          "internalType": "string",
          "name": "",
          "type": "string"
        }
      ],
      "stateMutability": "view",
      "type": "function"
    },
    {
      "inputs": [
        {
          "internalType": "uint256",
          "name": "index",
          "type": "uint256"
        }
      ],
      "name": "tokenByIndex",
      "outputs": [
        {
          "internalType": "uint256",
          "name": "id",
          "type": "uint256"
        }
      ],
      "stateMutability": "view",
      "type": "function"
    },
    {
      "inputs": [
        {
          "internalType": "uint256",
          "name": "id",
          "type": "uint256"
        }
      ],
      "name": "tokenIndex",
      "outputs": [
        {
          "internalType": "uint256",
          "name": "index",
          "type": "uint256"
        }
      ],
      "stateMutability": "view",
      "type": "function"
    },
    {
      "inputs": [
        {
          "internalType": "address",
          "name": "owner",
          "type": "address"
        },
        {
          "internalType": "uint256",
          "name": "index",
          "type": "uint256"
        }
      ],
      "name": "tokenOfOwnerByIndex",
      "outputs": [
        {
          "internalType": "uint256",
          "name": "id",
          "type": "uint256"
        }
      ],
      "stateMutability": "view",
      "type": "function"
    },
    {
      "inputs": [
        {
          "internalType": "uint256",
          "name": "id",
          "type": "uint256"
        }
      ],
      "name": "totalSupply",
      "outputs": [
        {
          "internalType": "uint256",
          "name": "",
          "type": "uint256"
        }
      ],
      "stateMutability": "view",
      "type": "function"
    },
    {
      "inputs": [
        {
          "internalType": "address",
          "name": "newOwner",
          "type": "address"
        }
      ],
      "name": "transferOwnership",
      "outputs": [],
      "stateMutability": "nonpayable",
      "type": "function"
    },
    {
      "inputs": [],
      "name": "typeSupply",
      "outputs": [
        {
          "internalType": "uint256",
          "name": "count",
          "type": "uint256"
        }
      ],
      "stateMutability": "view",
      "type": "function"
    },
    {
      "inputs": [
        {
          "internalType": "address",
          "name": "newImplementation",
          "type": "address"
        }
      ],
      "name": "upgradeTo",
      "outputs": [],
      "stateMutability": "nonpayable",
      "type": "function"
    },
    {
      "inputs": [
        {
          "internalType": "address",
          "name": "newImplementation",
          "type": "address"
        },
        {
          "internalType": "bytes",
          "name": "data",
          "type": "bytes"
        }
      ],
      "name": "upgradeToAndCall",
      "outputs": [],
      "stateMutability": "payable",
      "type": "function"
    },
    {
      "inputs": [
        {
          "internalType": "uint256",
          "name": "id",
          "type": "uint256"
        }
      ],
      "name": "uri",
      "outputs": [
        {
          "internalType": "string",
          "name": "metadata",
          "type": "string"
        }
      ],
      "stateMutability": "view",
      "type": "function"
    }
  ],
  "bytecode": "0x60a06040523060601b6080523480156200001857600080fd5b50600054610100900460ff16620000365760005460ff161562000040565b62000040620000e5565b620000a85760405162461bcd60e51b815260206004820152602e60248201527f496e697469616c697a61626c653a20636f6e747261637420697320616c72656160448201526d191e481a5b9a5d1a585b1a5e995960921b606482015260840160405180910390fd5b600054610100900460ff16158015620000cb576000805461ffff19166101011790555b8015620000de576000805461ff00191690555b5062000112565b6000620000fd306200010360201b620029e31760201c565b15905090565b6001600160a01b03163b151590565b60805160601c6159946200014d600039600081816112a7015281816112e70152818161185b0152818161189b01526119cf01526159946000f3fe60806040526004361061022d5760003560e01c8062fdd58e1461023257806301ffc9a7146102655780630583e9f81461029557806306fdde03146102b55780630e89341c146102d75780630ec0370f146102f757806314c464271461031957806316730ab01461033957806319e0755c146103595780632eb2c2d6146103795780632f745c59146103995780633659cfe6146103b95780633b91ceef146103d95780633dbe35de146103f95780634468031f1461041957806348289589146104395780634a80070f146104595780634cd88b76146104795780634e1273f4146104995780634f1ef286146104c65780634f558e79146104d95780634f6ccce71461050857806352d1902d146105285780635d5664e11461053d5780636755d4561461055d5780636b20c4541461057d5780636fc0020b1461059d578063715018a6146105bd578063731133e9146105d2578063778f5a7b146105f2578063814c24501461061f578063862440e21461063f5780638da5cb5b1461065f57806395d89b411461068c5780639d6d7eaa146106a15780639d969a9c146106c15780639e97b8f6146106d6578063a22cb465146106f6578063aa8e906614610716578063b0bdf26114610736578063bd85b03914610756578063c3c8df9914610783578063e985e9c5146107a3578063edc79bac146107ec578063efc81a8c14610801578063f242432a14610816578063f2fde38b14610836578063f5298aca14610856578063fde4047a14610876575b600080fd5b34801561023e57600080fd5b5061025261024d366004614b96565b610896565b6040519081526020015b60405180910390f35b34801561027157600080fd5b50610285610280366004614d72565b610932565b604051901515815260200161025c565b3480156102a157600080fd5b506102526102b0366004614ee2565b610982565b3480156102c157600080fd5b506102ca6109f0565b60405161025c91906151df565b3480156102e357600080fd5b506102ca6102f2366004614ee2565b610a7f565b34801561030357600080fd5b50610317610312366004614ca5565b610cf2565b005b34801561032557600080fd5b50610252610334366004614daa565b610d49565b34801561034557600080fd5b50610252610354366004614ddf565b610d56565b34801561036557600080fd5b50610285610374366004614daa565b611175565b34801561038557600080fd5b50610317610394366004614934565b611181565b3480156103a557600080fd5b506102526103b4366004614b96565b611218565b3480156103c557600080fd5b506103176103d43660046148e8565b61129c565b3480156103e557600080fd5b506103176103f4366004614f93565b611365565b34801561040557600080fd5b50610252610414366004614e1a565b6113e8565b34801561042557600080fd5b50610285610434366004614ddf565b611563565b34801561044557600080fd5b50610285610454366004614e1a565b61158a565b34801561046557600080fd5b50610252610474366004614d04565b611597565b34801561048557600080fd5b50610317610494366004614e35565b6115a4565b3480156104a557600080fd5b506104b96104b4366004614c4f565b6116ef565b60405161025c9190615150565b6103176104d4366004614b4b565b611850565b3480156104e557600080fd5b506102856104f4366004614ee2565b600090815260fb6020526040902054151590565b34801561051457600080fd5b50610252610523366004614ee2565b611906565b34801561053457600080fd5b506102526119c2565b34801561054957600080fd5b50610317610558366004614dc4565b611a71565b34801561056957600080fd5b50610317610578366004614e35565b611a7d565b34801561058957600080fd5b50610317610598366004614aab565b611ac7565b3480156105a957600080fd5b506102ca6105b8366004614ee2565b611b0f565b3480156105c957600080fd5b50610317611b2f565b3480156105de57600080fd5b506102856105ed366004614bf1565b611b6a565b3480156105fe57600080fd5b5061061261060d366004614e9d565b611d72565b60405161025c9190615188565b34801561062b57600080fd5b506102ca61063a366004614daa565b6120ba565b34801561064b57600080fd5b5061031761065a366004614efa565b612489565b34801561066b57600080fd5b50610674612565565b6040516001600160a01b03909116815260200161025c565b34801561069857600080fd5b506102ca612574565b3480156106ad57600080fd5b506103176106bc366004614f43565b612582565b3480156106cd57600080fd5b50610252612597565b3480156106e257600080fd5b506102856106f1366004614dc4565b6125af565b34801561070257600080fd5b50610317610711366004614b11565b6125bd565b34801561072257600080fd5b50610317610731366004614ddf565b6125c8565b34801561074257600080fd5b50610252610751366004614a3b565b6125d5565b34801561076257600080fd5b50610252610771366004614ee2565b600090815260fb602052604090205490565b34801561078f57600080fd5b5061028561079e3660046148e8565b61279c565b3480156107af57600080fd5b506102856107be366004614902565b6001600160a01b03918216600090815260666020908152604080832093909416825291909152205460ff1690565b3480156107f857600080fd5b506102856127d1565b34801561080d57600080fd5b506102526127dc565b34801561082257600080fd5b506103176108313660046149d9565b6127fd565b34801561084257600080fd5b506103176108513660046148e8565b612842565b34801561086257600080fd5b50610317610871366004614bbf565b6128df565b34801561088257600080fd5b50610317610891366004614e1a565b612969565b60006001600160a01b0383166109075760405162461bcd60e51b815260206004820152602b60248201527f455243313135353a2062616c616e636520717565727920666f7220746865207a60448201526a65726f206164647265737360a81b60648201526084015b60405180910390fd5b5060008181526065602090815260408083206001600160a01b03861684529091529020545b92915050565b60006001600160e01b03198216636cdb3d1360e11b148061096357506001600160e01b031982166303a24d0760e21b145b8061092c57506301ffc9a760e01b6001600160e01b031983161461092c565b60008181526101956020526040902054806109eb5760405162461bcd60e51b815260206004820152602360248201527f5468652072657175657374656420746f6b656e20646f6573206e6f742065786960448201526239ba1760e91b60648201526084016108fe565b919050565b61019180546109fe906156e9565b80601f0160208091040260200160405190810160405280929190818152602001828054610a2a906156e9565b8015610a775780601f10610a4c57610100808354040283529160200191610a77565b820191906000526020600020905b815481529060010190602001808311610a5a57829003601f168201915b505050505081565b600081815261019360205260409020805460609190610a9d906156e9565b80601f0160208091040260200160405190810160405280929190818152602001828054610ac9906156e9565b8015610b165780601f10610aeb57610100808354040283529160200191610b16565b820191906000526020600020905b815481529060010190602001808311610af957829003601f168201915b505050505090508051600014156109eb576008610b36600d610100615660565b610b40919061569a565b600160ff919091161b6008610b58600d610100615660565b610b62919061569a565b60ff166001610b73600860026155b5565b610b7d9190615683565b901b831614156109eb576000600160088160038083610b9f600d610100615660565b610ba9919061569a565b610bb3919061569a565b610bbd919061569a565b610bc7919061569a565b610bd1919061569a565b610bdb919061569a565b60ff166001610beb8160026155b5565b610bf59190615683565b901b6003806008610c09600d610100615660565b610c13919061569a565b610c1d919061569a565b610c27919061569a565b60ff166001901b1719600160206002610c4091906155b5565b610c4a9190615683565b19841616600081815261019360205260409020805491925090610c6c906156e9565b80601f0160208091040260200160405190810160405280929190818152602001828054610c98906156e9565b8015610ce55780601f10610cba57610100808354040283529160200191610ce5565b820191906000526020600020905b815481529060010190602001808311610cc857829003601f168201915b5050505050915050919050565b60005b8351811015610d4357610d32848281518110610d2157634e487b7160e01b600052603260045260246000fd5b602002602001015184600185611b6a565b50610d3c81615750565b9050610cf5565b50505050565b600061092c8260006113e8565b600080610d6285610d49565b9050600061019581856008610d7a600d610100615660565b610d84919061569a565b60ff16600a901b851717815260200190815260200160002054905080600014610dde57610194805482908110610dca57634e487b7160e01b600052603260045260246000fd5b90600052602060002001549250505061116e565b6000604051806101000160405280866001600860016003806008600d60ff16610100610e0a9190615660565b610e14919061569a565b610e1e919061569a565b610e28919061569a565b610e32919061569a565b610e3c919061569a565b610e46919061569a565b60ff166001610e568160026155b5565b610e609190615683565b901b6003806008610e74600d610100615660565b610e7e919061569a565b610e88919061569a565b610e92919061569a565b600160ff919091161b871717178152602001866003806008610eb7600d610100615660565b610ec1919061569a565b610ecb919061569a565b610ed5919061569a565b60ff166001901b86171781526020016001600860016003806008600d60ff16610100610f019190615660565b610f0b919061569a565b610f15919061569a565b610f1f919061569a565b610f29919061569a565b610f33919061569a565b610f3d919061569a565b60ff166001610f4d8160026155b5565b610f579190615683565b901b6003806008610f6b600d610100615660565b610f75919061569a565b610f7f919061569a565b610f89919061569a565b600160ff919091161b86171781526020016003806008610fac600d610100615660565b610fb6919061569a565b610fc0919061569a565b610fca919061569a565b60ff166001901b85178152602001866001600860016003806008600d60ff16610100610ff69190615660565b611000919061569a565b61100a919061569a565b611014919061569a565b61101e919061569a565b611028919061569a565b611032919061569a565b60ff1660016110428160026155b5565b61104c9190615683565b901b861717815260200160016008816003808361106c600d610100615660565b611076919061569a565b611080919061569a565b61108a919061569a565b611094919061569a565b61109e919061569a565b6110a8919061569a565b60ff1660016110b88160026155b5565b6110c29190615683565b901b851781528685176020820152604001849052905060005b60088160ff16101561116557600061111a88848460ff166008811061111057634e487b7160e01b600052603260045260246000fd5b6020020151610896565b111561115357818160ff166008811061114357634e487b7160e01b600052603260045260246000fd5b602002015194505050505061116e565b8061115d8161576b565b9150506110db565b50600093505050505b9392505050565b600061092c82336125af565b6001600160a01b03851633148061119d575061119d85336107be565b6112045760405162461bcd60e51b815260206004820152603260248201527f455243313135353a207472616e736665722063616c6c6572206973206e6f74206044820152711bdddb995c881b9bdc88185c1c1c9bdd995960721b60648201526084016108fe565b61121185858585856129f2565b5050505050565b6001600160a01b0382166000908152610196602052604081205482106112505760405162461bcd60e51b81526004016108fe90615442565b6001600160a01b03831660009081526101966020526040902080548390811061128957634e487b7160e01b600052603260045260246000fd5b9060005260206000200154905092915050565b306001600160a01b037f00000000000000000000000000000000000000000000000000000000000000001614156112e55760405162461bcd60e51b81526004016108fe9061527e565b7f00000000000000000000000000000000000000000000000000000000000000006001600160a01b0316611317612ba9565b6001600160a01b03161461133d5760405162461bcd60e51b81526004016108fe90615301565b61134681612bc5565b6040805160008082526020820190925261136291839190612c4b565b50565b61137060088361158a565b8061137e575061137e6127d1565b6113e45760405162461bcd60e51b815260206004820152603160248201527f596f75206d75737420686176652061204c696d6974657220746f6b656e20746f6044820152701031b430b733b29038bab0b73a34ba3c9760791b60648201526084016108fe565b5050565b60006113f6602060026155b5565b82106114445760405162461bcd60e51b815260206004820152601f60248201527f496e64696365732063616e206265206174206d6f737420333220426974732e0060448201526064016108fe565b81600184600c81111561146757634e487b7160e01b600052602160045260246000fd5b146114735760006114cc565b60016003806008611487600d610100615660565b611491919061569a565b61149b919061569a565b6114a5919061569a565b6114af919061569a565b60ff1660016114bf8160026155b5565b6114c99190615683565b901b5b60086001600380836114e1600d610100615660565b6114eb919061569a565b6114f5919061569a565b6114ff919061569a565b611509919061569a565b611513919061569a565b60ff1685600c81111561153657634e487b7160e01b600052602160045260246000fd5b901b6008611547600d610100615660565b611551919061569a565b60ff166001901b171717905092915050565b600081815261019560205260408120546115809085908590610d56565b1515949350505050565b600061116e833384611563565b600061116e3384846125d5565b600054610100900460ff166115bf5760005460ff16156115c7565b6115c7612dc5565b61162a5760405162461bcd60e51b815260206004820152602e60248201527f496e697469616c697a61626c653a20636f6e747261637420697320616c72656160448201526d191e481a5b9a5d1a585b1a5e995960921b60648201526084016108fe565b600054610100900460ff1615801561164c576000805461ffff19166101011790555b611654612dd6565b6116926040518060400160405280602081526020017f4572726f723a2053696e676c6520546f6b656e20555249204e6f742055736564815250612e05565b61169a612e35565b6116a2612e35565b6116aa612e35565b610194805460018101825560009182526000805160206158d883398151915201556116d785858585611a7d565b8015611211576000805461ff00191690555050505050565b606081518351146117545760405162461bcd60e51b815260206004820152602960248201527f455243313135353a206163636f756e747320616e6420696473206c656e677468604482015268040dad2e6dac2e8c6d60bb1b60648201526084016108fe565b600083516001600160401b0381111561177d57634e487b7160e01b600052604160045260246000fd5b6040519080825280602002602001820160405280156117a6578160200160208202803683370190505b50905060005b84518110156118485761180d8582815181106117d857634e487b7160e01b600052603260045260246000fd5b602002602001015185838151811061180057634e487b7160e01b600052603260045260246000fd5b6020026020010151610896565b82828151811061182d57634e487b7160e01b600052603260045260246000fd5b602090810291909101015261184181615750565b90506117ac565b509392505050565b306001600160a01b037f00000000000000000000000000000000000000000000000000000000000000001614156118995760405162461bcd60e51b81526004016108fe9061527e565b7f00000000000000000000000000000000000000000000000000000000000000006001600160a01b03166118cb612ba9565b6001600160a01b0316146118f15760405162461bcd60e51b81526004016108fe90615301565b6118fa82612bc5565b6113e482826001612c4b565b600080821161196a5760405162461bcd60e51b815260206004820152602a60248201527f4552432d3131353520456e756d657261626c653a20746f6b656e7320696e64656044820152697865642066726f6d203160b01b60648201526084016108fe565b6101945482111561198d5760405162461bcd60e51b81526004016108fe90615442565b6101948054839081106119b057634e487b7160e01b600052603260045260246000fd5b90600052602060002001549050919050565b6000306001600160a01b037f00000000000000000000000000000000000000000000000000000000000000001614611a5d5760405162461bcd60e51b815260206004820152603860248201527f555550535570677261646561626c653a206d757374206e6f742062652063616c6044820152771b1959081d1a1c9bdd59da0819195b1959d85d1958d85b1b60421b60648201526084016108fe565b506000805160206159188339815191525b90565b6113e4828260006125c8565b33611a86612565565b6001600160a01b031614611aac5760405162461bcd60e51b81526004016108fe9061540d565b611ab961019185856145a3565b5061121161019283836145a3565b6001600160a01b038316331480611ae35750611ae383336107be565b611aff5760405162461bcd60e51b81526004016108fe906152b8565b611b0a838383612e5c565b505050565b61019781600b8110611b2057600080fd5b0180549091506109fe906156e9565b33611b38612565565b6001600160a01b031614611b5e5760405162461bcd60e51b81526004016108fe9061540d565b611b686000612ff7565b565b6000600160088160038083611b82600d610100615660565b611b8c919061569a565b611b96919061569a565b611ba0919061569a565b611baa919061569a565b611bb4919061569a565b611bbe919061569a565b60ff166001611bce8160026155b5565b611bd89190615683565b901b600160088160038083611bf0600d610100615660565b611bfa919061569a565b611c04919061569a565b611c0e919061569a565b611c18919061569a565b611c22919061569a565b611c2c919061569a565b60ff166001611c3c8160026155b5565b611c469190615683565b901b85161415611caa5760405162461bcd60e51b815260206004820152602960248201527f43616e6e6f74206d696e7420696e7465726e616c20746f6b656e732066726f6d6044820152681037baba39b4b2329760b91b60648201526084016108fe565b60016003806008611cbe600d610100615660565b611cc8919061569a565b611cd2919061569a565b611cdc919061569a565b611ce6919061569a565b60ff166001901b60016003806008600d60ff16610100611d069190615660565b611d10919061569a565b611d1a919061569a565b611d24919061569a565b611d2e919061569a565b60ff166001901b8516148015611d4d57506000611d4b8686610896565b115b15611d5a57506000611d6a565b611d6685858585613049565b5060015b949350505050565b60008082604051602001611d86919061501a565b604051602081830303815290604052805190602001209050604051602001611dbd906829bab832b93ab9b2b960b91b815260090190565b60405160208183030381529060405280519060200120811415611de35750600192915050565b6040516526b4b73a32b960d11b602082015260260160405160208183030381529060405280519060200120811415611e1e5750600292915050565b6040516521b0b9ba32b960d11b602082015260260160405160208183030381529060405280519060200120811415611e595750600392915050565b604051692a3930b739b332b932b960b11b6020820152602a0160405160208183030381529060405280519060200120811415611e985750600492915050565b6040516921b7b73334b3bab932b960b11b6020820152602a0160405160208183030381529060405280519060200120811415611ed75750600592915050565b6040516926b0b4b73a30b4b732b960b11b6020820152602a0160405160208183030381529060405280519060200120811415611f165750600692915050565b6040516621b932b0ba37b960c91b602082015260270160405160208183030381529060405280519060200120811415611f525750600792915050565b604051662634b6b4ba32b960c91b602082015260270160405160208183030381529060405280519060200120811415611f8e5750600892915050565b60405165213ab93732b960d11b602082015260260160405160208183030381529060405280519060200120811415611fc95750600992915050565b604051682232b9ba3937bcb2b960b91b6020820152602901604051602081830303815290604052805190602001208114156120075750600a92915050565b604051654f7261636c6560d01b6020820152602601604051602081830303815290604052805190602001208114156120425750600b92915050565b6040516b14995cd95c9d995913185cdd60a21b6020820152602c01604051602081830303815290604052805190602001208114156120835750600c92915050565b826040516020016120949190615036565b60408051601f198184030181529082905262461bcd60e51b82526108fe916004016151df565b6060600182600c8111156120de57634e487b7160e01b600052602160045260246000fd5b141561210957505060408051808201909152600981526829bab832b93ab9b2b960b91b602082015290565b600282600c81111561212b57634e487b7160e01b600052602160045260246000fd5b141561215357505060408051808201909152600681526526b4b73a32b960d11b602082015290565b600382600c81111561217557634e487b7160e01b600052602160045260246000fd5b141561219d57505060408051808201909152600681526521b0b9ba32b960d11b602082015290565b600482600c8111156121bf57634e487b7160e01b600052602160045260246000fd5b14156121eb57505060408051808201909152600a8152692a3930b739b332b932b960b11b602082015290565b600582600c81111561220d57634e487b7160e01b600052602160045260246000fd5b141561223957505060408051808201909152600a81526921b7b73334b3bab932b960b11b602082015290565b600682600c81111561225b57634e487b7160e01b600052602160045260246000fd5b141561228757505060408051808201909152600a81526926b0b4b73a30b4b732b960b11b602082015290565b600782600c8111156122a957634e487b7160e01b600052602160045260246000fd5b14156122d257505060408051808201909152600781526621b932b0ba37b960c91b602082015290565b600882600c8111156122f457634e487b7160e01b600052602160045260246000fd5b141561231d5750506040805180820190915260078152662634b6b4ba32b960c91b602082015290565b600982600c81111561233f57634e487b7160e01b600052602160045260246000fd5b1415612367575050604080518082019091526006815265213ab93732b960d11b602082015290565b600a82600c81111561238957634e487b7160e01b600052602160045260246000fd5b14156123b45750506040805180820190915260098152682232b9ba3937bcb2b960b91b602082015290565b600b82600c8111156123d657634e487b7160e01b600052602160045260246000fd5b14156123fe5750506040805180820190915260068152654f7261636c6560d01b602082015290565b600c82600c81111561242057634e487b7160e01b600052602160045260246000fd5b141561244e57505060408051808201909152600c81526b14995cd95c9d995913185cdd60a21b602082015290565b61247982600c81111561247157634e487b7160e01b600052602160045260246000fd5b60ff16613149565b6040516020016120949190615071565b61249460058461158a565b806124a257506124a26127d1565b61250b5760405162461bcd60e51b815260206004820152603460248201527f596f75206d7573742068617665206120436f6e6669677572657220746f6b656e604482015273103a379031b430b733b29036b2ba30b230ba309760611b60648201526084016108fe565b6000838152610193602052604090206125259083836145a3565b50827f6bb7ff708619ba0610cba295a58592e0451dee2622938c8755667688daf3529b83836040516125589291906151b0565b60405180910390a2505050565b6097546001600160a01b031690565b61019280546109fe906156e9565b61258d848484612489565b610d438482611365565b610194546000906125aa90600190615683565b905090565b600061116e83836000611563565b6113e4338383613262565b611b0a8383836000613343565b610194546000908060086125ec600d610100615660565b6125f6919061569a565b60ff166009901b17915061260b60078361158a565b8061261957506126196127d1565b6126815760405162461bcd60e51b815260206004820152603360248201527f596f75206d757374206861766520612043726561746f7220746f6b656e20746f6044820152721031b932b0ba32903732bb903a37b5b2b7399760691b60648201526084016108fe565b6101948054600181019091556000805160206158d8833981519152018290556000828152610195602052604081208290555b8451811015612702576126f08582815181106126df57634e487b7160e01b600052603260045260246000fd5b602002602001015187846001613343565b806126fa81615750565b9150506126b3565b5060005b83518110156127525761274084828151811061273257634e487b7160e01b600052603260045260246000fd5b602002602001015183612969565b8061274a81615750565b915050612706565b50604080518381526001600160a01b03871660208201527f7757890bcab34d673dfca6b71df1b57f75a2fe4231d6e8de726caf534ab1fdd6910160405180910390a1509392505050565b60006127a96001836125af565b8061092c57506127b7612565565b6001600160a01b0316826001600160a01b03161492915050565b60006125aa3361279c565b604080516000808252602082019092526127f73382836125d5565b91505090565b6001600160a01b038516331480612819575061281985336107be565b6128355760405162461bcd60e51b81526004016108fe906152b8565b61121185858585856134fe565b3361284b612565565b6001600160a01b0316146128715760405162461bcd60e51b81526004016108fe9061540d565b6001600160a01b0381166128d65760405162461bcd60e51b815260206004820152602660248201527f4f776e61626c653a206e6577206f776e657220697320746865207a65726f206160448201526564647265737360d01b60648201526084016108fe565b61136281612ff7565b6128eb60098484611563565b806128fa57506128fa8361279c565b61295e5760405162461bcd60e51b815260206004820152602f60248201527f596f75206d75737420686176652061204275726e657220746f6b656e20746f2060448201526e3232b9ba3937bc903a37b5b2b7399760891b60648201526084016108fe565b611b0a83838361360d565b600081815261019560205260408120546129849084906113e8565b90506008612995600d610100615660565b61299f919061569a565b610194805460018101909155600a60ff929092169190911b919091176000805160206158d88339815191528201819055600090815261019560205260409020555050565b6001600160a01b03163b151590565b8151835114612a135760405162461bcd60e51b81526004016108fe906154db565b6001600160a01b038416612a395760405162461bcd60e51b81526004016108fe9061533b565b33612a48818787878787613700565b60005b8451811015612b4d576000858281518110612a7657634e487b7160e01b600052603260045260246000fd5b602002602001015190506000858381518110612aa257634e487b7160e01b600052603260045260246000fd5b60209081029190910181015160008481526065835260408082206001600160a01b038e168352909352919091205490915081811015612af35760405162461bcd60e51b81526004016108fe906153c3565b60008381526065602090815260408083206001600160a01b038e8116855292528083208585039055908b16825281208054849290612b32908490615546565b9250508190555050505080612b4690615750565b9050612a4b565b50846001600160a01b0316866001600160a01b0316826001600160a01b03166000805160206158988339815191528787604051612b8b929190615163565b60405180910390a4612ba1818787878787613f26565b505050505050565b600080516020615918833981519152546001600160a01b031690565b612bcf6006611175565b80612bdd5750612bdd6127d1565b6113625760405162461bcd60e51b815260206004820152603960248201527f596f75206d75737420686176652061204d61696e7461696e657220746f6b656e604482015278103a37903ab833b930b232903a34329031b7b73a3930b1ba1760391b60648201526084016108fe565b7f4910fdfa16fed3260ed0e7147f7cc6da11a60208b5b9406d12a635614ffd91435460ff1615612c7e57611b0a83614098565b826001600160a01b03166352d1902d6040518163ffffffff1660e01b815260040160206040518083038186803b158015612cb757600080fd5b505afa925050508015612ce7575060408051601f3d908101601f19168201909252612ce491810190614d5a565b60015b612d4a5760405162461bcd60e51b815260206004820152602e60248201527f45524331393637557067726164653a206e657720696d706c656d656e7461746960448201526d6f6e206973206e6f74205555505360901b60648201526084016108fe565b6000805160206159188339815191528114612db95760405162461bcd60e51b815260206004820152602960248201527f45524331393637557067726164653a20756e737570706f727465642070726f786044820152681a58589b195555525160ba1b60648201526084016108fe565b50611b0a838383614132565b6000612dd0306129e3565b15905090565b600054610100900460ff16612dfd5760405162461bcd60e51b81526004016108fe90615490565b611b68614157565b600054610100900460ff16612e2c5760405162461bcd60e51b81526004016108fe90615490565b61136281614187565b600054610100900460ff16611b685760405162461bcd60e51b81526004016108fe90615490565b6001600160a01b038316612e825760405162461bcd60e51b81526004016108fe90615380565b8051825114612ea35760405162461bcd60e51b81526004016108fe906154db565b6000339050612ec681856000868660405180602001604052806000815250613700565b60005b8351811015612faa576000848281518110612ef457634e487b7160e01b600052603260045260246000fd5b602002602001015190506000848381518110612f2057634e487b7160e01b600052603260045260246000fd5b60209081029190910181015160008481526065835260408082206001600160a01b038c168352909352919091205490915081811015612f715760405162461bcd60e51b81526004016108fe9061523a565b60009283526065602090815260408085206001600160a01b038b1686529091529092209103905580612fa281615750565b915050612ec9565b5060006001600160a01b0316846001600160a01b0316826001600160a01b03166000805160206158988339815191528686604051612fe9929190615163565b60405180910390a450505050565b609780546001600160a01b038381166001600160a01b0319831681179093556040519116919082907f8be0079c531659141344cd1fd0a4f28419497f9722a3daafe3b4186f6b6457e090600090a35050565b6001600160a01b0384166130a95760405162461bcd60e51b815260206004820152602160248201527f455243313135353a206d696e7420746f20746865207a65726f206164647265736044820152607360f81b60648201526084016108fe565b336130c9816000876130ba886141b7565b6130c3886141b7565b87613700565b60008481526065602090815260408083206001600160a01b0389168452909152812080548592906130fb908490615546565b909155505060408051858152602081018590526001600160a01b0380881692600092918516916000805160206158b8833981519152910160405180910390a461121181600087878787614210565b60608161316d5750506040805180820190915260018152600360fc1b602082015290565b8160005b8115613197578061318181615750565b91506131909050600a8361555e565b9150613171565b6000816001600160401b038111156131bf57634e487b7160e01b600052604160045260246000fd5b6040519080825280601f01601f1916602001820160405280156131e9576020820181803683370190505b5090505b8415611d6a576131fe600183615683565b915061320b600a8661578b565b613216906030615546565b60f81b81838151811061323957634e487b7160e01b600052603260045260246000fd5b60200101906001600160f81b031916908160001a90535061325b600a8661555e565b94506131ed565b816001600160a01b0316836001600160a01b031614156132d65760405162461bcd60e51b815260206004820152602960248201527f455243313135353a2073657474696e6720617070726f76616c20737461747573604482015268103337b91039b2b63360b91b60648201526084016108fe565b6001600160a01b03838116600081815260666020908152604080832094871680845294825291829020805460ff191686151590811790915591519182527f17307eab39ab6107e8899845ad3d59bd9653f200f220920489ca2b5937696c31910160405180910390a3505050565b8061345d57600184600c81111561336a57634e487b7160e01b600052602160045260246000fd5b14156133dd576133786127d1565b6133d85760405162461bcd60e51b815260206004820152602b60248201527f596f75206d75737420626520612073757065727573657220746f20637265617460448201526a32903732bb9037b732b99760a91b60648201526084016108fe565b61345d565b6133e860038361158a565b806133f657506133f66127d1565b61345d5760405162461bcd60e51b815260206004820152603260248201527f596f75206d7573742068617665207468652043617374657220726f6c6520746f6044820152711030b9b9b4b3b7103732bb903937b632b99760711b60648201526084016108fe565b610d43838261346d5760006134dc565b600160088160038083613483600d610100615660565b61348d919061569a565b613497919061569a565b6134a1919061569a565b6134ab919061569a565b6134b5919061569a565b6134bf919061569a565b60ff1660016134cf8160026155b5565b6134d99190615683565b901b5b6134e687866113e8565b17600160405180602001604052806000815250613049565b6001600160a01b0384166135245760405162461bcd60e51b81526004016108fe9061533b565b336135348187876130ba886141b7565b60008481526065602090815260408083206001600160a01b038a168452909152902054838110156135775760405162461bcd60e51b81526004016108fe906153c3565b60008581526065602090815260408083206001600160a01b038b81168552925280832087850390559088168252812080548692906135b6908490615546565b909155505060408051868152602081018690526001600160a01b03808916928a821692918616916000805160206158b8833981519152910160405180910390a4613604828888888888614210565b50505050505050565b6001600160a01b0383166136335760405162461bcd60e51b81526004016108fe90615380565b3361366281856000613644876141b7565b61364d876141b7565b60405180602001604052806000815250613700565b60008381526065602090815260408083206001600160a01b0388168452909152902054828110156136a55760405162461bcd60e51b81526004016108fe9061523a565b60008481526065602090815260408083206001600160a01b03898116808652918452828520888703905582518981529384018890529092908616916000805160206158b8833981519152910160405180910390a45050505050565b6137086127d1565b613b5e5760005b8351811015613b5c5760016008816003808361372e600d610100615660565b613738919061569a565b613742919061569a565b61374c919061569a565b613756919061569a565b613760919061569a565b61376a919061569a565b60ff16600161377a8160026155b5565b6137849190615683565b901b60016008816003808361379c600d610100615660565b6137a6919061569a565b6137b0919061569a565b6137ba919061569a565b6137c4919061569a565b6137ce919061569a565b6137d8919061569a565b60ff1660016137e88160026155b5565b6137f29190615683565b901b85838151811061381457634e487b7160e01b600052603260045260246000fd5b60200260200101511614613b4c5760006001600160a01b0387161561383a57600461383d565b60025b9050600281600c81111561386157634e487b7160e01b600052602160045260246000fd5b1415613aae576008613876600d610100615660565b613880919061569a565b600160ff919091161b6008613898600d610100615660565b6138a2919061569a565b60ff1660016138b3600860026155b5565b6138bd9190615683565b901b8684815181106138df57634e487b7160e01b600052603260045260246000fd5b602002602001015116141561399957613920600386848151811061391357634e487b7160e01b600052603260045260246000fd5b602002602001015161158a565b8061392e575061392e6127d1565b6139945760405162461bcd60e51b815260206004820152603160248201527f596f75206d757374206861766520612043617374657220746f6b656e20746f2060448201527036b4b73a103a37b5b2b71033b0ba32b99760791b60648201526084016108fe565b613b4a565b60006139d082336103548987815181106139c357634e487b7160e01b600052603260045260246000fd5b6020026020010151610982565b90506139f68287858151811061391357634e487b7160e01b600052603260045260246000fd5b613a5b5760405162461bcd60e51b815260206004820152603060248201527f596f75206d75737420686176652061204d696e74657220746f6b656e20746f2060448201526f33b2b732b930ba32903a37b5b2b7399760811b60648201526084016108fe565b60006003806008613a6f600d610100615660565b613a79919061569a565b613a83919061569a565b613a8d919061569a565b60ff166001901b82161115613aa857613aa83382600161360d565b50613b4a565b6001600160a01b03861615613b4a57613ae18186848151811061391357634e487b7160e01b600052603260045260246000fd5b613b4a5760405162461bcd60e51b815260206004820152603460248201527f596f75206d75737420686176652061205472616e73666572657220746f6b656e604482015273103a37903a3930b739b332b9103a37b5b2b7399760611b60648201526084016108fe565b505b613b5581615750565b905061370f565b505b6001600160a01b03841615613d845760005b8351811015613d82576101946001016000858381518110613ba157634e487b7160e01b600052603260045260246000fd5b602002602001015181526020019081526020016000205460001415613c4d57610194600001848281518110613be657634e487b7160e01b600052603260045260246000fd5b6020908102919091018101518254600181018455600093845291832090910155610194548551909161019591879085908110613c3257634e487b7160e01b600052603260045260246000fd5b60200260200101518152602001908152602001600020819055505b6101966000866001600160a01b03166001600160a01b031681526020019081526020016000206001016000858381518110613c9857634e487b7160e01b600052603260045260246000fd5b602002602001015181526020019081526020016000205460001415613d72576001600160a01b0385166000908152610196602052604090208451859083908110613cf257634e487b7160e01b600052603260045260246000fd5b6020908102919091018101518254600181810185556000948552838520909101919091556001600160a01b0388168352610196909152604082208054875190939190920191879085908110613d5757634e487b7160e01b600052603260045260246000fd5b60200260200101518152602001908152602001600020819055505b613d7b81615750565b9050613b70565b505b6001600160a01b03851615613f185760005b8351811015613f1657828181518110613dbf57634e487b7160e01b600052603260045260246000fd5b6020026020010151613deb8786848151811061180057634e487b7160e01b600052603260045260246000fd5b11613f06576001600160a01b03861660009081526101966020526040812085516001918201908390889086908110613e3357634e487b7160e01b600052603260045260246000fd5b6020026020010151815260200190815260200160002054613e549190615683565b6001600160a01b03881660009081526101966020526040902080549192509082908110613e9157634e487b7160e01b600052603260045260246000fd5b90600052602060002001600090556101966000886001600160a01b03166001600160a01b031681526020019081526020016000206001016000868481518110613eea57634e487b7160e01b600052603260045260246000fd5b6020026020010151815260200190815260200160002060009055505b613f0f81615750565b9050613d96565b505b612ba18686868686866142e1565b613f38846001600160a01b03166129e3565b15612ba15760405163bc197c8160e01b81526001600160a01b0385169063bc197c8190613f7190899089908890889088906004016150ad565b602060405180830381600087803b158015613f8b57600080fd5b505af1925050508015613fbb575060408051601f3d908101601f19168201909252613fb891810190614d8e565b60015b61406857613fc76157e1565b806308c379a014156140015750613fdc6157f8565b80613fe75750614003565b8060405162461bcd60e51b81526004016108fe91906151df565b505b60405162461bcd60e51b815260206004820152603460248201527f455243313135353a207472616e7366657220746f206e6f6e20455243313135356044820152732932b1b2b4bb32b91034b6b83632b6b2b73a32b960611b60648201526084016108fe565b6001600160e01b0319811663bc197c8160e01b146136045760405162461bcd60e51b81526004016108fe906151f2565b6140a1816129e3565b6141035760405162461bcd60e51b815260206004820152602d60248201527f455243313936373a206e657720696d706c656d656e746174696f6e206973206e60448201526c1bdd08184818dbdb9d1c9858dd609a1b60648201526084016108fe565b60008051602061591883398151915280546001600160a01b0319166001600160a01b0392909216919091179055565b61413b83614425565b6000825111806141485750805b15611b0a57610d438383614465565b600054610100900460ff1661417e5760405162461bcd60e51b81526004016108fe90615490565b611b6833612ff7565b600054610100900460ff166141ae5760405162461bcd60e51b81526004016108fe90615490565b61136281614557565b604080516001808252818301909252606091600091906020808301908036833701905050905082816000815181106141ff57634e487b7160e01b600052603260045260246000fd5b602090810291909101015292915050565b614222846001600160a01b03166129e3565b15612ba15760405163f23a6e6160e01b81526001600160a01b0385169063f23a6e619061425b908990899088908890889060040161510b565b602060405180830381600087803b15801561427557600080fd5b505af19250505080156142a5575060408051601f3d908101601f191682019092526142a291810190614d8e565b60015b6142b157613fc76157e1565b6001600160e01b0319811663f23a6e6160e01b146136045760405162461bcd60e51b81526004016108fe906151f2565b6001600160a01b0385166143845760005b83518110156143825782818151811061431b57634e487b7160e01b600052603260045260246000fd5b602002602001015160fb600086848151811061434757634e487b7160e01b600052603260045260246000fd5b60200260200101518152602001908152602001600020600082825461436c9190615546565b9091555061437b905081615750565b90506142f2565b505b6001600160a01b038416612ba15760005b8351811015613604578281815181106143be57634e487b7160e01b600052603260045260246000fd5b602002602001015160fb60008684815181106143ea57634e487b7160e01b600052603260045260246000fd5b60200260200101518152602001908152602001600020600082825461440f9190615683565b9091555061441e905081615750565b9050614395565b61442e81614098565b6040516001600160a01b038216907fbc7cd75a20ee27fd9adebab32041f755214dbc6bffa90cc0225b39da2e5c2d3b90600090a250565b6060614470836129e3565b6144cb5760405162461bcd60e51b815260206004820152602660248201527f416464726573733a2064656c65676174652063616c6c20746f206e6f6e2d636f6044820152651b9d1c9858dd60d21b60648201526084016108fe565b600080846001600160a01b0316846040516144e6919061501a565b600060405180830381855af49150503d8060008114614521576040519150601f19603f3d011682016040523d82523d6000602084013e614526565b606091505b509150915061454e82826040518060600160405280602781526020016159386027913961456a565b95945050505050565b80516113e4906067906020840190614627565b6060831561457957508161116e565b8251156145895782518084602001fd5b8160405162461bcd60e51b81526004016108fe91906151df565b8280546145af906156e9565b90600052602060002090601f0160209004810192826145d15760008555614617565b82601f106145ea5782800160ff19823516178555614617565b82800160010185558215614617579182015b828111156146175782358255916020019190600101906145fc565b5061462392915061469b565b5090565b828054614633906156e9565b90600052602060002090601f0160209004810192826146555760008555614617565b82601f1061466e57805160ff1916838001178555614617565b82800160010185558215614617579182015b82811115614617578251825591602001919060010190614680565b5b80821115614623576000815560010161469c565b60006001600160401b038311156146c9576146c96157cb565b6040516146e0601f8501601f191660200182615724565b8091508381528484840111156146f557600080fd5b83836020830137600060208583010152509392505050565b80356001600160a01b03811681146109eb57600080fd5b600082601f830112614734578081fd5b8135602061474182615523565b60405161474e8282615724565b8381528281019150858301600585901b8701840188101561476d578586fd5b855b85811015614792576147808261470d565b8452928401929084019060010161476f565b5090979650505050505050565b600082601f8301126147af578081fd5b813560206147bc82615523565b6040516147c98282615724565b8381528281019150858301600585901b870184018810156147e8578586fd5b855b85811015614792576147fb82614893565b845292840192908401906001016147ea565b600082601f83011261481d578081fd5b8135602061482a82615523565b6040516148378282615724565b8381528281019150858301600585901b87018401881015614856578586fd5b855b8581101561479257813584529284019290840190600101614858565b600082601f830112614884578081fd5b61116e838335602085016146b0565b8035600d81106109eb57600080fd5b60008083601f8401126148b3578182fd5b5081356001600160401b038111156148c9578182fd5b6020830191508360208285010111156148e157600080fd5b9250929050565b6000602082840312156148f9578081fd5b61116e8261470d565b60008060408385031215614914578081fd5b61491d8361470d565b915061492b6020840161470d565b90509250929050565b600080600080600060a0868803121561494b578081fd5b6149548661470d565b94506149626020870161470d565b935060408601356001600160401b038082111561497d578283fd5b61498989838a0161480d565b9450606088013591508082111561499e578283fd5b6149aa89838a0161480d565b935060808801359150808211156149bf578283fd5b506149cc88828901614874565b9150509295509295909350565b600080600080600060a086880312156149f0578081fd5b6149f98661470d565b9450614a076020870161470d565b9350604086013592506060860135915060808601356001600160401b03811115614a2f578182fd5b6149cc88828901614874565b600080600060608486031215614a4f578081fd5b614a588461470d565b925060208401356001600160401b0380821115614a73578283fd5b614a7f8783880161479f565b93506040860135915080821115614a94578283fd5b50614aa18682870161479f565b9150509250925092565b600080600060608486031215614abf578081fd5b614ac88461470d565b925060208401356001600160401b0380821115614ae3578283fd5b614aef8783880161480d565b93506040860135915080821115614b04578283fd5b50614aa18682870161480d565b60008060408385031215614b23578182fd5b614b2c8361470d565b915060208301358015158114614b40578182fd5b809150509250929050565b60008060408385031215614b5d578182fd5b614b668361470d565b915060208301356001600160401b03811115614b80578182fd5b614b8c85828601614874565b9150509250929050565b60008060408385031215614ba8578182fd5b614bb18361470d565b946020939093013593505050565b600080600060608486031215614bd3578081fd5b614bdc8461470d565b95602085013595506040909401359392505050565b60008060008060808587031215614c06578182fd5b614c0f8561470d565b9350602085013592506040850135915060608501356001600160401b03811115614c37578182fd5b614c4387828801614874565b91505092959194509250565b60008060408385031215614c61578182fd5b82356001600160401b0380821115614c77578384fd5b614c8386838701614724565b93506020850135915080821115614c98578283fd5b50614b8c8582860161480d565b600080600060608486031215614cb9578081fd5b83356001600160401b0380821115614ccf578283fd5b614cdb87838801614724565b9450602086013593506040860135915080821115614cf7578283fd5b50614aa186828701614874565b60008060408385031215614d16578182fd5b82356001600160401b0380821115614d2c578384fd5b614d388683870161479f565b93506020850135915080821115614d4d578283fd5b50614b8c8582860161479f565b600060208284031215614d6b578081fd5b5051919050565b600060208284031215614d83578081fd5b813561116e81615881565b600060208284031215614d9f578081fd5b815161116e81615881565b600060208284031215614dbb578081fd5b61116e82614893565b60008060408385031215614dd6578182fd5b61491d83614893565b600080600060608486031215614df3578081fd5b614dfc84614893565b9250614e0a6020850161470d565b9150604084013590509250925092565b60008060408385031215614e2c578182fd5b614bb183614893565b60008060008060408587031215614e4a578182fd5b84356001600160401b0380821115614e60578384fd5b614e6c888389016148a2565b90965094506020870135915080821115614e84578384fd5b50614e91878288016148a2565b95989497509550505050565b600060208284031215614eae578081fd5b81356001600160401b03811115614ec3578182fd5b8201601f81018413614ed3578182fd5b611d6a848235602084016146b0565b600060208284031215614ef3578081fd5b5035919050565b600080600060408486031215614f0e578081fd5b8335925060208401356001600160401b03811115614f2a578182fd5b614f36868287016148a2565b9497909650939450505050565b60008060008060608587031215614f58578182fd5b8435935060208501356001600160401b03811115614f74578283fd5b614f80878288016148a2565b9598909750949560400135949350505050565b60008060408385031215614fa5578182fd5b50508035926020909101359150565b6000815180845260208085019450808401835b83811015614fe357815187529582019590820190600101614fc7565b509495945050505050565b600081518084526150068160208601602086016156bd565b601f01601f19169290920160200192915050565b6000825161502c8184602087016156bd565b9190910192915050565b7202ab735b737bbb7103937b632903a3cb8329d1606d1b8152600082516150648160138501602087016156bd565b9190910160130192915050565b7302ab735b737bbb7102937b6329024b73232bc1d160651b8152600082516150a08160148501602087016156bd565b9190910160140192915050565b6001600160a01b0386811682528516602082015260a0604082018190526000906150d990830186614fb4565b82810360608401526150eb8186614fb4565b905082810360808401526150ff8185614fee565b98975050505050505050565b6001600160a01b03868116825285166020820152604081018490526060810183905260a06080820181905260009061514590830184614fee565b979650505050505050565b60208152600061116e6020830184614fb4565b6040815260006151766040830185614fb4565b828103602084015261454e8185614fb4565b60208101600d83106151aa57634e487b7160e01b600052602160045260246000fd5b91905290565b60208152816020820152818360408301376000818301604090810191909152601f909201601f19160101919050565b60208152600061116e6020830184614fee565b60208082526028908201527f455243313135353a204552433131353552656365697665722072656a656374656040820152676420746f6b656e7360c01b606082015260800190565b60208082526024908201527f455243313135353a206275726e20616d6f756e7420657863656564732062616c604082015263616e636560e01b606082015260800190565b6020808252602c908201526000805160206158f883398151915260408201526b19195b1959d85d1958d85b1b60a21b606082015260800190565b60208082526029908201527f455243313135353a2063616c6c6572206973206e6f74206f776e6572206e6f7260408201526808185c1c1c9bdd995960ba1b606082015260800190565b6020808252602c908201526000805160206158f883398151915260408201526b6163746976652070726f787960a01b606082015260800190565b60208082526025908201527f455243313135353a207472616e7366657220746f20746865207a65726f206164604082015264647265737360d81b606082015260800190565b60208082526023908201527f455243313135353a206275726e2066726f6d20746865207a65726f206164647260408201526265737360e81b606082015260800190565b6020808252602a908201527f455243313135353a20696e73756666696369656e742062616c616e636520666f60408201526939103a3930b739b332b960b11b606082015260800190565b6020808252818101527f4f776e61626c653a2063616c6c6572206973206e6f7420746865206f776e6572604082015260600190565b6020808252602e908201527f4552432d3131353520456e756d657261626c653a20746f6b656e20696e64657860408201526d206f7574206f6620626f756e647360901b606082015260800190565b6020808252602b908201527f496e697469616c697a61626c653a20636f6e7472616374206973206e6f74206960408201526a6e697469616c697a696e6760a81b606082015260800190565b60208082526028908201527f455243313135353a2069647320616e6420616d6f756e7473206c656e677468206040820152670dad2e6dac2e8c6d60c31b606082015260800190565b60006001600160401b0382111561553c5761553c6157cb565b5060051b60200190565b600082198211156155595761555961579f565b500190565b60008261556d5761556d6157b5565b500490565b600181815b808511156155ad5781600019048211156155935761559361579f565b808516156155a057918102915b93841c9390800290615577565b509250929050565b600061116e60ff8416836000826155ce5750600161092c565b816155db5750600061092c565b81600181146155f157600281146155fb57615617565b600191505061092c565b60ff84111561560c5761560c61579f565b50506001821b61092c565b5060208310610133831016604e8410600b841016171561563a575081810a61092c565b6156448383615572565b80600019048211156156585761565861579f565b029392505050565b600061ffff8381169083168181101561567b5761567b61579f565b039392505050565b6000828210156156955761569561579f565b500390565b600060ff821660ff8416808210156156b4576156b461579f565b90039392505050565b60005b838110156156d85781810151838201526020016156c0565b83811115610d435750506000910152565b600181811c908216806156fd57607f821691505b6020821081141561571e57634e487b7160e01b600052602260045260246000fd5b50919050565b601f8201601f191681016001600160401b0381118282101715615749576157496157cb565b6040525050565b60006000198214156157645761576461579f565b5060010190565b600060ff821660ff8114156157825761578261579f565b60010192915050565b60008261579a5761579a6157b5565b500690565b634e487b7160e01b600052601160045260246000fd5b634e487b7160e01b600052601260045260246000fd5b634e487b7160e01b600052604160045260246000fd5b600060033d1115611a6e57600481823e5160e01c90565b600060443d10156158065790565b6040516003193d81016004833e81513d6001600160401b03808311602484018310171561583557505050505090565b828501915081518181111561584d5750505050505090565b843d87010160208285010111156158675750505050505090565b61587660208286010187615724565b509095945050505050565b6001600160e01b03198116811461136257600080fdfe4a39dc06d4c0dbc64b70af90fd698a233a518aa5d07e595d983b8c0526c8f7fbc3d58168c5ae7397731d063d5bbf3d657854427343f4c083240f7aacaa2d0f62a6f1ac7ad7b125ba5a5e1c96b00ad6914f90a503b1ac3d85a9dadbb4c639df9246756e6374696f6e206d7573742062652063616c6c6564207468726f75676820360894a13ba1a3210667c828492db98dca3e2076cc3735a920a3ca505d382bbc416464726573733a206c6f772d6c6576656c2064656c65676174652063616c6c206661696c6564a2646970667358221220d0bb820545ce6c3c62c6f9ad5f70e5abf99c15ceb437541951dd0bba7139c80e64736f6c63430008040033",
  "linkReferences": {},
  "deployedLinkReferences": {}
}