{
  "_format": "hh-sol-artifact-1",
  "contractName": "BulkDisbursableNFTs",
  "sourceName": "src/BulkDisbursableNFTs.sol",
  "abi": [
    {
      "inputs": [],
      "stateMutability": "nonpayable",
      "type": "constructor"
    },
    {
      "anonymous": false,
      "inputs": [
        {
          "indexed": false,
          "internalType": "address",
          "name": "previousAdmin",
          "type": "address"
        },
        {
          "indexed": false,
          "internalType": "address",
          "name": "newAdmin",
          "type": "address"
        }
      ],
      "name": "AdminChanged",
      "type": "event"
    },
    {
      "anonymous": false,
      "inputs": [
        {
          "indexed": true,
          "internalType": "address",
          "name": "account",
          "type": "address"
        },
        {
          "indexed": true,
          "internalType": "address",
          "name": "operator",
          "type": "address"
        },
        {
          "indexed": false,
          "internalType": "bool",
          "name": "approved",
          "type": "bool"
        }
      ],
      "name": "ApprovalForAll",
      "type": "event"
    },
    {
      "anonymous": false,
      "inputs": [
        {
          "indexed": true,
          "internalType": "address",
          "name": "beacon",
          "type": "address"
        }
      ],
      "name": "BeaconUpgraded",
      "type": "event"
    },
    {
      "anonymous": false,
      "inputs": [
        {
          "indexed": false,
          "internalType": "uint256",
          "name": "id",
          "type": "uint256"
        },
        {
          "indexed": false,
          "internalType": "address",
          "name": "controller",
          "type": "address"
        }
      ],
      "name": "Created",
      "type": "event"
    },
    {
      "anonymous": false,
      "inputs": [
        {
          "indexed": true,
          "internalType": "address",
          "name": "previousOwner",
          "type": "address"
        },
        {
          "indexed": true,
          "internalType": "address",
          "name": "newOwner",
          "type": "address"
        }
      ],
      "name": "OwnershipTransferred",
      "type": "event"
    },
    {
      "anonymous": false,
      "inputs": [
        {
          "indexed": true,
          "internalType": "address",
          "name": "operator",
          "type": "address"
        },
        {
          "indexed": true,
          "internalType": "address",
          "name": "from",
          "type": "address"
        },
        {
          "indexed": true,
          "internalType": "address",
          "name": "to",
          "type": "address"
        },
        {
          "indexed": false,
          "internalType": "uint256[]",
          "name": "ids",
          "type": "uint256[]"
        },
        {
          "indexed": false,
          "internalType": "uint256[]",
          "name": "values",
          "type": "uint256[]"
        }
      ],
      "name": "TransferBatch",
      "type": "event"
    },
    {
      "anonymous": false,
      "inputs": [
        {
          "indexed": true,
          "internalType": "address",
          "name": "operator",
          "type": "address"
        },
        {
          "indexed": true,
          "internalType": "address",
          "name": "from",
          "type": "address"
        },
        {
          "indexed": true,
          "internalType": "address",
          "name": "to",
          "type": "address"
        },
        {
          "indexed": false,
          "internalType": "uint256",
          "name": "id",
          "type": "uint256"
        },
        {
          "indexed": false,
          "internalType": "uint256",
          "name": "value",
          "type": "uint256"
        }
      ],
      "name": "TransferSingle",
      "type": "event"
    },
    {
      "anonymous": false,
      "inputs": [
        {
          "indexed": false,
          "internalType": "string",
          "name": "value",
          "type": "string"
        },
        {
          "indexed": true,
          "internalType": "uint256",
          "name": "id",
          "type": "uint256"
        }
      ],
      "name": "URI",
      "type": "event"
    },
    {
      "anonymous": false,
      "inputs": [
        {
          "indexed": true,
          "internalType": "address",
          "name": "implementation",
          "type": "address"
        }
      ],
      "name": "Upgraded",
      "type": "event"
    },
    {
      "inputs": [],
      "name": "ADDRESS_TYPE",
      "outputs": [
        {
          "internalType": "uint256",
          "name": "",
          "type": "uint256"
        }
      ],
      "stateMutability": "view",
      "type": "function"
    },
    {
      "inputs": [],
      "name": "COUNTER_MASK",
      "outputs": [
        {
          "internalType": "uint256",
          "name": "",
          "type": "uint256"
        }
      ],
      "stateMutability": "view",
      "type": "function"
    },
    {
      "inputs": [],
      "name": "COUNTER_WIDTH",
      "outputs": [
        {
          "internalType": "uint8",
          "name": "",
          "type": "uint8"
        }
      ],
      "stateMutability": "view",
      "type": "function"
    },
    {
      "inputs": [],
      "name": "EXPERIMENTAL_TYPE",
      "outputs": [
        {
          "internalType": "uint256",
          "name": "",
          "type": "uint256"
        }
      ],
      "stateMutability": "view",
      "type": "function"
    },
    {
      "inputs": [],
      "name": "GATING_TYPE",
      "outputs": [
        {
          "internalType": "uint256",
          "name": "",
          "type": "uint256"
        }
      ],
      "stateMutability": "view",
      "type": "function"
    },
    {
      "inputs": [],
      "name": "INTERNAL_BOUNDARY",
      "outputs": [
        {
          "internalType": "uint8",
          "name": "",
          "type": "uint8"
        }
      ],
      "stateMutability": "view",
      "type": "function"
    },
    {
      "inputs": [],
      "name": "INTERNAL_MASK",
      "outputs": [
        {
          "internalType": "uint256",
          "name": "",
          "type": "uint256"
        }
      ],
      "stateMutability": "view",
      "type": "function"
    },
    {
      "inputs": [],
      "name": "INTERNAL_WIDTH",
      "outputs": [
        {
          "internalType": "uint8",
          "name": "",
          "type": "uint8"
        }
      ],
      "stateMutability": "view",
      "type": "function"
    },
    {
      "inputs": [],
      "name": "MEMBERSHIP_TYPE",
      "outputs": [
        {
          "internalType": "uint256",
          "name": "",
          "type": "uint256"
        }
      ],
      "stateMutability": "view",
      "type": "function"
    },
    {
      "inputs": [],
      "name": "NO_MATCH_FLAGS",
      "outputs": [
        {
          "internalType": "uint256",
          "name": "",
          "type": "uint256"
        }
      ],
      "stateMutability": "view",
      "type": "function"
    },
    {
      "inputs": [],
      "name": "REACTION_TYPE",
      "outputs": [
        {
          "internalType": "uint256",
          "name": "",
          "type": "uint256"
        }
      ],
      "stateMutability": "view",
      "type": "function"
    },
    {
      "inputs": [],
      "name": "RECORDED_TIME_TYPE",
      "outputs": [
        {
          "internalType": "uint256",
          "name": "",
          "type": "uint256"
        }
      ],
      "stateMutability": "view",
      "type": "function"
    },
    {
      "inputs": [],
      "name": "RECORDING_TYPE",
      "outputs": [
        {
          "internalType": "uint256",
          "name": "",
          "type": "uint256"
        }
      ],
      "stateMutability": "view",
      "type": "function"
    },
    {
      "inputs": [],
      "name": "REPETITION_BOUNDARY",
      "outputs": [
        {
          "internalType": "uint8",
          "name": "",
          "type": "uint8"
        }
      ],
      "stateMutability": "view",
      "type": "function"
    },
    {
      "inputs": [],
      "name": "REPETITION_MASK",
      "outputs": [
        {
          "internalType": "uint256",
          "name": "",
          "type": "uint256"
        }
      ],
      "stateMutability": "view",
      "type": "function"
    },
    {
      "inputs": [],
      "name": "REPETITION_WIDTH",
      "outputs": [
        {
          "internalType": "uint8",
          "name": "",
          "type": "uint8"
        }
      ],
      "stateMutability": "view",
      "type": "function"
    },
    {
      "inputs": [],
      "name": "REQUIREMENT_BOUNDARY",
      "outputs": [
        {
          "internalType": "uint8",
          "name": "",
          "type": "uint8"
        }
      ],
      "stateMutability": "view",
      "type": "function"
    },
    {
      "inputs": [],
      "name": "REQUIREMENT_MASK",
      "outputs": [
        {
          "internalType": "uint256",
          "name": "",
          "type": "uint256"
        }
      ],
      "stateMutability": "view",
      "type": "function"
    },
    {
      "inputs": [],
      "name": "REQUIREMENT_WIDTH",
      "outputs": [
        {
          "internalType": "uint8",
          "name": "",
          "type": "uint8"
        }
      ],
      "stateMutability": "view",
      "type": "function"
    },
    {
      "inputs": [],
      "name": "REQUIRE_ALL",
      "outputs": [
        {
          "internalType": "uint256",
          "name": "",
          "type": "uint256"
        }
      ],
      "stateMutability": "view",
      "type": "function"
    },
    {
      "inputs": [],
      "name": "REQUIRE_NONE",
      "outputs": [
        {
          "internalType": "uint256",
          "name": "",
          "type": "uint256"
        }
      ],
      "stateMutability": "view",
      "type": "function"
    },
    {
      "inputs": [],
      "name": "REQUIRE_ONE",
      "outputs": [
        {
          "internalType": "uint256",
          "name": "",
          "type": "uint256"
        }
      ],
      "stateMutability": "view",
      "type": "function"
    },
    {
      "inputs": [],
      "name": "REVIEW_TYPE",
      "outputs": [
        {
          "internalType": "uint256",
          "name": "",
          "type": "uint256"
        }
      ],
      "stateMutability": "view",
      "type": "function"
    },
    {
      "inputs": [],
      "name": "ROLE_BOUNDARY",
      "outputs": [
        {
          "internalType": "uint8",
          "name": "",
          "type": "uint8"
        }
      ],
      "stateMutability": "view",
      "type": "function"
    },
    {
      "inputs": [],
      "name": "ROLE_MASK",
      "outputs": [
        {
          "internalType": "uint256",
          "name": "",
          "type": "uint256"
        }
      ],
      "stateMutability": "view",
      "type": "function"
    },
    {
      "inputs": [],
      "name": "ROLE_WIDTH",
      "outputs": [
        {
          "internalType": "uint8",
          "name": "",
          "type": "uint8"
        }
      ],
      "stateMutability": "view",
      "type": "function"
    },
    {
      "inputs": [],
      "name": "TEAM_1",
      "outputs": [
        {
          "internalType": "uint256",
          "name": "",
          "type": "uint256"
        }
      ],
      "stateMutability": "view",
      "type": "function"
    },
    {
      "inputs": [],
      "name": "TEAM_2",
      "outputs": [
        {
          "internalType": "uint256",
          "name": "",
          "type": "uint256"
        }
      ],
      "stateMutability": "view",
      "type": "function"
    },
    {
      "inputs": [],
      "name": "TEAM_3",
      "outputs": [
        {
          "internalType": "uint256",
          "name": "",
          "type": "uint256"
        }
      ],
      "stateMutability": "view",
      "type": "function"
    },
    {
      "inputs": [],
      "name": "TEAM_4",
      "outputs": [
        {
          "internalType": "uint256",
          "name": "",
          "type": "uint256"
        }
      ],
      "stateMutability": "view",
      "type": "function"
    },
    {
      "inputs": [],
      "name": "TEAM_5",
      "outputs": [
        {
          "internalType": "uint256",
          "name": "",
          "type": "uint256"
        }
      ],
      "stateMutability": "view",
      "type": "function"
    },
    {
      "inputs": [],
      "name": "TEAM_6",
      "outputs": [
        {
          "internalType": "uint256",
          "name": "",
          "type": "uint256"
        }
      ],
      "stateMutability": "view",
      "type": "function"
    },
    {
      "inputs": [],
      "name": "TEAM_7",
      "outputs": [
        {
          "internalType": "uint256",
          "name": "",
          "type": "uint256"
        }
      ],
      "stateMutability": "view",
      "type": "function"
    },
    {
      "inputs": [],
      "name": "TEAM_8",
      "outputs": [
        {
          "internalType": "uint256",
          "name": "",
          "type": "uint256"
        }
      ],
      "stateMutability": "view",
      "type": "function"
    },
    {
      "inputs": [],
      "name": "TEAM_9",
      "outputs": [
        {
          "internalType": "uint256",
          "name": "",
          "type": "uint256"
        }
      ],
      "stateMutability": "view",
      "type": "function"
    },
    {
      "inputs": [],
      "name": "TEAM_A",
      "outputs": [
        {
          "internalType": "uint256",
          "name": "",
          "type": "uint256"
        }
      ],
      "stateMutability": "view",
      "type": "function"
    },
    {
      "inputs": [],
      "name": "TEAM_B",
      "outputs": [
        {
          "internalType": "uint256",
          "name": "",
          "type": "uint256"
        }
      ],
      "stateMutability": "view",
      "type": "function"
    },
    {
      "inputs": [],
      "name": "TEAM_BOUNDARY",
      "outputs": [
        {
          "internalType": "uint8",
          "name": "",
          "type": "uint8"
        }
      ],
      "stateMutability": "view",
      "type": "function"
    },
    {
      "inputs": [],
      "name": "TEAM_C",
      "outputs": [
        {
          "internalType": "uint256",
          "name": "",
          "type": "uint256"
        }
      ],
      "stateMutability": "view",
      "type": "function"
    },
    {
      "inputs": [],
      "name": "TEAM_D",
      "outputs": [
        {
          "internalType": "uint256",
          "name": "",
          "type": "uint256"
        }
      ],
      "stateMutability": "view",
      "type": "function"
    },
    {
      "inputs": [],
      "name": "TEAM_MASK",
      "outputs": [
        {
          "internalType": "uint256",
          "name": "",
          "type": "uint256"
        }
      ],
      "stateMutability": "view",
      "type": "function"
    },
    {
      "inputs": [],
      "name": "TEAM_WIDTH",
      "outputs": [
        {
          "internalType": "uint8",
          "name": "",
          "type": "uint8"
        }
      ],
      "stateMutability": "view",
      "type": "function"
    },
    {
      "inputs": [],
      "name": "TYPE_BOUNDARY",
      "outputs": [
        {
          "internalType": "uint8",
          "name": "",
          "type": "uint8"
        }
      ],
      "stateMutability": "view",
      "type": "function"
    },
    {
      "inputs": [],
      "name": "TYPE_MASK",
      "outputs": [
        {
          "internalType": "uint256",
          "name": "",
          "type": "uint256"
        }
      ],
      "stateMutability": "view",
      "type": "function"
    },
    {
      "inputs": [],
      "name": "TYPE_WIDTH",
      "outputs": [
        {
          "internalType": "uint8",
          "name": "",
          "type": "uint8"
        }
      ],
      "stateMutability": "view",
      "type": "function"
    },
    {
      "inputs": [],
      "name": "UNIQUE",
      "outputs": [
        {
          "internalType": "uint256",
          "name": "",
          "type": "uint256"
        }
      ],
      "stateMutability": "view",
      "type": "function"
    },
    {
      "inputs": [],
      "name": "UNIQUENESS_BOUNDARY",
      "outputs": [
        {
          "internalType": "uint8",
          "name": "",
          "type": "uint8"
        }
      ],
      "stateMutability": "view",
      "type": "function"
    },
    {
      "inputs": [],
      "name": "UNIQUENESS_MASK",
      "outputs": [
        {
          "internalType": "uint256",
          "name": "",
          "type": "uint256"
        }
      ],
      "stateMutability": "view",
      "type": "function"
    },
    {
      "inputs": [],
      "name": "UNIQUENESS_WIDTH",
      "outputs": [
        {
          "internalType": "uint8",
          "name": "",
          "type": "uint8"
        }
      ],
      "stateMutability": "view",
      "type": "function"
    },
    {
      "inputs": [],
      "name": "USE_AFTER",
      "outputs": [
        {
          "internalType": "uint256",
          "name": "",
          "type": "uint256"
        }
      ],
      "stateMutability": "view",
      "type": "function"
    },
    {
      "inputs": [],
      "name": "USE_ONCE",
      "outputs": [
        {
          "internalType": "uint256",
          "name": "",
          "type": "uint256"
        }
      ],
      "stateMutability": "view",
      "type": "function"
    },
    {
      "inputs": [],
      "name": "USE_UNLIMITED",
      "outputs": [
        {
          "internalType": "uint256",
          "name": "",
          "type": "uint256"
        }
      ],
      "stateMutability": "view",
      "type": "function"
    },
    {
      "inputs": [],
      "name": "USE_UNTIL",
      "outputs": [
        {
          "internalType": "uint256",
          "name": "",
          "type": "uint256"
        }
      ],
      "stateMutability": "view",
      "type": "function"
    },
    {
      "inputs": [],
      "name": "VANILLA_TYPE",
      "outputs": [
        {
          "internalType": "uint256",
          "name": "",
          "type": "uint256"
        }
      ],
      "stateMutability": "view",
      "type": "function"
    },
    {
      "inputs": [],
      "name": "VOUCHED_TIME_TYPE",
      "outputs": [
        {
          "internalType": "uint256",
          "name": "",
          "type": "uint256"
        }
      ],
      "stateMutability": "view",
      "type": "function"
    },
    {
      "inputs": [
        {
          "internalType": "address",
          "name": "account",
          "type": "address"
        },
        {
          "internalType": "uint256",
          "name": "id",
          "type": "uint256"
        }
      ],
      "name": "balanceOf",
      "outputs": [
        {
          "internalType": "uint256",
          "name": "",
          "type": "uint256"
        }
      ],
      "stateMutability": "view",
      "type": "function"
    },
    {
      "inputs": [
        {
          "internalType": "address[]",
          "name": "accounts",
          "type": "address[]"
        },
        {
          "internalType": "uint256[]",
          "name": "ids",
          "type": "uint256[]"
        }
      ],
      "name": "balanceOfBatch",
      "outputs": [
        {
          "internalType": "uint256[]",
          "name": "",
          "type": "uint256[]"
        }
      ],
      "stateMutability": "view",
      "type": "function"
    },
    {
      "inputs": [
        {
          "internalType": "address",
          "name": "owner",
          "type": "address"
        },
        {
          "internalType": "uint256",
          "name": "id",
          "type": "uint256"
        },
        {
          "internalType": "uint256",
          "name": "quantity",
          "type": "uint256"
        }
      ],
      "name": "burn",
      "outputs": [],
      "stateMutability": "nonpayable",
      "type": "function"
    },
    {
      "inputs": [
        {
          "internalType": "address",
          "name": "account",
          "type": "address"
        },
        {
          "internalType": "uint256[]",
          "name": "ids",
          "type": "uint256[]"
        },
        {
          "internalType": "uint256[]",
          "name": "values",
          "type": "uint256[]"
        }
      ],
      "name": "burnBatch",
      "outputs": [],
      "stateMutability": "nonpayable",
      "type": "function"
    },
    {
      "inputs": [
        {
          "internalType": "uint256",
          "name": "id",
          "type": "uint256"
        },
        {
          "internalType": "string",
          "name": "newURI",
          "type": "string"
        },
        {
          "internalType": "uint256",
          "name": "max",
          "type": "uint256"
        }
      ],
      "name": "configure",
      "outputs": [],
      "stateMutability": "nonpayable",
      "type": "function"
    },
    {
      "inputs": [
        {
          "internalType": "address",
          "name": "maintainer",
          "type": "address"
        }
      ],
      "name": "create",
      "outputs": [
        {
          "internalType": "uint256",
          "name": "id",
          "type": "uint256"
        }
      ],
      "stateMutability": "nonpayable",
      "type": "function"
    },
    {
      "inputs": [],
      "name": "create",
      "outputs": [
        {
          "internalType": "uint256",
          "name": "id",
          "type": "uint256"
        }
      ],
      "stateMutability": "nonpayable",
      "type": "function"
    },
    {
      "inputs": [
        {
          "internalType": "uint256",
          "name": "id",
          "type": "uint256"
        }
      ],
      "name": "exists",
      "outputs": [
        {
          "internalType": "bool",
          "name": "",
          "type": "bool"
        }
      ],
      "stateMutability": "view",
      "type": "function"
    },
    {
      "inputs": [
        {
          "internalType": "enum BulkDisbursableNFTs.Role",
          "name": "role",
          "type": "uint8"
        },
        {
          "internalType": "address",
          "name": "user",
          "type": "address"
        },
        {
          "internalType": "uint256",
          "name": "index",
          "type": "uint256"
        }
      ],
      "name": "gateToken",
      "outputs": [
        {
          "internalType": "uint256",
          "name": "id",
          "type": "uint256"
        }
      ],
      "stateMutability": "view",
      "type": "function"
    },
    {
      "inputs": [
        {
          "internalType": "enum BulkDisbursableNFTs.Role",
          "name": "role",
          "type": "uint8"
        },
        {
          "internalType": "address",
          "name": "user",
          "type": "address"
        }
      ],
      "name": "grantRole",
      "outputs": [],
      "stateMutability": "nonpayable",
      "type": "function"
    },
    {
      "inputs": [
        {
          "internalType": "enum BulkDisbursableNFTs.Role",
          "name": "role",
          "type": "uint8"
        },
        {
          "internalType": "address",
          "name": "user",
          "type": "address"
        },
        {
          "internalType": "uint256",
          "name": "index",
          "type": "uint256"
        }
      ],
      "name": "grantRole",
      "outputs": [],
      "stateMutability": "nonpayable",
      "type": "function"
    },
    {
      "inputs": [
        {
          "internalType": "enum BulkDisbursableNFTs.Role",
          "name": "role",
          "type": "uint8"
        }
      ],
      "name": "hasRole",
      "outputs": [
        {
          "internalType": "bool",
          "name": "has",
          "type": "bool"
        }
      ],
      "stateMutability": "view",
      "type": "function"
    },
    {
      "inputs": [
        {
          "internalType": "enum BulkDisbursableNFTs.Role",
          "name": "role",
          "type": "uint8"
        },
        {
          "internalType": "address",
          "name": "user",
          "type": "address"
        },
        {
          "internalType": "uint256",
          "name": "index",
          "type": "uint256"
        }
      ],
      "name": "hasRole",
      "outputs": [
        {
          "internalType": "bool",
          "name": "has",
          "type": "bool"
        }
      ],
      "stateMutability": "view",
      "type": "function"
    },
    {
      "inputs": [
        {
          "internalType": "enum BulkDisbursableNFTs.Role",
          "name": "role",
          "type": "uint8"
        },
        {
          "internalType": "uint256",
          "name": "id",
          "type": "uint256"
        }
      ],
      "name": "hasRole",
      "outputs": [
        {
          "internalType": "bool",
          "name": "has",
          "type": "bool"
        }
      ],
      "stateMutability": "view",
      "type": "function"
    },
    {
      "inputs": [
        {
          "internalType": "enum BulkDisbursableNFTs.Role",
          "name": "role",
          "type": "uint8"
        },
        {
          "internalType": "address",
          "name": "user",
          "type": "address"
        }
      ],
      "name": "hasRole",
      "outputs": [
        {
          "internalType": "bool",
          "name": "has",
          "type": "bool"
        }
      ],
      "stateMutability": "view",
      "type": "function"
    },
    {
      "inputs": [
        {
          "internalType": "string",
          "name": "_name",
          "type": "string"
        },
        {
          "internalType": "string",
          "name": "_symbol",
          "type": "string"
        }
      ],
      "name": "initialize",
      "outputs": [],
      "stateMutability": "nonpayable",
      "type": "function"
    },
    {
      "inputs": [
        {
          "internalType": "address",
          "name": "account",
          "type": "address"
        },
        {
          "internalType": "address",
          "name": "operator",
          "type": "address"
        }
      ],
      "name": "isApprovedForAll",
      "outputs": [
        {
          "internalType": "bool",
          "name": "",
          "type": "bool"
        }
      ],
      "stateMutability": "view",
      "type": "function"
    },
    {
      "inputs": [
        {
          "internalType": "address",
          "name": "user",
          "type": "address"
        }
      ],
      "name": "isSuper",
      "outputs": [
        {
          "internalType": "bool",
          "name": "superuser",
          "type": "bool"
        }
      ],
      "stateMutability": "view",
      "type": "function"
    },
    {
      "inputs": [],
      "name": "isSuper",
      "outputs": [
        {
          "internalType": "bool",
          "name": "superuser",
          "type": "bool"
        }
      ],
      "stateMutability": "view",
      "type": "function"
    },
    {
      "inputs": [
        {
          "internalType": "address[]",
          "name": "to",
          "type": "address[]"
        },
        {
          "internalType": "uint256",
          "name": "id",
          "type": "uint256"
        },
        {
          "internalType": "bytes",
          "name": "data",
          "type": "bytes"
        }
      ],
      "name": "mint",
      "outputs": [],
      "stateMutability": "nonpayable",
      "type": "function"
    },
    {
      "inputs": [
        {
          "internalType": "address",
          "name": "recipient",
          "type": "address"
        },
        {
          "internalType": "uint256",
          "name": "id",
          "type": "uint256"
        },
        {
          "internalType": "uint256",
          "name": "amount",
          "type": "uint256"
        },
        {
          "internalType": "bytes",
          "name": "data",
          "type": "bytes"
        }
      ],
      "name": "mint",
      "outputs": [
        {
          "internalType": "bool",
          "name": "minted",
          "type": "bool"
        }
      ],
      "stateMutability": "nonpayable",
      "type": "function"
    },
    {
      "inputs": [],
      "name": "name",
      "outputs": [
        {
          "internalType": "string",
          "name": "",
          "type": "string"
        }
      ],
      "stateMutability": "view",
      "type": "function"
    },
    {
      "inputs": [],
      "name": "owner",
      "outputs": [
        {
          "internalType": "address",
          "name": "",
          "type": "address"
        }
      ],
      "stateMutability": "view",
      "type": "function"
    },
    {
      "inputs": [],
      "name": "proxiableUUID",
      "outputs": [
        {
          "internalType": "bytes32",
          "name": "",
          "type": "bytes32"
        }
      ],
      "stateMutability": "view",
      "type": "function"
    },
    {
      "inputs": [],
      "name": "renounceOwnership",
      "outputs": [],
      "stateMutability": "nonpayable",
      "type": "function"
    },
    {
      "inputs": [
        {
          "internalType": "enum BulkDisbursableNFTs.Role",
          "name": "role",
          "type": "uint8"
        }
      ],
      "name": "roleToken",
      "outputs": [
        {
          "internalType": "uint256",
          "name": "id",
          "type": "uint256"
        }
      ],
      "stateMutability": "view",
      "type": "function"
    },
    {
      "inputs": [
        {
          "internalType": "enum BulkDisbursableNFTs.Role",
          "name": "role",
          "type": "uint8"
        },
        {
          "internalType": "uint256",
          "name": "index",
          "type": "uint256"
        }
      ],
      "name": "roleToken",
      "outputs": [
        {
          "internalType": "uint256",
          "name": "id",
          "type": "uint256"
        }
      ],
      "stateMutability": "view",
      "type": "function"
    },
    {
      "inputs": [
        {
          "internalType": "string",
          "name": "roleName",
          "type": "string"
        }
      ],
      "name": "roleValueForName",
      "outputs": [
        {
          "internalType": "enum BulkDisbursableNFTs.Role",
          "name": "role",
          "type": "uint8"
        }
      ],
      "stateMutability": "pure",
      "type": "function"
    },
    {
      "inputs": [
        {
          "internalType": "address",
          "name": "from",
          "type": "address"
        },
        {
          "internalType": "address",
          "name": "to",
          "type": "address"
        },
        {
          "internalType": "uint256[]",
          "name": "ids",
          "type": "uint256[]"
        },
        {
          "internalType": "uint256[]",
          "name": "amounts",
          "type": "uint256[]"
        },
        {
          "internalType": "bytes",
          "name": "data",
          "type": "bytes"
        }
      ],
      "name": "safeBatchTransferFrom",
      "outputs": [],
      "stateMutability": "nonpayable",
      "type": "function"
    },
    {
      "inputs": [
        {
          "internalType": "address",
          "name": "from",
          "type": "address"
        },
        {
          "internalType": "address",
          "name": "to",
          "type": "address"
        },
        {
          "internalType": "uint256",
          "name": "id",
          "type": "uint256"
        },
        {
          "internalType": "uint256",
          "name": "amount",
          "type": "uint256"
        },
        {
          "internalType": "bytes",
          "name": "data",
          "type": "bytes"
        }
      ],
      "name": "safeTransferFrom",
      "outputs": [],
      "stateMutability": "nonpayable",
      "type": "function"
    },
    {
      "inputs": [
        {
          "internalType": "address",
          "name": "operator",
          "type": "address"
        },
        {
          "internalType": "bool",
          "name": "approved",
          "type": "bool"
        }
      ],
      "name": "setApprovalForAll",
      "outputs": [],
      "stateMutability": "nonpayable",
      "type": "function"
    },
    {
      "inputs": [
        {
          "internalType": "string",
          "name": "_name",
          "type": "string"
        },
        {
          "internalType": "string",
          "name": "_symbol",
          "type": "string"
        }
      ],
      "name": "setDescription",
      "outputs": [],
      "stateMutability": "nonpayable",
      "type": "function"
    },
    {
      "inputs": [
        {
          "internalType": "uint256",
          "name": "id",
          "type": "uint256"
        },
        {
          "internalType": "uint256",
          "name": "max",
          "type": "uint256"
        }
      ],
      "name": "setMax",
      "outputs": [],
      "stateMutability": "nonpayable",
      "type": "function"
    },
    {
      "inputs": [
        {
          "internalType": "uint256",
          "name": "id",
          "type": "uint256"
        },
        {
          "internalType": "string",
          "name": "newURI",
          "type": "string"
        }
      ],
      "name": "setURI",
      "outputs": [],
      "stateMutability": "nonpayable",
      "type": "function"
    },
    {
      "inputs": [
        {
          "internalType": "bytes4",
          "name": "interfaceId",
          "type": "bytes4"
        }
      ],
      "name": "supportsInterface",
      "outputs": [
        {
          "internalType": "bool",
          "name": "",
          "type": "bool"
        }
      ],
      "stateMutability": "view",
      "type": "function"
    },
    {
      "inputs": [],
      "name": "symbol",
      "outputs": [
        {
          "internalType": "string",
          "name": "",
          "type": "string"
        }
      ],
      "stateMutability": "view",
      "type": "function"
    },
    {
      "inputs": [
        {
          "internalType": "uint256",
          "name": "index",
          "type": "uint256"
        }
      ],
      "name": "tokenByIndex",
      "outputs": [
        {
          "internalType": "uint256",
          "name": "id",
          "type": "uint256"
        }
      ],
      "stateMutability": "view",
      "type": "function"
    },
    {
      "inputs": [
        {
          "internalType": "uint256",
          "name": "id",
          "type": "uint256"
        }
      ],
      "name": "tokenIndex",
      "outputs": [
        {
          "internalType": "uint256",
          "name": "index",
          "type": "uint256"
        }
      ],
      "stateMutability": "view",
      "type": "function"
    },
    {
      "inputs": [
        {
          "internalType": "address",
          "name": "owner",
          "type": "address"
        },
        {
          "internalType": "uint256",
          "name": "index",
          "type": "uint256"
        }
      ],
      "name": "tokenOfOwnerByIndex",
      "outputs": [
        {
          "internalType": "uint256",
          "name": "id",
          "type": "uint256"
        }
      ],
      "stateMutability": "view",
      "type": "function"
    },
    {
      "inputs": [
        {
          "internalType": "uint256",
          "name": "id",
          "type": "uint256"
        }
      ],
      "name": "totalSupply",
      "outputs": [
        {
          "internalType": "uint256",
          "name": "",
          "type": "uint256"
        }
      ],
      "stateMutability": "view",
      "type": "function"
    },
    {
      "inputs": [
        {
          "internalType": "address",
          "name": "newOwner",
          "type": "address"
        }
      ],
      "name": "transferOwnership",
      "outputs": [],
      "stateMutability": "nonpayable",
      "type": "function"
    },
    {
      "inputs": [],
      "name": "typeSupply",
      "outputs": [
        {
          "internalType": "uint256",
          "name": "count",
          "type": "uint256"
        }
      ],
      "stateMutability": "view",
      "type": "function"
    },
    {
      "inputs": [
        {
          "internalType": "address",
          "name": "newImplementation",
          "type": "address"
        }
      ],
      "name": "upgradeTo",
      "outputs": [],
      "stateMutability": "nonpayable",
      "type": "function"
    },
    {
      "inputs": [
        {
          "internalType": "address",
          "name": "newImplementation",
          "type": "address"
        },
        {
          "internalType": "bytes",
          "name": "data",
          "type": "bytes"
        }
      ],
      "name": "upgradeToAndCall",
      "outputs": [],
      "stateMutability": "payable",
      "type": "function"
    },
    {
      "inputs": [
        {
          "internalType": "uint256",
          "name": "id",
          "type": "uint256"
        }
      ],
      "name": "uri",
      "outputs": [
        {
          "internalType": "string",
          "name": "metadata",
          "type": "string"
        }
      ],
      "stateMutability": "view",
      "type": "function"
    }
  ],
  "bytecode": "0x60a06040523060601b6080523480156200001857600080fd5b50600054610100900460ff16620000365760005460ff161562000040565b62000040620000e5565b620000a85760405162461bcd60e51b815260206004820152602e60248201527f496e697469616c697a61626c653a20636f6e747261637420697320616c72656160448201526d191e481a5b9a5d1a585b1a5e995960921b606482015260840160405180910390fd5b600054610100900460ff16158015620000cb576000805461ffff19166101011790555b8015620000de576000805461ff00191690555b5062000112565b6000620000fd306200010360201b6200314d1760201c565b15905090565b6001600160a01b03163b151590565b60805160601c615dd46200014d60003960008181611e2701528181611e67015281816124b2015281816124f201526126260152615dd46000f3fe60806040526004361061058e5760003560e01c80636755d456116102d8578063aae5270f11610180578063dbd406e8116100e7578063f242432a116100a0578063f449d92f1161007a578063f449d92f14610f69578063f5298aca14610f7e578063f73a731114610f9e578063f8418ef314610fb357600080fd5b8063f242432a14610f14578063f28a726d14610f34578063f2fde38b14610f4957600080fd5b8063dbd406e814610e62578063e5587f7a14610e77578063e864109214610e8c578063e985e9c514610ea1578063edc79bac14610eea578063efc81a8c14610eff57600080fd5b8063c3c8df9911610139578063c3c8df9914610dee578063c5a0d9b2146107cc578063d3e62b0914610e0e578063d701765014610e23578063d7fcc11314610e38578063db58fe9514610e4d57600080fd5b8063aae5270f14610d6d578063aaeec72d14610d82578063b8785f8a14610cee578063ba952df114610d97578063baf42f9314610dac578063bd85b03914610dc157600080fd5b8063957dc9a01161023f5780639eb3f243116101f8578063a22cb465116101d2578063a22cb46514610d03578063a8410bc114610d23578063a9c906ae14610d38578063aa8e906614610d4d57600080fd5b80639eb3f24314610cb95780639ed9331814610cce5780639f31459a14610cee57600080fd5b8063957dc9a014610c2557806395d89b4114610c3a5780639c37625c14610c4f5780639d6d7eaa14610c645780639d969a9c14610c845780639e97b8f614610c9957600080fd5b806383e5b21a1161029157806383e5b21a14610b9e57806384bb0fe614610bb3578063862440e214610bc8578063891fbef0146108d45780638da5cb5b14610be857806392e4267b14610c1057600080fd5b80636755d45614610aff5780636b20c45414610b1f5780636fa09a7914610b3f578063715018a614610b54578063731133e914610b695780637e8ceec714610b8957600080fd5b806339054c231161043b5780634e1273f4116103a257806351d294251161035b5780635d5664e1116103355780635d5664e114610aa05780635e2a338614610ac0578063666e6fd514610ad5578063669d5bfa14610aea57600080fd5b806351d2942514610a6157806352d1902d14610a765780635523766114610a8b57600080fd5b80634e1273f4146109a85780634f06c0fb146109d55780634f1ef286146109ea5780634f558e79146109fd5780634f6ccce714610a2c5780635157b56314610a4c57600080fd5b80633f79f1a4116103f45780633f79f1a4146109095780634468031f1461091e57806344cca2df1461093e57806348289589146109535780634cd88b76146109735780634ce7a2441461099357600080fd5b806339054c23146108755780633adbbbc11461088a5780633b60bd011461089f5780633b91ceef146108b45780633c176d9f146108d45780633dbe35de146108e957600080fd5b806316730ab0116104fa5780632ed58d81116104b357806333d810881161048d57806333d810881461081657806334628c1f1461082b57806335ab8629146108405780633659cfe61461085557600080fd5b80632ed58d81146107cc5780632f745c59146107e157806330c9cf931461080157600080fd5b806316730ab01461071557806318ae23751461073557806319e0755c1461074a5780631c45349c1461076a5780632a7ccf131461077f5780632eb2c2d6146107ac57600080fd5b80630e89341c1161054c5780630e89341c146106745780630ec0370f146106945780630f94cc50146106b657806311bb8afd146106cb57806313affe4f146106e057806314c46427146106f557600080fd5b8062fdd58e1461059357806301ffc9a7146105c65780630583e9f8146105f6578063067ff8661461061657806306fdde031461063d5780630daec9e41461065f575b600080fd5b34801561059f57600080fd5b506105b36105ae36600461513d565b610fc8565b6040519081526020015b60405180910390f35b3480156105d257600080fd5b506105e66105e13660046152c3565b611064565b60405190151581526020016105bd565b34801561060257600080fd5b506105b3610611366004615433565b6110b4565b34801561062257600080fd5b5061062b611122565b60405160ff90911681526020016105bd565b34801561064957600080fd5b5061065261113e565b6040516105bd91906156b9565b34801561066b57600080fd5b506105b36111cd565b34801561068057600080fd5b5061065261068f366004615433565b6111e5565b3480156106a057600080fd5b506106b46106af36600461524c565b611458565b005b3480156106c257600080fd5b506105b36114af565b3480156106d757600080fd5b5061062b602081565b3480156106ec57600080fd5b506105b36114e8565b34801561070157600080fd5b506105b36107103660046152fb565b6114ff565b34801561072157600080fd5b506105b3610730366004615330565b61150c565b34801561074157600080fd5b5061062b6118af565b34801561075657600080fd5b506105e66107653660046152fb565b6118ca565b34801561077657600080fd5b506105b36118d6565b34801561078b57600080fd5b5061079f61079a3660046153ee565b6118f9565b6040516105bd9190615662565b3480156107b857600080fd5b506106b46107c7366004614f41565b611c06565b3480156107d857600080fd5b5061062b600381565b3480156107ed57600080fd5b506105b36107fc36600461513d565b611c9d565b34801561080d57600080fd5b506105b3611d21565b34801561082257600080fd5b506105b3611d44565b34801561083757600080fd5b506105b3611ded565b34801561084c57600080fd5b506105b3611e04565b34801561086157600080fd5b506106b4610870366004614ef5565b611e1c565b34801561088157600080fd5b506105b3611efc565b34801561089657600080fd5b506105b3611f36565b3480156108ab57600080fd5b5061062b600d81565b3480156108c057600080fd5b506106b46108cf3660046154e4565b611f59565b3480156108e057600080fd5b5061062b600881565b3480156108f557600080fd5b506105b361090436600461536b565b611fdc565b34801561091557600080fd5b506105b3612157565b34801561092a57600080fd5b506105e6610939366004615330565b612166565b34801561094a57600080fd5b5061062b61217d565b34801561095f57600080fd5b506105e661096e36600461536b565b612199565b34801561097f57600080fd5b506106b461098e366004615386565b6121a6565b34801561099f57600080fd5b506105b36122ff565b3480156109b457600080fd5b506109c86109c33660046151f6565b61232e565b6040516105bd919061562a565b3480156109e157600080fd5b506105b361248f565b6106b46109f83660046150f2565b6124a7565b348015610a0957600080fd5b506105e6610a18366004615433565b600090815260fb6020526040902054151590565b348015610a3857600080fd5b506105b3610a47366004615433565b612574565b348015610a5857600080fd5b506105b36125db565b348015610a6d57600080fd5b506105b361260a565b348015610a8257600080fd5b506105b3612619565b348015610a9757600080fd5b506105b36126cd565b348015610aac57600080fd5b506106b4610abb366004615315565b6126f3565b348015610acc57600080fd5b506105b36126ff565b348015610ae157600080fd5b506105b3612717565b348015610af657600080fd5b506105b3612726565b348015610b0b57600080fd5b506106b4610b1a366004615386565b612763565b348015610b2b57600080fd5b506106b4610b3a366004615048565b6127a8565b348015610b4b57600080fd5b506105b36127f0565b348015610b6057600080fd5b506106b4612801565b348015610b7557600080fd5b506105e6610b84366004615198565b612837565b348015610b9557600080fd5b506105b3612a3f565b348015610baa57600080fd5b506105b3612a57565b348015610bbf57600080fd5b506105b3612a7a565b348015610bd457600080fd5b506106b4610be336600461544b565b612abb565b348015610bf457600080fd5b506097546040516001600160a01b0390911681526020016105bd565b348015610c1c57600080fd5b506105b3612b97565b348015610c3157600080fd5b506105b3612ba8565b348015610c4657600080fd5b50610652612bd0565b348015610c5b57600080fd5b5061062b612bde565b348015610c7057600080fd5b506106b4610c7f366004615494565b612c12565b348015610c9057600080fd5b506105b3612c27565b348015610ca557600080fd5b506105e6610cb4366004615315565b612c3f565b348015610cc557600080fd5b506105b3612c4d565b348015610cda57600080fd5b506105b3610ce9366004614ef5565b612c5a565b348015610cfa57600080fd5b5061062b600181565b348015610d0f57600080fd5b506106b4610d1e3660046150b8565b612dbd565b348015610d2f57600080fd5b506105b3612dc8565b348015610d4457600080fd5b506105b3612dd5565b348015610d5957600080fd5b506106b4610d68366004615330565b612de2565b348015610d7957600080fd5b506105b3612def565b348015610d8e57600080fd5b506105b3612e17565b348015610da357600080fd5b5061062b612e33565b348015610db857600080fd5b506105b3612e48565b348015610dcd57600080fd5b506105b3610ddc366004615433565b600090815260fb602052604090205490565b348015610dfa57600080fd5b506105e6610e09366004614ef5565b612e6b565b348015610e1a57600080fd5b506105b3612e93565b348015610e2f57600080fd5b506105b3612edf565b348015610e4457600080fd5b506105b3612eec565b348015610e5957600080fd5b506105b3612f0a565b348015610e6e57600080fd5b506105b3612f22565b348015610e8357600080fd5b5061062b612f39565b348015610e9857600080fd5b506105b3612f4d565b348015610ead57600080fd5b506105e6610ebc366004614f0f565b6001600160a01b03918216600090815260666020908152604080832093909416825291909152205460ff1690565b348015610ef657600080fd5b506105e6612f70565b348015610f0b57600080fd5b506105b3612f7b565b348015610f2057600080fd5b506106b4610f2f366004614fe6565b612f86565b348015610f4057600080fd5b506105b3612fcb565b348015610f5557600080fd5b506106b4610f64366004614ef5565b612fdd565b348015610f7557600080fd5b506105b3613075565b348015610f8a57600080fd5b506106b4610f99366004615166565b61309f565b348015610faa57600080fd5b5061062b613129565b348015610fbf57600080fd5b506105b3613136565b60006001600160a01b0383166110395760405162461bcd60e51b815260206004820152602b60248201527f455243313135353a2062616c616e636520717565727920666f7220746865207a60448201526a65726f206164647265737360a81b60648201526084015b60405180910390fd5b5060008181526065602090815260408083206001600160a01b03861684529091529020545b92915050565b60006001600160e01b03198216636cdb3d1360e11b148061109557506001600160e01b031982166303a24d0760e21b145b8061105e57506301ffc9a760e01b6001600160e01b031983161461105e565b600081815261019560205260409020548061111d5760405162461bcd60e51b815260206004820152602360248201527f5468652072657175657374656420746f6b656e20646f6573206e6f742065786960448201526239ba1760e91b6064820152608401611030565b919050565b6008611131600d610100615b4a565b61113b9190615b84565b81565b610191805461114c90615bd3565b80601f016020809104026020016040519081016040528092919081815260200182805461117890615bd3565b80156111c55780601f1061119a576101008083540402835291602001916111c5565b820191906000526020600020905b8154815290600101906020018083116111a857829003601f168201915b505050505081565b6111da600d610100615b4a565b60ff16610400901b81565b60008181526101936020526040902080546060919061120390615bd3565b80601f016020809104026020016040519081016040528092919081815260200182805461122f90615bd3565b801561127c5780601f106112515761010080835404028352916020019161127c565b820191906000526020600020905b81548152906001019060200180831161125f57829003601f168201915b5050505050905080516000141561111d57600861129c600d610100615b4a565b6112a69190615b84565b600160ff919091161b60086112be600d610100615b4a565b6112c89190615b84565b60ff1660016112d960086002615a9f565b6112e39190615b6d565b901b8316141561111d576000600160088160038083611305600d610100615b4a565b61130f9190615b84565b6113199190615b84565b6113239190615b84565b61132d9190615b84565b6113379190615b84565b6113419190615b84565b60ff166001611351816002615a9f565b61135b9190615b6d565b901b600380600861136f600d610100615b4a565b6113799190615b84565b6113839190615b84565b61138d9190615b84565b60ff166001901b17196001602060026113a69190615a9f565b6113b09190615b6d565b198416166000818152610193602052604090208054919250906113d290615bd3565b80601f01602080910402602001604051908101604052809291908181526020018280546113fe90615bd3565b801561144b5780601f106114205761010080835404028352916020019161144b565b820191906000526020600020905b81548152906001019060200180831161142e57829003601f168201915b5050505050915050919050565b60005b83518110156114a95761149884828151811061148757634e487b7160e01b600052603260045260246000fd5b602002602001015184600185612837565b506114a281615c3a565b905061145b565b50505050565b60086114be600d610100615b4a565b6114c89190615b84565b60ff1660016114d960086002615a9f565b6114e39190615b6d565b901b81565b6114f5600d610100615b4a565b60ff166010901b81565b600061105e826000611fdc565b600080611518856114ff565b90506000604051806101000160405280856001600860016003806008600d60ff166101006115469190615b4a565b6115509190615b84565b61155a9190615b84565b6115649190615b84565b61156e9190615b84565b6115789190615b84565b6115829190615b84565b60ff166001611592816002615a9f565b61159c9190615b6d565b901b60038060086115b0600d610100615b4a565b6115ba9190615b84565b6115c49190615b84565b6115ce9190615b84565b600160ff919091161b8617171781526020018560038060086115f3600d610100615b4a565b6115fd9190615b84565b6116079190615b84565b6116119190615b84565b60ff166001901b85171781526020016001600860016003806008600d60ff1661010061163d9190615b4a565b6116479190615b84565b6116519190615b84565b61165b9190615b84565b6116659190615b84565b61166f9190615b84565b6116799190615b84565b60ff166001611689816002615a9f565b6116939190615b6d565b901b60038060086116a7600d610100615b4a565b6116b19190615b84565b6116bb9190615b84565b6116c59190615b84565b600160ff919091161b851717815260200160038060086116e8600d610100615b4a565b6116f29190615b84565b6116fc9190615b84565b6117069190615b84565b60ff166001901b84178152602001856001600860016003806008600d60ff166101006117329190615b4a565b61173c9190615b84565b6117469190615b84565b6117509190615b84565b61175a9190615b84565b6117649190615b84565b61176e9190615b84565b60ff16600161177e816002615a9f565b6117889190615b6d565b901b85171781526020016001600881600380836117a8600d610100615b4a565b6117b29190615b84565b6117bc9190615b84565b6117c69190615b84565b6117d09190615b84565b6117da9190615b84565b6117e49190615b84565b60ff1660016117f4816002615a9f565b6117fe9190615b6d565b901b841781528584176020820152604001839052905060005b60088160ff1610156118a057600061185687848460ff166008811061184c57634e487b7160e01b600052603260045260246000fd5b6020020151610fc8565b111561188e57818160ff166008811061187f57634e487b7160e01b600052603260045260246000fd5b602002015193505050506118a8565b8061189881615c55565b915050611817565b506000925050505b9392505050565b600360086118c0600d610100615b4a565b6111319190615b84565b600061105e8233612c3f565b60086118e5600d610100615b4a565b6118ef9190615b84565b60ff166006901b81565b6000808260405160200161190d919061556b565b604051602081830303815290604052805190602001209050604051602001611944906829bab832b93ab9b2b960b91b815260090190565b6040516020818303038152906040528051906020012081141561196a5750600192915050565b6040516526b4b73a32b960d11b6020820152602601604051602081830303815290604052805190602001208114156119a55750600292915050565b6040516521b0b9ba32b960d11b6020820152602601604051602081830303815290604052805190602001208114156119e05750600392915050565b604051692a3930b739b332b932b960b11b6020820152602a0160405160208183030381529060405280519060200120811415611a1f5750600492915050565b6040516921b7b73334b3bab932b960b11b6020820152602a0160405160208183030381529060405280519060200120811415611a5e5750600592915050565b6040516926b0b4b73a30b4b732b960b11b6020820152602a0160405160208183030381529060405280519060200120811415611a9d5750600692915050565b6040516621b932b0ba37b960c91b602082015260270160405160208183030381529060405280519060200120811415611ad95750600792915050565b604051662634b6b4ba32b960c91b602082015260270160405160208183030381529060405280519060200120811415611b155750600892915050565b60405165213ab93732b960d11b602082015260260160405160208183030381529060405280519060200120811415611b505750600992915050565b604051682232b9ba3937bcb2b960b91b602082015260290160405160208183030381529060405280519060200120811415611b8e5750600a92915050565b604051654f7261636c6560d01b602082015260260160405160208183030381529060405280519060200120811415611bc95750600b92915050565b60405162461bcd60e51b81526020600482015260126024820152712ab735b737bbb7103937b632903a3cb8329760711b6044820152606401611030565b6001600160a01b038516331480611c225750611c228533610ebc565b611c895760405162461bcd60e51b815260206004820152603260248201527f455243313135353a207472616e736665722063616c6c6572206973206e6f74206044820152711bdddb995c881b9bdc88185c1c1c9bdd995960721b6064820152608401611030565b611c96858585858561315c565b5050505050565b6001600160a01b038216600090815261019660205260408120548210611cd55760405162461bcd60e51b815260040161103090615940565b6001600160a01b038316600090815261019660205260409020805483908110611d0e57634e487b7160e01b600052603260045260246000fd5b9060005260206000200154905092915050565b6008611d30600d610100615b4a565b611d3a9190615b84565b60ff166004901b81565b600160088160038083611d5a600d610100615b4a565b611d649190615b84565b611d6e9190615b84565b611d789190615b84565b611d829190615b84565b611d8c9190615b84565b611d969190615b84565b60ff166001611da6816002615a9f565b611db09190615b6d565b901b6003806008611dc4600d610100615b4a565b611dce9190615b84565b611dd89190615b84565b611de29190615b84565b60ff166001901b1781565b611dfa600d610100615b4a565b60ff166020901b81565b611e11600d610100615b4a565b60ff16611000901b81565b306001600160a01b037f0000000000000000000000000000000000000000000000000000000000000000161415611e655760405162461bcd60e51b815260040161103090615758565b7f00000000000000000000000000000000000000000000000000000000000000006001600160a01b0316611eae600080516020615d58833981519152546001600160a01b031690565b6001600160a01b031614611ed45760405162461bcd60e51b8152600401611030906157ed565b611edd81613325565b60408051600080825260208201909252611ef9918391906133af565b50565b6003806008611f0e600d610100615b4a565b611f189190615b84565b611f229190615b84565b611f2c9190615b84565b60ff166002901b81565b6008611f45600d610100615b4a565b611f4f9190615b84565b60ff166005901b81565b611f64600883612199565b80611f725750611f72612f70565b611fd85760405162461bcd60e51b815260206004820152603160248201527f596f75206d75737420686176652061204c696d6974657220746f6b656e20746f6044820152701031b430b733b29038bab0b73a34ba3c9760791b6064820152608401611030565b5050565b6000611fea60206002615a9f565b82106120385760405162461bcd60e51b815260206004820152601f60248201527f496e64696365732063616e206265206174206d6f737420333220626974732e006044820152606401611030565b81600184603c81111561205b57634e487b7160e01b600052602160045260246000fd5b146120675760006120c0565b6001600380600861207b600d610100615b4a565b6120859190615b84565b61208f9190615b84565b6120999190615b84565b6120a39190615b84565b60ff1660016120b3816002615a9f565b6120bd9190615b6d565b901b5b60086001600380836120d5600d610100615b4a565b6120df9190615b84565b6120e99190615b84565b6120f39190615b84565b6120fd9190615b84565b6121079190615b84565b60ff1685603c81111561212a57634e487b7160e01b600052602160045260246000fd5b901b600861213b600d610100615b4a565b6121459190615b84565b60ff166001901b171717905092915050565b6008611f22600d610100615b4a565b600061217384848461150c565b1515949350505050565b600380600861218f600d610100615b4a565b6118c09190615b84565b60006118a8833384612166565b600054610100900460ff166121c15760005460ff16156121c5565b303b155b6122285760405162461bcd60e51b815260206004820152602e60248201527f496e697469616c697a61626c653a20636f6e747261637420697320616c72656160448201526d191e481a5b9a5d1a585b1a5e995960921b6064820152608401611030565b600054610100900460ff1615801561224a576000805461ffff19166101011790555b612252613529565b6122906040518060400160405280602081526020017f4572726f723a2053696e676c6520546f6b656e20555249204e6f742055736564815250613558565b612298613588565b6122a0613588565b6122a8613588565b610194805460018101825560009182527fa6f1ac7ad7b125ba5a5e1c96b00ad6914f90a503b1ac3d85a9dadbb4c639df9201556122e785858585612763565b8015611c96576000805461ff00191690555050505050565b60036008612310600d610100615b4a565b61231a9190615b84565b6123249190615b84565b60ff166003901b81565b606081518351146123935760405162461bcd60e51b815260206004820152602960248201527f455243313135353a206163636f756e747320616e6420696473206c656e677468604482015268040dad2e6dac2e8c6d60bb1b6064820152608401611030565b600083516001600160401b038111156123bc57634e487b7160e01b600052604160045260246000fd5b6040519080825280602002602001820160405280156123e5578160200160208202803683370190505b50905060005b84518110156124875761244c85828151811061241757634e487b7160e01b600052603260045260246000fd5b602002602001015185838151811061243f57634e487b7160e01b600052603260045260246000fd5b6020026020010151610fc8565b82828151811061246c57634e487b7160e01b600052603260045260246000fd5b602090810291909101015261248081615c3a565b90506123eb565b509392505050565b61249c600d610100615b4a565b60ff16610800901b81565b306001600160a01b037f00000000000000000000000000000000000000000000000000000000000000001614156124f05760405162461bcd60e51b815260040161103090615758565b7f00000000000000000000000000000000000000000000000000000000000000006001600160a01b0316612539600080516020615d58833981519152546001600160a01b031690565b6001600160a01b03161461255f5760405162461bcd60e51b8152600401611030906157ed565b61256882613325565b611fd8828260016133af565b61019454600090821180159061258a5750600082115b6125a65760405162461bcd60e51b815260040161103090615940565b6101948054839081106125c957634e487b7160e01b600052603260045260246000fd5b90600052602060002001549050919050565b600360086125ec600d610100615b4a565b6125f69190615b84565b6126009190615b84565b60ff166001901b81565b60086125f6600d610100615b4a565b6000306001600160a01b037f000000000000000000000000000000000000000000000000000000000000000016146126b95760405162461bcd60e51b815260206004820152603860248201527f555550535570677261646561626c653a206d757374206e6f742062652063616c60448201527f6c6564207468726f7567682064656c656761746563616c6c00000000000000006064820152608401611030565b50600080516020615d588339815191525b90565b60038060086126df600d610100615b4a565b6126e99190615b84565b611d309190615b84565b611fd882826000612de2565b61270c600d610100615b4a565b60ff16610100901b81565b600861231a600d610100615b4a565b600860016003808361273b600d610100615b4a565b6127459190615b84565b61274f9190615b84565b6127599190615b84565b6114be9190615b84565b6097546001600160a01b0316331461278d5760405162461bcd60e51b81526004016110309061590b565b61279a6101918585614c1e565b50611c966101928383614c1e565b6001600160a01b0383163314806127c457506127c48333610ebc565b6127e05760405162461bcd60e51b8152600401611030906157a4565b6127eb8383836135af565b505050565b60036008611f18600d610100615b4a565b6097546001600160a01b0316331461282b5760405162461bcd60e51b81526004016110309061590b565b612835600061375c565b565b600060016008816003808361284f600d610100615b4a565b6128599190615b84565b6128639190615b84565b61286d9190615b84565b6128779190615b84565b6128819190615b84565b61288b9190615b84565b60ff16600161289b816002615a9f565b6128a59190615b6d565b901b6001600881600380836128bd600d610100615b4a565b6128c79190615b84565b6128d19190615b84565b6128db9190615b84565b6128e59190615b84565b6128ef9190615b84565b6128f99190615b84565b60ff166001612909816002615a9f565b6129139190615b6d565b901b851614156129775760405162461bcd60e51b815260206004820152602960248201527f43616e6e6f74206d696e7420696e7465726e616c20746f6b656e732066726f6d6044820152681037baba39b4b2329760b91b6064820152608401611030565b6001600380600861298b600d610100615b4a565b6129959190615b84565b61299f9190615b84565b6129a99190615b84565b6129b39190615b84565b60ff166001901b60016003806008600d60ff166101006129d39190615b4a565b6129dd9190615b84565b6129e79190615b84565b6129f19190615b84565b6129fb9190615b84565b60ff166001901b8516148015612a1a57506000612a188686610fc8565b115b15612a2757506000612a37565b612a33858585856137ae565b5060015b949350505050565b6001612a4d60206002615a9f565b61113b9190615b6d565b6008612a66600d610100615b4a565b612a709190615b84565b60ff166008901b81565b6003806008612a8c600d610100615b4a565b612a969190615b84565b612aa09190615b84565b612aaa9190615b84565b60ff1660016114d960036002615a9f565b612ac6600584612199565b80612ad45750612ad4612f70565b612b3d5760405162461bcd60e51b815260206004820152603460248201527f596f75206d7573742068617665206120436f6e6669677572657220746f6b656e604482015273103a379031b430b733b29036b2ba30b230ba309760611b6064820152608401611030565b600083815261019360205260409020612b57908383614c1e565b50827f6bb7ff708619ba0610cba295a58592e0451dee2622938c8755667688daf3529b8383604051612b8a92919061568a565b60405180910390a2505050565b60036008612a96600d610100615b4a565b6008612bb7600d610100615b4a565b612bc19190615b84565b60ff166114e360086002615a9f565b610192805461114c90615bd3565b600160088160038083612bf4600d610100615b4a565b612bfe9190615b84565b612c089190615b84565b61218f9190615b84565b612c1d848484612abb565b6114a98482611f59565b61019454600090612c3a90600190615b6d565b905090565b60006118a883836000612166565b611d3a600d610100615b4a565b61019454600090806008612c71600d610100615b4a565b612c7b9190615b84565b60ff166009901b179150612c90600783612199565b80612c9e5750612c9e612f70565b612d065760405162461bcd60e51b815260206004820152603360248201527f596f75206d757374206861766520612043726561746f7220746f6b656e20746f6044820152721031b932b0ba32903732bb903a37b5b2b7399760691b6064820152608401611030565b610194805460018181019092557fa6f1ac7ad7b125ba5a5e1c96b00ad6914f90a503b1ac3d85a9dadbb4c639df9201839055600083815261019560205260409020829055612d5a90600290859084906138c0565b612d686005848360016138c0565b612d766008848360016138c0565b604080518381526001600160a01b03851660208201527f7757890bcab34d673dfca6b71df1b57f75a2fe4231d6e8de726caf534ab1fdd6910160405180910390a150919050565b611fd8338383613a7b565b611f2c600d610100615b4a565b612a70600d610100615b4a565b6127eb83838360006138c0565b60016003806008612e03600d610100615b4a565b612e0d9190615b84565b6125ec9190615b84565b6003806008612e29600d610100615b4a565b6123109190615b84565b6008600160038083612bfe600d610100615b4a565b6008612e57600d610100615b4a565b612e619190615b84565b60ff166007901b81565b6000612e78600183612c3f565b8061105e5750506097546001600160a01b0391821691161490565b60016003806008612ea7600d610100615b4a565b612eb19190615b84565b612ebb9190615b84565b612ec59190615b84565b612ecf9190615b84565b60ff1660016114d9816002615a9f565b612600600d610100615b4a565b612ef9600d610100615b4a565b60ff1660016114d9600d6002615a9f565b612f17600d610100615b4a565b60ff16610200901b81565b612f2f600d610100615b4a565b60ff166040901b81565b60016003806008612c08600d610100615b4a565b6008612f5c600d610100615b4a565b612f669190615b84565b60ff166009901b81565b6000612c3a33612e6b565b6000612c3a33612c5a565b6001600160a01b038516331480612fa25750612fa28533610ebc565b612fbe5760405162461bcd60e51b8152600401611030906157a4565b611c968585858585613b5c565b6003806008612e0d600d610100615b4a565b6097546001600160a01b031633146130075760405162461bcd60e51b81526004016110309061590b565b6001600160a01b03811661306c5760405162461bcd60e51b815260206004820152602660248201527f4f776e61626c653a206e6577206f776e657220697320746865207a65726f206160448201526564647265737360d01b6064820152608401611030565b611ef98161375c565b60016008816003808361308b600d610100615b4a565b6130959190615b84565b612ea79190615b84565b6130ab60098484612166565b806130ba57506130ba83612e6b565b61311e5760405162461bcd60e51b815260206004820152602f60248201527f596f75206d75737420686176652061204275726e657220746f6b656e20746f2060448201526e3232b9ba3937bc903a37b5b2b7399760891b6064820152608401611030565b6127eb838383613c7d565b61113b600d610100615b4a565b613143600d610100615b4a565b60ff166080901b81565b6001600160a01b03163b151590565b815183511461317d5760405162461bcd60e51b8152600401611030906159d9565b6001600160a01b0384166131a35760405162461bcd60e51b815260040161103090615839565b336131b2818787878787613d82565b60005b84518110156132b75760008582815181106131e057634e487b7160e01b600052603260045260246000fd5b60200260200101519050600085838151811061320c57634e487b7160e01b600052603260045260246000fd5b60209081029190910181015160008481526065835260408082206001600160a01b038e16835290935291909120549091508181101561325d5760405162461bcd60e51b8152600401611030906158c1565b60008381526065602090815260408083206001600160a01b038e8116855292528083208585039055908b1682528120805484929061329c908490615a44565b92505081905550505050806132b090615c3a565b90506131b5565b50846001600160a01b0316866001600160a01b0316826001600160a01b03167f4a39dc06d4c0dbc64b70af90fd698a233a518aa5d07e595d983b8c0526c8f7fb878760405161330792919061563d565b60405180910390a461331d8187878787876145ab565b505050505050565b61332f60066118ca565b8061333d575061333d612f70565b611ef95760405162461bcd60e51b815260206004820152603960248201527f596f75206d75737420686176652061204d61696e7461696e657220746f6b656e60448201527f20746f20757067726164652074686520636f6e74726163742e000000000000006064820152608401611030565b7f4910fdfa16fed3260ed0e7147f7cc6da11a60208b5b9406d12a635614ffd91435460ff16156133e2576127eb83614716565b826001600160a01b03166352d1902d6040518163ffffffff1660e01b815260040160206040518083038186803b15801561341b57600080fd5b505afa92505050801561344b575060408051601f3d908101601f19168201909252613448918101906152ab565b60015b6134ae5760405162461bcd60e51b815260206004820152602e60248201527f45524331393637557067726164653a206e657720696d706c656d656e7461746960448201526d6f6e206973206e6f74205555505360901b6064820152608401611030565b600080516020615d58833981519152811461351d5760405162461bcd60e51b815260206004820152602960248201527f45524331393637557067726164653a20756e737570706f727465642070726f786044820152681a58589b195555525160ba1b6064820152608401611030565b506127eb8383836147b2565b600054610100900460ff166135505760405162461bcd60e51b81526004016110309061598e565b6128356147d7565b600054610100900460ff1661357f5760405162461bcd60e51b81526004016110309061598e565b611ef981614807565b600054610100900460ff166128355760405162461bcd60e51b81526004016110309061598e565b6001600160a01b0383166135d55760405162461bcd60e51b81526004016110309061587e565b80518251146135f65760405162461bcd60e51b8152600401611030906159d9565b600033905061361981856000868660405180602001604052806000815250613d82565b60005b83518110156136fd57600084828151811061364757634e487b7160e01b600052603260045260246000fd5b60200260200101519050600084838151811061367357634e487b7160e01b600052603260045260246000fd5b60209081029190910181015160008481526065835260408082206001600160a01b038c1683529093529190912054909150818110156136c45760405162461bcd60e51b815260040161103090615714565b60009283526065602090815260408085206001600160a01b038b16865290915290922091039055806136f581615c3a565b91505061361c565b5060006001600160a01b0316846001600160a01b0316826001600160a01b03167f4a39dc06d4c0dbc64b70af90fd698a233a518aa5d07e595d983b8c0526c8f7fb868660405161374e92919061563d565b60405180910390a450505050565b609780546001600160a01b038381166001600160a01b0319831681179093556040519116919082907f8be0079c531659141344cd1fd0a4f28419497f9722a3daafe3b4186f6b6457e090600090a35050565b6001600160a01b03841661380e5760405162461bcd60e51b815260206004820152602160248201527f455243313135353a206d696e7420746f20746865207a65726f206164647265736044820152607360f81b6064820152608401611030565b3361382e8160008761381f88614837565b61382888614837565b87613d82565b60008481526065602090815260408083206001600160a01b038916845290915281208054859290613860908490615a44565b909155505060408051858152602081018590526001600160a01b0380881692600092918516917fc3d58168c5ae7397731d063d5bbf3d657854427343f4c083240f7aacaa2d0f62910160405180910390a4611c9681600087878787614890565b806139da57600184603c8111156138e757634e487b7160e01b600052602160045260246000fd5b141561395a576138f5612f70565b6139555760405162461bcd60e51b815260206004820152602b60248201527f596f75206d75737420626520612073757065727573657220746f20637265617460448201526a32903732bb9037b732b99760a91b6064820152608401611030565b6139da565b613965600383612199565b806139735750613973612f70565b6139da5760405162461bcd60e51b815260206004820152603260248201527f596f75206d7573742068617665207468652043617374657220726f6c6520746f6044820152711030b9b9b4b3b7103732bb903937b632b99760711b6064820152608401611030565b6114a983826139ea576000613a59565b600160088160038083613a00600d610100615b4a565b613a0a9190615b84565b613a149190615b84565b613a1e9190615b84565b613a289190615b84565b613a329190615b84565b613a3c9190615b84565b60ff166001613a4c816002615a9f565b613a569190615b6d565b901b5b613a638786611fdc565b176001604051806020016040528060008152506137ae565b816001600160a01b0316836001600160a01b03161415613aef5760405162461bcd60e51b815260206004820152602960248201527f455243313135353a2073657474696e6720617070726f76616c20737461747573604482015268103337b91039b2b63360b91b6064820152608401611030565b6001600160a01b03838116600081815260666020908152604080832094871680845294825291829020805460ff191686151590811790915591519182527f17307eab39ab6107e8899845ad3d59bd9653f200f220920489ca2b5937696c31910160405180910390a3505050565b6001600160a01b038416613b825760405162461bcd60e51b815260040161103090615839565b33613b9281878761381f88614837565b60008481526065602090815260408083206001600160a01b038a16845290915290205483811015613bd55760405162461bcd60e51b8152600401611030906158c1565b60008581526065602090815260408083206001600160a01b038b8116855292528083208785039055908816825281208054869290613c14908490615a44565b909155505060408051868152602081018690526001600160a01b03808916928a821692918616917fc3d58168c5ae7397731d063d5bbf3d657854427343f4c083240f7aacaa2d0f62910160405180910390a4613c74828888888888614890565b50505050505050565b6001600160a01b038316613ca35760405162461bcd60e51b81526004016110309061587e565b33613cd281856000613cb487614837565b613cbd87614837565b60405180602001604052806000815250613d82565b60008381526065602090815260408083206001600160a01b038816845290915290205482811015613d155760405162461bcd60e51b815260040161103090615714565b60008481526065602090815260408083206001600160a01b03898116808652918452828520888703905582518981529384018890529092908616917fc3d58168c5ae7397731d063d5bbf3d657854427343f4c083240f7aacaa2d0f62910160405180910390a45050505050565b613d8a612f70565b6141e35760005b83518110156141e157600160088160038083613db0600d610100615b4a565b613dba9190615b84565b613dc49190615b84565b613dce9190615b84565b613dd89190615b84565b613de29190615b84565b613dec9190615b84565b60ff166001613dfc816002615a9f565b613e069190615b6d565b901b600160088160038083613e1e600d610100615b4a565b613e289190615b84565b613e329190615b84565b613e3c9190615b84565b613e469190615b84565b613e509190615b84565b613e5a9190615b84565b60ff166001613e6a816002615a9f565b613e749190615b6d565b901b858381518110613e9657634e487b7160e01b600052603260045260246000fd5b602002602001015116146141d15760006001600160a01b03871615613ebc576004613ebf565b60025b9050600281603c811115613ee357634e487b7160e01b600052602160045260246000fd5b1415614133576008613ef8600d610100615b4a565b613f029190615b84565b600160ff919091161b6008613f1a600d610100615b4a565b613f249190615b84565b60ff166001613f3560086002615a9f565b613f3f9190615b6d565b901b868481518110613f6157634e487b7160e01b600052603260045260246000fd5b602002602001015116141561401b57613fa26003868481518110613f9557634e487b7160e01b600052603260045260246000fd5b6020026020010151612199565b80613fb05750613fb0612f70565b6140165760405162461bcd60e51b815260206004820152603160248201527f596f75206d757374206861766520612043617374657220746f6b656e20746f2060448201527036b4b73a103a37b5b2b71033b0ba32b99760791b6064820152608401611030565b6141cf565b61404f8161096e87858151811061404257634e487b7160e01b600052603260045260246000fd5b60200260200101516110b4565b6140b45760405162461bcd60e51b815260206004820152603060248201527f596f75206d75737420686176652061204d696e74657220746f6b656e20746f2060448201526f33b2b732b930ba32903a37b5b2b7399760811b6064820152608401611030565b60006140de823361073089878151811061404257634e487b7160e01b600052603260045260246000fd5b9050600060038060086140f4600d610100615b4a565b6140fe9190615b84565b6141089190615b84565b6141129190615b84565b60ff166001901b8216111561412d5761412d33826001613c7d565b506141cf565b6001600160a01b038616156141cf5761416681868481518110613f9557634e487b7160e01b600052603260045260246000fd5b6141cf5760405162461bcd60e51b815260206004820152603460248201527f596f75206d75737420686176652061205472616e73666572657220746f6b656e604482015273103a37903a3930b739b332b9103a37b5b2b7399760611b6064820152608401611030565b505b6141da81615c3a565b9050613d91565b505b6001600160a01b038416156144095760005b835181101561440757610194600101600085838151811061422657634e487b7160e01b600052603260045260246000fd5b6020026020010151815260200190815260200160002054600014156142d25761019460000184828151811061426b57634e487b7160e01b600052603260045260246000fd5b60209081029190910181015182546001810184556000938452918320909101556101945485519091610195918790859081106142b757634e487b7160e01b600052603260045260246000fd5b60200260200101518152602001908152602001600020819055505b6101966000866001600160a01b03166001600160a01b03168152602001908152602001600020600101600085838151811061431d57634e487b7160e01b600052603260045260246000fd5b6020026020010151815260200190815260200160002054600014156143f7576001600160a01b038516600090815261019660205260409020845185908390811061437757634e487b7160e01b600052603260045260246000fd5b6020908102919091018101518254600181810185556000948552838520909101919091556001600160a01b03881683526101969091526040822080548751909391909201918790859081106143dc57634e487b7160e01b600052603260045260246000fd5b60200260200101518152602001908152602001600020819055505b61440081615c3a565b90506141f5565b505b6001600160a01b0385161561459d5760005b835181101561459b5782818151811061444457634e487b7160e01b600052603260045260246000fd5b60200260200101516144708786848151811061243f57634e487b7160e01b600052603260045260246000fd5b1161458b576001600160a01b038616600090815261019660205260408120855160019182019083908890869081106144b857634e487b7160e01b600052603260045260246000fd5b60200260200101518152602001908152602001600020546144d99190615b6d565b6001600160a01b0388166000908152610196602052604090208054919250908290811061451657634e487b7160e01b600052603260045260246000fd5b90600052602060002001600090556101966000886001600160a01b03166001600160a01b03168152602001908152602001600020600101600086848151811061456f57634e487b7160e01b600052603260045260246000fd5b6020026020010151815260200190815260200160002060009055505b61459481615c3a565b905061441b565b505b61331d86868686868661495a565b6001600160a01b0384163b1561331d5760405163bc197c8160e01b81526001600160a01b0385169063bc197c81906145ef9089908990889088908890600401615587565b602060405180830381600087803b15801561460957600080fd5b505af1925050508015614639575060408051601f3d908101601f19168201909252614636918101906152df565b60015b6146e657614645615ca1565b806308c379a0141561467f575061465a615cb8565b806146655750614681565b8060405162461bcd60e51b815260040161103091906156b9565b505b60405162461bcd60e51b815260206004820152603460248201527f455243313135353a207472616e7366657220746f206e6f6e20455243313135356044820152732932b1b2b4bb32b91034b6b83632b6b2b73a32b960611b6064820152608401611030565b6001600160e01b0319811663bc197c8160e01b14613c745760405162461bcd60e51b8152600401611030906156cc565b6001600160a01b0381163b6147835760405162461bcd60e51b815260206004820152602d60248201527f455243313936373a206e657720696d706c656d656e746174696f6e206973206e60448201526c1bdd08184818dbdb9d1c9858dd609a1b6064820152608401611030565b600080516020615d5883398151915280546001600160a01b0319166001600160a01b0392909216919091179055565b6147bb83614a9e565b6000825111806147c85750805b156127eb576114a98383614ade565b600054610100900460ff166147fe5760405162461bcd60e51b81526004016110309061598e565b6128353361375c565b600054610100900460ff1661482e5760405162461bcd60e51b81526004016110309061598e565b611ef981614bd2565b6040805160018082528183019092526060916000919060208083019080368337019050509050828160008151811061487f57634e487b7160e01b600052603260045260246000fd5b602090810291909101015292915050565b6001600160a01b0384163b1561331d5760405163f23a6e6160e01b81526001600160a01b0385169063f23a6e61906148d490899089908890889088906004016155e5565b602060405180830381600087803b1580156148ee57600080fd5b505af192505050801561491e575060408051601f3d908101601f1916820190925261491b918101906152df565b60015b61492a57614645615ca1565b6001600160e01b0319811663f23a6e6160e01b14613c745760405162461bcd60e51b8152600401611030906156cc565b6001600160a01b0385166149fd5760005b83518110156149fb5782818151811061499457634e487b7160e01b600052603260045260246000fd5b602002602001015160fb60008684815181106149c057634e487b7160e01b600052603260045260246000fd5b6020026020010151815260200190815260200160002060008282546149e59190615a44565b909155506149f4905081615c3a565b905061496b565b505b6001600160a01b03841661331d5760005b8351811015613c7457828181518110614a3757634e487b7160e01b600052603260045260246000fd5b602002602001015160fb6000868481518110614a6357634e487b7160e01b600052603260045260246000fd5b602002602001015181526020019081526020016000206000828254614a889190615b6d565b90915550614a97905081615c3a565b9050614a0e565b614aa781614716565b6040516001600160a01b038216907fbc7cd75a20ee27fd9adebab32041f755214dbc6bffa90cc0225b39da2e5c2d3b90600090a250565b60606001600160a01b0383163b614b465760405162461bcd60e51b815260206004820152602660248201527f416464726573733a2064656c65676174652063616c6c20746f206e6f6e2d636f6044820152651b9d1c9858dd60d21b6064820152608401611030565b600080846001600160a01b031684604051614b61919061556b565b600060405180830381855af49150503d8060008114614b9c576040519150601f19603f3d011682016040523d82523d6000602084013e614ba1565b606091505b5091509150614bc98282604051806060016040528060278152602001615d7860279139614be5565b95945050505050565b8051611fd8906067906020840190614ca2565b60608315614bf45750816118a8565b825115614c045782518084602001fd5b8160405162461bcd60e51b815260040161103091906156b9565b828054614c2a90615bd3565b90600052602060002090601f016020900481019282614c4c5760008555614c92565b82601f10614c655782800160ff19823516178555614c92565b82800160010185558215614c92579182015b82811115614c92578235825591602001919060010190614c77565b50614c9e929150614d16565b5090565b828054614cae90615bd3565b90600052602060002090601f016020900481019282614cd05760008555614c92565b82601f10614ce957805160ff1916838001178555614c92565b82800160010185558215614c92579182015b82811115614c92578251825591602001919060010190614cfb565b5b80821115614c9e5760008155600101614d17565b60006001600160401b03831115614d4457614d44615c8b565b604051614d5b601f8501601f191660200182615c0e565b809150838152848484011115614d7057600080fd5b83836020830137600060208583010152509392505050565b80356001600160a01b038116811461111d57600080fd5b600082601f830112614daf578081fd5b81356020614dbc82615a21565b604051614dc98282615c0e565b8381528281019150858301600585901b87018401881015614de8578586fd5b855b85811015614e0d57614dfb82614d88565b84529284019290840190600101614dea565b5090979650505050505050565b600082601f830112614e2a578081fd5b81356020614e3782615a21565b604051614e448282615c0e565b8381528281019150858301600585901b87018401881015614e63578586fd5b855b85811015614e0d57813584529284019290840190600101614e65565b600082601f830112614e91578081fd5b6118a883833560208501614d2b565b8035603d811061111d57600080fd5b60008083601f840112614ec0578182fd5b5081356001600160401b03811115614ed6578182fd5b602083019150836020828501011115614eee57600080fd5b9250929050565b600060208284031215614f06578081fd5b6118a882614d88565b60008060408385031215614f21578081fd5b614f2a83614d88565b9150614f3860208401614d88565b90509250929050565b600080600080600060a08688031215614f58578081fd5b614f6186614d88565b9450614f6f60208701614d88565b935060408601356001600160401b0380821115614f8a578283fd5b614f9689838a01614e1a565b94506060880135915080821115614fab578283fd5b614fb789838a01614e1a565b93506080880135915080821115614fcc578283fd5b50614fd988828901614e81565b9150509295509295909350565b600080600080600060a08688031215614ffd578081fd5b61500686614d88565b945061501460208701614d88565b9350604086013592506060860135915060808601356001600160401b0381111561503c578182fd5b614fd988828901614e81565b60008060006060848603121561505c578283fd5b61506584614d88565b925060208401356001600160401b0380821115615080578384fd5b61508c87838801614e1a565b935060408601359150808211156150a1578283fd5b506150ae86828701614e1a565b9150509250925092565b600080604083850312156150ca578182fd5b6150d383614d88565b9150602083013580151581146150e7578182fd5b809150509250929050565b60008060408385031215615104578182fd5b61510d83614d88565b915060208301356001600160401b03811115615127578182fd5b61513385828601614e81565b9150509250929050565b6000806040838503121561514f578182fd5b61515883614d88565b946020939093013593505050565b60008060006060848603121561517a578081fd5b61518384614d88565b95602085013595506040909401359392505050565b600080600080608085870312156151ad578182fd5b6151b685614d88565b9350602085013592506040850135915060608501356001600160401b038111156151de578182fd5b6151ea87828801614e81565b91505092959194509250565b60008060408385031215615208578182fd5b82356001600160401b038082111561521e578384fd5b61522a86838701614d9f565b9350602085013591508082111561523f578283fd5b5061513385828601614e1a565b600080600060608486031215615260578081fd5b83356001600160401b0380821115615276578283fd5b61528287838801614d9f565b945060208601359350604086013591508082111561529e578283fd5b506150ae86828701614e81565b6000602082840312156152bc578081fd5b5051919050565b6000602082840312156152d4578081fd5b81356118a881615d41565b6000602082840312156152f0578081fd5b81516118a881615d41565b60006020828403121561530c578081fd5b6118a882614ea0565b60008060408385031215615327578182fd5b614f2a83614ea0565b600080600060608486031215615344578081fd5b61534d84614ea0565b925061535b60208501614d88565b9150604084013590509250925092565b6000806040838503121561537d578182fd5b61515883614ea0565b6000806000806040858703121561539b578182fd5b84356001600160401b03808211156153b1578384fd5b6153bd88838901614eaf565b909650945060208701359150808211156153d5578384fd5b506153e287828801614eaf565b95989497509550505050565b6000602082840312156153ff578081fd5b81356001600160401b03811115615414578182fd5b8201601f81018413615424578182fd5b612a3784823560208401614d2b565b600060208284031215615444578081fd5b5035919050565b60008060006040848603121561545f578081fd5b8335925060208401356001600160401b0381111561547b578182fd5b61548786828701614eaf565b9497909650939450505050565b600080600080606085870312156154a9578182fd5b8435935060208501356001600160401b038111156154c5578283fd5b6154d187828801614eaf565b9598909750949560400135949350505050565b600080604083850312156154f6578182fd5b50508035926020909101359150565b6000815180845260208085019450808401835b8381101561553457815187529582019590820190600101615518565b509495945050505050565b60008151808452615557816020860160208601615ba7565b601f01601f19169290920160200192915050565b6000825161557d818460208701615ba7565b9190910192915050565b6001600160a01b0386811682528516602082015260a0604082018190526000906155b390830186615505565b82810360608401526155c58186615505565b905082810360808401526155d9818561553f565b98975050505050505050565b6001600160a01b03868116825285166020820152604081018490526060810183905260a06080820181905260009061561f9083018461553f565b979650505050505050565b6020815260006118a86020830184615505565b6040815260006156506040830185615505565b8281036020840152614bc98185615505565b60208101603d831061568457634e487b7160e01b600052602160045260246000fd5b91905290565b60208152816020820152818360408301376000818301604090810191909152601f909201601f19160101919050565b6020815260006118a8602083018461553f565b60208082526028908201527f455243313135353a204552433131353552656365697665722072656a656374656040820152676420746f6b656e7360c01b606082015260800190565b60208082526024908201527f455243313135353a206275726e20616d6f756e7420657863656564732062616c604082015263616e636560e01b606082015260800190565b6020808252602c908201527f46756e6374696f6e206d7573742062652063616c6c6564207468726f7567682060408201526b19195b1959d85d1958d85b1b60a21b606082015260800190565b60208082526029908201527f455243313135353a2063616c6c6572206973206e6f74206f776e6572206e6f7260408201526808185c1c1c9bdd995960ba1b606082015260800190565b6020808252602c908201527f46756e6374696f6e206d7573742062652063616c6c6564207468726f7567682060408201526b6163746976652070726f787960a01b606082015260800190565b60208082526025908201527f455243313135353a207472616e7366657220746f20746865207a65726f206164604082015264647265737360d81b606082015260800190565b60208082526023908201527f455243313135353a206275726e2066726f6d20746865207a65726f206164647260408201526265737360e81b606082015260800190565b6020808252602a908201527f455243313135353a20696e73756666696369656e742062616c616e636520666f60408201526939103a3930b739b332b960b11b606082015260800190565b6020808252818101527f4f776e61626c653a2063616c6c6572206973206e6f7420746865206f776e6572604082015260600190565b6020808252602e908201527f4552432d3131353520456e756d657261626c653a20746f6b656e20696e64657860408201526d206f7574206f6620626f756e647360901b606082015260800190565b6020808252602b908201527f496e697469616c697a61626c653a20636f6e7472616374206973206e6f74206960408201526a6e697469616c697a696e6760a81b606082015260800190565b60208082526028908201527f455243313135353a2069647320616e6420616d6f756e7473206c656e677468206040820152670dad2e6dac2e8c6d60c31b606082015260800190565b60006001600160401b03821115615a3a57615a3a615c8b565b5060051b60200190565b60008219821115615a5757615a57615c75565b500190565b600181815b80851115615a97578160001904821115615a7d57615a7d615c75565b80851615615a8a57918102915b93841c9390800290615a61565b509250929050565b60006118a860ff841683600082615ab85750600161105e565b81615ac55750600061105e565b8160018114615adb5760028114615ae557615b01565b600191505061105e565b60ff841115615af657615af6615c75565b50506001821b61105e565b5060208310610133831016604e8410600b8410161715615b24575081810a61105e565b615b2e8383615a5c565b8060001904821115615b4257615b42615c75565b029392505050565b600061ffff83811690831681811015615b6557615b65615c75565b039392505050565b600082821015615b7f57615b7f615c75565b500390565b600060ff821660ff841680821015615b9e57615b9e615c75565b90039392505050565b60005b83811015615bc2578181015183820152602001615baa565b838111156114a95750506000910152565b600181811c90821680615be757607f821691505b60208210811415615c0857634e487b7160e01b600052602260045260246000fd5b50919050565b601f8201601f191681016001600160401b0381118282101715615c3357615c33615c8b565b6040525050565b6000600019821415615c4e57615c4e615c75565b5060010190565b600060ff821660ff811415615c6c57615c6c615c75565b60010192915050565b634e487b7160e01b600052601160045260246000fd5b634e487b7160e01b600052604160045260246000fd5b600060033d11156126ca57600481823e5160e01c90565b600060443d1015615cc65790565b6040516003193d81016004833e81513d6001600160401b038160248401118184111715615cf557505050505090565b8285019150815181811115615d0d5750505050505090565b843d8701016020828501011115615d275750505050505090565b615d3660208286010187615c0e565b509095945050505050565b6001600160e01b031981168114611ef957600080fdfe360894a13ba1a3210667c828492db98dca3e2076cc3735a920a3ca505d382bbc416464726573733a206c6f772d6c6576656c2064656c65676174652063616c6c206661696c6564a2646970667358221220b0c7919eaea5e0fba4862646ee0ccab237b6343bbfc80370e8e9c67e7c49dc7064736f6c63430008040033",
  "linkReferences": {},
  "deployedLinkReferences": {}
}