{
  "_format": "hh-sol-artifact-1",
  "contractName": "BulkDisbursableNFTs",
  "sourceName": "src/BulkDisbursableNFTs.sol",
  "abi": [
    {
      "inputs": [],
      "stateMutability": "nonpayable",
      "type": "constructor"
    },
    {
      "anonymous": false,
      "inputs": [
        {
          "indexed": false,
          "internalType": "address",
          "name": "previousAdmin",
          "type": "address"
        },
        {
          "indexed": false,
          "internalType": "address",
          "name": "newAdmin",
          "type": "address"
        }
      ],
      "name": "AdminChanged",
      "type": "event"
    },
    {
      "anonymous": false,
      "inputs": [
        {
          "indexed": true,
          "internalType": "address",
          "name": "account",
          "type": "address"
        },
        {
          "indexed": true,
          "internalType": "address",
          "name": "operator",
          "type": "address"
        },
        {
          "indexed": false,
          "internalType": "bool",
          "name": "approved",
          "type": "bool"
        }
      ],
      "name": "ApprovalForAll",
      "type": "event"
    },
    {
      "anonymous": false,
      "inputs": [
        {
          "indexed": true,
          "internalType": "address",
          "name": "beacon",
          "type": "address"
        }
      ],
      "name": "BeaconUpgraded",
      "type": "event"
    },
    {
      "anonymous": false,
      "inputs": [
        {
          "indexed": false,
          "internalType": "uint256",
          "name": "id",
          "type": "uint256"
        },
        {
          "indexed": false,
          "internalType": "address",
          "name": "controller",
          "type": "address"
        }
      ],
      "name": "Created",
      "type": "event"
    },
    {
      "anonymous": false,
      "inputs": [
        {
          "indexed": true,
          "internalType": "address",
          "name": "previousOwner",
          "type": "address"
        },
        {
          "indexed": true,
          "internalType": "address",
          "name": "newOwner",
          "type": "address"
        }
      ],
      "name": "OwnershipTransferred",
      "type": "event"
    },
    {
      "anonymous": false,
      "inputs": [
        {
          "indexed": true,
          "internalType": "address",
          "name": "operator",
          "type": "address"
        },
        {
          "indexed": true,
          "internalType": "address",
          "name": "from",
          "type": "address"
        },
        {
          "indexed": true,
          "internalType": "address",
          "name": "to",
          "type": "address"
        },
        {
          "indexed": false,
          "internalType": "uint256[]",
          "name": "ids",
          "type": "uint256[]"
        },
        {
          "indexed": false,
          "internalType": "uint256[]",
          "name": "values",
          "type": "uint256[]"
        }
      ],
      "name": "TransferBatch",
      "type": "event"
    },
    {
      "anonymous": false,
      "inputs": [
        {
          "indexed": true,
          "internalType": "address",
          "name": "operator",
          "type": "address"
        },
        {
          "indexed": true,
          "internalType": "address",
          "name": "from",
          "type": "address"
        },
        {
          "indexed": true,
          "internalType": "address",
          "name": "to",
          "type": "address"
        },
        {
          "indexed": false,
          "internalType": "uint256",
          "name": "id",
          "type": "uint256"
        },
        {
          "indexed": false,
          "internalType": "uint256",
          "name": "value",
          "type": "uint256"
        }
      ],
      "name": "TransferSingle",
      "type": "event"
    },
    {
      "anonymous": false,
      "inputs": [
        {
          "indexed": false,
          "internalType": "string",
          "name": "value",
          "type": "string"
        },
        {
          "indexed": true,
          "internalType": "uint256",
          "name": "id",
          "type": "uint256"
        }
      ],
      "name": "URI",
      "type": "event"
    },
    {
      "anonymous": false,
      "inputs": [
        {
          "indexed": true,
          "internalType": "address",
          "name": "implementation",
          "type": "address"
        }
      ],
      "name": "Upgraded",
      "type": "event"
    },
    {
      "inputs": [
        {
          "internalType": "uint256",
          "name": "",
          "type": "uint256"
        }
      ],
      "name": "Roles",
      "outputs": [
        {
          "internalType": "string",
          "name": "",
          "type": "string"
        }
      ],
      "stateMutability": "view",
      "type": "function"
    },
    {
      "inputs": [
        {
          "internalType": "address",
          "name": "account",
          "type": "address"
        },
        {
          "internalType": "uint256",
          "name": "id",
          "type": "uint256"
        }
      ],
      "name": "balanceOf",
      "outputs": [
        {
          "internalType": "uint256",
          "name": "",
          "type": "uint256"
        }
      ],
      "stateMutability": "view",
      "type": "function"
    },
    {
      "inputs": [
        {
          "internalType": "address[]",
          "name": "accounts",
          "type": "address[]"
        },
        {
          "internalType": "uint256[]",
          "name": "ids",
          "type": "uint256[]"
        }
      ],
      "name": "balanceOfBatch",
      "outputs": [
        {
          "internalType": "uint256[]",
          "name": "",
          "type": "uint256[]"
        }
      ],
      "stateMutability": "view",
      "type": "function"
    },
    {
      "inputs": [
        {
          "internalType": "address",
          "name": "owner",
          "type": "address"
        },
        {
          "internalType": "uint256",
          "name": "id",
          "type": "uint256"
        },
        {
          "internalType": "uint256",
          "name": "quantity",
          "type": "uint256"
        }
      ],
      "name": "burn",
      "outputs": [],
      "stateMutability": "nonpayable",
      "type": "function"
    },
    {
      "inputs": [
        {
          "internalType": "address",
          "name": "account",
          "type": "address"
        },
        {
          "internalType": "uint256[]",
          "name": "ids",
          "type": "uint256[]"
        },
        {
          "internalType": "uint256[]",
          "name": "values",
          "type": "uint256[]"
        }
      ],
      "name": "burnBatch",
      "outputs": [],
      "stateMutability": "nonpayable",
      "type": "function"
    },
    {
      "inputs": [
        {
          "internalType": "enum BulkDisbursableNFTs.Role[]",
          "name": "grants",
          "type": "uint8[]"
        },
        {
          "internalType": "enum BulkDisbursableNFTs.Role[]",
          "name": "disables",
          "type": "uint8[]"
        }
      ],
      "name": "create",
      "outputs": [
        {
          "internalType": "uint256",
          "name": "id",
          "type": "uint256"
        }
      ],
      "stateMutability": "nonpayable",
      "type": "function"
    },
    {
      "inputs": [
        {
          "internalType": "address",
          "name": "maintainer",
          "type": "address"
        },
        {
          "internalType": "enum BulkDisbursableNFTs.Role[]",
          "name": "grants",
          "type": "uint8[]"
        },
        {
          "internalType": "enum BulkDisbursableNFTs.Role[]",
          "name": "disables",
          "type": "uint8[]"
        }
      ],
      "name": "create",
      "outputs": [
        {
          "internalType": "uint256",
          "name": "id",
          "type": "uint256"
        }
      ],
      "stateMutability": "nonpayable",
      "type": "function"
    },
    {
      "inputs": [],
      "name": "create",
      "outputs": [
        {
          "internalType": "uint256",
          "name": "id",
          "type": "uint256"
        }
      ],
      "stateMutability": "nonpayable",
      "type": "function"
    },
    {
      "inputs": [
        {
          "internalType": "enum BulkDisbursableNFTs.Role",
          "name": "toDisable",
          "type": "uint8"
        },
        {
          "internalType": "uint256",
          "name": "tokenId",
          "type": "uint256"
        }
      ],
      "name": "disableRole",
      "outputs": [],
      "stateMutability": "nonpayable",
      "type": "function"
    },
    {
      "inputs": [
        {
          "internalType": "uint256",
          "name": "id",
          "type": "uint256"
        }
      ],
      "name": "exists",
      "outputs": [
        {
          "internalType": "bool",
          "name": "",
          "type": "bool"
        }
      ],
      "stateMutability": "view",
      "type": "function"
    },
    {
      "inputs": [
        {
          "internalType": "enum BulkDisbursableNFTs.Role",
          "name": "role",
          "type": "uint8"
        },
        {
          "internalType": "address",
          "name": "user",
          "type": "address"
        },
        {
          "internalType": "uint256",
          "name": "index",
          "type": "uint256"
        }
      ],
      "name": "gateToken",
      "outputs": [
        {
          "internalType": "uint256",
          "name": "id",
          "type": "uint256"
        }
      ],
      "stateMutability": "view",
      "type": "function"
    },
    {
      "inputs": [
        {
          "internalType": "uint256",
          "name": "id",
          "type": "uint256"
        }
      ],
      "name": "getMax",
      "outputs": [
        {
          "internalType": "int64",
          "name": "max",
          "type": "int64"
        }
      ],
      "stateMutability": "view",
      "type": "function"
    },
    {
      "inputs": [
        {
          "internalType": "enum BulkDisbursableNFTs.Role",
          "name": "role",
          "type": "uint8"
        },
        {
          "internalType": "address",
          "name": "user",
          "type": "address"
        }
      ],
      "name": "grantRole",
      "outputs": [],
      "stateMutability": "nonpayable",
      "type": "function"
    },
    {
      "inputs": [
        {
          "internalType": "enum BulkDisbursableNFTs.Role",
          "name": "role",
          "type": "uint8"
        },
        {
          "internalType": "address",
          "name": "user",
          "type": "address"
        },
        {
          "internalType": "uint256",
          "name": "id",
          "type": "uint256"
        }
      ],
      "name": "grantRole",
      "outputs": [],
      "stateMutability": "nonpayable",
      "type": "function"
    },
    {
      "inputs": [
        {
          "internalType": "enum BulkDisbursableNFTs.Role",
          "name": "role",
          "type": "uint8"
        }
      ],
      "name": "hasRole",
      "outputs": [
        {
          "internalType": "bool",
          "name": "has",
          "type": "bool"
        }
      ],
      "stateMutability": "view",
      "type": "function"
    },
    {
      "inputs": [
        {
          "internalType": "enum BulkDisbursableNFTs.Role",
          "name": "role",
          "type": "uint8"
        },
        {
          "internalType": "address",
          "name": "user",
          "type": "address"
        },
        {
          "internalType": "uint256",
          "name": "id",
          "type": "uint256"
        }
      ],
      "name": "hasRole",
      "outputs": [
        {
          "internalType": "bool",
          "name": "has",
          "type": "bool"
        }
      ],
      "stateMutability": "view",
      "type": "function"
    },
    {
      "inputs": [
        {
          "internalType": "enum BulkDisbursableNFTs.Role",
          "name": "role",
          "type": "uint8"
        },
        {
          "internalType": "uint256",
          "name": "id",
          "type": "uint256"
        }
      ],
      "name": "hasRole",
      "outputs": [
        {
          "internalType": "bool",
          "name": "has",
          "type": "bool"
        }
      ],
      "stateMutability": "view",
      "type": "function"
    },
    {
      "inputs": [
        {
          "internalType": "enum BulkDisbursableNFTs.Role",
          "name": "role",
          "type": "uint8"
        },
        {
          "internalType": "address",
          "name": "user",
          "type": "address"
        }
      ],
      "name": "hasRole",
      "outputs": [
        {
          "internalType": "bool",
          "name": "has",
          "type": "bool"
        }
      ],
      "stateMutability": "view",
      "type": "function"
    },
    {
      "inputs": [
        {
          "internalType": "string",
          "name": "_name",
          "type": "string"
        },
        {
          "internalType": "string",
          "name": "_symbol",
          "type": "string"
        }
      ],
      "name": "initialize",
      "outputs": [],
      "stateMutability": "nonpayable",
      "type": "function"
    },
    {
      "inputs": [
        {
          "internalType": "address",
          "name": "account",
          "type": "address"
        },
        {
          "internalType": "address",
          "name": "operator",
          "type": "address"
        }
      ],
      "name": "isApprovedForAll",
      "outputs": [
        {
          "internalType": "bool",
          "name": "",
          "type": "bool"
        }
      ],
      "stateMutability": "view",
      "type": "function"
    },
    {
      "inputs": [
        {
          "internalType": "address",
          "name": "user",
          "type": "address"
        }
      ],
      "name": "isSuper",
      "outputs": [
        {
          "internalType": "bool",
          "name": "superuser",
          "type": "bool"
        }
      ],
      "stateMutability": "view",
      "type": "function"
    },
    {
      "inputs": [],
      "name": "isSuper",
      "outputs": [
        {
          "internalType": "bool",
          "name": "superuser",
          "type": "bool"
        }
      ],
      "stateMutability": "view",
      "type": "function"
    },
    {
      "inputs": [
        {
          "internalType": "uint256",
          "name": "",
          "type": "uint256"
        }
      ],
      "name": "maxes",
      "outputs": [
        {
          "internalType": "int64",
          "name": "",
          "type": "int64"
        }
      ],
      "stateMutability": "view",
      "type": "function"
    },
    {
      "inputs": [
        {
          "internalType": "address[]",
          "name": "to",
          "type": "address[]"
        },
        {
          "internalType": "uint256",
          "name": "id",
          "type": "uint256"
        },
        {
          "internalType": "bytes",
          "name": "data",
          "type": "bytes"
        }
      ],
      "name": "mint",
      "outputs": [],
      "stateMutability": "nonpayable",
      "type": "function"
    },
    {
      "inputs": [
        {
          "internalType": "address",
          "name": "recipient",
          "type": "address"
        },
        {
          "internalType": "uint256",
          "name": "id",
          "type": "uint256"
        },
        {
          "internalType": "uint256",
          "name": "amount",
          "type": "uint256"
        },
        {
          "internalType": "bytes",
          "name": "data",
          "type": "bytes"
        }
      ],
      "name": "mint",
      "outputs": [
        {
          "internalType": "bool",
          "name": "minted",
          "type": "bool"
        }
      ],
      "stateMutability": "nonpayable",
      "type": "function"
    },
    {
      "inputs": [],
      "name": "name",
      "outputs": [
        {
          "internalType": "string",
          "name": "",
          "type": "string"
        }
      ],
      "stateMutability": "view",
      "type": "function"
    },
    {
      "inputs": [],
      "name": "owner",
      "outputs": [
        {
          "internalType": "address",
          "name": "",
          "type": "address"
        }
      ],
      "stateMutability": "view",
      "type": "function"
    },
    {
      "inputs": [],
      "name": "proxiableUUID",
      "outputs": [
        {
          "internalType": "bytes32",
          "name": "",
          "type": "bytes32"
        }
      ],
      "stateMutability": "view",
      "type": "function"
    },
    {
      "inputs": [],
      "name": "renounceOwnership",
      "outputs": [],
      "stateMutability": "nonpayable",
      "type": "function"
    },
    {
      "inputs": [
        {
          "internalType": "string",
          "name": "roleName",
          "type": "string"
        }
      ],
      "name": "roleIndexForName",
      "outputs": [
        {
          "internalType": "enum BulkDisbursableNFTs.Role",
          "name": "role",
          "type": "uint8"
        }
      ],
      "stateMutability": "pure",
      "type": "function"
    },
    {
      "inputs": [
        {
          "internalType": "enum BulkDisbursableNFTs.Role",
          "name": "index",
          "type": "uint8"
        }
      ],
      "name": "roleNameByIndex",
      "outputs": [
        {
          "internalType": "string",
          "name": "name",
          "type": "string"
        }
      ],
      "stateMutability": "pure",
      "type": "function"
    },
    {
      "inputs": [
        {
          "internalType": "enum BulkDisbursableNFTs.Role",
          "name": "role",
          "type": "uint8"
        }
      ],
      "name": "roleToken",
      "outputs": [
        {
          "internalType": "uint256",
          "name": "id",
          "type": "uint256"
        }
      ],
      "stateMutability": "view",
      "type": "function"
    },
    {
      "inputs": [
        {
          "internalType": "enum BulkDisbursableNFTs.Role",
          "name": "role",
          "type": "uint8"
        },
        {
          "internalType": "uint256",
          "name": "index",
          "type": "uint256"
        }
      ],
      "name": "roleToken",
      "outputs": [
        {
          "internalType": "uint256",
          "name": "id",
          "type": "uint256"
        }
      ],
      "stateMutability": "view",
      "type": "function"
    },
    {
      "inputs": [
        {
          "internalType": "string",
          "name": "roleName",
          "type": "string"
        }
      ],
      "name": "roleValueForName",
      "outputs": [
        {
          "internalType": "enum BulkDisbursableNFTs.Role",
          "name": "role",
          "type": "uint8"
        }
      ],
      "stateMutability": "pure",
      "type": "function"
    },
    {
      "inputs": [
        {
          "internalType": "address",
          "name": "from",
          "type": "address"
        },
        {
          "internalType": "address",
          "name": "to",
          "type": "address"
        },
        {
          "internalType": "uint256[]",
          "name": "ids",
          "type": "uint256[]"
        },
        {
          "internalType": "uint256[]",
          "name": "amounts",
          "type": "uint256[]"
        },
        {
          "internalType": "bytes",
          "name": "data",
          "type": "bytes"
        }
      ],
      "name": "safeBatchTransferFrom",
      "outputs": [],
      "stateMutability": "nonpayable",
      "type": "function"
    },
    {
      "inputs": [
        {
          "internalType": "address",
          "name": "from",
          "type": "address"
        },
        {
          "internalType": "address",
          "name": "to",
          "type": "address"
        },
        {
          "internalType": "uint256",
          "name": "id",
          "type": "uint256"
        },
        {
          "internalType": "uint256",
          "name": "amount",
          "type": "uint256"
        },
        {
          "internalType": "bytes",
          "name": "data",
          "type": "bytes"
        }
      ],
      "name": "safeTransferFrom",
      "outputs": [],
      "stateMutability": "nonpayable",
      "type": "function"
    },
    {
      "inputs": [
        {
          "internalType": "address",
          "name": "operator",
          "type": "address"
        },
        {
          "internalType": "bool",
          "name": "approved",
          "type": "bool"
        }
      ],
      "name": "setApprovalForAll",
      "outputs": [],
      "stateMutability": "nonpayable",
      "type": "function"
    },
    {
      "inputs": [
        {
          "internalType": "string",
          "name": "_name",
          "type": "string"
        },
        {
          "internalType": "string",
          "name": "_symbol",
          "type": "string"
        }
      ],
      "name": "setDescription",
      "outputs": [],
      "stateMutability": "nonpayable",
      "type": "function"
    },
    {
      "inputs": [
        {
          "internalType": "uint256",
          "name": "id",
          "type": "uint256"
        },
        {
          "internalType": "int64",
          "name": "max",
          "type": "int64"
        }
      ],
      "name": "setMax",
      "outputs": [],
      "stateMutability": "nonpayable",
      "type": "function"
    },
    {
      "inputs": [
        {
          "internalType": "uint256",
          "name": "id",
          "type": "uint256"
        },
        {
          "internalType": "string",
          "name": "newURI",
          "type": "string"
        }
      ],
      "name": "setURI",
      "outputs": [],
      "stateMutability": "nonpayable",
      "type": "function"
    },
    {
      "inputs": [
        {
          "internalType": "bytes4",
          "name": "interfaceId",
          "type": "bytes4"
        }
      ],
      "name": "supportsInterface",
      "outputs": [
        {
          "internalType": "bool",
          "name": "",
          "type": "bool"
        }
      ],
      "stateMutability": "view",
      "type": "function"
    },
    {
      "inputs": [],
      "name": "symbol",
      "outputs": [
        {
          "internalType": "string",
          "name": "",
          "type": "string"
        }
      ],
      "stateMutability": "view",
      "type": "function"
    },
    {
      "inputs": [
        {
          "internalType": "uint256",
          "name": "index",
          "type": "uint256"
        }
      ],
      "name": "tokenByIndex",
      "outputs": [
        {
          "internalType": "uint256",
          "name": "id",
          "type": "uint256"
        }
      ],
      "stateMutability": "view",
      "type": "function"
    },
    {
      "inputs": [
        {
          "internalType": "uint256",
          "name": "id",
          "type": "uint256"
        }
      ],
      "name": "tokenIndex",
      "outputs": [
        {
          "internalType": "uint256",
          "name": "index",
          "type": "uint256"
        }
      ],
      "stateMutability": "view",
      "type": "function"
    },
    {
      "inputs": [
        {
          "internalType": "address",
          "name": "owner",
          "type": "address"
        },
        {
          "internalType": "uint256",
          "name": "index",
          "type": "uint256"
        }
      ],
      "name": "tokenOfOwnerByIndex",
      "outputs": [
        {
          "internalType": "uint256",
          "name": "id",
          "type": "uint256"
        }
      ],
      "stateMutability": "view",
      "type": "function"
    },
    {
      "inputs": [
        {
          "internalType": "uint256",
          "name": "id",
          "type": "uint256"
        }
      ],
      "name": "totalSupply",
      "outputs": [
        {
          "internalType": "uint256",
          "name": "",
          "type": "uint256"
        }
      ],
      "stateMutability": "view",
      "type": "function"
    },
    {
      "inputs": [
        {
          "internalType": "address",
          "name": "newOwner",
          "type": "address"
        }
      ],
      "name": "transferOwnership",
      "outputs": [],
      "stateMutability": "nonpayable",
      "type": "function"
    },
    {
      "inputs": [],
      "name": "typeSupply",
      "outputs": [
        {
          "internalType": "uint256",
          "name": "count",
          "type": "uint256"
        }
      ],
      "stateMutability": "view",
      "type": "function"
    },
    {
      "inputs": [
        {
          "internalType": "address",
          "name": "newImplementation",
          "type": "address"
        }
      ],
      "name": "upgradeTo",
      "outputs": [],
      "stateMutability": "nonpayable",
      "type": "function"
    },
    {
      "inputs": [
        {
          "internalType": "address",
          "name": "newImplementation",
          "type": "address"
        },
        {
          "internalType": "bytes",
          "name": "data",
          "type": "bytes"
        }
      ],
      "name": "upgradeToAndCall",
      "outputs": [],
      "stateMutability": "payable",
      "type": "function"
    },
    {
      "inputs": [
        {
          "internalType": "uint256",
          "name": "id",
          "type": "uint256"
        }
      ],
      "name": "uri",
      "outputs": [
        {
          "internalType": "string",
          "name": "metadata",
          "type": "string"
        }
      ],
      "stateMutability": "view",
      "type": "function"
    }
  ],
  "bytecode": "0x60a06040523060601b6080523480156200001857600080fd5b50600054610100900460ff16620000365760005460ff161562000040565b62000040620000e5565b620000a85760405162461bcd60e51b815260206004820152602e60248201527f496e697469616c697a61626c653a20636f6e747261637420697320616c72656160448201526d191e481a5b9a5d1a585b1a5e995960921b606482015260840160405180910390fd5b600054610100900460ff16158015620000cb576000805461ffff19166101011790555b8015620000de576000805461ff00191690555b5062000112565b6000620000fd306200010360201b62002a821760201c565b15905090565b6001600160a01b03163b151590565b60805160601c615d416200014d6000396000818161139f015281816113df015281816118d0015281816119100152611a5b0152615d416000f3fe6080604052600436106102385760003560e01c8062fdd58e1461023d57806301ffc9a7146102705780630583e9f8146102a057806306fdde03146102c05780630e89341c146102e25780630ec0370f1461030257806311ef04c41461032457806314c464271461034457806316730ab01461036457806319e0755c146103845780632eb2c2d6146103a45780632f745c59146103c45780633659cfe6146103e45780633dbe35de146104045780634468031f1461042457806348289589146104445780634a80070f146104645780634cd88b76146104845780634e1273f4146104a45780634f1ef286146104d15780634f558e79146104e45780634f6ccce71461050457806352d1902d146105245780635d5664e1146105395780636755d456146105595780636b20c454146105795780636fc0020b14610599578063715018a6146105b9578063731133e9146105ce578063778f5a7b146105ee578063814c24501461061b578063862440e21461063b5780638da5cb5b1461065b57806395d89b41146106885780639d969a9c1461069d5780639e97b8f6146106b2578063a22cb465146106d2578063aa8e9066146106f2578063b0bdf26114610712578063bd85b03914610732578063c3c8df9914610752578063dabc698714610772578063e688f89d146107b6578063e985e9c5146107e7578063edc79bac14610830578063efc81a8c14610845578063f242432a1461085a578063f2fde38b1461087a578063f5298aca1461089a578063fde4047a146108ba575b600080fd5b34801561024957600080fd5b5061025d610258366004614f66565b6108da565b6040519081526020015b60405180910390f35b34801561027c57600080fd5b5061029061028b366004615142565b610976565b6040519015158152602001610267565b3480156102ac57600080fd5b5061025d6102bb3660046152b2565b6109c6565b3480156102cc57600080fd5b506102d5610a34565b6040516102679190615567565b3480156102ee57600080fd5b506102d56102fd3660046152b2565b610ac3565b34801561030e57600080fd5b5061032261031d366004615075565b610d36565b005b34801561033057600080fd5b5061032261033f3660046152ca565b610d8d565b34801561035057600080fd5b5061025d61035f36600461517a565b610e41565b34801561037057600080fd5b5061025d61037f3660046151af565b610e4e565b34801561039057600080fd5b5061029061039f36600461517a565b61126d565b3480156103b057600080fd5b506103226103bf366004614d04565b611279565b3480156103d057600080fd5b5061025d6103df366004614f66565b611310565b3480156103f057600080fd5b506103226103ff366004614cb8565b611394565b34801561041057600080fd5b5061025d61041f3660046151ea565b61145d565b34801561043057600080fd5b5061029061043f3660046151af565b6115d8565b34801561045057600080fd5b5061029061045f3660046151ea565b6115ff565b34801561047057600080fd5b5061025d61047f3660046150d4565b61160c565b34801561049057600080fd5b5061032261049f366004615205565b611619565b3480156104b057600080fd5b506104c46104bf36600461501f565b611764565b60405161026791906154d8565b6103226104df366004614f1b565b6118c5565b3480156104f057600080fd5b506102906104ff3660046152b2565b61197f565b34801561051057600080fd5b5061025d61051f3660046152b2565b611992565b34801561053057600080fd5b5061025d611a4e565b34801561054557600080fd5b50610322610554366004615194565b611afd565b34801561056557600080fd5b50610322610574366004615205565b611b09565b34801561058557600080fd5b50610322610594366004614e7b565b611b53565b3480156105a557600080fd5b506102d56105b43660046152b2565b611b9b565b3480156105c557600080fd5b50610322611bbb565b3480156105da57600080fd5b506102906105e9366004614fc1565b611bf6565b3480156105fa57600080fd5b5061060e61060936600461526d565b611dfe565b6040516102679190615510565b34801561062757600080fd5b506102d561063636600461517a565b612146565b34801561064757600080fd5b506103226106563660046152f3565b612515565b34801561066757600080fd5b506106706125f1565b6040516001600160a01b039091168152602001610267565b34801561069457600080fd5b506102d5612600565b3480156106a957600080fd5b5061025d61260e565b3480156106be57600080fd5b506102906106cd366004615194565b612626565b3480156106de57600080fd5b506103226106ed366004614ee1565b612634565b3480156106fe57600080fd5b5061032261070d3660046151af565b61263f565b34801561071e57600080fd5b5061025d61072d366004614e0b565b612662565b34801561073e57600080fd5b5061025d61074d3660046152b2565b612829565b34801561075e57600080fd5b5061029061076d366004614cb8565b61283b565b34801561077e57600080fd5b506107a361078d3660046152b2565b6101a26020526000908152604090205460070b81565b60405160079190910b8152602001610267565b3480156107c257600080fd5b506107a36107d13660046152b2565b60009081526101a2602052604090205460070b90565b3480156107f357600080fd5b50610290610802366004614cd2565b6001600160a01b03918216600090815260666020908152604080832093909416825291909152205460ff1690565b34801561083c57600080fd5b50610290612870565b34801561085157600080fd5b5061025d61287b565b34801561086657600080fd5b50610322610875366004614da9565b61289c565b34801561088657600080fd5b50610322610895366004614cb8565b6128e1565b3480156108a657600080fd5b506103226108b5366004614f8f565b61297e565b3480156108c657600080fd5b506103226108d53660046151ea565b612a08565b60006001600160a01b03831661094b5760405162461bcd60e51b815260206004820152602b60248201527f455243313135353a2062616c616e636520717565727920666f7220746865207a60448201526a65726f206164647265737360a81b60648201526084015b60405180910390fd5b5060008181526065602090815260408083206001600160a01b03861684529091529020545b92915050565b60006001600160e01b03198216636cdb3d1360e11b14806109a757506001600160e01b031982166303a24d0760e21b145b8061097057506301ffc9a760e01b6001600160e01b0319831614610970565b6000818152610195602052604090205480610a2f5760405162461bcd60e51b815260206004820152602360248201527f5468652072657175657374656420746f6b656e20646f6573206e6f742065786960448201526239ba1760e91b6064820152608401610942565b919050565b6101918054610a4290615a96565b80601f0160208091040260200160405190810160405280929190818152602001828054610a6e90615a96565b8015610abb5780601f10610a9057610100808354040283529160200191610abb565b820191906000526020600020905b815481529060010190602001808311610a9e57829003601f168201915b505050505081565b600081815261019360205260409020805460609190610ae190615a96565b80601f0160208091040260200160405190810160405280929190818152602001828054610b0d90615a96565b8015610b5a5780601f10610b2f57610100808354040283529160200191610b5a565b820191906000526020600020905b815481529060010190602001808311610b3d57829003601f168201915b50505050509050805160001415610a2f576008610b7a600d610100615a0d565b610b849190615a47565b600160ff919091161b6008610b9c600d610100615a0d565b610ba69190615a47565b60ff166001610bb760086002615962565b610bc19190615a30565b901b83161415610a2f576000600160088160038083610be3600d610100615a0d565b610bed9190615a47565b610bf79190615a47565b610c019190615a47565b610c0b9190615a47565b610c159190615a47565b610c1f9190615a47565b60ff166001610c2f816002615962565b610c399190615a30565b901b6003806008610c4d600d610100615a0d565b610c579190615a47565b610c619190615a47565b610c6b9190615a47565b60ff166001901b1719600160206002610c849190615962565b610c8e9190615a30565b19841616600081815261019360205260409020805491925090610cb090615a96565b80601f0160208091040260200160405190810160405280929190818152602001828054610cdc90615a96565b8015610d295780601f10610cfe57610100808354040283529160200191610d29565b820191906000526020600020905b815481529060010190602001808311610d0c57829003601f168201915b5050505050915050919050565b60005b8351811015610d8757610d76848281518110610d6557634e487b7160e01b600052603260045260246000fd5b602002602001015184600185611bf6565b50610d8081615afd565b9050610d39565b50505050565b610d986008836115ff565b80610da65750610da6612870565b610e0c5760405162461bcd60e51b815260206004820152603160248201527f596f75206d75737420686176652061204c696d6974657220746f6b656e20746f6044820152701031b430b733b29038bab0b73a34ba3c9760791b6064820152608401610942565b60009182526101a26020526040909120805460079290920b6001600160401b03166001600160401b0319909216919091179055565b600061097082600061145d565b600080610e5a85610e41565b9050600061019581856008610e72600d610100615a0d565b610e7c9190615a47565b60ff16600a901b851717815260200190815260200160002054905080600014610ed657610194805482908110610ec257634e487b7160e01b600052603260045260246000fd5b906000526020600020015492505050611266565b6000604051806101000160405280866001600860016003806008600d60ff16610100610f029190615a0d565b610f0c9190615a47565b610f169190615a47565b610f209190615a47565b610f2a9190615a47565b610f349190615a47565b610f3e9190615a47565b60ff166001610f4e816002615962565b610f589190615a30565b901b6003806008610f6c600d610100615a0d565b610f769190615a47565b610f809190615a47565b610f8a9190615a47565b600160ff919091161b871717178152602001866003806008610faf600d610100615a0d565b610fb99190615a47565b610fc39190615a47565b610fcd9190615a47565b60ff166001901b86171781526020016001600860016003806008600d60ff16610100610ff99190615a0d565b6110039190615a47565b61100d9190615a47565b6110179190615a47565b6110219190615a47565b61102b9190615a47565b6110359190615a47565b60ff166001611045816002615962565b61104f9190615a30565b901b6003806008611063600d610100615a0d565b61106d9190615a47565b6110779190615a47565b6110819190615a47565b600160ff919091161b861717815260200160038060086110a4600d610100615a0d565b6110ae9190615a47565b6110b89190615a47565b6110c29190615a47565b60ff166001901b85178152602001866001600860016003806008600d60ff166101006110ee9190615a0d565b6110f89190615a47565b6111029190615a47565b61110c9190615a47565b6111169190615a47565b6111209190615a47565b61112a9190615a47565b60ff16600161113a816002615962565b6111449190615a30565b901b8617178152602001600160088160038083611164600d610100615a0d565b61116e9190615a47565b6111789190615a47565b6111829190615a47565b61118c9190615a47565b6111969190615a47565b6111a09190615a47565b60ff1660016111b0816002615962565b6111ba9190615a30565b901b851781528685176020820152604001849052905060005b60088160ff16101561125d57600061121288848460ff166008811061120857634e487b7160e01b600052603260045260246000fd5b60200201516108da565b111561124b57818160ff166008811061123b57634e487b7160e01b600052603260045260246000fd5b6020020151945050505050611266565b8061125581615b18565b9150506111d3565b50600093505050505b9392505050565b60006109708233612626565b6001600160a01b03851633148061129557506112958533610802565b6112fc5760405162461bcd60e51b815260206004820152603260248201527f455243313135353a207472616e736665722063616c6c6572206973206e6f74206044820152711bdddb995c881b9bdc88185c1c1c9bdd995960721b6064820152608401610942565b6113098585858585612a91565b5050505050565b6001600160a01b0382166000908152610196602052604081205482106113485760405162461bcd60e51b8152600401610942906157ef565b6001600160a01b03831660009081526101966020526040902080548390811061138157634e487b7160e01b600052603260045260246000fd5b9060005260206000200154905092915050565b306001600160a01b037f00000000000000000000000000000000000000000000000000000000000000001614156113dd5760405162461bcd60e51b81526004016109429061562b565b7f00000000000000000000000000000000000000000000000000000000000000006001600160a01b031661140f612c48565b6001600160a01b0316146114355760405162461bcd60e51b8152600401610942906156ae565b61143e81612c64565b6040805160008082526020820190925261145a91839190612cea565b50565b600061146b60206002615962565b82106114b95760405162461bcd60e51b815260206004820152601f60248201527f496e64696365732063616e206265206174206d6f737420333220426974732e006044820152606401610942565b81600184600c8111156114dc57634e487b7160e01b600052602160045260246000fd5b146114e8576000611541565b600160038060086114fc600d610100615a0d565b6115069190615a47565b6115109190615a47565b61151a9190615a47565b6115249190615a47565b60ff166001611534816002615962565b61153e9190615a30565b901b5b6008600160038083611556600d610100615a0d565b6115609190615a47565b61156a9190615a47565b6115749190615a47565b61157e9190615a47565b6115889190615a47565b60ff1685600c8111156115ab57634e487b7160e01b600052602160045260246000fd5b901b60086115bc600d610100615a0d565b6115c69190615a47565b60ff166001901b171717905092915050565b600081815261019560205260408120546115f59085908590610e4e565b1515949350505050565b60006112668333846115d8565b6000611266338484612662565b600054610100900460ff166116345760005460ff161561163c565b61163c612e64565b61169f5760405162461bcd60e51b815260206004820152602e60248201527f496e697469616c697a61626c653a20636f6e747261637420697320616c72656160448201526d191e481a5b9a5d1a585b1a5e995960921b6064820152608401610942565b600054610100900460ff161580156116c1576000805461ffff19166101011790555b6116c9612e75565b6117076040518060400160405280602081526020017f4572726f723a2053696e676c6520546f6b656e20555249204e6f742055736564815250612ea4565b61170f612ed4565b611717612ed4565b61171f612ed4565b61019480546001810182556000918252600080516020615c85833981519152015561174c85858585611b09565b8015611309576000805461ff00191690555050505050565b606081518351146117c95760405162461bcd60e51b815260206004820152602960248201527f455243313135353a206163636f756e747320616e6420696473206c656e677468604482015268040dad2e6dac2e8c6d60bb1b6064820152608401610942565b600083516001600160401b038111156117f257634e487b7160e01b600052604160045260246000fd5b60405190808252806020026020018201604052801561181b578160200160208202803683370190505b50905060005b84518110156118bd5761188285828151811061184d57634e487b7160e01b600052603260045260246000fd5b602002602001015185838151811061187557634e487b7160e01b600052603260045260246000fd5b60200260200101516108da565b8282815181106118a257634e487b7160e01b600052603260045260246000fd5b60209081029190910101526118b681615afd565b9050611821565b509392505050565b306001600160a01b037f000000000000000000000000000000000000000000000000000000000000000016141561190e5760405162461bcd60e51b81526004016109429061562b565b7f00000000000000000000000000000000000000000000000000000000000000006001600160a01b0316611940612c48565b6001600160a01b0316146119665760405162461bcd60e51b8152600401610942906156ae565b61196f82612c64565b61197b82826001612cea565b5050565b60008061198b83612829565b1192915050565b60008082116119f65760405162461bcd60e51b815260206004820152602a60248201527f4552432d3131353520456e756d657261626c653a20746f6b656e7320696e64656044820152697865642066726f6d203160b01b6064820152608401610942565b61019454821115611a195760405162461bcd60e51b8152600401610942906157ef565b610194805483908110611a3c57634e487b7160e01b600052603260045260246000fd5b90600052602060002001549050919050565b6000306001600160a01b037f00000000000000000000000000000000000000000000000000000000000000001614611ae95760405162461bcd60e51b815260206004820152603860248201527f555550535570677261646561626c653a206d757374206e6f742062652063616c6044820152771b1959081d1a1c9bdd59da0819195b1959d85d1958d85b1b60421b6064820152608401610942565b50600080516020615cc58339815191525b90565b61197b8282600061263f565b33611b126125f1565b6001600160a01b031614611b385760405162461bcd60e51b8152600401610942906157ba565b611b456101918585614973565b506113096101928383614973565b6001600160a01b038316331480611b6f5750611b6f8333610802565b611b8b5760405162461bcd60e51b815260040161094290615665565b611b96838383612efb565b505050565b61019781600b8110611bac57600080fd5b018054909150610a4290615a96565b33611bc46125f1565b6001600160a01b031614611bea5760405162461bcd60e51b8152600401610942906157ba565b611bf46000613096565b565b6000600160088160038083611c0e600d610100615a0d565b611c189190615a47565b611c229190615a47565b611c2c9190615a47565b611c369190615a47565b611c409190615a47565b611c4a9190615a47565b60ff166001611c5a816002615962565b611c649190615a30565b901b600160088160038083611c7c600d610100615a0d565b611c869190615a47565b611c909190615a47565b611c9a9190615a47565b611ca49190615a47565b611cae9190615a47565b611cb89190615a47565b60ff166001611cc8816002615962565b611cd29190615a30565b901b85161415611d365760405162461bcd60e51b815260206004820152602960248201527f43616e6e6f74206d696e7420696e7465726e616c20746f6b656e732066726f6d6044820152681037baba39b4b2329760b91b6064820152608401610942565b60016003806008611d4a600d610100615a0d565b611d549190615a47565b611d5e9190615a47565b611d689190615a47565b611d729190615a47565b60ff166001901b60016003806008600d60ff16610100611d929190615a0d565b611d9c9190615a47565b611da69190615a47565b611db09190615a47565b611dba9190615a47565b60ff166001901b8516148015611dd957506000611dd786866108da565b115b15611de657506000611df6565b611df2858585856130e8565b5060015b949350505050565b60008082604051602001611e1291906153a2565b604051602081830303815290604052805190602001209050604051602001611e49906829bab832b93ab9b2b960b91b815260090190565b60405160208183030381529060405280519060200120811415611e6f5750600192915050565b6040516526b4b73a32b960d11b602082015260260160405160208183030381529060405280519060200120811415611eaa5750600292915050565b6040516521b0b9ba32b960d11b602082015260260160405160208183030381529060405280519060200120811415611ee55750600392915050565b604051692a3930b739b332b932b960b11b6020820152602a0160405160208183030381529060405280519060200120811415611f245750600492915050565b6040516921b7b73334b3bab932b960b11b6020820152602a0160405160208183030381529060405280519060200120811415611f635750600592915050565b6040516926b0b4b73a30b4b732b960b11b6020820152602a0160405160208183030381529060405280519060200120811415611fa25750600692915050565b6040516621b932b0ba37b960c91b602082015260270160405160208183030381529060405280519060200120811415611fde5750600792915050565b604051662634b6b4ba32b960c91b60208201526027016040516020818303038152906040528051906020012081141561201a5750600892915050565b60405165213ab93732b960d11b6020820152602601604051602081830303815290604052805190602001208114156120555750600992915050565b604051682232b9ba3937bcb2b960b91b6020820152602901604051602081830303815290604052805190602001208114156120935750600a92915050565b604051654f7261636c6560d01b6020820152602601604051602081830303815290604052805190602001208114156120ce5750600b92915050565b6040516b14995cd95c9d995913185cdd60a21b6020820152602c016040516020818303038152906040528051906020012081141561210f5750600c92915050565b8260405160200161212091906153be565b60408051601f198184030181529082905262461bcd60e51b825261094291600401615567565b6060600182600c81111561216a57634e487b7160e01b600052602160045260246000fd5b141561219557505060408051808201909152600981526829bab832b93ab9b2b960b91b602082015290565b600282600c8111156121b757634e487b7160e01b600052602160045260246000fd5b14156121df57505060408051808201909152600681526526b4b73a32b960d11b602082015290565b600382600c81111561220157634e487b7160e01b600052602160045260246000fd5b141561222957505060408051808201909152600681526521b0b9ba32b960d11b602082015290565b600482600c81111561224b57634e487b7160e01b600052602160045260246000fd5b141561227757505060408051808201909152600a8152692a3930b739b332b932b960b11b602082015290565b600582600c81111561229957634e487b7160e01b600052602160045260246000fd5b14156122c557505060408051808201909152600a81526921b7b73334b3bab932b960b11b602082015290565b600682600c8111156122e757634e487b7160e01b600052602160045260246000fd5b141561231357505060408051808201909152600a81526926b0b4b73a30b4b732b960b11b602082015290565b600782600c81111561233557634e487b7160e01b600052602160045260246000fd5b141561235e57505060408051808201909152600781526621b932b0ba37b960c91b602082015290565b600882600c81111561238057634e487b7160e01b600052602160045260246000fd5b14156123a95750506040805180820190915260078152662634b6b4ba32b960c91b602082015290565b600982600c8111156123cb57634e487b7160e01b600052602160045260246000fd5b14156123f3575050604080518082019091526006815265213ab93732b960d11b602082015290565b600a82600c81111561241557634e487b7160e01b600052602160045260246000fd5b14156124405750506040805180820190915260098152682232b9ba3937bcb2b960b91b602082015290565b600b82600c81111561246257634e487b7160e01b600052602160045260246000fd5b141561248a5750506040805180820190915260068152654f7261636c6560d01b602082015290565b600c82600c8111156124ac57634e487b7160e01b600052602160045260246000fd5b14156124da57505060408051808201909152600c81526b14995cd95c9d995913185cdd60a21b602082015290565b61250582600c8111156124fd57634e487b7160e01b600052602160045260246000fd5b60ff166131e8565b60405160200161212091906153f9565b6125206005846115ff565b8061252e575061252e612870565b6125975760405162461bcd60e51b815260206004820152603460248201527f596f75206d7573742068617665206120436f6e6669677572657220746f6b656e604482015273103a379031b430b733b29036b2ba30b230ba309760611b6064820152608401610942565b6000838152610193602052604090206125b1908383614973565b50827f6bb7ff708619ba0610cba295a58592e0451dee2622938c8755667688daf3529b83836040516125e4929190615538565b60405180910390a2505050565b6097546001600160a01b031690565b6101928054610a4290615a96565b6101945460009061262190600190615a30565b905090565b6000611266838360006115d8565b61197b338383613301565b611b968383831561265857612653846109c6565b61265b565b60005b60006133e2565b61019454600090806008612679600d610100615a0d565b6126839190615a47565b60ff166009901b1791506126986007836115ff565b806126a657506126a6612870565b61270e5760405162461bcd60e51b815260206004820152603360248201527f596f75206d757374206861766520612043726561746f7220746f6b656e20746f6044820152721031b932b0ba32903732bb903a37b5b2b7399760691b6064820152608401610942565b610194805460018101909155600080516020615c85833981519152018290556000828152610195602052604081208290555b845181101561278f5761277d85828151811061276c57634e487b7160e01b600052603260045260246000fd5b6020026020010151878460016133e2565b8061278781615afd565b915050612740565b5060005b83518110156127df576127cd8482815181106127bf57634e487b7160e01b600052603260045260246000fd5b602002602001015183612a08565b806127d781615afd565b915050612793565b50604080518381526001600160a01b03871660208201527f7757890bcab34d673dfca6b71df1b57f75a2fe4231d6e8de726caf534ab1fdd6910160405180910390a1509392505050565b600090815260fb602052604090205490565b6000612848600183612626565b8061097057506128566125f1565b6001600160a01b0316826001600160a01b03161492915050565b60006126213361283b565b60408051600080825260208201909252612896338283612662565b91505090565b6001600160a01b0385163314806128b857506128b88533610802565b6128d45760405162461bcd60e51b815260040161094290615665565b611309858585858561359d565b336128ea6125f1565b6001600160a01b0316146129105760405162461bcd60e51b8152600401610942906157ba565b6001600160a01b0381166129755760405162461bcd60e51b815260206004820152602660248201527f4f776e61626c653a206e6577206f776e657220697320746865207a65726f206160448201526564647265737360d01b6064820152608401610942565b61145a81613096565b61298a600984846115d8565b8061299957506129998361283b565b6129fd5760405162461bcd60e51b815260206004820152602f60248201527f596f75206d75737420686176652061204275726e657220746f6b656e20746f2060448201526e3232b9ba3937bc903a37b5b2b7399760891b6064820152608401610942565b611b968383836136ac565b60008181526101956020526040812054612a2390849061145d565b90506008612a34600d610100615a0d565b612a3e9190615a47565b610194805460018101909155600a60ff929092169190911b91909117600080516020615c858339815191528201819055600090815261019560205260409020555050565b6001600160a01b03163b151590565b8151835114612ab25760405162461bcd60e51b815260040161094290615888565b6001600160a01b038416612ad85760405162461bcd60e51b8152600401610942906156e8565b33612ae781878787878761379f565b60005b8451811015612bec576000858281518110612b1557634e487b7160e01b600052603260045260246000fd5b602002602001015190506000858381518110612b4157634e487b7160e01b600052603260045260246000fd5b60209081029190910181015160008481526065835260408082206001600160a01b038e168352909352919091205490915081811015612b925760405162461bcd60e51b815260040161094290615770565b60008381526065602090815260408083206001600160a01b038e8116855292528083208585039055908b16825281208054849290612bd19084906158f3565b9250508190555050505080612be590615afd565b9050612aea565b50846001600160a01b0316866001600160a01b0316826001600160a01b0316600080516020615c458339815191528787604051612c2a9291906154eb565b60405180910390a4612c40818787878787614249565b505050505050565b600080516020615cc5833981519152546001600160a01b031690565b612c6e600661126d565b80612c7c5750612c7c612870565b61145a5760405162461bcd60e51b815260206004820152603960248201527f596f75206d75737420686176652061204d61696e7461696e657220746f6b656e604482015278103a37903ab833b930b232903a34329031b7b73a3930b1ba1760391b6064820152608401610942565b7f4910fdfa16fed3260ed0e7147f7cc6da11a60208b5b9406d12a635614ffd91435460ff1615612d1d57611b96836143bb565b826001600160a01b03166352d1902d6040518163ffffffff1660e01b815260040160206040518083038186803b158015612d5657600080fd5b505afa925050508015612d86575060408051601f3d908101601f19168201909252612d839181019061512a565b60015b612de95760405162461bcd60e51b815260206004820152602e60248201527f45524331393637557067726164653a206e657720696d706c656d656e7461746960448201526d6f6e206973206e6f74205555505360901b6064820152608401610942565b600080516020615cc58339815191528114612e585760405162461bcd60e51b815260206004820152602960248201527f45524331393637557067726164653a20756e737570706f727465642070726f786044820152681a58589b195555525160ba1b6064820152608401610942565b50611b96838383614455565b6000612e6f30612a82565b15905090565b600054610100900460ff16612e9c5760405162461bcd60e51b81526004016109429061583d565b611bf461447a565b600054610100900460ff16612ecb5760405162461bcd60e51b81526004016109429061583d565b61145a816144aa565b600054610100900460ff16611bf45760405162461bcd60e51b81526004016109429061583d565b6001600160a01b038316612f215760405162461bcd60e51b81526004016109429061572d565b8051825114612f425760405162461bcd60e51b815260040161094290615888565b6000339050612f658185600086866040518060200160405280600081525061379f565b60005b8351811015613049576000848281518110612f9357634e487b7160e01b600052603260045260246000fd5b602002602001015190506000848381518110612fbf57634e487b7160e01b600052603260045260246000fd5b60209081029190910181015160008481526065835260408082206001600160a01b038c1683529093529190912054909150818110156130105760405162461bcd60e51b8152600401610942906155e7565b60009283526065602090815260408085206001600160a01b038b168652909152909220910390558061304181615afd565b915050612f68565b5060006001600160a01b0316846001600160a01b0316826001600160a01b0316600080516020615c4583398151915286866040516130889291906154eb565b60405180910390a450505050565b609780546001600160a01b038381166001600160a01b0319831681179093556040519116919082907f8be0079c531659141344cd1fd0a4f28419497f9722a3daafe3b4186f6b6457e090600090a35050565b6001600160a01b0384166131485760405162461bcd60e51b815260206004820152602160248201527f455243313135353a206d696e7420746f20746865207a65726f206164647265736044820152607360f81b6064820152608401610942565b3361316881600087613159886144da565b613162886144da565b8761379f565b60008481526065602090815260408083206001600160a01b03891684529091528120805485929061319a9084906158f3565b909155505060408051858152602081018590526001600160a01b038088169260009291851691600080516020615c65833981519152910160405180910390a461130981600087878787614533565b60608161320c5750506040805180820190915260018152600360fc1b602082015290565b8160005b8115613236578061322081615afd565b915061322f9050600a8361590b565b9150613210565b6000816001600160401b0381111561325e57634e487b7160e01b600052604160045260246000fd5b6040519080825280601f01601f191660200182016040528015613288576020820181803683370190505b5090505b8415611df65761329d600183615a30565b91506132aa600a86615b38565b6132b59060306158f3565b60f81b8183815181106132d857634e487b7160e01b600052603260045260246000fd5b60200101906001600160f81b031916908160001a9053506132fa600a8661590b565b945061328c565b816001600160a01b0316836001600160a01b031614156133755760405162461bcd60e51b815260206004820152602960248201527f455243313135353a2073657474696e6720617070726f76616c20737461747573604482015268103337b91039b2b63360b91b6064820152608401610942565b6001600160a01b03838116600081815260666020908152604080832094871680845294825291829020805460ff191686151590811790915591519182527f17307eab39ab6107e8899845ad3d59bd9653f200f220920489ca2b5937696c31910160405180910390a3505050565b806134fc57600184600c81111561340957634e487b7160e01b600052602160045260246000fd5b141561347c57613417612870565b6134775760405162461bcd60e51b815260206004820152602b60248201527f596f75206d75737420626520612073757065727573657220746f20637265617460448201526a32903732bb9037b732b99760a91b6064820152608401610942565b6134fc565b6134876003836115ff565b806134955750613495612870565b6134fc5760405162461bcd60e51b815260206004820152603260248201527f596f75206d7573742068617665207468652043617374657220726f6c6520746f6044820152711030b9b9b4b3b7103732bb903937b632b99760711b6064820152608401610942565b610d87838261350c57600061357b565b600160088160038083613522600d610100615a0d565b61352c9190615a47565b6135369190615a47565b6135409190615a47565b61354a9190615a47565b6135549190615a47565b61355e9190615a47565b60ff16600161356e816002615962565b6135789190615a30565b901b5b613585878661145d565b176001604051806020016040528060008152506130e8565b6001600160a01b0384166135c35760405162461bcd60e51b8152600401610942906156e8565b336135d3818787613159886144da565b60008481526065602090815260408083206001600160a01b038a168452909152902054838110156136165760405162461bcd60e51b815260040161094290615770565b60008581526065602090815260408083206001600160a01b038b81168552925280832087850390559088168252812080548692906136559084906158f3565b909155505060408051868152602081018690526001600160a01b03808916928a82169291861691600080516020615c65833981519152910160405180910390a46136a3828888888888614533565b50505050505050565b6001600160a01b0383166136d25760405162461bcd60e51b81526004016109429061572d565b33613701818560006136e3876144da565b6136ec876144da565b6040518060200160405280600081525061379f565b60008381526065602090815260408083206001600160a01b0388168452909152902054828110156137445760405162461bcd60e51b8152600401610942906155e7565b60008481526065602090815260408083206001600160a01b0389811680865291845282852088870390558251898152938401889052909290861691600080516020615c65833981519152910160405180910390a45050505050565b6137a7612870565b613e815760005b8351811015613e7f576001600881600380836137cd600d610100615a0d565b6137d79190615a47565b6137e19190615a47565b6137eb9190615a47565b6137f59190615a47565b6137ff9190615a47565b6138099190615a47565b60ff166001613819816002615962565b6138239190615a30565b901b60016008816003808361383b600d610100615a0d565b6138459190615a47565b61384f9190615a47565b6138599190615a47565b6138639190615a47565b61386d9190615a47565b6138779190615a47565b60ff166001613887816002615962565b6138919190615a30565b901b8583815181106138b357634e487b7160e01b600052603260045260246000fd5b60200260200101511614613e6f5760006001600160a01b038716156138d95760046138dc565b60025b9050600281600c81111561390057634e487b7160e01b600052602160045260246000fd5b1415613dd15760006101a2600087858151811061392d57634e487b7160e01b600052603260045260246000fd5b6020026020010151815260200190815260200160002060009054906101000a900460070b60070b12613b8a576139ea604051806040016040528060188152602001771d1cce8809590b081c5d1e4e8809590b081b585e0e88095960421b8152506139bd8785815181106139b057634e487b7160e01b600052603260045260246000fd5b6020026020010151612829565b8685815181106139dd57634e487b7160e01b600052603260045260246000fd5b6020026020010151614604565b613a3e6101a26000878581518110613a1257634e487b7160e01b600052603260045260246000fd5b6020026020010151815260200190815260200160002060009054906101000a900460070b60070b61464b565b613a9b848381518110613a6157634e487b7160e01b600052603260045260246000fd5b6020026020010151613a8c8785815181106139b057634e487b7160e01b600052603260045260246000fd5b613a9691906158f3565b61464b565b6101a26000868481518110613ac057634e487b7160e01b600052603260045260246000fd5b6020026020010151815260200190815260200160002060009054906101000a900460070b60070b848381518110613b0757634e487b7160e01b600052603260045260246000fd5b6020026020010151613b328785815181106139b057634e487b7160e01b600052603260045260246000fd5b613b3c91906158f3565b1315613b8a5760405162461bcd60e51b815260206004820181905260248201527f4d6178696d756d206d696e7420616c6c6f77616e63652065786365656465642e6044820152606401610942565b6008613b99600d610100615a0d565b613ba39190615a47565b600160ff919091161b6008613bbb600d610100615a0d565b613bc59190615a47565b60ff166001613bd660086002615962565b613be09190615a30565b901b868481518110613c0257634e487b7160e01b600052603260045260246000fd5b6020026020010151161415613cbc57613c436003868481518110613c3657634e487b7160e01b600052603260045260246000fd5b60200260200101516115ff565b80613c515750613c51612870565b613cb75760405162461bcd60e51b815260206004820152603160248201527f596f75206d757374206861766520612043617374657220746f6b656e20746f2060448201527036b4b73a103a37b5b2b71033b0ba32b99760791b6064820152608401610942565b613e6d565b6000613cf3823361037f898781518110613ce657634e487b7160e01b600052603260045260246000fd5b60200260200101516109c6565b9050613d1982878581518110613c3657634e487b7160e01b600052603260045260246000fd5b613d7e5760405162461bcd60e51b815260206004820152603060248201527f596f75206d75737420686176652061204d696e74657220746f6b656e20746f2060448201526f33b2b732b930ba32903a37b5b2b7399760811b6064820152608401610942565b60006003806008613d92600d610100615a0d565b613d9c9190615a47565b613da69190615a47565b613db09190615a47565b60ff166001901b82161115613dcb57613dcb338260016136ac565b50613e6d565b6001600160a01b03861615613e6d57613e0481868481518110613c3657634e487b7160e01b600052603260045260246000fd5b613e6d5760405162461bcd60e51b815260206004820152603460248201527f596f75206d75737420686176652061205472616e73666572657220746f6b656e604482015273103a37903a3930b739b332b9103a37b5b2b7399760611b6064820152608401610942565b505b613e7881615afd565b90506137ae565b505b6001600160a01b038416156140a75760005b83518110156140a5576101946001016000858381518110613ec457634e487b7160e01b600052603260045260246000fd5b602002602001015181526020019081526020016000205460001415613f7057610194600001848281518110613f0957634e487b7160e01b600052603260045260246000fd5b6020908102919091018101518254600181018455600093845291832090910155610194548551909161019591879085908110613f5557634e487b7160e01b600052603260045260246000fd5b60200260200101518152602001908152602001600020819055505b6101966000866001600160a01b03166001600160a01b031681526020019081526020016000206001016000858381518110613fbb57634e487b7160e01b600052603260045260246000fd5b602002602001015181526020019081526020016000205460001415614095576001600160a01b038516600090815261019660205260409020845185908390811061401557634e487b7160e01b600052603260045260246000fd5b6020908102919091018101518254600181810185556000948552838520909101919091556001600160a01b038816835261019690915260408220805487519093919092019187908590811061407a57634e487b7160e01b600052603260045260246000fd5b60200260200101518152602001908152602001600020819055505b61409e81615afd565b9050613e93565b505b6001600160a01b0385161561423b5760005b8351811015614239578281815181106140e257634e487b7160e01b600052603260045260246000fd5b602002602001015161410e8786848151811061187557634e487b7160e01b600052603260045260246000fd5b11614229576001600160a01b0386166000908152610196602052604081208551600191820190839088908690811061415657634e487b7160e01b600052603260045260246000fd5b60200260200101518152602001908152602001600020546141779190615a30565b6001600160a01b038816600090815261019660205260409020805491925090829081106141b457634e487b7160e01b600052603260045260246000fd5b90600052602060002001600090556101966000886001600160a01b03166001600160a01b03168152602001908152602001600020600101600086848151811061420d57634e487b7160e01b600052603260045260246000fd5b6020026020010151815260200190815260200160002060009055505b61423281615afd565b90506140b9565b505b612c40868686868686614690565b61425b846001600160a01b0316612a82565b15612c405760405163bc197c8160e01b81526001600160a01b0385169063bc197c81906142949089908990889088908890600401615435565b602060405180830381600087803b1580156142ae57600080fd5b505af19250505080156142de575060408051601f3d908101601f191682019092526142db9181019061515e565b60015b61438b576142ea615b8e565b806308c379a0141561432457506142ff615ba5565b8061430a5750614326565b8060405162461bcd60e51b81526004016109429190615567565b505b60405162461bcd60e51b815260206004820152603460248201527f455243313135353a207472616e7366657220746f206e6f6e20455243313135356044820152732932b1b2b4bb32b91034b6b83632b6b2b73a32b960611b6064820152608401610942565b6001600160e01b0319811663bc197c8160e01b146136a35760405162461bcd60e51b81526004016109429061559f565b6143c481612a82565b6144265760405162461bcd60e51b815260206004820152602d60248201527f455243313936373a206e657720696d706c656d656e746174696f6e206973206e60448201526c1bdd08184818dbdb9d1c9858dd609a1b6064820152608401610942565b600080516020615cc583398151915280546001600160a01b0319166001600160a01b0392909216919091179055565b61445e836147d4565b60008251118061446b5750805b15611b9657610d878383614814565b600054610100900460ff166144a15760405162461bcd60e51b81526004016109429061583d565b611bf433613096565b600054610100900460ff166144d15760405162461bcd60e51b81526004016109429061583d565b61145a81614906565b6040805160018082528183019092526060916000919060208083019080368337019050509050828160008151811061452257634e487b7160e01b600052603260045260246000fd5b602090810291909101015292915050565b614545846001600160a01b0316612a82565b15612c405760405163f23a6e6160e01b81526001600160a01b0385169063f23a6e619061457e9089908990889088908890600401615493565b602060405180830381600087803b15801561459857600080fd5b505af19250505080156145c8575060408051601f3d908101601f191682019092526145c59181019061515e565b60015b6145d4576142ea615b8e565b6001600160e01b0319811663f23a6e6160e01b146136a35760405162461bcd60e51b81526004016109429061559f565b611b9683838360405160240161461c9392919061557a565b60408051601f198184030181529190526020810180516001600160e01b031663969cdd0360e01b179052614919565b61145a8160405160240161466191815260200190565b60408051601f198184030181529190526020810180516001600160e01b0316634e0c1d1d60e01b179052614919565b6001600160a01b0385166147335760005b8351811015614731578281815181106146ca57634e487b7160e01b600052603260045260246000fd5b602002602001015160fb60008684815181106146f657634e487b7160e01b600052603260045260246000fd5b60200260200101518152602001908152602001600020600082825461471b91906158f3565b9091555061472a905081615afd565b90506146a1565b505b6001600160a01b038416612c405760005b83518110156136a35782818151811061476d57634e487b7160e01b600052603260045260246000fd5b602002602001015160fb600086848151811061479957634e487b7160e01b600052603260045260246000fd5b6020026020010151815260200190815260200160002060008282546147be9190615a30565b909155506147cd905081615afd565b9050614744565b6147dd816143bb565b6040516001600160a01b038216907fbc7cd75a20ee27fd9adebab32041f755214dbc6bffa90cc0225b39da2e5c2d3b90600090a250565b606061481f83612a82565b61487a5760405162461bcd60e51b815260206004820152602660248201527f416464726573733a2064656c65676174652063616c6c20746f206e6f6e2d636f6044820152651b9d1c9858dd60d21b6064820152608401610942565b600080846001600160a01b03168460405161489591906153a2565b600060405180830381855af49150503d80600081146148d0576040519150601f19603f3d011682016040523d82523d6000602084013e6148d5565b606091505b50915091506148fd8282604051806060016040528060278152602001615ce56027913961493a565b95945050505050565b805161197b9060679060208401906149f7565b80516a636f6e736f6c652e6c6f67602083016000808483855afa5050505050565b60608315614949575081611266565b8251156149595782518084602001fd5b8160405162461bcd60e51b81526004016109429190615567565b82805461497f90615a96565b90600052602060002090601f0160209004810192826149a157600085556149e7565b82601f106149ba5782800160ff198235161785556149e7565b828001600101855582156149e7579182015b828111156149e75782358255916020019190600101906149cc565b506149f3929150614a6b565b5090565b828054614a0390615a96565b90600052602060002090601f016020900481019282614a2557600085556149e7565b82601f10614a3e57805160ff19168380011785556149e7565b828001600101855582156149e7579182015b828111156149e7578251825591602001919060010190614a50565b5b808211156149f35760008155600101614a6c565b60006001600160401b03831115614a9957614a99615b78565b604051614ab0601f8501601f191660200182615ad1565b809150838152848484011115614ac557600080fd5b83836020830137600060208583010152509392505050565b80356001600160a01b0381168114610a2f57600080fd5b600082601f830112614b04578081fd5b81356020614b11826158d0565b604051614b1e8282615ad1565b8381528281019150858301600585901b87018401881015614b3d578586fd5b855b85811015614b6257614b5082614add565b84529284019290840190600101614b3f565b5090979650505050505050565b600082601f830112614b7f578081fd5b81356020614b8c826158d0565b604051614b998282615ad1565b8381528281019150858301600585901b87018401881015614bb8578586fd5b855b85811015614b6257614bcb82614c63565b84529284019290840190600101614bba565b600082601f830112614bed578081fd5b81356020614bfa826158d0565b604051614c078282615ad1565b8381528281019150858301600585901b87018401881015614c26578586fd5b855b85811015614b6257813584529284019290840190600101614c28565b600082601f830112614c54578081fd5b61126683833560208501614a80565b8035600d8110610a2f57600080fd5b60008083601f840112614c83578182fd5b5081356001600160401b03811115614c99578182fd5b602083019150836020828501011115614cb157600080fd5b9250929050565b600060208284031215614cc9578081fd5b61126682614add565b60008060408385031215614ce4578081fd5b614ced83614add565b9150614cfb60208401614add565b90509250929050565b600080600080600060a08688031215614d1b578081fd5b614d2486614add565b9450614d3260208701614add565b935060408601356001600160401b0380821115614d4d578283fd5b614d5989838a01614bdd565b94506060880135915080821115614d6e578283fd5b614d7a89838a01614bdd565b93506080880135915080821115614d8f578283fd5b50614d9c88828901614c44565b9150509295509295909350565b600080600080600060a08688031215614dc0578081fd5b614dc986614add565b9450614dd760208701614add565b9350604086013592506060860135915060808601356001600160401b03811115614dff578182fd5b614d9c88828901614c44565b600080600060608486031215614e1f578081fd5b614e2884614add565b925060208401356001600160401b0380821115614e43578283fd5b614e4f87838801614b6f565b93506040860135915080821115614e64578283fd5b50614e7186828701614b6f565b9150509250925092565b600080600060608486031215614e8f578081fd5b614e9884614add565b925060208401356001600160401b0380821115614eb3578283fd5b614ebf87838801614bdd565b93506040860135915080821115614ed4578283fd5b50614e7186828701614bdd565b60008060408385031215614ef3578182fd5b614efc83614add565b915060208301358015158114614f10578182fd5b809150509250929050565b60008060408385031215614f2d578182fd5b614f3683614add565b915060208301356001600160401b03811115614f50578182fd5b614f5c85828601614c44565b9150509250929050565b60008060408385031215614f78578182fd5b614f8183614add565b946020939093013593505050565b600080600060608486031215614fa3578081fd5b614fac84614add565b95602085013595506040909401359392505050565b60008060008060808587031215614fd6578182fd5b614fdf85614add565b9350602085013592506040850135915060608501356001600160401b03811115615007578182fd5b61501387828801614c44565b91505092959194509250565b60008060408385031215615031578182fd5b82356001600160401b0380821115615047578384fd5b61505386838701614af4565b93506020850135915080821115615068578283fd5b50614f5c85828601614bdd565b600080600060608486031215615089578081fd5b83356001600160401b038082111561509f578283fd5b6150ab87838801614af4565b94506020860135935060408601359150808211156150c7578283fd5b50614e7186828701614c44565b600080604083850312156150e6578182fd5b82356001600160401b03808211156150fc578384fd5b61510886838701614b6f565b9350602085013591508082111561511d578283fd5b50614f5c85828601614b6f565b60006020828403121561513b578081fd5b5051919050565b600060208284031215615153578081fd5b813561126681615c2e565b60006020828403121561516f578081fd5b815161126681615c2e565b60006020828403121561518b578081fd5b61126682614c63565b600080604083850312156151a6578182fd5b614ced83614c63565b6000806000606084860312156151c3578081fd5b6151cc84614c63565b92506151da60208501614add565b9150604084013590509250925092565b600080604083850312156151fc578182fd5b614f8183614c63565b6000806000806040858703121561521a578182fd5b84356001600160401b0380821115615230578384fd5b61523c88838901614c72565b90965094506020870135915080821115615254578384fd5b5061526187828801614c72565b95989497509550505050565b60006020828403121561527e578081fd5b81356001600160401b03811115615293578182fd5b8201601f810184136152a3578182fd5b611df684823560208401614a80565b6000602082840312156152c3578081fd5b5035919050565b600080604083850312156152dc578182fd5b8235915060208301358060070b8114614f10578182fd5b600080600060408486031215615307578081fd5b8335925060208401356001600160401b03811115615323578182fd5b61532f86828701614c72565b9497909650939450505050565b6000815180845260208085019450808401835b8381101561536b5781518752958201959082019060010161534f565b509495945050505050565b6000815180845261538e816020860160208601615a6a565b601f01601f19169290920160200192915050565b600082516153b4818460208701615a6a565b9190910192915050565b7202ab735b737bbb7103937b632903a3cb8329d1606d1b8152600082516153ec816013850160208701615a6a565b9190910160130192915050565b7302ab735b737bbb7102937b6329024b73232bc1d160651b815260008251615428816014850160208701615a6a565b9190910160140192915050565b6001600160a01b0386811682528516602082015260a0604082018190526000906154619083018661533c565b8281036060840152615473818661533c565b905082810360808401526154878185615376565b98975050505050505050565b6001600160a01b03868116825285166020820152604081018490526060810183905260a0608082018190526000906154cd90830184615376565b979650505050505050565b602081526000611266602083018461533c565b6040815260006154fe604083018561533c565b82810360208401526148fd818561533c565b60208101600d831061553257634e487b7160e01b600052602160045260246000fd5b91905290565b60208152816020820152818360408301376000818301604090810191909152601f909201601f19160101919050565b6020815260006112666020830184615376565b60608152600061558d6060830186615376565b60208301949094525060400152919050565b60208082526028908201527f455243313135353a204552433131353552656365697665722072656a656374656040820152676420746f6b656e7360c01b606082015260800190565b60208082526024908201527f455243313135353a206275726e20616d6f756e7420657863656564732062616c604082015263616e636560e01b606082015260800190565b6020808252602c90820152600080516020615ca583398151915260408201526b19195b1959d85d1958d85b1b60a21b606082015260800190565b60208082526029908201527f455243313135353a2063616c6c6572206973206e6f74206f776e6572206e6f7260408201526808185c1c1c9bdd995960ba1b606082015260800190565b6020808252602c90820152600080516020615ca583398151915260408201526b6163746976652070726f787960a01b606082015260800190565b60208082526025908201527f455243313135353a207472616e7366657220746f20746865207a65726f206164604082015264647265737360d81b606082015260800190565b60208082526023908201527f455243313135353a206275726e2066726f6d20746865207a65726f206164647260408201526265737360e81b606082015260800190565b6020808252602a908201527f455243313135353a20696e73756666696369656e742062616c616e636520666f60408201526939103a3930b739b332b960b11b606082015260800190565b6020808252818101527f4f776e61626c653a2063616c6c6572206973206e6f7420746865206f776e6572604082015260600190565b6020808252602e908201527f4552432d3131353520456e756d657261626c653a20746f6b656e20696e64657860408201526d206f7574206f6620626f756e647360901b606082015260800190565b6020808252602b908201527f496e697469616c697a61626c653a20636f6e7472616374206973206e6f74206960408201526a6e697469616c697a696e6760a81b606082015260800190565b60208082526028908201527f455243313135353a2069647320616e6420616d6f756e7473206c656e677468206040820152670dad2e6dac2e8c6d60c31b606082015260800190565b60006001600160401b038211156158e9576158e9615b78565b5060051b60200190565b6000821982111561590657615906615b4c565b500190565b60008261591a5761591a615b62565b500490565b600181815b8085111561595a57816000190482111561594057615940615b4c565b8085161561594d57918102915b93841c9390800290615924565b509250929050565b600061126660ff84168360008261597b57506001610970565b8161598857506000610970565b816001811461599e57600281146159a8576159c4565b6001915050610970565b60ff8411156159b9576159b9615b4c565b50506001821b610970565b5060208310610133831016604e8410600b84101617156159e7575081810a610970565b6159f1838361591f565b8060001904821115615a0557615a05615b4c565b029392505050565b600061ffff83811690831681811015615a2857615a28615b4c565b039392505050565b600082821015615a4257615a42615b4c565b500390565b600060ff821660ff841680821015615a6157615a61615b4c565b90039392505050565b60005b83811015615a85578181015183820152602001615a6d565b83811115610d875750506000910152565b600181811c90821680615aaa57607f821691505b60208210811415615acb57634e487b7160e01b600052602260045260246000fd5b50919050565b601f8201601f191681016001600160401b0381118282101715615af657615af6615b78565b6040525050565b6000600019821415615b1157615b11615b4c565b5060010190565b600060ff821660ff811415615b2f57615b2f615b4c565b60010192915050565b600082615b4757615b47615b62565b500690565b634e487b7160e01b600052601160045260246000fd5b634e487b7160e01b600052601260045260246000fd5b634e487b7160e01b600052604160045260246000fd5b600060033d1115611afa57600481823e5160e01c90565b600060443d1015615bb35790565b6040516003193d81016004833e81513d6001600160401b038083116024840183101715615be257505050505090565b8285019150815181811115615bfa5750505050505090565b843d8701016020828501011115615c145750505050505090565b615c2360208286010187615ad1565b509095945050505050565b6001600160e01b03198116811461145a57600080fdfe4a39dc06d4c0dbc64b70af90fd698a233a518aa5d07e595d983b8c0526c8f7fbc3d58168c5ae7397731d063d5bbf3d657854427343f4c083240f7aacaa2d0f62a6f1ac7ad7b125ba5a5e1c96b00ad6914f90a503b1ac3d85a9dadbb4c639df9246756e6374696f6e206d7573742062652063616c6c6564207468726f75676820360894a13ba1a3210667c828492db98dca3e2076cc3735a920a3ca505d382bbc416464726573733a206c6f772d6c6576656c2064656c65676174652063616c6c206661696c6564a264697066735822122067967fa9bd804c8b3c7088d858dbbd105870d15361d75d44c6eead3a8c3fdd3364736f6c63430008040033",
  "linkReferences": {},
  "deployedLinkReferences": {}
}