{
  "_format": "hh-sol-artifact-1",
  "contractName": "Roles",
  "sourceName": "src/BulkDisbursableNFTs.sol",
  "abi": [
    {
      "inputs": [
        {
          "internalType": "string",
          "name": "roleName",
          "type": "string"
        }
      ],
      "name": "roleIndexForName",
      "outputs": [
        {
          "internalType": "enum Roles.Role",
          "name": "role",
          "type": "Roles.Role"
        }
      ],
      "stateMutability": "pure",
      "type": "function"
    },
    {
      "inputs": [
        {
          "internalType": "enum Roles.Role",
          "name": "index",
          "type": "Roles.Role"
        }
      ],
      "name": "roleNameByIndex",
      "outputs": [
        {
          "internalType": "string",
          "name": "",
          "type": "string"
        }
      ],
      "stateMutability": "pure",
      "type": "function"
    }
  ],
  "bytecode": "0x610bb261003a600b82828239805160001a60731461002d57634e487b7160e01b600052600060045260246000fd5b30600052607381538281f3fe73000000000000000000000000000000000000000030146080604052600436106100405760003560e01c8063778f5a7b14610045578063a16863ff1461006e575b600080fd5b6100586100533660046108f5565b61008e565b6040516100659190610a5d565b60405180910390f35b61008161007c3660046108cf565b6103df565b6040516100659190610a85565b600080826040516020016100a291906109ca565b6040516020818303038152906040528051906020012090506040516020016100d9906829bab832b93ab9b2b960b91b815260090190565b604051602081830303815290604052805190602001208114156100ff5750600192915050565b6040516526b4b73a32b960d11b60208201526026016040516020818303038152906040528051906020012081141561013a5750600292915050565b6040516521b0b9ba32b960d11b6020820152602601604051602081830303815290604052805190602001208114156101755750600392915050565b604051692a3930b739b332b932b960b11b6020820152602a01604051602081830303815290604052805190602001208114156101b45750600492915050565b6040516921b7b73334b3bab932b960b11b6020820152602a01604051602081830303815290604052805190602001208114156101f35750600592915050565b6040516926b0b4b73a30b4b732b960b11b6020820152602a01604051602081830303815290604052805190602001208114156102325750600692915050565b6040516621b932b0ba37b960c91b60208201526027016040516020818303038152906040528051906020012081141561026e5750600792915050565b604051662634b6b4ba32b960c91b6020820152602701604051602081830303815290604052805190602001208114156102aa5750600892915050565b60405165213ab93732b960d11b6020820152602601604051602081830303815290604052805190602001208114156102e55750600992915050565b604051682232b9ba3937bcb2b960b91b6020820152602901604051602081830303815290604052805190602001208114156103235750600a92915050565b604051654f7261636c6560d01b60208201526026016040516020818303038152906040528051906020012081141561035e5750600b92915050565b6040516b14995cd95c9d995913185cdd60a21b6020820152602c016040516020818303038152906040528051906020012081141561039f5750600c92915050565b826040516020016103b091906109e6565b60408051601f198184030181529082905262461bcd60e51b82526103d691600401610a85565b60405180910390fd5b6060600182600c81111561040357634e487b7160e01b600052602160045260246000fd5b141561042e57505060408051808201909152600981526829bab832b93ab9b2b960b91b602082015290565b600282600c81111561045057634e487b7160e01b600052602160045260246000fd5b141561047857505060408051808201909152600681526526b4b73a32b960d11b602082015290565b600382600c81111561049a57634e487b7160e01b600052602160045260246000fd5b14156104c257505060408051808201909152600681526521b0b9ba32b960d11b602082015290565b600482600c8111156104e457634e487b7160e01b600052602160045260246000fd5b141561051057505060408051808201909152600a8152692a3930b739b332b932b960b11b602082015290565b600582600c81111561053257634e487b7160e01b600052602160045260246000fd5b141561055e57505060408051808201909152600a81526921b7b73334b3bab932b960b11b602082015290565b600682600c81111561058057634e487b7160e01b600052602160045260246000fd5b14156105ac57505060408051808201909152600a81526926b0b4b73a30b4b732b960b11b602082015290565b600782600c8111156105ce57634e487b7160e01b600052602160045260246000fd5b14156105f757505060408051808201909152600781526621b932b0ba37b960c91b602082015290565b600882600c81111561061957634e487b7160e01b600052602160045260246000fd5b14156106425750506040805180820190915260078152662634b6b4ba32b960c91b602082015290565b600982600c81111561066457634e487b7160e01b600052602160045260246000fd5b141561068c575050604080518082019091526006815265213ab93732b960d11b602082015290565b600a82600c8111156106ae57634e487b7160e01b600052602160045260246000fd5b14156106d95750506040805180820190915260098152682232b9ba3937bcb2b960b91b602082015290565b600b82600c8111156106fb57634e487b7160e01b600052602160045260246000fd5b14156107235750506040805180820190915260068152654f7261636c6560d01b602082015290565b600c82600c81111561074557634e487b7160e01b600052602160045260246000fd5b141561077357505060408051808201909152600c81526b14995cd95c9d995913185cdd60a21b602082015290565b61079e82600c81111561079657634e487b7160e01b600052602160045260246000fd5b60ff166107ae565b6040516020016103b09190610a21565b6060816107d25750506040805180820190915260018152600360fc1b602082015290565b8160005b81156107fc57806107e681610b0b565b91506107f59050600a83610ab0565b91506107d6565b6000816001600160401b0381111561082457634e487b7160e01b600052604160045260246000fd5b6040519080825280601f01601f19166020018201604052801561084e576020820181803683370190505b5090505b84156108c757610863600183610ac4565b9150610870600a86610b26565b61087b906030610a98565b60f81b81838151811061089e57634e487b7160e01b600052603260045260246000fd5b60200101906001600160f81b031916908160001a9053506108c0600a86610ab0565b9450610852565b949350505050565b6000602082840312156108e0578081fd5b8135600d81106108ee578182fd5b9392505050565b600060208284031215610906578081fd5b81356001600160401b038082111561091c578283fd5b818401915084601f83011261092f578283fd5b81358181111561094157610941610b66565b604051601f8201601f19908116603f0116810190838211818310171561096957610969610b66565b81604052828152876020848701011115610981578586fd5b826020860160208301379182016020019490945295945050505050565b600081518084526109b6816020860160208601610adb565b601f01601f19169290920160200192915050565b600082516109dc818460208701610adb565b9190910192915050565b7202ab735b737bbb7103937b632903a3cb8329d1606d1b815260008251610a14816013850160208701610adb565b9190910160130192915050565b7302ab735b737bbb7102937b6329024b73232bc1d160651b815260008251610a50816014850160208701610adb565b9190910160140192915050565b60208101600d8310610a7f57634e487b7160e01b600052602160045260246000fd5b91905290565b6020815260006108ee602083018461099e565b60008219821115610aab57610aab610b3a565b500190565b600082610abf57610abf610b50565b500490565b600082821015610ad657610ad6610b3a565b500390565b60005b83811015610af6578181015183820152602001610ade565b83811115610b05576000848401525b50505050565b6000600019821415610b1f57610b1f610b3a565b5060010190565b600082610b3557610b35610b50565b500690565b634e487b7160e01b600052601160045260246000fd5b634e487b7160e01b600052601260045260246000fd5b634e487b7160e01b600052604160045260246000fdfea26469706673582212203b1e535a57c40b1f3daef3319b8b8f3788ddc770330996e485cda2311540da4364736f6c63430008040033",
  "linkReferences": {},
  "deployedLinkReferences": {}
}