{"address":"0x54c98808aef50B79565E564AE25C87A8972BCE5d","bytecode":"0x60a06040523060601b6080523480156200001857600080fd5b50600054610100900460ff16620000365760005460ff161562000040565b62000040620000e5565b620000a85760405162461bcd60e51b815260206004820152602e60248201527f496e697469616c697a61626c653a20636f6e747261637420697320616c72656160448201526d191e481a5b9a5d1a585b1a5e995960921b606482015260840160405180910390fd5b600054610100900460ff16158015620000cb576000805461ffff19166101011790555b8015620000de576000805461ff00191690555b5062000112565b6000620000fd306200010360201b620011ac1760201c565b15905090565b6001600160a01b03163b151590565b60805160601c6132306200014d600039600081816108550152818161089501528181610bcc01528181610c0c0152610c9f01526132306000f3fe6080604052600436106101805760003560e01c80636b20c454116100d1578063a22cb4651161008a578063e985e9c511610064578063e985e9c514610464578063f242432a146104ad578063f2fde38b146104cd578063f5298aca146104ed57600080fd5b8063a22cb465146103f7578063bd85b03914610417578063d2b04fd61461044457600080fd5b80636b20c454146103505780637118589714610370578063715018a614610385578063731133e91461039a5780638da5cb5b146103ba57806395d89b41146103e257600080fd5b80633659cfe61161013e5780634f1ef286116101185780634f1ef286146102d95780634f558e79146102ec57806352d1902d1461031b57806367db3b8f1461033057600080fd5b80633659cfe61461026c5780634cd88b761461028c5780634e1273f4146102ac57600080fd5b8062fdd58e1461018557806301ffc9a7146101b857806306fdde03146101e85780630e89341c1461020a5780632eb2c2d61461022a5780633656a1a41461024c575b600080fd5b34801561019157600080fd5b506101a56101a0366004612919565b61050d565b6040519081526020015b60405180910390f35b3480156101c457600080fd5b506101d86101d3366004612a95565b6105a6565b60405190151581526020016101af565b3480156101f457600080fd5b506101fd6105f8565b6040516101af9190612cec565b34801561021657600080fd5b506101fd610225366004612b77565b610687565b34801561023657600080fd5b5061024a6102453660046126a3565b61072a565b005b34801561025857600080fd5b5061024a6102673660046127aa565b6107c1565b34801561027857600080fd5b5061024a610287366004612657565b61084a565b34801561029857600080fd5b5061024a6102a7366004612acd565b61092a565b3480156102b857600080fd5b506102cc6102c7366004612a27565b610a60565b6040516101af9190612cb4565b61024a6102e73660046128ce565b610bc1565b3480156102f857600080fd5b506101d8610307366004612b77565b600090815260fb6020526040902054151590565b34801561032757600080fd5b506101a5610c92565b34801561033c57600080fd5b5061024a61034b366004612b35565b610d46565b34801561035c57600080fd5b5061024a61036b366004612824565b610e24565b34801561037c57600080fd5b506101a5610e6c565b34801561039157600080fd5b5061024a610e7d565b3480156103a657600080fd5b5061024a6103b53660046129d5565b610ee3565b3480156103c657600080fd5b506097546040516001600160a01b0390911681526020016101af565b3480156103ee57600080fd5b506101fd611005565b34801561040357600080fd5b5061024a610412366004612894565b611013565b34801561042357600080fd5b506101a5610432366004612b77565b600090815260fb602052604090205490565b34801561045057600080fd5b506101a561045f366004612942565b61101e565b34801561047057600080fd5b506101d861047f366004612671565b6001600160a01b03918216600090815260666020908152604080832093909416825291909152205460ff1690565b3480156104b957600080fd5b5061024a6104c8366004612748565b61105c565b3480156104d957600080fd5b5061024a6104e8366004612657565b6110a1565b3480156104f957600080fd5b5061024a6105083660046129a3565b611169565b60006001600160a01b03831661057e5760405162461bcd60e51b815260206004820152602b60248201527f455243313135353a2062616c616e636520717565727920666f7220746865207a60448201526a65726f206164647265737360a81b60648201526084015b60405180910390fd5b5060009081526065602090815260408083206001600160a01b03949094168352929052205490565b60006001600160e01b03198216636cdb3d1360e11b14806105d757506001600160e01b031982166303a24d0760e21b145b806105f257506301ffc9a760e01b6001600160e01b03198316145b92915050565b61019180546106069061304f565b80601f01602080910402602001604051908101604052809291908181526020018280546106329061304f565b801561067f5780601f106106545761010080835404028352916020019161067f565b820191906000526020600020905b81548152906001019060200180831161066257829003601f168201915b505050505081565b6000818152610193602052604090208054606091906106a59061304f565b80601f01602080910402602001604051908101604052809291908181526020018280546106d19061304f565b801561071e5780601f106106f35761010080835404028352916020019161071e565b820191906000526020600020905b81548152906001019060200180831161070157829003601f168201915b50505050509050919050565b6001600160a01b0385163314806107465750610746853361047f565b6107ad5760405162461bcd60e51b815260206004820152603260248201527f455243313135353a207472616e736665722063616c6c6572206973206e6f74206044820152711bdddb995c881b9bdc88185c1c1c9bdd995960721b6064820152608401610575565b6107ba85858585856111bb565b5050505050565b6001600160a01b0384163314806107dd57506107dd843361047f565b6107f95760405162461bcd60e51b815260040161057590612dd7565b60005b83518110156107ba5761083a8585838151811061082957634e487b7160e01b600052603260045260246000fd5b602002602001015185600186611384565b610843816130b6565b90506107fc565b306001600160a01b037f00000000000000000000000000000000000000000000000000000000000000001614156108935760405162461bcd60e51b815260040161057590612d8b565b7f00000000000000000000000000000000000000000000000000000000000000006001600160a01b03166108dc6000805160206131b4833981519152546001600160a01b031690565b6001600160a01b0316146109025760405162461bcd60e51b815260040161057590612e20565b61090b816114b4565b604080516000808252602082019092526109279183919061153e565b50565b600054610100900460ff166109455760005460ff1615610949565b303b155b6109ac5760405162461bcd60e51b815260206004820152602e60248201527f496e697469616c697a61626c653a20636f6e747261637420697320616c72656160448201526d191e481a5b9a5d1a585b1a5e995960921b6064820152608401610575565b600054610100900460ff161580156109ce576000805461ffff19166101011790555b6109db6101918686612398565b506109e96101928484612398565b50610a286040518060400160405280602081526020017f4572726f723a2053696e676c6520546f6b656e20555249204e6f7420557365648152506116b8565b610a306116e8565b610a38611717565b610a40611717565b610a48611717565b80156107ba576000805461ff00191690555050505050565b60608151835114610ac55760405162461bcd60e51b815260206004820152602960248201527f455243313135353a206163636f756e747320616e6420696473206c656e677468604482015268040dad2e6dac2e8c6d60bb1b6064820152608401610575565b600083516001600160401b03811115610aee57634e487b7160e01b600052604160045260246000fd5b604051908082528060200260200182016040528015610b17578160200160208202803683370190505b50905060005b8451811015610bb957610b7e858281518110610b4957634e487b7160e01b600052603260045260246000fd5b6020026020010151858381518110610b7157634e487b7160e01b600052603260045260246000fd5b602002602001015161050d565b828281518110610b9e57634e487b7160e01b600052603260045260246000fd5b6020908102919091010152610bb2816130b6565b9050610b1d565b509392505050565b306001600160a01b037f0000000000000000000000000000000000000000000000000000000000000000161415610c0a5760405162461bcd60e51b815260040161057590612d8b565b7f00000000000000000000000000000000000000000000000000000000000000006001600160a01b0316610c536000805160206131b4833981519152546001600160a01b031690565b6001600160a01b031614610c795760405162461bcd60e51b815260040161057590612e20565b610c82826114b4565b610c8e8282600161153e565b5050565b6000306001600160a01b037f00000000000000000000000000000000000000000000000000000000000000001614610d325760405162461bcd60e51b815260206004820152603860248201527f555550535570677261646561626c653a206d757374206e6f742062652063616c60448201527f6c6564207468726f7567682064656c656761746563616c6c00000000000000006064820152608401610575565b506000805160206131b48339815191525b90565b610d50600461173e565b80610d5e5750610d5e61178c565b610dc75760405162461bcd60e51b815260206004820152603460248201527f596f75206d75737420686176652061204461746153657474657220746f6b656e604482015273103a379031b430b733b29036b2ba30b230ba309760611b6064820152608401610575565b6000818152610193602090815260409091208351610de79285019061241c565b50807f6bb7ff708619ba0610cba295a58592e0451dee2622938c8755667688daf3529b83604051610e189190612cec565b60405180910390a25050565b6001600160a01b038316331480610e405750610e40833361047f565b610e5c5760405162461bcd60e51b815260040161057590612dd7565b610e678383836117b0565b505050565b6000610e786101945490565b905090565b6097546001600160a01b03163314610ed75760405162461bcd60e51b815260206004820181905260248201527f4f776e61626c653a2063616c6c6572206973206e6f7420746865206f776e65726044820152606401610575565b610ee1600061195d565b565b6001600160f81b038084161415610f7a57610efe600261173e565b80610f0c5750610f0c61178c565b610f755760405162461bcd60e51b815260206004820152603460248201527f596f75206d7573742068617665206120526f6c65476976657220746f6b656e206044820152733a379036b4b73a103a37b5b2b71033b0ba32b99760611b6064820152608401610575565b610ff3565b610f84600161173e565b80610f925750610f9261178c565b610ff35760405162461bcd60e51b815260206004820152602c60248201527f596f75206d75737420686176652061204d696e74657220746f6b656e20746f2060448201526b36b4b73a103a37b5b2b7399760a11b6064820152608401610575565b610fff848484846119af565b50505050565b61019280546106069061304f565b610c8e338383611ab2565b600061102f61019480546001019055565b600061103b6101945490565b905061104986828786610ee3565b6110538482610d46565b95945050505050565b6001600160a01b0385163314806110785750611078853361047f565b6110945760405162461bcd60e51b815260040161057590612dd7565b6107ba8585858585611384565b6097546001600160a01b031633146110fb5760405162461bcd60e51b815260206004820181905260248201527f4f776e61626c653a2063616c6c6572206973206e6f7420746865206f776e65726044820152606401610575565b6001600160a01b0381166111605760405162461bcd60e51b815260206004820152602660248201527f4f776e61626c653a206e6577206f776e657220697320746865207a65726f206160448201526564647265737360d01b6064820152608401610575565b6109278161195d565b6001600160a01b0383163314806111855750611185833361047f565b6111a15760405162461bcd60e51b815260040161057590612dd7565b610e67838383611b93565b6001600160a01b03163b151590565b81518351146111dc5760405162461bcd60e51b815260040161057590612f89565b6001600160a01b0384166112025760405162461bcd60e51b815260040161057590612e6c565b33611211818787878787611c98565b60005b845181101561131657600085828151811061123f57634e487b7160e01b600052603260045260246000fd5b60200260200101519050600085838151811061126b57634e487b7160e01b600052603260045260246000fd5b60209081029190910181015160008481526065835260408082206001600160a01b038e1683529093529190912054909150818110156112bc5760405162461bcd60e51b815260040161057590612ef4565b60008381526065602090815260408083206001600160a01b038e8116855292528083208585039055908b168252812080548492906112fb908490612ff4565b925050819055505050508061130f906130b6565b9050611214565b50846001600160a01b0316866001600160a01b0316826001600160a01b03167f4a39dc06d4c0dbc64b70af90fd698a233a518aa5d07e595d983b8c0526c8f7fb8787604051611366929190612cc7565b60405180910390a461137c818787878787611d27565b505050505050565b6001600160a01b0384166113aa5760405162461bcd60e51b815260040161057590612e6c565b336113c98187876113ba88611e92565b6113c388611e92565b87611c98565b60008481526065602090815260408083206001600160a01b038a1684529091529020548381101561140c5760405162461bcd60e51b815260040161057590612ef4565b60008581526065602090815260408083206001600160a01b038b811685529252808320878503905590881682528120805486929061144b908490612ff4565b909155505060408051868152602081018690526001600160a01b03808916928a821692918616917fc3d58168c5ae7397731d063d5bbf3d657854427343f4c083240f7aacaa2d0f62910160405180910390a46114ab828888888888611eeb565b50505050505050565b6114be600561173e565b806114cc57506114cc61178c565b6109275760405162461bcd60e51b815260206004820152603960248201527f596f75206d75737420686176652061204d61696e7461696e657220746f6b656e60448201527f20746f20757067726164652074686520636f6e74726163742e000000000000006064820152608401610575565b7f4910fdfa16fed3260ed0e7147f7cc6da11a60208b5b9406d12a635614ffd91435460ff161561157157610e6783611fb5565b826001600160a01b03166352d1902d6040518163ffffffff1660e01b815260040160206040518083038186803b1580156115aa57600080fd5b505afa9250505080156115da575060408051601f3d908101601f191682019092526115d791810190612a7d565b60015b61163d5760405162461bcd60e51b815260206004820152602e60248201527f45524331393637557067726164653a206e657720696d706c656d656e7461746960448201526d6f6e206973206e6f74205555505360901b6064820152608401610575565b6000805160206131b483398151915281146116ac5760405162461bcd60e51b815260206004820152602960248201527f45524331393637557067726164653a20756e737570706f727465642070726f786044820152681a58589b195555525160ba1b6064820152608401610575565b50610e67838383612051565b600054610100900460ff166116df5760405162461bcd60e51b815260040161057590612f3e565b61092781612076565b600054610100900460ff1661170f5760405162461bcd60e51b815260040161057590612f3e565b610ee16120a6565b600054610100900460ff16610ee15760405162461bcd60e51b815260040161057590612f3e565b6000806001600160f81b0360f884600781111561176b57634e487b7160e01b600052602160045260246000fd5b61177692911b612ff4565b90506000611784338361050d565b119392505050565b6000611798600061173e565b80610e785750506097546001600160a01b0316331490565b6001600160a01b0383166117d65760405162461bcd60e51b815260040161057590612eb1565b80518251146117f75760405162461bcd60e51b815260040161057590612f89565b600033905061181a81856000868660405180602001604052806000815250611c98565b60005b83518110156118fe57600084828151811061184857634e487b7160e01b600052603260045260246000fd5b60200260200101519050600084838151811061187457634e487b7160e01b600052603260045260246000fd5b60209081029190910181015160008481526065835260408082206001600160a01b038c1683529093529190912054909150818110156118c55760405162461bcd60e51b815260040161057590612d47565b60009283526065602090815260408085206001600160a01b038b16865290915290922091039055806118f6816130b6565b91505061181d565b5060006001600160a01b0316846001600160a01b0316826001600160a01b03167f4a39dc06d4c0dbc64b70af90fd698a233a518aa5d07e595d983b8c0526c8f7fb868660405161194f929190612cc7565b60405180910390a450505050565b609780546001600160a01b038381166001600160a01b0319831681179093556040519116919082907f8be0079c531659141344cd1fd0a4f28419497f9722a3daafe3b4186f6b6457e090600090a35050565b6001600160a01b038416611a0f5760405162461bcd60e51b815260206004820152602160248201527f455243313135353a206d696e7420746f20746865207a65726f206164647265736044820152607360f81b6064820152608401610575565b33611a20816000876113ba88611e92565b60008481526065602090815260408083206001600160a01b038916845290915281208054859290611a52908490612ff4565b909155505060408051858152602081018590526001600160a01b0380881692600092918516917fc3d58168c5ae7397731d063d5bbf3d657854427343f4c083240f7aacaa2d0f62910160405180910390a46107ba81600087878787611eeb565b816001600160a01b0316836001600160a01b03161415611b265760405162461bcd60e51b815260206004820152602960248201527f455243313135353a2073657474696e6720617070726f76616c20737461747573604482015268103337b91039b2b63360b91b6064820152608401610575565b6001600160a01b03838116600081815260666020908152604080832094871680845294825291829020805460ff191686151590811790915591519182527f17307eab39ab6107e8899845ad3d59bd9653f200f220920489ca2b5937696c31910160405180910390a3505050565b6001600160a01b038316611bb95760405162461bcd60e51b815260040161057590612eb1565b33611be881856000611bca87611e92565b611bd387611e92565b60405180602001604052806000815250611c98565b60008381526065602090815260408083206001600160a01b038816845290915290205482811015611c2b5760405162461bcd60e51b815260040161057590612d47565b60008481526065602090815260408083206001600160a01b03898116808652918452828520888703905582518981529384018890529092908616917fc3d58168c5ae7397731d063d5bbf3d657854427343f4c083240f7aacaa2d0f62910160405180910390a45050505050565b611ca2600361173e565b80611cb05750611cb061178c565b611d195760405162461bcd60e51b815260206004820152603460248201527f596f75206d75737420686176652061205472616e73666572657220746f6b656e604482015273103a37903a3930b739b332b9103a37b5b2b7399760611b6064820152608401610575565b61137c8686868686866120d6565b6001600160a01b0384163b1561137c5760405163bc197c8160e01b81526001600160a01b0385169063bc197c8190611d6b9089908990889088908890600401612c11565b602060405180830381600087803b158015611d8557600080fd5b505af1925050508015611db5575060408051601f3d908101601f19168201909252611db291810190612ab1565b60015b611e6257611dc16130fd565b806308c379a01415611dfb5750611dd6613114565b80611de15750611dfd565b8060405162461bcd60e51b81526004016105759190612cec565b505b60405162461bcd60e51b815260206004820152603460248201527f455243313135353a207472616e7366657220746f206e6f6e20455243313135356044820152732932b1b2b4bb32b91034b6b83632b6b2b73a32b960611b6064820152608401610575565b6001600160e01b0319811663bc197c8160e01b146114ab5760405162461bcd60e51b815260040161057590612cff565b60408051600180825281830190925260609160009190602080830190803683370190505090508281600081518110611eda57634e487b7160e01b600052603260045260246000fd5b602090810291909101015292915050565b6001600160a01b0384163b1561137c5760405163f23a6e6160e01b81526001600160a01b0385169063f23a6e6190611f2f9089908990889088908890600401612c6f565b602060405180830381600087803b158015611f4957600080fd5b505af1925050508015611f79575060408051601f3d908101601f19168201909252611f7691810190612ab1565b60015b611f8557611dc16130fd565b6001600160e01b0319811663f23a6e6160e01b146114ab5760405162461bcd60e51b815260040161057590612cff565b6001600160a01b0381163b6120225760405162461bcd60e51b815260206004820152602d60248201527f455243313936373a206e657720696d706c656d656e746174696f6e206973206e60448201526c1bdd08184818dbdb9d1c9858dd609a1b6064820152608401610575565b6000805160206131b483398151915280546001600160a01b0319166001600160a01b0392909216919091179055565b61205a8361221a565b6000825111806120675750805b15610e6757610fff838361225a565b600054610100900460ff1661209d5760405162461bcd60e51b815260040161057590612f3e565b61092781612345565b600054610100900460ff166120cd5760405162461bcd60e51b815260040161057590612f3e565b610ee13361195d565b6001600160a01b0385166121795760005b83518110156121775782818151811061211057634e487b7160e01b600052603260045260246000fd5b602002602001015160fb600086848151811061213c57634e487b7160e01b600052603260045260246000fd5b6020026020010151815260200190815260200160002060008282546121619190612ff4565b909155506121709050816130b6565b90506120e7565b505b6001600160a01b03841661137c5760005b83518110156114ab578281815181106121b357634e487b7160e01b600052603260045260246000fd5b602002602001015160fb60008684815181106121df57634e487b7160e01b600052603260045260246000fd5b602002602001015181526020019081526020016000206000828254612204919061300c565b909155506122139050816130b6565b905061218a565b61222381611fb5565b6040516001600160a01b038216907fbc7cd75a20ee27fd9adebab32041f755214dbc6bffa90cc0225b39da2e5c2d3b90600090a250565b60606001600160a01b0383163b6122c25760405162461bcd60e51b815260206004820152602660248201527f416464726573733a2064656c65676174652063616c6c20746f206e6f6e2d636f6044820152651b9d1c9858dd60d21b6064820152608401610575565b600080846001600160a01b0316846040516122dd9190612bf5565b600060405180830381855af49150503d8060008114612318576040519150601f19603f3d011682016040523d82523d6000602084013e61231d565b606091505b509150915061105382826040518060600160405280602781526020016131d460279139612358565b8051610c8e90606790602084019061241c565b60608315612367575081612391565b8251156123775782518084602001fd5b8160405162461bcd60e51b81526004016105759190612cec565b9392505050565b8280546123a49061304f565b90600052602060002090601f0160209004810192826123c6576000855561240c565b82601f106123df5782800160ff1982351617855561240c565b8280016001018555821561240c579182015b8281111561240c5782358255916020019190600101906123f1565b50612418929150612490565b5090565b8280546124289061304f565b90600052602060002090601f01602090048101928261244a576000855561240c565b82601f1061246357805160ff191683800117855561240c565b8280016001018555821561240c579182015b8281111561240c578251825591602001919060010190612475565b5b808211156124185760008155600101612491565b80356001600160a01b03811681146124bc57600080fd5b919050565b600082601f8301126124d1578081fd5b813560206124de82612fd1565b6040516124eb828261308a565b8381528281019150858301600585901b8701840188101561250a578586fd5b855b8581101561252f5761251d826124a5565b8452928401929084019060010161250c565b5090979650505050505050565b600082601f83011261254c578081fd5b8135602061255982612fd1565b604051612566828261308a565b8381528281019150858301600585901b87018401881015612585578586fd5b855b8581101561252f57813584529284019290840190600101612587565b600082601f8301126125b3578081fd5b81356001600160401b038111156125cc576125cc6130e7565b6040516125e3601f8301601f19166020018261308a565b8181528460208386010111156125f7578283fd5b816020850160208301379081016020019190915292915050565b60008083601f840112612622578182fd5b5081356001600160401b03811115612638578182fd5b60208301915083602082850101111561265057600080fd5b9250929050565b600060208284031215612668578081fd5b612391826124a5565b60008060408385031215612683578081fd5b61268c836124a5565b915061269a602084016124a5565b90509250929050565b600080600080600060a086880312156126ba578081fd5b6126c3866124a5565b94506126d1602087016124a5565b935060408601356001600160401b03808211156126ec578283fd5b6126f889838a0161253c565b9450606088013591508082111561270d578283fd5b61271989838a0161253c565b9350608088013591508082111561272e578283fd5b5061273b888289016125a3565b9150509295509295909350565b600080600080600060a0868803121561275f578081fd5b612768866124a5565b9450612776602087016124a5565b9350604086013592506060860135915060808601356001600160401b0381111561279e578182fd5b61273b888289016125a3565b600080600080608085870312156127bf578384fd5b6127c8856124a5565b935060208501356001600160401b03808211156127e3578485fd5b6127ef888389016124c1565b945060408701359350606087013591508082111561280b578283fd5b50612818878288016125a3565b91505092959194509250565b600080600060608486031215612838578283fd5b612841846124a5565b925060208401356001600160401b038082111561285c578384fd5b6128688783880161253c565b9350604086013591508082111561287d578283fd5b5061288a8682870161253c565b9150509250925092565b600080604083850312156128a6578182fd5b6128af836124a5565b9150602083013580151581146128c3578182fd5b809150509250929050565b600080604083850312156128e0578182fd5b6128e9836124a5565b915060208301356001600160401b03811115612903578182fd5b61290f858286016125a3565b9150509250929050565b6000806040838503121561292b578182fd5b612934836124a5565b946020939093013593505050565b60008060008060808587031215612957578182fd5b612960856124a5565b93506020850135925060408501356001600160401b0380821115612982578384fd5b61298e888389016125a3565b9350606087013591508082111561280b578283fd5b6000806000606084860312156129b7578081fd5b6129c0846124a5565b95602085013595506040909401359392505050565b600080600080608085870312156129ea578182fd5b6129f3856124a5565b9350602085013592506040850135915060608501356001600160401b03811115612a1b578182fd5b612818878288016125a3565b60008060408385031215612a39578182fd5b82356001600160401b0380821115612a4f578384fd5b612a5b868387016124c1565b93506020850135915080821115612a70578283fd5b5061290f8582860161253c565b600060208284031215612a8e578081fd5b5051919050565b600060208284031215612aa6578081fd5b81356123918161319d565b600060208284031215612ac2578081fd5b81516123918161319d565b60008060008060408587031215612ae2578182fd5b84356001600160401b0380821115612af8578384fd5b612b0488838901612611565b90965094506020870135915080821115612b1c578384fd5b50612b2987828801612611565b95989497509550505050565b60008060408385031215612b47578182fd5b82356001600160401b03811115612b5c578283fd5b612b68858286016125a3565b95602094909401359450505050565b600060208284031215612b88578081fd5b5035919050565b6000815180845260208085019450808401835b83811015612bbe57815187529582019590820190600101612ba2565b509495945050505050565b60008151808452612be1816020860160208601613023565b601f01601f19169290920160200192915050565b60008251612c07818460208701613023565b9190910192915050565b6001600160a01b0386811682528516602082015260a060408201819052600090612c3d90830186612b8f565b8281036060840152612c4f8186612b8f565b90508281036080840152612c638185612bc9565b98975050505050505050565b6001600160a01b03868116825285166020820152604081018490526060810183905260a060808201819052600090612ca990830184612bc9565b979650505050505050565b6020815260006123916020830184612b8f565b604081526000612cda6040830185612b8f565b82810360208401526110538185612b8f565b6020815260006123916020830184612bc9565b60208082526028908201527f455243313135353a204552433131353552656365697665722072656a656374656040820152676420746f6b656e7360c01b606082015260800190565b60208082526024908201527f455243313135353a206275726e20616d6f756e7420657863656564732062616c604082015263616e636560e01b606082015260800190565b6020808252602c908201527f46756e6374696f6e206d7573742062652063616c6c6564207468726f7567682060408201526b19195b1959d85d1958d85b1b60a21b606082015260800190565b60208082526029908201527f455243313135353a2063616c6c6572206973206e6f74206f776e6572206e6f7260408201526808185c1c1c9bdd995960ba1b606082015260800190565b6020808252602c908201527f46756e6374696f6e206d7573742062652063616c6c6564207468726f7567682060408201526b6163746976652070726f787960a01b606082015260800190565b60208082526025908201527f455243313135353a207472616e7366657220746f20746865207a65726f206164604082015264647265737360d81b606082015260800190565b60208082526023908201527f455243313135353a206275726e2066726f6d20746865207a65726f206164647260408201526265737360e81b606082015260800190565b6020808252602a908201527f455243313135353a20696e73756666696369656e742062616c616e636520666f60408201526939103a3930b739b332b960b11b606082015260800190565b6020808252602b908201527f496e697469616c697a61626c653a20636f6e7472616374206973206e6f74206960408201526a6e697469616c697a696e6760a81b606082015260800190565b60208082526028908201527f455243313135353a2069647320616e6420616d6f756e7473206c656e677468206040820152670dad2e6dac2e8c6d60c31b606082015260800190565b60006001600160401b03821115612fea57612fea6130e7565b5060051b60200190565b60008219821115613007576130076130d1565b500190565b60008282101561301e5761301e6130d1565b500390565b60005b8381101561303e578181015183820152602001613026565b83811115610fff5750506000910152565b600181811c9082168061306357607f821691505b6020821081141561308457634e487b7160e01b600052602260045260246000fd5b50919050565b601f8201601f191681016001600160401b03811182821017156130af576130af6130e7565b6040525050565b60006000198214156130ca576130ca6130d1565b5060010190565b634e487b7160e01b600052601160045260246000fd5b634e487b7160e01b600052604160045260246000fd5b600060033d1115610d4357600481823e5160e01c90565b600060443d10156131225790565b6040516003193d81016004833e81513d6001600160401b03816024840111818411171561315157505050505090565b82850191508151818111156131695750505050505090565b843d87010160208285010111156131835750505050505090565b6131926020828601018761308a565b509095945050505050565b6001600160e01b03198116811461092757600080fdfe360894a13ba1a3210667c828492db98dca3e2076cc3735a920a3ca505d382bbc416464726573733a206c6f772d6c6576656c2064656c65676174652063616c6c206661696c6564a26469706673582212209d557d645ed39793541e191315933bdb60882d7299c2f180af0def74b0c8515f64736f6c63430008040033","abi":[{"inputs":[],"stateMutability":"nonpayable","type":"constructor"},{"anonymous":false,"inputs":[{"indexed":false,"internalType":"address","name":"previousAdmin","type":"address"},{"indexed":false,"internalType":"address","name":"newAdmin","type":"address"}],"name":"AdminChanged","type":"event"},{"anonymous":false,"inputs":[{"indexed":true,"internalType":"address","name":"account","type":"address"},{"indexed":true,"internalType":"address","name":"operator","type":"address"},{"indexed":false,"internalType":"bool","name":"approved","type":"bool"}],"name":"ApprovalForAll","type":"event"},{"anonymous":false,"inputs":[{"indexed":true,"internalType":"address","name":"beacon","type":"address"}],"name":"BeaconUpgraded","type":"event"},{"anonymous":false,"inputs":[{"indexed":true,"internalType":"address","name":"previousOwner","type":"address"},{"indexed":true,"internalType":"address","name":"newOwner","type":"address"}],"name":"OwnershipTransferred","type":"event"},{"anonymous":false,"inputs":[{"indexed":true,"internalType":"address","name":"operator","type":"address"},{"indexed":true,"internalType":"address","name":"from","type":"address"},{"indexed":true,"internalType":"address","name":"to","type":"address"},{"indexed":false,"internalType":"uint256[]","name":"ids","type":"uint256[]"},{"indexed":false,"internalType":"uint256[]","name":"values","type":"uint256[]"}],"name":"TransferBatch","type":"event"},{"anonymous":false,"inputs":[{"indexed":true,"internalType":"address","name":"operator","type":"address"},{"indexed":true,"internalType":"address","name":"from","type":"address"},{"indexed":true,"internalType":"address","name":"to","type":"address"},{"indexed":false,"internalType":"uint256","name":"id","type":"uint256"},{"indexed":false,"internalType":"uint256","name":"value","type":"uint256"}],"name":"TransferSingle","type":"event"},{"anonymous":false,"inputs":[{"indexed":false,"internalType":"string","name":"value","type":"string"},{"indexed":true,"internalType":"uint256","name":"id","type":"uint256"}],"name":"URI","type":"event"},{"anonymous":false,"inputs":[{"indexed":true,"internalType":"address","name":"implementation","type":"address"}],"name":"Upgraded","type":"event"},{"inputs":[{"internalType":"address","name":"account","type":"address"},{"internalType":"uint256","name":"id","type":"uint256"}],"name":"balanceOf","outputs":[{"internalType":"uint256","name":"","type":"uint256"}],"stateMutability":"view","type":"function"},{"inputs":[{"internalType":"address[]","name":"accounts","type":"address[]"},{"internalType":"uint256[]","name":"ids","type":"uint256[]"}],"name":"balanceOfBatch","outputs":[{"internalType":"uint256[]","name":"","type":"uint256[]"}],"stateMutability":"view","type":"function"},{"inputs":[{"internalType":"address","name":"account","type":"address"},{"internalType":"uint256","name":"id","type":"uint256"},{"internalType":"uint256","name":"value","type":"uint256"}],"name":"burn","outputs":[],"stateMutability":"nonpayable","type":"function"},{"inputs":[{"internalType":"address","name":"account","type":"address"},{"internalType":"uint256[]","name":"ids","type":"uint256[]"},{"internalType":"uint256[]","name":"values","type":"uint256[]"}],"name":"burnBatch","outputs":[],"stateMutability":"nonpayable","type":"function"},{"inputs":[{"internalType":"address","name":"from","type":"address"},{"internalType":"address[]","name":"to","type":"address[]"},{"internalType":"uint256","name":"id","type":"uint256"},{"internalType":"bytes","name":"data","type":"bytes"}],"name":"distributeSingles","outputs":[],"stateMutability":"nonpayable","type":"function"},{"inputs":[{"internalType":"uint256","name":"id","type":"uint256"}],"name":"exists","outputs":[{"internalType":"bool","name":"","type":"bool"}],"stateMutability":"view","type":"function"},{"inputs":[{"internalType":"string","name":"_name","type":"string"},{"internalType":"string","name":"_symbol","type":"string"}],"name":"initialize","outputs":[],"stateMutability":"nonpayable","type":"function"},{"inputs":[{"internalType":"address","name":"account","type":"address"},{"internalType":"address","name":"operator","type":"address"}],"name":"isApprovedForAll","outputs":[{"internalType":"bool","name":"","type":"bool"}],"stateMutability":"view","type":"function"},{"inputs":[{"internalType":"address","name":"recipient","type":"address"},{"internalType":"uint256","name":"id","type":"uint256"},{"internalType":"uint256","name":"amount","type":"uint256"},{"internalType":"bytes","name":"data","type":"bytes"}],"name":"mint","outputs":[],"stateMutability":"nonpayable","type":"function"},{"inputs":[{"internalType":"address","name":"recipient","type":"address"},{"internalType":"uint256","name":"amount","type":"uint256"},{"internalType":"string","name":"metadata","type":"string"},{"internalType":"bytes","name":"data","type":"bytes"}],"name":"mint","outputs":[{"internalType":"uint256","name":"tokenId","type":"uint256"}],"stateMutability":"nonpayable","type":"function"},{"inputs":[],"name":"name","outputs":[{"internalType":"string","name":"","type":"string"}],"stateMutability":"view","type":"function"},{"inputs":[],"name":"owner","outputs":[{"internalType":"address","name":"","type":"address"}],"stateMutability":"view","type":"function"},{"inputs":[],"name":"proxiableUUID","outputs":[{"internalType":"bytes32","name":"","type":"bytes32"}],"stateMutability":"view","type":"function"},{"inputs":[],"name":"renounceOwnership","outputs":[],"stateMutability":"nonpayable","type":"function"},{"inputs":[{"internalType":"address","name":"from","type":"address"},{"internalType":"address","name":"to","type":"address"},{"internalType":"uint256[]","name":"ids","type":"uint256[]"},{"internalType":"uint256[]","name":"amounts","type":"uint256[]"},{"internalType":"bytes","name":"data","type":"bytes"}],"name":"safeBatchTransferFrom","outputs":[],"stateMutability":"nonpayable","type":"function"},{"inputs":[{"internalType":"address","name":"from","type":"address"},{"internalType":"address","name":"to","type":"address"},{"internalType":"uint256","name":"id","type":"uint256"},{"internalType":"uint256","name":"amount","type":"uint256"},{"internalType":"bytes","name":"data","type":"bytes"}],"name":"safeTransferFrom","outputs":[],"stateMutability":"nonpayable","type":"function"},{"inputs":[{"internalType":"address","name":"operator","type":"address"},{"internalType":"bool","name":"approved","type":"bool"}],"name":"setApprovalForAll","outputs":[],"stateMutability":"nonpayable","type":"function"},{"inputs":[{"internalType":"string","name":"newuri","type":"string"},{"internalType":"uint256","name":"tokenId","type":"uint256"}],"name":"setURI","outputs":[],"stateMutability":"nonpayable","type":"function"},{"inputs":[{"internalType":"bytes4","name":"interfaceId","type":"bytes4"}],"name":"supportsInterface","outputs":[{"internalType":"bool","name":"","type":"bool"}],"stateMutability":"view","type":"function"},{"inputs":[],"name":"symbol","outputs":[{"internalType":"string","name":"","type":"string"}],"stateMutability":"view","type":"function"},{"inputs":[],"name":"tokenTypeCount","outputs":[{"internalType":"uint256","name":"numTypes","type":"uint256"}],"stateMutability":"view","type":"function"},{"inputs":[{"internalType":"uint256","name":"id","type":"uint256"}],"name":"totalSupply","outputs":[{"internalType":"uint256","name":"","type":"uint256"}],"stateMutability":"view","type":"function"},{"inputs":[{"internalType":"address","name":"newOwner","type":"address"}],"name":"transferOwnership","outputs":[],"stateMutability":"nonpayable","type":"function"},{"inputs":[{"internalType":"address","name":"newImplementation","type":"address"}],"name":"upgradeTo","outputs":[],"stateMutability":"nonpayable","type":"function"},{"inputs":[{"internalType":"address","name":"newImplementation","type":"address"},{"internalType":"bytes","name":"data","type":"bytes"}],"name":"upgradeToAndCall","outputs":[],"stateMutability":"payable","type":"function"},{"inputs":[{"internalType":"uint256","name":"tokenId","type":"uint256"}],"name":"uri","outputs":[{"internalType":"string","name":"","type":"string"}],"stateMutability":"view","type":"function"}]}