{"address":"0xe66eB8D0CE247330622f71d70A080C2F51550eBe","bytecode":"0x60a06040523060601b6080523480156200001857600080fd5b50600054610100900460ff16620000365760005460ff161562000040565b62000040620000e5565b620000a85760405162461bcd60e51b815260206004820152602e60248201527f496e697469616c697a61626c653a20636f6e747261637420697320616c72656160448201526d191e481a5b9a5d1a585b1a5e995960921b606482015260840160405180910390fd5b600054610100900460ff16158015620000cb576000805461ffff19166101011790555b8015620000de576000805461ff00191690555b5062000112565b6000620000fd306200010360201b62000e9f1760201c565b15905090565b6001600160a01b03163b151590565b60805160601c612f516200014d600039600081816107c40152818161080401528181610b3801528181610b780152610c0b0152612f516000f3fe60806040526004361061014a5760003560e01c806352d1902d116100b6578063a22cb4651161006f578063a22cb465146103ac578063bd85b039146103cc578063e985e9c5146103f9578063f242432a14610442578063f2fde38b14610462578063f5298aca1461048257600080fd5b806352d1902d146103055780636b20c4541461031a578063715018a61461033a578063731133e91461034f5780638da5cb5b1461036f57806395d89b411461039757600080fd5b80632eb2c2d6116101085780632eb2c2d6146102365780633659cfe6146102565780634cd88b76146102765780634e1273f4146102965780634f1ef286146102c35780634f558e79146102d657600080fd5b8062fdd58e1461014f57806301ffc9a71461018257806302fe5305146101b257806306fdde03146101d45780630e89341c146101f65780631f7fdffa14610216575b600080fd5b34801561015b57600080fd5b5061016f61016a3660046125b0565b6104a2565b6040519081526020015b60405180910390f35b34801561018e57600080fd5b506101a261019d366004612735565b61053b565b6040519015158152602001610179565b3480156101be57600080fd5b506101d26101cd3660046127d5565b61058d565b005b3480156101e057600080fd5b506101e96105c3565b6040516101799190612997565b34801561020257600080fd5b506101e9610211366004612822565b610652565b34801561022257600080fd5b506101d2610231366004612497565b6106e6565b34801561024257600080fd5b506101d2610251366004612320565b610722565b34801561026257600080fd5b506101d26102713660046122d4565b6107b9565b34801561028257600080fd5b506101d261029136600461276d565b610896565b3480156102a257600080fd5b506102b66102b136600461265d565b6109cc565b604051610179919061295f565b6101d26102d1366004612565565b610b2d565b3480156102e257600080fd5b506101a26102f1366004612822565b600090815260fb6020526040902054151590565b34801561031157600080fd5b5061016f610bfe565b34801561032657600080fd5b506101d2610335366004612427565b610cb2565b34801561034657600080fd5b506101d2610cfa565b34801561035b57600080fd5b506101d261036a36600461260b565b610d30565b34801561037b57600080fd5b506097546040516001600160a01b039091168152602001610179565b3480156103a357600080fd5b506101e9610d66565b3480156103b857600080fd5b506101d26103c736600461252b565b610d74565b3480156103d857600080fd5b5061016f6103e7366004612822565b600090815260fb602052604090205490565b34801561040557600080fd5b506101a26104143660046122ee565b6001600160a01b03918216600090815260666020908152604080832093909416825291909152205460ff1690565b34801561044e57600080fd5b506101d261045d3660046123c5565b610d7f565b34801561046e57600080fd5b506101d261047d3660046122d4565b610dc4565b34801561048e57600080fd5b506101d261049d3660046125d9565b610e5c565b60006001600160a01b0383166105135760405162461bcd60e51b815260206004820152602b60248201527f455243313135353a2062616c616e636520717565727920666f7220746865207a60448201526a65726f206164647265737360a81b60648201526084015b60405180910390fd5b5060009081526065602090815260408083206001600160a01b03949094168352929052205490565b60006001600160e01b03198216636cdb3d1360e11b148061056c57506001600160e01b031982166303a24d0760e21b145b8061058757506301ffc9a760e01b6001600160e01b03198316145b92915050565b6097546001600160a01b031633146105b75760405162461bcd60e51b815260040161050a90612be9565b6105c081610eae565b50565b61019180546105d190612d70565b80601f01602080910402602001604051908101604052809291908181526020018280546105fd90612d70565b801561064a5780601f1061061f5761010080835404028352916020019161064a565b820191906000526020600020905b81548152906001019060200180831161062d57829003601f168201915b505050505081565b60606067805461066190612d70565b80601f016020809104026020016040519081016040528092919081815260200182805461068d90612d70565b80156106da5780601f106106af576101008083540402835291602001916106da565b820191906000526020600020905b8154815290600101906020018083116106bd57829003601f168201915b50505050509050919050565b6097546001600160a01b031633146107105760405162461bcd60e51b815260040161050a90612be9565b61071c84848484610ec1565b50505050565b6001600160a01b03851633148061073e575061073e8533610414565b6107a55760405162461bcd60e51b815260206004820152603260248201527f455243313135353a207472616e736665722063616c6c6572206973206e6f74206044820152711bdddb995c881b9bdc88185c1c1c9bdd995960721b606482015260840161050a565b6107b28585858585611038565b5050505050565b306001600160a01b037f00000000000000000000000000000000000000000000000000000000000000001614156108025760405162461bcd60e51b815260040161050a90612a36565b7f00000000000000000000000000000000000000000000000000000000000000006001600160a01b031661084b600080516020612ed5833981519152546001600160a01b031690565b6001600160a01b0316146108715760405162461bcd60e51b815260040161050a90612acb565b61087a81611201565b604080516000808252602082019092526105c09183919061122b565b600054610100900460ff166108b15760005460ff16156108b5565b303b155b6109185760405162461bcd60e51b815260206004820152602e60248201527f496e697469616c697a61626c653a20636f6e747261637420697320616c72656160448201526d191e481a5b9a5d1a585b1a5e995960921b606482015260840161050a565b600054610100900460ff1615801561093a576000805461ffff19166101011790555b6109476101918686612075565b506109556101928484612075565b506109946040518060400160405280602081526020017f4572726f723a2053696e676c6520546f6b656e20555249204e6f7420557365648152506113a5565b61099c6113d5565b6109a4611404565b6109ac611404565b6109b4611404565b80156107b2576000805461ff00191690555050505050565b60608151835114610a315760405162461bcd60e51b815260206004820152602960248201527f455243313135353a206163636f756e747320616e6420696473206c656e677468604482015268040dad2e6dac2e8c6d60bb1b606482015260840161050a565b600083516001600160401b03811115610a5a57634e487b7160e01b600052604160045260246000fd5b604051908082528060200260200182016040528015610a83578160200160208202803683370190505b50905060005b8451811015610b2557610aea858281518110610ab557634e487b7160e01b600052603260045260246000fd5b6020026020010151858381518110610add57634e487b7160e01b600052603260045260246000fd5b60200260200101516104a2565b828281518110610b0a57634e487b7160e01b600052603260045260246000fd5b6020908102919091010152610b1e81612dd7565b9050610a89565b509392505050565b306001600160a01b037f0000000000000000000000000000000000000000000000000000000000000000161415610b765760405162461bcd60e51b815260040161050a90612a36565b7f00000000000000000000000000000000000000000000000000000000000000006001600160a01b0316610bbf600080516020612ed5833981519152546001600160a01b031690565b6001600160a01b031614610be55760405162461bcd60e51b815260040161050a90612acb565b610bee82611201565b610bfa8282600161122b565b5050565b6000306001600160a01b037f00000000000000000000000000000000000000000000000000000000000000001614610c9e5760405162461bcd60e51b815260206004820152603860248201527f555550535570677261646561626c653a206d757374206e6f742062652063616c60448201527f6c6564207468726f7567682064656c656761746563616c6c0000000000000000606482015260840161050a565b50600080516020612ed58339815191525b90565b6001600160a01b038316331480610cce5750610cce8333610414565b610cea5760405162461bcd60e51b815260040161050a90612a82565b610cf583838361142b565b505050565b6097546001600160a01b03163314610d245760405162461bcd60e51b815260040161050a90612be9565b610d2e60006115d8565b565b6097546001600160a01b03163314610d5a5760405162461bcd60e51b815260040161050a90612be9565b61071c8484848461162a565b61019280546105d190612d70565b610bfa338383611702565b6001600160a01b038516331480610d9b5750610d9b8533610414565b610db75760405162461bcd60e51b815260040161050a90612a82565b6107b285858585856117e3565b6097546001600160a01b03163314610dee5760405162461bcd60e51b815260040161050a90612be9565b6001600160a01b038116610e535760405162461bcd60e51b815260206004820152602660248201527f4f776e61626c653a206e6577206f776e657220697320746865207a65726f206160448201526564647265737360d01b606482015260840161050a565b6105c0816115d8565b6001600160a01b038316331480610e785750610e788333610414565b610e945760405162461bcd60e51b815260040161050a90612a82565b610cf5838383611904565b6001600160a01b03163b151590565b8051610bfa9060679060208401906120f9565b6001600160a01b038416610ee75760405162461bcd60e51b815260040161050a90612cb1565b8151835114610f085760405162461bcd60e51b815260040161050a90612c69565b33610f1881600087878787611a09565b60005b8451811015610fd057838181518110610f4457634e487b7160e01b600052603260045260246000fd5b602002602001015160656000878481518110610f7057634e487b7160e01b600052603260045260246000fd5b602002602001015181526020019081526020016000206000886001600160a01b03166001600160a01b031681526020019081526020016000206000828254610fb89190612d15565b90915550819050610fc881612dd7565b915050610f1b565b50846001600160a01b031660006001600160a01b0316826001600160a01b03167f4a39dc06d4c0dbc64b70af90fd698a233a518aa5d07e595d983b8c0526c8f7fb8787604051611021929190612972565b60405180910390a46107b281600087878787611a17565b81518351146110595760405162461bcd60e51b815260040161050a90612c69565b6001600160a01b03841661107f5760405162461bcd60e51b815260040161050a90612b17565b3361108e818787878787611a09565b60005b84518110156111935760008582815181106110bc57634e487b7160e01b600052603260045260246000fd5b6020026020010151905060008583815181106110e857634e487b7160e01b600052603260045260246000fd5b60209081029190910181015160008481526065835260408082206001600160a01b038e1683529093529190912054909150818110156111395760405162461bcd60e51b815260040161050a90612b9f565b60008381526065602090815260408083206001600160a01b038e8116855292528083208585039055908b16825281208054849290611178908490612d15565b925050819055505050508061118c90612dd7565b9050611091565b50846001600160a01b0316866001600160a01b0316826001600160a01b03167f4a39dc06d4c0dbc64b70af90fd698a233a518aa5d07e595d983b8c0526c8f7fb87876040516111e3929190612972565b60405180910390a46111f9818787878787611a17565b505050505050565b6097546001600160a01b031633146105c05760405162461bcd60e51b815260040161050a90612be9565b7f4910fdfa16fed3260ed0e7147f7cc6da11a60208b5b9406d12a635614ffd91435460ff161561125e57610cf583611b82565b826001600160a01b03166352d1902d6040518163ffffffff1660e01b815260040160206040518083038186803b15801561129757600080fd5b505afa9250505080156112c7575060408051601f3d908101601f191682019092526112c49181019061271d565b60015b61132a5760405162461bcd60e51b815260206004820152602e60248201527f45524331393637557067726164653a206e657720696d706c656d656e7461746960448201526d6f6e206973206e6f74205555505360901b606482015260840161050a565b600080516020612ed583398151915281146113995760405162461bcd60e51b815260206004820152602960248201527f45524331393637557067726164653a20756e737570706f727465642070726f786044820152681a58589b195555525160ba1b606482015260840161050a565b50610cf5838383611c1e565b600054610100900460ff166113cc5760405162461bcd60e51b815260040161050a90612c1e565b6105c081611c43565b600054610100900460ff166113fc5760405162461bcd60e51b815260040161050a90612c1e565b610d2e611c6a565b600054610100900460ff16610d2e5760405162461bcd60e51b815260040161050a90612c1e565b6001600160a01b0383166114515760405162461bcd60e51b815260040161050a90612b5c565b80518251146114725760405162461bcd60e51b815260040161050a90612c69565b600033905061149581856000868660405180602001604052806000815250611a09565b60005b83518110156115795760008482815181106114c357634e487b7160e01b600052603260045260246000fd5b6020026020010151905060008483815181106114ef57634e487b7160e01b600052603260045260246000fd5b60209081029190910181015160008481526065835260408082206001600160a01b038c1683529093529190912054909150818110156115405760405162461bcd60e51b815260040161050a906129f2565b60009283526065602090815260408085206001600160a01b038b168652909152909220910390558061157181612dd7565b915050611498565b5060006001600160a01b0316846001600160a01b0316826001600160a01b03167f4a39dc06d4c0dbc64b70af90fd698a233a518aa5d07e595d983b8c0526c8f7fb86866040516115ca929190612972565b60405180910390a450505050565b609780546001600160a01b038381166001600160a01b0319831681179093556040519116919082907f8be0079c531659141344cd1fd0a4f28419497f9722a3daafe3b4186f6b6457e090600090a35050565b6001600160a01b0384166116505760405162461bcd60e51b815260040161050a90612cb1565b336116708160008761166188611c9a565b61166a88611c9a565b87611a09565b60008481526065602090815260408083206001600160a01b0389168452909152812080548592906116a2908490612d15565b909155505060408051858152602081018590526001600160a01b0380881692600092918516917fc3d58168c5ae7397731d063d5bbf3d657854427343f4c083240f7aacaa2d0f62910160405180910390a46107b281600087878787611cf3565b816001600160a01b0316836001600160a01b031614156117765760405162461bcd60e51b815260206004820152602960248201527f455243313135353a2073657474696e6720617070726f76616c20737461747573604482015268103337b91039b2b63360b91b606482015260840161050a565b6001600160a01b03838116600081815260666020908152604080832094871680845294825291829020805460ff191686151590811790915591519182527f17307eab39ab6107e8899845ad3d59bd9653f200f220920489ca2b5937696c31910160405180910390a3505050565b6001600160a01b0384166118095760405162461bcd60e51b815260040161050a90612b17565b3361181981878761166188611c9a565b60008481526065602090815260408083206001600160a01b038a1684529091529020548381101561185c5760405162461bcd60e51b815260040161050a90612b9f565b60008581526065602090815260408083206001600160a01b038b811685529252808320878503905590881682528120805486929061189b908490612d15565b909155505060408051868152602081018690526001600160a01b03808916928a821692918616917fc3d58168c5ae7397731d063d5bbf3d657854427343f4c083240f7aacaa2d0f62910160405180910390a46118fb828888888888611cf3565b50505050505050565b6001600160a01b03831661192a5760405162461bcd60e51b815260040161050a90612b5c565b336119598185600061193b87611c9a565b61194487611c9a565b60405180602001604052806000815250611a09565b60008381526065602090815260408083206001600160a01b03881684529091529020548281101561199c5760405162461bcd60e51b815260040161050a906129f2565b60008481526065602090815260408083206001600160a01b03898116808652918452828520888703905582518981529384018890529092908616917fc3d58168c5ae7397731d063d5bbf3d657854427343f4c083240f7aacaa2d0f62910160405180910390a45050505050565b6111f9868686868686611dbd565b6001600160a01b0384163b156111f95760405163bc197c8160e01b81526001600160a01b0385169063bc197c8190611a5b90899089908890889088906004016128bc565b602060405180830381600087803b158015611a7557600080fd5b505af1925050508015611aa5575060408051601f3d908101601f19168201909252611aa291810190612751565b60015b611b5257611ab1612e1e565b806308c379a01415611aeb5750611ac6612e35565b80611ad15750611aed565b8060405162461bcd60e51b815260040161050a9190612997565b505b60405162461bcd60e51b815260206004820152603460248201527f455243313135353a207472616e7366657220746f206e6f6e20455243313135356044820152732932b1b2b4bb32b91034b6b83632b6b2b73a32b960611b606482015260840161050a565b6001600160e01b0319811663bc197c8160e01b146118fb5760405162461bcd60e51b815260040161050a906129aa565b6001600160a01b0381163b611bef5760405162461bcd60e51b815260206004820152602d60248201527f455243313936373a206e657720696d706c656d656e746174696f6e206973206e60448201526c1bdd08184818dbdb9d1c9858dd609a1b606482015260840161050a565b600080516020612ed583398151915280546001600160a01b0319166001600160a01b0392909216919091179055565b611c2783611f01565b600082511180611c345750805b15610cf55761071c8383611f41565b600054610100900460ff166105b75760405162461bcd60e51b815260040161050a90612c1e565b600054610100900460ff16611c915760405162461bcd60e51b815260040161050a90612c1e565b610d2e336115d8565b60408051600180825281830190925260609160009190602080830190803683370190505090508281600081518110611ce257634e487b7160e01b600052603260045260246000fd5b602090810291909101015292915050565b6001600160a01b0384163b156111f95760405163f23a6e6160e01b81526001600160a01b0385169063f23a6e6190611d37908990899088908890889060040161291a565b602060405180830381600087803b158015611d5157600080fd5b505af1925050508015611d81575060408051601f3d908101601f19168201909252611d7e91810190612751565b60015b611d8d57611ab1612e1e565b6001600160e01b0319811663f23a6e6160e01b146118fb5760405162461bcd60e51b815260040161050a906129aa565b6001600160a01b038516611e605760005b8351811015611e5e57828181518110611df757634e487b7160e01b600052603260045260246000fd5b602002602001015160fb6000868481518110611e2357634e487b7160e01b600052603260045260246000fd5b602002602001015181526020019081526020016000206000828254611e489190612d15565b90915550611e57905081612dd7565b9050611dce565b505b6001600160a01b0384166111f95760005b83518110156118fb57828181518110611e9a57634e487b7160e01b600052603260045260246000fd5b602002602001015160fb6000868481518110611ec657634e487b7160e01b600052603260045260246000fd5b602002602001015181526020019081526020016000206000828254611eeb9190612d2d565b90915550611efa905081612dd7565b9050611e71565b611f0a81611b82565b6040516001600160a01b038216907fbc7cd75a20ee27fd9adebab32041f755214dbc6bffa90cc0225b39da2e5c2d3b90600090a250565b60606001600160a01b0383163b611fa95760405162461bcd60e51b815260206004820152602660248201527f416464726573733a2064656c65676174652063616c6c20746f206e6f6e2d636f6044820152651b9d1c9858dd60d21b606482015260840161050a565b600080846001600160a01b031684604051611fc491906128a0565b600060405180830381855af49150503d8060008114611fff576040519150601f19603f3d011682016040523d82523d6000602084013e612004565b606091505b509150915061202c8282604051806060016040528060278152602001612ef560279139612035565b95945050505050565b6060831561204457508161206e565b8251156120545782518084602001fd5b8160405162461bcd60e51b815260040161050a9190612997565b9392505050565b82805461208190612d70565b90600052602060002090601f0160209004810192826120a357600085556120e9565b82601f106120bc5782800160ff198235161785556120e9565b828001600101855582156120e9579182015b828111156120e95782358255916020019190600101906120ce565b506120f592915061216d565b5090565b82805461210590612d70565b90600052602060002090601f01602090048101928261212757600085556120e9565b82601f1061214057805160ff19168380011785556120e9565b828001600101855582156120e9579182015b828111156120e9578251825591602001919060010190612152565b5b808211156120f5576000815560010161216e565b60006001600160401b0383111561219b5761219b612e08565b6040516121b2601f8501601f191660200182612dab565b8091508381528484840111156121c757600080fd5b83836020830137600060208583010152509392505050565b80356001600160a01b03811681146121f657600080fd5b919050565b600082601f83011261220b578081fd5b8135602061221882612cf2565b6040516122258282612dab565b8381528281019150858301600585901b87018401881015612244578586fd5b855b8581101561226257813584529284019290840190600101612246565b5090979650505050505050565b600082601f83011261227f578081fd5b61206e83833560208501612182565b60008083601f84011261229f578182fd5b5081356001600160401b038111156122b5578182fd5b6020830191508360208285010111156122cd57600080fd5b9250929050565b6000602082840312156122e5578081fd5b61206e826121df565b60008060408385031215612300578081fd5b612309836121df565b9150612317602084016121df565b90509250929050565b600080600080600060a08688031215612337578081fd5b612340866121df565b945061234e602087016121df565b935060408601356001600160401b0380821115612369578283fd5b61237589838a016121fb565b9450606088013591508082111561238a578283fd5b61239689838a016121fb565b935060808801359150808211156123ab578283fd5b506123b88882890161226f565b9150509295509295909350565b600080600080600060a086880312156123dc578081fd5b6123e5866121df565b94506123f3602087016121df565b9350604086013592506060860135915060808601356001600160401b0381111561241b578182fd5b6123b88882890161226f565b60008060006060848603121561243b578283fd5b612444846121df565b925060208401356001600160401b038082111561245f578384fd5b61246b878388016121fb565b93506040860135915080821115612480578283fd5b5061248d868287016121fb565b9150509250925092565b600080600080608085870312156124ac578384fd5b6124b5856121df565b935060208501356001600160401b03808211156124d0578485fd5b6124dc888389016121fb565b945060408701359150808211156124f1578384fd5b6124fd888389016121fb565b93506060870135915080821115612512578283fd5b5061251f8782880161226f565b91505092959194509250565b6000806040838503121561253d578182fd5b612546836121df565b91506020830135801515811461255a578182fd5b809150509250929050565b60008060408385031215612577578182fd5b612580836121df565b915060208301356001600160401b0381111561259a578182fd5b6125a68582860161226f565b9150509250929050565b600080604083850312156125c2578182fd5b6125cb836121df565b946020939093013593505050565b6000806000606084860312156125ed578081fd5b6125f6846121df565b95602085013595506040909401359392505050565b60008060008060808587031215612620578182fd5b612629856121df565b9350602085013592506040850135915060608501356001600160401b03811115612651578182fd5b61251f8782880161226f565b6000806040838503121561266f578182fd5b82356001600160401b0380821115612685578384fd5b818501915085601f830112612698578384fd5b813560206126a582612cf2565b6040516126b28282612dab565b8381528281019150858301600585901b870184018b10156126d1578889fd5b8896505b848710156126fa576126e6816121df565b8352600196909601959183019183016126d5565b5096505086013592505080821115612710578283fd5b506125a6858286016121fb565b60006020828403121561272e578081fd5b5051919050565b600060208284031215612746578081fd5b813561206e81612ebe565b600060208284031215612762578081fd5b815161206e81612ebe565b60008060008060408587031215612782578182fd5b84356001600160401b0380821115612798578384fd5b6127a48883890161228e565b909650945060208701359150808211156127bc578384fd5b506127c98782880161228e565b95989497509550505050565b6000602082840312156127e6578081fd5b81356001600160401b038111156127fb578182fd5b8201601f8101841361280b578182fd5b61281a84823560208401612182565b949350505050565b600060208284031215612833578081fd5b5035919050565b6000815180845260208085019450808401835b838110156128695781518752958201959082019060010161284d565b509495945050505050565b6000815180845261288c816020860160208601612d44565b601f01601f19169290920160200192915050565b600082516128b2818460208701612d44565b9190910192915050565b6001600160a01b0386811682528516602082015260a0604082018190526000906128e89083018661283a565b82810360608401526128fa818661283a565b9050828103608084015261290e8185612874565b98975050505050505050565b6001600160a01b03868116825285166020820152604081018490526060810183905260a06080820181905260009061295490830184612874565b979650505050505050565b60208152600061206e602083018461283a565b604081526000612985604083018561283a565b828103602084015261202c818561283a565b60208152600061206e6020830184612874565b60208082526028908201527f455243313135353a204552433131353552656365697665722072656a656374656040820152676420746f6b656e7360c01b606082015260800190565b60208082526024908201527f455243313135353a206275726e20616d6f756e7420657863656564732062616c604082015263616e636560e01b606082015260800190565b6020808252602c908201527f46756e6374696f6e206d7573742062652063616c6c6564207468726f7567682060408201526b19195b1959d85d1958d85b1b60a21b606082015260800190565b60208082526029908201527f455243313135353a2063616c6c6572206973206e6f74206f776e6572206e6f7260408201526808185c1c1c9bdd995960ba1b606082015260800190565b6020808252602c908201527f46756e6374696f6e206d7573742062652063616c6c6564207468726f7567682060408201526b6163746976652070726f787960a01b606082015260800190565b60208082526025908201527f455243313135353a207472616e7366657220746f20746865207a65726f206164604082015264647265737360d81b606082015260800190565b60208082526023908201527f455243313135353a206275726e2066726f6d20746865207a65726f206164647260408201526265737360e81b606082015260800190565b6020808252602a908201527f455243313135353a20696e73756666696369656e742062616c616e636520666f60408201526939103a3930b739b332b960b11b606082015260800190565b6020808252818101527f4f776e61626c653a2063616c6c6572206973206e6f7420746865206f776e6572604082015260600190565b6020808252602b908201527f496e697469616c697a61626c653a20636f6e7472616374206973206e6f74206960408201526a6e697469616c697a696e6760a81b606082015260800190565b60208082526028908201527f455243313135353a2069647320616e6420616d6f756e7473206c656e677468206040820152670dad2e6dac2e8c6d60c31b606082015260800190565b60208082526021908201527f455243313135353a206d696e7420746f20746865207a65726f206164647265736040820152607360f81b606082015260800190565b60006001600160401b03821115612d0b57612d0b612e08565b5060051b60200190565b60008219821115612d2857612d28612df2565b500190565b600082821015612d3f57612d3f612df2565b500390565b60005b83811015612d5f578181015183820152602001612d47565b8381111561071c5750506000910152565b600181811c90821680612d8457607f821691505b60208210811415612da557634e487b7160e01b600052602260045260246000fd5b50919050565b601f8201601f191681016001600160401b0381118282101715612dd057612dd0612e08565b6040525050565b6000600019821415612deb57612deb612df2565b5060010190565b634e487b7160e01b600052601160045260246000fd5b634e487b7160e01b600052604160045260246000fd5b600060033d1115610caf57600481823e5160e01c90565b600060443d1015612e435790565b6040516003193d81016004833e81513d6001600160401b038160248401118184111715612e7257505050505090565b8285019150815181811115612e8a5750505050505090565b843d8701016020828501011115612ea45750505050505090565b612eb360208286010187612dab565b509095945050505050565b6001600160e01b0319811681146105c057600080fdfe360894a13ba1a3210667c828492db98dca3e2076cc3735a920a3ca505d382bbc416464726573733a206c6f772d6c6576656c2064656c65676174652063616c6c206661696c6564a264697066735822122067b2a45c4c6c24d547b12dfc81dcd16578bda86a184c04e2a033d7a66200d64464736f6c63430008040033","abi":[{"inputs":[],"stateMutability":"nonpayable","type":"constructor"},{"anonymous":false,"inputs":[{"indexed":false,"internalType":"address","name":"previousAdmin","type":"address"},{"indexed":false,"internalType":"address","name":"newAdmin","type":"address"}],"name":"AdminChanged","type":"event"},{"anonymous":false,"inputs":[{"indexed":true,"internalType":"address","name":"account","type":"address"},{"indexed":true,"internalType":"address","name":"operator","type":"address"},{"indexed":false,"internalType":"bool","name":"approved","type":"bool"}],"name":"ApprovalForAll","type":"event"},{"anonymous":false,"inputs":[{"indexed":true,"internalType":"address","name":"beacon","type":"address"}],"name":"BeaconUpgraded","type":"event"},{"anonymous":false,"inputs":[{"indexed":true,"internalType":"address","name":"previousOwner","type":"address"},{"indexed":true,"internalType":"address","name":"newOwner","type":"address"}],"name":"OwnershipTransferred","type":"event"},{"anonymous":false,"inputs":[{"indexed":true,"internalType":"address","name":"operator","type":"address"},{"indexed":true,"internalType":"address","name":"from","type":"address"},{"indexed":true,"internalType":"address","name":"to","type":"address"},{"indexed":false,"internalType":"uint256[]","name":"ids","type":"uint256[]"},{"indexed":false,"internalType":"uint256[]","name":"values","type":"uint256[]"}],"name":"TransferBatch","type":"event"},{"anonymous":false,"inputs":[{"indexed":true,"internalType":"address","name":"operator","type":"address"},{"indexed":true,"internalType":"address","name":"from","type":"address"},{"indexed":true,"internalType":"address","name":"to","type":"address"},{"indexed":false,"internalType":"uint256","name":"id","type":"uint256"},{"indexed":false,"internalType":"uint256","name":"value","type":"uint256"}],"name":"TransferSingle","type":"event"},{"anonymous":false,"inputs":[{"indexed":false,"internalType":"string","name":"value","type":"string"},{"indexed":true,"internalType":"uint256","name":"id","type":"uint256"}],"name":"URI","type":"event"},{"anonymous":false,"inputs":[{"indexed":true,"internalType":"address","name":"implementation","type":"address"}],"name":"Upgraded","type":"event"},{"inputs":[{"internalType":"address","name":"account","type":"address"},{"internalType":"uint256","name":"id","type":"uint256"}],"name":"balanceOf","outputs":[{"internalType":"uint256","name":"","type":"uint256"}],"stateMutability":"view","type":"function"},{"inputs":[{"internalType":"address[]","name":"accounts","type":"address[]"},{"internalType":"uint256[]","name":"ids","type":"uint256[]"}],"name":"balanceOfBatch","outputs":[{"internalType":"uint256[]","name":"","type":"uint256[]"}],"stateMutability":"view","type":"function"},{"inputs":[{"internalType":"address","name":"account","type":"address"},{"internalType":"uint256","name":"id","type":"uint256"},{"internalType":"uint256","name":"value","type":"uint256"}],"name":"burn","outputs":[],"stateMutability":"nonpayable","type":"function"},{"inputs":[{"internalType":"address","name":"account","type":"address"},{"internalType":"uint256[]","name":"ids","type":"uint256[]"},{"internalType":"uint256[]","name":"values","type":"uint256[]"}],"name":"burnBatch","outputs":[],"stateMutability":"nonpayable","type":"function"},{"inputs":[{"internalType":"uint256","name":"id","type":"uint256"}],"name":"exists","outputs":[{"internalType":"bool","name":"","type":"bool"}],"stateMutability":"view","type":"function"},{"inputs":[{"internalType":"string","name":"_name","type":"string"},{"internalType":"string","name":"_symbol","type":"string"}],"name":"initialize","outputs":[],"stateMutability":"nonpayable","type":"function"},{"inputs":[{"internalType":"address","name":"account","type":"address"},{"internalType":"address","name":"operator","type":"address"}],"name":"isApprovedForAll","outputs":[{"internalType":"bool","name":"","type":"bool"}],"stateMutability":"view","type":"function"},{"inputs":[{"internalType":"address","name":"account","type":"address"},{"internalType":"uint256","name":"id","type":"uint256"},{"internalType":"uint256","name":"amount","type":"uint256"},{"internalType":"bytes","name":"data","type":"bytes"}],"name":"mint","outputs":[],"stateMutability":"nonpayable","type":"function"},{"inputs":[{"internalType":"address","name":"to","type":"address"},{"internalType":"uint256[]","name":"ids","type":"uint256[]"},{"internalType":"uint256[]","name":"amounts","type":"uint256[]"},{"internalType":"bytes","name":"data","type":"bytes"}],"name":"mintBatch","outputs":[],"stateMutability":"nonpayable","type":"function"},{"inputs":[],"name":"name","outputs":[{"internalType":"string","name":"","type":"string"}],"stateMutability":"view","type":"function"},{"inputs":[],"name":"owner","outputs":[{"internalType":"address","name":"","type":"address"}],"stateMutability":"view","type":"function"},{"inputs":[],"name":"proxiableUUID","outputs":[{"internalType":"bytes32","name":"","type":"bytes32"}],"stateMutability":"view","type":"function"},{"inputs":[],"name":"renounceOwnership","outputs":[],"stateMutability":"nonpayable","type":"function"},{"inputs":[{"internalType":"address","name":"from","type":"address"},{"internalType":"address","name":"to","type":"address"},{"internalType":"uint256[]","name":"ids","type":"uint256[]"},{"internalType":"uint256[]","name":"amounts","type":"uint256[]"},{"internalType":"bytes","name":"data","type":"bytes"}],"name":"safeBatchTransferFrom","outputs":[],"stateMutability":"nonpayable","type":"function"},{"inputs":[{"internalType":"address","name":"from","type":"address"},{"internalType":"address","name":"to","type":"address"},{"internalType":"uint256","name":"id","type":"uint256"},{"internalType":"uint256","name":"amount","type":"uint256"},{"internalType":"bytes","name":"data","type":"bytes"}],"name":"safeTransferFrom","outputs":[],"stateMutability":"nonpayable","type":"function"},{"inputs":[{"internalType":"address","name":"operator","type":"address"},{"internalType":"bool","name":"approved","type":"bool"}],"name":"setApprovalForAll","outputs":[],"stateMutability":"nonpayable","type":"function"},{"inputs":[{"internalType":"string","name":"newuri","type":"string"}],"name":"setURI","outputs":[],"stateMutability":"nonpayable","type":"function"},{"inputs":[{"internalType":"bytes4","name":"interfaceId","type":"bytes4"}],"name":"supportsInterface","outputs":[{"internalType":"bool","name":"","type":"bool"}],"stateMutability":"view","type":"function"},{"inputs":[],"name":"symbol","outputs":[{"internalType":"string","name":"","type":"string"}],"stateMutability":"view","type":"function"},{"inputs":[{"internalType":"uint256","name":"id","type":"uint256"}],"name":"totalSupply","outputs":[{"internalType":"uint256","name":"","type":"uint256"}],"stateMutability":"view","type":"function"},{"inputs":[{"internalType":"address","name":"newOwner","type":"address"}],"name":"transferOwnership","outputs":[],"stateMutability":"nonpayable","type":"function"},{"inputs":[{"internalType":"address","name":"newImplementation","type":"address"}],"name":"upgradeTo","outputs":[],"stateMutability":"nonpayable","type":"function"},{"inputs":[{"internalType":"address","name":"newImplementation","type":"address"},{"internalType":"bytes","name":"data","type":"bytes"}],"name":"upgradeToAndCall","outputs":[],"stateMutability":"payable","type":"function"},{"inputs":[{"internalType":"uint256","name":"","type":"uint256"}],"name":"uri","outputs":[{"internalType":"string","name":"","type":"string"}],"stateMutability":"view","type":"function"}]}