{
  "_format": "hh-sol-artifact-1",
  "contractName": "BulkDisbursableNFTs",
  "sourceName": "src/BulkDisbursableNFTs.sol",
  "abi": [
    {
      "inputs": [],
      "stateMutability": "nonpayable",
      "type": "constructor"
    },
    {
      "anonymous": false,
      "inputs": [
        {
          "indexed": false,
          "internalType": "address",
          "name": "previousAdmin",
          "type": "address"
        },
        {
          "indexed": false,
          "internalType": "address",
          "name": "newAdmin",
          "type": "address"
        }
      ],
      "name": "AdminChanged",
      "type": "event"
    },
    {
      "anonymous": false,
      "inputs": [
        {
          "indexed": true,
          "internalType": "address",
          "name": "account",
          "type": "address"
        },
        {
          "indexed": true,
          "internalType": "address",
          "name": "operator",
          "type": "address"
        },
        {
          "indexed": false,
          "internalType": "bool",
          "name": "approved",
          "type": "bool"
        }
      ],
      "name": "ApprovalForAll",
      "type": "event"
    },
    {
      "anonymous": false,
      "inputs": [
        {
          "indexed": true,
          "internalType": "address",
          "name": "beacon",
          "type": "address"
        }
      ],
      "name": "BeaconUpgraded",
      "type": "event"
    },
    {
      "anonymous": false,
      "inputs": [
        {
          "indexed": false,
          "internalType": "uint256",
          "name": "id",
          "type": "uint256"
        },
        {
          "indexed": false,
          "internalType": "address",
          "name": "controller",
          "type": "address"
        }
      ],
      "name": "Created",
      "type": "event"
    },
    {
      "anonymous": false,
      "inputs": [
        {
          "indexed": true,
          "internalType": "address",
          "name": "previousOwner",
          "type": "address"
        },
        {
          "indexed": true,
          "internalType": "address",
          "name": "newOwner",
          "type": "address"
        }
      ],
      "name": "OwnershipTransferred",
      "type": "event"
    },
    {
      "anonymous": false,
      "inputs": [
        {
          "indexed": true,
          "internalType": "address",
          "name": "operator",
          "type": "address"
        },
        {
          "indexed": true,
          "internalType": "address",
          "name": "from",
          "type": "address"
        },
        {
          "indexed": true,
          "internalType": "address",
          "name": "to",
          "type": "address"
        },
        {
          "indexed": false,
          "internalType": "uint256[]",
          "name": "ids",
          "type": "uint256[]"
        },
        {
          "indexed": false,
          "internalType": "uint256[]",
          "name": "values",
          "type": "uint256[]"
        }
      ],
      "name": "TransferBatch",
      "type": "event"
    },
    {
      "anonymous": false,
      "inputs": [
        {
          "indexed": true,
          "internalType": "address",
          "name": "operator",
          "type": "address"
        },
        {
          "indexed": true,
          "internalType": "address",
          "name": "from",
          "type": "address"
        },
        {
          "indexed": true,
          "internalType": "address",
          "name": "to",
          "type": "address"
        },
        {
          "indexed": false,
          "internalType": "uint256",
          "name": "id",
          "type": "uint256"
        },
        {
          "indexed": false,
          "internalType": "uint256",
          "name": "value",
          "type": "uint256"
        }
      ],
      "name": "TransferSingle",
      "type": "event"
    },
    {
      "anonymous": false,
      "inputs": [
        {
          "indexed": false,
          "internalType": "string",
          "name": "value",
          "type": "string"
        },
        {
          "indexed": true,
          "internalType": "uint256",
          "name": "id",
          "type": "uint256"
        }
      ],
      "name": "URI",
      "type": "event"
    },
    {
      "anonymous": false,
      "inputs": [
        {
          "indexed": true,
          "internalType": "address",
          "name": "implementation",
          "type": "address"
        }
      ],
      "name": "Upgraded",
      "type": "event"
    },
    {
      "inputs": [],
      "name": "ADDRESS_TYPE",
      "outputs": [
        {
          "internalType": "uint256",
          "name": "",
          "type": "uint256"
        }
      ],
      "stateMutability": "view",
      "type": "function"
    },
    {
      "inputs": [],
      "name": "COUNTER_WIDTH",
      "outputs": [
        {
          "internalType": "uint8",
          "name": "",
          "type": "uint8"
        }
      ],
      "stateMutability": "view",
      "type": "function"
    },
    {
      "inputs": [],
      "name": "EXPERIMENTAL_TYPE",
      "outputs": [
        {
          "internalType": "uint256",
          "name": "",
          "type": "uint256"
        }
      ],
      "stateMutability": "view",
      "type": "function"
    },
    {
      "inputs": [],
      "name": "GATING_TYPE",
      "outputs": [
        {
          "internalType": "uint256",
          "name": "",
          "type": "uint256"
        }
      ],
      "stateMutability": "view",
      "type": "function"
    },
    {
      "inputs": [],
      "name": "MEMBERSHIP_TYPE",
      "outputs": [
        {
          "internalType": "uint256",
          "name": "",
          "type": "uint256"
        }
      ],
      "stateMutability": "view",
      "type": "function"
    },
    {
      "inputs": [],
      "name": "REACTION_TYPE",
      "outputs": [
        {
          "internalType": "uint256",
          "name": "",
          "type": "uint256"
        }
      ],
      "stateMutability": "view",
      "type": "function"
    },
    {
      "inputs": [],
      "name": "RECORDED_TIME_TYPE",
      "outputs": [
        {
          "internalType": "uint256",
          "name": "",
          "type": "uint256"
        }
      ],
      "stateMutability": "view",
      "type": "function"
    },
    {
      "inputs": [],
      "name": "RECORDING_TYPE",
      "outputs": [
        {
          "internalType": "uint256",
          "name": "",
          "type": "uint256"
        }
      ],
      "stateMutability": "view",
      "type": "function"
    },
    {
      "inputs": [],
      "name": "REPETITION_BOUNDARY",
      "outputs": [
        {
          "internalType": "uint8",
          "name": "",
          "type": "uint8"
        }
      ],
      "stateMutability": "view",
      "type": "function"
    },
    {
      "inputs": [],
      "name": "REPETITION_WIDTH",
      "outputs": [
        {
          "internalType": "uint8",
          "name": "",
          "type": "uint8"
        }
      ],
      "stateMutability": "view",
      "type": "function"
    },
    {
      "inputs": [],
      "name": "REQUIREMENT_BOUNDARY",
      "outputs": [
        {
          "internalType": "uint8",
          "name": "",
          "type": "uint8"
        }
      ],
      "stateMutability": "view",
      "type": "function"
    },
    {
      "inputs": [],
      "name": "REQUIREMENT_WIDTH",
      "outputs": [
        {
          "internalType": "uint8",
          "name": "",
          "type": "uint8"
        }
      ],
      "stateMutability": "view",
      "type": "function"
    },
    {
      "inputs": [],
      "name": "REQUIRE_ALL",
      "outputs": [
        {
          "internalType": "uint256",
          "name": "",
          "type": "uint256"
        }
      ],
      "stateMutability": "view",
      "type": "function"
    },
    {
      "inputs": [],
      "name": "REQUIRE_NONE",
      "outputs": [
        {
          "internalType": "uint256",
          "name": "",
          "type": "uint256"
        }
      ],
      "stateMutability": "view",
      "type": "function"
    },
    {
      "inputs": [],
      "name": "REQUIRE_ONE",
      "outputs": [
        {
          "internalType": "uint256",
          "name": "",
          "type": "uint256"
        }
      ],
      "stateMutability": "view",
      "type": "function"
    },
    {
      "inputs": [],
      "name": "REVIEW_TYPE",
      "outputs": [
        {
          "internalType": "uint256",
          "name": "",
          "type": "uint256"
        }
      ],
      "stateMutability": "view",
      "type": "function"
    },
    {
      "inputs": [],
      "name": "ROLE_BOUNDARY",
      "outputs": [
        {
          "internalType": "uint8",
          "name": "",
          "type": "uint8"
        }
      ],
      "stateMutability": "view",
      "type": "function"
    },
    {
      "inputs": [],
      "name": "ROLE_WIDTH",
      "outputs": [
        {
          "internalType": "uint8",
          "name": "",
          "type": "uint8"
        }
      ],
      "stateMutability": "view",
      "type": "function"
    },
    {
      "inputs": [],
      "name": "TEAM_1",
      "outputs": [
        {
          "internalType": "uint256",
          "name": "",
          "type": "uint256"
        }
      ],
      "stateMutability": "view",
      "type": "function"
    },
    {
      "inputs": [],
      "name": "TEAM_2",
      "outputs": [
        {
          "internalType": "uint256",
          "name": "",
          "type": "uint256"
        }
      ],
      "stateMutability": "view",
      "type": "function"
    },
    {
      "inputs": [],
      "name": "TEAM_3",
      "outputs": [
        {
          "internalType": "uint256",
          "name": "",
          "type": "uint256"
        }
      ],
      "stateMutability": "view",
      "type": "function"
    },
    {
      "inputs": [],
      "name": "TEAM_4",
      "outputs": [
        {
          "internalType": "uint256",
          "name": "",
          "type": "uint256"
        }
      ],
      "stateMutability": "view",
      "type": "function"
    },
    {
      "inputs": [],
      "name": "TEAM_5",
      "outputs": [
        {
          "internalType": "uint256",
          "name": "",
          "type": "uint256"
        }
      ],
      "stateMutability": "view",
      "type": "function"
    },
    {
      "inputs": [],
      "name": "TEAM_6",
      "outputs": [
        {
          "internalType": "uint256",
          "name": "",
          "type": "uint256"
        }
      ],
      "stateMutability": "view",
      "type": "function"
    },
    {
      "inputs": [],
      "name": "TEAM_7",
      "outputs": [
        {
          "internalType": "uint256",
          "name": "",
          "type": "uint256"
        }
      ],
      "stateMutability": "view",
      "type": "function"
    },
    {
      "inputs": [],
      "name": "TEAM_8",
      "outputs": [
        {
          "internalType": "uint256",
          "name": "",
          "type": "uint256"
        }
      ],
      "stateMutability": "view",
      "type": "function"
    },
    {
      "inputs": [],
      "name": "TEAM_9",
      "outputs": [
        {
          "internalType": "uint256",
          "name": "",
          "type": "uint256"
        }
      ],
      "stateMutability": "view",
      "type": "function"
    },
    {
      "inputs": [],
      "name": "TEAM_A",
      "outputs": [
        {
          "internalType": "uint256",
          "name": "",
          "type": "uint256"
        }
      ],
      "stateMutability": "view",
      "type": "function"
    },
    {
      "inputs": [],
      "name": "TEAM_B",
      "outputs": [
        {
          "internalType": "uint256",
          "name": "",
          "type": "uint256"
        }
      ],
      "stateMutability": "view",
      "type": "function"
    },
    {
      "inputs": [],
      "name": "TEAM_BOUNDARY",
      "outputs": [
        {
          "internalType": "uint8",
          "name": "",
          "type": "uint8"
        }
      ],
      "stateMutability": "view",
      "type": "function"
    },
    {
      "inputs": [],
      "name": "TEAM_C",
      "outputs": [
        {
          "internalType": "uint256",
          "name": "",
          "type": "uint256"
        }
      ],
      "stateMutability": "view",
      "type": "function"
    },
    {
      "inputs": [],
      "name": "TEAM_D",
      "outputs": [
        {
          "internalType": "uint256",
          "name": "",
          "type": "uint256"
        }
      ],
      "stateMutability": "view",
      "type": "function"
    },
    {
      "inputs": [],
      "name": "TEAM_WIDTH",
      "outputs": [
        {
          "internalType": "uint8",
          "name": "",
          "type": "uint8"
        }
      ],
      "stateMutability": "view",
      "type": "function"
    },
    {
      "inputs": [],
      "name": "TYPE_BOUNDARY",
      "outputs": [
        {
          "internalType": "uint8",
          "name": "",
          "type": "uint8"
        }
      ],
      "stateMutability": "view",
      "type": "function"
    },
    {
      "inputs": [],
      "name": "TYPE_WIDTH",
      "outputs": [
        {
          "internalType": "uint8",
          "name": "",
          "type": "uint8"
        }
      ],
      "stateMutability": "view",
      "type": "function"
    },
    {
      "inputs": [],
      "name": "UNIQUE",
      "outputs": [
        {
          "internalType": "uint256",
          "name": "",
          "type": "uint256"
        }
      ],
      "stateMutability": "view",
      "type": "function"
    },
    {
      "inputs": [],
      "name": "UNIQUENESS_BOUNDARY",
      "outputs": [
        {
          "internalType": "uint8",
          "name": "",
          "type": "uint8"
        }
      ],
      "stateMutability": "view",
      "type": "function"
    },
    {
      "inputs": [],
      "name": "UNIQUENESS_WIDTH",
      "outputs": [
        {
          "internalType": "uint8",
          "name": "",
          "type": "uint8"
        }
      ],
      "stateMutability": "view",
      "type": "function"
    },
    {
      "inputs": [],
      "name": "USE_AFTER",
      "outputs": [
        {
          "internalType": "uint256",
          "name": "",
          "type": "uint256"
        }
      ],
      "stateMutability": "view",
      "type": "function"
    },
    {
      "inputs": [],
      "name": "USE_ONCE",
      "outputs": [
        {
          "internalType": "uint256",
          "name": "",
          "type": "uint256"
        }
      ],
      "stateMutability": "view",
      "type": "function"
    },
    {
      "inputs": [],
      "name": "USE_UNLIMITED",
      "outputs": [
        {
          "internalType": "uint256",
          "name": "",
          "type": "uint256"
        }
      ],
      "stateMutability": "view",
      "type": "function"
    },
    {
      "inputs": [],
      "name": "USE_UNTIL",
      "outputs": [
        {
          "internalType": "uint256",
          "name": "",
          "type": "uint256"
        }
      ],
      "stateMutability": "view",
      "type": "function"
    },
    {
      "inputs": [],
      "name": "VANILLA_TYPE",
      "outputs": [
        {
          "internalType": "uint256",
          "name": "",
          "type": "uint256"
        }
      ],
      "stateMutability": "view",
      "type": "function"
    },
    {
      "inputs": [],
      "name": "VOUCHED_TIME_TYPE",
      "outputs": [
        {
          "internalType": "uint256",
          "name": "",
          "type": "uint256"
        }
      ],
      "stateMutability": "view",
      "type": "function"
    },
    {
      "inputs": [
        {
          "internalType": "address",
          "name": "account",
          "type": "address"
        },
        {
          "internalType": "uint256",
          "name": "id",
          "type": "uint256"
        }
      ],
      "name": "balanceOf",
      "outputs": [
        {
          "internalType": "uint256",
          "name": "",
          "type": "uint256"
        }
      ],
      "stateMutability": "view",
      "type": "function"
    },
    {
      "inputs": [
        {
          "internalType": "address[]",
          "name": "accounts",
          "type": "address[]"
        },
        {
          "internalType": "uint256[]",
          "name": "ids",
          "type": "uint256[]"
        }
      ],
      "name": "balanceOfBatch",
      "outputs": [
        {
          "internalType": "uint256[]",
          "name": "",
          "type": "uint256[]"
        }
      ],
      "stateMutability": "view",
      "type": "function"
    },
    {
      "inputs": [
        {
          "internalType": "address",
          "name": "account",
          "type": "address"
        },
        {
          "internalType": "uint256",
          "name": "id",
          "type": "uint256"
        },
        {
          "internalType": "uint256",
          "name": "value",
          "type": "uint256"
        }
      ],
      "name": "burn",
      "outputs": [],
      "stateMutability": "nonpayable",
      "type": "function"
    },
    {
      "inputs": [
        {
          "internalType": "address",
          "name": "account",
          "type": "address"
        },
        {
          "internalType": "uint256[]",
          "name": "ids",
          "type": "uint256[]"
        },
        {
          "internalType": "uint256[]",
          "name": "values",
          "type": "uint256[]"
        }
      ],
      "name": "burnBatch",
      "outputs": [],
      "stateMutability": "nonpayable",
      "type": "function"
    },
    {
      "inputs": [
        {
          "internalType": "uint256",
          "name": "id",
          "type": "uint256"
        },
        {
          "internalType": "string",
          "name": "newURI",
          "type": "string"
        },
        {
          "internalType": "uint256",
          "name": "max",
          "type": "uint256"
        }
      ],
      "name": "configure",
      "outputs": [],
      "stateMutability": "nonpayable",
      "type": "function"
    },
    {
      "inputs": [
        {
          "internalType": "address",
          "name": "maintainer",
          "type": "address"
        }
      ],
      "name": "create",
      "outputs": [
        {
          "internalType": "uint256",
          "name": "id",
          "type": "uint256"
        }
      ],
      "stateMutability": "nonpayable",
      "type": "function"
    },
    {
      "inputs": [],
      "name": "create",
      "outputs": [
        {
          "internalType": "uint256",
          "name": "id",
          "type": "uint256"
        }
      ],
      "stateMutability": "nonpayable",
      "type": "function"
    },
    {
      "inputs": [
        {
          "internalType": "uint256",
          "name": "id",
          "type": "uint256"
        }
      ],
      "name": "exists",
      "outputs": [
        {
          "internalType": "bool",
          "name": "",
          "type": "bool"
        }
      ],
      "stateMutability": "view",
      "type": "function"
    },
    {
      "inputs": [
        {
          "internalType": "enum BulkDisbursableNFTs.Role",
          "name": "role",
          "type": "uint8"
        },
        {
          "internalType": "address",
          "name": "user",
          "type": "address"
        }
      ],
      "name": "grantRole",
      "outputs": [
        {
          "internalType": "bool",
          "name": "added",
          "type": "bool"
        }
      ],
      "stateMutability": "nonpayable",
      "type": "function"
    },
    {
      "inputs": [
        {
          "internalType": "enum BulkDisbursableNFTs.Role",
          "name": "role",
          "type": "uint8"
        },
        {
          "internalType": "address",
          "name": "user",
          "type": "address"
        },
        {
          "internalType": "uint256",
          "name": "id",
          "type": "uint256"
        }
      ],
      "name": "grantRole",
      "outputs": [
        {
          "internalType": "bool",
          "name": "added",
          "type": "bool"
        }
      ],
      "stateMutability": "nonpayable",
      "type": "function"
    },
    {
      "inputs": [
        {
          "internalType": "enum BulkDisbursableNFTs.Role",
          "name": "role",
          "type": "uint8"
        }
      ],
      "name": "hasRole",
      "outputs": [
        {
          "internalType": "bool",
          "name": "has",
          "type": "bool"
        }
      ],
      "stateMutability": "view",
      "type": "function"
    },
    {
      "inputs": [
        {
          "internalType": "enum BulkDisbursableNFTs.Role",
          "name": "role",
          "type": "uint8"
        },
        {
          "internalType": "address",
          "name": "user",
          "type": "address"
        },
        {
          "internalType": "uint256",
          "name": "id",
          "type": "uint256"
        }
      ],
      "name": "hasRole",
      "outputs": [
        {
          "internalType": "bool",
          "name": "has",
          "type": "bool"
        }
      ],
      "stateMutability": "view",
      "type": "function"
    },
    {
      "inputs": [
        {
          "internalType": "enum BulkDisbursableNFTs.Role",
          "name": "role",
          "type": "uint8"
        },
        {
          "internalType": "uint256",
          "name": "id",
          "type": "uint256"
        }
      ],
      "name": "hasRole",
      "outputs": [
        {
          "internalType": "bool",
          "name": "has",
          "type": "bool"
        }
      ],
      "stateMutability": "view",
      "type": "function"
    },
    {
      "inputs": [
        {
          "internalType": "enum BulkDisbursableNFTs.Role",
          "name": "role",
          "type": "uint8"
        },
        {
          "internalType": "address",
          "name": "user",
          "type": "address"
        }
      ],
      "name": "hasRole",
      "outputs": [
        {
          "internalType": "bool",
          "name": "has",
          "type": "bool"
        }
      ],
      "stateMutability": "view",
      "type": "function"
    },
    {
      "inputs": [
        {
          "internalType": "string",
          "name": "_name",
          "type": "string"
        },
        {
          "internalType": "string",
          "name": "_symbol",
          "type": "string"
        }
      ],
      "name": "initialize",
      "outputs": [],
      "stateMutability": "nonpayable",
      "type": "function"
    },
    {
      "inputs": [
        {
          "internalType": "address",
          "name": "account",
          "type": "address"
        },
        {
          "internalType": "address",
          "name": "operator",
          "type": "address"
        }
      ],
      "name": "isApprovedForAll",
      "outputs": [
        {
          "internalType": "bool",
          "name": "",
          "type": "bool"
        }
      ],
      "stateMutability": "view",
      "type": "function"
    },
    {
      "inputs": [
        {
          "internalType": "address",
          "name": "user",
          "type": "address"
        }
      ],
      "name": "isSuper",
      "outputs": [
        {
          "internalType": "bool",
          "name": "superuser",
          "type": "bool"
        }
      ],
      "stateMutability": "view",
      "type": "function"
    },
    {
      "inputs": [],
      "name": "isSuper",
      "outputs": [
        {
          "internalType": "bool",
          "name": "superuser",
          "type": "bool"
        }
      ],
      "stateMutability": "view",
      "type": "function"
    },
    {
      "inputs": [
        {
          "internalType": "address[]",
          "name": "to",
          "type": "address[]"
        },
        {
          "internalType": "uint256",
          "name": "id",
          "type": "uint256"
        },
        {
          "internalType": "bytes",
          "name": "data",
          "type": "bytes"
        }
      ],
      "name": "mint",
      "outputs": [],
      "stateMutability": "nonpayable",
      "type": "function"
    },
    {
      "inputs": [
        {
          "internalType": "address",
          "name": "recipient",
          "type": "address"
        },
        {
          "internalType": "uint256",
          "name": "id",
          "type": "uint256"
        },
        {
          "internalType": "uint256",
          "name": "amount",
          "type": "uint256"
        },
        {
          "internalType": "bytes",
          "name": "data",
          "type": "bytes"
        }
      ],
      "name": "mint",
      "outputs": [
        {
          "internalType": "bool",
          "name": "minted",
          "type": "bool"
        }
      ],
      "stateMutability": "nonpayable",
      "type": "function"
    },
    {
      "inputs": [],
      "name": "name",
      "outputs": [
        {
          "internalType": "string",
          "name": "",
          "type": "string"
        }
      ],
      "stateMutability": "view",
      "type": "function"
    },
    {
      "inputs": [],
      "name": "owner",
      "outputs": [
        {
          "internalType": "address",
          "name": "",
          "type": "address"
        }
      ],
      "stateMutability": "view",
      "type": "function"
    },
    {
      "inputs": [],
      "name": "proxiableUUID",
      "outputs": [
        {
          "internalType": "bytes32",
          "name": "",
          "type": "bytes32"
        }
      ],
      "stateMutability": "view",
      "type": "function"
    },
    {
      "inputs": [],
      "name": "renounceOwnership",
      "outputs": [],
      "stateMutability": "nonpayable",
      "type": "function"
    },
    {
      "inputs": [
        {
          "internalType": "enum BulkDisbursableNFTs.Role",
          "name": "role",
          "type": "uint8"
        }
      ],
      "name": "roleToken",
      "outputs": [
        {
          "internalType": "uint256",
          "name": "tokenId",
          "type": "uint256"
        }
      ],
      "stateMutability": "view",
      "type": "function"
    },
    {
      "inputs": [
        {
          "internalType": "enum BulkDisbursableNFTs.Role",
          "name": "role",
          "type": "uint8"
        },
        {
          "internalType": "uint256",
          "name": "id",
          "type": "uint256"
        }
      ],
      "name": "roleToken",
      "outputs": [
        {
          "internalType": "uint256",
          "name": "tokenId",
          "type": "uint256"
        }
      ],
      "stateMutability": "view",
      "type": "function"
    },
    {
      "inputs": [
        {
          "internalType": "string",
          "name": "roleName",
          "type": "string"
        }
      ],
      "name": "roleValueForName",
      "outputs": [
        {
          "internalType": "enum BulkDisbursableNFTs.Role",
          "name": "role",
          "type": "uint8"
        }
      ],
      "stateMutability": "pure",
      "type": "function"
    },
    {
      "inputs": [
        {
          "internalType": "address",
          "name": "from",
          "type": "address"
        },
        {
          "internalType": "address",
          "name": "to",
          "type": "address"
        },
        {
          "internalType": "uint256[]",
          "name": "ids",
          "type": "uint256[]"
        },
        {
          "internalType": "uint256[]",
          "name": "amounts",
          "type": "uint256[]"
        },
        {
          "internalType": "bytes",
          "name": "data",
          "type": "bytes"
        }
      ],
      "name": "safeBatchTransferFrom",
      "outputs": [],
      "stateMutability": "nonpayable",
      "type": "function"
    },
    {
      "inputs": [
        {
          "internalType": "address",
          "name": "from",
          "type": "address"
        },
        {
          "internalType": "address",
          "name": "to",
          "type": "address"
        },
        {
          "internalType": "uint256",
          "name": "id",
          "type": "uint256"
        },
        {
          "internalType": "uint256",
          "name": "amount",
          "type": "uint256"
        },
        {
          "internalType": "bytes",
          "name": "data",
          "type": "bytes"
        }
      ],
      "name": "safeTransferFrom",
      "outputs": [],
      "stateMutability": "nonpayable",
      "type": "function"
    },
    {
      "inputs": [
        {
          "internalType": "address",
          "name": "operator",
          "type": "address"
        },
        {
          "internalType": "bool",
          "name": "approved",
          "type": "bool"
        }
      ],
      "name": "setApprovalForAll",
      "outputs": [],
      "stateMutability": "nonpayable",
      "type": "function"
    },
    {
      "inputs": [
        {
          "internalType": "string",
          "name": "_name",
          "type": "string"
        },
        {
          "internalType": "string",
          "name": "_symbol",
          "type": "string"
        }
      ],
      "name": "setDescription",
      "outputs": [],
      "stateMutability": "nonpayable",
      "type": "function"
    },
    {
      "inputs": [
        {
          "internalType": "uint256",
          "name": "id",
          "type": "uint256"
        },
        {
          "internalType": "uint256",
          "name": "max",
          "type": "uint256"
        }
      ],
      "name": "setMax",
      "outputs": [],
      "stateMutability": "nonpayable",
      "type": "function"
    },
    {
      "inputs": [
        {
          "internalType": "uint256",
          "name": "id",
          "type": "uint256"
        },
        {
          "internalType": "string",
          "name": "newURI",
          "type": "string"
        }
      ],
      "name": "setURI",
      "outputs": [],
      "stateMutability": "nonpayable",
      "type": "function"
    },
    {
      "inputs": [
        {
          "internalType": "bytes4",
          "name": "interfaceId",
          "type": "bytes4"
        }
      ],
      "name": "supportsInterface",
      "outputs": [
        {
          "internalType": "bool",
          "name": "",
          "type": "bool"
        }
      ],
      "stateMutability": "view",
      "type": "function"
    },
    {
      "inputs": [],
      "name": "symbol",
      "outputs": [
        {
          "internalType": "string",
          "name": "",
          "type": "string"
        }
      ],
      "stateMutability": "view",
      "type": "function"
    },
    {
      "inputs": [
        {
          "internalType": "uint256",
          "name": "index",
          "type": "uint256"
        }
      ],
      "name": "tokenByIndex",
      "outputs": [
        {
          "internalType": "uint256",
          "name": "",
          "type": "uint256"
        }
      ],
      "stateMutability": "view",
      "type": "function"
    },
    {
      "inputs": [
        {
          "internalType": "address",
          "name": "owner",
          "type": "address"
        },
        {
          "internalType": "uint256",
          "name": "index",
          "type": "uint256"
        }
      ],
      "name": "tokenOfOwnerByIndex",
      "outputs": [
        {
          "internalType": "uint256",
          "name": "",
          "type": "uint256"
        }
      ],
      "stateMutability": "view",
      "type": "function"
    },
    {
      "inputs": [],
      "name": "totalSupply",
      "outputs": [
        {
          "internalType": "uint256",
          "name": "count",
          "type": "uint256"
        }
      ],
      "stateMutability": "view",
      "type": "function"
    },
    {
      "inputs": [
        {
          "internalType": "uint256",
          "name": "id",
          "type": "uint256"
        }
      ],
      "name": "totalSupply",
      "outputs": [
        {
          "internalType": "uint256",
          "name": "",
          "type": "uint256"
        }
      ],
      "stateMutability": "view",
      "type": "function"
    },
    {
      "inputs": [
        {
          "internalType": "address",
          "name": "newOwner",
          "type": "address"
        }
      ],
      "name": "transferOwnership",
      "outputs": [],
      "stateMutability": "nonpayable",
      "type": "function"
    },
    {
      "inputs": [
        {
          "internalType": "address",
          "name": "newImplementation",
          "type": "address"
        }
      ],
      "name": "upgradeTo",
      "outputs": [],
      "stateMutability": "nonpayable",
      "type": "function"
    },
    {
      "inputs": [
        {
          "internalType": "address",
          "name": "newImplementation",
          "type": "address"
        },
        {
          "internalType": "bytes",
          "name": "data",
          "type": "bytes"
        }
      ],
      "name": "upgradeToAndCall",
      "outputs": [],
      "stateMutability": "payable",
      "type": "function"
    },
    {
      "inputs": [
        {
          "internalType": "uint256",
          "name": "id",
          "type": "uint256"
        }
      ],
      "name": "uri",
      "outputs": [
        {
          "internalType": "string",
          "name": "metadata",
          "type": "string"
        }
      ],
      "stateMutability": "view",
      "type": "function"
    }
  ],
  "bytecode": "0x60a06040523060601b6080523480156200001857600080fd5b50600054610100900460ff16620000365760005460ff161562000040565b62000040620000e5565b620000a85760405162461bcd60e51b815260206004820152602e60248201527f496e697469616c697a61626c653a20636f6e747261637420697320616c72656160448201526d191e481a5b9a5d1a585b1a5e995960921b606482015260840160405180910390fd5b600054610100900460ff16158015620000cb576000805461ffff19166101011790555b8015620000de576000805461ff00191690555b5062000112565b6000620000fd306200010360201b620027a31760201c565b15905090565b6001600160a01b03163b151590565b60805160601c614e9a6200014d6000396000818161164b0152818161168b01528181611bf401528181611c340152611d4d0152614e9a6000f3fe6080604052600436106104bf5760003560e01c80635d5664e111610276578063aae5270f1161014f578063e5587f7a116100c1578063f242432a11610085578063f242432a14610d49578063f28a726d14610d69578063f2fde38b14610d7e578063f5298aca14610d9e578063f73a731114610dbe578063f8418ef314610dd357600080fd5b8063e5587f7a14610cac578063e864109214610cc1578063e985e9c514610cd6578063edc79bac14610d1f578063efc81a8c14610d3457600080fd5b8063bd85b03911610113578063bd85b03914610c20578063c3c8df9914610c4d578063c5a0d9b2146106be578063d701765014610c6d578063db58fe9514610c82578063dbd406e814610c9757600080fd5b8063aae5270f14610bb7578063aaeec72d14610bcc578063b8785f8a14610be1578063ba952df114610bf6578063baf42f9314610c0b57600080fd5b80638da5cb5b116101e85780639eb3f243116101ac5780639eb3f24314610b185780639ed9331814610b2d578063a22cb46514610b4d578063a8410bc114610b6d578063a9c906ae14610b82578063aa8e906614610b9757600080fd5b80638da5cb5b14610a86578063957dc9a014610aae57806395d89b4114610ac35780639d6d7eaa14610ad85780639e97b8f614610af857600080fd5b80636fa09a791161023a5780636fa09a7914610a07578063715018a614610a1c578063731133e914610a3157806383e5b21a14610a51578063862440e214610a66578063891fbef0146107b157600080fd5b80635d5664e11461097d5780635e2a33861461099d578063666e6fd5146109b25780636755d456146109c75780636b20c454146109e757600080fd5b80633659cfe6116103a85780634cd88b761161031a5780634f558e79116102de5780634f558e79146108da5780634f6ccce7146109095780635157b5631461092957806351d294251461093e57806352d1902d14610953578063552376611461096857600080fd5b80634cd88b76146108505780634ce7a244146108705780634e1273f4146108855780634f06c0fb146108b25780634f1ef286146108c757600080fd5b80633c176d9f1161036c5780633c176d9f146107b15780633dbe35de146107c65780633f79f1a4146107e65780634468031f146107fb57806344cca2df1461081b578063482895891461083057600080fd5b80633659cfe61461073257806339054c23146107525780633adbbbc1146107675780633b60bd011461077c5780633b91ceef1461079157600080fd5b806318160ddd116104415780632eb2c2d6116104055780632eb2c2d61461069e5780632ed58d81146106be5780632f745c59146106d357806330c9cf93146106f357806334628c1f1461070857806335ab86291461071d57600080fd5b806318160ddd1461061157806318ae23751461062757806319e0755c1461063c5780631c45349c1461065c5780632a7ccf131461067157600080fd5b80630e89341c116104885780630e89341c146105855780630ec0370f146105a557806311bb8afd146105c757806313affe4f146105dc57806314c46427146105f157600080fd5b8062fdd58e146104c457806301ffc9a7146104f7578063067ff8661461052757806306fdde031461054e5780630daec9e414610570575b600080fd5b3480156104d057600080fd5b506104e46104df366004614246565b610de8565b6040519081526020015b60405180910390f35b34801561050357600080fd5b506105176105123660046143cc565b610e84565b60405190151581526020016104ee565b34801561053357600080fd5b5061053c610ed4565b60405160ff90911681526020016104ee565b34801561055a57600080fd5b50610563610eef565b6040516104ee91906147c2565b34801561057c57600080fd5b506104e4610f7e565b34801561059157600080fd5b506105636105a036600461453c565b610f95565b3480156105b157600080fd5b506105c56105c0366004614355565b611147565b005b3480156105d357600080fd5b5061053c602a81565b3480156105e857600080fd5b506104e461119e565b3480156105fd57600080fd5b506104e461060c366004614404565b6111b4565b34801561061d57600080fd5b50610194546104e4565b34801561063357600080fd5b5061053c6111c1565b34801561064857600080fd5b50610517610657366004614404565b6111cf565b34801561066857600080fd5b506104e46111db565b34801561067d57600080fd5b5061069161068c3660046144f7565b6111fd565b6040516104ee919061476b565b3480156106aa57600080fd5b506105c56106b936600461404a565b6114d6565b3480156106ca57600080fd5b5061053c600381565b3480156106df57600080fd5b506104e46106ee366004614246565b61156d565b3480156106ff57600080fd5b506104e46115f1565b34801561071457600080fd5b506104e4611613565b34801561072957600080fd5b506104e4611629565b34801561073e57600080fd5b506105c561074d366004613ffe565b611640565b34801561075e57600080fd5b506104e4611720565b34801561077357600080fd5b506104e461174d565b34801561078857600080fd5b5061053c600d81565b34801561079d57600080fd5b506105c56107ac3660046145ed565b61176f565b3480156107bd57600080fd5b5061053c600881565b3480156107d257600080fd5b506104e46107e1366004614474565b6117f2565b3480156107f257600080fd5b506104e46118b9565b34801561080757600080fd5b50610517610816366004614439565b6118c7565b34801561082757600080fd5b5061053c611903565b34801561083c57600080fd5b5061051761084b366004614474565b61191c565b34801561085c57600080fd5b506105c561086b36600461448f565b611929565b34801561087c57600080fd5b506104e4611a4f565b34801561089157600080fd5b506108a56108a03660046142ff565b611a71565b6040516104ee9190614733565b3480156108be57600080fd5b506104e4611bd2565b6105c56108d53660046141fb565b611be9565b3480156108e657600080fd5b506105176108f536600461453c565b600090815260fb6020526040902054151590565b34801561091557600080fd5b506104e461092436600461453c565b611cb6565b34801561093557600080fd5b506104e4611d10565b34801561094a57600080fd5b506104e4611d32565b34801561095f57600080fd5b506104e4611d40565b34801561097457600080fd5b506104e4611df4565b34801561098957600080fd5b5061051761099836600461441e565b611e0d565b3480156109a957600080fd5b506104e4611e1b565b3480156109be57600080fd5b506104e4611e32565b3480156109d357600080fd5b506105c56109e236600461448f565b611e40565b3480156109f357600080fd5b506105c5610a02366004614151565b611e85565b348015610a1357600080fd5b506104e4611ecd565b348015610a2857600080fd5b506105c5611edb565b348015610a3d57600080fd5b50610517610a4c3660046142a1565b611f11565b348015610a5d57600080fd5b506104e4612100565b348015610a7257600080fd5b506105c5610a81366004614554565b612122565b348015610a9257600080fd5b506097546040516001600160a01b0390911681526020016104ee565b348015610aba57600080fd5b506104e46121fe565b348015610acf57600080fd5b5061056361222a565b348015610ae457600080fd5b506105c5610af336600461459d565b612238565b348015610b0457600080fd5b50610517610b1336600461441e565b61224d565b348015610b2457600080fd5b506104e461225b565b348015610b3957600080fd5b506104e4610b48366004613ffe565b612267565b348015610b5957600080fd5b506105c5610b683660046141c1565b6123cb565b348015610b7957600080fd5b506104e46123d6565b348015610b8e57600080fd5b506104e46123e2565b348015610ba357600080fd5b50610517610bb2366004614439565b6123ee565b348015610bc357600080fd5b506104e461252a565b348015610bd857600080fd5b506104e461254f565b348015610bed57600080fd5b5061053c600181565b348015610c0257600080fd5b5061053c612568565b348015610c1757600080fd5b506104e4612577565b348015610c2c57600080fd5b506104e4610c3b36600461453c565b600090815260fb602052604090205490565b348015610c5957600080fd5b50610517610c68366004613ffe565b612599565b348015610c7957600080fd5b506104e46125c1565b348015610c8e57600080fd5b506104e46125cd565b348015610ca357600080fd5b506104e46125e4565b348015610cb857600080fd5b5061053c6125fa565b348015610ccd57600080fd5b506104e4612615565b348015610ce257600080fd5b50610517610cf1366004614018565b6001600160a01b03918216600090815260666020908152604080832093909416825291909152205460ff1690565b348015610d2b57600080fd5b50610517612637565b348015610d4057600080fd5b506104e4612647565b348015610d5557600080fd5b506105c5610d643660046140ef565b612652565b348015610d7557600080fd5b506104e4612697565b348015610d8a57600080fd5b506105c5610d99366004613ffe565b6126a6565b348015610daa57600080fd5b506105c5610db936600461426f565b61273e565b348015610dca57600080fd5b5061053c612781565b348015610ddf57600080fd5b506104e461278d565b60006001600160a01b038316610e595760405162461bcd60e51b815260206004820152602b60248201527f455243313135353a2062616c616e636520717565727920666f7220746865207a60448201526a65726f206164647265737360a81b60648201526084015b60405180910390fd5b5060008181526065602090815260408083206001600160a01b03861684529091529020545b92915050565b60006001600160e01b03198216636cdb3d1360e11b1480610eb557506001600160e01b031982166303a24d0760e21b145b80610e7e57506301ffc9a760e01b6001600160e01b0319831614610e7e565b6008610ee2600d60ff614c6a565b610eec9190614c6a565b81565b6101918054610efd90614cb9565b80601f0160208091040260200160405190810160405280929190818152602001828054610f2990614cb9565b8015610f765780601f10610f4b57610100808354040283529160200191610f76565b820191906000526020600020905b815481529060010190602001808311610f5957829003601f168201915b505050505081565b610f8a600d60ff614c6a565b60ff16610400901b81565b60008181526101936020526040812080546060929190610fb490614cb9565b80601f0160208091040260200160405190810160405280929190818152602001828054610fe090614cb9565b801561102d5780601f106110025761010080835404028352916020019161102d565b820191906000526020600020905b81548152906001019060200180831161101057829003601f168201915b50505050509050805160001415610e7e57600861104c600d60ff614c6a565b6110569190614c6a565b60ff166001901b6008600d60ff61106d9190614c6a565b6110779190614c6a565b60ff16600161108860086002614ba8565b6110929190614c53565b901b84161415610e7e576503ffffffffff19831660008181526101936020526040902080546110c090614cb9565b80601f01602080910402602001604051908101604052809291908181526020018280546110ec90614cb9565b80156111395780601f1061110e57610100808354040283529160200191611139565b820191906000526020600020905b81548152906001019060200180831161111c57829003601f168201915b505050505091505092915050565b60005b83518110156111985761118784828151811061117657634e487b7160e01b600052603260045260246000fd5b602002602001015184600185611f11565b5061119181614d20565b905061114a565b50505050565b6111aa600d60ff614c6a565b60ff166010901b81565b6000610e7e8260006117f2565b6003610ee2600d60ff614c6a565b6000610e7e823361224d565b60086111e9600d60ff614c6a565b6111f39190614c6a565b60ff166006901b81565b600080826040516020016112119190614674565b604051602081830303815290604052805190602001209050604051602001611248906829bab832b93ab9b2b960b91b815260090190565b6040516020818303038152906040528051906020012081141561126e5750600192915050565b6040516526b4b73a32b960d11b6020820152602601604051602081830303815290604052805190602001208114156112a95750600292915050565b6040516521b0b9ba32b960d11b6020820152602601604051602081830303815290604052805190602001208114156112e45750600392915050565b604051692a3930b739b332b932b960b11b6020820152602a01604051602081830303815290604052805190602001208114156113235750600492915050565b6040516921b7b73334b3bab932b960b11b6020820152602a01604051602081830303815290604052805190602001208114156113625750600592915050565b6040516926b0b4b73a30b4b732b960b11b6020820152602a01604051602081830303815290604052805190602001208114156113a15750600692915050565b6040516621b932b0ba37b960c91b6020820152602701604051602081830303815290604052805190602001208114156113dd5750600792915050565b604051662634b6b4ba32b960c91b6020820152602701604051602081830303815290604052805190602001208114156114195750600892915050565b60405165213ab93732b960d11b6020820152602601604051602081830303815290604052805190602001208114156114545750600992915050565b604051682232b9ba3937bcb2b960b91b6020820152602901604051602081830303815290604052805190602001208114156114925750600a92915050565b604051654f7261636c6560d01b6020820152602601604051602081830303815290604052805190602001208114156114cd5750600b92915050565b50600092915050565b6001600160a01b0385163314806114f257506114f28533610cf1565b6115595760405162461bcd60e51b815260206004820152603260248201527f455243313135353a207472616e736665722063616c6c6572206973206e6f74206044820152711bdddb995c881b9bdc88185c1c1c9bdd995960721b6064820152608401610e50565b61156685858585856127b2565b5050505050565b6001600160a01b0382166000908152610196602052604081205482106115a55760405162461bcd60e51b8152600401610e5090614a49565b6001600160a01b0383166000908152610196602052604090208054839081106115de57634e487b7160e01b600052603260045260246000fd5b9060005260206000200154905092915050565b60086115ff600d60ff614c6a565b6116099190614c6a565b60ff166004901b81565b61161f600d60ff614c6a565b60ff166020901b81565b611635600d60ff614c6a565b60ff16611000901b81565b306001600160a01b037f00000000000000000000000000000000000000000000000000000000000000001614156116895760405162461bcd60e51b8152600401610e5090614861565b7f00000000000000000000000000000000000000000000000000000000000000006001600160a01b03166116d2600080516020614e1e833981519152546001600160a01b031690565b6001600160a01b0316146116f85760405162461bcd60e51b8152600401610e50906148f6565b6117018161297b565b6040805160008082526020820190925261171d91839190612a05565b50565b60038061172f600d60ff614c6a565b6117399190614c6a565b6117439190614c6a565b60ff166002901b81565b600861175b600d60ff614c6a565b6117659190614c6a565b60ff166005901b81565b61177a60088361191c565b806117885750611788612637565b6117ee5760405162461bcd60e51b815260206004820152603160248201527f596f75206d75737420686176652061204c696d6974657220746f6b656e20746f6044820152701031b430b733b29038bab0b73a34ba3c9760791b6064820152608401610e50565b5050565b600081600880611804600d60ff614c6a565b61180e9190614c6a565b6118189190614c6a565b60ff1684603c81111561183b57634e487b7160e01b600052602160045260246000fd5b901b600160038061184e600d60ff614c6a565b6118589190614c6a565b6118629190614c6a565b61186c9190614c6a565b60ff166001901b6008600d60ff6118839190614c6a565b61188d9190614c6a565b60ff166001901b61189e9190614b4d565b6118a89190614b4d565b6118b29190614b4d565b9392505050565b6008611739600d60ff614c6a565b6000806118d3856111b4565b905060006118e18583610de8565b11806118fa575060006118f8856104df8685614b4d565b115b95945050505050565b600380611912600d60ff614c6a565b610ee29190614c6a565b60006118b28333846118c7565b600054610100900460ff166119445760005460ff1615611948565b303b155b6119ab5760405162461bcd60e51b815260206004820152602e60248201527f496e697469616c697a61626c653a20636f6e747261637420697320616c72656160448201526d191e481a5b9a5d1a585b1a5e995960921b6064820152608401610e50565b600054610100900460ff161580156119cd576000805461ffff19166101011790555b6119d5612b7f565b611a136040518060400160405280602081526020017f4572726f723a2053696e676c6520546f6b656e20555249204e6f742055736564815250612bae565b611a1b612bde565b611a23612bde565b611a2b612bde565b611a3785858585611e40565b8015611566576000805461ff00191690555050505050565b6003611a5d600d60ff614c6a565b611a679190614c6a565b60ff166003901b81565b60608151835114611ad65760405162461bcd60e51b815260206004820152602960248201527f455243313135353a206163636f756e747320616e6420696473206c656e677468604482015268040dad2e6dac2e8c6d60bb1b6064820152608401610e50565b600083516001600160401b03811115611aff57634e487b7160e01b600052604160045260246000fd5b604051908082528060200260200182016040528015611b28578160200160208202803683370190505b50905060005b8451811015611bca57611b8f858281518110611b5a57634e487b7160e01b600052603260045260246000fd5b6020026020010151858381518110611b8257634e487b7160e01b600052603260045260246000fd5b6020026020010151610de8565b828281518110611baf57634e487b7160e01b600052603260045260246000fd5b6020908102919091010152611bc381614d20565b9050611b2e565b509392505050565b611bde600d60ff614c6a565b60ff16610800901b81565b306001600160a01b037f0000000000000000000000000000000000000000000000000000000000000000161415611c325760405162461bcd60e51b8152600401610e5090614861565b7f00000000000000000000000000000000000000000000000000000000000000006001600160a01b0316611c7b600080516020614e1e833981519152546001600160a01b031690565b6001600160a01b031614611ca15760405162461bcd60e51b8152600401610e50906148f6565b611caa8261297b565b6117ee82826001612a05565b610194546000908210611cdb5760405162461bcd60e51b8152600401610e5090614a49565b610194805483908110611cfe57634e487b7160e01b600052603260045260246000fd5b90600052602060002001549050919050565b6003611d1e600d60ff614c6a565b611d289190614c6a565b60ff166001901b81565b6008611d1e600d60ff614c6a565b6000306001600160a01b037f00000000000000000000000000000000000000000000000000000000000000001614611de05760405162461bcd60e51b815260206004820152603860248201527f555550535570677261646561626c653a206d757374206e6f742062652063616c60448201527f6c6564207468726f7567682064656c656761746563616c6c00000000000000006064820152608401610e50565b50600080516020614e1e8339815191525b90565b600380611e03600d60ff614c6a565b6115ff9190614c6a565b60006118b2838360006123ee565b611e27600d60ff614c6a565b60ff16610100901b81565b6008611a5d600d60ff614c6a565b6097546001600160a01b03163314611e6a5760405162461bcd60e51b8152600401610e5090614a14565b611e776101918585613d22565b506115666101928383613d22565b6001600160a01b038316331480611ea15750611ea18333610cf1565b611ebd5760405162461bcd60e51b8152600401610e50906148ad565b611ec8838383612c05565b505050565b6003611739600d60ff614c6a565b6097546001600160a01b03163314611f055760405162461bcd60e51b8152600401610e5090614a14565b611f0f6000612db2565b565b60006001600380611f24600d60ff614c6a565b611f2e9190614c6a565b611f389190614c6a565b611f429190614c6a565b60ff166001901b6001600380600d60ff611f5c9190614c6a565b611f669190614c6a565b611f709190614c6a565b611f7a9190614c6a565b60ff166001901b8516148015611f9957506000611f978686610de8565b115b15611fa6575060006120f8565b6008611fb4600d60ff614c6a565b611fbe9190614c6a565b60ff166001901b6008600d60ff611fd59190614c6a565b611fdf9190614c6a565b60ff166001901b8516141561207257611ff960038561191c565b806120075750612007612637565b61206d5760405162461bcd60e51b815260206004820152603160248201527f596f75206d757374206861766520612043617374657220746f6b656e20746f2060448201527036b4b73a103a37b5b2b71033b0ba32b99760791b6064820152608401610e50565b6120ec565b61207d60028561191c565b8061208b575061208b612637565b6120ec5760405162461bcd60e51b815260206004820152602c60248201527f596f75206d75737420686176652061204d696e74657220746f6b656e20746f2060448201526b36b4b73a103a37b5b2b7399760a11b6064820152608401610e50565b6120f885858585612e04565b949350505050565b600861210e600d60ff614c6a565b6121189190614c6a565b60ff166008901b81565b61212d60058461191c565b8061213b575061213b612637565b6121a45760405162461bcd60e51b815260206004820152603460248201527f596f75206d7573742068617665206120436f6e6669677572657220746f6b656e604482015273103a379031b430b733b29036b2ba30b230ba309760611b6064820152608401610e50565b6000838152610193602052604090206121be908383613d22565b50827f6bb7ff708619ba0610cba295a58592e0451dee2622938c8755667688daf3529b83836040516121f1929190614793565b60405180910390a2505050565b600861220c600d60ff614c6a565b6122169190614c6a565b60ff1661222560086002614ba8565b901b81565b6101928054610efd90614cb9565b612243848484612122565b611198848261176f565b60006118b2838360006118c7565b611609600d60ff614c6a565b610194546000908190600861227e600d60ff614c6a565b6122889190614c6a565b60ff166009901b6122999190614b4d565b6122a4906001614b4d565b90506122b160078261191c565b806122bf57506122bf612637565b6123275760405162461bcd60e51b815260206004820152603360248201527f596f75206d757374206861766520612043726561746f7220746f6b656e20746f6044820152721031b932b0ba32903732bb903a37b5b2b7399760691b6064820152608401610e50565b61019480546001810182556000919091527fa6f1ac7ad7b125ba5a5e1c96b00ad6914f90a503b1ac3d85a9dadbb4c639df9201819055612369600284836123ee565b50612376600584836123ee565b50612383600884836123ee565b50604080518281526001600160a01b03851660208201527f7757890bcab34d673dfca6b71df1b57f75a2fe4231d6e8de726caf534ab1fdd6910160405180910390a192915050565b6117ee338383612f16565b611743600d60ff614c6a565b612118600d60ff614c6a565b6000600184603c81111561241257634e487b7160e01b600052602160045260246000fd5b141561248557612420612637565b6124805760405162461bcd60e51b815260206004820152602b60248201527f596f75206d75737420626520612073757065727573657220746f20637265617460448201526a32903732bb9037b732b99760a91b6064820152608401610e50565b612505565b61249060038361191c565b8061249e575061249e612637565b6125055760405162461bcd60e51b815260206004820152603260248201527f596f75206d7573742068617665207468652043617374657220726f6c6520746f6044820152711030b9b9b4b3b7103732bb903937b632b99760711b6064820152608401610e50565b6120f88361251386856117f2565b600160405180602001604052806000815250611f11565b600160038061253b600d60ff614c6a565b6125459190614c6a565b611d1e9190614c6a565b60038061255e600d60ff614c6a565b611a5d9190614c6a565b600880611912600d60ff614c6a565b6008612585600d60ff614c6a565b61258f9190614c6a565b60ff166007901b81565b60006125a660018361224d565b80610e7e5750506097546001600160a01b0391821691161490565b611d28600d60ff614c6a565b6125d9600d60ff614c6a565b60ff16610200901b81565b6125f0600d60ff614c6a565b60ff166040901b81565b600160038061260b600d60ff614c6a565b6119129190614c6a565b6008612623600d60ff614c6a565b61262d9190614c6a565b60ff166009901b81565b600061264233612599565b905090565b600061264233612267565b6001600160a01b03851633148061266e575061266e8533610cf1565b61268a5760405162461bcd60e51b8152600401610e50906148ad565b6115668585858585612ff7565b600380612545600d60ff614c6a565b6097546001600160a01b031633146126d05760405162461bcd60e51b8152600401610e5090614a14565b6001600160a01b0381166127355760405162461bcd60e51b815260206004820152602660248201527f4f776e61626c653a206e6577206f776e657220697320746865207a65726f206160448201526564647265737360d01b6064820152608401610e50565b61171d81612db2565b6001600160a01b03831633148061275a575061275a8333610cf1565b6127765760405162461bcd60e51b8152600401610e50906148ad565b611ec8838383613118565b610eec600d60ff614c6a565b612799600d60ff614c6a565b60ff166080901b81565b6001600160a01b03163b151590565b81518351146127d35760405162461bcd60e51b8152600401610e5090614ae2565b6001600160a01b0384166127f95760405162461bcd60e51b8152600401610e5090614942565b3361280881878787878761321d565b60005b845181101561290d57600085828151811061283657634e487b7160e01b600052603260045260246000fd5b60200260200101519050600085838151811061286257634e487b7160e01b600052603260045260246000fd5b60209081029190910181015160008481526065835260408082206001600160a01b038e1683529093529190912054909150818110156128b35760405162461bcd60e51b8152600401610e50906149ca565b60008381526065602090815260408083206001600160a01b038e8116855292528083208585039055908b168252812080548492906128f2908490614b4d565b925050819055505050508061290690614d20565b905061280b565b50846001600160a01b0316866001600160a01b0316826001600160a01b03167f4a39dc06d4c0dbc64b70af90fd698a233a518aa5d07e595d983b8c0526c8f7fb878760405161295d929190614746565b60405180910390a46129738187878787876136b8565b505050505050565b61298560066111cf565b806129935750612993612637565b61171d5760405162461bcd60e51b815260206004820152603960248201527f596f75206d75737420686176652061204d61696e7461696e657220746f6b656e60448201527f20746f20757067726164652074686520636f6e74726163742e000000000000006064820152608401610e50565b7f4910fdfa16fed3260ed0e7147f7cc6da11a60208b5b9406d12a635614ffd91435460ff1615612a3857611ec883613823565b826001600160a01b03166352d1902d6040518163ffffffff1660e01b815260040160206040518083038186803b158015612a7157600080fd5b505afa925050508015612aa1575060408051601f3d908101601f19168201909252612a9e918101906143b4565b60015b612b045760405162461bcd60e51b815260206004820152602e60248201527f45524331393637557067726164653a206e657720696d706c656d656e7461746960448201526d6f6e206973206e6f74205555505360901b6064820152608401610e50565b600080516020614e1e8339815191528114612b735760405162461bcd60e51b815260206004820152602960248201527f45524331393637557067726164653a20756e737570706f727465642070726f786044820152681a58589b195555525160ba1b6064820152608401610e50565b50611ec88383836138bf565b600054610100900460ff16612ba65760405162461bcd60e51b8152600401610e5090614a97565b611f0f6138e4565b600054610100900460ff16612bd55760405162461bcd60e51b8152600401610e5090614a97565b61171d81613914565b600054610100900460ff16611f0f5760405162461bcd60e51b8152600401610e5090614a97565b6001600160a01b038316612c2b5760405162461bcd60e51b8152600401610e5090614987565b8051825114612c4c5760405162461bcd60e51b8152600401610e5090614ae2565b6000339050612c6f8185600086866040518060200160405280600081525061321d565b60005b8351811015612d53576000848281518110612c9d57634e487b7160e01b600052603260045260246000fd5b602002602001015190506000848381518110612cc957634e487b7160e01b600052603260045260246000fd5b60209081029190910181015160008481526065835260408082206001600160a01b038c168352909352919091205490915081811015612d1a5760405162461bcd60e51b8152600401610e509061481d565b60009283526065602090815260408085206001600160a01b038b1686529091529092209103905580612d4b81614d20565b915050612c72565b5060006001600160a01b0316846001600160a01b0316826001600160a01b03167f4a39dc06d4c0dbc64b70af90fd698a233a518aa5d07e595d983b8c0526c8f7fb8686604051612da4929190614746565b60405180910390a450505050565b609780546001600160a01b038381166001600160a01b0319831681179093556040519116919082907f8be0079c531659141344cd1fd0a4f28419497f9722a3daafe3b4186f6b6457e090600090a35050565b6001600160a01b038416612e645760405162461bcd60e51b815260206004820152602160248201527f455243313135353a206d696e7420746f20746865207a65726f206164647265736044820152607360f81b6064820152608401610e50565b33612e8481600087612e7588613944565b612e7e88613944565b8761321d565b60008481526065602090815260408083206001600160a01b038916845290915281208054859290612eb6908490614b4d565b909155505060408051858152602081018590526001600160a01b0380881692600092918516917fc3d58168c5ae7397731d063d5bbf3d657854427343f4c083240f7aacaa2d0f62910160405180910390a46115668160008787878761399d565b816001600160a01b0316836001600160a01b03161415612f8a5760405162461bcd60e51b815260206004820152602960248201527f455243313135353a2073657474696e6720617070726f76616c20737461747573604482015268103337b91039b2b63360b91b6064820152608401610e50565b6001600160a01b03838116600081815260666020908152604080832094871680845294825291829020805460ff191686151590811790915591519182527f17307eab39ab6107e8899845ad3d59bd9653f200f220920489ca2b5937696c31910160405180910390a3505050565b6001600160a01b03841661301d5760405162461bcd60e51b8152600401610e5090614942565b3361302d818787612e7588613944565b60008481526065602090815260408083206001600160a01b038a168452909152902054838110156130705760405162461bcd60e51b8152600401610e50906149ca565b60008581526065602090815260408083206001600160a01b038b81168552925280832087850390559088168252812080548692906130af908490614b4d565b909155505060408051868152602081018690526001600160a01b03808916928a821692918616917fc3d58168c5ae7397731d063d5bbf3d657854427343f4c083240f7aacaa2d0f62910160405180910390a461310f82888888888861399d565b50505050505050565b6001600160a01b03831661313e5760405162461bcd60e51b8152600401610e5090614987565b3361316d8185600061314f87613944565b61315887613944565b6040518060200160405280600081525061321d565b60008381526065602090815260408083206001600160a01b0388168452909152902054828110156131b05760405162461bcd60e51b8152600401610e509061481d565b60008481526065602090815260408083206001600160a01b03898116808652918452828520888703905582518981529384018890529092908616917fc3d58168c5ae7397731d063d5bbf3d657854427343f4c083240f7aacaa2d0f62910160405180910390a45050505050565b613225612637565b6132e35760005b83518110156132e15761326860048786848151811061325b57634e487b7160e01b600052603260045260246000fd5b60200260200101516118c7565b6132d15760405162461bcd60e51b815260206004820152603460248201527f596f75206d75737420686176652061205472616e73666572657220746f6b656e604482015273103a37903a3930b739b332b9103a37b5b2b7399760611b6064820152608401610e50565b6132da81614d20565b905061322c565b505b6001600160a01b038416156135095760005b835181101561350757610194600101600085838151811061332657634e487b7160e01b600052603260045260246000fd5b6020026020010151815260200190815260200160002054600014156133d25761019460000184828151811061336b57634e487b7160e01b600052603260045260246000fd5b60209081029190910181015182546001810184556000938452918320909101556101945485519091610195918790859081106133b757634e487b7160e01b600052603260045260246000fd5b60200260200101518152602001908152602001600020819055505b6101966000866001600160a01b03166001600160a01b03168152602001908152602001600020600101600085838151811061341d57634e487b7160e01b600052603260045260246000fd5b6020026020010151815260200190815260200160002054600014156134f7576001600160a01b038516600090815261019660205260409020845185908390811061347757634e487b7160e01b600052603260045260246000fd5b602090810291909101810151825460018181018555600094855283852090910191909155610194546001600160a01b038916845261019690925260408320875192939101918790859081106134dc57634e487b7160e01b600052603260045260246000fd5b60200260200101518152602001908152602001600020819055505b61350081614d20565b90506132f5565b505b6001600160a01b038516156136aa5760005b83518110156136a85782818151811061354457634e487b7160e01b600052603260045260246000fd5b602002602001015161357087868481518110611b8257634e487b7160e01b600052603260045260246000fd5b116136985760006101966000886001600160a01b03166001600160a01b0316815260200190815260200160002060010160008684815181106135c257634e487b7160e01b600052603260045260246000fd5b602002602001015181526020019081526020016000205490506101966000886001600160a01b03166001600160a01b03168152602001908152602001600020600001818154811061362357634e487b7160e01b600052603260045260246000fd5b90600052602060002001600090556101966000886001600160a01b03166001600160a01b03168152602001908152602001600020600101600086848151811061367c57634e487b7160e01b600052603260045260246000fd5b6020026020010151815260200190815260200160002060009055505b6136a181614d20565b905061351b565b505b612973868686868686613a67565b6001600160a01b0384163b156129735760405163bc197c8160e01b81526001600160a01b0385169063bc197c81906136fc9089908990889088908890600401614690565b602060405180830381600087803b15801561371657600080fd5b505af1925050508015613746575060408051601f3d908101601f19168201909252613743918101906143e8565b60015b6137f357613752614d67565b806308c379a0141561378c5750613767614d7e565b80613772575061378e565b8060405162461bcd60e51b8152600401610e5091906147c2565b505b60405162461bcd60e51b815260206004820152603460248201527f455243313135353a207472616e7366657220746f206e6f6e20455243313135356044820152732932b1b2b4bb32b91034b6b83632b6b2b73a32b960611b6064820152608401610e50565b6001600160e01b0319811663bc197c8160e01b1461310f5760405162461bcd60e51b8152600401610e50906147d5565b6001600160a01b0381163b6138905760405162461bcd60e51b815260206004820152602d60248201527f455243313936373a206e657720696d706c656d656e746174696f6e206973206e60448201526c1bdd08184818dbdb9d1c9858dd609a1b6064820152608401610e50565b600080516020614e1e83398151915280546001600160a01b0319166001600160a01b0392909216919091179055565b6138c883613bab565b6000825111806138d55750805b15611ec8576111988383613beb565b600054610100900460ff1661390b5760405162461bcd60e51b8152600401610e5090614a97565b611f0f33612db2565b600054610100900460ff1661393b5760405162461bcd60e51b8152600401610e5090614a97565b61171d81613cd6565b6040805160018082528183019092526060916000919060208083019080368337019050509050828160008151811061398c57634e487b7160e01b600052603260045260246000fd5b602090810291909101015292915050565b6001600160a01b0384163b156129735760405163f23a6e6160e01b81526001600160a01b0385169063f23a6e61906139e190899089908890889088906004016146ee565b602060405180830381600087803b1580156139fb57600080fd5b505af1925050508015613a2b575060408051601f3d908101601f19168201909252613a28918101906143e8565b60015b613a3757613752614d67565b6001600160e01b0319811663f23a6e6160e01b1461310f5760405162461bcd60e51b8152600401610e50906147d5565b6001600160a01b038516613b0a5760005b8351811015613b0857828181518110613aa157634e487b7160e01b600052603260045260246000fd5b602002602001015160fb6000868481518110613acd57634e487b7160e01b600052603260045260246000fd5b602002602001015181526020019081526020016000206000828254613af29190614b4d565b90915550613b01905081614d20565b9050613a78565b505b6001600160a01b0384166129735760005b835181101561310f57828181518110613b4457634e487b7160e01b600052603260045260246000fd5b602002602001015160fb6000868481518110613b7057634e487b7160e01b600052603260045260246000fd5b602002602001015181526020019081526020016000206000828254613b959190614c53565b90915550613ba4905081614d20565b9050613b1b565b613bb481613823565b6040516001600160a01b038216907fbc7cd75a20ee27fd9adebab32041f755214dbc6bffa90cc0225b39da2e5c2d3b90600090a250565b60606001600160a01b0383163b613c535760405162461bcd60e51b815260206004820152602660248201527f416464726573733a2064656c65676174652063616c6c20746f206e6f6e2d636f6044820152651b9d1c9858dd60d21b6064820152608401610e50565b600080846001600160a01b031684604051613c6e9190614674565b600060405180830381855af49150503d8060008114613ca9576040519150601f19603f3d011682016040523d82523d6000602084013e613cae565b606091505b50915091506118fa8282604051806060016040528060278152602001614e3e60279139613ce9565b80516117ee906067906020840190613da6565b60608315613cf85750816118b2565b825115613d085782518084602001fd5b8160405162461bcd60e51b8152600401610e5091906147c2565b828054613d2e90614cb9565b90600052602060002090601f016020900481019282613d505760008555613d96565b82601f10613d695782800160ff19823516178555613d96565b82800160010185558215613d96579182015b82811115613d96578235825591602001919060010190613d7b565b50613da2929150613e1a565b5090565b828054613db290614cb9565b90600052602060002090601f016020900481019282613dd45760008555613d96565b82601f10613ded57805160ff1916838001178555613d96565b82800160010185558215613d96579182015b82811115613d96578251825591602001919060010190613dff565b5b80821115613da25760008155600101613e1b565b60006001600160401b03831115613e4857613e48614d51565b604051613e5f601f8501601f191660200182614cf4565b809150838152848484011115613e7457600080fd5b83836020830137600060208583010152509392505050565b80356001600160a01b0381168114613ea357600080fd5b919050565b600082601f830112613eb8578081fd5b81356020613ec582614b2a565b604051613ed28282614cf4565b8381528281019150858301600585901b87018401881015613ef1578586fd5b855b85811015613f1657613f0482613e8c565b84529284019290840190600101613ef3565b5090979650505050505050565b600082601f830112613f33578081fd5b81356020613f4082614b2a565b604051613f4d8282614cf4565b8381528281019150858301600585901b87018401881015613f6c578586fd5b855b85811015613f1657813584529284019290840190600101613f6e565b600082601f830112613f9a578081fd5b6118b283833560208501613e2f565b8035603d8110613ea357600080fd5b60008083601f840112613fc9578182fd5b5081356001600160401b03811115613fdf578182fd5b602083019150836020828501011115613ff757600080fd5b9250929050565b60006020828403121561400f578081fd5b6118b282613e8c565b6000806040838503121561402a578081fd5b61403383613e8c565b915061404160208401613e8c565b90509250929050565b600080600080600060a08688031215614061578081fd5b61406a86613e8c565b945061407860208701613e8c565b935060408601356001600160401b0380821115614093578283fd5b61409f89838a01613f23565b945060608801359150808211156140b4578283fd5b6140c089838a01613f23565b935060808801359150808211156140d5578283fd5b506140e288828901613f8a565b9150509295509295909350565b600080600080600060a08688031215614106578081fd5b61410f86613e8c565b945061411d60208701613e8c565b9350604086013592506060860135915060808601356001600160401b03811115614145578182fd5b6140e288828901613f8a565b600080600060608486031215614165578283fd5b61416e84613e8c565b925060208401356001600160401b0380821115614189578384fd5b61419587838801613f23565b935060408601359150808211156141aa578283fd5b506141b786828701613f23565b9150509250925092565b600080604083850312156141d3578182fd5b6141dc83613e8c565b9150602083013580151581146141f0578182fd5b809150509250929050565b6000806040838503121561420d578182fd5b61421683613e8c565b915060208301356001600160401b03811115614230578182fd5b61423c85828601613f8a565b9150509250929050565b60008060408385031215614258578182fd5b61426183613e8c565b946020939093013593505050565b600080600060608486031215614283578081fd5b61428c84613e8c565b95602085013595506040909401359392505050565b600080600080608085870312156142b6578182fd5b6142bf85613e8c565b9350602085013592506040850135915060608501356001600160401b038111156142e7578182fd5b6142f387828801613f8a565b91505092959194509250565b60008060408385031215614311578182fd5b82356001600160401b0380821115614327578384fd5b61433386838701613ea8565b93506020850135915080821115614348578283fd5b5061423c85828601613f23565b600080600060608486031215614369578081fd5b83356001600160401b038082111561437f578283fd5b61438b87838801613ea8565b94506020860135935060408601359150808211156143a7578283fd5b506141b786828701613f8a565b6000602082840312156143c5578081fd5b5051919050565b6000602082840312156143dd578081fd5b81356118b281614e07565b6000602082840312156143f9578081fd5b81516118b281614e07565b600060208284031215614415578081fd5b6118b282613fa9565b60008060408385031215614430578182fd5b61403383613fa9565b60008060006060848603121561444d578081fd5b61445684613fa9565b925061446460208501613e8c565b9150604084013590509250925092565b60008060408385031215614486578182fd5b61426183613fa9565b600080600080604085870312156144a4578182fd5b84356001600160401b03808211156144ba578384fd5b6144c688838901613fb8565b909650945060208701359150808211156144de578384fd5b506144eb87828801613fb8565b95989497509550505050565b600060208284031215614508578081fd5b81356001600160401b0381111561451d578182fd5b8201601f8101841361452d578182fd5b6120f884823560208401613e2f565b60006020828403121561454d578081fd5b5035919050565b600080600060408486031215614568578081fd5b8335925060208401356001600160401b03811115614584578182fd5b61459086828701613fb8565b9497909650939450505050565b600080600080606085870312156145b2578182fd5b8435935060208501356001600160401b038111156145ce578283fd5b6145da87828801613fb8565b9598909750949560400135949350505050565b600080604083850312156145ff578182fd5b50508035926020909101359150565b6000815180845260208085019450808401835b8381101561463d57815187529582019590820190600101614621565b509495945050505050565b60008151808452614660816020860160208601614c8d565b601f01601f19169290920160200192915050565b60008251614686818460208701614c8d565b9190910192915050565b6001600160a01b0386811682528516602082015260a0604082018190526000906146bc9083018661460e565b82810360608401526146ce818661460e565b905082810360808401526146e28185614648565b98975050505050505050565b6001600160a01b03868116825285166020820152604081018490526060810183905260a06080820181905260009061472890830184614648565b979650505050505050565b6020815260006118b2602083018461460e565b604081526000614759604083018561460e565b82810360208401526118fa818561460e565b60208101603d831061478d57634e487b7160e01b600052602160045260246000fd5b91905290565b60208152816020820152818360408301376000818301604090810191909152601f909201601f19160101919050565b6020815260006118b26020830184614648565b60208082526028908201527f455243313135353a204552433131353552656365697665722072656a656374656040820152676420746f6b656e7360c01b606082015260800190565b60208082526024908201527f455243313135353a206275726e20616d6f756e7420657863656564732062616c604082015263616e636560e01b606082015260800190565b6020808252602c908201527f46756e6374696f6e206d7573742062652063616c6c6564207468726f7567682060408201526b19195b1959d85d1958d85b1b60a21b606082015260800190565b60208082526029908201527f455243313135353a2063616c6c6572206973206e6f74206f776e6572206e6f7260408201526808185c1c1c9bdd995960ba1b606082015260800190565b6020808252602c908201527f46756e6374696f6e206d7573742062652063616c6c6564207468726f7567682060408201526b6163746976652070726f787960a01b606082015260800190565b60208082526025908201527f455243313135353a207472616e7366657220746f20746865207a65726f206164604082015264647265737360d81b606082015260800190565b60208082526023908201527f455243313135353a206275726e2066726f6d20746865207a65726f206164647260408201526265737360e81b606082015260800190565b6020808252602a908201527f455243313135353a20696e73756666696369656e742062616c616e636520666f60408201526939103a3930b739b332b960b11b606082015260800190565b6020808252818101527f4f776e61626c653a2063616c6c6572206973206e6f7420746865206f776e6572604082015260600190565b6020808252602e908201527f4552432d3131353520456e756d657261626c653a20746f6b656e20696e64657860408201526d206f7574206f6620626f756e647360901b606082015260800190565b6020808252602b908201527f496e697469616c697a61626c653a20636f6e7472616374206973206e6f74206960408201526a6e697469616c697a696e6760a81b606082015260800190565b60208082526028908201527f455243313135353a2069647320616e6420616d6f756e7473206c656e677468206040820152670dad2e6dac2e8c6d60c31b606082015260800190565b60006001600160401b03821115614b4357614b43614d51565b5060051b60200190565b60008219821115614b6057614b60614d3b565b500190565b600181815b80851115614ba0578160001904821115614b8657614b86614d3b565b80851615614b9357918102915b93841c9390800290614b6a565b509250929050565b60006118b260ff841683600082614bc157506001610e7e565b81614bce57506000610e7e565b8160018114614be45760028114614bee57614c0a565b6001915050610e7e565b60ff841115614bff57614bff614d3b565b50506001821b610e7e565b5060208310610133831016604e8410600b8410161715614c2d575081810a610e7e565b614c378383614b65565b8060001904821115614c4b57614c4b614d3b565b029392505050565b600082821015614c6557614c65614d3b565b500390565b600060ff821660ff841680821015614c8457614c84614d3b565b90039392505050565b60005b83811015614ca8578181015183820152602001614c90565b838111156111985750506000910152565b600181811c90821680614ccd57607f821691505b60208210811415614cee57634e487b7160e01b600052602260045260246000fd5b50919050565b601f8201601f191681016001600160401b0381118282101715614d1957614d19614d51565b6040525050565b6000600019821415614d3457614d34614d3b565b5060010190565b634e487b7160e01b600052601160045260246000fd5b634e487b7160e01b600052604160045260246000fd5b600060033d1115611df157600481823e5160e01c90565b600060443d1015614d8c5790565b6040516003193d81016004833e81513d6001600160401b038160248401118184111715614dbb57505050505090565b8285019150815181811115614dd35750505050505090565b843d8701016020828501011115614ded5750505050505090565b614dfc60208286010187614cf4565b509095945050505050565b6001600160e01b03198116811461171d57600080fdfe360894a13ba1a3210667c828492db98dca3e2076cc3735a920a3ca505d382bbc416464726573733a206c6f772d6c6576656c2064656c65676174652063616c6c206661696c6564a2646970667358221220b6e5c59fdc3876c2c156c827a53c49c7ae0c79ab06181e914dacf09362e71ab164736f6c63430008040033",
  "linkReferences": {},
  "deployedLinkReferences": {}
}