{
  "_format": "hh-sol-artifact-1",
  "contractName": "BulkDisbursableNFTs",
  "sourceName": "src/BulkDisbursableNFTs.sol",
  "abi": [
    {
      "inputs": [],
      "stateMutability": "nonpayable",
      "type": "constructor"
    },
    {
      "anonymous": false,
      "inputs": [
        {
          "indexed": false,
          "internalType": "address",
          "name": "previousAdmin",
          "type": "address"
        },
        {
          "indexed": false,
          "internalType": "address",
          "name": "newAdmin",
          "type": "address"
        }
      ],
      "name": "AdminChanged",
      "type": "event"
    },
    {
      "anonymous": false,
      "inputs": [
        {
          "indexed": true,
          "internalType": "address",
          "name": "account",
          "type": "address"
        },
        {
          "indexed": true,
          "internalType": "address",
          "name": "operator",
          "type": "address"
        },
        {
          "indexed": false,
          "internalType": "bool",
          "name": "approved",
          "type": "bool"
        }
      ],
      "name": "ApprovalForAll",
      "type": "event"
    },
    {
      "anonymous": false,
      "inputs": [
        {
          "indexed": true,
          "internalType": "address",
          "name": "beacon",
          "type": "address"
        }
      ],
      "name": "BeaconUpgraded",
      "type": "event"
    },
    {
      "anonymous": false,
      "inputs": [
        {
          "indexed": false,
          "internalType": "uint256",
          "name": "id",
          "type": "uint256"
        },
        {
          "indexed": false,
          "internalType": "address",
          "name": "controller",
          "type": "address"
        }
      ],
      "name": "Created",
      "type": "event"
    },
    {
      "anonymous": false,
      "inputs": [
        {
          "indexed": true,
          "internalType": "address",
          "name": "previousOwner",
          "type": "address"
        },
        {
          "indexed": true,
          "internalType": "address",
          "name": "newOwner",
          "type": "address"
        }
      ],
      "name": "OwnershipTransferred",
      "type": "event"
    },
    {
      "anonymous": false,
      "inputs": [
        {
          "indexed": true,
          "internalType": "address",
          "name": "operator",
          "type": "address"
        },
        {
          "indexed": true,
          "internalType": "address",
          "name": "from",
          "type": "address"
        },
        {
          "indexed": true,
          "internalType": "address",
          "name": "to",
          "type": "address"
        },
        {
          "indexed": false,
          "internalType": "uint256[]",
          "name": "ids",
          "type": "uint256[]"
        },
        {
          "indexed": false,
          "internalType": "uint256[]",
          "name": "values",
          "type": "uint256[]"
        }
      ],
      "name": "TransferBatch",
      "type": "event"
    },
    {
      "anonymous": false,
      "inputs": [
        {
          "indexed": true,
          "internalType": "address",
          "name": "operator",
          "type": "address"
        },
        {
          "indexed": true,
          "internalType": "address",
          "name": "from",
          "type": "address"
        },
        {
          "indexed": true,
          "internalType": "address",
          "name": "to",
          "type": "address"
        },
        {
          "indexed": false,
          "internalType": "uint256",
          "name": "id",
          "type": "uint256"
        },
        {
          "indexed": false,
          "internalType": "uint256",
          "name": "value",
          "type": "uint256"
        }
      ],
      "name": "TransferSingle",
      "type": "event"
    },
    {
      "anonymous": false,
      "inputs": [
        {
          "indexed": false,
          "internalType": "string",
          "name": "value",
          "type": "string"
        },
        {
          "indexed": true,
          "internalType": "uint256",
          "name": "id",
          "type": "uint256"
        }
      ],
      "name": "URI",
      "type": "event"
    },
    {
      "anonymous": false,
      "inputs": [
        {
          "indexed": true,
          "internalType": "address",
          "name": "implementation",
          "type": "address"
        }
      ],
      "name": "Upgraded",
      "type": "event"
    },
    {
      "inputs": [],
      "name": "ADDRESS_TYPE",
      "outputs": [
        {
          "internalType": "uint256",
          "name": "",
          "type": "uint256"
        }
      ],
      "stateMutability": "view",
      "type": "function"
    },
    {
      "inputs": [],
      "name": "COUNTER_WIDTH",
      "outputs": [
        {
          "internalType": "uint8",
          "name": "",
          "type": "uint8"
        }
      ],
      "stateMutability": "view",
      "type": "function"
    },
    {
      "inputs": [],
      "name": "EXPERIMENTAL_TYPE",
      "outputs": [
        {
          "internalType": "uint256",
          "name": "",
          "type": "uint256"
        }
      ],
      "stateMutability": "view",
      "type": "function"
    },
    {
      "inputs": [],
      "name": "GATING_TYPE",
      "outputs": [
        {
          "internalType": "uint256",
          "name": "",
          "type": "uint256"
        }
      ],
      "stateMutability": "view",
      "type": "function"
    },
    {
      "inputs": [],
      "name": "MEMBERSHIP_TYPE",
      "outputs": [
        {
          "internalType": "uint256",
          "name": "",
          "type": "uint256"
        }
      ],
      "stateMutability": "view",
      "type": "function"
    },
    {
      "inputs": [],
      "name": "REACTION_TYPE",
      "outputs": [
        {
          "internalType": "uint256",
          "name": "",
          "type": "uint256"
        }
      ],
      "stateMutability": "view",
      "type": "function"
    },
    {
      "inputs": [],
      "name": "RECORDED_TIME_TYPE",
      "outputs": [
        {
          "internalType": "uint256",
          "name": "",
          "type": "uint256"
        }
      ],
      "stateMutability": "view",
      "type": "function"
    },
    {
      "inputs": [],
      "name": "RECORDING_TYPE",
      "outputs": [
        {
          "internalType": "uint256",
          "name": "",
          "type": "uint256"
        }
      ],
      "stateMutability": "view",
      "type": "function"
    },
    {
      "inputs": [],
      "name": "REPETITION_BOUNDARY",
      "outputs": [
        {
          "internalType": "uint8",
          "name": "",
          "type": "uint8"
        }
      ],
      "stateMutability": "view",
      "type": "function"
    },
    {
      "inputs": [],
      "name": "REPETITION_WIDTH",
      "outputs": [
        {
          "internalType": "uint8",
          "name": "",
          "type": "uint8"
        }
      ],
      "stateMutability": "view",
      "type": "function"
    },
    {
      "inputs": [],
      "name": "REQUIREMENT_BOUNDARY",
      "outputs": [
        {
          "internalType": "uint8",
          "name": "",
          "type": "uint8"
        }
      ],
      "stateMutability": "view",
      "type": "function"
    },
    {
      "inputs": [],
      "name": "REQUIREMENT_WIDTH",
      "outputs": [
        {
          "internalType": "uint8",
          "name": "",
          "type": "uint8"
        }
      ],
      "stateMutability": "view",
      "type": "function"
    },
    {
      "inputs": [],
      "name": "REQUIRE_ALL",
      "outputs": [
        {
          "internalType": "uint256",
          "name": "",
          "type": "uint256"
        }
      ],
      "stateMutability": "view",
      "type": "function"
    },
    {
      "inputs": [],
      "name": "REQUIRE_NONE",
      "outputs": [
        {
          "internalType": "uint256",
          "name": "",
          "type": "uint256"
        }
      ],
      "stateMutability": "view",
      "type": "function"
    },
    {
      "inputs": [],
      "name": "REQUIRE_ONE",
      "outputs": [
        {
          "internalType": "uint256",
          "name": "",
          "type": "uint256"
        }
      ],
      "stateMutability": "view",
      "type": "function"
    },
    {
      "inputs": [],
      "name": "REVIEW_TYPE",
      "outputs": [
        {
          "internalType": "uint256",
          "name": "",
          "type": "uint256"
        }
      ],
      "stateMutability": "view",
      "type": "function"
    },
    {
      "inputs": [],
      "name": "ROLE_BOUNDARY",
      "outputs": [
        {
          "internalType": "uint8",
          "name": "",
          "type": "uint8"
        }
      ],
      "stateMutability": "view",
      "type": "function"
    },
    {
      "inputs": [],
      "name": "ROLE_WIDTH",
      "outputs": [
        {
          "internalType": "uint8",
          "name": "",
          "type": "uint8"
        }
      ],
      "stateMutability": "view",
      "type": "function"
    },
    {
      "inputs": [],
      "name": "TEAM_1",
      "outputs": [
        {
          "internalType": "uint256",
          "name": "",
          "type": "uint256"
        }
      ],
      "stateMutability": "view",
      "type": "function"
    },
    {
      "inputs": [],
      "name": "TEAM_2",
      "outputs": [
        {
          "internalType": "uint256",
          "name": "",
          "type": "uint256"
        }
      ],
      "stateMutability": "view",
      "type": "function"
    },
    {
      "inputs": [],
      "name": "TEAM_3",
      "outputs": [
        {
          "internalType": "uint256",
          "name": "",
          "type": "uint256"
        }
      ],
      "stateMutability": "view",
      "type": "function"
    },
    {
      "inputs": [],
      "name": "TEAM_4",
      "outputs": [
        {
          "internalType": "uint256",
          "name": "",
          "type": "uint256"
        }
      ],
      "stateMutability": "view",
      "type": "function"
    },
    {
      "inputs": [],
      "name": "TEAM_5",
      "outputs": [
        {
          "internalType": "uint256",
          "name": "",
          "type": "uint256"
        }
      ],
      "stateMutability": "view",
      "type": "function"
    },
    {
      "inputs": [],
      "name": "TEAM_6",
      "outputs": [
        {
          "internalType": "uint256",
          "name": "",
          "type": "uint256"
        }
      ],
      "stateMutability": "view",
      "type": "function"
    },
    {
      "inputs": [],
      "name": "TEAM_7",
      "outputs": [
        {
          "internalType": "uint256",
          "name": "",
          "type": "uint256"
        }
      ],
      "stateMutability": "view",
      "type": "function"
    },
    {
      "inputs": [],
      "name": "TEAM_8",
      "outputs": [
        {
          "internalType": "uint256",
          "name": "",
          "type": "uint256"
        }
      ],
      "stateMutability": "view",
      "type": "function"
    },
    {
      "inputs": [],
      "name": "TEAM_9",
      "outputs": [
        {
          "internalType": "uint256",
          "name": "",
          "type": "uint256"
        }
      ],
      "stateMutability": "view",
      "type": "function"
    },
    {
      "inputs": [],
      "name": "TEAM_A",
      "outputs": [
        {
          "internalType": "uint256",
          "name": "",
          "type": "uint256"
        }
      ],
      "stateMutability": "view",
      "type": "function"
    },
    {
      "inputs": [],
      "name": "TEAM_B",
      "outputs": [
        {
          "internalType": "uint256",
          "name": "",
          "type": "uint256"
        }
      ],
      "stateMutability": "view",
      "type": "function"
    },
    {
      "inputs": [],
      "name": "TEAM_BOUNDARY",
      "outputs": [
        {
          "internalType": "uint8",
          "name": "",
          "type": "uint8"
        }
      ],
      "stateMutability": "view",
      "type": "function"
    },
    {
      "inputs": [],
      "name": "TEAM_C",
      "outputs": [
        {
          "internalType": "uint256",
          "name": "",
          "type": "uint256"
        }
      ],
      "stateMutability": "view",
      "type": "function"
    },
    {
      "inputs": [],
      "name": "TEAM_D",
      "outputs": [
        {
          "internalType": "uint256",
          "name": "",
          "type": "uint256"
        }
      ],
      "stateMutability": "view",
      "type": "function"
    },
    {
      "inputs": [],
      "name": "TEAM_WIDTH",
      "outputs": [
        {
          "internalType": "uint8",
          "name": "",
          "type": "uint8"
        }
      ],
      "stateMutability": "view",
      "type": "function"
    },
    {
      "inputs": [],
      "name": "TYPE_BOUNDARY",
      "outputs": [
        {
          "internalType": "uint8",
          "name": "",
          "type": "uint8"
        }
      ],
      "stateMutability": "view",
      "type": "function"
    },
    {
      "inputs": [],
      "name": "TYPE_WIDTH",
      "outputs": [
        {
          "internalType": "uint8",
          "name": "",
          "type": "uint8"
        }
      ],
      "stateMutability": "view",
      "type": "function"
    },
    {
      "inputs": [],
      "name": "UNIQUE",
      "outputs": [
        {
          "internalType": "uint256",
          "name": "",
          "type": "uint256"
        }
      ],
      "stateMutability": "view",
      "type": "function"
    },
    {
      "inputs": [],
      "name": "UNIQUENESS_BOUNDARY",
      "outputs": [
        {
          "internalType": "uint8",
          "name": "",
          "type": "uint8"
        }
      ],
      "stateMutability": "view",
      "type": "function"
    },
    {
      "inputs": [],
      "name": "UNIQUENESS_WIDTH",
      "outputs": [
        {
          "internalType": "uint8",
          "name": "",
          "type": "uint8"
        }
      ],
      "stateMutability": "view",
      "type": "function"
    },
    {
      "inputs": [],
      "name": "USE_AFTER",
      "outputs": [
        {
          "internalType": "uint256",
          "name": "",
          "type": "uint256"
        }
      ],
      "stateMutability": "view",
      "type": "function"
    },
    {
      "inputs": [],
      "name": "USE_ONCE",
      "outputs": [
        {
          "internalType": "uint256",
          "name": "",
          "type": "uint256"
        }
      ],
      "stateMutability": "view",
      "type": "function"
    },
    {
      "inputs": [],
      "name": "USE_UNLIMITED",
      "outputs": [
        {
          "internalType": "uint256",
          "name": "",
          "type": "uint256"
        }
      ],
      "stateMutability": "view",
      "type": "function"
    },
    {
      "inputs": [],
      "name": "USE_UNTIL",
      "outputs": [
        {
          "internalType": "uint256",
          "name": "",
          "type": "uint256"
        }
      ],
      "stateMutability": "view",
      "type": "function"
    },
    {
      "inputs": [],
      "name": "VOUCHED_TIME_TYPE",
      "outputs": [
        {
          "internalType": "uint256",
          "name": "",
          "type": "uint256"
        }
      ],
      "stateMutability": "view",
      "type": "function"
    },
    {
      "inputs": [
        {
          "internalType": "address",
          "name": "account",
          "type": "address"
        },
        {
          "internalType": "uint256",
          "name": "id",
          "type": "uint256"
        }
      ],
      "name": "balanceOf",
      "outputs": [
        {
          "internalType": "uint256",
          "name": "",
          "type": "uint256"
        }
      ],
      "stateMutability": "view",
      "type": "function"
    },
    {
      "inputs": [
        {
          "internalType": "address[]",
          "name": "accounts",
          "type": "address[]"
        },
        {
          "internalType": "uint256[]",
          "name": "ids",
          "type": "uint256[]"
        }
      ],
      "name": "balanceOfBatch",
      "outputs": [
        {
          "internalType": "uint256[]",
          "name": "",
          "type": "uint256[]"
        }
      ],
      "stateMutability": "view",
      "type": "function"
    },
    {
      "inputs": [
        {
          "internalType": "address",
          "name": "account",
          "type": "address"
        },
        {
          "internalType": "uint256",
          "name": "id",
          "type": "uint256"
        },
        {
          "internalType": "uint256",
          "name": "value",
          "type": "uint256"
        }
      ],
      "name": "burn",
      "outputs": [],
      "stateMutability": "nonpayable",
      "type": "function"
    },
    {
      "inputs": [
        {
          "internalType": "address",
          "name": "account",
          "type": "address"
        },
        {
          "internalType": "uint256[]",
          "name": "ids",
          "type": "uint256[]"
        },
        {
          "internalType": "uint256[]",
          "name": "values",
          "type": "uint256[]"
        }
      ],
      "name": "burnBatch",
      "outputs": [],
      "stateMutability": "nonpayable",
      "type": "function"
    },
    {
      "inputs": [
        {
          "internalType": "uint256",
          "name": "id",
          "type": "uint256"
        },
        {
          "internalType": "string",
          "name": "newURI",
          "type": "string"
        },
        {
          "internalType": "uint256",
          "name": "max",
          "type": "uint256"
        }
      ],
      "name": "configure",
      "outputs": [],
      "stateMutability": "nonpayable",
      "type": "function"
    },
    {
      "inputs": [
        {
          "internalType": "address",
          "name": "maintainer",
          "type": "address"
        }
      ],
      "name": "create",
      "outputs": [
        {
          "internalType": "uint256",
          "name": "id",
          "type": "uint256"
        }
      ],
      "stateMutability": "nonpayable",
      "type": "function"
    },
    {
      "inputs": [],
      "name": "create",
      "outputs": [
        {
          "internalType": "uint256",
          "name": "id",
          "type": "uint256"
        }
      ],
      "stateMutability": "nonpayable",
      "type": "function"
    },
    {
      "inputs": [
        {
          "internalType": "uint256",
          "name": "id",
          "type": "uint256"
        }
      ],
      "name": "exists",
      "outputs": [
        {
          "internalType": "bool",
          "name": "",
          "type": "bool"
        }
      ],
      "stateMutability": "view",
      "type": "function"
    },
    {
      "inputs": [
        {
          "internalType": "enum BulkDisbursableNFTs.Role",
          "name": "role",
          "type": "uint8"
        },
        {
          "internalType": "address",
          "name": "user",
          "type": "address"
        }
      ],
      "name": "grantRole",
      "outputs": [
        {
          "internalType": "bool",
          "name": "added",
          "type": "bool"
        }
      ],
      "stateMutability": "nonpayable",
      "type": "function"
    },
    {
      "inputs": [
        {
          "internalType": "enum BulkDisbursableNFTs.Role",
          "name": "role",
          "type": "uint8"
        },
        {
          "internalType": "address",
          "name": "user",
          "type": "address"
        },
        {
          "internalType": "uint256",
          "name": "id",
          "type": "uint256"
        }
      ],
      "name": "grantRole",
      "outputs": [
        {
          "internalType": "bool",
          "name": "added",
          "type": "bool"
        }
      ],
      "stateMutability": "nonpayable",
      "type": "function"
    },
    {
      "inputs": [
        {
          "internalType": "enum BulkDisbursableNFTs.Role",
          "name": "role",
          "type": "uint8"
        }
      ],
      "name": "hasRole",
      "outputs": [
        {
          "internalType": "bool",
          "name": "has",
          "type": "bool"
        }
      ],
      "stateMutability": "view",
      "type": "function"
    },
    {
      "inputs": [
        {
          "internalType": "enum BulkDisbursableNFTs.Role",
          "name": "role",
          "type": "uint8"
        },
        {
          "internalType": "address",
          "name": "user",
          "type": "address"
        },
        {
          "internalType": "uint256",
          "name": "id",
          "type": "uint256"
        }
      ],
      "name": "hasRole",
      "outputs": [
        {
          "internalType": "bool",
          "name": "has",
          "type": "bool"
        }
      ],
      "stateMutability": "view",
      "type": "function"
    },
    {
      "inputs": [
        {
          "internalType": "enum BulkDisbursableNFTs.Role",
          "name": "role",
          "type": "uint8"
        },
        {
          "internalType": "uint256",
          "name": "id",
          "type": "uint256"
        }
      ],
      "name": "hasRole",
      "outputs": [
        {
          "internalType": "bool",
          "name": "has",
          "type": "bool"
        }
      ],
      "stateMutability": "view",
      "type": "function"
    },
    {
      "inputs": [
        {
          "internalType": "enum BulkDisbursableNFTs.Role",
          "name": "role",
          "type": "uint8"
        },
        {
          "internalType": "address",
          "name": "user",
          "type": "address"
        }
      ],
      "name": "hasRole",
      "outputs": [
        {
          "internalType": "bool",
          "name": "has",
          "type": "bool"
        }
      ],
      "stateMutability": "view",
      "type": "function"
    },
    {
      "inputs": [
        {
          "internalType": "string",
          "name": "_name",
          "type": "string"
        },
        {
          "internalType": "string",
          "name": "_symbol",
          "type": "string"
        }
      ],
      "name": "initialize",
      "outputs": [],
      "stateMutability": "nonpayable",
      "type": "function"
    },
    {
      "inputs": [
        {
          "internalType": "address",
          "name": "account",
          "type": "address"
        },
        {
          "internalType": "address",
          "name": "operator",
          "type": "address"
        }
      ],
      "name": "isApprovedForAll",
      "outputs": [
        {
          "internalType": "bool",
          "name": "",
          "type": "bool"
        }
      ],
      "stateMutability": "view",
      "type": "function"
    },
    {
      "inputs": [
        {
          "internalType": "address",
          "name": "user",
          "type": "address"
        }
      ],
      "name": "isSuper",
      "outputs": [
        {
          "internalType": "bool",
          "name": "superuser",
          "type": "bool"
        }
      ],
      "stateMutability": "view",
      "type": "function"
    },
    {
      "inputs": [],
      "name": "isSuper",
      "outputs": [
        {
          "internalType": "bool",
          "name": "superuser",
          "type": "bool"
        }
      ],
      "stateMutability": "view",
      "type": "function"
    },
    {
      "inputs": [
        {
          "internalType": "address[]",
          "name": "to",
          "type": "address[]"
        },
        {
          "internalType": "uint256",
          "name": "id",
          "type": "uint256"
        },
        {
          "internalType": "bytes",
          "name": "data",
          "type": "bytes"
        }
      ],
      "name": "mint",
      "outputs": [],
      "stateMutability": "nonpayable",
      "type": "function"
    },
    {
      "inputs": [
        {
          "internalType": "address",
          "name": "recipient",
          "type": "address"
        },
        {
          "internalType": "uint256",
          "name": "id",
          "type": "uint256"
        },
        {
          "internalType": "uint256",
          "name": "amount",
          "type": "uint256"
        },
        {
          "internalType": "bytes",
          "name": "data",
          "type": "bytes"
        }
      ],
      "name": "mint",
      "outputs": [
        {
          "internalType": "bool",
          "name": "minted",
          "type": "bool"
        }
      ],
      "stateMutability": "nonpayable",
      "type": "function"
    },
    {
      "inputs": [],
      "name": "name",
      "outputs": [
        {
          "internalType": "string",
          "name": "",
          "type": "string"
        }
      ],
      "stateMutability": "view",
      "type": "function"
    },
    {
      "inputs": [],
      "name": "owner",
      "outputs": [
        {
          "internalType": "address",
          "name": "",
          "type": "address"
        }
      ],
      "stateMutability": "view",
      "type": "function"
    },
    {
      "inputs": [],
      "name": "proxiableUUID",
      "outputs": [
        {
          "internalType": "bytes32",
          "name": "",
          "type": "bytes32"
        }
      ],
      "stateMutability": "view",
      "type": "function"
    },
    {
      "inputs": [],
      "name": "renounceOwnership",
      "outputs": [],
      "stateMutability": "nonpayable",
      "type": "function"
    },
    {
      "inputs": [
        {
          "internalType": "enum BulkDisbursableNFTs.Role",
          "name": "role",
          "type": "uint8"
        }
      ],
      "name": "roleToken",
      "outputs": [
        {
          "internalType": "uint256",
          "name": "tokenId",
          "type": "uint256"
        }
      ],
      "stateMutability": "view",
      "type": "function"
    },
    {
      "inputs": [
        {
          "internalType": "enum BulkDisbursableNFTs.Role",
          "name": "role",
          "type": "uint8"
        },
        {
          "internalType": "uint256",
          "name": "id",
          "type": "uint256"
        }
      ],
      "name": "roleToken",
      "outputs": [
        {
          "internalType": "uint256",
          "name": "tokenId",
          "type": "uint256"
        }
      ],
      "stateMutability": "view",
      "type": "function"
    },
    {
      "inputs": [
        {
          "internalType": "address",
          "name": "from",
          "type": "address"
        },
        {
          "internalType": "address",
          "name": "to",
          "type": "address"
        },
        {
          "internalType": "uint256[]",
          "name": "ids",
          "type": "uint256[]"
        },
        {
          "internalType": "uint256[]",
          "name": "amounts",
          "type": "uint256[]"
        },
        {
          "internalType": "bytes",
          "name": "data",
          "type": "bytes"
        }
      ],
      "name": "safeBatchTransferFrom",
      "outputs": [],
      "stateMutability": "nonpayable",
      "type": "function"
    },
    {
      "inputs": [
        {
          "internalType": "address",
          "name": "from",
          "type": "address"
        },
        {
          "internalType": "address",
          "name": "to",
          "type": "address"
        },
        {
          "internalType": "uint256",
          "name": "id",
          "type": "uint256"
        },
        {
          "internalType": "uint256",
          "name": "amount",
          "type": "uint256"
        },
        {
          "internalType": "bytes",
          "name": "data",
          "type": "bytes"
        }
      ],
      "name": "safeTransferFrom",
      "outputs": [],
      "stateMutability": "nonpayable",
      "type": "function"
    },
    {
      "inputs": [
        {
          "internalType": "address",
          "name": "operator",
          "type": "address"
        },
        {
          "internalType": "bool",
          "name": "approved",
          "type": "bool"
        }
      ],
      "name": "setApprovalForAll",
      "outputs": [],
      "stateMutability": "nonpayable",
      "type": "function"
    },
    {
      "inputs": [
        {
          "internalType": "string",
          "name": "_name",
          "type": "string"
        },
        {
          "internalType": "string",
          "name": "_symbol",
          "type": "string"
        }
      ],
      "name": "setDescription",
      "outputs": [],
      "stateMutability": "nonpayable",
      "type": "function"
    },
    {
      "inputs": [
        {
          "internalType": "uint256",
          "name": "id",
          "type": "uint256"
        },
        {
          "internalType": "uint256",
          "name": "max",
          "type": "uint256"
        }
      ],
      "name": "setMax",
      "outputs": [],
      "stateMutability": "nonpayable",
      "type": "function"
    },
    {
      "inputs": [
        {
          "internalType": "uint256",
          "name": "id",
          "type": "uint256"
        },
        {
          "internalType": "string",
          "name": "newURI",
          "type": "string"
        }
      ],
      "name": "setURI",
      "outputs": [],
      "stateMutability": "nonpayable",
      "type": "function"
    },
    {
      "inputs": [
        {
          "internalType": "bytes4",
          "name": "interfaceId",
          "type": "bytes4"
        }
      ],
      "name": "supportsInterface",
      "outputs": [
        {
          "internalType": "bool",
          "name": "",
          "type": "bool"
        }
      ],
      "stateMutability": "view",
      "type": "function"
    },
    {
      "inputs": [],
      "name": "symbol",
      "outputs": [
        {
          "internalType": "string",
          "name": "",
          "type": "string"
        }
      ],
      "stateMutability": "view",
      "type": "function"
    },
    {
      "inputs": [
        {
          "internalType": "uint256",
          "name": "index",
          "type": "uint256"
        }
      ],
      "name": "tokenByIndex",
      "outputs": [
        {
          "internalType": "uint256",
          "name": "",
          "type": "uint256"
        }
      ],
      "stateMutability": "view",
      "type": "function"
    },
    {
      "inputs": [
        {
          "internalType": "address",
          "name": "owner",
          "type": "address"
        },
        {
          "internalType": "uint256",
          "name": "index",
          "type": "uint256"
        }
      ],
      "name": "tokenOfOwnerByIndex",
      "outputs": [
        {
          "internalType": "uint256",
          "name": "",
          "type": "uint256"
        }
      ],
      "stateMutability": "view",
      "type": "function"
    },
    {
      "inputs": [],
      "name": "totalSupply",
      "outputs": [
        {
          "internalType": "uint256",
          "name": "count",
          "type": "uint256"
        }
      ],
      "stateMutability": "view",
      "type": "function"
    },
    {
      "inputs": [
        {
          "internalType": "uint256",
          "name": "id",
          "type": "uint256"
        }
      ],
      "name": "totalSupply",
      "outputs": [
        {
          "internalType": "uint256",
          "name": "",
          "type": "uint256"
        }
      ],
      "stateMutability": "view",
      "type": "function"
    },
    {
      "inputs": [
        {
          "internalType": "address",
          "name": "newOwner",
          "type": "address"
        }
      ],
      "name": "transferOwnership",
      "outputs": [],
      "stateMutability": "nonpayable",
      "type": "function"
    },
    {
      "inputs": [
        {
          "internalType": "address",
          "name": "newImplementation",
          "type": "address"
        }
      ],
      "name": "upgradeTo",
      "outputs": [],
      "stateMutability": "nonpayable",
      "type": "function"
    },
    {
      "inputs": [
        {
          "internalType": "address",
          "name": "newImplementation",
          "type": "address"
        },
        {
          "internalType": "bytes",
          "name": "data",
          "type": "bytes"
        }
      ],
      "name": "upgradeToAndCall",
      "outputs": [],
      "stateMutability": "payable",
      "type": "function"
    },
    {
      "inputs": [
        {
          "internalType": "uint256",
          "name": "id",
          "type": "uint256"
        }
      ],
      "name": "uri",
      "outputs": [
        {
          "internalType": "string",
          "name": "metadata",
          "type": "string"
        }
      ],
      "stateMutability": "view",
      "type": "function"
    }
  ],
  "bytecode": "0x60a06040523060601b6080523480156200001857600080fd5b50600054610100900460ff16620000365760005460ff161562000040565b62000040620000e5565b620000a85760405162461bcd60e51b815260206004820152602e60248201527f496e697469616c697a61626c653a20636f6e747261637420697320616c72656160448201526d191e481a5b9a5d1a585b1a5e995960921b606482015260840160405180910390fd5b600054610100900460ff16158015620000cb576000805461ffff19166101011790555b8015620000de576000805461ff00191690555b5062000112565b6000620000fd306200010360201b620024261760201c565b15905090565b6001600160a01b03163b151590565b60805160601c614aa26200014d6000396000818161131a0152818161135a015281816118c3015281816119030152611a1c0152614aa26000f3fe6080604052600436106104a95760003560e01c80635d5664e11161026b578063aa8e90661161014f578063dbd406e8116100c1578063f242432a11610085578063f242432a14610cf1578063f28a726d14610d11578063f2fde38b14610d26578063f5298aca14610d46578063f73a731114610d66578063f8418ef314610d7b57600080fd5b8063dbd406e814610c54578063e5587f7a14610c69578063e985e9c514610c7e578063edc79bac14610cc7578063efc81a8c14610cdc57600080fd5b8063baf42f9311610113578063baf42f9314610bc8578063bd85b03914610bdd578063c3c8df9914610c0a578063c5a0d9b21461067b578063d701765014610c2a578063db58fe9514610c3f57600080fd5b8063aa8e906614610b54578063aae5270f14610b74578063aaeec72d14610b89578063b8785f8a14610b9e578063ba952df114610bb357600080fd5b8063891fbef0116101e85780639e97b8f6116101ac5780639e97b8f614610ab55780639eb3f24314610ad55780639ed9331814610aea578063a22cb46514610b0a578063a8410bc114610b2a578063a9c906ae14610b3f57600080fd5b8063891fbef01461076e5780638da5cb5b14610a43578063957dc9a014610a6b57806395d89b4114610a805780639d6d7eaa14610a9557600080fd5b80636fa09a791161022f5780636fa09a79146109c4578063715018a6146109d9578063731133e9146109ee57806383e5b21a14610a0e578063862440e214610a2357600080fd5b80635d5664e11461093a5780635e2a33861461095a578063666e6fd51461096f5780636755d456146109845780636b20c454146109a457600080fd5b806339054c23116103925780634cd88b761161030f5780634f558e79116102d35780634f558e79146108975780634f6ccce7146108c65780635157b563146108e657806351d29425146108fb57806352d1902d14610910578063552376611461092557600080fd5b80634cd88b761461080d5780634ce7a2441461082d5780634e1273f4146108425780634f06c0fb1461086f5780634f1ef2861461088457600080fd5b80633dbe35de116103565780633dbe35de146107835780633f79f1a4146107a35780634468031f146107b857806344cca2df146107d857806348289589146107ed57600080fd5b806339054c231461070f5780633adbbbc1146107245780633b60bd01146107395780633b91ceef1461074e5780633c176d9f1461076e57600080fd5b806318160ddd1161042b5780632ed58d81116103ef5780632ed58d811461067b5780632f745c591461069057806330c9cf93146106b057806334628c1f146106c557806335ab8629146106da5780633659cfe6146106ef57600080fd5b806318160ddd146105fb57806318ae23751461061157806319e0755c146106265780631c45349c146106465780632eb2c2d61461065b57600080fd5b80630e89341c116104725780630e89341c1461056f5780630ec0370f1461058f57806311bb8afd146105b157806313affe4f146105c657806314c46427146105db57600080fd5b8062fdd58e146104ae57806301ffc9a7146104e1578063067ff8661461051157806306fdde03146105385780630daec9e41461055a575b600080fd5b3480156104ba57600080fd5b506104ce6104c9366004613ebb565b610d90565b6040519081526020015b60405180910390f35b3480156104ed57600080fd5b506105016104fc366004614041565b610e2c565b60405190151581526020016104d8565b34801561051d57600080fd5b50610526610e7c565b60405160ff90911681526020016104d8565b34801561054457600080fd5b5061054d610e97565b6040516104d891906143ca565b34801561056657600080fd5b506104ce610f26565b34801561057b57600080fd5b5061054d61058a36600461416c565b610f3d565b34801561059b57600080fd5b506105af6105aa366004613fca565b6110ef565b005b3480156105bd57600080fd5b50610526602a81565b3480156105d257600080fd5b506104ce611146565b3480156105e757600080fd5b506104ce6105f6366004614079565b61115c565b34801561060757600080fd5b50610194546104ce565b34801561061d57600080fd5b50610526611169565b34801561063257600080fd5b50610501610641366004614079565b611177565b34801561065257600080fd5b506104ce611183565b34801561066757600080fd5b506105af610676366004613cbf565b6111a5565b34801561068757600080fd5b50610526600381565b34801561069c57600080fd5b506104ce6106ab366004613ebb565b61123c565b3480156106bc57600080fd5b506104ce6112c0565b3480156106d157600080fd5b506104ce6112e2565b3480156106e657600080fd5b506104ce6112f8565b3480156106fb57600080fd5b506105af61070a366004613c73565b61130f565b34801561071b57600080fd5b506104ce6113ef565b34801561073057600080fd5b506104ce61141c565b34801561074557600080fd5b50610526600d81565b34801561075a57600080fd5b506105af61076936600461421d565b61143e565b34801561077a57600080fd5b50610526600881565b34801561078f57600080fd5b506104ce61079e3660046140e9565b6114c1565b3480156107af57600080fd5b506104ce611588565b3480156107c457600080fd5b506105016107d33660046140ae565b611596565b3480156107e457600080fd5b506105266115d2565b3480156107f957600080fd5b506105016108083660046140e9565b6115eb565b34801561081957600080fd5b506105af610828366004614104565b6115f8565b34801561083957600080fd5b506104ce61171e565b34801561084e57600080fd5b5061086261085d366004613f74565b611740565b6040516104d89190614363565b34801561087b57600080fd5b506104ce6118a1565b6105af610892366004613e70565b6118b8565b3480156108a357600080fd5b506105016108b236600461416c565b600090815260fb6020526040902054151590565b3480156108d257600080fd5b506104ce6108e136600461416c565b611985565b3480156108f257600080fd5b506104ce6119df565b34801561090757600080fd5b506104ce611a01565b34801561091c57600080fd5b506104ce611a0f565b34801561093157600080fd5b506104ce611ac3565b34801561094657600080fd5b50610501610955366004614093565b611adc565b34801561096657600080fd5b506104ce611aea565b34801561097b57600080fd5b506104ce611b01565b34801561099057600080fd5b506105af61099f366004614104565b611b0f565b3480156109b057600080fd5b506105af6109bf366004613dc6565b611b54565b3480156109d057600080fd5b506104ce611b9c565b3480156109e557600080fd5b506105af611baa565b3480156109fa57600080fd5b50610501610a09366004613f16565b611be0565b348015610a1a57600080fd5b506104ce611dcf565b348015610a2f57600080fd5b506105af610a3e366004614184565b611df1565b348015610a4f57600080fd5b506097546040516001600160a01b0390911681526020016104d8565b348015610a7757600080fd5b506104ce611ecd565b348015610a8c57600080fd5b5061054d611ef9565b348015610aa157600080fd5b506105af610ab03660046141cd565b611f07565b348015610ac157600080fd5b50610501610ad0366004614093565b611f1c565b348015610ae157600080fd5b506104ce611f2a565b348015610af657600080fd5b506104ce610b05366004613c73565b611f36565b348015610b1657600080fd5b506105af610b25366004613e36565b612071565b348015610b3657600080fd5b506104ce61207c565b348015610b4b57600080fd5b506104ce612088565b348015610b6057600080fd5b50610501610b6f3660046140ae565b612094565b348015610b8057600080fd5b506104ce6121cf565b348015610b9557600080fd5b506104ce6121f4565b348015610baa57600080fd5b50610526600181565b348015610bbf57600080fd5b5061052661220d565b348015610bd457600080fd5b506104ce61221c565b348015610be957600080fd5b506104ce610bf836600461416c565b600090815260fb602052604090205490565b348015610c1657600080fd5b50610501610c25366004613c73565b61223e565b348015610c3657600080fd5b506104ce612266565b348015610c4b57600080fd5b506104ce612272565b348015610c6057600080fd5b506104ce612289565b348015610c7557600080fd5b5061052661229f565b348015610c8a57600080fd5b50610501610c99366004613c8d565b6001600160a01b03918216600090815260666020908152604080832093909416825291909152205460ff1690565b348015610cd357600080fd5b506105016122ba565b348015610ce857600080fd5b506104ce6122ca565b348015610cfd57600080fd5b506105af610d0c366004613d64565b6122d5565b348015610d1d57600080fd5b506104ce61231a565b348015610d3257600080fd5b506105af610d41366004613c73565b612329565b348015610d5257600080fd5b506105af610d61366004613ee4565b6123c1565b348015610d7257600080fd5b50610526612404565b348015610d8757600080fd5b506104ce612410565b60006001600160a01b038316610e015760405162461bcd60e51b815260206004820152602b60248201527f455243313135353a2062616c616e636520717565727920666f7220746865207a60448201526a65726f206164647265737360a81b60648201526084015b60405180910390fd5b5060008181526065602090815260408083206001600160a01b03861684529091529020545b92915050565b60006001600160e01b03198216636cdb3d1360e11b1480610e5d57506001600160e01b031982166303a24d0760e21b145b80610e2657506301ffc9a760e01b6001600160e01b0319831614610e26565b6008610e8a600d60ff614872565b610e949190614872565b81565b6101918054610ea5906148c1565b80601f0160208091040260200160405190810160405280929190818152602001828054610ed1906148c1565b8015610f1e5780601f10610ef357610100808354040283529160200191610f1e565b820191906000526020600020905b815481529060010190602001808311610f0157829003601f168201915b505050505081565b610f32600d60ff614872565b60ff16610400901b81565b60008181526101936020526040812080546060929190610f5c906148c1565b80601f0160208091040260200160405190810160405280929190818152602001828054610f88906148c1565b8015610fd55780601f10610faa57610100808354040283529160200191610fd5565b820191906000526020600020905b815481529060010190602001808311610fb857829003601f168201915b50505050509050805160001415610e26576008610ff4600d60ff614872565b610ffe9190614872565b60ff166001901b6008600d60ff6110159190614872565b61101f9190614872565b60ff166001611030600860026147b0565b61103a919061485b565b901b84161415610e26576503ffffffffff1983166000818152610193602052604090208054611068906148c1565b80601f0160208091040260200160405190810160405280929190818152602001828054611094906148c1565b80156110e15780601f106110b6576101008083540402835291602001916110e1565b820191906000526020600020905b8154815290600101906020018083116110c457829003601f168201915b505050505091505092915050565b60005b83518110156111405761112f84828151811061111e57634e487b7160e01b600052603260045260246000fd5b602002602001015184600185611be0565b5061113981614928565b90506110f2565b50505050565b611152600d60ff614872565b60ff166010901b81565b6000610e268260006114c1565b6003610e8a600d60ff614872565b6000610e268233611f1c565b6008611191600d60ff614872565b61119b9190614872565b60ff166006901b81565b6001600160a01b0385163314806111c157506111c18533610c99565b6112285760405162461bcd60e51b815260206004820152603260248201527f455243313135353a207472616e736665722063616c6c6572206973206e6f74206044820152711bdddb995c881b9bdc88185c1c1c9bdd995960721b6064820152608401610df8565b6112358585858585612435565b5050505050565b6001600160a01b0382166000908152610196602052604081205482106112745760405162461bcd60e51b8152600401610df890614651565b6001600160a01b0383166000908152610196602052604090208054839081106112ad57634e487b7160e01b600052603260045260246000fd5b9060005260206000200154905092915050565b60086112ce600d60ff614872565b6112d89190614872565b60ff166004901b81565b6112ee600d60ff614872565b60ff166020901b81565b611304600d60ff614872565b60ff16611000901b81565b306001600160a01b037f00000000000000000000000000000000000000000000000000000000000000001614156113585760405162461bcd60e51b8152600401610df890614469565b7f00000000000000000000000000000000000000000000000000000000000000006001600160a01b03166113a1600080516020614a26833981519152546001600160a01b031690565b6001600160a01b0316146113c75760405162461bcd60e51b8152600401610df8906144fe565b6113d0816125fe565b604080516000808252602082019092526113ec91839190612688565b50565b6003806113fe600d60ff614872565b6114089190614872565b6114129190614872565b60ff166002901b81565b600861142a600d60ff614872565b6114349190614872565b60ff166005901b81565b6114496007836115eb565b8061145757506114576122ba565b6114bd5760405162461bcd60e51b815260206004820152603160248201527f596f75206d75737420686176652061204c696d6974657220746f6b656e20746f6044820152701031b430b733b29038bab0b73a34ba3c9760791b6064820152608401610df8565b5050565b6000816008806114d3600d60ff614872565b6114dd9190614872565b6114e79190614872565b60ff1684603c81111561150a57634e487b7160e01b600052602160045260246000fd5b901b600160038061151d600d60ff614872565b6115279190614872565b6115319190614872565b61153b9190614872565b60ff166001901b6008600d60ff6115529190614872565b61155c9190614872565b60ff166001901b61156d9190614755565b6115779190614755565b6115819190614755565b9392505050565b6008611408600d60ff614872565b6000806115a28561115c565b905060006115b08583610d90565b11806115c9575060006115c7856104c98685614755565b115b95945050505050565b6003806115e1600d60ff614872565b610e8a9190614872565b6000611581833384611596565b600054610100900460ff166116135760005460ff1615611617565b303b155b61167a5760405162461bcd60e51b815260206004820152602e60248201527f496e697469616c697a61626c653a20636f6e747261637420697320616c72656160448201526d191e481a5b9a5d1a585b1a5e995960921b6064820152608401610df8565b600054610100900460ff1615801561169c576000805461ffff19166101011790555b6116a4612802565b6116e26040518060400160405280602081526020017f4572726f723a2053696e676c6520546f6b656e20555249204e6f742055736564815250612831565b6116ea612861565b6116f2612861565b6116fa612861565b61170685858585611b0f565b8015611235576000805461ff00191690555050505050565b600361172c600d60ff614872565b6117369190614872565b60ff166003901b81565b606081518351146117a55760405162461bcd60e51b815260206004820152602960248201527f455243313135353a206163636f756e747320616e6420696473206c656e677468604482015268040dad2e6dac2e8c6d60bb1b6064820152608401610df8565b600083516001600160401b038111156117ce57634e487b7160e01b600052604160045260246000fd5b6040519080825280602002602001820160405280156117f7578160200160208202803683370190505b50905060005b84518110156118995761185e85828151811061182957634e487b7160e01b600052603260045260246000fd5b602002602001015185838151811061185157634e487b7160e01b600052603260045260246000fd5b6020026020010151610d90565b82828151811061187e57634e487b7160e01b600052603260045260246000fd5b602090810291909101015261189281614928565b90506117fd565b509392505050565b6118ad600d60ff614872565b60ff16610800901b81565b306001600160a01b037f00000000000000000000000000000000000000000000000000000000000000001614156119015760405162461bcd60e51b8152600401610df890614469565b7f00000000000000000000000000000000000000000000000000000000000000006001600160a01b031661194a600080516020614a26833981519152546001600160a01b031690565b6001600160a01b0316146119705760405162461bcd60e51b8152600401610df8906144fe565b611979826125fe565b6114bd82826001612688565b6101945460009082106119aa5760405162461bcd60e51b8152600401610df890614651565b6101948054839081106119cd57634e487b7160e01b600052603260045260246000fd5b90600052602060002001549050919050565b60036119ed600d60ff614872565b6119f79190614872565b60ff166001901b81565b60086119ed600d60ff614872565b6000306001600160a01b037f00000000000000000000000000000000000000000000000000000000000000001614611aaf5760405162461bcd60e51b815260206004820152603860248201527f555550535570677261646561626c653a206d757374206e6f742062652063616c60448201527f6c6564207468726f7567682064656c656761746563616c6c00000000000000006064820152608401610df8565b50600080516020614a268339815191525b90565b600380611ad2600d60ff614872565b6112ce9190614872565b600061158183836000612094565b611af6600d60ff614872565b60ff16610100901b81565b600861172c600d60ff614872565b6097546001600160a01b03163314611b395760405162461bcd60e51b8152600401610df89061461c565b611b4661019185856139a5565b5061123561019283836139a5565b6001600160a01b038316331480611b705750611b708333610c99565b611b8c5760405162461bcd60e51b8152600401610df8906144b5565b611b97838383612888565b505050565b6003611408600d60ff614872565b6097546001600160a01b03163314611bd45760405162461bcd60e51b8152600401610df89061461c565b611bde6000612a35565b565b60006001600380611bf3600d60ff614872565b611bfd9190614872565b611c079190614872565b611c119190614872565b60ff166001901b6001600380600d60ff611c2b9190614872565b611c359190614872565b611c3f9190614872565b611c499190614872565b60ff166001901b8516148015611c6857506000611c668686610d90565b115b15611c7557506000611dc7565b6008611c83600d60ff614872565b611c8d9190614872565b60ff166001901b6008600d60ff611ca49190614872565b611cae9190614872565b60ff166001901b85161415611d4157611cc86002856115eb565b80611cd65750611cd66122ba565b611d3c5760405162461bcd60e51b815260206004820152603160248201527f596f75206d757374206861766520612043617374657220746f6b656e20746f2060448201527036b4b73a103a37b5b2b71033b0ba32b99760791b6064820152608401610df8565b611dbb565b611d4c6001856115eb565b80611d5a5750611d5a6122ba565b611dbb5760405162461bcd60e51b815260206004820152602c60248201527f596f75206d75737420686176652061204d696e74657220746f6b656e20746f2060448201526b36b4b73a103a37b5b2b7399760a11b6064820152608401610df8565b611dc785858585612a87565b949350505050565b6008611ddd600d60ff614872565b611de79190614872565b60ff166008901b81565b611dfc6004846115eb565b80611e0a5750611e0a6122ba565b611e735760405162461bcd60e51b815260206004820152603460248201527f596f75206d7573742068617665206120436f6e6669677572657220746f6b656e604482015273103a379031b430b733b29036b2ba30b230ba309760611b6064820152608401610df8565b600083815261019360205260409020611e8d9083836139a5565b50827f6bb7ff708619ba0610cba295a58592e0451dee2622938c8755667688daf3529b8383604051611ec092919061439b565b60405180910390a2505050565b6008611edb600d60ff614872565b611ee59190614872565b60ff16611ef4600860026147b0565b901b81565b6101928054610ea5906148c1565b611f12848484611df1565b611140848261143e565b600061158183836000611596565b6112d8600d60ff614872565b610194546000908190611f4a906001614755565b9050611f576006826115eb565b80611f655750611f656122ba565b611fcd5760405162461bcd60e51b815260206004820152603360248201527f596f75206d757374206861766520612043726561746f7220746f6b656e20746f6044820152721031b932b0ba32903732bb903a37b5b2b7399760691b6064820152608401610df8565b6101948054600181810183556000929092527fa6f1ac7ad7b125ba5a5e1c96b00ad6914f90a503b1ac3d85a9dadbb4c639df920182905561200f908483612094565b5061201c60048483612094565b5061202960078483612094565b50604080518281526001600160a01b03851660208201527f7757890bcab34d673dfca6b71df1b57f75a2fe4231d6e8de726caf534ab1fdd6910160405180910390a192915050565b6114bd338383612b99565b611412600d60ff614872565b611de7600d60ff614872565b60008084603c8111156120b757634e487b7160e01b600052602160045260246000fd5b141561212a576120c56122ba565b6121255760405162461bcd60e51b815260206004820152602b60248201527f596f75206d75737420626520612073757065727573657220746f20637265617460448201526a32903732bb9037b732b99760a91b6064820152608401610df8565b6121aa565b6121356002836115eb565b8061214357506121436122ba565b6121aa5760405162461bcd60e51b815260206004820152603260248201527f596f75206d7573742068617665207468652043617374657220726f6c6520746f6044820152711030b9b9b4b3b7103732bb903937b632b99760711b6064820152608401610df8565b611dc7836121b886856114c1565b600160405180602001604052806000815250611be0565b60016003806121e0600d60ff614872565b6121ea9190614872565b6119ed9190614872565b600380612203600d60ff614872565b61172c9190614872565b6008806115e1600d60ff614872565b600861222a600d60ff614872565b6122349190614872565b60ff166007901b81565b600061224b600083611f1c565b80610e265750506097546001600160a01b0391821691161490565b6119f7600d60ff614872565b61227e600d60ff614872565b60ff16610200901b81565b612295600d60ff614872565b60ff166040901b81565b60016003806122b0600d60ff614872565b6115e19190614872565b60006122c53361223e565b905090565b60006122c533611f36565b6001600160a01b0385163314806122f157506122f18533610c99565b61230d5760405162461bcd60e51b8152600401610df8906144b5565b6112358585858585612c7a565b6003806121ea600d60ff614872565b6097546001600160a01b031633146123535760405162461bcd60e51b8152600401610df89061461c565b6001600160a01b0381166123b85760405162461bcd60e51b815260206004820152602660248201527f4f776e61626c653a206e6577206f776e657220697320746865207a65726f206160448201526564647265737360d01b6064820152608401610df8565b6113ec81612a35565b6001600160a01b0383163314806123dd57506123dd8333610c99565b6123f95760405162461bcd60e51b8152600401610df8906144b5565b611b97838383612d9b565b610e94600d60ff614872565b61241c600d60ff614872565b60ff166080901b81565b6001600160a01b03163b151590565b81518351146124565760405162461bcd60e51b8152600401610df8906146ea565b6001600160a01b03841661247c5760405162461bcd60e51b8152600401610df89061454a565b3361248b818787878787612ea0565b60005b84518110156125905760008582815181106124b957634e487b7160e01b600052603260045260246000fd5b6020026020010151905060008583815181106124e557634e487b7160e01b600052603260045260246000fd5b60209081029190910181015160008481526065835260408082206001600160a01b038e1683529093529190912054909150818110156125365760405162461bcd60e51b8152600401610df8906145d2565b60008381526065602090815260408083206001600160a01b038e8116855292528083208585039055908b16825281208054849290612575908490614755565b925050819055505050508061258990614928565b905061248e565b50846001600160a01b0316866001600160a01b0316826001600160a01b03167f4a39dc06d4c0dbc64b70af90fd698a233a518aa5d07e595d983b8c0526c8f7fb87876040516125e0929190614376565b60405180910390a46125f681878787878761333b565b505050505050565b6126086005611177565b8061261657506126166122ba565b6113ec5760405162461bcd60e51b815260206004820152603960248201527f596f75206d75737420686176652061204d61696e7461696e657220746f6b656e60448201527f20746f20757067726164652074686520636f6e74726163742e000000000000006064820152608401610df8565b7f4910fdfa16fed3260ed0e7147f7cc6da11a60208b5b9406d12a635614ffd91435460ff16156126bb57611b97836134a6565b826001600160a01b03166352d1902d6040518163ffffffff1660e01b815260040160206040518083038186803b1580156126f457600080fd5b505afa925050508015612724575060408051601f3d908101601f1916820190925261272191810190614029565b60015b6127875760405162461bcd60e51b815260206004820152602e60248201527f45524331393637557067726164653a206e657720696d706c656d656e7461746960448201526d6f6e206973206e6f74205555505360901b6064820152608401610df8565b600080516020614a2683398151915281146127f65760405162461bcd60e51b815260206004820152602960248201527f45524331393637557067726164653a20756e737570706f727465642070726f786044820152681a58589b195555525160ba1b6064820152608401610df8565b50611b97838383613542565b600054610100900460ff166128295760405162461bcd60e51b8152600401610df89061469f565b611bde613567565b600054610100900460ff166128585760405162461bcd60e51b8152600401610df89061469f565b6113ec81613597565b600054610100900460ff16611bde5760405162461bcd60e51b8152600401610df89061469f565b6001600160a01b0383166128ae5760405162461bcd60e51b8152600401610df89061458f565b80518251146128cf5760405162461bcd60e51b8152600401610df8906146ea565b60003390506128f281856000868660405180602001604052806000815250612ea0565b60005b83518110156129d657600084828151811061292057634e487b7160e01b600052603260045260246000fd5b60200260200101519050600084838151811061294c57634e487b7160e01b600052603260045260246000fd5b60209081029190910181015160008481526065835260408082206001600160a01b038c16835290935291909120549091508181101561299d5760405162461bcd60e51b8152600401610df890614425565b60009283526065602090815260408085206001600160a01b038b16865290915290922091039055806129ce81614928565b9150506128f5565b5060006001600160a01b0316846001600160a01b0316826001600160a01b03167f4a39dc06d4c0dbc64b70af90fd698a233a518aa5d07e595d983b8c0526c8f7fb8686604051612a27929190614376565b60405180910390a450505050565b609780546001600160a01b038381166001600160a01b0319831681179093556040519116919082907f8be0079c531659141344cd1fd0a4f28419497f9722a3daafe3b4186f6b6457e090600090a35050565b6001600160a01b038416612ae75760405162461bcd60e51b815260206004820152602160248201527f455243313135353a206d696e7420746f20746865207a65726f206164647265736044820152607360f81b6064820152608401610df8565b33612b0781600087612af8886135c7565b612b01886135c7565b87612ea0565b60008481526065602090815260408083206001600160a01b038916845290915281208054859290612b39908490614755565b909155505060408051858152602081018590526001600160a01b0380881692600092918516917fc3d58168c5ae7397731d063d5bbf3d657854427343f4c083240f7aacaa2d0f62910160405180910390a461123581600087878787613620565b816001600160a01b0316836001600160a01b03161415612c0d5760405162461bcd60e51b815260206004820152602960248201527f455243313135353a2073657474696e6720617070726f76616c20737461747573604482015268103337b91039b2b63360b91b6064820152608401610df8565b6001600160a01b03838116600081815260666020908152604080832094871680845294825291829020805460ff191686151590811790915591519182527f17307eab39ab6107e8899845ad3d59bd9653f200f220920489ca2b5937696c31910160405180910390a3505050565b6001600160a01b038416612ca05760405162461bcd60e51b8152600401610df89061454a565b33612cb0818787612af8886135c7565b60008481526065602090815260408083206001600160a01b038a16845290915290205483811015612cf35760405162461bcd60e51b8152600401610df8906145d2565b60008581526065602090815260408083206001600160a01b038b8116855292528083208785039055908816825281208054869290612d32908490614755565b909155505060408051868152602081018690526001600160a01b03808916928a821692918616917fc3d58168c5ae7397731d063d5bbf3d657854427343f4c083240f7aacaa2d0f62910160405180910390a4612d92828888888888613620565b50505050505050565b6001600160a01b038316612dc15760405162461bcd60e51b8152600401610df89061458f565b33612df081856000612dd2876135c7565b612ddb876135c7565b60405180602001604052806000815250612ea0565b60008381526065602090815260408083206001600160a01b038816845290915290205482811015612e335760405162461bcd60e51b8152600401610df890614425565b60008481526065602090815260408083206001600160a01b03898116808652918452828520888703905582518981529384018890529092908616917fc3d58168c5ae7397731d063d5bbf3d657854427343f4c083240f7aacaa2d0f62910160405180910390a45050505050565b612ea86122ba565b612f665760005b8351811015612f6457612eeb600387868481518110612ede57634e487b7160e01b600052603260045260246000fd5b6020026020010151611596565b612f545760405162461bcd60e51b815260206004820152603460248201527f596f75206d75737420686176652061205472616e73666572657220746f6b656e604482015273103a37903a3930b739b332b9103a37b5b2b7399760611b6064820152608401610df8565b612f5d81614928565b9050612eaf565b505b6001600160a01b0384161561318c5760005b835181101561318a576101946001016000858381518110612fa957634e487b7160e01b600052603260045260246000fd5b60200260200101518152602001908152602001600020546000141561305557610194600001848281518110612fee57634e487b7160e01b600052603260045260246000fd5b602090810291909101810151825460018101845560009384529183209091015561019454855190916101959187908590811061303a57634e487b7160e01b600052603260045260246000fd5b60200260200101518152602001908152602001600020819055505b6101966000866001600160a01b03166001600160a01b0316815260200190815260200160002060010160008583815181106130a057634e487b7160e01b600052603260045260246000fd5b60200260200101518152602001908152602001600020546000141561317a576001600160a01b03851660009081526101966020526040902084518590839081106130fa57634e487b7160e01b600052603260045260246000fd5b602090810291909101810151825460018181018555600094855283852090910191909155610194546001600160a01b0389168452610196909252604083208751929391019187908590811061315f57634e487b7160e01b600052603260045260246000fd5b60200260200101518152602001908152602001600020819055505b61318381614928565b9050612f78565b505b6001600160a01b0385161561332d5760005b835181101561332b578281815181106131c757634e487b7160e01b600052603260045260246000fd5b60200260200101516131f38786848151811061185157634e487b7160e01b600052603260045260246000fd5b1161331b5760006101966000886001600160a01b03166001600160a01b03168152602001908152602001600020600101600086848151811061324557634e487b7160e01b600052603260045260246000fd5b602002602001015181526020019081526020016000205490506101966000886001600160a01b03166001600160a01b0316815260200190815260200160002060000181815481106132a657634e487b7160e01b600052603260045260246000fd5b90600052602060002001600090556101966000886001600160a01b03166001600160a01b0316815260200190815260200160002060010160008684815181106132ff57634e487b7160e01b600052603260045260246000fd5b6020026020010151815260200190815260200160002060009055505b61332481614928565b905061319e565b505b6125f68686868686866136ea565b6001600160a01b0384163b156125f65760405163bc197c8160e01b81526001600160a01b0385169063bc197c819061337f90899089908890889088906004016142c0565b602060405180830381600087803b15801561339957600080fd5b505af19250505080156133c9575060408051601f3d908101601f191682019092526133c69181019061405d565b60015b613476576133d561496f565b806308c379a0141561340f57506133ea614986565b806133f55750613411565b8060405162461bcd60e51b8152600401610df891906143ca565b505b60405162461bcd60e51b815260206004820152603460248201527f455243313135353a207472616e7366657220746f206e6f6e20455243313135356044820152732932b1b2b4bb32b91034b6b83632b6b2b73a32b960611b6064820152608401610df8565b6001600160e01b0319811663bc197c8160e01b14612d925760405162461bcd60e51b8152600401610df8906143dd565b6001600160a01b0381163b6135135760405162461bcd60e51b815260206004820152602d60248201527f455243313936373a206e657720696d706c656d656e746174696f6e206973206e60448201526c1bdd08184818dbdb9d1c9858dd609a1b6064820152608401610df8565b600080516020614a2683398151915280546001600160a01b0319166001600160a01b0392909216919091179055565b61354b8361382e565b6000825111806135585750805b15611b9757611140838361386e565b600054610100900460ff1661358e5760405162461bcd60e51b8152600401610df89061469f565b611bde33612a35565b600054610100900460ff166135be5760405162461bcd60e51b8152600401610df89061469f565b6113ec81613959565b6040805160018082528183019092526060916000919060208083019080368337019050509050828160008151811061360f57634e487b7160e01b600052603260045260246000fd5b602090810291909101015292915050565b6001600160a01b0384163b156125f65760405163f23a6e6160e01b81526001600160a01b0385169063f23a6e6190613664908990899088908890889060040161431e565b602060405180830381600087803b15801561367e57600080fd5b505af19250505080156136ae575060408051601f3d908101601f191682019092526136ab9181019061405d565b60015b6136ba576133d561496f565b6001600160e01b0319811663f23a6e6160e01b14612d925760405162461bcd60e51b8152600401610df8906143dd565b6001600160a01b03851661378d5760005b835181101561378b5782818151811061372457634e487b7160e01b600052603260045260246000fd5b602002602001015160fb600086848151811061375057634e487b7160e01b600052603260045260246000fd5b6020026020010151815260200190815260200160002060008282546137759190614755565b90915550613784905081614928565b90506136fb565b505b6001600160a01b0384166125f65760005b8351811015612d92578281815181106137c757634e487b7160e01b600052603260045260246000fd5b602002602001015160fb60008684815181106137f357634e487b7160e01b600052603260045260246000fd5b602002602001015181526020019081526020016000206000828254613818919061485b565b90915550613827905081614928565b905061379e565b613837816134a6565b6040516001600160a01b038216907fbc7cd75a20ee27fd9adebab32041f755214dbc6bffa90cc0225b39da2e5c2d3b90600090a250565b60606001600160a01b0383163b6138d65760405162461bcd60e51b815260206004820152602660248201527f416464726573733a2064656c65676174652063616c6c20746f206e6f6e2d636f6044820152651b9d1c9858dd60d21b6064820152608401610df8565b600080846001600160a01b0316846040516138f191906142a4565b600060405180830381855af49150503d806000811461392c576040519150601f19603f3d011682016040523d82523d6000602084013e613931565b606091505b50915091506115c98282604051806060016040528060278152602001614a466027913961396c565b80516114bd906067906020840190613a29565b6060831561397b575081611581565b82511561398b5782518084602001fd5b8160405162461bcd60e51b8152600401610df891906143ca565b8280546139b1906148c1565b90600052602060002090601f0160209004810192826139d35760008555613a19565b82601f106139ec5782800160ff19823516178555613a19565b82800160010185558215613a19579182015b82811115613a195782358255916020019190600101906139fe565b50613a25929150613a9d565b5090565b828054613a35906148c1565b90600052602060002090601f016020900481019282613a575760008555613a19565b82601f10613a7057805160ff1916838001178555613a19565b82800160010185558215613a19579182015b82811115613a19578251825591602001919060010190613a82565b5b80821115613a255760008155600101613a9e565b80356001600160a01b0381168114613ac957600080fd5b919050565b600082601f830112613ade578081fd5b81356020613aeb82614732565b604051613af882826148fc565b8381528281019150858301600585901b87018401881015613b17578586fd5b855b85811015613b3c57613b2a82613ab2565b84529284019290840190600101613b19565b5090979650505050505050565b600082601f830112613b59578081fd5b81356020613b6682614732565b604051613b7382826148fc565b8381528281019150858301600585901b87018401881015613b92578586fd5b855b85811015613b3c57813584529284019290840190600101613b94565b600082601f830112613bc0578081fd5b81356001600160401b03811115613bd957613bd9614959565b604051613bf0601f8301601f1916602001826148fc565b818152846020838601011115613c04578283fd5b816020850160208301379081016020019190915292915050565b8035603d8110613ac957600080fd5b60008083601f840112613c3e578182fd5b5081356001600160401b03811115613c54578182fd5b602083019150836020828501011115613c6c57600080fd5b9250929050565b600060208284031215613c84578081fd5b61158182613ab2565b60008060408385031215613c9f578081fd5b613ca883613ab2565b9150613cb660208401613ab2565b90509250929050565b600080600080600060a08688031215613cd6578081fd5b613cdf86613ab2565b9450613ced60208701613ab2565b935060408601356001600160401b0380821115613d08578283fd5b613d1489838a01613b49565b94506060880135915080821115613d29578283fd5b613d3589838a01613b49565b93506080880135915080821115613d4a578283fd5b50613d5788828901613bb0565b9150509295509295909350565b600080600080600060a08688031215613d7b578081fd5b613d8486613ab2565b9450613d9260208701613ab2565b9350604086013592506060860135915060808601356001600160401b03811115613dba578182fd5b613d5788828901613bb0565b600080600060608486031215613dda578283fd5b613de384613ab2565b925060208401356001600160401b0380821115613dfe578384fd5b613e0a87838801613b49565b93506040860135915080821115613e1f578283fd5b50613e2c86828701613b49565b9150509250925092565b60008060408385031215613e48578182fd5b613e5183613ab2565b915060208301358015158114613e65578182fd5b809150509250929050565b60008060408385031215613e82578182fd5b613e8b83613ab2565b915060208301356001600160401b03811115613ea5578182fd5b613eb185828601613bb0565b9150509250929050565b60008060408385031215613ecd578182fd5b613ed683613ab2565b946020939093013593505050565b600080600060608486031215613ef8578081fd5b613f0184613ab2565b95602085013595506040909401359392505050565b60008060008060808587031215613f2b578182fd5b613f3485613ab2565b9350602085013592506040850135915060608501356001600160401b03811115613f5c578182fd5b613f6887828801613bb0565b91505092959194509250565b60008060408385031215613f86578182fd5b82356001600160401b0380821115613f9c578384fd5b613fa886838701613ace565b93506020850135915080821115613fbd578283fd5b50613eb185828601613b49565b600080600060608486031215613fde578081fd5b83356001600160401b0380821115613ff4578283fd5b61400087838801613ace565b945060208601359350604086013591508082111561401c578283fd5b50613e2c86828701613bb0565b60006020828403121561403a578081fd5b5051919050565b600060208284031215614052578081fd5b813561158181614a0f565b60006020828403121561406e578081fd5b815161158181614a0f565b60006020828403121561408a578081fd5b61158182613c1e565b600080604083850312156140a5578182fd5b613ca883613c1e565b6000806000606084860312156140c2578081fd5b6140cb84613c1e565b92506140d960208501613ab2565b9150604084013590509250925092565b600080604083850312156140fb578182fd5b613ed683613c1e565b60008060008060408587031215614119578182fd5b84356001600160401b038082111561412f578384fd5b61413b88838901613c2d565b90965094506020870135915080821115614153578384fd5b5061416087828801613c2d565b95989497509550505050565b60006020828403121561417d578081fd5b5035919050565b600080600060408486031215614198578081fd5b8335925060208401356001600160401b038111156141b4578182fd5b6141c086828701613c2d565b9497909650939450505050565b600080600080606085870312156141e2578182fd5b8435935060208501356001600160401b038111156141fe578283fd5b61420a87828801613c2d565b9598909750949560400135949350505050565b6000806040838503121561422f578182fd5b50508035926020909101359150565b6000815180845260208085019450808401835b8381101561426d57815187529582019590820190600101614251565b509495945050505050565b60008151808452614290816020860160208601614895565b601f01601f19169290920160200192915050565b600082516142b6818460208701614895565b9190910192915050565b6001600160a01b0386811682528516602082015260a0604082018190526000906142ec9083018661423e565b82810360608401526142fe818661423e565b905082810360808401526143128185614278565b98975050505050505050565b6001600160a01b03868116825285166020820152604081018490526060810183905260a06080820181905260009061435890830184614278565b979650505050505050565b602081526000611581602083018461423e565b604081526000614389604083018561423e565b82810360208401526115c9818561423e565b60208152816020820152818360408301376000818301604090810191909152601f909201601f19160101919050565b6020815260006115816020830184614278565b60208082526028908201527f455243313135353a204552433131353552656365697665722072656a656374656040820152676420746f6b656e7360c01b606082015260800190565b60208082526024908201527f455243313135353a206275726e20616d6f756e7420657863656564732062616c604082015263616e636560e01b606082015260800190565b6020808252602c908201527f46756e6374696f6e206d7573742062652063616c6c6564207468726f7567682060408201526b19195b1959d85d1958d85b1b60a21b606082015260800190565b60208082526029908201527f455243313135353a2063616c6c6572206973206e6f74206f776e6572206e6f7260408201526808185c1c1c9bdd995960ba1b606082015260800190565b6020808252602c908201527f46756e6374696f6e206d7573742062652063616c6c6564207468726f7567682060408201526b6163746976652070726f787960a01b606082015260800190565b60208082526025908201527f455243313135353a207472616e7366657220746f20746865207a65726f206164604082015264647265737360d81b606082015260800190565b60208082526023908201527f455243313135353a206275726e2066726f6d20746865207a65726f206164647260408201526265737360e81b606082015260800190565b6020808252602a908201527f455243313135353a20696e73756666696369656e742062616c616e636520666f60408201526939103a3930b739b332b960b11b606082015260800190565b6020808252818101527f4f776e61626c653a2063616c6c6572206973206e6f7420746865206f776e6572604082015260600190565b6020808252602e908201527f4552432d3131353520456e756d657261626c653a20746f6b656e20696e64657860408201526d206f7574206f6620626f756e647360901b606082015260800190565b6020808252602b908201527f496e697469616c697a61626c653a20636f6e7472616374206973206e6f74206960408201526a6e697469616c697a696e6760a81b606082015260800190565b60208082526028908201527f455243313135353a2069647320616e6420616d6f756e7473206c656e677468206040820152670dad2e6dac2e8c6d60c31b606082015260800190565b60006001600160401b0382111561474b5761474b614959565b5060051b60200190565b6000821982111561476857614768614943565b500190565b600181815b808511156147a857816000190482111561478e5761478e614943565b8085161561479b57918102915b93841c9390800290614772565b509250929050565b600061158160ff8416836000826147c957506001610e26565b816147d657506000610e26565b81600181146147ec57600281146147f657614812565b6001915050610e26565b60ff84111561480757614807614943565b50506001821b610e26565b5060208310610133831016604e8410600b8410161715614835575081810a610e26565b61483f838361476d565b806000190482111561485357614853614943565b029392505050565b60008282101561486d5761486d614943565b500390565b600060ff821660ff84168082101561488c5761488c614943565b90039392505050565b60005b838110156148b0578181015183820152602001614898565b838111156111405750506000910152565b600181811c908216806148d557607f821691505b602082108114156148f657634e487b7160e01b600052602260045260246000fd5b50919050565b601f8201601f191681016001600160401b038111828210171561492157614921614959565b6040525050565b600060001982141561493c5761493c614943565b5060010190565b634e487b7160e01b600052601160045260246000fd5b634e487b7160e01b600052604160045260246000fd5b600060033d1115611ac057600481823e5160e01c90565b600060443d10156149945790565b6040516003193d81016004833e81513d6001600160401b0381602484011181841117156149c357505050505090565b82850191508151818111156149db5750505050505090565b843d87010160208285010111156149f55750505050505090565b614a04602082860101876148fc565b509095945050505050565b6001600160e01b0319811681146113ec57600080fdfe360894a13ba1a3210667c828492db98dca3e2076cc3735a920a3ca505d382bbc416464726573733a206c6f772d6c6576656c2064656c65676174652063616c6c206661696c6564a26469706673582212206abd8057802a77799db2676b40184680c15427893bd45b0ee04f1a87e1b2c0c664736f6c63430008040033",
  "linkReferences": {},
  "deployedLinkReferences": {}
}