{
  "_format": "hh-sol-artifact-1",
  "contractName": "BulkDisbursableNFTs",
  "sourceName": "src/BulkDisbursableNFTs.sol",
  "abi": [
    {
      "inputs": [],
      "stateMutability": "nonpayable",
      "type": "constructor"
    },
    {
      "anonymous": false,
      "inputs": [
        {
          "indexed": false,
          "internalType": "address",
          "name": "previousAdmin",
          "type": "address"
        },
        {
          "indexed": false,
          "internalType": "address",
          "name": "newAdmin",
          "type": "address"
        }
      ],
      "name": "AdminChanged",
      "type": "event"
    },
    {
      "anonymous": false,
      "inputs": [
        {
          "indexed": true,
          "internalType": "address",
          "name": "account",
          "type": "address"
        },
        {
          "indexed": true,
          "internalType": "address",
          "name": "operator",
          "type": "address"
        },
        {
          "indexed": false,
          "internalType": "bool",
          "name": "approved",
          "type": "bool"
        }
      ],
      "name": "ApprovalForAll",
      "type": "event"
    },
    {
      "anonymous": false,
      "inputs": [
        {
          "indexed": true,
          "internalType": "address",
          "name": "beacon",
          "type": "address"
        }
      ],
      "name": "BeaconUpgraded",
      "type": "event"
    },
    {
      "anonymous": false,
      "inputs": [
        {
          "indexed": false,
          "internalType": "uint256",
          "name": "id",
          "type": "uint256"
        },
        {
          "indexed": false,
          "internalType": "address",
          "name": "controller",
          "type": "address"
        }
      ],
      "name": "Created",
      "type": "event"
    },
    {
      "anonymous": false,
      "inputs": [
        {
          "indexed": true,
          "internalType": "address",
          "name": "previousOwner",
          "type": "address"
        },
        {
          "indexed": true,
          "internalType": "address",
          "name": "newOwner",
          "type": "address"
        }
      ],
      "name": "OwnershipTransferred",
      "type": "event"
    },
    {
      "anonymous": false,
      "inputs": [
        {
          "indexed": true,
          "internalType": "address",
          "name": "operator",
          "type": "address"
        },
        {
          "indexed": true,
          "internalType": "address",
          "name": "from",
          "type": "address"
        },
        {
          "indexed": true,
          "internalType": "address",
          "name": "to",
          "type": "address"
        },
        {
          "indexed": false,
          "internalType": "uint256[]",
          "name": "ids",
          "type": "uint256[]"
        },
        {
          "indexed": false,
          "internalType": "uint256[]",
          "name": "values",
          "type": "uint256[]"
        }
      ],
      "name": "TransferBatch",
      "type": "event"
    },
    {
      "anonymous": false,
      "inputs": [
        {
          "indexed": true,
          "internalType": "address",
          "name": "operator",
          "type": "address"
        },
        {
          "indexed": true,
          "internalType": "address",
          "name": "from",
          "type": "address"
        },
        {
          "indexed": true,
          "internalType": "address",
          "name": "to",
          "type": "address"
        },
        {
          "indexed": false,
          "internalType": "uint256",
          "name": "id",
          "type": "uint256"
        },
        {
          "indexed": false,
          "internalType": "uint256",
          "name": "value",
          "type": "uint256"
        }
      ],
      "name": "TransferSingle",
      "type": "event"
    },
    {
      "anonymous": false,
      "inputs": [
        {
          "indexed": false,
          "internalType": "string",
          "name": "value",
          "type": "string"
        },
        {
          "indexed": true,
          "internalType": "uint256",
          "name": "id",
          "type": "uint256"
        }
      ],
      "name": "URI",
      "type": "event"
    },
    {
      "anonymous": false,
      "inputs": [
        {
          "indexed": true,
          "internalType": "address",
          "name": "implementation",
          "type": "address"
        }
      ],
      "name": "Upgraded",
      "type": "event"
    },
    {
      "inputs": [],
      "name": "ADDRESS_TYPE",
      "outputs": [
        {
          "internalType": "uint256",
          "name": "",
          "type": "uint256"
        }
      ],
      "stateMutability": "view",
      "type": "function"
    },
    {
      "inputs": [],
      "name": "COUNTER_WIDTH",
      "outputs": [
        {
          "internalType": "uint8",
          "name": "",
          "type": "uint8"
        }
      ],
      "stateMutability": "view",
      "type": "function"
    },
    {
      "inputs": [],
      "name": "EXPERIMENTAL_TYPE",
      "outputs": [
        {
          "internalType": "uint256",
          "name": "",
          "type": "uint256"
        }
      ],
      "stateMutability": "view",
      "type": "function"
    },
    {
      "inputs": [],
      "name": "GATING_TYPE",
      "outputs": [
        {
          "internalType": "uint256",
          "name": "",
          "type": "uint256"
        }
      ],
      "stateMutability": "view",
      "type": "function"
    },
    {
      "inputs": [],
      "name": "MEMBERSHIP_TYPE",
      "outputs": [
        {
          "internalType": "uint256",
          "name": "",
          "type": "uint256"
        }
      ],
      "stateMutability": "view",
      "type": "function"
    },
    {
      "inputs": [],
      "name": "REACTION_TYPE",
      "outputs": [
        {
          "internalType": "uint256",
          "name": "",
          "type": "uint256"
        }
      ],
      "stateMutability": "view",
      "type": "function"
    },
    {
      "inputs": [],
      "name": "RECORDED_TIME_TYPE",
      "outputs": [
        {
          "internalType": "uint256",
          "name": "",
          "type": "uint256"
        }
      ],
      "stateMutability": "view",
      "type": "function"
    },
    {
      "inputs": [],
      "name": "RECORDING_TYPE",
      "outputs": [
        {
          "internalType": "uint256",
          "name": "",
          "type": "uint256"
        }
      ],
      "stateMutability": "view",
      "type": "function"
    },
    {
      "inputs": [],
      "name": "REPETITION_BOUNDARY",
      "outputs": [
        {
          "internalType": "uint8",
          "name": "",
          "type": "uint8"
        }
      ],
      "stateMutability": "view",
      "type": "function"
    },
    {
      "inputs": [],
      "name": "REPETITION_WIDTH",
      "outputs": [
        {
          "internalType": "uint8",
          "name": "",
          "type": "uint8"
        }
      ],
      "stateMutability": "view",
      "type": "function"
    },
    {
      "inputs": [],
      "name": "REQUIREMENT_BOUNDARY",
      "outputs": [
        {
          "internalType": "uint8",
          "name": "",
          "type": "uint8"
        }
      ],
      "stateMutability": "view",
      "type": "function"
    },
    {
      "inputs": [],
      "name": "REQUIREMENT_WIDTH",
      "outputs": [
        {
          "internalType": "uint8",
          "name": "",
          "type": "uint8"
        }
      ],
      "stateMutability": "view",
      "type": "function"
    },
    {
      "inputs": [],
      "name": "REQUIRE_ALL",
      "outputs": [
        {
          "internalType": "uint256",
          "name": "",
          "type": "uint256"
        }
      ],
      "stateMutability": "view",
      "type": "function"
    },
    {
      "inputs": [],
      "name": "REQUIRE_NONE",
      "outputs": [
        {
          "internalType": "uint256",
          "name": "",
          "type": "uint256"
        }
      ],
      "stateMutability": "view",
      "type": "function"
    },
    {
      "inputs": [],
      "name": "REQUIRE_ONE",
      "outputs": [
        {
          "internalType": "uint256",
          "name": "",
          "type": "uint256"
        }
      ],
      "stateMutability": "view",
      "type": "function"
    },
    {
      "inputs": [],
      "name": "REVIEW_TYPE",
      "outputs": [
        {
          "internalType": "uint256",
          "name": "",
          "type": "uint256"
        }
      ],
      "stateMutability": "view",
      "type": "function"
    },
    {
      "inputs": [],
      "name": "ROLE_BOUNDARY",
      "outputs": [
        {
          "internalType": "uint8",
          "name": "",
          "type": "uint8"
        }
      ],
      "stateMutability": "view",
      "type": "function"
    },
    {
      "inputs": [],
      "name": "ROLE_WIDTH",
      "outputs": [
        {
          "internalType": "uint8",
          "name": "",
          "type": "uint8"
        }
      ],
      "stateMutability": "view",
      "type": "function"
    },
    {
      "inputs": [],
      "name": "TEAM_1",
      "outputs": [
        {
          "internalType": "uint256",
          "name": "",
          "type": "uint256"
        }
      ],
      "stateMutability": "view",
      "type": "function"
    },
    {
      "inputs": [],
      "name": "TEAM_2",
      "outputs": [
        {
          "internalType": "uint256",
          "name": "",
          "type": "uint256"
        }
      ],
      "stateMutability": "view",
      "type": "function"
    },
    {
      "inputs": [],
      "name": "TEAM_3",
      "outputs": [
        {
          "internalType": "uint256",
          "name": "",
          "type": "uint256"
        }
      ],
      "stateMutability": "view",
      "type": "function"
    },
    {
      "inputs": [],
      "name": "TEAM_4",
      "outputs": [
        {
          "internalType": "uint256",
          "name": "",
          "type": "uint256"
        }
      ],
      "stateMutability": "view",
      "type": "function"
    },
    {
      "inputs": [],
      "name": "TEAM_5",
      "outputs": [
        {
          "internalType": "uint256",
          "name": "",
          "type": "uint256"
        }
      ],
      "stateMutability": "view",
      "type": "function"
    },
    {
      "inputs": [],
      "name": "TEAM_6",
      "outputs": [
        {
          "internalType": "uint256",
          "name": "",
          "type": "uint256"
        }
      ],
      "stateMutability": "view",
      "type": "function"
    },
    {
      "inputs": [],
      "name": "TEAM_7",
      "outputs": [
        {
          "internalType": "uint256",
          "name": "",
          "type": "uint256"
        }
      ],
      "stateMutability": "view",
      "type": "function"
    },
    {
      "inputs": [],
      "name": "TEAM_8",
      "outputs": [
        {
          "internalType": "uint256",
          "name": "",
          "type": "uint256"
        }
      ],
      "stateMutability": "view",
      "type": "function"
    },
    {
      "inputs": [],
      "name": "TEAM_9",
      "outputs": [
        {
          "internalType": "uint256",
          "name": "",
          "type": "uint256"
        }
      ],
      "stateMutability": "view",
      "type": "function"
    },
    {
      "inputs": [],
      "name": "TEAM_A",
      "outputs": [
        {
          "internalType": "uint256",
          "name": "",
          "type": "uint256"
        }
      ],
      "stateMutability": "view",
      "type": "function"
    },
    {
      "inputs": [],
      "name": "TEAM_B",
      "outputs": [
        {
          "internalType": "uint256",
          "name": "",
          "type": "uint256"
        }
      ],
      "stateMutability": "view",
      "type": "function"
    },
    {
      "inputs": [],
      "name": "TEAM_BOUNDARY",
      "outputs": [
        {
          "internalType": "uint8",
          "name": "",
          "type": "uint8"
        }
      ],
      "stateMutability": "view",
      "type": "function"
    },
    {
      "inputs": [],
      "name": "TEAM_C",
      "outputs": [
        {
          "internalType": "uint256",
          "name": "",
          "type": "uint256"
        }
      ],
      "stateMutability": "view",
      "type": "function"
    },
    {
      "inputs": [],
      "name": "TEAM_D",
      "outputs": [
        {
          "internalType": "uint256",
          "name": "",
          "type": "uint256"
        }
      ],
      "stateMutability": "view",
      "type": "function"
    },
    {
      "inputs": [],
      "name": "TEAM_WIDTH",
      "outputs": [
        {
          "internalType": "uint8",
          "name": "",
          "type": "uint8"
        }
      ],
      "stateMutability": "view",
      "type": "function"
    },
    {
      "inputs": [],
      "name": "TYPE_BOUNDARY",
      "outputs": [
        {
          "internalType": "uint8",
          "name": "",
          "type": "uint8"
        }
      ],
      "stateMutability": "view",
      "type": "function"
    },
    {
      "inputs": [],
      "name": "TYPE_WIDTH",
      "outputs": [
        {
          "internalType": "uint8",
          "name": "",
          "type": "uint8"
        }
      ],
      "stateMutability": "view",
      "type": "function"
    },
    {
      "inputs": [],
      "name": "UNIQUE",
      "outputs": [
        {
          "internalType": "uint256",
          "name": "",
          "type": "uint256"
        }
      ],
      "stateMutability": "view",
      "type": "function"
    },
    {
      "inputs": [],
      "name": "UNIQUENESS_BOUNDARY",
      "outputs": [
        {
          "internalType": "uint8",
          "name": "",
          "type": "uint8"
        }
      ],
      "stateMutability": "view",
      "type": "function"
    },
    {
      "inputs": [],
      "name": "UNIQUENESS_WIDTH",
      "outputs": [
        {
          "internalType": "uint8",
          "name": "",
          "type": "uint8"
        }
      ],
      "stateMutability": "view",
      "type": "function"
    },
    {
      "inputs": [],
      "name": "USE_AFTER",
      "outputs": [
        {
          "internalType": "uint256",
          "name": "",
          "type": "uint256"
        }
      ],
      "stateMutability": "view",
      "type": "function"
    },
    {
      "inputs": [],
      "name": "USE_ONCE",
      "outputs": [
        {
          "internalType": "uint256",
          "name": "",
          "type": "uint256"
        }
      ],
      "stateMutability": "view",
      "type": "function"
    },
    {
      "inputs": [],
      "name": "USE_UNLIMITED",
      "outputs": [
        {
          "internalType": "uint256",
          "name": "",
          "type": "uint256"
        }
      ],
      "stateMutability": "view",
      "type": "function"
    },
    {
      "inputs": [],
      "name": "USE_UNTIL",
      "outputs": [
        {
          "internalType": "uint256",
          "name": "",
          "type": "uint256"
        }
      ],
      "stateMutability": "view",
      "type": "function"
    },
    {
      "inputs": [],
      "name": "VANILLA_TYPE",
      "outputs": [
        {
          "internalType": "uint256",
          "name": "",
          "type": "uint256"
        }
      ],
      "stateMutability": "view",
      "type": "function"
    },
    {
      "inputs": [],
      "name": "VOUCHED_TIME_TYPE",
      "outputs": [
        {
          "internalType": "uint256",
          "name": "",
          "type": "uint256"
        }
      ],
      "stateMutability": "view",
      "type": "function"
    },
    {
      "inputs": [
        {
          "internalType": "address",
          "name": "account",
          "type": "address"
        },
        {
          "internalType": "uint256",
          "name": "id",
          "type": "uint256"
        }
      ],
      "name": "balanceOf",
      "outputs": [
        {
          "internalType": "uint256",
          "name": "",
          "type": "uint256"
        }
      ],
      "stateMutability": "view",
      "type": "function"
    },
    {
      "inputs": [
        {
          "internalType": "address[]",
          "name": "accounts",
          "type": "address[]"
        },
        {
          "internalType": "uint256[]",
          "name": "ids",
          "type": "uint256[]"
        }
      ],
      "name": "balanceOfBatch",
      "outputs": [
        {
          "internalType": "uint256[]",
          "name": "",
          "type": "uint256[]"
        }
      ],
      "stateMutability": "view",
      "type": "function"
    },
    {
      "inputs": [
        {
          "internalType": "address",
          "name": "account",
          "type": "address"
        },
        {
          "internalType": "uint256",
          "name": "id",
          "type": "uint256"
        },
        {
          "internalType": "uint256",
          "name": "value",
          "type": "uint256"
        }
      ],
      "name": "burn",
      "outputs": [],
      "stateMutability": "nonpayable",
      "type": "function"
    },
    {
      "inputs": [
        {
          "internalType": "address",
          "name": "account",
          "type": "address"
        },
        {
          "internalType": "uint256[]",
          "name": "ids",
          "type": "uint256[]"
        },
        {
          "internalType": "uint256[]",
          "name": "values",
          "type": "uint256[]"
        }
      ],
      "name": "burnBatch",
      "outputs": [],
      "stateMutability": "nonpayable",
      "type": "function"
    },
    {
      "inputs": [
        {
          "internalType": "uint256",
          "name": "id",
          "type": "uint256"
        },
        {
          "internalType": "string",
          "name": "newURI",
          "type": "string"
        },
        {
          "internalType": "uint256",
          "name": "max",
          "type": "uint256"
        }
      ],
      "name": "configure",
      "outputs": [],
      "stateMutability": "nonpayable",
      "type": "function"
    },
    {
      "inputs": [
        {
          "internalType": "address",
          "name": "maintainer",
          "type": "address"
        }
      ],
      "name": "create",
      "outputs": [
        {
          "internalType": "uint256",
          "name": "id",
          "type": "uint256"
        }
      ],
      "stateMutability": "nonpayable",
      "type": "function"
    },
    {
      "inputs": [],
      "name": "create",
      "outputs": [
        {
          "internalType": "uint256",
          "name": "id",
          "type": "uint256"
        }
      ],
      "stateMutability": "nonpayable",
      "type": "function"
    },
    {
      "inputs": [
        {
          "internalType": "uint256",
          "name": "id",
          "type": "uint256"
        }
      ],
      "name": "exists",
      "outputs": [
        {
          "internalType": "bool",
          "name": "",
          "type": "bool"
        }
      ],
      "stateMutability": "view",
      "type": "function"
    },
    {
      "inputs": [
        {
          "internalType": "enum BulkDisbursableNFTs.Role",
          "name": "role",
          "type": "uint8"
        },
        {
          "internalType": "address",
          "name": "user",
          "type": "address"
        }
      ],
      "name": "grantRole",
      "outputs": [
        {
          "internalType": "bool",
          "name": "added",
          "type": "bool"
        }
      ],
      "stateMutability": "nonpayable",
      "type": "function"
    },
    {
      "inputs": [
        {
          "internalType": "enum BulkDisbursableNFTs.Role",
          "name": "role",
          "type": "uint8"
        },
        {
          "internalType": "address",
          "name": "user",
          "type": "address"
        },
        {
          "internalType": "uint256",
          "name": "id",
          "type": "uint256"
        }
      ],
      "name": "grantRole",
      "outputs": [
        {
          "internalType": "bool",
          "name": "added",
          "type": "bool"
        }
      ],
      "stateMutability": "nonpayable",
      "type": "function"
    },
    {
      "inputs": [
        {
          "internalType": "enum BulkDisbursableNFTs.Role",
          "name": "role",
          "type": "uint8"
        }
      ],
      "name": "hasRole",
      "outputs": [
        {
          "internalType": "bool",
          "name": "has",
          "type": "bool"
        }
      ],
      "stateMutability": "view",
      "type": "function"
    },
    {
      "inputs": [
        {
          "internalType": "enum BulkDisbursableNFTs.Role",
          "name": "role",
          "type": "uint8"
        },
        {
          "internalType": "address",
          "name": "user",
          "type": "address"
        },
        {
          "internalType": "uint256",
          "name": "id",
          "type": "uint256"
        }
      ],
      "name": "hasRole",
      "outputs": [
        {
          "internalType": "bool",
          "name": "has",
          "type": "bool"
        }
      ],
      "stateMutability": "view",
      "type": "function"
    },
    {
      "inputs": [
        {
          "internalType": "enum BulkDisbursableNFTs.Role",
          "name": "role",
          "type": "uint8"
        },
        {
          "internalType": "uint256",
          "name": "id",
          "type": "uint256"
        }
      ],
      "name": "hasRole",
      "outputs": [
        {
          "internalType": "bool",
          "name": "has",
          "type": "bool"
        }
      ],
      "stateMutability": "view",
      "type": "function"
    },
    {
      "inputs": [
        {
          "internalType": "enum BulkDisbursableNFTs.Role",
          "name": "role",
          "type": "uint8"
        },
        {
          "internalType": "address",
          "name": "user",
          "type": "address"
        }
      ],
      "name": "hasRole",
      "outputs": [
        {
          "internalType": "bool",
          "name": "has",
          "type": "bool"
        }
      ],
      "stateMutability": "view",
      "type": "function"
    },
    {
      "inputs": [
        {
          "internalType": "string",
          "name": "_name",
          "type": "string"
        },
        {
          "internalType": "string",
          "name": "_symbol",
          "type": "string"
        }
      ],
      "name": "initialize",
      "outputs": [],
      "stateMutability": "nonpayable",
      "type": "function"
    },
    {
      "inputs": [
        {
          "internalType": "address",
          "name": "account",
          "type": "address"
        },
        {
          "internalType": "address",
          "name": "operator",
          "type": "address"
        }
      ],
      "name": "isApprovedForAll",
      "outputs": [
        {
          "internalType": "bool",
          "name": "",
          "type": "bool"
        }
      ],
      "stateMutability": "view",
      "type": "function"
    },
    {
      "inputs": [
        {
          "internalType": "address",
          "name": "user",
          "type": "address"
        }
      ],
      "name": "isSuper",
      "outputs": [
        {
          "internalType": "bool",
          "name": "superuser",
          "type": "bool"
        }
      ],
      "stateMutability": "view",
      "type": "function"
    },
    {
      "inputs": [],
      "name": "isSuper",
      "outputs": [
        {
          "internalType": "bool",
          "name": "superuser",
          "type": "bool"
        }
      ],
      "stateMutability": "view",
      "type": "function"
    },
    {
      "inputs": [
        {
          "internalType": "address[]",
          "name": "to",
          "type": "address[]"
        },
        {
          "internalType": "uint256",
          "name": "id",
          "type": "uint256"
        },
        {
          "internalType": "bytes",
          "name": "data",
          "type": "bytes"
        }
      ],
      "name": "mint",
      "outputs": [],
      "stateMutability": "nonpayable",
      "type": "function"
    },
    {
      "inputs": [
        {
          "internalType": "address",
          "name": "recipient",
          "type": "address"
        },
        {
          "internalType": "uint256",
          "name": "id",
          "type": "uint256"
        },
        {
          "internalType": "uint256",
          "name": "amount",
          "type": "uint256"
        },
        {
          "internalType": "bytes",
          "name": "data",
          "type": "bytes"
        }
      ],
      "name": "mint",
      "outputs": [
        {
          "internalType": "bool",
          "name": "minted",
          "type": "bool"
        }
      ],
      "stateMutability": "nonpayable",
      "type": "function"
    },
    {
      "inputs": [],
      "name": "name",
      "outputs": [
        {
          "internalType": "string",
          "name": "",
          "type": "string"
        }
      ],
      "stateMutability": "view",
      "type": "function"
    },
    {
      "inputs": [],
      "name": "owner",
      "outputs": [
        {
          "internalType": "address",
          "name": "",
          "type": "address"
        }
      ],
      "stateMutability": "view",
      "type": "function"
    },
    {
      "inputs": [],
      "name": "proxiableUUID",
      "outputs": [
        {
          "internalType": "bytes32",
          "name": "",
          "type": "bytes32"
        }
      ],
      "stateMutability": "view",
      "type": "function"
    },
    {
      "inputs": [],
      "name": "renounceOwnership",
      "outputs": [],
      "stateMutability": "nonpayable",
      "type": "function"
    },
    {
      "inputs": [
        {
          "internalType": "enum BulkDisbursableNFTs.Role",
          "name": "role",
          "type": "uint8"
        }
      ],
      "name": "roleToken",
      "outputs": [
        {
          "internalType": "uint256",
          "name": "tokenId",
          "type": "uint256"
        }
      ],
      "stateMutability": "view",
      "type": "function"
    },
    {
      "inputs": [
        {
          "internalType": "enum BulkDisbursableNFTs.Role",
          "name": "role",
          "type": "uint8"
        },
        {
          "internalType": "uint256",
          "name": "id",
          "type": "uint256"
        }
      ],
      "name": "roleToken",
      "outputs": [
        {
          "internalType": "uint256",
          "name": "tokenId",
          "type": "uint256"
        }
      ],
      "stateMutability": "view",
      "type": "function"
    },
    {
      "inputs": [
        {
          "internalType": "string",
          "name": "roleName",
          "type": "string"
        }
      ],
      "name": "roleValueForName",
      "outputs": [
        {
          "internalType": "enum BulkDisbursableNFTs.Role",
          "name": "role",
          "type": "uint8"
        }
      ],
      "stateMutability": "pure",
      "type": "function"
    },
    {
      "inputs": [
        {
          "internalType": "address",
          "name": "from",
          "type": "address"
        },
        {
          "internalType": "address",
          "name": "to",
          "type": "address"
        },
        {
          "internalType": "uint256[]",
          "name": "ids",
          "type": "uint256[]"
        },
        {
          "internalType": "uint256[]",
          "name": "amounts",
          "type": "uint256[]"
        },
        {
          "internalType": "bytes",
          "name": "data",
          "type": "bytes"
        }
      ],
      "name": "safeBatchTransferFrom",
      "outputs": [],
      "stateMutability": "nonpayable",
      "type": "function"
    },
    {
      "inputs": [
        {
          "internalType": "address",
          "name": "from",
          "type": "address"
        },
        {
          "internalType": "address",
          "name": "to",
          "type": "address"
        },
        {
          "internalType": "uint256",
          "name": "id",
          "type": "uint256"
        },
        {
          "internalType": "uint256",
          "name": "amount",
          "type": "uint256"
        },
        {
          "internalType": "bytes",
          "name": "data",
          "type": "bytes"
        }
      ],
      "name": "safeTransferFrom",
      "outputs": [],
      "stateMutability": "nonpayable",
      "type": "function"
    },
    {
      "inputs": [
        {
          "internalType": "address",
          "name": "operator",
          "type": "address"
        },
        {
          "internalType": "bool",
          "name": "approved",
          "type": "bool"
        }
      ],
      "name": "setApprovalForAll",
      "outputs": [],
      "stateMutability": "nonpayable",
      "type": "function"
    },
    {
      "inputs": [
        {
          "internalType": "string",
          "name": "_name",
          "type": "string"
        },
        {
          "internalType": "string",
          "name": "_symbol",
          "type": "string"
        }
      ],
      "name": "setDescription",
      "outputs": [],
      "stateMutability": "nonpayable",
      "type": "function"
    },
    {
      "inputs": [
        {
          "internalType": "uint256",
          "name": "id",
          "type": "uint256"
        },
        {
          "internalType": "uint256",
          "name": "max",
          "type": "uint256"
        }
      ],
      "name": "setMax",
      "outputs": [],
      "stateMutability": "nonpayable",
      "type": "function"
    },
    {
      "inputs": [
        {
          "internalType": "uint256",
          "name": "id",
          "type": "uint256"
        },
        {
          "internalType": "string",
          "name": "newURI",
          "type": "string"
        }
      ],
      "name": "setURI",
      "outputs": [],
      "stateMutability": "nonpayable",
      "type": "function"
    },
    {
      "inputs": [
        {
          "internalType": "bytes4",
          "name": "interfaceId",
          "type": "bytes4"
        }
      ],
      "name": "supportsInterface",
      "outputs": [
        {
          "internalType": "bool",
          "name": "",
          "type": "bool"
        }
      ],
      "stateMutability": "view",
      "type": "function"
    },
    {
      "inputs": [],
      "name": "symbol",
      "outputs": [
        {
          "internalType": "string",
          "name": "",
          "type": "string"
        }
      ],
      "stateMutability": "view",
      "type": "function"
    },
    {
      "inputs": [
        {
          "internalType": "uint256",
          "name": "index",
          "type": "uint256"
        }
      ],
      "name": "tokenByIndex",
      "outputs": [
        {
          "internalType": "uint256",
          "name": "",
          "type": "uint256"
        }
      ],
      "stateMutability": "view",
      "type": "function"
    },
    {
      "inputs": [
        {
          "internalType": "address",
          "name": "owner",
          "type": "address"
        },
        {
          "internalType": "uint256",
          "name": "index",
          "type": "uint256"
        }
      ],
      "name": "tokenOfOwnerByIndex",
      "outputs": [
        {
          "internalType": "uint256",
          "name": "",
          "type": "uint256"
        }
      ],
      "stateMutability": "view",
      "type": "function"
    },
    {
      "inputs": [],
      "name": "totalSupply",
      "outputs": [
        {
          "internalType": "uint256",
          "name": "count",
          "type": "uint256"
        }
      ],
      "stateMutability": "view",
      "type": "function"
    },
    {
      "inputs": [
        {
          "internalType": "uint256",
          "name": "id",
          "type": "uint256"
        }
      ],
      "name": "totalSupply",
      "outputs": [
        {
          "internalType": "uint256",
          "name": "",
          "type": "uint256"
        }
      ],
      "stateMutability": "view",
      "type": "function"
    },
    {
      "inputs": [
        {
          "internalType": "address",
          "name": "newOwner",
          "type": "address"
        }
      ],
      "name": "transferOwnership",
      "outputs": [],
      "stateMutability": "nonpayable",
      "type": "function"
    },
    {
      "inputs": [
        {
          "internalType": "address",
          "name": "newImplementation",
          "type": "address"
        }
      ],
      "name": "upgradeTo",
      "outputs": [],
      "stateMutability": "nonpayable",
      "type": "function"
    },
    {
      "inputs": [
        {
          "internalType": "address",
          "name": "newImplementation",
          "type": "address"
        },
        {
          "internalType": "bytes",
          "name": "data",
          "type": "bytes"
        }
      ],
      "name": "upgradeToAndCall",
      "outputs": [],
      "stateMutability": "payable",
      "type": "function"
    },
    {
      "inputs": [
        {
          "internalType": "uint256",
          "name": "id",
          "type": "uint256"
        }
      ],
      "name": "uri",
      "outputs": [
        {
          "internalType": "string",
          "name": "metadata",
          "type": "string"
        }
      ],
      "stateMutability": "view",
      "type": "function"
    }
  ],
  "bytecode": "0x60a06040523060601b6080523480156200001857600080fd5b50600054610100900460ff16620000365760005460ff161562000040565b62000040620000e5565b620000a85760405162461bcd60e51b815260206004820152602e60248201527f496e697469616c697a61626c653a20636f6e747261637420697320616c72656160448201526d191e481a5b9a5d1a585b1a5e995960921b606482015260840160405180910390fd5b600054610100900460ff16158015620000cb576000805461ffff19166101011790555b8015620000de576000805461ff00191690555b5062000112565b6000620000fd306200010360201b620026b11760201c565b15905090565b6001600160a01b03163b151590565b60805160601c614eea6200014d6000396000818161167f015281816116bf01528181611c2801528181611c680152611d810152614eea6000f3fe6080604052600436106104bf5760003560e01c80635d5664e111610276578063aae5270f1161014f578063e5587f7a116100c1578063f242432a11610085578063f242432a14610d49578063f28a726d14610d69578063f2fde38b14610d7e578063f5298aca14610d9e578063f73a731114610dbe578063f8418ef314610dd357600080fd5b8063e5587f7a14610cac578063e864109214610cc1578063e985e9c514610cd6578063edc79bac14610d1f578063efc81a8c14610d3457600080fd5b8063bd85b03911610113578063bd85b03914610c20578063c3c8df9914610c4d578063c5a0d9b2146106be578063d701765014610c6d578063db58fe9514610c82578063dbd406e814610c9757600080fd5b8063aae5270f14610bb7578063aaeec72d14610bcc578063b8785f8a14610be1578063ba952df114610bf6578063baf42f9314610c0b57600080fd5b80638da5cb5b116101e85780639eb3f243116101ac5780639eb3f24314610b185780639ed9331814610b2d578063a22cb46514610b4d578063a8410bc114610b6d578063a9c906ae14610b82578063aa8e906614610b9757600080fd5b80638da5cb5b14610a86578063957dc9a014610aae57806395d89b4114610ac35780639d6d7eaa14610ad85780639e97b8f614610af857600080fd5b80636fa09a791161023a5780636fa09a7914610a07578063715018a614610a1c578063731133e914610a3157806383e5b21a14610a51578063862440e214610a66578063891fbef0146107b157600080fd5b80635d5664e11461097d5780635e2a33861461099d578063666e6fd5146109b25780636755d456146109c75780636b20c454146109e757600080fd5b80633659cfe6116103a85780634cd88b761161031a5780634f558e79116102de5780634f558e79146108da5780634f6ccce7146109095780635157b5631461092957806351d294251461093e57806352d1902d14610953578063552376611461096857600080fd5b80634cd88b76146108505780634ce7a244146108705780634e1273f4146108855780634f06c0fb146108b25780634f1ef286146108c757600080fd5b80633c176d9f1161036c5780633c176d9f146107b15780633dbe35de146107c65780633f79f1a4146107e65780634468031f146107fb57806344cca2df1461081b578063482895891461083057600080fd5b80633659cfe61461073257806339054c23146107525780633adbbbc1146107675780633b60bd011461077c5780633b91ceef1461079157600080fd5b806318160ddd116104415780632eb2c2d6116104055780632eb2c2d61461069e5780632ed58d81146106be5780632f745c59146106d357806330c9cf93146106f357806334628c1f1461070857806335ab86291461071d57600080fd5b806318160ddd1461061157806318ae23751461062757806319e0755c1461063c5780631c45349c1461065c5780632a7ccf131461067157600080fd5b80630e89341c116104885780630e89341c146105855780630ec0370f146105a557806311bb8afd146105c757806313affe4f146105dc57806314c46427146105f157600080fd5b8062fdd58e146104c457806301ffc9a7146104f7578063067ff8661461052757806306fdde031461054e5780630daec9e414610570575b600080fd5b3480156104d057600080fd5b506104e46104df366004614296565b610de8565b6040519081526020015b60405180910390f35b34801561050357600080fd5b5061051761051236600461441c565b610e84565b60405190151581526020016104ee565b34801561053357600080fd5b5061053c610ed4565b60405160ff90911681526020016104ee565b34801561055a57600080fd5b50610563610eef565b6040516104ee9190614812565b34801561057c57600080fd5b506104e4610f7e565b34801561059157600080fd5b506105636105a036600461458c565b610f95565b3480156105b157600080fd5b506105c56105c03660046143a5565b611147565b005b3480156105d357600080fd5b5061053c602a81565b3480156105e857600080fd5b506104e461119e565b3480156105fd57600080fd5b506104e461060c366004614454565b6111b4565b34801561061d57600080fd5b50610194546104e4565b34801561063357600080fd5b5061053c6111c1565b34801561064857600080fd5b50610517610657366004614454565b6111cf565b34801561066857600080fd5b506104e46111db565b34801561067d57600080fd5b5061069161068c366004614547565b6111fd565b6040516104ee91906147bb565b3480156106aa57600080fd5b506105c56106b936600461409a565b61150a565b3480156106ca57600080fd5b5061053c600381565b3480156106df57600080fd5b506104e46106ee366004614296565b6115a1565b3480156106ff57600080fd5b506104e4611625565b34801561071457600080fd5b506104e4611647565b34801561072957600080fd5b506104e461165d565b34801561073e57600080fd5b506105c561074d36600461404e565b611674565b34801561075e57600080fd5b506104e4611754565b34801561077357600080fd5b506104e4611781565b34801561078857600080fd5b5061053c600d81565b34801561079d57600080fd5b506105c56107ac36600461463d565b6117a3565b3480156107bd57600080fd5b5061053c600881565b3480156107d257600080fd5b506104e46107e13660046144c4565b611826565b3480156107f257600080fd5b506104e46118ed565b34801561080757600080fd5b50610517610816366004614489565b6118fb565b34801561082757600080fd5b5061053c611937565b34801561083c57600080fd5b5061051761084b3660046144c4565b611950565b34801561085c57600080fd5b506105c561086b3660046144df565b61195d565b34801561087c57600080fd5b506104e4611a83565b34801561089157600080fd5b506108a56108a036600461434f565b611aa5565b6040516104ee9190614783565b3480156108be57600080fd5b506104e4611c06565b6105c56108d536600461424b565b611c1d565b3480156108e657600080fd5b506105176108f536600461458c565b600090815260fb6020526040902054151590565b34801561091557600080fd5b506104e461092436600461458c565b611cea565b34801561093557600080fd5b506104e4611d44565b34801561094a57600080fd5b506104e4611d66565b34801561095f57600080fd5b506104e4611d74565b34801561097457600080fd5b506104e4611e28565b34801561098957600080fd5b5061051761099836600461446e565b611e41565b3480156109a957600080fd5b506104e4611e4f565b3480156109be57600080fd5b506104e4611e66565b3480156109d357600080fd5b506105c56109e23660046144df565b611e74565b3480156109f357600080fd5b506105c5610a023660046141a1565b611eb9565b348015610a1357600080fd5b506104e4611f01565b348015610a2857600080fd5b506105c5611f0f565b348015610a3d57600080fd5b50610517610a4c3660046142f1565b611f45565b348015610a5d57600080fd5b506104e4612134565b348015610a7257600080fd5b506105c5610a813660046145a4565b612156565b348015610a9257600080fd5b506097546040516001600160a01b0390911681526020016104ee565b348015610aba57600080fd5b506104e4612232565b348015610acf57600080fd5b5061056361225e565b348015610ae457600080fd5b506105c5610af33660046145ed565b61226c565b348015610b0457600080fd5b50610517610b1336600461446e565b612281565b348015610b2457600080fd5b506104e461228f565b348015610b3957600080fd5b506104e4610b4836600461404e565b61229b565b348015610b5957600080fd5b506105c5610b68366004614211565b612406565b348015610b7957600080fd5b506104e4612411565b348015610b8e57600080fd5b506104e461241d565b348015610ba357600080fd5b50610517610bb2366004614489565b612429565b348015610bc357600080fd5b506104e4612438565b348015610bd857600080fd5b506104e461245d565b348015610bed57600080fd5b5061053c600181565b348015610c0257600080fd5b5061053c612476565b348015610c1757600080fd5b506104e4612485565b348015610c2c57600080fd5b506104e4610c3b36600461458c565b600090815260fb602052604090205490565b348015610c5957600080fd5b50610517610c6836600461404e565b6124a7565b348015610c7957600080fd5b506104e46124cf565b348015610c8e57600080fd5b506104e46124db565b348015610ca357600080fd5b506104e46124f2565b348015610cb857600080fd5b5061053c612508565b348015610ccd57600080fd5b506104e4612523565b348015610ce257600080fd5b50610517610cf1366004614068565b6001600160a01b03918216600090815260666020908152604080832093909416825291909152205460ff1690565b348015610d2b57600080fd5b50610517612545565b348015610d4057600080fd5b506104e4612555565b348015610d5557600080fd5b506105c5610d6436600461413f565b612560565b348015610d7557600080fd5b506104e46125a5565b348015610d8a57600080fd5b506105c5610d9936600461404e565b6125b4565b348015610daa57600080fd5b506105c5610db93660046142bf565b61264c565b348015610dca57600080fd5b5061053c61268f565b348015610ddf57600080fd5b506104e461269b565b60006001600160a01b038316610e595760405162461bcd60e51b815260206004820152602b60248201527f455243313135353a2062616c616e636520717565727920666f7220746865207a60448201526a65726f206164647265737360a81b60648201526084015b60405180910390fd5b5060008181526065602090815260408083206001600160a01b03861684529091529020545b92915050565b60006001600160e01b03198216636cdb3d1360e11b1480610eb557506001600160e01b031982166303a24d0760e21b145b80610e7e57506301ffc9a760e01b6001600160e01b0319831614610e7e565b6008610ee2600d60ff614cba565b610eec9190614cba565b81565b6101918054610efd90614d09565b80601f0160208091040260200160405190810160405280929190818152602001828054610f2990614d09565b8015610f765780601f10610f4b57610100808354040283529160200191610f76565b820191906000526020600020905b815481529060010190602001808311610f5957829003601f168201915b505050505081565b610f8a600d60ff614cba565b60ff16610400901b81565b60008181526101936020526040812080546060929190610fb490614d09565b80601f0160208091040260200160405190810160405280929190818152602001828054610fe090614d09565b801561102d5780601f106110025761010080835404028352916020019161102d565b820191906000526020600020905b81548152906001019060200180831161101057829003601f168201915b50505050509050805160001415610e7e57600861104c600d60ff614cba565b6110569190614cba565b60ff166001901b6008600d60ff61106d9190614cba565b6110779190614cba565b60ff16600161108860086002614bf8565b6110929190614ca3565b901b84161415610e7e576503ffffffffff19831660008181526101936020526040902080546110c090614d09565b80601f01602080910402602001604051908101604052809291908181526020018280546110ec90614d09565b80156111395780601f1061110e57610100808354040283529160200191611139565b820191906000526020600020905b81548152906001019060200180831161111c57829003601f168201915b505050505091505092915050565b60005b83518110156111985761118784828151811061117657634e487b7160e01b600052603260045260246000fd5b602002602001015184600185611f45565b5061119181614d70565b905061114a565b50505050565b6111aa600d60ff614cba565b60ff166010901b81565b6000610e7e826000611826565b6003610ee2600d60ff614cba565b6000610e7e8233612281565b60086111e9600d60ff614cba565b6111f39190614cba565b60ff166006901b81565b6000808260405160200161121191906146c4565b604051602081830303815290604052805190602001209050604051602001611248906829bab832b93ab9b2b960b91b815260090190565b6040516020818303038152906040528051906020012081141561126e5750600192915050565b6040516526b4b73a32b960d11b6020820152602601604051602081830303815290604052805190602001208114156112a95750600292915050565b6040516521b0b9ba32b960d11b6020820152602601604051602081830303815290604052805190602001208114156112e45750600392915050565b604051692a3930b739b332b932b960b11b6020820152602a01604051602081830303815290604052805190602001208114156113235750600492915050565b6040516921b7b73334b3bab932b960b11b6020820152602a01604051602081830303815290604052805190602001208114156113625750600592915050565b6040516926b0b4b73a30b4b732b960b11b6020820152602a01604051602081830303815290604052805190602001208114156113a15750600692915050565b6040516621b932b0ba37b960c91b6020820152602701604051602081830303815290604052805190602001208114156113dd5750600792915050565b604051662634b6b4ba32b960c91b6020820152602701604051602081830303815290604052805190602001208114156114195750600892915050565b60405165213ab93732b960d11b6020820152602601604051602081830303815290604052805190602001208114156114545750600992915050565b604051682232b9ba3937bcb2b960b91b6020820152602901604051602081830303815290604052805190602001208114156114925750600a92915050565b604051654f7261636c6560d01b6020820152602601604051602081830303815290604052805190602001208114156114cd5750600b92915050565b60405162461bcd60e51b81526020600482015260126024820152712ab735b737bbb7103937b632903a3cb8329760711b6044820152606401610e50565b6001600160a01b03851633148061152657506115268533610cf1565b61158d5760405162461bcd60e51b815260206004820152603260248201527f455243313135353a207472616e736665722063616c6c6572206973206e6f74206044820152711bdddb995c881b9bdc88185c1c1c9bdd995960721b6064820152608401610e50565b61159a85858585856126c0565b5050505050565b6001600160a01b0382166000908152610196602052604081205482106115d95760405162461bcd60e51b8152600401610e5090614a99565b6001600160a01b03831660009081526101966020526040902080548390811061161257634e487b7160e01b600052603260045260246000fd5b9060005260206000200154905092915050565b6008611633600d60ff614cba565b61163d9190614cba565b60ff166004901b81565b611653600d60ff614cba565b60ff166020901b81565b611669600d60ff614cba565b60ff16611000901b81565b306001600160a01b037f00000000000000000000000000000000000000000000000000000000000000001614156116bd5760405162461bcd60e51b8152600401610e50906148b1565b7f00000000000000000000000000000000000000000000000000000000000000006001600160a01b0316611706600080516020614e6e833981519152546001600160a01b031690565b6001600160a01b03161461172c5760405162461bcd60e51b8152600401610e5090614946565b61173581612889565b6040805160008082526020820190925261175191839190612913565b50565b600380611763600d60ff614cba565b61176d9190614cba565b6117779190614cba565b60ff166002901b81565b600861178f600d60ff614cba565b6117999190614cba565b60ff166005901b81565b6117ae600883611950565b806117bc57506117bc612545565b6118225760405162461bcd60e51b815260206004820152603160248201527f596f75206d75737420686176652061204c696d6974657220746f6b656e20746f6044820152701031b430b733b29038bab0b73a34ba3c9760791b6064820152608401610e50565b5050565b600081600880611838600d60ff614cba565b6118429190614cba565b61184c9190614cba565b60ff1684603c81111561186f57634e487b7160e01b600052602160045260246000fd5b901b6001600380611882600d60ff614cba565b61188c9190614cba565b6118969190614cba565b6118a09190614cba565b60ff166001901b6008600d60ff6118b79190614cba565b6118c19190614cba565b60ff166001901b6118d29190614b9d565b6118dc9190614b9d565b6118e69190614b9d565b9392505050565b600861176d600d60ff614cba565b600080611907856111b4565b905060006119158583610de8565b118061192e5750600061192c856104df8685614b9d565b115b95945050505050565b600380611946600d60ff614cba565b610ee29190614cba565b60006118e68333846118fb565b600054610100900460ff166119785760005460ff161561197c565b303b155b6119df5760405162461bcd60e51b815260206004820152602e60248201527f496e697469616c697a61626c653a20636f6e747261637420697320616c72656160448201526d191e481a5b9a5d1a585b1a5e995960921b6064820152608401610e50565b600054610100900460ff16158015611a01576000805461ffff19166101011790555b611a09612a8d565b611a476040518060400160405280602081526020017f4572726f723a2053696e676c6520546f6b656e20555249204e6f742055736564815250612abc565b611a4f612aec565b611a57612aec565b611a5f612aec565b611a6b85858585611e74565b801561159a576000805461ff00191690555050505050565b6003611a91600d60ff614cba565b611a9b9190614cba565b60ff166003901b81565b60608151835114611b0a5760405162461bcd60e51b815260206004820152602960248201527f455243313135353a206163636f756e747320616e6420696473206c656e677468604482015268040dad2e6dac2e8c6d60bb1b6064820152608401610e50565b600083516001600160401b03811115611b3357634e487b7160e01b600052604160045260246000fd5b604051908082528060200260200182016040528015611b5c578160200160208202803683370190505b50905060005b8451811015611bfe57611bc3858281518110611b8e57634e487b7160e01b600052603260045260246000fd5b6020026020010151858381518110611bb657634e487b7160e01b600052603260045260246000fd5b6020026020010151610de8565b828281518110611be357634e487b7160e01b600052603260045260246000fd5b6020908102919091010152611bf781614d70565b9050611b62565b509392505050565b611c12600d60ff614cba565b60ff16610800901b81565b306001600160a01b037f0000000000000000000000000000000000000000000000000000000000000000161415611c665760405162461bcd60e51b8152600401610e50906148b1565b7f00000000000000000000000000000000000000000000000000000000000000006001600160a01b0316611caf600080516020614e6e833981519152546001600160a01b031690565b6001600160a01b031614611cd55760405162461bcd60e51b8152600401610e5090614946565b611cde82612889565b61182282826001612913565b610194546000908210611d0f5760405162461bcd60e51b8152600401610e5090614a99565b610194805483908110611d3257634e487b7160e01b600052603260045260246000fd5b90600052602060002001549050919050565b6003611d52600d60ff614cba565b611d5c9190614cba565b60ff166001901b81565b6008611d52600d60ff614cba565b6000306001600160a01b037f00000000000000000000000000000000000000000000000000000000000000001614611e145760405162461bcd60e51b815260206004820152603860248201527f555550535570677261646561626c653a206d757374206e6f742062652063616c60448201527f6c6564207468726f7567682064656c656761746563616c6c00000000000000006064820152608401610e50565b50600080516020614e6e8339815191525b90565b600380611e37600d60ff614cba565b6116339190614cba565b60006118e683836000612429565b611e5b600d60ff614cba565b60ff16610100901b81565b6008611a91600d60ff614cba565b6097546001600160a01b03163314611e9e5760405162461bcd60e51b8152600401610e5090614a64565b611eab6101918585613d72565b5061159a6101928383613d72565b6001600160a01b038316331480611ed55750611ed58333610cf1565b611ef15760405162461bcd60e51b8152600401610e50906148fd565b611efc838383612b13565b505050565b600361176d600d60ff614cba565b6097546001600160a01b03163314611f395760405162461bcd60e51b8152600401610e5090614a64565b611f436000612cc0565b565b60006001600380611f58600d60ff614cba565b611f629190614cba565b611f6c9190614cba565b611f769190614cba565b60ff166001901b6001600380600d60ff611f909190614cba565b611f9a9190614cba565b611fa49190614cba565b611fae9190614cba565b60ff166001901b8516148015611fcd57506000611fcb8686610de8565b115b15611fda5750600061212c565b6008611fe8600d60ff614cba565b611ff29190614cba565b60ff166001901b6008600d60ff6120099190614cba565b6120139190614cba565b60ff166001901b851614156120a65761202d600385611950565b8061203b575061203b612545565b6120a15760405162461bcd60e51b815260206004820152603160248201527f596f75206d757374206861766520612043617374657220746f6b656e20746f2060448201527036b4b73a103a37b5b2b71033b0ba32b99760791b6064820152608401610e50565b612120565b6120b1600285611950565b806120bf57506120bf612545565b6121205760405162461bcd60e51b815260206004820152602c60248201527f596f75206d75737420686176652061204d696e74657220746f6b656e20746f2060448201526b36b4b73a103a37b5b2b7399760a11b6064820152608401610e50565b61212c85858585612d12565b949350505050565b6008612142600d60ff614cba565b61214c9190614cba565b60ff166008901b81565b612161600584611950565b8061216f575061216f612545565b6121d85760405162461bcd60e51b815260206004820152603460248201527f596f75206d7573742068617665206120436f6e6669677572657220746f6b656e604482015273103a379031b430b733b29036b2ba30b230ba309760611b6064820152608401610e50565b6000838152610193602052604090206121f2908383613d72565b50827f6bb7ff708619ba0610cba295a58592e0451dee2622938c8755667688daf3529b83836040516122259291906147e3565b60405180910390a2505050565b6008612240600d60ff614cba565b61224a9190614cba565b60ff1661225960086002614bf8565b901b81565b6101928054610efd90614d09565b612277848484612156565b61119884826117a3565b60006118e6838360006118fb565b61163d600d60ff614cba565b61019454600090819060086122b2600d60ff614cba565b6122bc9190614cba565b60ff166009901b6122cd9190614b9d565b6122d8906001614b9d565b90506122e5600782611950565b806122f357506122f3612545565b61235b5760405162461bcd60e51b815260206004820152603360248201527f596f75206d757374206861766520612043726561746f7220746f6b656e20746f6044820152721031b932b0ba32903732bb903a37b5b2b7399760691b6064820152608401610e50565b610194805460018101825560009182527fa6f1ac7ad7b125ba5a5e1c96b00ad6914f90a503b1ac3d85a9dadbb4c639df92018290556123a09060029085908490612e24565b506123af600584836000612e24565b506123be600884836000612e24565b50604080518281526001600160a01b03851660208201527f7757890bcab34d673dfca6b71df1b57f75a2fe4231d6e8de726caf534ab1fdd6910160405180910390a192915050565b611822338383612f66565b611777600d60ff614cba565b61214c600d60ff614cba565b600061212c8484846001612e24565b6001600380612449600d60ff614cba565b6124539190614cba565b611d529190614cba565b60038061246c600d60ff614cba565b611a919190614cba565b600880611946600d60ff614cba565b6008612493600d60ff614cba565b61249d9190614cba565b60ff166007901b81565b60006124b4600183612281565b80610e7e5750506097546001600160a01b0391821691161490565b611d5c600d60ff614cba565b6124e7600d60ff614cba565b60ff16610200901b81565b6124fe600d60ff614cba565b60ff166040901b81565b6001600380612519600d60ff614cba565b6119469190614cba565b6008612531600d60ff614cba565b61253b9190614cba565b60ff166009901b81565b6000612550336124a7565b905090565b60006125503361229b565b6001600160a01b03851633148061257c575061257c8533610cf1565b6125985760405162461bcd60e51b8152600401610e50906148fd565b61159a8585858585613047565b600380612453600d60ff614cba565b6097546001600160a01b031633146125de5760405162461bcd60e51b8152600401610e5090614a64565b6001600160a01b0381166126435760405162461bcd60e51b815260206004820152602660248201527f4f776e61626c653a206e6577206f776e657220697320746865207a65726f206160448201526564647265737360d01b6064820152608401610e50565b61175181612cc0565b6001600160a01b03831633148061266857506126688333610cf1565b6126845760405162461bcd60e51b8152600401610e50906148fd565b611efc838383613168565b610eec600d60ff614cba565b6126a7600d60ff614cba565b60ff166080901b81565b6001600160a01b03163b151590565b81518351146126e15760405162461bcd60e51b8152600401610e5090614b32565b6001600160a01b0384166127075760405162461bcd60e51b8152600401610e5090614992565b3361271681878787878761326d565b60005b845181101561281b57600085828151811061274457634e487b7160e01b600052603260045260246000fd5b60200260200101519050600085838151811061277057634e487b7160e01b600052603260045260246000fd5b60209081029190910181015160008481526065835260408082206001600160a01b038e1683529093529190912054909150818110156127c15760405162461bcd60e51b8152600401610e5090614a1a565b60008381526065602090815260408083206001600160a01b038e8116855292528083208585039055908b16825281208054849290612800908490614b9d565b925050819055505050508061281490614d70565b9050612719565b50846001600160a01b0316866001600160a01b0316826001600160a01b03167f4a39dc06d4c0dbc64b70af90fd698a233a518aa5d07e595d983b8c0526c8f7fb878760405161286b929190614796565b60405180910390a4612881818787878787613708565b505050505050565b61289360066111cf565b806128a157506128a1612545565b6117515760405162461bcd60e51b815260206004820152603960248201527f596f75206d75737420686176652061204d61696e7461696e657220746f6b656e60448201527f20746f20757067726164652074686520636f6e74726163742e000000000000006064820152608401610e50565b7f4910fdfa16fed3260ed0e7147f7cc6da11a60208b5b9406d12a635614ffd91435460ff161561294657611efc83613873565b826001600160a01b03166352d1902d6040518163ffffffff1660e01b815260040160206040518083038186803b15801561297f57600080fd5b505afa9250505080156129af575060408051601f3d908101601f191682019092526129ac91810190614404565b60015b612a125760405162461bcd60e51b815260206004820152602e60248201527f45524331393637557067726164653a206e657720696d706c656d656e7461746960448201526d6f6e206973206e6f74205555505360901b6064820152608401610e50565b600080516020614e6e8339815191528114612a815760405162461bcd60e51b815260206004820152602960248201527f45524331393637557067726164653a20756e737570706f727465642070726f786044820152681a58589b195555525160ba1b6064820152608401610e50565b50611efc83838361390f565b600054610100900460ff16612ab45760405162461bcd60e51b8152600401610e5090614ae7565b611f43613934565b600054610100900460ff16612ae35760405162461bcd60e51b8152600401610e5090614ae7565b61175181613964565b600054610100900460ff16611f435760405162461bcd60e51b8152600401610e5090614ae7565b6001600160a01b038316612b395760405162461bcd60e51b8152600401610e50906149d7565b8051825114612b5a5760405162461bcd60e51b8152600401610e5090614b32565b6000339050612b7d8185600086866040518060200160405280600081525061326d565b60005b8351811015612c61576000848281518110612bab57634e487b7160e01b600052603260045260246000fd5b602002602001015190506000848381518110612bd757634e487b7160e01b600052603260045260246000fd5b60209081029190910181015160008481526065835260408082206001600160a01b038c168352909352919091205490915081811015612c285760405162461bcd60e51b8152600401610e509061486d565b60009283526065602090815260408085206001600160a01b038b1686529091529092209103905580612c5981614d70565b915050612b80565b5060006001600160a01b0316846001600160a01b0316826001600160a01b03167f4a39dc06d4c0dbc64b70af90fd698a233a518aa5d07e595d983b8c0526c8f7fb8686604051612cb2929190614796565b60405180910390a450505050565b609780546001600160a01b038381166001600160a01b0319831681179093556040519116919082907f8be0079c531659141344cd1fd0a4f28419497f9722a3daafe3b4186f6b6457e090600090a35050565b6001600160a01b038416612d725760405162461bcd60e51b815260206004820152602160248201527f455243313135353a206d696e7420746f20746865207a65726f206164647265736044820152607360f81b6064820152608401610e50565b33612d9281600087612d8388613994565b612d8c88613994565b8761326d565b60008481526065602090815260408083206001600160a01b038916845290915281208054859290612dc4908490614b9d565b909155505060408051858152602081018590526001600160a01b0380881692600092918516917fc3d58168c5ae7397731d063d5bbf3d657854427343f4c083240f7aacaa2d0f62910160405180910390a461159a816000878787876139ed565b60008115612f4157600185603c811115612e4e57634e487b7160e01b600052602160045260246000fd5b1415612ec157612e5c612545565b612ebc5760405162461bcd60e51b815260206004820152602b60248201527f596f75206d75737420626520612073757065727573657220746f20637265617460448201526a32903732bb9037b732b99760a91b6064820152608401610e50565b612f41565b612ecc600384611950565b80612eda5750612eda612545565b612f415760405162461bcd60e51b815260206004820152603260248201527f596f75206d7573742068617665207468652043617374657220726f6c6520746f6044820152711030b9b9b4b3b7103732bb903937b632b99760711b6064820152608401610e50565b61192e84612f4f8786611826565b600160405180602001604052806000815250611f45565b816001600160a01b0316836001600160a01b03161415612fda5760405162461bcd60e51b815260206004820152602960248201527f455243313135353a2073657474696e6720617070726f76616c20737461747573604482015268103337b91039b2b63360b91b6064820152608401610e50565b6001600160a01b03838116600081815260666020908152604080832094871680845294825291829020805460ff191686151590811790915591519182527f17307eab39ab6107e8899845ad3d59bd9653f200f220920489ca2b5937696c31910160405180910390a3505050565b6001600160a01b03841661306d5760405162461bcd60e51b8152600401610e5090614992565b3361307d818787612d8388613994565b60008481526065602090815260408083206001600160a01b038a168452909152902054838110156130c05760405162461bcd60e51b8152600401610e5090614a1a565b60008581526065602090815260408083206001600160a01b038b81168552925280832087850390559088168252812080548692906130ff908490614b9d565b909155505060408051868152602081018690526001600160a01b03808916928a821692918616917fc3d58168c5ae7397731d063d5bbf3d657854427343f4c083240f7aacaa2d0f62910160405180910390a461315f8288888888886139ed565b50505050505050565b6001600160a01b03831661318e5760405162461bcd60e51b8152600401610e50906149d7565b336131bd8185600061319f87613994565b6131a887613994565b6040518060200160405280600081525061326d565b60008381526065602090815260408083206001600160a01b0388168452909152902054828110156132005760405162461bcd60e51b8152600401610e509061486d565b60008481526065602090815260408083206001600160a01b03898116808652918452828520888703905582518981529384018890529092908616917fc3d58168c5ae7397731d063d5bbf3d657854427343f4c083240f7aacaa2d0f62910160405180910390a45050505050565b613275612545565b6133335760005b8351811015613331576132b86004878684815181106132ab57634e487b7160e01b600052603260045260246000fd5b60200260200101516118fb565b6133215760405162461bcd60e51b815260206004820152603460248201527f596f75206d75737420686176652061205472616e73666572657220746f6b656e604482015273103a37903a3930b739b332b9103a37b5b2b7399760611b6064820152608401610e50565b61332a81614d70565b905061327c565b505b6001600160a01b038416156135595760005b835181101561355757610194600101600085838151811061337657634e487b7160e01b600052603260045260246000fd5b602002602001015181526020019081526020016000205460001415613422576101946000018482815181106133bb57634e487b7160e01b600052603260045260246000fd5b602090810291909101810151825460018101845560009384529183209091015561019454855190916101959187908590811061340757634e487b7160e01b600052603260045260246000fd5b60200260200101518152602001908152602001600020819055505b6101966000866001600160a01b03166001600160a01b03168152602001908152602001600020600101600085838151811061346d57634e487b7160e01b600052603260045260246000fd5b602002602001015181526020019081526020016000205460001415613547576001600160a01b03851660009081526101966020526040902084518590839081106134c757634e487b7160e01b600052603260045260246000fd5b602090810291909101810151825460018181018555600094855283852090910191909155610194546001600160a01b0389168452610196909252604083208751929391019187908590811061352c57634e487b7160e01b600052603260045260246000fd5b60200260200101518152602001908152602001600020819055505b61355081614d70565b9050613345565b505b6001600160a01b038516156136fa5760005b83518110156136f85782818151811061359457634e487b7160e01b600052603260045260246000fd5b60200260200101516135c087868481518110611bb657634e487b7160e01b600052603260045260246000fd5b116136e85760006101966000886001600160a01b03166001600160a01b03168152602001908152602001600020600101600086848151811061361257634e487b7160e01b600052603260045260246000fd5b602002602001015181526020019081526020016000205490506101966000886001600160a01b03166001600160a01b03168152602001908152602001600020600001818154811061367357634e487b7160e01b600052603260045260246000fd5b90600052602060002001600090556101966000886001600160a01b03166001600160a01b0316815260200190815260200160002060010160008684815181106136cc57634e487b7160e01b600052603260045260246000fd5b6020026020010151815260200190815260200160002060009055505b6136f181614d70565b905061356b565b505b612881868686868686613ab7565b6001600160a01b0384163b156128815760405163bc197c8160e01b81526001600160a01b0385169063bc197c819061374c90899089908890889088906004016146e0565b602060405180830381600087803b15801561376657600080fd5b505af1925050508015613796575060408051601f3d908101601f1916820190925261379391810190614438565b60015b613843576137a2614db7565b806308c379a014156137dc57506137b7614dce565b806137c257506137de565b8060405162461bcd60e51b8152600401610e509190614812565b505b60405162461bcd60e51b815260206004820152603460248201527f455243313135353a207472616e7366657220746f206e6f6e20455243313135356044820152732932b1b2b4bb32b91034b6b83632b6b2b73a32b960611b6064820152608401610e50565b6001600160e01b0319811663bc197c8160e01b1461315f5760405162461bcd60e51b8152600401610e5090614825565b6001600160a01b0381163b6138e05760405162461bcd60e51b815260206004820152602d60248201527f455243313936373a206e657720696d706c656d656e746174696f6e206973206e60448201526c1bdd08184818dbdb9d1c9858dd609a1b6064820152608401610e50565b600080516020614e6e83398151915280546001600160a01b0319166001600160a01b0392909216919091179055565b61391883613bfb565b6000825111806139255750805b15611efc576111988383613c3b565b600054610100900460ff1661395b5760405162461bcd60e51b8152600401610e5090614ae7565b611f4333612cc0565b600054610100900460ff1661398b5760405162461bcd60e51b8152600401610e5090614ae7565b61175181613d26565b604080516001808252818301909252606091600091906020808301908036833701905050905082816000815181106139dc57634e487b7160e01b600052603260045260246000fd5b602090810291909101015292915050565b6001600160a01b0384163b156128815760405163f23a6e6160e01b81526001600160a01b0385169063f23a6e6190613a31908990899088908890889060040161473e565b602060405180830381600087803b158015613a4b57600080fd5b505af1925050508015613a7b575060408051601f3d908101601f19168201909252613a7891810190614438565b60015b613a87576137a2614db7565b6001600160e01b0319811663f23a6e6160e01b1461315f5760405162461bcd60e51b8152600401610e5090614825565b6001600160a01b038516613b5a5760005b8351811015613b5857828181518110613af157634e487b7160e01b600052603260045260246000fd5b602002602001015160fb6000868481518110613b1d57634e487b7160e01b600052603260045260246000fd5b602002602001015181526020019081526020016000206000828254613b429190614b9d565b90915550613b51905081614d70565b9050613ac8565b505b6001600160a01b0384166128815760005b835181101561315f57828181518110613b9457634e487b7160e01b600052603260045260246000fd5b602002602001015160fb6000868481518110613bc057634e487b7160e01b600052603260045260246000fd5b602002602001015181526020019081526020016000206000828254613be59190614ca3565b90915550613bf4905081614d70565b9050613b6b565b613c0481613873565b6040516001600160a01b038216907fbc7cd75a20ee27fd9adebab32041f755214dbc6bffa90cc0225b39da2e5c2d3b90600090a250565b60606001600160a01b0383163b613ca35760405162461bcd60e51b815260206004820152602660248201527f416464726573733a2064656c65676174652063616c6c20746f206e6f6e2d636f6044820152651b9d1c9858dd60d21b6064820152608401610e50565b600080846001600160a01b031684604051613cbe91906146c4565b600060405180830381855af49150503d8060008114613cf9576040519150601f19603f3d011682016040523d82523d6000602084013e613cfe565b606091505b509150915061192e8282604051806060016040528060278152602001614e8e60279139613d39565b8051611822906067906020840190613df6565b60608315613d485750816118e6565b825115613d585782518084602001fd5b8160405162461bcd60e51b8152600401610e509190614812565b828054613d7e90614d09565b90600052602060002090601f016020900481019282613da05760008555613de6565b82601f10613db95782800160ff19823516178555613de6565b82800160010185558215613de6579182015b82811115613de6578235825591602001919060010190613dcb565b50613df2929150613e6a565b5090565b828054613e0290614d09565b90600052602060002090601f016020900481019282613e245760008555613de6565b82601f10613e3d57805160ff1916838001178555613de6565b82800160010185558215613de6579182015b82811115613de6578251825591602001919060010190613e4f565b5b80821115613df25760008155600101613e6b565b60006001600160401b03831115613e9857613e98614da1565b604051613eaf601f8501601f191660200182614d44565b809150838152848484011115613ec457600080fd5b83836020830137600060208583010152509392505050565b80356001600160a01b0381168114613ef357600080fd5b919050565b600082601f830112613f08578081fd5b81356020613f1582614b7a565b604051613f228282614d44565b8381528281019150858301600585901b87018401881015613f41578586fd5b855b85811015613f6657613f5482613edc565b84529284019290840190600101613f43565b5090979650505050505050565b600082601f830112613f83578081fd5b81356020613f9082614b7a565b604051613f9d8282614d44565b8381528281019150858301600585901b87018401881015613fbc578586fd5b855b85811015613f6657813584529284019290840190600101613fbe565b600082601f830112613fea578081fd5b6118e683833560208501613e7f565b8035603d8110613ef357600080fd5b60008083601f840112614019578182fd5b5081356001600160401b0381111561402f578182fd5b60208301915083602082850101111561404757600080fd5b9250929050565b60006020828403121561405f578081fd5b6118e682613edc565b6000806040838503121561407a578081fd5b61408383613edc565b915061409160208401613edc565b90509250929050565b600080600080600060a086880312156140b1578081fd5b6140ba86613edc565b94506140c860208701613edc565b935060408601356001600160401b03808211156140e3578283fd5b6140ef89838a01613f73565b94506060880135915080821115614104578283fd5b61411089838a01613f73565b93506080880135915080821115614125578283fd5b5061413288828901613fda565b9150509295509295909350565b600080600080600060a08688031215614156578081fd5b61415f86613edc565b945061416d60208701613edc565b9350604086013592506060860135915060808601356001600160401b03811115614195578182fd5b61413288828901613fda565b6000806000606084860312156141b5578283fd5b6141be84613edc565b925060208401356001600160401b03808211156141d9578384fd5b6141e587838801613f73565b935060408601359150808211156141fa578283fd5b5061420786828701613f73565b9150509250925092565b60008060408385031215614223578182fd5b61422c83613edc565b915060208301358015158114614240578182fd5b809150509250929050565b6000806040838503121561425d578182fd5b61426683613edc565b915060208301356001600160401b03811115614280578182fd5b61428c85828601613fda565b9150509250929050565b600080604083850312156142a8578182fd5b6142b183613edc565b946020939093013593505050565b6000806000606084860312156142d3578081fd5b6142dc84613edc565b95602085013595506040909401359392505050565b60008060008060808587031215614306578182fd5b61430f85613edc565b9350602085013592506040850135915060608501356001600160401b03811115614337578182fd5b61434387828801613fda565b91505092959194509250565b60008060408385031215614361578182fd5b82356001600160401b0380821115614377578384fd5b61438386838701613ef8565b93506020850135915080821115614398578283fd5b5061428c85828601613f73565b6000806000606084860312156143b9578081fd5b83356001600160401b03808211156143cf578283fd5b6143db87838801613ef8565b94506020860135935060408601359150808211156143f7578283fd5b5061420786828701613fda565b600060208284031215614415578081fd5b5051919050565b60006020828403121561442d578081fd5b81356118e681614e57565b600060208284031215614449578081fd5b81516118e681614e57565b600060208284031215614465578081fd5b6118e682613ff9565b60008060408385031215614480578182fd5b61408383613ff9565b60008060006060848603121561449d578081fd5b6144a684613ff9565b92506144b460208501613edc565b9150604084013590509250925092565b600080604083850312156144d6578182fd5b6142b183613ff9565b600080600080604085870312156144f4578182fd5b84356001600160401b038082111561450a578384fd5b61451688838901614008565b9096509450602087013591508082111561452e578384fd5b5061453b87828801614008565b95989497509550505050565b600060208284031215614558578081fd5b81356001600160401b0381111561456d578182fd5b8201601f8101841361457d578182fd5b61212c84823560208401613e7f565b60006020828403121561459d578081fd5b5035919050565b6000806000604084860312156145b8578081fd5b8335925060208401356001600160401b038111156145d4578182fd5b6145e086828701614008565b9497909650939450505050565b60008060008060608587031215614602578182fd5b8435935060208501356001600160401b0381111561461e578283fd5b61462a87828801614008565b9598909750949560400135949350505050565b6000806040838503121561464f578182fd5b50508035926020909101359150565b6000815180845260208085019450808401835b8381101561468d57815187529582019590820190600101614671565b509495945050505050565b600081518084526146b0816020860160208601614cdd565b601f01601f19169290920160200192915050565b600082516146d6818460208701614cdd565b9190910192915050565b6001600160a01b0386811682528516602082015260a06040820181905260009061470c9083018661465e565b828103606084015261471e818661465e565b905082810360808401526147328185614698565b98975050505050505050565b6001600160a01b03868116825285166020820152604081018490526060810183905260a06080820181905260009061477890830184614698565b979650505050505050565b6020815260006118e6602083018461465e565b6040815260006147a9604083018561465e565b828103602084015261192e818561465e565b60208101603d83106147dd57634e487b7160e01b600052602160045260246000fd5b91905290565b60208152816020820152818360408301376000818301604090810191909152601f909201601f19160101919050565b6020815260006118e66020830184614698565b60208082526028908201527f455243313135353a204552433131353552656365697665722072656a656374656040820152676420746f6b656e7360c01b606082015260800190565b60208082526024908201527f455243313135353a206275726e20616d6f756e7420657863656564732062616c604082015263616e636560e01b606082015260800190565b6020808252602c908201527f46756e6374696f6e206d7573742062652063616c6c6564207468726f7567682060408201526b19195b1959d85d1958d85b1b60a21b606082015260800190565b60208082526029908201527f455243313135353a2063616c6c6572206973206e6f74206f776e6572206e6f7260408201526808185c1c1c9bdd995960ba1b606082015260800190565b6020808252602c908201527f46756e6374696f6e206d7573742062652063616c6c6564207468726f7567682060408201526b6163746976652070726f787960a01b606082015260800190565b60208082526025908201527f455243313135353a207472616e7366657220746f20746865207a65726f206164604082015264647265737360d81b606082015260800190565b60208082526023908201527f455243313135353a206275726e2066726f6d20746865207a65726f206164647260408201526265737360e81b606082015260800190565b6020808252602a908201527f455243313135353a20696e73756666696369656e742062616c616e636520666f60408201526939103a3930b739b332b960b11b606082015260800190565b6020808252818101527f4f776e61626c653a2063616c6c6572206973206e6f7420746865206f776e6572604082015260600190565b6020808252602e908201527f4552432d3131353520456e756d657261626c653a20746f6b656e20696e64657860408201526d206f7574206f6620626f756e647360901b606082015260800190565b6020808252602b908201527f496e697469616c697a61626c653a20636f6e7472616374206973206e6f74206960408201526a6e697469616c697a696e6760a81b606082015260800190565b60208082526028908201527f455243313135353a2069647320616e6420616d6f756e7473206c656e677468206040820152670dad2e6dac2e8c6d60c31b606082015260800190565b60006001600160401b03821115614b9357614b93614da1565b5060051b60200190565b60008219821115614bb057614bb0614d8b565b500190565b600181815b80851115614bf0578160001904821115614bd657614bd6614d8b565b80851615614be357918102915b93841c9390800290614bba565b509250929050565b60006118e660ff841683600082614c1157506001610e7e565b81614c1e57506000610e7e565b8160018114614c345760028114614c3e57614c5a565b6001915050610e7e565b60ff841115614c4f57614c4f614d8b565b50506001821b610e7e565b5060208310610133831016604e8410600b8410161715614c7d575081810a610e7e565b614c878383614bb5565b8060001904821115614c9b57614c9b614d8b565b029392505050565b600082821015614cb557614cb5614d8b565b500390565b600060ff821660ff841680821015614cd457614cd4614d8b565b90039392505050565b60005b83811015614cf8578181015183820152602001614ce0565b838111156111985750506000910152565b600181811c90821680614d1d57607f821691505b60208210811415614d3e57634e487b7160e01b600052602260045260246000fd5b50919050565b601f8201601f191681016001600160401b0381118282101715614d6957614d69614da1565b6040525050565b6000600019821415614d8457614d84614d8b565b5060010190565b634e487b7160e01b600052601160045260246000fd5b634e487b7160e01b600052604160045260246000fd5b600060033d1115611e2557600481823e5160e01c90565b600060443d1015614ddc5790565b6040516003193d81016004833e81513d6001600160401b038160248401118184111715614e0b57505050505090565b8285019150815181811115614e235750505050505090565b843d8701016020828501011115614e3d5750505050505090565b614e4c60208286010187614d44565b509095945050505050565b6001600160e01b03198116811461175157600080fdfe360894a13ba1a3210667c828492db98dca3e2076cc3735a920a3ca505d382bbc416464726573733a206c6f772d6c6576656c2064656c65676174652063616c6c206661696c6564a264697066735822122062953b487ace1c21221d34260b08359d831e77ac1ae859439ec726e260482aa764736f6c63430008040033",
  "linkReferences": {},
  "deployedLinkReferences": {}
}