{
  "_format": "hh-sol-artifact-1",
  "contractName": "BulkDisbursableNFTs",
  "sourceName": "src/BulkDisbursableNFTs.sol",
  "abi": [
    {
      "inputs": [],
      "stateMutability": "nonpayable",
      "type": "constructor"
    },
    {
      "anonymous": false,
      "inputs": [
        {
          "indexed": false,
          "internalType": "address",
          "name": "previousAdmin",
          "type": "address"
        },
        {
          "indexed": false,
          "internalType": "address",
          "name": "newAdmin",
          "type": "address"
        }
      ],
      "name": "AdminChanged",
      "type": "event"
    },
    {
      "anonymous": false,
      "inputs": [
        {
          "indexed": true,
          "internalType": "address",
          "name": "account",
          "type": "address"
        },
        {
          "indexed": true,
          "internalType": "address",
          "name": "operator",
          "type": "address"
        },
        {
          "indexed": false,
          "internalType": "bool",
          "name": "approved",
          "type": "bool"
        }
      ],
      "name": "ApprovalForAll",
      "type": "event"
    },
    {
      "anonymous": false,
      "inputs": [
        {
          "indexed": true,
          "internalType": "address",
          "name": "beacon",
          "type": "address"
        }
      ],
      "name": "BeaconUpgraded",
      "type": "event"
    },
    {
      "anonymous": false,
      "inputs": [
        {
          "indexed": false,
          "internalType": "uint256",
          "name": "id",
          "type": "uint256"
        },
        {
          "indexed": false,
          "internalType": "address",
          "name": "controller",
          "type": "address"
        }
      ],
      "name": "Created",
      "type": "event"
    },
    {
      "anonymous": false,
      "inputs": [
        {
          "indexed": true,
          "internalType": "address",
          "name": "previousOwner",
          "type": "address"
        },
        {
          "indexed": true,
          "internalType": "address",
          "name": "newOwner",
          "type": "address"
        }
      ],
      "name": "OwnershipTransferred",
      "type": "event"
    },
    {
      "anonymous": false,
      "inputs": [
        {
          "indexed": true,
          "internalType": "address",
          "name": "operator",
          "type": "address"
        },
        {
          "indexed": true,
          "internalType": "address",
          "name": "from",
          "type": "address"
        },
        {
          "indexed": true,
          "internalType": "address",
          "name": "to",
          "type": "address"
        },
        {
          "indexed": false,
          "internalType": "uint256[]",
          "name": "ids",
          "type": "uint256[]"
        },
        {
          "indexed": false,
          "internalType": "uint256[]",
          "name": "values",
          "type": "uint256[]"
        }
      ],
      "name": "TransferBatch",
      "type": "event"
    },
    {
      "anonymous": false,
      "inputs": [
        {
          "indexed": true,
          "internalType": "address",
          "name": "operator",
          "type": "address"
        },
        {
          "indexed": true,
          "internalType": "address",
          "name": "from",
          "type": "address"
        },
        {
          "indexed": true,
          "internalType": "address",
          "name": "to",
          "type": "address"
        },
        {
          "indexed": false,
          "internalType": "uint256",
          "name": "id",
          "type": "uint256"
        },
        {
          "indexed": false,
          "internalType": "uint256",
          "name": "value",
          "type": "uint256"
        }
      ],
      "name": "TransferSingle",
      "type": "event"
    },
    {
      "anonymous": false,
      "inputs": [
        {
          "indexed": false,
          "internalType": "string",
          "name": "value",
          "type": "string"
        },
        {
          "indexed": true,
          "internalType": "uint256",
          "name": "id",
          "type": "uint256"
        }
      ],
      "name": "URI",
      "type": "event"
    },
    {
      "anonymous": false,
      "inputs": [
        {
          "indexed": true,
          "internalType": "address",
          "name": "implementation",
          "type": "address"
        }
      ],
      "name": "Upgraded",
      "type": "event"
    },
    {
      "inputs": [
        {
          "internalType": "uint256",
          "name": "",
          "type": "uint256"
        }
      ],
      "name": "Roles",
      "outputs": [
        {
          "internalType": "string",
          "name": "",
          "type": "string"
        }
      ],
      "stateMutability": "view",
      "type": "function"
    },
    {
      "inputs": [
        {
          "internalType": "address",
          "name": "account",
          "type": "address"
        },
        {
          "internalType": "uint256",
          "name": "id",
          "type": "uint256"
        }
      ],
      "name": "balanceOf",
      "outputs": [
        {
          "internalType": "uint256",
          "name": "",
          "type": "uint256"
        }
      ],
      "stateMutability": "view",
      "type": "function"
    },
    {
      "inputs": [
        {
          "internalType": "address[]",
          "name": "accounts",
          "type": "address[]"
        },
        {
          "internalType": "uint256[]",
          "name": "ids",
          "type": "uint256[]"
        }
      ],
      "name": "balanceOfBatch",
      "outputs": [
        {
          "internalType": "uint256[]",
          "name": "",
          "type": "uint256[]"
        }
      ],
      "stateMutability": "view",
      "type": "function"
    },
    {
      "inputs": [
        {
          "internalType": "address",
          "name": "owner",
          "type": "address"
        },
        {
          "internalType": "uint256",
          "name": "id",
          "type": "uint256"
        },
        {
          "internalType": "uint256",
          "name": "quantity",
          "type": "uint256"
        }
      ],
      "name": "burn",
      "outputs": [],
      "stateMutability": "nonpayable",
      "type": "function"
    },
    {
      "inputs": [
        {
          "internalType": "address",
          "name": "account",
          "type": "address"
        },
        {
          "internalType": "uint256[]",
          "name": "ids",
          "type": "uint256[]"
        },
        {
          "internalType": "uint256[]",
          "name": "values",
          "type": "uint256[]"
        }
      ],
      "name": "burnBatch",
      "outputs": [],
      "stateMutability": "nonpayable",
      "type": "function"
    },
    {
      "inputs": [
        {
          "internalType": "enum BulkDisbursableNFTs.Role[]",
          "name": "grants",
          "type": "uint8[]"
        },
        {
          "internalType": "enum BulkDisbursableNFTs.Role[]",
          "name": "disables",
          "type": "uint8[]"
        }
      ],
      "name": "create",
      "outputs": [
        {
          "internalType": "uint256",
          "name": "id",
          "type": "uint256"
        }
      ],
      "stateMutability": "nonpayable",
      "type": "function"
    },
    {
      "inputs": [
        {
          "internalType": "address",
          "name": "maintainer",
          "type": "address"
        },
        {
          "internalType": "enum BulkDisbursableNFTs.Role[]",
          "name": "grants",
          "type": "uint8[]"
        },
        {
          "internalType": "enum BulkDisbursableNFTs.Role[]",
          "name": "disables",
          "type": "uint8[]"
        }
      ],
      "name": "create",
      "outputs": [
        {
          "internalType": "uint256",
          "name": "id",
          "type": "uint256"
        }
      ],
      "stateMutability": "nonpayable",
      "type": "function"
    },
    {
      "inputs": [],
      "name": "create",
      "outputs": [
        {
          "internalType": "uint256",
          "name": "id",
          "type": "uint256"
        }
      ],
      "stateMutability": "nonpayable",
      "type": "function"
    },
    {
      "inputs": [
        {
          "internalType": "enum BulkDisbursableNFTs.Role",
          "name": "toDisable",
          "type": "uint8"
        },
        {
          "internalType": "uint256",
          "name": "tokenId",
          "type": "uint256"
        }
      ],
      "name": "disableRole",
      "outputs": [],
      "stateMutability": "nonpayable",
      "type": "function"
    },
    {
      "inputs": [
        {
          "internalType": "uint256",
          "name": "id",
          "type": "uint256"
        }
      ],
      "name": "exists",
      "outputs": [
        {
          "internalType": "bool",
          "name": "",
          "type": "bool"
        }
      ],
      "stateMutability": "view",
      "type": "function"
    },
    {
      "inputs": [
        {
          "internalType": "enum BulkDisbursableNFTs.Role",
          "name": "role",
          "type": "uint8"
        },
        {
          "internalType": "address",
          "name": "user",
          "type": "address"
        },
        {
          "internalType": "uint256",
          "name": "index",
          "type": "uint256"
        }
      ],
      "name": "gateToken",
      "outputs": [
        {
          "internalType": "uint256",
          "name": "id",
          "type": "uint256"
        }
      ],
      "stateMutability": "view",
      "type": "function"
    },
    {
      "inputs": [
        {
          "internalType": "uint256",
          "name": "id",
          "type": "uint256"
        }
      ],
      "name": "getMax",
      "outputs": [
        {
          "internalType": "int64",
          "name": "max",
          "type": "int64"
        }
      ],
      "stateMutability": "view",
      "type": "function"
    },
    {
      "inputs": [
        {
          "internalType": "enum BulkDisbursableNFTs.Role",
          "name": "role",
          "type": "uint8"
        },
        {
          "internalType": "address",
          "name": "user",
          "type": "address"
        }
      ],
      "name": "grantRole",
      "outputs": [],
      "stateMutability": "nonpayable",
      "type": "function"
    },
    {
      "inputs": [
        {
          "internalType": "enum BulkDisbursableNFTs.Role",
          "name": "role",
          "type": "uint8"
        },
        {
          "internalType": "address",
          "name": "user",
          "type": "address"
        },
        {
          "internalType": "uint256",
          "name": "id",
          "type": "uint256"
        }
      ],
      "name": "grantRole",
      "outputs": [],
      "stateMutability": "nonpayable",
      "type": "function"
    },
    {
      "inputs": [
        {
          "internalType": "enum BulkDisbursableNFTs.Role",
          "name": "role",
          "type": "uint8"
        }
      ],
      "name": "hasRole",
      "outputs": [
        {
          "internalType": "bool",
          "name": "has",
          "type": "bool"
        }
      ],
      "stateMutability": "view",
      "type": "function"
    },
    {
      "inputs": [
        {
          "internalType": "enum BulkDisbursableNFTs.Role",
          "name": "role",
          "type": "uint8"
        },
        {
          "internalType": "address",
          "name": "user",
          "type": "address"
        },
        {
          "internalType": "uint256",
          "name": "id",
          "type": "uint256"
        }
      ],
      "name": "hasRole",
      "outputs": [
        {
          "internalType": "bool",
          "name": "has",
          "type": "bool"
        }
      ],
      "stateMutability": "view",
      "type": "function"
    },
    {
      "inputs": [
        {
          "internalType": "enum BulkDisbursableNFTs.Role",
          "name": "role",
          "type": "uint8"
        },
        {
          "internalType": "uint256",
          "name": "id",
          "type": "uint256"
        }
      ],
      "name": "hasRole",
      "outputs": [
        {
          "internalType": "bool",
          "name": "has",
          "type": "bool"
        }
      ],
      "stateMutability": "view",
      "type": "function"
    },
    {
      "inputs": [
        {
          "internalType": "enum BulkDisbursableNFTs.Role",
          "name": "role",
          "type": "uint8"
        },
        {
          "internalType": "address",
          "name": "user",
          "type": "address"
        }
      ],
      "name": "hasRole",
      "outputs": [
        {
          "internalType": "bool",
          "name": "has",
          "type": "bool"
        }
      ],
      "stateMutability": "view",
      "type": "function"
    },
    {
      "inputs": [
        {
          "internalType": "string",
          "name": "_name",
          "type": "string"
        },
        {
          "internalType": "string",
          "name": "_symbol",
          "type": "string"
        }
      ],
      "name": "initialize",
      "outputs": [],
      "stateMutability": "nonpayable",
      "type": "function"
    },
    {
      "inputs": [
        {
          "internalType": "address",
          "name": "account",
          "type": "address"
        },
        {
          "internalType": "address",
          "name": "operator",
          "type": "address"
        }
      ],
      "name": "isApprovedForAll",
      "outputs": [
        {
          "internalType": "bool",
          "name": "",
          "type": "bool"
        }
      ],
      "stateMutability": "view",
      "type": "function"
    },
    {
      "inputs": [
        {
          "internalType": "address",
          "name": "user",
          "type": "address"
        }
      ],
      "name": "isSuper",
      "outputs": [
        {
          "internalType": "bool",
          "name": "superuser",
          "type": "bool"
        }
      ],
      "stateMutability": "view",
      "type": "function"
    },
    {
      "inputs": [],
      "name": "isSuper",
      "outputs": [
        {
          "internalType": "bool",
          "name": "superuser",
          "type": "bool"
        }
      ],
      "stateMutability": "view",
      "type": "function"
    },
    {
      "inputs": [
        {
          "internalType": "uint256",
          "name": "",
          "type": "uint256"
        }
      ],
      "name": "maxes",
      "outputs": [
        {
          "internalType": "int64",
          "name": "",
          "type": "int64"
        }
      ],
      "stateMutability": "view",
      "type": "function"
    },
    {
      "inputs": [
        {
          "internalType": "address[]",
          "name": "to",
          "type": "address[]"
        },
        {
          "internalType": "uint256",
          "name": "id",
          "type": "uint256"
        },
        {
          "internalType": "bytes",
          "name": "data",
          "type": "bytes"
        }
      ],
      "name": "mint",
      "outputs": [],
      "stateMutability": "nonpayable",
      "type": "function"
    },
    {
      "inputs": [
        {
          "internalType": "address",
          "name": "recipient",
          "type": "address"
        },
        {
          "internalType": "uint256",
          "name": "id",
          "type": "uint256"
        },
        {
          "internalType": "uint256",
          "name": "amount",
          "type": "uint256"
        },
        {
          "internalType": "bytes",
          "name": "data",
          "type": "bytes"
        }
      ],
      "name": "mint",
      "outputs": [
        {
          "internalType": "bool",
          "name": "minted",
          "type": "bool"
        }
      ],
      "stateMutability": "nonpayable",
      "type": "function"
    },
    {
      "inputs": [],
      "name": "name",
      "outputs": [
        {
          "internalType": "string",
          "name": "",
          "type": "string"
        }
      ],
      "stateMutability": "view",
      "type": "function"
    },
    {
      "inputs": [],
      "name": "owner",
      "outputs": [
        {
          "internalType": "address",
          "name": "",
          "type": "address"
        }
      ],
      "stateMutability": "view",
      "type": "function"
    },
    {
      "inputs": [],
      "name": "proxiableUUID",
      "outputs": [
        {
          "internalType": "bytes32",
          "name": "",
          "type": "bytes32"
        }
      ],
      "stateMutability": "view",
      "type": "function"
    },
    {
      "inputs": [],
      "name": "renounceOwnership",
      "outputs": [],
      "stateMutability": "nonpayable",
      "type": "function"
    },
    {
      "inputs": [
        {
          "internalType": "string",
          "name": "roleName",
          "type": "string"
        }
      ],
      "name": "roleIndexForName",
      "outputs": [
        {
          "internalType": "enum BulkDisbursableNFTs.Role",
          "name": "role",
          "type": "uint8"
        }
      ],
      "stateMutability": "pure",
      "type": "function"
    },
    {
      "inputs": [
        {
          "internalType": "enum BulkDisbursableNFTs.Role",
          "name": "index",
          "type": "uint8"
        }
      ],
      "name": "roleNameByIndex",
      "outputs": [
        {
          "internalType": "string",
          "name": "name",
          "type": "string"
        }
      ],
      "stateMutability": "pure",
      "type": "function"
    },
    {
      "inputs": [
        {
          "internalType": "enum BulkDisbursableNFTs.Role",
          "name": "role",
          "type": "uint8"
        }
      ],
      "name": "roleToken",
      "outputs": [
        {
          "internalType": "uint256",
          "name": "id",
          "type": "uint256"
        }
      ],
      "stateMutability": "view",
      "type": "function"
    },
    {
      "inputs": [
        {
          "internalType": "enum BulkDisbursableNFTs.Role",
          "name": "role",
          "type": "uint8"
        },
        {
          "internalType": "uint256",
          "name": "index",
          "type": "uint256"
        }
      ],
      "name": "roleToken",
      "outputs": [
        {
          "internalType": "uint256",
          "name": "id",
          "type": "uint256"
        }
      ],
      "stateMutability": "view",
      "type": "function"
    },
    {
      "inputs": [
        {
          "internalType": "address",
          "name": "from",
          "type": "address"
        },
        {
          "internalType": "address",
          "name": "to",
          "type": "address"
        },
        {
          "internalType": "uint256[]",
          "name": "ids",
          "type": "uint256[]"
        },
        {
          "internalType": "uint256[]",
          "name": "amounts",
          "type": "uint256[]"
        },
        {
          "internalType": "bytes",
          "name": "data",
          "type": "bytes"
        }
      ],
      "name": "safeBatchTransferFrom",
      "outputs": [],
      "stateMutability": "nonpayable",
      "type": "function"
    },
    {
      "inputs": [
        {
          "internalType": "address",
          "name": "from",
          "type": "address"
        },
        {
          "internalType": "address",
          "name": "to",
          "type": "address"
        },
        {
          "internalType": "uint256",
          "name": "id",
          "type": "uint256"
        },
        {
          "internalType": "uint256",
          "name": "amount",
          "type": "uint256"
        },
        {
          "internalType": "bytes",
          "name": "data",
          "type": "bytes"
        }
      ],
      "name": "safeTransferFrom",
      "outputs": [],
      "stateMutability": "nonpayable",
      "type": "function"
    },
    {
      "inputs": [
        {
          "internalType": "address",
          "name": "operator",
          "type": "address"
        },
        {
          "internalType": "bool",
          "name": "approved",
          "type": "bool"
        }
      ],
      "name": "setApprovalForAll",
      "outputs": [],
      "stateMutability": "nonpayable",
      "type": "function"
    },
    {
      "inputs": [
        {
          "internalType": "string",
          "name": "_name",
          "type": "string"
        },
        {
          "internalType": "string",
          "name": "_symbol",
          "type": "string"
        }
      ],
      "name": "setDescription",
      "outputs": [],
      "stateMutability": "nonpayable",
      "type": "function"
    },
    {
      "inputs": [
        {
          "internalType": "uint256",
          "name": "id",
          "type": "uint256"
        },
        {
          "internalType": "int64",
          "name": "max",
          "type": "int64"
        }
      ],
      "name": "setMax",
      "outputs": [],
      "stateMutability": "nonpayable",
      "type": "function"
    },
    {
      "inputs": [
        {
          "internalType": "uint256",
          "name": "id",
          "type": "uint256"
        },
        {
          "internalType": "uint256",
          "name": "max",
          "type": "uint256"
        }
      ],
      "name": "setMax",
      "outputs": [],
      "stateMutability": "nonpayable",
      "type": "function"
    },
    {
      "inputs": [
        {
          "internalType": "uint256",
          "name": "id",
          "type": "uint256"
        },
        {
          "internalType": "string",
          "name": "newURI",
          "type": "string"
        }
      ],
      "name": "setURI",
      "outputs": [],
      "stateMutability": "nonpayable",
      "type": "function"
    },
    {
      "inputs": [
        {
          "internalType": "bytes4",
          "name": "interfaceId",
          "type": "bytes4"
        }
      ],
      "name": "supportsInterface",
      "outputs": [
        {
          "internalType": "bool",
          "name": "",
          "type": "bool"
        }
      ],
      "stateMutability": "view",
      "type": "function"
    },
    {
      "inputs": [],
      "name": "symbol",
      "outputs": [
        {
          "internalType": "string",
          "name": "",
          "type": "string"
        }
      ],
      "stateMutability": "view",
      "type": "function"
    },
    {
      "inputs": [
        {
          "internalType": "uint256",
          "name": "index",
          "type": "uint256"
        }
      ],
      "name": "tokenByIndex",
      "outputs": [
        {
          "internalType": "uint256",
          "name": "id",
          "type": "uint256"
        }
      ],
      "stateMutability": "view",
      "type": "function"
    },
    {
      "inputs": [
        {
          "internalType": "uint256",
          "name": "id",
          "type": "uint256"
        }
      ],
      "name": "tokenIndex",
      "outputs": [
        {
          "internalType": "uint256",
          "name": "index",
          "type": "uint256"
        }
      ],
      "stateMutability": "view",
      "type": "function"
    },
    {
      "inputs": [
        {
          "internalType": "address",
          "name": "owner",
          "type": "address"
        },
        {
          "internalType": "uint256",
          "name": "index",
          "type": "uint256"
        }
      ],
      "name": "tokenOfOwnerByIndex",
      "outputs": [
        {
          "internalType": "uint256",
          "name": "id",
          "type": "uint256"
        }
      ],
      "stateMutability": "view",
      "type": "function"
    },
    {
      "inputs": [
        {
          "internalType": "uint256",
          "name": "id",
          "type": "uint256"
        }
      ],
      "name": "totalSupply",
      "outputs": [
        {
          "internalType": "uint256",
          "name": "",
          "type": "uint256"
        }
      ],
      "stateMutability": "view",
      "type": "function"
    },
    {
      "inputs": [
        {
          "internalType": "address",
          "name": "newOwner",
          "type": "address"
        }
      ],
      "name": "transferOwnership",
      "outputs": [],
      "stateMutability": "nonpayable",
      "type": "function"
    },
    {
      "inputs": [],
      "name": "typeSupply",
      "outputs": [
        {
          "internalType": "uint256",
          "name": "count",
          "type": "uint256"
        }
      ],
      "stateMutability": "view",
      "type": "function"
    },
    {
      "inputs": [
        {
          "internalType": "address",
          "name": "newImplementation",
          "type": "address"
        }
      ],
      "name": "upgradeTo",
      "outputs": [],
      "stateMutability": "nonpayable",
      "type": "function"
    },
    {
      "inputs": [
        {
          "internalType": "address",
          "name": "newImplementation",
          "type": "address"
        },
        {
          "internalType": "bytes",
          "name": "data",
          "type": "bytes"
        }
      ],
      "name": "upgradeToAndCall",
      "outputs": [],
      "stateMutability": "payable",
      "type": "function"
    },
    {
      "inputs": [
        {
          "internalType": "uint256",
          "name": "id",
          "type": "uint256"
        }
      ],
      "name": "uri",
      "outputs": [
        {
          "internalType": "string",
          "name": "metadata",
          "type": "string"
        }
      ],
      "stateMutability": "view",
      "type": "function"
    }
  ],
  "bytecode": "0x60a06040523060601b6080523480156200001857600080fd5b50600054610100900460ff16620000365760005460ff161562000040565b62000040620000e5565b620000a85760405162461bcd60e51b815260206004820152602e60248201527f496e697469616c697a61626c653a20636f6e747261637420697320616c72656160448201526d191e481a5b9a5d1a585b1a5e995960921b606482015260840160405180910390fd5b600054610100900460ff16158015620000cb576000805461ffff19166101011790555b8015620000de576000805461ff00191690555b5062000112565b6000620000fd306200010360201b62002b2f1760201c565b15905090565b6001600160a01b03163b151590565b60805160601c615c566200014d60003960008181611380015281816113c0015281816118ea0152818161192a0152611a710152615c566000f3fe6080604052600436106102435760003560e01c8062fdd58e1461024857806301ffc9a71461027b5780630583e9f8146102ab57806306fdde03146102cb5780630e89341c146102ed5780630ec0370f1461030d57806311ef04c41461032f57806314c464271461034f57806316730ab01461036f57806319e0755c1461038f5780632eb2c2d6146103af5780632f745c59146103cf5780633659cfe6146103ef5780633b91ceef1461040f5780633dbe35de1461042f5780634468031f1461044f578063482895891461046f5780634a80070f1461048f5780634cd88b76146104af5780634e1273f4146104cf5780634f1ef286146104fc5780634f558e791461050f5780634f6ccce71461052f57806352d1902d1461054f5780635d5664e1146105645780636755d456146105845780636b20c454146105a45780636fc0020b146105c4578063715018a6146105e4578063731133e9146105f9578063778f5a7b14610619578063814c245014610646578063862440e2146106665780638da5cb5b1461068657806395d89b41146106b35780639d969a9c146106c85780639e97b8f6146106dd578063a22cb465146106fd578063aa8e90661461071d578063b0bdf2611461073d578063bd85b0391461075d578063c3c8df991461077d578063dabc69871461079d578063e688f89d146107e1578063e985e9c514610812578063edc79bac1461085b578063efc81a8c14610870578063f242432a14610885578063f2fde38b146108a5578063f5298aca146108c5578063fde4047a146108e5575b600080fd5b34801561025457600080fd5b50610268610263366004614e2e565b610905565b6040519081526020015b60405180910390f35b34801561028757600080fd5b5061029b61029636600461500a565b6109a1565b6040519015158152602001610272565b3480156102b757600080fd5b506102686102c636600461517a565b6109f1565b3480156102d757600080fd5b506102e0610a5f565b6040516102729190615450565b3480156102f957600080fd5b506102e061030836600461517a565b610aee565b34801561031957600080fd5b5061032d610328366004614f3d565b610d61565b005b34801561033b57600080fd5b5061032d61034a366004615192565b610db8565b34801561035b57600080fd5b5061026861036a366004615042565b610e22565b34801561037b57600080fd5b5061026861038a366004615077565b610e2f565b34801561039b57600080fd5b5061029b6103aa366004615042565b61124e565b3480156103bb57600080fd5b5061032d6103ca366004614bcc565b61125a565b3480156103db57600080fd5b506102686103ea366004614e2e565b6112f1565b3480156103fb57600080fd5b5061032d61040a366004614b80565b611375565b34801561041b57600080fd5b5061032d61042a366004615204565b61143e565b34801561043b57600080fd5b5061026861044a3660046150b2565b611477565b34801561045b57600080fd5b5061029b61046a366004615077565b6115f2565b34801561047b57600080fd5b5061029b61048a3660046150b2565b611619565b34801561049b57600080fd5b506102686104aa366004614f9c565b611626565b3480156104bb57600080fd5b5061032d6104ca3660046150cd565b611633565b3480156104db57600080fd5b506104ef6104ea366004614ee7565b61177e565b60405161027291906153c1565b61032d61050a366004614de3565b6118df565b34801561051b57600080fd5b5061029b61052a36600461517a565b611995565b34801561053b57600080fd5b5061026861054a36600461517a565b6119a8565b34801561055b57600080fd5b50610268611a64565b34801561057057600080fd5b5061032d61057f36600461505c565b611b13565b34801561059057600080fd5b5061032d61059f3660046150cd565b611b1f565b3480156105b057600080fd5b5061032d6105bf366004614d43565b611b69565b3480156105d057600080fd5b506102e06105df36600461517a565b611bb1565b3480156105f057600080fd5b5061032d611bd1565b34801561060557600080fd5b5061029b610614366004614e89565b611c0c565b34801561062557600080fd5b50610639610634366004615135565b611e14565b60405161027291906153f9565b34801561065257600080fd5b506102e0610661366004615042565b61215c565b34801561067257600080fd5b5061032d6106813660046151bb565b61252b565b34801561069257600080fd5b5061069b612607565b6040516001600160a01b039091168152602001610272565b3480156106bf57600080fd5b506102e0612616565b3480156106d457600080fd5b50610268612624565b3480156106e957600080fd5b5061029b6106f836600461505c565b61263c565b34801561070957600080fd5b5061032d610718366004614da9565b61264a565b34801561072957600080fd5b5061032d610738366004615077565b612655565b34801561074957600080fd5b50610268610758366004614cd3565b612678565b34801561076957600080fd5b5061026861077836600461517a565b6128d6565b34801561078957600080fd5b5061029b610798366004614b80565b6128e8565b3480156107a957600080fd5b506107ce6107b836600461517a565b6101a26020526000908152604090205460070b81565b60405160079190910b8152602001610272565b3480156107ed57600080fd5b506107ce6107fc36600461517a565b60009081526101a2602052604090205460070b90565b34801561081e57600080fd5b5061029b61082d366004614b9a565b6001600160a01b03918216600090815260666020908152604080832093909416825291909152205460ff1690565b34801561086757600080fd5b5061029b61291d565b34801561087c57600080fd5b50610268612928565b34801561089157600080fd5b5061032d6108a0366004614c71565b612949565b3480156108b157600080fd5b5061032d6108c0366004614b80565b61298e565b3480156108d157600080fd5b5061032d6108e0366004614e57565b612a2b565b3480156108f157600080fd5b5061032d6109003660046150b2565b612ab5565b60006001600160a01b0383166109765760405162461bcd60e51b815260206004820152602b60248201527f455243313135353a2062616c616e636520717565727920666f7220746865207a60448201526a65726f206164647265737360a81b60648201526084015b60405180910390fd5b5060008181526065602090815260408083206001600160a01b03861684529091529020545b92915050565b60006001600160e01b03198216636cdb3d1360e11b14806109d257506001600160e01b031982166303a24d0760e21b145b8061099b57506301ffc9a760e01b6001600160e01b031983161461099b565b6000818152610195602052604090205480610a5a5760405162461bcd60e51b815260206004820152602360248201527f5468652072657175657374656420746f6b656e20646f6573206e6f742065786960448201526239ba1760e91b606482015260840161096d565b919050565b6101918054610a6d906159ab565b80601f0160208091040260200160405190810160405280929190818152602001828054610a99906159ab565b8015610ae65780601f10610abb57610100808354040283529160200191610ae6565b820191906000526020600020905b815481529060010190602001808311610ac957829003601f168201915b505050505081565b600081815261019360205260409020805460609190610b0c906159ab565b80601f0160208091040260200160405190810160405280929190818152602001828054610b38906159ab565b8015610b855780601f10610b5a57610100808354040283529160200191610b85565b820191906000526020600020905b815481529060010190602001808311610b6857829003601f168201915b50505050509050805160001415610a5a576008610ba5600d610100615922565b610baf919061595c565b600160ff919091161b6008610bc7600d610100615922565b610bd1919061595c565b60ff166001610be260086002615877565b610bec9190615945565b901b83161415610a5a576000600160088160038083610c0e600d610100615922565b610c18919061595c565b610c22919061595c565b610c2c919061595c565b610c36919061595c565b610c40919061595c565b610c4a919061595c565b60ff166001610c5a816002615877565b610c649190615945565b901b6003806008610c78600d610100615922565b610c82919061595c565b610c8c919061595c565b610c96919061595c565b60ff166001901b1719600160206002610caf9190615877565b610cb99190615945565b19841616600081815261019360205260409020805491925090610cdb906159ab565b80601f0160208091040260200160405190810160405280929190818152602001828054610d07906159ab565b8015610d545780601f10610d2957610100808354040283529160200191610d54565b820191906000526020600020905b815481529060010190602001808311610d3757829003601f168201915b5050505050915050919050565b60005b8351811015610db257610da1848281518110610d9057634e487b7160e01b600052603260045260246000fd5b602002602001015184600185611c0c565b50610dab81615a12565b9050610d64565b50505050565b610dc3600883611619565b80610dd15750610dd161291d565b610ded5760405162461bcd60e51b815260040161096d90615794565b60009182526101a26020526040909120805460079290920b6001600160401b03166001600160401b0319909216919091179055565b600061099b826000611477565b600080610e3b85610e22565b9050600061019581856008610e53600d610100615922565b610e5d919061595c565b60ff16600a901b851717815260200190815260200160002054905080600014610eb757610194805482908110610ea357634e487b7160e01b600052603260045260246000fd5b906000526020600020015492505050611247565b6000604051806101000160405280866001600860016003806008600d60ff16610100610ee39190615922565b610eed919061595c565b610ef7919061595c565b610f01919061595c565b610f0b919061595c565b610f15919061595c565b610f1f919061595c565b60ff166001610f2f816002615877565b610f399190615945565b901b6003806008610f4d600d610100615922565b610f57919061595c565b610f61919061595c565b610f6b919061595c565b600160ff919091161b871717178152602001866003806008610f90600d610100615922565b610f9a919061595c565b610fa4919061595c565b610fae919061595c565b60ff166001901b86171781526020016001600860016003806008600d60ff16610100610fda9190615922565b610fe4919061595c565b610fee919061595c565b610ff8919061595c565b611002919061595c565b61100c919061595c565b611016919061595c565b60ff166001611026816002615877565b6110309190615945565b901b6003806008611044600d610100615922565b61104e919061595c565b611058919061595c565b611062919061595c565b600160ff919091161b86171781526020016003806008611085600d610100615922565b61108f919061595c565b611099919061595c565b6110a3919061595c565b60ff166001901b85178152602001866001600860016003806008600d60ff166101006110cf9190615922565b6110d9919061595c565b6110e3919061595c565b6110ed919061595c565b6110f7919061595c565b611101919061595c565b61110b919061595c565b60ff16600161111b816002615877565b6111259190615945565b901b8617178152602001600160088160038083611145600d610100615922565b61114f919061595c565b611159919061595c565b611163919061595c565b61116d919061595c565b611177919061595c565b611181919061595c565b60ff166001611191816002615877565b61119b9190615945565b901b851781528685176020820152604001849052905060005b60088160ff16101561123e5760006111f388848460ff16600881106111e957634e487b7160e01b600052603260045260246000fd5b6020020151610905565b111561122c57818160ff166008811061121c57634e487b7160e01b600052603260045260246000fd5b6020020151945050505050611247565b8061123681615a2d565b9150506111b4565b50600093505050505b9392505050565b600061099b823361263c565b6001600160a01b0385163314806112765750611276853361082d565b6112dd5760405162461bcd60e51b815260206004820152603260248201527f455243313135353a207472616e736665722063616c6c6572206973206e6f74206044820152711bdddb995c881b9bdc88185c1c1c9bdd995960721b606482015260840161096d565b6112ea8585858585612b3e565b5050505050565b6001600160a01b0382166000908152610196602052604081205482106113295760405162461bcd60e51b815260040161096d906156b3565b6001600160a01b03831660009081526101966020526040902080548390811061136257634e487b7160e01b600052603260045260246000fd5b9060005260206000200154905092915050565b306001600160a01b037f00000000000000000000000000000000000000000000000000000000000000001614156113be5760405162461bcd60e51b815260040161096d906154ef565b7f00000000000000000000000000000000000000000000000000000000000000006001600160a01b03166113f0612cf5565b6001600160a01b0316146114165760405162461bcd60e51b815260040161096d90615572565b61141f81612d11565b6040805160008082526020820190925261143b91839190612d97565b50565b611449600883611619565b80611457575061145761291d565b6114735760405162461bcd60e51b815260040161096d90615794565b5050565b600061148560206002615877565b82106114d35760405162461bcd60e51b815260206004820152601f60248201527f496e64696365732063616e206265206174206d6f737420333220426974732e00604482015260640161096d565b81600184600c8111156114f657634e487b7160e01b600052602160045260246000fd5b1461150257600061155b565b60016003806008611516600d610100615922565b611520919061595c565b61152a919061595c565b611534919061595c565b61153e919061595c565b60ff16600161154e816002615877565b6115589190615945565b901b5b6008600160038083611570600d610100615922565b61157a919061595c565b611584919061595c565b61158e919061595c565b611598919061595c565b6115a2919061595c565b60ff1685600c8111156115c557634e487b7160e01b600052602160045260246000fd5b901b60086115d6600d610100615922565b6115e0919061595c565b60ff166001901b171717905092915050565b6000818152610195602052604081205461160f9085908590610e2f565b1515949350505050565b60006112478333846115f2565b6000611247338484612678565b600054610100900460ff1661164e5760005460ff1615611656565b611656612f11565b6116b95760405162461bcd60e51b815260206004820152602e60248201527f496e697469616c697a61626c653a20636f6e747261637420697320616c72656160448201526d191e481a5b9a5d1a585b1a5e995960921b606482015260840161096d565b600054610100900460ff161580156116db576000805461ffff19166101011790555b6116e3612f22565b6117216040518060400160405280602081526020017f4572726f723a2053696e676c6520546f6b656e20555249204e6f742055736564815250612f51565b611729612f81565b611731612f81565b611739612f81565b61019480546001810182556000918252600080516020615b9a833981519152015561176685858585611b1f565b80156112ea576000805461ff00191690555050505050565b606081518351146117e35760405162461bcd60e51b815260206004820152602960248201527f455243313135353a206163636f756e747320616e6420696473206c656e677468604482015268040dad2e6dac2e8c6d60bb1b606482015260840161096d565b600083516001600160401b0381111561180c57634e487b7160e01b600052604160045260246000fd5b604051908082528060200260200182016040528015611835578160200160208202803683370190505b50905060005b84518110156118d75761189c85828151811061186757634e487b7160e01b600052603260045260246000fd5b602002602001015185838151811061188f57634e487b7160e01b600052603260045260246000fd5b6020026020010151610905565b8282815181106118bc57634e487b7160e01b600052603260045260246000fd5b60209081029190910101526118d081615a12565b905061183b565b509392505050565b306001600160a01b037f00000000000000000000000000000000000000000000000000000000000000001614156119285760405162461bcd60e51b815260040161096d906154ef565b7f00000000000000000000000000000000000000000000000000000000000000006001600160a01b031661195a612cf5565b6001600160a01b0316146119805760405162461bcd60e51b815260040161096d90615572565b61198982612d11565b61147382826001612d97565b6000806119a1836128d6565b1192915050565b6000808211611a0c5760405162461bcd60e51b815260206004820152602a60248201527f4552432d3131353520456e756d657261626c653a20746f6b656e7320696e64656044820152697865642066726f6d203160b01b606482015260840161096d565b61019454821115611a2f5760405162461bcd60e51b815260040161096d906156b3565b610194805483908110611a5257634e487b7160e01b600052603260045260246000fd5b90600052602060002001549050919050565b6000306001600160a01b037f00000000000000000000000000000000000000000000000000000000000000001614611aff5760405162461bcd60e51b815260206004820152603860248201527f555550535570677261646561626c653a206d757374206e6f742062652063616c6044820152771b1959081d1a1c9bdd59da0819195b1959d85d1958d85b1b60421b606482015260840161096d565b50600080516020615bda8339815191525b90565b61147382826000612655565b33611b28612607565b6001600160a01b031614611b4e5760405162461bcd60e51b815260040161096d9061567e565b611b5b610191858561483b565b506112ea610192838361483b565b6001600160a01b038316331480611b855750611b85833361082d565b611ba15760405162461bcd60e51b815260040161096d90615529565b611bac838383612fa8565b505050565b61019781600b8110611bc257600080fd5b018054909150610a6d906159ab565b33611bda612607565b6001600160a01b031614611c005760405162461bcd60e51b815260040161096d9061567e565b611c0a6000613143565b565b6000600160088160038083611c24600d610100615922565b611c2e919061595c565b611c38919061595c565b611c42919061595c565b611c4c919061595c565b611c56919061595c565b611c60919061595c565b60ff166001611c70816002615877565b611c7a9190615945565b901b600160088160038083611c92600d610100615922565b611c9c919061595c565b611ca6919061595c565b611cb0919061595c565b611cba919061595c565b611cc4919061595c565b611cce919061595c565b60ff166001611cde816002615877565b611ce89190615945565b901b85161415611d4c5760405162461bcd60e51b815260206004820152602960248201527f43616e6e6f74206d696e7420696e7465726e616c20746f6b656e732066726f6d6044820152681037baba39b4b2329760b91b606482015260840161096d565b60016003806008611d60600d610100615922565b611d6a919061595c565b611d74919061595c565b611d7e919061595c565b611d88919061595c565b60ff166001901b60016003806008600d60ff16610100611da89190615922565b611db2919061595c565b611dbc919061595c565b611dc6919061595c565b611dd0919061595c565b60ff166001901b8516148015611def57506000611ded8686610905565b115b15611dfc57506000611e0c565b611e0885858585613195565b5060015b949350505050565b60008082604051602001611e28919061528b565b604051602081830303815290604052805190602001209050604051602001611e5f906829bab832b93ab9b2b960b91b815260090190565b60405160208183030381529060405280519060200120811415611e855750600192915050565b6040516526b4b73a32b960d11b602082015260260160405160208183030381529060405280519060200120811415611ec05750600292915050565b6040516521b0b9ba32b960d11b602082015260260160405160208183030381529060405280519060200120811415611efb5750600392915050565b604051692a3930b739b332b932b960b11b6020820152602a0160405160208183030381529060405280519060200120811415611f3a5750600492915050565b6040516921b7b73334b3bab932b960b11b6020820152602a0160405160208183030381529060405280519060200120811415611f795750600592915050565b6040516926b0b4b73a30b4b732b960b11b6020820152602a0160405160208183030381529060405280519060200120811415611fb85750600692915050565b6040516621b932b0ba37b960c91b602082015260270160405160208183030381529060405280519060200120811415611ff45750600792915050565b604051662634b6b4ba32b960c91b6020820152602701604051602081830303815290604052805190602001208114156120305750600892915050565b60405165213ab93732b960d11b60208201526026016040516020818303038152906040528051906020012081141561206b5750600992915050565b604051682232b9ba3937bcb2b960b91b6020820152602901604051602081830303815290604052805190602001208114156120a95750600a92915050565b604051654f7261636c6560d01b6020820152602601604051602081830303815290604052805190602001208114156120e45750600b92915050565b6040516b14995cd95c9d995913185cdd60a21b6020820152602c01604051602081830303815290604052805190602001208114156121255750600c92915050565b8260405160200161213691906152a7565b60408051601f198184030181529082905262461bcd60e51b825261096d91600401615450565b6060600182600c81111561218057634e487b7160e01b600052602160045260246000fd5b14156121ab57505060408051808201909152600981526829bab832b93ab9b2b960b91b602082015290565b600282600c8111156121cd57634e487b7160e01b600052602160045260246000fd5b14156121f557505060408051808201909152600681526526b4b73a32b960d11b602082015290565b600382600c81111561221757634e487b7160e01b600052602160045260246000fd5b141561223f57505060408051808201909152600681526521b0b9ba32b960d11b602082015290565b600482600c81111561226157634e487b7160e01b600052602160045260246000fd5b141561228d57505060408051808201909152600a8152692a3930b739b332b932b960b11b602082015290565b600582600c8111156122af57634e487b7160e01b600052602160045260246000fd5b14156122db57505060408051808201909152600a81526921b7b73334b3bab932b960b11b602082015290565b600682600c8111156122fd57634e487b7160e01b600052602160045260246000fd5b141561232957505060408051808201909152600a81526926b0b4b73a30b4b732b960b11b602082015290565b600782600c81111561234b57634e487b7160e01b600052602160045260246000fd5b141561237457505060408051808201909152600781526621b932b0ba37b960c91b602082015290565b600882600c81111561239657634e487b7160e01b600052602160045260246000fd5b14156123bf5750506040805180820190915260078152662634b6b4ba32b960c91b602082015290565b600982600c8111156123e157634e487b7160e01b600052602160045260246000fd5b1415612409575050604080518082019091526006815265213ab93732b960d11b602082015290565b600a82600c81111561242b57634e487b7160e01b600052602160045260246000fd5b14156124565750506040805180820190915260098152682232b9ba3937bcb2b960b91b602082015290565b600b82600c81111561247857634e487b7160e01b600052602160045260246000fd5b14156124a05750506040805180820190915260068152654f7261636c6560d01b602082015290565b600c82600c8111156124c257634e487b7160e01b600052602160045260246000fd5b14156124f057505060408051808201909152600c81526b14995cd95c9d995913185cdd60a21b602082015290565b61251b82600c81111561251357634e487b7160e01b600052602160045260246000fd5b60ff16613295565b60405160200161213691906152e2565b612536600584611619565b80612544575061254461291d565b6125ad5760405162461bcd60e51b815260206004820152603460248201527f596f75206d7573742068617665206120436f6e6669677572657220746f6b656e604482015273103a379031b430b733b29036b2ba30b230ba309760611b606482015260840161096d565b6000838152610193602052604090206125c790838361483b565b50827f6bb7ff708619ba0610cba295a58592e0451dee2622938c8755667688daf3529b83836040516125fa929190615421565b60405180910390a2505050565b6097546001600160a01b031690565b6101928054610a6d906159ab565b6101945460009061263790600190615945565b905090565b6000611247838360006115f2565b6114733383836133ae565b611bac8383831561266e57612669846109f1565b612671565b60005b600061348f565b6101945460009080600861268f600d610100615922565b612699919061595c565b60ff166009901b1791506126ae600783611619565b806126bc57506126bc61291d565b6127245760405162461bcd60e51b815260206004820152603360248201527f596f75206d757374206861766520612043726561746f7220746f6b656e20746f6044820152721031b932b0ba32903732bb903a37b5b2b7399760691b606482015260840161096d565b610194805460018101909155600080516020615b9a833981519152018290556000828152610195602052604081208290555b84518110156127a55761279385828151811061278257634e487b7160e01b600052603260045260246000fd5b60200260200101518784600161348f565b8061279d81615a12565b915050612756565b5060005b83518110156127f5576127e38482815181106127d557634e487b7160e01b600052603260045260246000fd5b602002602001015183612ab5565b806127ed81615a12565b9150506127a9565b50604080518381526001600160a01b03871660208201527f7757890bcab34d673dfca6b71df1b57f75a2fe4231d6e8de726caf534ab1fdd6910160405180910390a160006128466007336000610e2f565b9050600380600861285a600d610100615922565b612864919061595c565b61286e919061595c565b612878919061595c565b600160ff919091161b6003806008612893600d610100615922565b61289d919061595c565b6128a7919061595c565b6128b1919061595c565b60ff166001901b821614156128cd576128cd335b82600161364a565b50509392505050565b600090815260fb602052604090205490565b60006128f560018361263c565b8061099b5750612903612607565b6001600160a01b0316826001600160a01b03161492915050565b6000612637336128e8565b60408051600080825260208201909252612943338283612678565b91505090565b6001600160a01b0385163314806129655750612965853361082d565b6129815760405162461bcd60e51b815260040161096d90615529565b6112ea858585858561373d565b33612997612607565b6001600160a01b0316146129bd5760405162461bcd60e51b815260040161096d9061567e565b6001600160a01b038116612a225760405162461bcd60e51b815260206004820152602660248201527f4f776e61626c653a206e6577206f776e657220697320746865207a65726f206160448201526564647265737360d01b606482015260840161096d565b61143b81613143565b612a37600984846115f2565b80612a465750612a46836128e8565b612aaa5760405162461bcd60e51b815260206004820152602f60248201527f596f75206d75737420686176652061204275726e657220746f6b656e20746f2060448201526e3232b9ba3937bc903a37b5b2b7399760891b606482015260840161096d565b611bac83838361364a565b60008181526101956020526040812054612ad0908490611477565b90506008612ae1600d610100615922565b612aeb919061595c565b610194805460018101909155600a60ff929092169190911b91909117600080516020615b9a8339815191528201819055600090815261019560205260409020555050565b6001600160a01b03163b151590565b8151835114612b5f5760405162461bcd60e51b815260040161096d9061574c565b6001600160a01b038416612b855760405162461bcd60e51b815260040161096d906155ac565b33612b9481878787878761384c565b60005b8451811015612c99576000858281518110612bc257634e487b7160e01b600052603260045260246000fd5b602002602001015190506000858381518110612bee57634e487b7160e01b600052603260045260246000fd5b60209081029190910181015160008481526065835260408082206001600160a01b038e168352909352919091205490915081811015612c3f5760405162461bcd60e51b815260040161096d90615634565b60008381526065602090815260408083206001600160a01b038e8116855292528083208585039055908b16825281208054849290612c7e908490615808565b9250508190555050505080612c9290615a12565b9050612b97565b50846001600160a01b0316866001600160a01b0316826001600160a01b0316600080516020615b5a8339815191528787604051612cd79291906153d4565b60405180910390a4612ced8187878787876141be565b505050505050565b600080516020615bda833981519152546001600160a01b031690565b612d1b600661124e565b80612d295750612d2961291d565b61143b5760405162461bcd60e51b815260206004820152603960248201527f596f75206d75737420686176652061204d61696e7461696e657220746f6b656e604482015278103a37903ab833b930b232903a34329031b7b73a3930b1ba1760391b606482015260840161096d565b7f4910fdfa16fed3260ed0e7147f7cc6da11a60208b5b9406d12a635614ffd91435460ff1615612dca57611bac83614330565b826001600160a01b03166352d1902d6040518163ffffffff1660e01b815260040160206040518083038186803b158015612e0357600080fd5b505afa925050508015612e33575060408051601f3d908101601f19168201909252612e3091810190614ff2565b60015b612e965760405162461bcd60e51b815260206004820152602e60248201527f45524331393637557067726164653a206e657720696d706c656d656e7461746960448201526d6f6e206973206e6f74205555505360901b606482015260840161096d565b600080516020615bda8339815191528114612f055760405162461bcd60e51b815260206004820152602960248201527f45524331393637557067726164653a20756e737570706f727465642070726f786044820152681a58589b195555525160ba1b606482015260840161096d565b50611bac8383836143ca565b6000612f1c30612b2f565b15905090565b600054610100900460ff16612f495760405162461bcd60e51b815260040161096d90615701565b611c0a6143ef565b600054610100900460ff16612f785760405162461bcd60e51b815260040161096d90615701565b61143b8161441f565b600054610100900460ff16611c0a5760405162461bcd60e51b815260040161096d90615701565b6001600160a01b038316612fce5760405162461bcd60e51b815260040161096d906155f1565b8051825114612fef5760405162461bcd60e51b815260040161096d9061574c565b60003390506130128185600086866040518060200160405280600081525061384c565b60005b83518110156130f657600084828151811061304057634e487b7160e01b600052603260045260246000fd5b60200260200101519050600084838151811061306c57634e487b7160e01b600052603260045260246000fd5b60209081029190910181015160008481526065835260408082206001600160a01b038c1683529093529190912054909150818110156130bd5760405162461bcd60e51b815260040161096d906154ab565b60009283526065602090815260408085206001600160a01b038b16865290915290922091039055806130ee81615a12565b915050613015565b5060006001600160a01b0316846001600160a01b0316826001600160a01b0316600080516020615b5a83398151915286866040516131359291906153d4565b60405180910390a450505050565b609780546001600160a01b038381166001600160a01b0319831681179093556040519116919082907f8be0079c531659141344cd1fd0a4f28419497f9722a3daafe3b4186f6b6457e090600090a35050565b6001600160a01b0384166131f55760405162461bcd60e51b815260206004820152602160248201527f455243313135353a206d696e7420746f20746865207a65726f206164647265736044820152607360f81b606482015260840161096d565b33613215816000876132068861444f565b61320f8861444f565b8761384c565b60008481526065602090815260408083206001600160a01b038916845290915281208054859290613247908490615808565b909155505060408051858152602081018590526001600160a01b038088169260009291851691600080516020615b7a833981519152910160405180910390a46112ea816000878787876144a8565b6060816132b95750506040805180820190915260018152600360fc1b602082015290565b8160005b81156132e357806132cd81615a12565b91506132dc9050600a83615820565b91506132bd565b6000816001600160401b0381111561330b57634e487b7160e01b600052604160045260246000fd5b6040519080825280601f01601f191660200182016040528015613335576020820181803683370190505b5090505b8415611e0c5761334a600183615945565b9150613357600a86615a4d565b613362906030615808565b60f81b81838151811061338557634e487b7160e01b600052603260045260246000fd5b60200101906001600160f81b031916908160001a9053506133a7600a86615820565b9450613339565b816001600160a01b0316836001600160a01b031614156134225760405162461bcd60e51b815260206004820152602960248201527f455243313135353a2073657474696e6720617070726f76616c20737461747573604482015268103337b91039b2b63360b91b606482015260840161096d565b6001600160a01b03838116600081815260666020908152604080832094871680845294825291829020805460ff191686151590811790915591519182527f17307eab39ab6107e8899845ad3d59bd9653f200f220920489ca2b5937696c31910160405180910390a3505050565b806135a957600184600c8111156134b657634e487b7160e01b600052602160045260246000fd5b1415613529576134c461291d565b6135245760405162461bcd60e51b815260206004820152602b60248201527f596f75206d75737420626520612073757065727573657220746f20637265617460448201526a32903732bb9037b732b99760a91b606482015260840161096d565b6135a9565b613534600383611619565b80613542575061354261291d565b6135a95760405162461bcd60e51b815260206004820152603260248201527f596f75206d7573742068617665207468652043617374657220726f6c6520746f6044820152711030b9b9b4b3b7103732bb903937b632b99760711b606482015260840161096d565b610db283826135b9576000613628565b6001600881600380836135cf600d610100615922565b6135d9919061595c565b6135e3919061595c565b6135ed919061595c565b6135f7919061595c565b613601919061595c565b61360b919061595c565b60ff16600161361b816002615877565b6136259190615945565b901b5b6136328786611477565b17600160405180602001604052806000815250613195565b6001600160a01b0383166136705760405162461bcd60e51b815260040161096d906155f1565b3361369f818560006136818761444f565b61368a8761444f565b6040518060200160405280600081525061384c565b60008381526065602090815260408083206001600160a01b0388168452909152902054828110156136e25760405162461bcd60e51b815260040161096d906154ab565b60008481526065602090815260408083206001600160a01b0389811680865291845282852088870390558251898152938401889052909290861691600080516020615b7a833981519152910160405180910390a45050505050565b6001600160a01b0384166137635760405162461bcd60e51b815260040161096d906155ac565b336137738187876132068861444f565b60008481526065602090815260408083206001600160a01b038a168452909152902054838110156137b65760405162461bcd60e51b815260040161096d90615634565b60008581526065602090815260408083206001600160a01b038b81168552925280832087850390559088168252812080548692906137f5908490615808565b909155505060408051868152602081018690526001600160a01b03808916928a82169291861691600080516020615b7a833981519152910160405180910390a46138438288888888886144a8565b50505050505050565b61385461291d565b613df65760005b8351811015613df45760016008816003808361387a600d610100615922565b613884919061595c565b61388e919061595c565b613898919061595c565b6138a2919061595c565b6138ac919061595c565b6138b6919061595c565b60ff1660016138c6816002615877565b6138d09190615945565b901b6001600881600380836138e8600d610100615922565b6138f2919061595c565b6138fc919061595c565b613906919061595c565b613910919061595c565b61391a919061595c565b613924919061595c565b60ff166001613934816002615877565b61393e9190615945565b901b85838151811061396057634e487b7160e01b600052603260045260246000fd5b60200260200101511614613de45760006001600160a01b03871615613986576004613989565b60025b9050600281600c8111156139ad57634e487b7160e01b600052602160045260246000fd5b1415613d465760006101a260008785815181106139da57634e487b7160e01b600052603260045260246000fd5b6020026020010151815260200190815260200160002060009054906101000a900460070b60070b12613b02576101a26000868481518110613a2b57634e487b7160e01b600052603260045260246000fd5b6020026020010151815260200190815260200160002060009054906101000a900460070b60070b848381518110613a7257634e487b7160e01b600052603260045260246000fd5b6020026020010151613aaa878581518110613a9d57634e487b7160e01b600052603260045260246000fd5b60200260200101516128d6565b613ab49190615808565b1315613b025760405162461bcd60e51b815260206004820181905260248201527f4d6178696d756d206d696e7420616c6c6f77616e63652065786365656465642e604482015260640161096d565b6008613b11600d610100615922565b613b1b919061595c565b600160ff919091161b6008613b33600d610100615922565b613b3d919061595c565b60ff166001613b4e60086002615877565b613b589190615945565b901b868481518110613b7a57634e487b7160e01b600052603260045260246000fd5b6020026020010151161415613c3457613bbb6003868481518110613bae57634e487b7160e01b600052603260045260246000fd5b6020026020010151611619565b80613bc95750613bc961291d565b613c2f5760405162461bcd60e51b815260206004820152603160248201527f596f75206d757374206861766520612043617374657220746f6b656e20746f2060448201527036b4b73a103a37b5b2b71033b0ba32b99760791b606482015260840161096d565b613de2565b6000613c6b823361038a898781518110613c5e57634e487b7160e01b600052603260045260246000fd5b60200260200101516109f1565b9050613c9182878581518110613bae57634e487b7160e01b600052603260045260246000fd5b613cf65760405162461bcd60e51b815260206004820152603060248201527f596f75206d75737420686176652061204d696e74657220746f6b656e20746f2060448201526f33b2b732b930ba32903a37b5b2b7399760811b606482015260840161096d565b60006003806008613d0a600d610100615922565b613d14919061595c565b613d1e919061595c565b613d28919061595c565b60ff166001901b82161115613d4057613d40336128c5565b50613de2565b6001600160a01b03861615613de257613d7981868481518110613bae57634e487b7160e01b600052603260045260246000fd5b613de25760405162461bcd60e51b815260206004820152603460248201527f596f75206d75737420686176652061205472616e73666572657220746f6b656e604482015273103a37903a3930b739b332b9103a37b5b2b7399760611b606482015260840161096d565b505b613ded81615a12565b905061385b565b505b6001600160a01b0384161561401c5760005b835181101561401a576101946001016000858381518110613e3957634e487b7160e01b600052603260045260246000fd5b602002602001015181526020019081526020016000205460001415613ee557610194600001848281518110613e7e57634e487b7160e01b600052603260045260246000fd5b6020908102919091018101518254600181018455600093845291832090910155610194548551909161019591879085908110613eca57634e487b7160e01b600052603260045260246000fd5b60200260200101518152602001908152602001600020819055505b6101966000866001600160a01b03166001600160a01b031681526020019081526020016000206001016000858381518110613f3057634e487b7160e01b600052603260045260246000fd5b60200260200101518152602001908152602001600020546000141561400a576001600160a01b0385166000908152610196602052604090208451859083908110613f8a57634e487b7160e01b600052603260045260246000fd5b6020908102919091018101518254600181810185556000948552838520909101919091556001600160a01b0388168352610196909152604082208054875190939190920191879085908110613fef57634e487b7160e01b600052603260045260246000fd5b60200260200101518152602001908152602001600020819055505b61401381615a12565b9050613e08565b505b6001600160a01b038516156141b05760005b83518110156141ae5782818151811061405757634e487b7160e01b600052603260045260246000fd5b60200260200101516140838786848151811061188f57634e487b7160e01b600052603260045260246000fd5b1161419e576001600160a01b038616600090815261019660205260408120855160019182019083908890869081106140cb57634e487b7160e01b600052603260045260246000fd5b60200260200101518152602001908152602001600020546140ec9190615945565b6001600160a01b0388166000908152610196602052604090208054919250908290811061412957634e487b7160e01b600052603260045260246000fd5b90600052602060002001600090556101966000886001600160a01b03166001600160a01b03168152602001908152602001600020600101600086848151811061418257634e487b7160e01b600052603260045260246000fd5b6020026020010151815260200190815260200160002060009055505b6141a781615a12565b905061402e565b505b612ced868686868686614579565b6141d0846001600160a01b0316612b2f565b15612ced5760405163bc197c8160e01b81526001600160a01b0385169063bc197c8190614209908990899088908890889060040161531e565b602060405180830381600087803b15801561422357600080fd5b505af1925050508015614253575060408051601f3d908101601f1916820190925261425091810190615026565b60015b6143005761425f615aa3565b806308c379a014156142995750614274615aba565b8061427f575061429b565b8060405162461bcd60e51b815260040161096d9190615450565b505b60405162461bcd60e51b815260206004820152603460248201527f455243313135353a207472616e7366657220746f206e6f6e20455243313135356044820152732932b1b2b4bb32b91034b6b83632b6b2b73a32b960611b606482015260840161096d565b6001600160e01b0319811663bc197c8160e01b146138435760405162461bcd60e51b815260040161096d90615463565b61433981612b2f565b61439b5760405162461bcd60e51b815260206004820152602d60248201527f455243313936373a206e657720696d706c656d656e746174696f6e206973206e60448201526c1bdd08184818dbdb9d1c9858dd609a1b606482015260840161096d565b600080516020615bda83398151915280546001600160a01b0319166001600160a01b0392909216919091179055565b6143d3836146bd565b6000825111806143e05750805b15611bac57610db283836146fd565b600054610100900460ff166144165760405162461bcd60e51b815260040161096d90615701565b611c0a33613143565b600054610100900460ff166144465760405162461bcd60e51b815260040161096d90615701565b61143b816147ef565b6040805160018082528183019092526060916000919060208083019080368337019050509050828160008151811061449757634e487b7160e01b600052603260045260246000fd5b602090810291909101015292915050565b6144ba846001600160a01b0316612b2f565b15612ced5760405163f23a6e6160e01b81526001600160a01b0385169063f23a6e61906144f3908990899088908890889060040161537c565b602060405180830381600087803b15801561450d57600080fd5b505af192505050801561453d575060408051601f3d908101601f1916820190925261453a91810190615026565b60015b6145495761425f615aa3565b6001600160e01b0319811663f23a6e6160e01b146138435760405162461bcd60e51b815260040161096d90615463565b6001600160a01b03851661461c5760005b835181101561461a578281815181106145b357634e487b7160e01b600052603260045260246000fd5b602002602001015160fb60008684815181106145df57634e487b7160e01b600052603260045260246000fd5b6020026020010151815260200190815260200160002060008282546146049190615808565b90915550614613905081615a12565b905061458a565b505b6001600160a01b038416612ced5760005b83518110156138435782818151811061465657634e487b7160e01b600052603260045260246000fd5b602002602001015160fb600086848151811061468257634e487b7160e01b600052603260045260246000fd5b6020026020010151815260200190815260200160002060008282546146a79190615945565b909155506146b6905081615a12565b905061462d565b6146c681614330565b6040516001600160a01b038216907fbc7cd75a20ee27fd9adebab32041f755214dbc6bffa90cc0225b39da2e5c2d3b90600090a250565b606061470883612b2f565b6147635760405162461bcd60e51b815260206004820152602660248201527f416464726573733a2064656c65676174652063616c6c20746f206e6f6e2d636f6044820152651b9d1c9858dd60d21b606482015260840161096d565b600080846001600160a01b03168460405161477e919061528b565b600060405180830381855af49150503d80600081146147b9576040519150601f19603f3d011682016040523d82523d6000602084013e6147be565b606091505b50915091506147e68282604051806060016040528060278152602001615bfa60279139614802565b95945050505050565b80516114739060679060208401906148bf565b60608315614811575081611247565b8251156148215782518084602001fd5b8160405162461bcd60e51b815260040161096d9190615450565b828054614847906159ab565b90600052602060002090601f01602090048101928261486957600085556148af565b82601f106148825782800160ff198235161785556148af565b828001600101855582156148af579182015b828111156148af578235825591602001919060010190614894565b506148bb929150614933565b5090565b8280546148cb906159ab565b90600052602060002090601f0160209004810192826148ed57600085556148af565b82601f1061490657805160ff19168380011785556148af565b828001600101855582156148af579182015b828111156148af578251825591602001919060010190614918565b5b808211156148bb5760008155600101614934565b60006001600160401b0383111561496157614961615a8d565b604051614978601f8501601f1916602001826159e6565b80915083815284848401111561498d57600080fd5b83836020830137600060208583010152509392505050565b80356001600160a01b0381168114610a5a57600080fd5b600082601f8301126149cc578081fd5b813560206149d9826157e5565b6040516149e682826159e6565b8381528281019150858301600585901b87018401881015614a05578586fd5b855b85811015614a2a57614a18826149a5565b84529284019290840190600101614a07565b5090979650505050505050565b600082601f830112614a47578081fd5b81356020614a54826157e5565b604051614a6182826159e6565b8381528281019150858301600585901b87018401881015614a80578586fd5b855b85811015614a2a57614a9382614b2b565b84529284019290840190600101614a82565b600082601f830112614ab5578081fd5b81356020614ac2826157e5565b604051614acf82826159e6565b8381528281019150858301600585901b87018401881015614aee578586fd5b855b85811015614a2a57813584529284019290840190600101614af0565b600082601f830112614b1c578081fd5b61124783833560208501614948565b8035600d8110610a5a57600080fd5b60008083601f840112614b4b578182fd5b5081356001600160401b03811115614b61578182fd5b602083019150836020828501011115614b7957600080fd5b9250929050565b600060208284031215614b91578081fd5b611247826149a5565b60008060408385031215614bac578081fd5b614bb5836149a5565b9150614bc3602084016149a5565b90509250929050565b600080600080600060a08688031215614be3578081fd5b614bec866149a5565b9450614bfa602087016149a5565b935060408601356001600160401b0380821115614c15578283fd5b614c2189838a01614aa5565b94506060880135915080821115614c36578283fd5b614c4289838a01614aa5565b93506080880135915080821115614c57578283fd5b50614c6488828901614b0c565b9150509295509295909350565b600080600080600060a08688031215614c88578081fd5b614c91866149a5565b9450614c9f602087016149a5565b9350604086013592506060860135915060808601356001600160401b03811115614cc7578182fd5b614c6488828901614b0c565b600080600060608486031215614ce7578081fd5b614cf0846149a5565b925060208401356001600160401b0380821115614d0b578283fd5b614d1787838801614a37565b93506040860135915080821115614d2c578283fd5b50614d3986828701614a37565b9150509250925092565b600080600060608486031215614d57578081fd5b614d60846149a5565b925060208401356001600160401b0380821115614d7b578283fd5b614d8787838801614aa5565b93506040860135915080821115614d9c578283fd5b50614d3986828701614aa5565b60008060408385031215614dbb578182fd5b614dc4836149a5565b915060208301358015158114614dd8578182fd5b809150509250929050565b60008060408385031215614df5578182fd5b614dfe836149a5565b915060208301356001600160401b03811115614e18578182fd5b614e2485828601614b0c565b9150509250929050565b60008060408385031215614e40578182fd5b614e49836149a5565b946020939093013593505050565b600080600060608486031215614e6b578081fd5b614e74846149a5565b95602085013595506040909401359392505050565b60008060008060808587031215614e9e578182fd5b614ea7856149a5565b9350602085013592506040850135915060608501356001600160401b03811115614ecf578182fd5b614edb87828801614b0c565b91505092959194509250565b60008060408385031215614ef9578182fd5b82356001600160401b0380821115614f0f578384fd5b614f1b868387016149bc565b93506020850135915080821115614f30578283fd5b50614e2485828601614aa5565b600080600060608486031215614f51578081fd5b83356001600160401b0380821115614f67578283fd5b614f73878388016149bc565b9450602086013593506040860135915080821115614f8f578283fd5b50614d3986828701614b0c565b60008060408385031215614fae578182fd5b82356001600160401b0380821115614fc4578384fd5b614fd086838701614a37565b93506020850135915080821115614fe5578283fd5b50614e2485828601614a37565b600060208284031215615003578081fd5b5051919050565b60006020828403121561501b578081fd5b813561124781615b43565b600060208284031215615037578081fd5b815161124781615b43565b600060208284031215615053578081fd5b61124782614b2b565b6000806040838503121561506e578182fd5b614bb583614b2b565b60008060006060848603121561508b578081fd5b61509484614b2b565b92506150a2602085016149a5565b9150604084013590509250925092565b600080604083850312156150c4578182fd5b614e4983614b2b565b600080600080604085870312156150e2578182fd5b84356001600160401b03808211156150f8578384fd5b61510488838901614b3a565b9096509450602087013591508082111561511c578384fd5b5061512987828801614b3a565b95989497509550505050565b600060208284031215615146578081fd5b81356001600160401b0381111561515b578182fd5b8201601f8101841361516b578182fd5b611e0c84823560208401614948565b60006020828403121561518b578081fd5b5035919050565b600080604083850312156151a4578182fd5b8235915060208301358060070b8114614dd8578182fd5b6000806000604084860312156151cf578081fd5b8335925060208401356001600160401b038111156151eb578182fd5b6151f786828701614b3a565b9497909650939450505050565b60008060408385031215615216578182fd5b50508035926020909101359150565b6000815180845260208085019450808401835b8381101561525457815187529582019590820190600101615238565b509495945050505050565b6000815180845261527781602086016020860161597f565b601f01601f19169290920160200192915050565b6000825161529d81846020870161597f565b9190910192915050565b7202ab735b737bbb7103937b632903a3cb8329d1606d1b8152600082516152d581601385016020870161597f565b9190910160130192915050565b7302ab735b737bbb7102937b6329024b73232bc1d160651b81526000825161531181601485016020870161597f565b9190910160140192915050565b6001600160a01b0386811682528516602082015260a06040820181905260009061534a90830186615225565b828103606084015261535c8186615225565b90508281036080840152615370818561525f565b98975050505050505050565b6001600160a01b03868116825285166020820152604081018490526060810183905260a0608082018190526000906153b69083018461525f565b979650505050505050565b6020815260006112476020830184615225565b6040815260006153e76040830185615225565b82810360208401526147e68185615225565b60208101600d831061541b57634e487b7160e01b600052602160045260246000fd5b91905290565b60208152816020820152818360408301376000818301604090810191909152601f909201601f19160101919050565b602081526000611247602083018461525f565b60208082526028908201527f455243313135353a204552433131353552656365697665722072656a656374656040820152676420746f6b656e7360c01b606082015260800190565b60208082526024908201527f455243313135353a206275726e20616d6f756e7420657863656564732062616c604082015263616e636560e01b606082015260800190565b6020808252602c90820152600080516020615bba83398151915260408201526b19195b1959d85d1958d85b1b60a21b606082015260800190565b60208082526029908201527f455243313135353a2063616c6c6572206973206e6f74206f776e6572206e6f7260408201526808185c1c1c9bdd995960ba1b606082015260800190565b6020808252602c90820152600080516020615bba83398151915260408201526b6163746976652070726f787960a01b606082015260800190565b60208082526025908201527f455243313135353a207472616e7366657220746f20746865207a65726f206164604082015264647265737360d81b606082015260800190565b60208082526023908201527f455243313135353a206275726e2066726f6d20746865207a65726f206164647260408201526265737360e81b606082015260800190565b6020808252602a908201527f455243313135353a20696e73756666696369656e742062616c616e636520666f60408201526939103a3930b739b332b960b11b606082015260800190565b6020808252818101527f4f776e61626c653a2063616c6c6572206973206e6f7420746865206f776e6572604082015260600190565b6020808252602e908201527f4552432d3131353520456e756d657261626c653a20746f6b656e20696e64657860408201526d206f7574206f6620626f756e647360901b606082015260800190565b6020808252602b908201527f496e697469616c697a61626c653a20636f6e7472616374206973206e6f74206960408201526a6e697469616c697a696e6760a81b606082015260800190565b60208082526028908201527f455243313135353a2069647320616e6420616d6f756e7473206c656e677468206040820152670dad2e6dac2e8c6d60c31b606082015260800190565b60208082526031908201527f596f75206d75737420686176652061204c696d6974657220746f6b656e20746f6040820152701031b430b733b29038bab0b73a34ba3c9760791b606082015260800190565b60006001600160401b038211156157fe576157fe615a8d565b5060051b60200190565b6000821982111561581b5761581b615a61565b500190565b60008261582f5761582f615a77565b500490565b600181815b8085111561586f57816000190482111561585557615855615a61565b8085161561586257918102915b93841c9390800290615839565b509250929050565b600061124760ff8416836000826158905750600161099b565b8161589d5750600061099b565b81600181146158b357600281146158bd576158d9565b600191505061099b565b60ff8411156158ce576158ce615a61565b50506001821b61099b565b5060208310610133831016604e8410600b84101617156158fc575081810a61099b565b6159068383615834565b806000190482111561591a5761591a615a61565b029392505050565b600061ffff8381169083168181101561593d5761593d615a61565b039392505050565b60008282101561595757615957615a61565b500390565b600060ff821660ff84168082101561597657615976615a61565b90039392505050565b60005b8381101561599a578181015183820152602001615982565b83811115610db25750506000910152565b600181811c908216806159bf57607f821691505b602082108114156159e057634e487b7160e01b600052602260045260246000fd5b50919050565b601f8201601f191681016001600160401b0381118282101715615a0b57615a0b615a8d565b6040525050565b6000600019821415615a2657615a26615a61565b5060010190565b600060ff821660ff811415615a4457615a44615a61565b60010192915050565b600082615a5c57615a5c615a77565b500690565b634e487b7160e01b600052601160045260246000fd5b634e487b7160e01b600052601260045260246000fd5b634e487b7160e01b600052604160045260246000fd5b600060033d1115611b1057600481823e5160e01c90565b600060443d1015615ac85790565b6040516003193d81016004833e81513d6001600160401b038083116024840183101715615af757505050505090565b8285019150815181811115615b0f5750505050505090565b843d8701016020828501011115615b295750505050505090565b615b38602082860101876159e6565b509095945050505050565b6001600160e01b03198116811461143b57600080fdfe4a39dc06d4c0dbc64b70af90fd698a233a518aa5d07e595d983b8c0526c8f7fbc3d58168c5ae7397731d063d5bbf3d657854427343f4c083240f7aacaa2d0f62a6f1ac7ad7b125ba5a5e1c96b00ad6914f90a503b1ac3d85a9dadbb4c639df9246756e6374696f6e206d7573742062652063616c6c6564207468726f75676820360894a13ba1a3210667c828492db98dca3e2076cc3735a920a3ca505d382bbc416464726573733a206c6f772d6c6576656c2064656c65676174652063616c6c206661696c6564a2646970667358221220834431f5401946df8bf5cc67eff2fd0b9e5dcb912ba1fa8b97118e1b680c13e564736f6c63430008040033",
  "linkReferences": {},
  "deployedLinkReferences": {}
}