{
  "_format": "hh-sol-artifact-1",
  "contractName": "BulkDisbursableNFTs",
  "sourceName": "src/BulkDisbursableNFTs.sol",
  "abi": [
    {
      "inputs": [],
      "stateMutability": "nonpayable",
      "type": "constructor"
    },
    {
      "anonymous": false,
      "inputs": [
        {
          "indexed": false,
          "internalType": "address",
          "name": "previousAdmin",
          "type": "address"
        },
        {
          "indexed": false,
          "internalType": "address",
          "name": "newAdmin",
          "type": "address"
        }
      ],
      "name": "AdminChanged",
      "type": "event"
    },
    {
      "anonymous": false,
      "inputs": [
        {
          "indexed": true,
          "internalType": "address",
          "name": "account",
          "type": "address"
        },
        {
          "indexed": true,
          "internalType": "address",
          "name": "operator",
          "type": "address"
        },
        {
          "indexed": false,
          "internalType": "bool",
          "name": "approved",
          "type": "bool"
        }
      ],
      "name": "ApprovalForAll",
      "type": "event"
    },
    {
      "anonymous": false,
      "inputs": [
        {
          "indexed": true,
          "internalType": "address",
          "name": "beacon",
          "type": "address"
        }
      ],
      "name": "BeaconUpgraded",
      "type": "event"
    },
    {
      "anonymous": false,
      "inputs": [
        {
          "indexed": false,
          "internalType": "uint256",
          "name": "id",
          "type": "uint256"
        },
        {
          "indexed": false,
          "internalType": "address",
          "name": "controller",
          "type": "address"
        }
      ],
      "name": "Created",
      "type": "event"
    },
    {
      "anonymous": false,
      "inputs": [
        {
          "indexed": false,
          "internalType": "uint8",
          "name": "version",
          "type": "uint8"
        }
      ],
      "name": "Initialized",
      "type": "event"
    },
    {
      "anonymous": false,
      "inputs": [
        {
          "indexed": true,
          "internalType": "address",
          "name": "previousOwner",
          "type": "address"
        },
        {
          "indexed": true,
          "internalType": "address",
          "name": "newOwner",
          "type": "address"
        }
      ],
      "name": "OwnershipTransferred",
      "type": "event"
    },
    {
      "anonymous": false,
      "inputs": [
        {
          "indexed": true,
          "internalType": "address",
          "name": "operator",
          "type": "address"
        },
        {
          "indexed": true,
          "internalType": "address",
          "name": "from",
          "type": "address"
        },
        {
          "indexed": true,
          "internalType": "address",
          "name": "to",
          "type": "address"
        },
        {
          "indexed": false,
          "internalType": "uint256[]",
          "name": "ids",
          "type": "uint256[]"
        },
        {
          "indexed": false,
          "internalType": "uint256[]",
          "name": "values",
          "type": "uint256[]"
        }
      ],
      "name": "TransferBatch",
      "type": "event"
    },
    {
      "anonymous": false,
      "inputs": [
        {
          "indexed": true,
          "internalType": "address",
          "name": "operator",
          "type": "address"
        },
        {
          "indexed": true,
          "internalType": "address",
          "name": "from",
          "type": "address"
        },
        {
          "indexed": true,
          "internalType": "address",
          "name": "to",
          "type": "address"
        },
        {
          "indexed": false,
          "internalType": "uint256",
          "name": "id",
          "type": "uint256"
        },
        {
          "indexed": false,
          "internalType": "uint256",
          "name": "value",
          "type": "uint256"
        }
      ],
      "name": "TransferSingle",
      "type": "event"
    },
    {
      "anonymous": false,
      "inputs": [
        {
          "indexed": false,
          "internalType": "string",
          "name": "value",
          "type": "string"
        },
        {
          "indexed": true,
          "internalType": "uint256",
          "name": "id",
          "type": "uint256"
        }
      ],
      "name": "URI",
      "type": "event"
    },
    {
      "anonymous": false,
      "inputs": [
        {
          "indexed": true,
          "internalType": "address",
          "name": "implementation",
          "type": "address"
        }
      ],
      "name": "Upgraded",
      "type": "event"
    },
    {
      "inputs": [
        {
          "internalType": "address",
          "name": "account",
          "type": "address"
        },
        {
          "internalType": "uint256",
          "name": "id",
          "type": "uint256"
        }
      ],
      "name": "balanceOf",
      "outputs": [
        {
          "internalType": "uint256",
          "name": "",
          "type": "uint256"
        }
      ],
      "stateMutability": "view",
      "type": "function"
    },
    {
      "inputs": [
        {
          "internalType": "address[]",
          "name": "accounts",
          "type": "address[]"
        },
        {
          "internalType": "uint256[]",
          "name": "ids",
          "type": "uint256[]"
        }
      ],
      "name": "balanceOfBatch",
      "outputs": [
        {
          "internalType": "uint256[]",
          "name": "",
          "type": "uint256[]"
        }
      ],
      "stateMutability": "view",
      "type": "function"
    },
    {
      "inputs": [
        {
          "internalType": "address",
          "name": "owner",
          "type": "address"
        },
        {
          "internalType": "uint256",
          "name": "id",
          "type": "uint256"
        },
        {
          "internalType": "uint256",
          "name": "quantity",
          "type": "uint256"
        }
      ],
      "name": "burn",
      "outputs": [],
      "stateMutability": "nonpayable",
      "type": "function"
    },
    {
      "inputs": [
        {
          "internalType": "address",
          "name": "account",
          "type": "address"
        },
        {
          "internalType": "uint256[]",
          "name": "ids",
          "type": "uint256[]"
        },
        {
          "internalType": "uint256[]",
          "name": "values",
          "type": "uint256[]"
        }
      ],
      "name": "burnBatch",
      "outputs": [],
      "stateMutability": "nonpayable",
      "type": "function"
    },
    {
      "inputs": [
        {
          "internalType": "enum Roles.Role[]",
          "name": "grants",
          "type": "uint8[]"
        },
        {
          "internalType": "enum Roles.Role[]",
          "name": "disables",
          "type": "uint8[]"
        }
      ],
      "name": "create",
      "outputs": [
        {
          "internalType": "uint256",
          "name": "id",
          "type": "uint256"
        }
      ],
      "stateMutability": "nonpayable",
      "type": "function"
    },
    {
      "inputs": [
        {
          "internalType": "address",
          "name": "maintainer",
          "type": "address"
        },
        {
          "internalType": "enum Roles.Role[]",
          "name": "grants",
          "type": "uint8[]"
        },
        {
          "internalType": "enum Roles.Role[]",
          "name": "disables",
          "type": "uint8[]"
        }
      ],
      "name": "create",
      "outputs": [
        {
          "internalType": "uint256",
          "name": "id",
          "type": "uint256"
        }
      ],
      "stateMutability": "nonpayable",
      "type": "function"
    },
    {
      "inputs": [],
      "name": "create",
      "outputs": [
        {
          "internalType": "uint256",
          "name": "id",
          "type": "uint256"
        }
      ],
      "stateMutability": "nonpayable",
      "type": "function"
    },
    {
      "inputs": [
        {
          "internalType": "enum Roles.Role",
          "name": "toDisable",
          "type": "uint8"
        },
        {
          "internalType": "uint256",
          "name": "disablingIndex",
          "type": "uint256"
        }
      ],
      "name": "disableRole",
      "outputs": [],
      "stateMutability": "nonpayable",
      "type": "function"
    },
    {
      "inputs": [
        {
          "internalType": "uint256",
          "name": "id",
          "type": "uint256"
        }
      ],
      "name": "exists",
      "outputs": [
        {
          "internalType": "bool",
          "name": "",
          "type": "bool"
        }
      ],
      "stateMutability": "view",
      "type": "function"
    },
    {
      "inputs": [
        {
          "internalType": "enum Roles.Role",
          "name": "role",
          "type": "uint8"
        },
        {
          "internalType": "address",
          "name": "user",
          "type": "address"
        },
        {
          "internalType": "uint256",
          "name": "index",
          "type": "uint256"
        }
      ],
      "name": "gateToken",
      "outputs": [
        {
          "internalType": "uint256",
          "name": "id",
          "type": "uint256"
        }
      ],
      "stateMutability": "view",
      "type": "function"
    },
    {
      "inputs": [
        {
          "internalType": "uint256",
          "name": "id",
          "type": "uint256"
        }
      ],
      "name": "getMax",
      "outputs": [
        {
          "internalType": "int64",
          "name": "max",
          "type": "int64"
        }
      ],
      "stateMutability": "view",
      "type": "function"
    },
    {
      "inputs": [
        {
          "internalType": "uint256",
          "name": "id",
          "type": "uint256"
        }
      ],
      "name": "getPerUserMax",
      "outputs": [
        {
          "internalType": "int256",
          "name": "max",
          "type": "int256"
        }
      ],
      "stateMutability": "view",
      "type": "function"
    },
    {
      "inputs": [
        {
          "internalType": "enum Roles.Role",
          "name": "role",
          "type": "uint8"
        },
        {
          "internalType": "address",
          "name": "user",
          "type": "address"
        },
        {
          "internalType": "uint256",
          "name": "id",
          "type": "uint256"
        },
        {
          "internalType": "bool",
          "name": "singleUse",
          "type": "bool"
        }
      ],
      "name": "grantRole",
      "outputs": [],
      "stateMutability": "nonpayable",
      "type": "function"
    },
    {
      "inputs": [
        {
          "internalType": "enum Roles.Role",
          "name": "role",
          "type": "uint8"
        },
        {
          "internalType": "address",
          "name": "user",
          "type": "address"
        }
      ],
      "name": "grantRole",
      "outputs": [],
      "stateMutability": "nonpayable",
      "type": "function"
    },
    {
      "inputs": [
        {
          "internalType": "enum Roles.Role",
          "name": "role",
          "type": "uint8"
        },
        {
          "internalType": "address",
          "name": "user",
          "type": "address"
        },
        {
          "internalType": "bool",
          "name": "singleUse",
          "type": "bool"
        }
      ],
      "name": "grantRole",
      "outputs": [],
      "stateMutability": "nonpayable",
      "type": "function"
    },
    {
      "inputs": [
        {
          "internalType": "enum Roles.Role",
          "name": "role",
          "type": "uint8"
        },
        {
          "internalType": "address",
          "name": "user",
          "type": "address"
        },
        {
          "internalType": "uint256",
          "name": "id",
          "type": "uint256"
        }
      ],
      "name": "grantRole",
      "outputs": [],
      "stateMutability": "nonpayable",
      "type": "function"
    },
    {
      "inputs": [
        {
          "internalType": "enum Roles.Role",
          "name": "role",
          "type": "uint8"
        }
      ],
      "name": "hasRole",
      "outputs": [
        {
          "internalType": "bool",
          "name": "has",
          "type": "bool"
        }
      ],
      "stateMutability": "view",
      "type": "function"
    },
    {
      "inputs": [
        {
          "internalType": "enum Roles.Role",
          "name": "role",
          "type": "uint8"
        },
        {
          "internalType": "address",
          "name": "user",
          "type": "address"
        },
        {
          "internalType": "uint256",
          "name": "id",
          "type": "uint256"
        }
      ],
      "name": "hasRole",
      "outputs": [
        {
          "internalType": "bool",
          "name": "has",
          "type": "bool"
        }
      ],
      "stateMutability": "view",
      "type": "function"
    },
    {
      "inputs": [
        {
          "internalType": "enum Roles.Role",
          "name": "role",
          "type": "uint8"
        },
        {
          "internalType": "uint256",
          "name": "id",
          "type": "uint256"
        }
      ],
      "name": "hasRole",
      "outputs": [
        {
          "internalType": "bool",
          "name": "has",
          "type": "bool"
        }
      ],
      "stateMutability": "view",
      "type": "function"
    },
    {
      "inputs": [
        {
          "internalType": "enum Roles.Role",
          "name": "role",
          "type": "uint8"
        },
        {
          "internalType": "address",
          "name": "user",
          "type": "address"
        }
      ],
      "name": "hasRole",
      "outputs": [
        {
          "internalType": "bool",
          "name": "has",
          "type": "bool"
        }
      ],
      "stateMutability": "view",
      "type": "function"
    },
    {
      "inputs": [
        {
          "internalType": "string",
          "name": "_name",
          "type": "string"
        },
        {
          "internalType": "string",
          "name": "_symbol",
          "type": "string"
        }
      ],
      "name": "initialize",
      "outputs": [],
      "stateMutability": "nonpayable",
      "type": "function"
    },
    {
      "inputs": [
        {
          "internalType": "uint256",
          "name": "",
          "type": "uint256"
        }
      ],
      "name": "intValues",
      "outputs": [
        {
          "internalType": "int256",
          "name": "",
          "type": "int256"
        }
      ],
      "stateMutability": "view",
      "type": "function"
    },
    {
      "inputs": [
        {
          "internalType": "address",
          "name": "account",
          "type": "address"
        },
        {
          "internalType": "address",
          "name": "operator",
          "type": "address"
        }
      ],
      "name": "isApprovedForAll",
      "outputs": [
        {
          "internalType": "bool",
          "name": "",
          "type": "bool"
        }
      ],
      "stateMutability": "view",
      "type": "function"
    },
    {
      "inputs": [
        {
          "internalType": "uint256",
          "name": "tokenId",
          "type": "uint256"
        }
      ],
      "name": "isSuper",
      "outputs": [
        {
          "internalType": "bool",
          "name": "superuser",
          "type": "bool"
        }
      ],
      "stateMutability": "view",
      "type": "function"
    },
    {
      "inputs": [
        {
          "internalType": "address",
          "name": "user",
          "type": "address"
        },
        {
          "internalType": "uint256",
          "name": "tokenId",
          "type": "uint256"
        }
      ],
      "name": "isSuper",
      "outputs": [
        {
          "internalType": "bool",
          "name": "superuser",
          "type": "bool"
        }
      ],
      "stateMutability": "view",
      "type": "function"
    },
    {
      "inputs": [
        {
          "internalType": "address",
          "name": "user",
          "type": "address"
        }
      ],
      "name": "isSuper",
      "outputs": [
        {
          "internalType": "bool",
          "name": "superuser",
          "type": "bool"
        }
      ],
      "stateMutability": "view",
      "type": "function"
    },
    {
      "inputs": [],
      "name": "isSuper",
      "outputs": [
        {
          "internalType": "bool",
          "name": "superuser",
          "type": "bool"
        }
      ],
      "stateMutability": "view",
      "type": "function"
    },
    {
      "inputs": [
        {
          "internalType": "address[]",
          "name": "to",
          "type": "address[]"
        },
        {
          "internalType": "uint256",
          "name": "id",
          "type": "uint256"
        },
        {
          "internalType": "bytes",
          "name": "data",
          "type": "bytes"
        }
      ],
      "name": "mint",
      "outputs": [],
      "stateMutability": "nonpayable",
      "type": "function"
    },
    {
      "inputs": [
        {
          "internalType": "address",
          "name": "recipient",
          "type": "address"
        },
        {
          "internalType": "uint256",
          "name": "id",
          "type": "uint256"
        },
        {
          "internalType": "uint256",
          "name": "amount",
          "type": "uint256"
        },
        {
          "internalType": "bytes",
          "name": "data",
          "type": "bytes"
        }
      ],
      "name": "mint",
      "outputs": [
        {
          "internalType": "bool",
          "name": "minted",
          "type": "bool"
        }
      ],
      "stateMutability": "nonpayable",
      "type": "function"
    },
    {
      "inputs": [],
      "name": "name",
      "outputs": [
        {
          "internalType": "string",
          "name": "",
          "type": "string"
        }
      ],
      "stateMutability": "view",
      "type": "function"
    },
    {
      "inputs": [],
      "name": "owner",
      "outputs": [
        {
          "internalType": "address",
          "name": "",
          "type": "address"
        }
      ],
      "stateMutability": "view",
      "type": "function"
    },
    {
      "inputs": [],
      "name": "proxiableUUID",
      "outputs": [
        {
          "internalType": "bytes32",
          "name": "",
          "type": "bytes32"
        }
      ],
      "stateMutability": "view",
      "type": "function"
    },
    {
      "inputs": [],
      "name": "renounceOwnership",
      "outputs": [],
      "stateMutability": "nonpayable",
      "type": "function"
    },
    {
      "inputs": [
        {
          "internalType": "enum Roles.Role",
          "name": "role",
          "type": "uint8"
        }
      ],
      "name": "roleToken",
      "outputs": [
        {
          "internalType": "uint256",
          "name": "id",
          "type": "uint256"
        }
      ],
      "stateMutability": "view",
      "type": "function"
    },
    {
      "inputs": [
        {
          "internalType": "enum Roles.Role",
          "name": "role",
          "type": "uint8"
        },
        {
          "internalType": "uint256",
          "name": "index",
          "type": "uint256"
        }
      ],
      "name": "roleToken",
      "outputs": [
        {
          "internalType": "uint256",
          "name": "id",
          "type": "uint256"
        }
      ],
      "stateMutability": "view",
      "type": "function"
    },
    {
      "inputs": [
        {
          "internalType": "address",
          "name": "from",
          "type": "address"
        },
        {
          "internalType": "address",
          "name": "to",
          "type": "address"
        },
        {
          "internalType": "uint256[]",
          "name": "ids",
          "type": "uint256[]"
        },
        {
          "internalType": "uint256[]",
          "name": "amounts",
          "type": "uint256[]"
        },
        {
          "internalType": "bytes",
          "name": "data",
          "type": "bytes"
        }
      ],
      "name": "safeBatchTransferFrom",
      "outputs": [],
      "stateMutability": "nonpayable",
      "type": "function"
    },
    {
      "inputs": [
        {
          "internalType": "address",
          "name": "from",
          "type": "address"
        },
        {
          "internalType": "address",
          "name": "to",
          "type": "address"
        },
        {
          "internalType": "uint256",
          "name": "id",
          "type": "uint256"
        },
        {
          "internalType": "uint256",
          "name": "amount",
          "type": "uint256"
        },
        {
          "internalType": "bytes",
          "name": "data",
          "type": "bytes"
        }
      ],
      "name": "safeTransferFrom",
      "outputs": [],
      "stateMutability": "nonpayable",
      "type": "function"
    },
    {
      "inputs": [
        {
          "internalType": "address",
          "name": "operator",
          "type": "address"
        },
        {
          "internalType": "bool",
          "name": "approved",
          "type": "bool"
        }
      ],
      "name": "setApprovalForAll",
      "outputs": [],
      "stateMutability": "nonpayable",
      "type": "function"
    },
    {
      "inputs": [
        {
          "internalType": "string",
          "name": "_name",
          "type": "string"
        },
        {
          "internalType": "string",
          "name": "_symbol",
          "type": "string"
        }
      ],
      "name": "setDescription",
      "outputs": [],
      "stateMutability": "nonpayable",
      "type": "function"
    },
    {
      "inputs": [
        {
          "internalType": "uint256",
          "name": "id",
          "type": "uint256"
        },
        {
          "internalType": "int64",
          "name": "max",
          "type": "int64"
        }
      ],
      "name": "setMax",
      "outputs": [],
      "stateMutability": "nonpayable",
      "type": "function"
    },
    {
      "inputs": [
        {
          "internalType": "uint256",
          "name": "id",
          "type": "uint256"
        },
        {
          "internalType": "int64",
          "name": "max",
          "type": "int64"
        }
      ],
      "name": "setPerUserMax",
      "outputs": [],
      "stateMutability": "nonpayable",
      "type": "function"
    },
    {
      "inputs": [
        {
          "internalType": "uint256",
          "name": "id",
          "type": "uint256"
        },
        {
          "internalType": "string",
          "name": "newURI",
          "type": "string"
        }
      ],
      "name": "setURI",
      "outputs": [],
      "stateMutability": "nonpayable",
      "type": "function"
    },
    {
      "inputs": [
        {
          "internalType": "bytes4",
          "name": "interfaceId",
          "type": "bytes4"
        }
      ],
      "name": "supportsInterface",
      "outputs": [
        {
          "internalType": "bool",
          "name": "",
          "type": "bool"
        }
      ],
      "stateMutability": "view",
      "type": "function"
    },
    {
      "inputs": [],
      "name": "symbol",
      "outputs": [
        {
          "internalType": "string",
          "name": "",
          "type": "string"
        }
      ],
      "stateMutability": "view",
      "type": "function"
    },
    {
      "inputs": [
        {
          "internalType": "uint256",
          "name": "index",
          "type": "uint256"
        }
      ],
      "name": "tokenByIndex",
      "outputs": [
        {
          "internalType": "uint256",
          "name": "id",
          "type": "uint256"
        }
      ],
      "stateMutability": "view",
      "type": "function"
    },
    {
      "inputs": [
        {
          "internalType": "uint256",
          "name": "id",
          "type": "uint256"
        }
      ],
      "name": "tokenIndex",
      "outputs": [
        {
          "internalType": "uint256",
          "name": "index",
          "type": "uint256"
        }
      ],
      "stateMutability": "view",
      "type": "function"
    },
    {
      "inputs": [
        {
          "internalType": "address",
          "name": "owner",
          "type": "address"
        },
        {
          "internalType": "uint256",
          "name": "index",
          "type": "uint256"
        }
      ],
      "name": "tokenOfOwnerByIndex",
      "outputs": [
        {
          "internalType": "uint256",
          "name": "id",
          "type": "uint256"
        }
      ],
      "stateMutability": "view",
      "type": "function"
    },
    {
      "inputs": [
        {
          "internalType": "uint256",
          "name": "id",
          "type": "uint256"
        }
      ],
      "name": "totalSupply",
      "outputs": [
        {
          "internalType": "uint256",
          "name": "",
          "type": "uint256"
        }
      ],
      "stateMutability": "view",
      "type": "function"
    },
    {
      "inputs": [
        {
          "internalType": "address",
          "name": "newOwner",
          "type": "address"
        }
      ],
      "name": "transferOwnership",
      "outputs": [],
      "stateMutability": "nonpayable",
      "type": "function"
    },
    {
      "inputs": [],
      "name": "typeSupply",
      "outputs": [
        {
          "internalType": "uint256",
          "name": "count",
          "type": "uint256"
        }
      ],
      "stateMutability": "view",
      "type": "function"
    },
    {
      "inputs": [
        {
          "internalType": "uint256",
          "name": "",
          "type": "uint256"
        }
      ],
      "name": "uintValues",
      "outputs": [
        {
          "internalType": "uint256",
          "name": "",
          "type": "uint256"
        }
      ],
      "stateMutability": "view",
      "type": "function"
    },
    {
      "inputs": [
        {
          "internalType": "address",
          "name": "newImplementation",
          "type": "address"
        }
      ],
      "name": "upgradeTo",
      "outputs": [],
      "stateMutability": "nonpayable",
      "type": "function"
    },
    {
      "inputs": [
        {
          "internalType": "address",
          "name": "newImplementation",
          "type": "address"
        },
        {
          "internalType": "bytes",
          "name": "data",
          "type": "bytes"
        }
      ],
      "name": "upgradeToAndCall",
      "outputs": [],
      "stateMutability": "payable",
      "type": "function"
    },
    {
      "inputs": [
        {
          "internalType": "uint256",
          "name": "id",
          "type": "uint256"
        }
      ],
      "name": "uri",
      "outputs": [
        {
          "internalType": "string",
          "name": "metadata",
          "type": "string"
        }
      ],
      "stateMutability": "view",
      "type": "function"
    }
  ],
  "bytecode": "0x60a06040523060601b6080523480156200001857600080fd5b50600054610100900460ff16158080156200003a5750600054600160ff909116105b806200006a575062000057306200014460201b620024b01760201c565b1580156200006a575060005460ff166001145b620000d25760405162461bcd60e51b815260206004820152602e60248201527f496e697469616c697a61626c653a20636f6e747261637420697320616c72656160448201526d191e481a5b9a5d1a585b1a5e995960921b606482015260840160405180910390fd5b6000805460ff191660011790558015620000f6576000805461ff0019166101001790555b80156200013d576000805461ff0019169055604051600181527f7f26b83ff96e1f2b6a682f133852f6798a09c465da95921460cefb38474024989060200160405180910390a15b5062000153565b6001600160a01b03163b151590565b60805160601c6158f76200018e600039600081816114140152818161145401528181611994015281816119d40152611b1b01526158f76000f3fe6080604052600436106102645760003560e01c8062fdd58e1461026957806301ffc9a71461029c5780630583e9f8146102cc57806306fdde03146102ec5780630e89341c1461030e5780630ec0370f1461032e5780631130d4a11461035057806311ef04c41461037057806314c464271461039057806316730ab0146103b057806319e0755c146103d05780631da345ae146103f05780632eb2c2d6146104105780632f745c59146104305780633659cfe6146104505780633dbe35de146104705780634468031f1461049057806348289589146104b05780634a80070f146104d05780634cd88b76146104f05780634e1273f4146105105780634f1ef2861461053d5780634f558e79146105505780634f6ccce71461057057806352d1902d14610590578063573b9d31146105a55780635d5664e1146105c55780636755d456146105e55780636b20c45414610605578063715018a614610625578063731133e91461063a5780637b59c72a1461065a578063862440e21461067a5780638da5cb5b1461069a57806395d89b41146106c75780639d969a9c146106dc5780639e97b8f6146106f1578063a22cb46514610711578063aa8e906614610731578063b0bdf26114610751578063b383489a14610771578063ba26d0b71461079f578063bd85b039146107bf578063c3c8df99146107df578063c4096525146107ff578063d945e78b1461081f578063e688f89d1461084d578063e985e9c514610880578063edc79bac146108c9578063efc81a8c146108de578063f242432a146108f3578063f2fde38b14610913578063f5298aca14610933578063fde4047a14610953575b600080fd5b34801561027557600080fd5b50610289610284366004614aea565b610973565b6040519081526020015b60405180910390f35b3480156102a857600080fd5b506102bc6102b7366004614cc6565b610a0e565b6040519015158152602001610293565b3480156102d857600080fd5b506102896102e7366004614e7f565b610a5e565b3480156102f857600080fd5b50610301610acc565b6040516102939190615126565b34801561031a57600080fd5b50610301610329366004614e7f565b610b5b565b34801561033a57600080fd5b5061034e610349366004614bf9565b610e7a565b005b34801561035c57600080fd5b5061034e61036b366004614e97565b610ed1565b34801561037c57600080fd5b5061034e61038b366004614e97565b610f16565b34801561039c57600080fd5b506102896103ab366004614cfe565b610f26565b3480156103bc57600080fd5b506102896103cb366004614d75565b610f33565b3480156103dc57600080fd5b506102bc6103eb366004614cfe565b611321565b3480156103fc57600080fd5b506102bc61040b366004614e7f565b61132d565b34801561041c57600080fd5b5061034e61042b366004614899565b611339565b34801561043c57600080fd5b5061028961044b366004614aea565b611385565b34801561045c57600080fd5b5061034e61046b36600461484d565b611409565b34801561047c57600080fd5b5061028961048b366004614dfc565b6114d2565b34801561049c57600080fd5b506102bc6104ab366004614d75565b611649565b3480156104bc57600080fd5b506102bc6104cb366004614dfc565b611670565b3480156104dc57600080fd5b506102896104eb366004614c58565b61167d565b3480156104fc57600080fd5b5061034e61050b366004614e17565b61168a565b34801561051c57600080fd5b5061053061052b366004614ba3565b611828565b60405161029391906150bf565b61034e61054b366004614a9f565b611989565b34801561055c57600080fd5b506102bc61056b366004614e7f565b611a3f565b34801561057c57600080fd5b5061028961058b366004614e7f565b611a52565b34801561059c57600080fd5b50610289611b0e565b3480156105b157600080fd5b5061034e6105c0366004614db0565b611bbd565b3480156105d157600080fd5b5061034e6105e0366004614d18565b611be1565b3480156105f157600080fd5b5061034e610600366004614e17565b611bee565b34801561061157600080fd5b5061034e610620366004614a10565b611c11565b34801561063157600080fd5b5061034e611c59565b34801561064657600080fd5b506102bc610655366004614b45565b611c6d565b34801561066657600080fd5b5061034e610675366004614d33565b611e75565b34801561068657600080fd5b5061034e610695366004614ecb565b611e82565b3480156106a657600080fd5b506106af611f5f565b6040516001600160a01b039091168152602001610293565b3480156106d357600080fd5b50610301611f6e565b3480156106e857600080fd5b50610289611f7c565b3480156106fd57600080fd5b506102bc61070c366004614d18565b611f94565b34801561071d57600080fd5b5061034e61072c366004614a76565b611fa2565b34801561073d57600080fd5b5061034e61074c366004614d75565b611fad565b34801561075d57600080fd5b5061028961076c3660046149a0565b611fba565b34801561077d57600080fd5b5061028961078c366004614e7f565b6101976020526000908152604090205481565b3480156107ab57600080fd5b506102bc6107ba366004614aea565b612226565b3480156107cb57600080fd5b506102896107da366004614e7f565b61225d565b3480156107eb57600080fd5b506102bc6107fa36600461484d565b61226f565b34801561080b57600080fd5b5061028961081a366004614e7f565b61227c565b34801561082b57600080fd5b5061028961083a366004614e7f565b6101986020526000908152604090205481565b34801561085957600080fd5b5061086d610868366004614e7f565b6122bd565b60405160079190910b8152602001610293565b34801561088c57600080fd5b506102bc61089b366004614867565b6001600160a01b03918216600090815260666020908152604080832093909416825291909152205460ff1690565b3480156108d557600080fd5b506102bc6122d1565b3480156108ea57600080fd5b506102896122de565b3480156108ff57600080fd5b5061034e61090e36600461493e565b6122ff565b34801561091f57600080fd5b5061034e61092e36600461484d565b612344565b34801561093f57600080fd5b5061034e61094e366004614b13565b6123ba565b34801561095f57600080fd5b5061034e61096e366004614dfc565b612445565b60006001600160a01b0383166109e35760405162461bcd60e51b815260206004820152602a60248201527f455243313135353a2061646472657373207a65726f206973206e6f742061207660448201526930b634b21037bbb732b960b11b60648201526084015b60405180910390fd5b5060008181526065602090815260408083206001600160a01b03861684529091529020545b92915050565b60006001600160e01b03198216636cdb3d1360e11b1480610a3f57506001600160e01b031982166303a24d0760e21b145b80610a0857506301ffc9a760e01b6001600160e01b0319831614610a08565b6000818152610195602052604090205480610ac75760405162461bcd60e51b815260206004820152602360248201527f5468652072657175657374656420746f6b656e20646f6573206e6f742065786960448201526239ba1760e91b60648201526084016109da565b919050565b6101918054610ada90615652565b80601f0160208091040260200160405190810160405280929190818152602001828054610b0690615652565b8015610b535780601f10610b2857610100808354040283529160200191610b53565b820191906000526020600020905b815481529060010190602001808311610b3657829003601f168201915b505050505081565b600081815261019360205260409020805460609190610b7990615652565b80601f0160208091040260200160405190810160405280929190818152602001828054610ba590615652565b8015610bf25780601f10610bc757610100808354040283529160200191610bf2565b820191906000526020600020905b815481529060010190602001808311610bd557829003601f168201915b50505050509050805160001415610ac75760006008610c14600d6101006155c9565b610c1e9190615603565b60ff166001610c2f6008600261551e565b610c3991906155ec565b901b831690506008610c4e600d6101006155c9565b610c589190615603565b60ff166001901b811480610cad57506008610c76600d6101006155c9565b610c809190615603565b600a60ff919091161b6008610c98600d6101006155c9565b610ca29190615603565b60ff166001901b1781145b15610e745760006008610cc3600d6101006155c9565b610ccd9190615603565b600160ff919091161b6008610ce5600d6101006155c9565b610cef9190615603565b60ff166001610d006008600261551e565b610d0a91906155ec565b901b19600160088160038083610d23600d6101006155c9565b610d2d9190615603565b610d379190615603565b610d419190615603565b610d4b9190615603565b610d559190615603565b610d5f9190615603565b60ff166001610d6f81600261551e565b610d7991906155ec565b901b6003806008610d8d600d6101006155c9565b610d979190615603565b610da19190615603565b610dab9190615603565b60ff166001901b1719600160206002610dc4919061551e565b610dce91906155ec565b198716161617600081815261019360205260409020805491925090610df290615652565b80601f0160208091040260200160405190810160405280929190818152602001828054610e1e90615652565b8015610e6b5780601f10610e4057610100808354040283529160200191610e6b565b820191906000526020600020905b815481529060010190602001808311610e4e57829003601f168201915b50505050509250505b50919050565b60005b8351811015610ecb57610eba848281518110610ea957634e487b7160e01b600052603260045260246000fd5b602002602001015184600185611c6d565b50610ec4816156b3565b9050610e7d565b50505050565b600082604051602001610ee49190614f96565b60408051601f1981840301815291815281516020928301206000908152610198909252902060079290920b9091555050565b610f22828260006124bf565b5050565b6000610a088260006114d2565b600080610f3f85610f26565b90506000836008610f53600d6101006155c9565b610f5d9190615603565b600a60ff919091161b8317176000818152610195602052604090205490915015610f8a57915061131a9050565b6000604051806101000160405280866001600860016003806008600d60ff16610100610fb691906155c9565b610fc09190615603565b610fca9190615603565b610fd49190615603565b610fde9190615603565b610fe89190615603565b610ff29190615603565b60ff16600161100281600261551e565b61100c91906155ec565b901b6003806008611020600d6101006155c9565b61102a9190615603565b6110349190615603565b61103e9190615603565b600160ff919091161b871717178152602001866003806008611063600d6101006155c9565b61106d9190615603565b6110779190615603565b6110819190615603565b60ff166001901b86171781526020016001600860016003806008600d60ff166101006110ad91906155c9565b6110b79190615603565b6110c19190615603565b6110cb9190615603565b6110d59190615603565b6110df9190615603565b6110e99190615603565b60ff1660016110f981600261551e565b61110391906155ec565b901b6003806008611117600d6101006155c9565b6111219190615603565b61112b9190615603565b6111359190615603565b600160ff919091161b86171781526020016003806008611158600d6101006155c9565b6111629190615603565b61116c9190615603565b6111769190615603565b60ff166001901b85178152602001866001600860016003806008600d60ff166101006111a291906155c9565b6111ac9190615603565b6111b69190615603565b6111c09190615603565b6111ca9190615603565b6111d49190615603565b6111de9190615603565b60ff1660016111ee81600261551e565b6111f891906155ec565b901b8617178152602001600160088160038083611218600d6101006155c9565b6112229190615603565b61122c9190615603565b6112369190615603565b6112409190615603565b61124a9190615603565b6112549190615603565b60ff16600161126481600261551e565b61126e91906155ec565b901b851781528685176020820152604001849052905060005b60088160ff1610156113115760006112c688848460ff16600881106112bc57634e487b7160e01b600052603260045260246000fd5b6020020151610973565b11156112ff57818160ff16600881106112ef57634e487b7160e01b600052603260045260246000fd5b602002015194505050505061131a565b80611309816156ce565b915050611287565b50600093505050505b9392505050565b6000610a088233611f94565b6000610a083383612226565b6001600160a01b0385163314806113555750611355853361089b565b6113715760405162461bcd60e51b81526004016109da90615139565b61137e858585858561258a565b5050505050565b6001600160a01b0382166000908152610196602052604081205482106113bd5760405162461bcd60e51b81526004016109da9061535a565b6001600160a01b0383166000908152610196602052604090208054839081106113f657634e487b7160e01b600052603260045260246000fd5b9060005260206000200154905092915050565b306001600160a01b037f00000000000000000000000000000000000000000000000000000000000000001614156114525760405162461bcd60e51b81526004016109da90615214565b7f00000000000000000000000000000000000000000000000000000000000000006001600160a01b0316611484612741565b6001600160a01b0316146114aa5760405162461bcd60e51b81526004016109da9061524e565b6114b38161275d565b604080516000808252602082019092526114cf918391906127e3565b50565b60006114e06020600261551e565b82106114ec602061295d565b6040516020016114fc9190614fcd565b604051602081830303815290604052906115295760405162461bcd60e51b81526004016109da9190615126565b5081600184600c81111561154d57634e487b7160e01b600052602160045260246000fd5b146115595760006115b2565b6001600380600861156d600d6101006155c9565b6115779190615603565b6115819190615603565b61158b9190615603565b6115959190615603565b60ff1660016115a581600261551e565b6115af91906155ec565b901b5b60086001600380836115c7600d6101006155c9565b6115d19190615603565b6115db9190615603565b6115e59190615603565b6115ef9190615603565b6115f99190615603565b60ff1685600c81111561161c57634e487b7160e01b600052602160045260246000fd5b901b600861162d600d6101006155c9565b6116379190615603565b60ff166001901b171717905092915050565b600081815261019560205260408120546116669085908590610f33565b1515949350505050565b600061131a833384611649565b600061131a338484611fba565b600054610100900460ff16158080156116aa5750600054600160ff909116105b806116cb57506116b9306124b0565b1580156116cb575060005460ff166001145b61172e5760405162461bcd60e51b815260206004820152602e60248201527f496e697469616c697a61626c653a20636f6e747261637420697320616c72656160448201526d191e481a5b9a5d1a585b1a5e995960921b60648201526084016109da565b6000805460ff191660011790558015611751576000805461ff0019166101001790555b611759612a76565b6117976040518060400160405280602081526020017f4572726f723a2053696e676c6520546f6b656e20555249204e6f742055736564815250612aa5565b61179f612ad5565b6117a7612ad5565b6117af612ad5565b6101948054600181018255600091825260008051602061583b83398151915201556117dc85858585611bee565b801561137e576000805461ff0019169055604051600181527f7f26b83ff96e1f2b6a682f133852f6798a09c465da95921460cefb38474024989060200160405180910390a15050505050565b6060815183511461188d5760405162461bcd60e51b815260206004820152602960248201527f455243313135353a206163636f756e747320616e6420696473206c656e677468604482015268040dad2e6dac2e8c6d60bb1b60648201526084016109da565b600083516001600160401b038111156118b657634e487b7160e01b600052604160045260246000fd5b6040519080825280602002602001820160405280156118df578160200160208202803683370190505b50905060005b84518110156119815761194685828151811061191157634e487b7160e01b600052603260045260246000fd5b602002602001015185838151811061193957634e487b7160e01b600052603260045260246000fd5b6020026020010151610973565b82828151811061196657634e487b7160e01b600052603260045260246000fd5b602090810291909101015261197a816156b3565b90506118e5565b509392505050565b306001600160a01b037f00000000000000000000000000000000000000000000000000000000000000001614156119d25760405162461bcd60e51b81526004016109da90615214565b7f00000000000000000000000000000000000000000000000000000000000000006001600160a01b0316611a04612741565b6001600160a01b031614611a2a5760405162461bcd60e51b81526004016109da9061524e565b611a338261275d565b610f22828260016127e3565b600080611a4b8361225d565b1192915050565b6000808211611ab65760405162461bcd60e51b815260206004820152602a60248201527f4552432d3131353520456e756d657261626c653a20746f6b656e7320696e64656044820152697865642066726f6d203160b01b60648201526084016109da565b61019454821115611ad95760405162461bcd60e51b81526004016109da9061535a565b610194805483908110611afc57634e487b7160e01b600052603260045260246000fd5b90600052602060002001549050919050565b6000306001600160a01b037f00000000000000000000000000000000000000000000000000000000000000001614611ba95760405162461bcd60e51b815260206004820152603860248201527f555550535570677261646561626c653a206d757374206e6f742062652063616c6044820152771b1959081d1a1c9bdd59da0819195b1959d85d1958d85b1b60421b60648201526084016109da565b5060008051602061587b8339815191525b90565b610ecb84848415611bd657611bd185610a5e565b611bd9565b60005b846000612afc565b610f228282600080611bbd565b611bf6612d78565b611c036101918585614506565b5061137e6101928383614506565b6001600160a01b038316331480611c2d5750611c2d833361089b565b611c495760405162461bcd60e51b81526004016109da90615139565b611c54838383612dd7565b505050565b611c61612d78565b611c6b6000612f80565b565b6000600160088160038083611c85600d6101006155c9565b611c8f9190615603565b611c999190615603565b611ca39190615603565b611cad9190615603565b611cb79190615603565b611cc19190615603565b60ff166001611cd181600261551e565b611cdb91906155ec565b901b600160088160038083611cf3600d6101006155c9565b611cfd9190615603565b611d079190615603565b611d119190615603565b611d1b9190615603565b611d259190615603565b611d2f9190615603565b60ff166001611d3f81600261551e565b611d4991906155ec565b901b85161415611dad5760405162461bcd60e51b815260206004820152602960248201527f43616e6e6f74206d696e7420696e7465726e616c20746f6b656e732066726f6d6044820152681037baba39b4b2329760b91b60648201526084016109da565b60016003806008611dc1600d6101006155c9565b611dcb9190615603565b611dd59190615603565b611ddf9190615603565b611de99190615603565b60ff166001901b60016003806008600d60ff16610100611e0991906155c9565b611e139190615603565b611e1d9190615603565b611e279190615603565b611e319190615603565b60ff166001901b8516148015611e5057506000611e4e8686610973565b115b15611e5d57506000611e6d565b611e6985858585612fd2565b5060015b949350505050565b611c548383600084611bbd565b611e8d600584611670565b80611e9c5750611e9c8361132d565b611f055760405162461bcd60e51b815260206004820152603460248201527f596f75206d7573742068617665206120436f6e6669677572657220746f6b656e604482015273103a379031b430b733b29036b2ba30b230ba309760611b60648201526084016109da565b600083815261019360205260409020611f1f908383614506565b50827f6bb7ff708619ba0610cba295a58592e0451dee2622938c8755667688daf3529b8383604051611f529291906150f7565b60405180910390a2505050565b6097546001600160a01b031690565b6101928054610ada90615652565b61019454600090611f8f906001906155ec565b905090565b600061131a83836000611649565b610f223383836130e5565b611c548383836000611bbd565b61019454600090806008611fd1600d6101006155c9565b611fdb9190615603565b60ff166009901b179150611ff0600783611670565b80611fff5750611fff8261132d565b6120675760405162461bcd60e51b815260206004820152603360248201527f596f75206d757374206861766520612043726561746f7220746f6b656e20746f6044820152721031b932b0ba32903732bb903a37b5b2b7399760691b60648201526084016109da565b61019480546001810190915560008051602061583b833981519152018290556000828152610195602052604081208290555b84518110156120ea576120d88582815181106120c557634e487b7160e01b600052603260045260246000fd5b6020026020010151878460006001612afc565b806120e2816156b3565b915050612099565b5060005b835181101561213a5761212884828151811061211a57634e487b7160e01b600052603260045260246000fd5b602002602001015183612445565b80612132816156b3565b9150506120ee565b50612146826001610ed1565b604080518381526001600160a01b03871660208201527f7757890bcab34d673dfca6b71df1b57f75a2fe4231d6e8de726caf534ab1fdd6910160405180910390a160006121966007336000610f33565b905060038060086121aa600d6101006155c9565b6121b49190615603565b6121be9190615603565b6121c89190615603565b600160ff919091161b60038060086121e3600d6101006155c9565b6121ed9190615603565b6121f79190615603565b6122019190615603565b60ff166001901b8216141561221d5761221d335b8260016131c6565b50509392505050565b600061223460018484611649565b8061131a5750612242611f5f565b6001600160a01b0316836001600160a01b0316149392505050565b600090815260fb602052604090205490565b6000610a08826000612226565b600080826040516020016122909190614f96565b60408051601f19818403018152918152815160209283012060009081526101989092529020549392505050565b600080826040516020016122909190614fb6565b6000611f8f336000612226565b604080516000808252602082019092526122f9338283611fba565b91505090565b6001600160a01b03851633148061231b575061231b853361089b565b6123375760405162461bcd60e51b81526004016109da90615139565b61137e85858585856132d0565b61234c612d78565b6001600160a01b0381166123b15760405162461bcd60e51b815260206004820152602660248201527f4f776e61626c653a206e6577206f776e657220697320746865207a65726f206160448201526564647265737360d01b60648201526084016109da565b6114cf81612f80565b6123c660098484611649565b806123d657506123d68383612226565b61243a5760405162461bcd60e51b815260206004820152602f60248201527f596f75206d75737420686176652061204275726e657220746f6b656e20746f2060448201526e3232b9ba3937bc903a37b5b2b7399760891b60648201526084016109da565b611c548383836131c6565b600061245183836114d2565b90506008612462600d6101006155c9565b61246c9190615603565b610194805460018101909155600a60ff929092169190911b9190911760008051602061583b8339815191528201819055600090815261019560205260409020555050565b6001600160a01b03163b151590565b80612544576124cf600884611670565b806124de57506124de8361132d565b6125445760405162461bcd60e51b815260206004820152603160248201527f596f75206d75737420686176652061204c696d6974657220746f6b656e20746f6044820152701031b430b733b29038bab0b73a34ba3c9760791b60648201526084016109da565b6000836040516020016125579190614fb6565b60408051601f1981840301815291815281516020928301206000908152610198909252902060079390930b909255505050565b81518351146125ab5760405162461bcd60e51b81526004016109da906153f3565b6001600160a01b0384166125d15760405162461bcd60e51b81526004016109da90615288565b336125e08187878787876133fa565b60005b84518110156126e557600085828151811061260e57634e487b7160e01b600052603260045260246000fd5b60200260200101519050600085838151811061263a57634e487b7160e01b600052603260045260246000fd5b60209081029190910181015160008481526065835260408082206001600160a01b038e16835290935291909120549091508181101561268b5760405162461bcd60e51b81526004016109da90615310565b60008381526065602090815260408083206001600160a01b038e8116855292528083208585039055908b168252812080548492906126ca9084906154af565b92505081905550505050806126de906156b3565b90506125e3565b50846001600160a01b0316866001600160a01b0316826001600160a01b03166000805160206157fb83398151915287876040516127239291906150d2565b60405180910390a4612739818787878787613e1c565b505050505050565b60008051602061587b833981519152546001600160a01b031690565b6127676006611321565b8061277557506127756122d1565b6114cf5760405162461bcd60e51b815260206004820152603960248201527f596f75206d75737420686176652061204d61696e7461696e657220746f6b656e604482015278103a37903ab833b930b232903a34329031b7b73a3930b1ba1760391b60648201526084016109da565b7f4910fdfa16fed3260ed0e7147f7cc6da11a60208b5b9406d12a635614ffd91435460ff161561281657611c5483613f8e565b826001600160a01b03166352d1902d6040518163ffffffff1660e01b815260040160206040518083038186803b15801561284f57600080fd5b505afa92505050801561287f575060408051601f3d908101601f1916820190925261287c91810190614cae565b60015b6128e25760405162461bcd60e51b815260206004820152602e60248201527f45524331393637557067726164653a206e657720696d706c656d656e7461746960448201526d6f6e206973206e6f74205555505360901b60648201526084016109da565b60008051602061587b83398151915281146129515760405162461bcd60e51b815260206004820152602960248201527f45524331393637557067726164653a20756e737570706f727465642070726f786044820152681a58589b195555525160ba1b60648201526084016109da565b50611c54838383614028565b6060816129815750506040805180820190915260018152600360fc1b602082015290565b8160005b81156129ab5780612995816156b3565b91506129a49050600a836154c7565b9150612985565b6000816001600160401b038111156129d357634e487b7160e01b600052604160045260246000fd5b6040519080825280601f01601f1916602001820160405280156129fd576020820181803683370190505b5090505b8415611e6d57612a126001836155ec565b9150612a1f600a866156ee565b612a2a9060306154af565b60f81b818381518110612a4d57634e487b7160e01b600052603260045260246000fd5b60200101906001600160f81b031916908160001a905350612a6f600a866154c7565b9450612a01565b600054610100900460ff16612a9d5760405162461bcd60e51b81526004016109da906153a8565b611c6b61404d565b600054610100900460ff16612acc5760405162461bcd60e51b81526004016109da906153a8565b6114cf8161407d565b600054610100900460ff16611c6b5760405162461bcd60e51b81526004016109da906153a8565b80612c6e57600185600c811115612b2357634e487b7160e01b600052602160045260246000fd5b1415612bce57612b616101946000018481548110612b5157634e487b7160e01b600052603260045260246000fd5b906000526020600020015461132d565b612bc95760405162461bcd60e51b815260206004820152603360248201527f596f75206d75737420626520612053757065727573657220746f206372656174604482015272329037ba3432b91029bab832b93ab9b2b9399760691b60648201526084016109da565b612c6e565b612bd9600384611670565b80612c075750612c076101946000018481548110612b5157634e487b7160e01b600052603260045260246000fd5b612c6e5760405162461bcd60e51b815260206004820152603260248201527f596f75206d7573742068617665207468652043617374657220726f6c6520746f6044820152711030b9b9b4b3b7103732bb903937b632b99760711b60648201526084016109da565b600082612c7c576000612cb4565b6003806008612c8e600d6101006155c9565b612c989190615603565b612ca29190615603565b612cac9190615603565b60ff166001901b5b82612cc0576000612d2f565b600160088160038083612cd6600d6101006155c9565b612ce09190615603565b612cea9190615603565b612cf49190615603565b612cfe9190615603565b612d089190615603565b612d129190615603565b60ff166001612d2281600261551e565b612d2c91906155ec565b901b5b612d3988876114d2565b17179050612d5c81612d4a836122bd565b612d5590600161545e565b60016124bf565b6127398582600160405180602001604052806000815250612fd2565b33612d81611f5f565b6001600160a01b031614611c6b5760405162461bcd60e51b815260206004820181905260248201527f4f776e61626c653a2063616c6c6572206973206e6f7420746865206f776e657260448201526064016109da565b6001600160a01b038316612dfd5760405162461bcd60e51b81526004016109da906152cd565b8051825114612e1e5760405162461bcd60e51b81526004016109da906153f3565b6000339050612e41818560008686604051806020016040528060008152506133fa565b60005b8351811015612f25576000848281518110612e6f57634e487b7160e01b600052603260045260246000fd5b602002602001015190506000848381518110612e9b57634e487b7160e01b600052603260045260246000fd5b60209081029190910181015160008481526065835260408082206001600160a01b038c168352909352919091205490915081811015612eec5760405162461bcd60e51b81526004016109da906151d0565b60009283526065602090815260408085206001600160a01b038b1686529091529092209103905580612f1d816156b3565b915050612e44565b5060006001600160a01b0316846001600160a01b0316826001600160a01b03166000805160206157fb8339815191528686604051612f649291906150d2565b60405180910390a4604080516020810190915260009052610ecb565b609780546001600160a01b038381166001600160a01b0319831681179093556040519116919082907f8be0079c531659141344cd1fd0a4f28419497f9722a3daafe3b4186f6b6457e090600090a35050565b6001600160a01b0384166130325760405162461bcd60e51b815260206004820152602160248201527f455243313135353a206d696e7420746f20746865207a65726f206164647265736044820152607360f81b60648201526084016109da565b33600061303e856140ad565b9050600061304b856140ad565b905061305c836000898585896133fa565b60008681526065602090815260408083206001600160a01b038b1684529091528120805487929061308e9084906154af565b909155505060408051878152602081018790526001600160a01b03808a16926000929187169160008051602061581b833981519152910160405180910390a46130dc83600089898989614106565b50505050505050565b816001600160a01b0316836001600160a01b031614156131595760405162461bcd60e51b815260206004820152602960248201527f455243313135353a2073657474696e6720617070726f76616c20737461747573604482015268103337b91039b2b63360b91b60648201526084016109da565b6001600160a01b03838116600081815260666020908152604080832094871680845294825291829020805460ff191686151590811790915591519182527f17307eab39ab6107e8899845ad3d59bd9653f200f220920489ca2b5937696c31910160405180910390a3505050565b6001600160a01b0383166131ec5760405162461bcd60e51b81526004016109da906152cd565b3360006131f8846140ad565b90506000613205846140ad565b9050613225838760008585604051806020016040528060008152506133fa565b60008581526065602090815260408083206001600160a01b038a168452909152902054848110156132685760405162461bcd60e51b81526004016109da906151d0565b60008681526065602090815260408083206001600160a01b038b81168086529184528285208a8703905582518b81529384018a905290929088169160008051602061581b833981519152910160405180910390a46040805160208101909152600090526130dc565b6001600160a01b0384166132f65760405162461bcd60e51b81526004016109da90615288565b336000613302856140ad565b9050600061330f856140ad565b905061331f8389898585896133fa565b60008681526065602090815260408083206001600160a01b038c168452909152902054858110156133625760405162461bcd60e51b81526004016109da90615310565b60008781526065602090815260408083206001600160a01b038d8116855292528083208985039055908a168252812080548892906133a19084906154af565b909155505060408051888152602081018890526001600160a01b03808b16928c8216929188169160008051602061581b833981519152910160405180910390a46133ef848a8a8a8a8a614106565b505050505050505050565b60005b8351811015613a535761343684828151811061342957634e487b7160e01b600052603260045260246000fd5b602002602001015161132d565b613a4357600160088160038083613450600d6101006155c9565b61345a9190615603565b6134649190615603565b61346e9190615603565b6134789190615603565b6134829190615603565b61348c9190615603565b60ff16600161349c81600261551e565b6134a691906155ec565b901b6001600881600380836134be600d6101006155c9565b6134c89190615603565b6134d29190615603565b6134dc9190615603565b6134e69190615603565b6134f09190615603565b6134fa9190615603565b60ff16600161350a81600261551e565b61351491906155ec565b901b85838151811061353657634e487b7160e01b600052603260045260246000fd5b60200260200101511614613a435760006001600160a01b0387161561355c57600461355f565b60025b9050600281600c81111561358357634e487b7160e01b600052602160045260246000fd5b14156139a55760006135bb8684815181106135ae57634e487b7160e01b600052603260045260246000fd5b60200260200101516122bd565b60070b905060008112806136305750808584815181106135eb57634e487b7160e01b600052603260045260246000fd5b602002602001015161362388868151811061361657634e487b7160e01b600052603260045260246000fd5b602002602001015161225d565b61362d91906154af565b13155b61367c5760405162461bcd60e51b815260206004820181905260248201527f4d6178696d756d206d696e7420616c6c6f77616e63652065786365656465642e60448201526064016109da565b60006136ae8785815181106136a157634e487b7160e01b600052603260045260246000fd5b602002602001015161227c565b905060008112806137145750808685815181106136db57634e487b7160e01b600052603260045260246000fd5b60200260200101516137078a8a888151811061193957634e487b7160e01b600052603260045260246000fd5b61371191906154af565b13155b61376c5760405162461bcd60e51b8152602060048201526024808201527f4d6178696d756d20706572207573657220616c6c6f77616e63652065786365656044820152633232b21760e11b60648201526084016109da565b600861377b600d6101006155c9565b6137859190615603565b600160ff919091161b600861379d600d6101006155c9565b6137a79190615603565b60ff1660016137b86008600261551e565b6137c291906155ec565b901b8886815181106137e457634e487b7160e01b600052603260045260246000fd5b602002602001015116141561389057613825600388868151811061381857634e487b7160e01b600052603260045260246000fd5b6020026020010151611670565b61388b5760405162461bcd60e51b815260206004820152603160248201527f596f75206d757374206861766520612043617374657220746f6b656e20746f2060448201527036b4b73a103a37b5b2b71033b0ba32b99760791b60648201526084016109da565b61399e565b60006138c784336103cb8b89815181106138ba57634e487b7160e01b600052603260045260246000fd5b6020026020010151610a5e565b90506138ed8489878151811061381857634e487b7160e01b600052603260045260246000fd5b6139525760405162461bcd60e51b815260206004820152603060248201527f596f75206d75737420686176652061204d696e74657220746f6b656e20746f2060448201526f33b2b732b930ba32903a37b5b2b7399760811b60648201526084016109da565b60006003806008613966600d6101006155c9565b6139709190615603565b61397a9190615603565b6139849190615603565b60ff166001901b8216111561399c5761399c33612215565b505b5050613a41565b6001600160a01b03861615613a41576139d88186848151811061381857634e487b7160e01b600052603260045260246000fd5b613a415760405162461bcd60e51b815260206004820152603460248201527f596f75206d75737420686176652061205472616e73666572657220746f6b656e604482015273103a37903a3930b739b332b9103a37b5b2b7399760611b60648201526084016109da565b505b613a4c816156b3565b90506133fd565b506001600160a01b03841615613c7a5760005b8351811015613c78576101946001016000858381518110613a9757634e487b7160e01b600052603260045260246000fd5b602002602001015181526020019081526020016000205460001415613b4357610194600001848281518110613adc57634e487b7160e01b600052603260045260246000fd5b6020908102919091018101518254600181018455600093845291832090910155610194548551909161019591879085908110613b2857634e487b7160e01b600052603260045260246000fd5b60200260200101518152602001908152602001600020819055505b6101966000866001600160a01b03166001600160a01b031681526020019081526020016000206001016000858381518110613b8e57634e487b7160e01b600052603260045260246000fd5b602002602001015181526020019081526020016000205460001415613c68576001600160a01b0385166000908152610196602052604090208451859083908110613be857634e487b7160e01b600052603260045260246000fd5b6020908102919091018101518254600181810185556000948552838520909101919091556001600160a01b0388168352610196909152604082208054875190939190920191879085908110613c4d57634e487b7160e01b600052603260045260246000fd5b60200260200101518152602001908152602001600020819055505b613c71816156b3565b9050613a66565b505b6001600160a01b03851615613e0e5760005b8351811015613e0c57828181518110613cb557634e487b7160e01b600052603260045260246000fd5b6020026020010151613ce18786848151811061193957634e487b7160e01b600052603260045260246000fd5b11613dfc576001600160a01b03861660009081526101966020526040812085516001918201908390889086908110613d2957634e487b7160e01b600052603260045260246000fd5b6020026020010151815260200190815260200160002054613d4a91906155ec565b6001600160a01b03881660009081526101966020526040902080549192509082908110613d8757634e487b7160e01b600052603260045260246000fd5b90600052602060002001600090556101966000886001600160a01b03166001600160a01b031681526020019081526020016000206001016000868481518110613de057634e487b7160e01b600052603260045260246000fd5b6020026020010151815260200190815260200160002060009055505b613e05816156b3565b9050613c8c565b505b6127398686868686866141d7565b613e2e846001600160a01b03166124b0565b156127395760405163bc197c8160e01b81526001600160a01b0385169063bc197c8190613e67908990899088908890889060040161501c565b602060405180830381600087803b158015613e8157600080fd5b505af1925050508015613eb1575060408051601f3d908101601f19168201909252613eae91810190614ce2565b60015b613f5e57613ebd615744565b806308c379a01415613ef75750613ed261575b565b80613edd5750613ef9565b8060405162461bcd60e51b81526004016109da9190615126565b505b60405162461bcd60e51b815260206004820152603460248201527f455243313135353a207472616e7366657220746f206e6f6e20455243313135356044820152732932b1b2b4bb32b91034b6b83632b6b2b73a32b960611b60648201526084016109da565b6001600160e01b0319811663bc197c8160e01b146130dc5760405162461bcd60e51b81526004016109da90615188565b613f97816124b0565b613ff95760405162461bcd60e51b815260206004820152602d60248201527f455243313936373a206e657720696d706c656d656e746174696f6e206973206e60448201526c1bdd08184818dbdb9d1c9858dd609a1b60648201526084016109da565b60008051602061587b83398151915280546001600160a01b0319166001600160a01b0392909216919091179055565b61403183614388565b60008251118061403e5750805b15611c5457610ecb83836143c8565b600054610100900460ff166140745760405162461bcd60e51b81526004016109da906153a8565b611c6b33612f80565b600054610100900460ff166140a45760405162461bcd60e51b81526004016109da906153a8565b6114cf816144ba565b604080516001808252818301909252606091600091906020808301908036833701905050905082816000815181106140f557634e487b7160e01b600052603260045260246000fd5b602090810291909101015292915050565b614118846001600160a01b03166124b0565b156127395760405163f23a6e6160e01b81526001600160a01b0385169063f23a6e6190614151908990899088908890889060040161507a565b602060405180830381600087803b15801561416b57600080fd5b505af192505050801561419b575060408051601f3d908101601f1916820190925261419891810190614ce2565b60015b6141a757613ebd615744565b6001600160e01b0319811663f23a6e6160e01b146130dc5760405162461bcd60e51b81526004016109da90615188565b6001600160a01b03851661427a5760005b83518110156142785782818151811061421157634e487b7160e01b600052603260045260246000fd5b602002602001015160fb600086848151811061423d57634e487b7160e01b600052603260045260246000fd5b60200260200101518152602001908152602001600020600082825461426291906154af565b909155506142719050816156b3565b90506141e8565b505b6001600160a01b0384166127395760005b83518110156130dc5760008482815181106142b657634e487b7160e01b600052603260045260246000fd5b6020026020010151905060008483815181106142e257634e487b7160e01b600052603260045260246000fd5b60200260200101519050600060fb6000848152602001908152602001600020549050818110156143655760405162461bcd60e51b815260206004820152602860248201527f455243313135353a206275726e20616d6f756e74206578636565647320746f74604482015267616c537570706c7960c01b60648201526084016109da565b600092835260fb602052604090922091039055614381816156b3565b905061428b565b61439181613f8e565b6040516001600160a01b038216907fbc7cd75a20ee27fd9adebab32041f755214dbc6bffa90cc0225b39da2e5c2d3b90600090a250565b60606143d3836124b0565b61442e5760405162461bcd60e51b815260206004820152602660248201527f416464726573733a2064656c65676174652063616c6c20746f206e6f6e2d636f6044820152651b9d1c9858dd60d21b60648201526084016109da565b600080846001600160a01b0316846040516144499190614f7a565b600060405180830381855af49150503d8060008114614484576040519150601f19603f3d011682016040523d82523d6000602084013e614489565b606091505b50915091506144b1828260405180606001604052806027815260200161589b602791396144cd565b95945050505050565b8051610f2290606790602084019061458a565b606083156144dc57508161131a565b8251156144ec5782518084602001fd5b8160405162461bcd60e51b81526004016109da9190615126565b82805461451290615652565b90600052602060002090601f016020900481019282614534576000855561457a565b82601f1061454d5782800160ff1982351617855561457a565b8280016001018555821561457a579182015b8281111561457a57823582559160200191906001019061455f565b506145869291506145fe565b5090565b82805461459690615652565b90600052602060002090601f0160209004810192826145b8576000855561457a565b82601f106145d157805160ff191683800117855561457a565b8280016001018555821561457a579182015b8281111561457a5782518255916020019190600101906145e3565b5b8082111561458657600081556001016145ff565b80356001600160a01b0381168114610ac757600080fd5b600082601f83011261463a578081fd5b813560206146478261543b565b6040516146548282615687565b8381528281019150858301600585901b87018401881015614673578586fd5b855b858110156146985761468682614613565b84529284019290840190600101614675565b5090979650505050505050565b600082601f8301126146b5578081fd5b813560206146c28261543b565b6040516146cf8282615687565b8381528281019150858301600585901b870184018810156146ee578586fd5b855b8581101561469857614701826147f8565b845292840192908401906001016146f0565b600082601f830112614723578081fd5b813560206147308261543b565b60405161473d8282615687565b8381528281019150858301600585901b8701840188101561475c578586fd5b855b858110156146985781358452928401929084019060010161475e565b80358015158114610ac757600080fd5b600082601f83011261479a578081fd5b81356001600160401b038111156147b3576147b361572e565b6040516147ca601f8301601f191660200182615687565b8181528460208386010111156147de578283fd5b816020850160208301379081016020019190915292915050565b8035600d8110610ac757600080fd5b60008083601f840112614818578182fd5b5081356001600160401b0381111561482e578182fd5b60208301915083602082850101111561484657600080fd5b9250929050565b60006020828403121561485e578081fd5b61131a82614613565b60008060408385031215614879578081fd5b61488283614613565b915061489060208401614613565b90509250929050565b600080600080600060a086880312156148b0578081fd5b6148b986614613565b94506148c760208701614613565b935060408601356001600160401b03808211156148e2578283fd5b6148ee89838a01614713565b94506060880135915080821115614903578283fd5b61490f89838a01614713565b93506080880135915080821115614924578283fd5b506149318882890161478a565b9150509295509295909350565b600080600080600060a08688031215614955578081fd5b61495e86614613565b945061496c60208701614613565b9350604086013592506060860135915060808601356001600160401b03811115614994578182fd5b6149318882890161478a565b6000806000606084860312156149b4578283fd5b6149bd84614613565b925060208401356001600160401b03808211156149d8578384fd5b6149e4878388016146a5565b935060408601359150808211156149f9578283fd5b50614a06868287016146a5565b9150509250925092565b600080600060608486031215614a24578081fd5b614a2d84614613565b925060208401356001600160401b0380821115614a48578283fd5b614a5487838801614713565b93506040860135915080821115614a69578283fd5b50614a0686828701614713565b60008060408385031215614a88578182fd5b614a9183614613565b91506148906020840161477a565b60008060408385031215614ab1578182fd5b614aba83614613565b915060208301356001600160401b03811115614ad4578182fd5b614ae08582860161478a565b9150509250929050565b60008060408385031215614afc578182fd5b614b0583614613565b946020939093013593505050565b600080600060608486031215614b27578081fd5b614b3084614613565b95602085013595506040909401359392505050565b60008060008060808587031215614b5a578182fd5b614b6385614613565b9350602085013592506040850135915060608501356001600160401b03811115614b8b578182fd5b614b978782880161478a565b91505092959194509250565b60008060408385031215614bb5578182fd5b82356001600160401b0380821115614bcb578384fd5b614bd78683870161462a565b93506020850135915080821115614bec578283fd5b50614ae085828601614713565b600080600060608486031215614c0d578081fd5b83356001600160401b0380821115614c23578283fd5b614c2f8783880161462a565b9450602086013593506040860135915080821115614c4b578283fd5b50614a068682870161478a565b60008060408385031215614c6a578182fd5b82356001600160401b0380821115614c80578384fd5b614c8c868387016146a5565b93506020850135915080821115614ca1578283fd5b50614ae0858286016146a5565b600060208284031215614cbf578081fd5b5051919050565b600060208284031215614cd7578081fd5b813561131a816157e4565b600060208284031215614cf3578081fd5b815161131a816157e4565b600060208284031215614d0f578081fd5b61131a826147f8565b60008060408385031215614d2a578182fd5b614882836147f8565b600080600060608486031215614d47578081fd5b614d50846147f8565b9250614d5e60208501614613565b9150614d6c6040850161477a565b90509250925092565b600080600060608486031215614d89578081fd5b614d92846147f8565b9250614da060208501614613565b9150604084013590509250925092565b60008060008060808587031215614dc5578182fd5b614dce856147f8565b9350614ddc60208601614613565b925060408501359150614df16060860161477a565b905092959194509250565b60008060408385031215614e0e578182fd5b614b05836147f8565b60008060008060408587031215614e2c578182fd5b84356001600160401b0380821115614e42578384fd5b614e4e88838901614807565b90965094506020870135915080821115614e66578384fd5b50614e7387828801614807565b95989497509550505050565b600060208284031215614e90578081fd5b5035919050565b60008060408385031215614ea9578182fd5b8235915060208301358060070b8114614ec0578182fd5b809150509250929050565b600080600060408486031215614edf578081fd5b8335925060208401356001600160401b03811115614efb578182fd5b614f0786828701614807565b9497909650939450505050565b6000815180845260208085019450808401835b83811015614f4357815187529582019590820190600101614f27565b509495945050505050565b60008151808452614f66816020860160208601615626565b601f01601f19169290920160200192915050565b60008251614f8c818460208701615626565b9190910192915050565b6b0e0cae440eae6cae440dac2f60a31b8152600c810191909152602c0190565b620dac2f60eb1b8152600381019190915260230190565b76024b73234b1b2b99031b0b71031329030ba1036b7b9ba1604d1b815260008251614fff816017850160208701615626565b65103134ba399760d11b6017939091019283015250601d01919050565b6001600160a01b0386811682528516602082015260a06040820181905260009061504890830186614f14565b828103606084015261505a8186614f14565b9050828103608084015261506e8185614f4e565b98975050505050505050565b6001600160a01b03868116825285166020820152604081018490526060810183905260a0608082018190526000906150b490830184614f4e565b979650505050505050565b60208152600061131a6020830184614f14565b6040815260006150e56040830185614f14565b82810360208401526144b18185614f14565b60208152816020820152818360408301376000818301604090810191909152601f909201601f19160101919050565b60208152600061131a6020830184614f4e565b6020808252602f908201527f455243313135353a2063616c6c6572206973206e6f7420746f6b656e206f776e60408201526e195c881b9bdc88185c1c1c9bdd9959608a1b606082015260800190565b60208082526028908201527f455243313135353a204552433131353552656365697665722072656a656374656040820152676420746f6b656e7360c01b606082015260800190565b60208082526024908201527f455243313135353a206275726e20616d6f756e7420657863656564732062616c604082015263616e636560e01b606082015260800190565b6020808252602c9082015260008051602061585b83398151915260408201526b19195b1959d85d1958d85b1b60a21b606082015260800190565b6020808252602c9082015260008051602061585b83398151915260408201526b6163746976652070726f787960a01b606082015260800190565b60208082526025908201527f455243313135353a207472616e7366657220746f20746865207a65726f206164604082015264647265737360d81b606082015260800190565b60208082526023908201527f455243313135353a206275726e2066726f6d20746865207a65726f206164647260408201526265737360e81b606082015260800190565b6020808252602a908201527f455243313135353a20696e73756666696369656e742062616c616e636520666f60408201526939103a3930b739b332b960b11b606082015260800190565b6020808252602e908201527f4552432d3131353520456e756d657261626c653a20746f6b656e20696e64657860408201526d206f7574206f6620626f756e647360901b606082015260800190565b6020808252602b908201527f496e697469616c697a61626c653a20636f6e7472616374206973206e6f74206960408201526a6e697469616c697a696e6760a81b606082015260800190565b60208082526028908201527f455243313135353a2069647320616e6420616d6f756e7473206c656e677468206040820152670dad2e6dac2e8c6d60c31b606082015260800190565b60006001600160401b038211156154545761545461572e565b5060051b60200190565b6000600782810b9084900b828212801560016001603f1b038490038313161561548957615489615702565b60016001603f1b031983900382128116156154a6576154a6615702565b50019392505050565b600082198211156154c2576154c2615702565b500190565b6000826154d6576154d6615718565b500490565b600181815b808511156155165781600019048211156154fc576154fc615702565b8085161561550957918102915b93841c93908002906154e0565b509250929050565b600061131a60ff84168360008261553757506001610a08565b8161554457506000610a08565b816001811461555a576002811461556457615580565b6001915050610a08565b60ff84111561557557615575615702565b50506001821b610a08565b5060208310610133831016604e8410600b84101617156155a3575081810a610a08565b6155ad83836154db565b80600019048211156155c1576155c1615702565b029392505050565b600061ffff838116908316818110156155e4576155e4615702565b039392505050565b6000828210156155fe576155fe615702565b500390565b600060ff821660ff84168082101561561d5761561d615702565b90039392505050565b60005b83811015615641578181015183820152602001615629565b83811115610ecb5750506000910152565b600181811c9082168061566657607f821691505b60208210811415610e7457634e487b7160e01b600052602260045260246000fd5b601f8201601f191681016001600160401b03811182821017156156ac576156ac61572e565b6040525050565b60006000198214156156c7576156c7615702565b5060010190565b600060ff821660ff8114156156e5576156e5615702565b60010192915050565b6000826156fd576156fd615718565b500690565b634e487b7160e01b600052601160045260246000fd5b634e487b7160e01b600052601260045260246000fd5b634e487b7160e01b600052604160045260246000fd5b600060033d1115611bba57600481823e5160e01c90565b600060443d10156157695790565b6040516003193d81016004833e81513d6001600160401b03808311602484018310171561579857505050505090565b82850191508151818111156157b05750505050505090565b843d87010160208285010111156157ca5750505050505090565b6157d960208286010187615687565b509095945050505050565b6001600160e01b0319811681146114cf57600080fdfe4a39dc06d4c0dbc64b70af90fd698a233a518aa5d07e595d983b8c0526c8f7fbc3d58168c5ae7397731d063d5bbf3d657854427343f4c083240f7aacaa2d0f62a6f1ac7ad7b125ba5a5e1c96b00ad6914f90a503b1ac3d85a9dadbb4c639df9246756e6374696f6e206d7573742062652063616c6c6564207468726f75676820360894a13ba1a3210667c828492db98dca3e2076cc3735a920a3ca505d382bbc416464726573733a206c6f772d6c6576656c2064656c65676174652063616c6c206661696c6564a2646970667358221220356ead5469a214aa1f45a85636768c0b73c48b88489fe33c8f30b7baef4971fc64736f6c63430008040033",
  "linkReferences": {},
  "deployedLinkReferences": {}
}