{
  "_format": "hh-sol-artifact-1",
  "contractName": "BulkDisbursableNFTs",
  "sourceName": "src/BulkDisbursableNFTs.sol",
  "abi": [
    {
      "inputs": [],
      "stateMutability": "nonpayable",
      "type": "constructor"
    },
    {
      "anonymous": false,
      "inputs": [
        {
          "indexed": false,
          "internalType": "address",
          "name": "previousAdmin",
          "type": "address"
        },
        {
          "indexed": false,
          "internalType": "address",
          "name": "newAdmin",
          "type": "address"
        }
      ],
      "name": "AdminChanged",
      "type": "event"
    },
    {
      "anonymous": false,
      "inputs": [
        {
          "indexed": true,
          "internalType": "address",
          "name": "account",
          "type": "address"
        },
        {
          "indexed": true,
          "internalType": "address",
          "name": "operator",
          "type": "address"
        },
        {
          "indexed": false,
          "internalType": "bool",
          "name": "approved",
          "type": "bool"
        }
      ],
      "name": "ApprovalForAll",
      "type": "event"
    },
    {
      "anonymous": false,
      "inputs": [
        {
          "indexed": true,
          "internalType": "address",
          "name": "beacon",
          "type": "address"
        }
      ],
      "name": "BeaconUpgraded",
      "type": "event"
    },
    {
      "anonymous": false,
      "inputs": [
        {
          "indexed": false,
          "internalType": "uint256",
          "name": "id",
          "type": "uint256"
        },
        {
          "indexed": false,
          "internalType": "address",
          "name": "controller",
          "type": "address"
        }
      ],
      "name": "Created",
      "type": "event"
    },
    {
      "anonymous": false,
      "inputs": [
        {
          "indexed": true,
          "internalType": "address",
          "name": "previousOwner",
          "type": "address"
        },
        {
          "indexed": true,
          "internalType": "address",
          "name": "newOwner",
          "type": "address"
        }
      ],
      "name": "OwnershipTransferred",
      "type": "event"
    },
    {
      "anonymous": false,
      "inputs": [
        {
          "indexed": true,
          "internalType": "address",
          "name": "operator",
          "type": "address"
        },
        {
          "indexed": true,
          "internalType": "address",
          "name": "from",
          "type": "address"
        },
        {
          "indexed": true,
          "internalType": "address",
          "name": "to",
          "type": "address"
        },
        {
          "indexed": false,
          "internalType": "uint256[]",
          "name": "ids",
          "type": "uint256[]"
        },
        {
          "indexed": false,
          "internalType": "uint256[]",
          "name": "values",
          "type": "uint256[]"
        }
      ],
      "name": "TransferBatch",
      "type": "event"
    },
    {
      "anonymous": false,
      "inputs": [
        {
          "indexed": true,
          "internalType": "address",
          "name": "operator",
          "type": "address"
        },
        {
          "indexed": true,
          "internalType": "address",
          "name": "from",
          "type": "address"
        },
        {
          "indexed": true,
          "internalType": "address",
          "name": "to",
          "type": "address"
        },
        {
          "indexed": false,
          "internalType": "uint256",
          "name": "id",
          "type": "uint256"
        },
        {
          "indexed": false,
          "internalType": "uint256",
          "name": "value",
          "type": "uint256"
        }
      ],
      "name": "TransferSingle",
      "type": "event"
    },
    {
      "anonymous": false,
      "inputs": [
        {
          "indexed": false,
          "internalType": "string",
          "name": "value",
          "type": "string"
        },
        {
          "indexed": true,
          "internalType": "uint256",
          "name": "id",
          "type": "uint256"
        }
      ],
      "name": "URI",
      "type": "event"
    },
    {
      "anonymous": false,
      "inputs": [
        {
          "indexed": true,
          "internalType": "address",
          "name": "implementation",
          "type": "address"
        }
      ],
      "name": "Upgraded",
      "type": "event"
    },
    {
      "inputs": [
        {
          "internalType": "uint256",
          "name": "",
          "type": "uint256"
        }
      ],
      "name": "Roles",
      "outputs": [
        {
          "internalType": "string",
          "name": "",
          "type": "string"
        }
      ],
      "stateMutability": "view",
      "type": "function"
    },
    {
      "inputs": [
        {
          "internalType": "address",
          "name": "account",
          "type": "address"
        },
        {
          "internalType": "uint256",
          "name": "id",
          "type": "uint256"
        }
      ],
      "name": "balanceOf",
      "outputs": [
        {
          "internalType": "uint256",
          "name": "",
          "type": "uint256"
        }
      ],
      "stateMutability": "view",
      "type": "function"
    },
    {
      "inputs": [
        {
          "internalType": "address[]",
          "name": "accounts",
          "type": "address[]"
        },
        {
          "internalType": "uint256[]",
          "name": "ids",
          "type": "uint256[]"
        }
      ],
      "name": "balanceOfBatch",
      "outputs": [
        {
          "internalType": "uint256[]",
          "name": "",
          "type": "uint256[]"
        }
      ],
      "stateMutability": "view",
      "type": "function"
    },
    {
      "inputs": [
        {
          "internalType": "address",
          "name": "owner",
          "type": "address"
        },
        {
          "internalType": "uint256",
          "name": "id",
          "type": "uint256"
        },
        {
          "internalType": "uint256",
          "name": "quantity",
          "type": "uint256"
        }
      ],
      "name": "burn",
      "outputs": [],
      "stateMutability": "nonpayable",
      "type": "function"
    },
    {
      "inputs": [
        {
          "internalType": "address",
          "name": "account",
          "type": "address"
        },
        {
          "internalType": "uint256[]",
          "name": "ids",
          "type": "uint256[]"
        },
        {
          "internalType": "uint256[]",
          "name": "values",
          "type": "uint256[]"
        }
      ],
      "name": "burnBatch",
      "outputs": [],
      "stateMutability": "nonpayable",
      "type": "function"
    },
    {
      "inputs": [
        {
          "internalType": "enum BulkDisbursableNFTs.Role[]",
          "name": "grants",
          "type": "uint8[]"
        },
        {
          "internalType": "enum BulkDisbursableNFTs.Role[]",
          "name": "disables",
          "type": "uint8[]"
        }
      ],
      "name": "create",
      "outputs": [
        {
          "internalType": "uint256",
          "name": "id",
          "type": "uint256"
        }
      ],
      "stateMutability": "nonpayable",
      "type": "function"
    },
    {
      "inputs": [
        {
          "internalType": "address",
          "name": "maintainer",
          "type": "address"
        },
        {
          "internalType": "enum BulkDisbursableNFTs.Role[]",
          "name": "grants",
          "type": "uint8[]"
        },
        {
          "internalType": "enum BulkDisbursableNFTs.Role[]",
          "name": "disables",
          "type": "uint8[]"
        }
      ],
      "name": "create",
      "outputs": [
        {
          "internalType": "uint256",
          "name": "id",
          "type": "uint256"
        }
      ],
      "stateMutability": "nonpayable",
      "type": "function"
    },
    {
      "inputs": [],
      "name": "create",
      "outputs": [
        {
          "internalType": "uint256",
          "name": "id",
          "type": "uint256"
        }
      ],
      "stateMutability": "nonpayable",
      "type": "function"
    },
    {
      "inputs": [
        {
          "internalType": "enum BulkDisbursableNFTs.Role",
          "name": "toDisable",
          "type": "uint8"
        },
        {
          "internalType": "uint256",
          "name": "tokenId",
          "type": "uint256"
        }
      ],
      "name": "disableRole",
      "outputs": [],
      "stateMutability": "nonpayable",
      "type": "function"
    },
    {
      "inputs": [
        {
          "internalType": "uint256",
          "name": "id",
          "type": "uint256"
        }
      ],
      "name": "exists",
      "outputs": [
        {
          "internalType": "bool",
          "name": "",
          "type": "bool"
        }
      ],
      "stateMutability": "view",
      "type": "function"
    },
    {
      "inputs": [
        {
          "internalType": "enum BulkDisbursableNFTs.Role",
          "name": "role",
          "type": "uint8"
        },
        {
          "internalType": "address",
          "name": "user",
          "type": "address"
        },
        {
          "internalType": "uint256",
          "name": "index",
          "type": "uint256"
        }
      ],
      "name": "gateToken",
      "outputs": [
        {
          "internalType": "uint256",
          "name": "id",
          "type": "uint256"
        }
      ],
      "stateMutability": "view",
      "type": "function"
    },
    {
      "inputs": [
        {
          "internalType": "uint256",
          "name": "id",
          "type": "uint256"
        }
      ],
      "name": "getMax",
      "outputs": [
        {
          "internalType": "int64",
          "name": "max",
          "type": "int64"
        }
      ],
      "stateMutability": "view",
      "type": "function"
    },
    {
      "inputs": [
        {
          "internalType": "enum BulkDisbursableNFTs.Role",
          "name": "role",
          "type": "uint8"
        },
        {
          "internalType": "address",
          "name": "user",
          "type": "address"
        }
      ],
      "name": "grantRole",
      "outputs": [],
      "stateMutability": "nonpayable",
      "type": "function"
    },
    {
      "inputs": [
        {
          "internalType": "enum BulkDisbursableNFTs.Role",
          "name": "role",
          "type": "uint8"
        },
        {
          "internalType": "address",
          "name": "user",
          "type": "address"
        },
        {
          "internalType": "uint256",
          "name": "id",
          "type": "uint256"
        }
      ],
      "name": "grantRole",
      "outputs": [],
      "stateMutability": "nonpayable",
      "type": "function"
    },
    {
      "inputs": [
        {
          "internalType": "enum BulkDisbursableNFTs.Role",
          "name": "role",
          "type": "uint8"
        }
      ],
      "name": "hasRole",
      "outputs": [
        {
          "internalType": "bool",
          "name": "has",
          "type": "bool"
        }
      ],
      "stateMutability": "view",
      "type": "function"
    },
    {
      "inputs": [
        {
          "internalType": "enum BulkDisbursableNFTs.Role",
          "name": "role",
          "type": "uint8"
        },
        {
          "internalType": "address",
          "name": "user",
          "type": "address"
        },
        {
          "internalType": "uint256",
          "name": "id",
          "type": "uint256"
        }
      ],
      "name": "hasRole",
      "outputs": [
        {
          "internalType": "bool",
          "name": "has",
          "type": "bool"
        }
      ],
      "stateMutability": "view",
      "type": "function"
    },
    {
      "inputs": [
        {
          "internalType": "enum BulkDisbursableNFTs.Role",
          "name": "role",
          "type": "uint8"
        },
        {
          "internalType": "uint256",
          "name": "id",
          "type": "uint256"
        }
      ],
      "name": "hasRole",
      "outputs": [
        {
          "internalType": "bool",
          "name": "has",
          "type": "bool"
        }
      ],
      "stateMutability": "view",
      "type": "function"
    },
    {
      "inputs": [
        {
          "internalType": "enum BulkDisbursableNFTs.Role",
          "name": "role",
          "type": "uint8"
        },
        {
          "internalType": "address",
          "name": "user",
          "type": "address"
        }
      ],
      "name": "hasRole",
      "outputs": [
        {
          "internalType": "bool",
          "name": "has",
          "type": "bool"
        }
      ],
      "stateMutability": "view",
      "type": "function"
    },
    {
      "inputs": [
        {
          "internalType": "string",
          "name": "_name",
          "type": "string"
        },
        {
          "internalType": "string",
          "name": "_symbol",
          "type": "string"
        }
      ],
      "name": "initialize",
      "outputs": [],
      "stateMutability": "nonpayable",
      "type": "function"
    },
    {
      "inputs": [
        {
          "internalType": "address",
          "name": "account",
          "type": "address"
        },
        {
          "internalType": "address",
          "name": "operator",
          "type": "address"
        }
      ],
      "name": "isApprovedForAll",
      "outputs": [
        {
          "internalType": "bool",
          "name": "",
          "type": "bool"
        }
      ],
      "stateMutability": "view",
      "type": "function"
    },
    {
      "inputs": [
        {
          "internalType": "address",
          "name": "user",
          "type": "address"
        }
      ],
      "name": "isSuper",
      "outputs": [
        {
          "internalType": "bool",
          "name": "superuser",
          "type": "bool"
        }
      ],
      "stateMutability": "view",
      "type": "function"
    },
    {
      "inputs": [],
      "name": "isSuper",
      "outputs": [
        {
          "internalType": "bool",
          "name": "superuser",
          "type": "bool"
        }
      ],
      "stateMutability": "view",
      "type": "function"
    },
    {
      "inputs": [
        {
          "internalType": "uint256",
          "name": "",
          "type": "uint256"
        }
      ],
      "name": "maxes",
      "outputs": [
        {
          "internalType": "int64",
          "name": "",
          "type": "int64"
        }
      ],
      "stateMutability": "view",
      "type": "function"
    },
    {
      "inputs": [
        {
          "internalType": "address[]",
          "name": "to",
          "type": "address[]"
        },
        {
          "internalType": "uint256",
          "name": "id",
          "type": "uint256"
        },
        {
          "internalType": "bytes",
          "name": "data",
          "type": "bytes"
        }
      ],
      "name": "mint",
      "outputs": [],
      "stateMutability": "nonpayable",
      "type": "function"
    },
    {
      "inputs": [
        {
          "internalType": "address",
          "name": "recipient",
          "type": "address"
        },
        {
          "internalType": "uint256",
          "name": "id",
          "type": "uint256"
        },
        {
          "internalType": "uint256",
          "name": "amount",
          "type": "uint256"
        },
        {
          "internalType": "bytes",
          "name": "data",
          "type": "bytes"
        }
      ],
      "name": "mint",
      "outputs": [
        {
          "internalType": "bool",
          "name": "minted",
          "type": "bool"
        }
      ],
      "stateMutability": "nonpayable",
      "type": "function"
    },
    {
      "inputs": [],
      "name": "name",
      "outputs": [
        {
          "internalType": "string",
          "name": "",
          "type": "string"
        }
      ],
      "stateMutability": "view",
      "type": "function"
    },
    {
      "inputs": [],
      "name": "owner",
      "outputs": [
        {
          "internalType": "address",
          "name": "",
          "type": "address"
        }
      ],
      "stateMutability": "view",
      "type": "function"
    },
    {
      "inputs": [],
      "name": "proxiableUUID",
      "outputs": [
        {
          "internalType": "bytes32",
          "name": "",
          "type": "bytes32"
        }
      ],
      "stateMutability": "view",
      "type": "function"
    },
    {
      "inputs": [],
      "name": "renounceOwnership",
      "outputs": [],
      "stateMutability": "nonpayable",
      "type": "function"
    },
    {
      "inputs": [
        {
          "internalType": "string",
          "name": "roleName",
          "type": "string"
        }
      ],
      "name": "roleIndexForName",
      "outputs": [
        {
          "internalType": "enum BulkDisbursableNFTs.Role",
          "name": "role",
          "type": "uint8"
        }
      ],
      "stateMutability": "pure",
      "type": "function"
    },
    {
      "inputs": [
        {
          "internalType": "enum BulkDisbursableNFTs.Role",
          "name": "index",
          "type": "uint8"
        }
      ],
      "name": "roleNameByIndex",
      "outputs": [
        {
          "internalType": "string",
          "name": "",
          "type": "string"
        }
      ],
      "stateMutability": "pure",
      "type": "function"
    },
    {
      "inputs": [
        {
          "internalType": "enum BulkDisbursableNFTs.Role",
          "name": "role",
          "type": "uint8"
        }
      ],
      "name": "roleToken",
      "outputs": [
        {
          "internalType": "uint256",
          "name": "id",
          "type": "uint256"
        }
      ],
      "stateMutability": "view",
      "type": "function"
    },
    {
      "inputs": [
        {
          "internalType": "enum BulkDisbursableNFTs.Role",
          "name": "role",
          "type": "uint8"
        },
        {
          "internalType": "uint256",
          "name": "index",
          "type": "uint256"
        }
      ],
      "name": "roleToken",
      "outputs": [
        {
          "internalType": "uint256",
          "name": "id",
          "type": "uint256"
        }
      ],
      "stateMutability": "view",
      "type": "function"
    },
    {
      "inputs": [
        {
          "internalType": "address",
          "name": "from",
          "type": "address"
        },
        {
          "internalType": "address",
          "name": "to",
          "type": "address"
        },
        {
          "internalType": "uint256[]",
          "name": "ids",
          "type": "uint256[]"
        },
        {
          "internalType": "uint256[]",
          "name": "amounts",
          "type": "uint256[]"
        },
        {
          "internalType": "bytes",
          "name": "data",
          "type": "bytes"
        }
      ],
      "name": "safeBatchTransferFrom",
      "outputs": [],
      "stateMutability": "nonpayable",
      "type": "function"
    },
    {
      "inputs": [
        {
          "internalType": "address",
          "name": "from",
          "type": "address"
        },
        {
          "internalType": "address",
          "name": "to",
          "type": "address"
        },
        {
          "internalType": "uint256",
          "name": "id",
          "type": "uint256"
        },
        {
          "internalType": "uint256",
          "name": "amount",
          "type": "uint256"
        },
        {
          "internalType": "bytes",
          "name": "data",
          "type": "bytes"
        }
      ],
      "name": "safeTransferFrom",
      "outputs": [],
      "stateMutability": "nonpayable",
      "type": "function"
    },
    {
      "inputs": [
        {
          "internalType": "address",
          "name": "operator",
          "type": "address"
        },
        {
          "internalType": "bool",
          "name": "approved",
          "type": "bool"
        }
      ],
      "name": "setApprovalForAll",
      "outputs": [],
      "stateMutability": "nonpayable",
      "type": "function"
    },
    {
      "inputs": [
        {
          "internalType": "string",
          "name": "_name",
          "type": "string"
        },
        {
          "internalType": "string",
          "name": "_symbol",
          "type": "string"
        }
      ],
      "name": "setDescription",
      "outputs": [],
      "stateMutability": "nonpayable",
      "type": "function"
    },
    {
      "inputs": [
        {
          "internalType": "uint256",
          "name": "id",
          "type": "uint256"
        },
        {
          "internalType": "int64",
          "name": "max",
          "type": "int64"
        }
      ],
      "name": "setMax",
      "outputs": [],
      "stateMutability": "nonpayable",
      "type": "function"
    },
    {
      "inputs": [
        {
          "internalType": "uint256",
          "name": "id",
          "type": "uint256"
        },
        {
          "internalType": "string",
          "name": "newURI",
          "type": "string"
        }
      ],
      "name": "setURI",
      "outputs": [],
      "stateMutability": "nonpayable",
      "type": "function"
    },
    {
      "inputs": [
        {
          "internalType": "bytes4",
          "name": "interfaceId",
          "type": "bytes4"
        }
      ],
      "name": "supportsInterface",
      "outputs": [
        {
          "internalType": "bool",
          "name": "",
          "type": "bool"
        }
      ],
      "stateMutability": "view",
      "type": "function"
    },
    {
      "inputs": [],
      "name": "symbol",
      "outputs": [
        {
          "internalType": "string",
          "name": "",
          "type": "string"
        }
      ],
      "stateMutability": "view",
      "type": "function"
    },
    {
      "inputs": [
        {
          "internalType": "uint256",
          "name": "index",
          "type": "uint256"
        }
      ],
      "name": "tokenByIndex",
      "outputs": [
        {
          "internalType": "uint256",
          "name": "id",
          "type": "uint256"
        }
      ],
      "stateMutability": "view",
      "type": "function"
    },
    {
      "inputs": [
        {
          "internalType": "uint256",
          "name": "id",
          "type": "uint256"
        }
      ],
      "name": "tokenIndex",
      "outputs": [
        {
          "internalType": "uint256",
          "name": "index",
          "type": "uint256"
        }
      ],
      "stateMutability": "view",
      "type": "function"
    },
    {
      "inputs": [
        {
          "internalType": "address",
          "name": "owner",
          "type": "address"
        },
        {
          "internalType": "uint256",
          "name": "index",
          "type": "uint256"
        }
      ],
      "name": "tokenOfOwnerByIndex",
      "outputs": [
        {
          "internalType": "uint256",
          "name": "id",
          "type": "uint256"
        }
      ],
      "stateMutability": "view",
      "type": "function"
    },
    {
      "inputs": [
        {
          "internalType": "uint256",
          "name": "id",
          "type": "uint256"
        }
      ],
      "name": "totalSupply",
      "outputs": [
        {
          "internalType": "uint256",
          "name": "",
          "type": "uint256"
        }
      ],
      "stateMutability": "view",
      "type": "function"
    },
    {
      "inputs": [
        {
          "internalType": "address",
          "name": "newOwner",
          "type": "address"
        }
      ],
      "name": "transferOwnership",
      "outputs": [],
      "stateMutability": "nonpayable",
      "type": "function"
    },
    {
      "inputs": [],
      "name": "typeSupply",
      "outputs": [
        {
          "internalType": "uint256",
          "name": "count",
          "type": "uint256"
        }
      ],
      "stateMutability": "view",
      "type": "function"
    },
    {
      "inputs": [
        {
          "internalType": "address",
          "name": "newImplementation",
          "type": "address"
        }
      ],
      "name": "upgradeTo",
      "outputs": [],
      "stateMutability": "nonpayable",
      "type": "function"
    },
    {
      "inputs": [
        {
          "internalType": "address",
          "name": "newImplementation",
          "type": "address"
        },
        {
          "internalType": "bytes",
          "name": "data",
          "type": "bytes"
        }
      ],
      "name": "upgradeToAndCall",
      "outputs": [],
      "stateMutability": "payable",
      "type": "function"
    },
    {
      "inputs": [
        {
          "internalType": "uint256",
          "name": "id",
          "type": "uint256"
        }
      ],
      "name": "uri",
      "outputs": [
        {
          "internalType": "string",
          "name": "metadata",
          "type": "string"
        }
      ],
      "stateMutability": "view",
      "type": "function"
    }
  ],
  "bytecode": "0x60a06040523060601b6080523480156200001857600080fd5b50600054610100900460ff16620000365760005460ff161562000040565b62000040620000e5565b620000a85760405162461bcd60e51b815260206004820152602e60248201527f496e697469616c697a61626c653a20636f6e747261637420697320616c72656160448201526d191e481a5b9a5d1a585b1a5e995960921b606482015260840160405180910390fd5b600054610100900460ff16158015620000cb576000805461ffff19166101011790555b8015620000de576000805461ff00191690555b5062000112565b6000620000fd306200010360201b62002b671760201c565b15905090565b6001600160a01b03163b151590565b60805160601c615e666200014d6000396000818161139f015281816113df015281816118d0015281816119100152611a5b0152615e666000f3fe6080604052600436106102385760003560e01c8062fdd58e1461023d57806301ffc9a7146102705780630583e9f8146102a057806306fdde03146102c05780630e89341c146102e25780630ec0370f1461030257806311ef04c41461032457806314c464271461034457806316730ab01461036457806319e0755c146103845780632eb2c2d6146103a45780632f745c59146103c45780633659cfe6146103e45780633dbe35de146104045780634468031f1461042457806348289589146104445780634a80070f146104645780634cd88b76146104845780634e1273f4146104a45780634f1ef286146104d15780634f558e79146104e45780634f6ccce71461050457806352d1902d146105245780635d5664e1146105395780636755d456146105595780636b20c454146105795780636fc0020b14610599578063715018a6146105b9578063731133e9146105ce578063778f5a7b146105ee578063814c24501461061b578063862440e21461063b5780638da5cb5b1461065b57806395d89b41146106885780639d969a9c1461069d5780639e97b8f6146106b2578063a22cb465146106d2578063aa8e9066146106f2578063b0bdf26114610712578063bd85b03914610732578063c3c8df9914610752578063dabc698714610772578063e688f89d146107b6578063e985e9c5146107e7578063edc79bac14610830578063efc81a8c14610845578063f242432a1461085a578063f2fde38b1461087a578063f5298aca1461089a578063fde4047a146108ba575b600080fd5b34801561024957600080fd5b5061025d61025836600461508b565b6108da565b6040519081526020015b60405180910390f35b34801561027c57600080fd5b5061029061028b366004615267565b610976565b6040519015158152602001610267565b3480156102ac57600080fd5b5061025d6102bb3660046153d7565b6109c6565b3480156102cc57600080fd5b506102d5610a34565b604051610267919061568c565b3480156102ee57600080fd5b506102d56102fd3660046153d7565b610ac3565b34801561030e57600080fd5b5061032261031d36600461519a565b610d36565b005b34801561033057600080fd5b5061032261033f3660046153ef565b610d8d565b34801561035057600080fd5b5061025d61035f36600461529f565b610e41565b34801561037057600080fd5b5061025d61037f3660046152d4565b610e4e565b34801561039057600080fd5b5061029061039f36600461529f565b61126d565b3480156103b057600080fd5b506103226103bf366004614e29565b611279565b3480156103d057600080fd5b5061025d6103df36600461508b565b611310565b3480156103f057600080fd5b506103226103ff366004614ddd565b611394565b34801561041057600080fd5b5061025d61041f36600461530f565b61145d565b34801561043057600080fd5b5061029061043f3660046152d4565b6115d8565b34801561045057600080fd5b5061029061045f36600461530f565b6115ff565b34801561047057600080fd5b5061025d61047f3660046151f9565b61160c565b34801561049057600080fd5b5061032261049f36600461532a565b611619565b3480156104b057600080fd5b506104c46104bf366004615144565b611764565b60405161026791906155fd565b6103226104df366004615040565b6118c5565b3480156104f057600080fd5b506102906104ff3660046153d7565b61197f565b34801561051057600080fd5b5061025d61051f3660046153d7565b611992565b34801561053057600080fd5b5061025d611a4e565b34801561054557600080fd5b506103226105543660046152b9565b611afd565b34801561056557600080fd5b5061032261057436600461532a565b611b09565b34801561058557600080fd5b50610322610594366004614fa0565b611b53565b3480156105a557600080fd5b506102d56105b43660046153d7565b611b9b565b3480156105c557600080fd5b50610322611bbb565b3480156105da57600080fd5b506102906105e93660046150e6565b611bf6565b3480156105fa57600080fd5b5061060e610609366004615392565b611dfe565b6040516102679190615635565b34801561062757600080fd5b506102d561063636600461529f565b612146565b34801561064757600080fd5b50610322610656366004615418565b612515565b34801561066757600080fd5b506106706125f1565b6040516001600160a01b039091168152602001610267565b34801561069457600080fd5b506102d5612600565b3480156106a957600080fd5b5061025d61260e565b3480156106be57600080fd5b506102906106cd3660046152b9565b612626565b3480156106de57600080fd5b506103226106ed366004615006565b612634565b3480156106fe57600080fd5b5061032261070d3660046152d4565b61263f565b34801561071e57600080fd5b5061025d61072d366004614f30565b612662565b34801561073e57600080fd5b5061025d61074d3660046153d7565b61290e565b34801561075e57600080fd5b5061029061076d366004614ddd565b612920565b34801561077e57600080fd5b506107a361078d3660046153d7565b6101a26020526000908152604090205460070b81565b60405160079190910b8152602001610267565b3480156107c257600080fd5b506107a36107d13660046153d7565b60009081526101a2602052604090205460070b90565b3480156107f357600080fd5b50610290610802366004614df7565b6001600160a01b03918216600090815260666020908152604080832093909416825291909152205460ff1690565b34801561083c57600080fd5b50610290612955565b34801561085157600080fd5b5061025d612960565b34801561086657600080fd5b50610322610875366004614ece565b612981565b34801561088657600080fd5b50610322610895366004614ddd565b6129c6565b3480156108a657600080fd5b506103226108b53660046150b4565b612a63565b3480156108c657600080fd5b506103226108d536600461530f565b612aed565b60006001600160a01b03831661094b5760405162461bcd60e51b815260206004820152602b60248201527f455243313135353a2062616c616e636520717565727920666f7220746865207a60448201526a65726f206164647265737360a81b60648201526084015b60405180910390fd5b5060008181526065602090815260408083206001600160a01b03861684529091529020545b92915050565b60006001600160e01b03198216636cdb3d1360e11b14806109a757506001600160e01b031982166303a24d0760e21b145b8061097057506301ffc9a760e01b6001600160e01b0319831614610970565b6000818152610195602052604090205480610a2f5760405162461bcd60e51b815260206004820152602360248201527f5468652072657175657374656420746f6b656e20646f6573206e6f742065786960448201526239ba1760e91b6064820152608401610942565b919050565b6101918054610a4290615bbb565b80601f0160208091040260200160405190810160405280929190818152602001828054610a6e90615bbb565b8015610abb5780601f10610a9057610100808354040283529160200191610abb565b820191906000526020600020905b815481529060010190602001808311610a9e57829003601f168201915b505050505081565b600081815261019360205260409020805460609190610ae190615bbb565b80601f0160208091040260200160405190810160405280929190818152602001828054610b0d90615bbb565b8015610b5a5780601f10610b2f57610100808354040283529160200191610b5a565b820191906000526020600020905b815481529060010190602001808311610b3d57829003601f168201915b50505050509050805160001415610a2f576008610b7a600d610100615b32565b610b849190615b6c565b600160ff919091161b6008610b9c600d610100615b32565b610ba69190615b6c565b60ff166001610bb760086002615a87565b610bc19190615b55565b901b83161415610a2f576000600160088160038083610be3600d610100615b32565b610bed9190615b6c565b610bf79190615b6c565b610c019190615b6c565b610c0b9190615b6c565b610c159190615b6c565b610c1f9190615b6c565b60ff166001610c2f816002615a87565b610c399190615b55565b901b6003806008610c4d600d610100615b32565b610c579190615b6c565b610c619190615b6c565b610c6b9190615b6c565b60ff166001901b1719600160206002610c849190615a87565b610c8e9190615b55565b19841616600081815261019360205260409020805491925090610cb090615bbb565b80601f0160208091040260200160405190810160405280929190818152602001828054610cdc90615bbb565b8015610d295780601f10610cfe57610100808354040283529160200191610d29565b820191906000526020600020905b815481529060010190602001808311610d0c57829003601f168201915b5050505050915050919050565b60005b8351811015610d8757610d76848281518110610d6557634e487b7160e01b600052603260045260246000fd5b602002602001015184600185611bf6565b50610d8081615c22565b9050610d39565b50505050565b610d986008836115ff565b80610da65750610da6612955565b610e0c5760405162461bcd60e51b815260206004820152603160248201527f596f75206d75737420686176652061204c696d6974657220746f6b656e20746f6044820152701031b430b733b29038bab0b73a34ba3c9760791b6064820152608401610942565b60009182526101a26020526040909120805460079290920b6001600160401b03166001600160401b0319909216919091179055565b600061097082600061145d565b600080610e5a85610e41565b9050600061019581856008610e72600d610100615b32565b610e7c9190615b6c565b60ff16600a901b851717815260200190815260200160002054905080600014610ed657610194805482908110610ec257634e487b7160e01b600052603260045260246000fd5b906000526020600020015492505050611266565b6000604051806101000160405280866001600860016003806008600d60ff16610100610f029190615b32565b610f0c9190615b6c565b610f169190615b6c565b610f209190615b6c565b610f2a9190615b6c565b610f349190615b6c565b610f3e9190615b6c565b60ff166001610f4e816002615a87565b610f589190615b55565b901b6003806008610f6c600d610100615b32565b610f769190615b6c565b610f809190615b6c565b610f8a9190615b6c565b600160ff919091161b871717178152602001866003806008610faf600d610100615b32565b610fb99190615b6c565b610fc39190615b6c565b610fcd9190615b6c565b60ff166001901b86171781526020016001600860016003806008600d60ff16610100610ff99190615b32565b6110039190615b6c565b61100d9190615b6c565b6110179190615b6c565b6110219190615b6c565b61102b9190615b6c565b6110359190615b6c565b60ff166001611045816002615a87565b61104f9190615b55565b901b6003806008611063600d610100615b32565b61106d9190615b6c565b6110779190615b6c565b6110819190615b6c565b600160ff919091161b861717815260200160038060086110a4600d610100615b32565b6110ae9190615b6c565b6110b89190615b6c565b6110c29190615b6c565b60ff166001901b85178152602001866001600860016003806008600d60ff166101006110ee9190615b32565b6110f89190615b6c565b6111029190615b6c565b61110c9190615b6c565b6111169190615b6c565b6111209190615b6c565b61112a9190615b6c565b60ff16600161113a816002615a87565b6111449190615b55565b901b8617178152602001600160088160038083611164600d610100615b32565b61116e9190615b6c565b6111789190615b6c565b6111829190615b6c565b61118c9190615b6c565b6111969190615b6c565b6111a09190615b6c565b60ff1660016111b0816002615a87565b6111ba9190615b55565b901b851781528685176020820152604001849052905060005b60088160ff16101561125d57600061121288848460ff166008811061120857634e487b7160e01b600052603260045260246000fd5b60200201516108da565b111561124b57818160ff166008811061123b57634e487b7160e01b600052603260045260246000fd5b6020020151945050505050611266565b8061125581615c3d565b9150506111d3565b50600093505050505b9392505050565b60006109708233612626565b6001600160a01b03851633148061129557506112958533610802565b6112fc5760405162461bcd60e51b815260206004820152603260248201527f455243313135353a207472616e736665722063616c6c6572206973206e6f74206044820152711bdddb995c881b9bdc88185c1c1c9bdd995960721b6064820152608401610942565b6113098585858585612b76565b5050505050565b6001600160a01b0382166000908152610196602052604081205482106113485760405162461bcd60e51b815260040161094290615914565b6001600160a01b03831660009081526101966020526040902080548390811061138157634e487b7160e01b600052603260045260246000fd5b9060005260206000200154905092915050565b306001600160a01b037f00000000000000000000000000000000000000000000000000000000000000001614156113dd5760405162461bcd60e51b815260040161094290615750565b7f00000000000000000000000000000000000000000000000000000000000000006001600160a01b031661140f612d2d565b6001600160a01b0316146114355760405162461bcd60e51b8152600401610942906157d3565b61143e81612d49565b6040805160008082526020820190925261145a91839190612dcf565b50565b600061146b60206002615a87565b82106114b95760405162461bcd60e51b815260206004820152601f60248201527f496e64696365732063616e206265206174206d6f737420333220426974732e006044820152606401610942565b81600184600c8111156114dc57634e487b7160e01b600052602160045260246000fd5b146114e8576000611541565b600160038060086114fc600d610100615b32565b6115069190615b6c565b6115109190615b6c565b61151a9190615b6c565b6115249190615b6c565b60ff166001611534816002615a87565b61153e9190615b55565b901b5b6008600160038083611556600d610100615b32565b6115609190615b6c565b61156a9190615b6c565b6115749190615b6c565b61157e9190615b6c565b6115889190615b6c565b60ff1685600c8111156115ab57634e487b7160e01b600052602160045260246000fd5b901b60086115bc600d610100615b32565b6115c69190615b6c565b60ff166001901b171717905092915050565b600081815261019560205260408120546115f59085908590610e4e565b1515949350505050565b60006112668333846115d8565b6000611266338484612662565b600054610100900460ff166116345760005460ff161561163c565b61163c612f49565b61169f5760405162461bcd60e51b815260206004820152602e60248201527f496e697469616c697a61626c653a20636f6e747261637420697320616c72656160448201526d191e481a5b9a5d1a585b1a5e995960921b6064820152608401610942565b600054610100900460ff161580156116c1576000805461ffff19166101011790555b6116c9612f5a565b6117076040518060400160405280602081526020017f4572726f723a2053696e676c6520546f6b656e20555249204e6f742055736564815250612f89565b61170f612fb9565b611717612fb9565b61171f612fb9565b61019480546001810182556000918252600080516020615daa833981519152015561174c85858585611b09565b8015611309576000805461ff00191690555050505050565b606081518351146117c95760405162461bcd60e51b815260206004820152602960248201527f455243313135353a206163636f756e747320616e6420696473206c656e677468604482015268040dad2e6dac2e8c6d60bb1b6064820152608401610942565b600083516001600160401b038111156117f257634e487b7160e01b600052604160045260246000fd5b60405190808252806020026020018201604052801561181b578160200160208202803683370190505b50905060005b84518110156118bd5761188285828151811061184d57634e487b7160e01b600052603260045260246000fd5b602002602001015185838151811061187557634e487b7160e01b600052603260045260246000fd5b60200260200101516108da565b8282815181106118a257634e487b7160e01b600052603260045260246000fd5b60209081029190910101526118b681615c22565b9050611821565b509392505050565b306001600160a01b037f000000000000000000000000000000000000000000000000000000000000000016141561190e5760405162461bcd60e51b815260040161094290615750565b7f00000000000000000000000000000000000000000000000000000000000000006001600160a01b0316611940612d2d565b6001600160a01b0316146119665760405162461bcd60e51b8152600401610942906157d3565b61196f82612d49565b61197b82826001612dcf565b5050565b60008061198b8361290e565b1192915050565b60008082116119f65760405162461bcd60e51b815260206004820152602a60248201527f4552432d3131353520456e756d657261626c653a20746f6b656e7320696e64656044820152697865642066726f6d203160b01b6064820152608401610942565b61019454821115611a195760405162461bcd60e51b815260040161094290615914565b610194805483908110611a3c57634e487b7160e01b600052603260045260246000fd5b90600052602060002001549050919050565b6000306001600160a01b037f00000000000000000000000000000000000000000000000000000000000000001614611ae95760405162461bcd60e51b815260206004820152603860248201527f555550535570677261646561626c653a206d757374206e6f742062652063616c6044820152771b1959081d1a1c9bdd59da0819195b1959d85d1958d85b1b60421b6064820152608401610942565b50600080516020615dea8339815191525b90565b61197b8282600061263f565b33611b126125f1565b6001600160a01b031614611b385760405162461bcd60e51b8152600401610942906158df565b611b456101918585614a98565b506113096101928383614a98565b6001600160a01b038316331480611b6f5750611b6f8333610802565b611b8b5760405162461bcd60e51b81526004016109429061578a565b611b96838383612fe0565b505050565b61019781600b8110611bac57600080fd5b018054909150610a4290615bbb565b33611bc46125f1565b6001600160a01b031614611bea5760405162461bcd60e51b8152600401610942906158df565b611bf4600061317b565b565b6000600160088160038083611c0e600d610100615b32565b611c189190615b6c565b611c229190615b6c565b611c2c9190615b6c565b611c369190615b6c565b611c409190615b6c565b611c4a9190615b6c565b60ff166001611c5a816002615a87565b611c649190615b55565b901b600160088160038083611c7c600d610100615b32565b611c869190615b6c565b611c909190615b6c565b611c9a9190615b6c565b611ca49190615b6c565b611cae9190615b6c565b611cb89190615b6c565b60ff166001611cc8816002615a87565b611cd29190615b55565b901b85161415611d365760405162461bcd60e51b815260206004820152602960248201527f43616e6e6f74206d696e7420696e7465726e616c20746f6b656e732066726f6d6044820152681037baba39b4b2329760b91b6064820152608401610942565b60016003806008611d4a600d610100615b32565b611d549190615b6c565b611d5e9190615b6c565b611d689190615b6c565b611d729190615b6c565b60ff166001901b60016003806008600d60ff16610100611d929190615b32565b611d9c9190615b6c565b611da69190615b6c565b611db09190615b6c565b611dba9190615b6c565b60ff166001901b8516148015611dd957506000611dd786866108da565b115b15611de657506000611df6565b611df2858585856131cd565b5060015b949350505050565b60008082604051602001611e1291906154c7565b604051602081830303815290604052805190602001209050604051602001611e49906829bab832b93ab9b2b960b91b815260090190565b60405160208183030381529060405280519060200120811415611e6f5750600192915050565b6040516526b4b73a32b960d11b602082015260260160405160208183030381529060405280519060200120811415611eaa5750600292915050565b6040516521b0b9ba32b960d11b602082015260260160405160208183030381529060405280519060200120811415611ee55750600392915050565b604051692a3930b739b332b932b960b11b6020820152602a0160405160208183030381529060405280519060200120811415611f245750600492915050565b6040516921b7b73334b3bab932b960b11b6020820152602a0160405160208183030381529060405280519060200120811415611f635750600592915050565b6040516926b0b4b73a30b4b732b960b11b6020820152602a0160405160208183030381529060405280519060200120811415611fa25750600692915050565b6040516621b932b0ba37b960c91b602082015260270160405160208183030381529060405280519060200120811415611fde5750600792915050565b604051662634b6b4ba32b960c91b60208201526027016040516020818303038152906040528051906020012081141561201a5750600892915050565b60405165213ab93732b960d11b6020820152602601604051602081830303815290604052805190602001208114156120555750600992915050565b604051682232b9ba3937bcb2b960b91b6020820152602901604051602081830303815290604052805190602001208114156120935750600a92915050565b604051654f7261636c6560d01b6020820152602601604051602081830303815290604052805190602001208114156120ce5750600b92915050565b6040516b14995cd95c9d995913185cdd60a21b6020820152602c016040516020818303038152906040528051906020012081141561210f5750600c92915050565b8260405160200161212091906154e3565b60408051601f198184030181529082905262461bcd60e51b82526109429160040161568c565b6060600182600c81111561216a57634e487b7160e01b600052602160045260246000fd5b141561219557505060408051808201909152600981526829bab832b93ab9b2b960b91b602082015290565b600282600c8111156121b757634e487b7160e01b600052602160045260246000fd5b14156121df57505060408051808201909152600681526526b4b73a32b960d11b602082015290565b600382600c81111561220157634e487b7160e01b600052602160045260246000fd5b141561222957505060408051808201909152600681526521b0b9ba32b960d11b602082015290565b600482600c81111561224b57634e487b7160e01b600052602160045260246000fd5b141561227757505060408051808201909152600a8152692a3930b739b332b932b960b11b602082015290565b600582600c81111561229957634e487b7160e01b600052602160045260246000fd5b14156122c557505060408051808201909152600a81526921b7b73334b3bab932b960b11b602082015290565b600682600c8111156122e757634e487b7160e01b600052602160045260246000fd5b141561231357505060408051808201909152600a81526926b0b4b73a30b4b732b960b11b602082015290565b600782600c81111561233557634e487b7160e01b600052602160045260246000fd5b141561235e57505060408051808201909152600781526621b932b0ba37b960c91b602082015290565b600882600c81111561238057634e487b7160e01b600052602160045260246000fd5b14156123a95750506040805180820190915260078152662634b6b4ba32b960c91b602082015290565b600982600c8111156123cb57634e487b7160e01b600052602160045260246000fd5b14156123f3575050604080518082019091526006815265213ab93732b960d11b602082015290565b600a82600c81111561241557634e487b7160e01b600052602160045260246000fd5b14156124405750506040805180820190915260098152682232b9ba3937bcb2b960b91b602082015290565b600b82600c81111561246257634e487b7160e01b600052602160045260246000fd5b141561248a5750506040805180820190915260068152654f7261636c6560d01b602082015290565b600c82600c8111156124ac57634e487b7160e01b600052602160045260246000fd5b14156124da57505060408051808201909152600c81526b14995cd95c9d995913185cdd60a21b602082015290565b61250582600c8111156124fd57634e487b7160e01b600052602160045260246000fd5b60ff166132cd565b604051602001612120919061551e565b6125206005846115ff565b8061252e575061252e612955565b6125975760405162461bcd60e51b815260206004820152603460248201527f596f75206d7573742068617665206120436f6e6669677572657220746f6b656e604482015273103a379031b430b733b29036b2ba30b230ba309760611b6064820152608401610942565b6000838152610193602052604090206125b1908383614a98565b50827f6bb7ff708619ba0610cba295a58592e0451dee2622938c8755667688daf3529b83836040516125e492919061565d565b60405180910390a2505050565b6097546001600160a01b031690565b6101928054610a4290615bbb565b6101945460009061262190600190615b55565b905090565b6000611266838360006115d8565b61197b3383836133e6565b611b968383831561265857612653846109c6565b61265b565b60005b60006134c7565b61019454600090806008612679600d610100615b32565b6126839190615b6c565b60ff166009901b1791506126986007836115ff565b806126a657506126a6612955565b61270e5760405162461bcd60e51b815260206004820152603360248201527f596f75206d757374206861766520612043726561746f7220746f6b656e20746f6044820152721031b932b0ba32903732bb903a37b5b2b7399760691b6064820152608401610942565b610194805460018101909155600080516020615daa833981519152018290556000828152610195602052604081208290555b845181101561278f5761277d85828151811061276c57634e487b7160e01b600052603260045260246000fd5b6020026020010151878460016134c7565b8061278781615c22565b915050612740565b5060005b83518110156127df576127cd8482815181106127bf57634e487b7160e01b600052603260045260246000fd5b602002602001015183612aed565b806127d781615c22565b915050612793565b50604080518381526001600160a01b03871660208201527f7757890bcab34d673dfca6b71df1b57f75a2fe4231d6e8de726caf534ab1fdd6910160405180910390a161284a60405180604001604052806008815260200167212121212121212160c01b815250613682565b60006128596007336000610e4e565b9050600380600861286d600d610100615b32565b6128779190615b6c565b6128819190615b6c565b61288b9190615b6c565b600160ff919091161b60038060086128a6600d610100615b32565b6128b09190615b6c565b6128ba9190615b6c565b6128c49190615b6c565b60ff166001901b82161415612905576128e0335b8260016136c5565b61290560405180604001604052806004815260200163313ab93760e11b815250613682565b50509392505050565b600090815260fb602052604090205490565b600061292d600183612626565b80610970575061293b6125f1565b6001600160a01b0316826001600160a01b03161492915050565b600061262133612920565b6040805160008082526020820190925261297b338283612662565b91505090565b6001600160a01b03851633148061299d575061299d8533610802565b6129b95760405162461bcd60e51b81526004016109429061578a565b61130985858585856137b8565b336129cf6125f1565b6001600160a01b0316146129f55760405162461bcd60e51b8152600401610942906158df565b6001600160a01b038116612a5a5760405162461bcd60e51b815260206004820152602660248201527f4f776e61626c653a206e6577206f776e657220697320746865207a65726f206160448201526564647265737360d01b6064820152608401610942565b61145a8161317b565b612a6f600984846115d8565b80612a7e5750612a7e83612920565b612ae25760405162461bcd60e51b815260206004820152602f60248201527f596f75206d75737420686176652061204275726e657220746f6b656e20746f2060448201526e3232b9ba3937bc903a37b5b2b7399760891b6064820152608401610942565b611b968383836136c5565b60008181526101956020526040812054612b0890849061145d565b90506008612b19600d610100615b32565b612b239190615b6c565b610194805460018101909155600a60ff929092169190911b91909117600080516020615daa8339815191528201819055600090815261019560205260409020555050565b6001600160a01b03163b151590565b8151835114612b975760405162461bcd60e51b8152600401610942906159ad565b6001600160a01b038416612bbd5760405162461bcd60e51b81526004016109429061580d565b33612bcc8187878787876138c7565b60005b8451811015612cd1576000858281518110612bfa57634e487b7160e01b600052603260045260246000fd5b602002602001015190506000858381518110612c2657634e487b7160e01b600052603260045260246000fd5b60209081029190910181015160008481526065835260408082206001600160a01b038e168352909352919091205490915081811015612c775760405162461bcd60e51b815260040161094290615895565b60008381526065602090815260408083206001600160a01b038e8116855292528083208585039055908b16825281208054849290612cb6908490615a18565b9250508190555050505080612cca90615c22565b9050612bcf565b50846001600160a01b0316866001600160a01b0316826001600160a01b0316600080516020615d6a8339815191528787604051612d0f929190615610565b60405180910390a4612d2581878787878761436e565b505050505050565b600080516020615dea833981519152546001600160a01b031690565b612d53600661126d565b80612d615750612d61612955565b61145a5760405162461bcd60e51b815260206004820152603960248201527f596f75206d75737420686176652061204d61696e7461696e657220746f6b656e604482015278103a37903ab833b930b232903a34329031b7b73a3930b1ba1760391b6064820152608401610942565b7f4910fdfa16fed3260ed0e7147f7cc6da11a60208b5b9406d12a635614ffd91435460ff1615612e0257611b96836144e0565b826001600160a01b03166352d1902d6040518163ffffffff1660e01b815260040160206040518083038186803b158015612e3b57600080fd5b505afa925050508015612e6b575060408051601f3d908101601f19168201909252612e689181019061524f565b60015b612ece5760405162461bcd60e51b815260206004820152602e60248201527f45524331393637557067726164653a206e657720696d706c656d656e7461746960448201526d6f6e206973206e6f74205555505360901b6064820152608401610942565b600080516020615dea8339815191528114612f3d5760405162461bcd60e51b815260206004820152602960248201527f45524331393637557067726164653a20756e737570706f727465642070726f786044820152681a58589b195555525160ba1b6064820152608401610942565b50611b9683838361457a565b6000612f5430612b67565b15905090565b600054610100900460ff16612f815760405162461bcd60e51b815260040161094290615962565b611bf461459f565b600054610100900460ff16612fb05760405162461bcd60e51b815260040161094290615962565b61145a816145cf565b600054610100900460ff16611bf45760405162461bcd60e51b815260040161094290615962565b6001600160a01b0383166130065760405162461bcd60e51b815260040161094290615852565b80518251146130275760405162461bcd60e51b8152600401610942906159ad565b600033905061304a818560008686604051806020016040528060008152506138c7565b60005b835181101561312e57600084828151811061307857634e487b7160e01b600052603260045260246000fd5b6020026020010151905060008483815181106130a457634e487b7160e01b600052603260045260246000fd5b60209081029190910181015160008481526065835260408082206001600160a01b038c1683529093529190912054909150818110156130f55760405162461bcd60e51b81526004016109429061570c565b60009283526065602090815260408085206001600160a01b038b168652909152909220910390558061312681615c22565b91505061304d565b5060006001600160a01b0316846001600160a01b0316826001600160a01b0316600080516020615d6a833981519152868660405161316d929190615610565b60405180910390a450505050565b609780546001600160a01b038381166001600160a01b0319831681179093556040519116919082907f8be0079c531659141344cd1fd0a4f28419497f9722a3daafe3b4186f6b6457e090600090a35050565b6001600160a01b03841661322d5760405162461bcd60e51b815260206004820152602160248201527f455243313135353a206d696e7420746f20746865207a65726f206164647265736044820152607360f81b6064820152608401610942565b3361324d8160008761323e886145ff565b613247886145ff565b876138c7565b60008481526065602090815260408083206001600160a01b03891684529091528120805485929061327f908490615a18565b909155505060408051858152602081018590526001600160a01b038088169260009291851691600080516020615d8a833981519152910160405180910390a461130981600087878787614658565b6060816132f15750506040805180820190915260018152600360fc1b602082015290565b8160005b811561331b578061330581615c22565b91506133149050600a83615a30565b91506132f5565b6000816001600160401b0381111561334357634e487b7160e01b600052604160045260246000fd5b6040519080825280601f01601f19166020018201604052801561336d576020820181803683370190505b5090505b8415611df657613382600183615b55565b915061338f600a86615c5d565b61339a906030615a18565b60f81b8183815181106133bd57634e487b7160e01b600052603260045260246000fd5b60200101906001600160f81b031916908160001a9053506133df600a86615a30565b9450613371565b816001600160a01b0316836001600160a01b0316141561345a5760405162461bcd60e51b815260206004820152602960248201527f455243313135353a2073657474696e6720617070726f76616c20737461747573604482015268103337b91039b2b63360b91b6064820152608401610942565b6001600160a01b03838116600081815260666020908152604080832094871680845294825291829020805460ff191686151590811790915591519182527f17307eab39ab6107e8899845ad3d59bd9653f200f220920489ca2b5937696c31910160405180910390a3505050565b806135e157600184600c8111156134ee57634e487b7160e01b600052602160045260246000fd5b1415613561576134fc612955565b61355c5760405162461bcd60e51b815260206004820152602b60248201527f596f75206d75737420626520612073757065727573657220746f20637265617460448201526a32903732bb9037b732b99760a91b6064820152608401610942565b6135e1565b61356c6003836115ff565b8061357a575061357a612955565b6135e15760405162461bcd60e51b815260206004820152603260248201527f596f75206d7573742068617665207468652043617374657220726f6c6520746f6044820152711030b9b9b4b3b7103732bb903937b632b99760711b6064820152608401610942565b610d8783826135f1576000613660565b600160088160038083613607600d610100615b32565b6136119190615b6c565b61361b9190615b6c565b6136259190615b6c565b61362f9190615b6c565b6136399190615b6c565b6136439190615b6c565b60ff166001613653816002615a87565b61365d9190615b55565b901b5b61366a878661145d565b176001604051806020016040528060008152506131cd565b61145a81604051602401613696919061568c565b60408051601f198184030181529190526020810180516001600160e01b031663104c13eb60e21b179052614729565b6001600160a01b0383166136eb5760405162461bcd60e51b815260040161094290615852565b3361371a818560006136fc876145ff565b613705876145ff565b604051806020016040528060008152506138c7565b60008381526065602090815260408083206001600160a01b03881684529091529020548281101561375d5760405162461bcd60e51b81526004016109429061570c565b60008481526065602090815260408083206001600160a01b0389811680865291845282852088870390558251898152938401889052909290861691600080516020615d8a833981519152910160405180910390a45050505050565b6001600160a01b0384166137de5760405162461bcd60e51b81526004016109429061580d565b336137ee81878761323e886145ff565b60008481526065602090815260408083206001600160a01b038a168452909152902054838110156138315760405162461bcd60e51b815260040161094290615895565b60008581526065602090815260408083206001600160a01b038b8116855292528083208785039055908816825281208054869290613870908490615a18565b909155505060408051868152602081018690526001600160a01b03808916928a82169291861691600080516020615d8a833981519152910160405180910390a46138be828888888888614658565b50505050505050565b6138cf612955565b613fa65760005b8351811015613fa4576001600881600380836138f5600d610100615b32565b6138ff9190615b6c565b6139099190615b6c565b6139139190615b6c565b61391d9190615b6c565b6139279190615b6c565b6139319190615b6c565b60ff166001613941816002615a87565b61394b9190615b55565b901b600160088160038083613963600d610100615b32565b61396d9190615b6c565b6139779190615b6c565b6139819190615b6c565b61398b9190615b6c565b6139959190615b6c565b61399f9190615b6c565b60ff1660016139af816002615a87565b6139b99190615b55565b901b8583815181106139db57634e487b7160e01b600052603260045260246000fd5b60200260200101511614613f945760006001600160a01b03871615613a01576004613a04565b60025b9050600281600c811115613a2857634e487b7160e01b600052602160045260246000fd5b1415613ef65760006101a26000878581518110613a5557634e487b7160e01b600052603260045260246000fd5b6020026020010151815260200190815260200160002060009054906101000a900460070b60070b12613cb257613b12604051806040016040528060188152602001771d1cce8809590b081c5d1e4e8809590b081b585e0e88095960421b815250613ae5878581518110613ad857634e487b7160e01b600052603260045260246000fd5b602002602001015161290e565b868581518110613b0557634e487b7160e01b600052603260045260246000fd5b602002602001015161474a565b613b666101a26000878581518110613b3a57634e487b7160e01b600052603260045260246000fd5b6020026020010151815260200190815260200160002060009054906101000a900460070b60070b614791565b613bc3848381518110613b8957634e487b7160e01b600052603260045260246000fd5b6020026020010151613bb4878581518110613ad857634e487b7160e01b600052603260045260246000fd5b613bbe9190615a18565b614791565b6101a26000868481518110613be857634e487b7160e01b600052603260045260246000fd5b6020026020010151815260200190815260200160002060009054906101000a900460070b60070b848381518110613c2f57634e487b7160e01b600052603260045260246000fd5b6020026020010151613c5a878581518110613ad857634e487b7160e01b600052603260045260246000fd5b613c649190615a18565b1315613cb25760405162461bcd60e51b815260206004820181905260248201527f4d6178696d756d206d696e7420616c6c6f77616e63652065786365656465642e6044820152606401610942565b6008613cc1600d610100615b32565b613ccb9190615b6c565b600160ff919091161b6008613ce3600d610100615b32565b613ced9190615b6c565b60ff166001613cfe60086002615a87565b613d089190615b55565b901b868481518110613d2a57634e487b7160e01b600052603260045260246000fd5b6020026020010151161415613de457613d6b6003868481518110613d5e57634e487b7160e01b600052603260045260246000fd5b60200260200101516115ff565b80613d795750613d79612955565b613ddf5760405162461bcd60e51b815260206004820152603160248201527f596f75206d757374206861766520612043617374657220746f6b656e20746f2060448201527036b4b73a103a37b5b2b71033b0ba32b99760791b6064820152608401610942565b613f92565b6000613e1b823361037f898781518110613e0e57634e487b7160e01b600052603260045260246000fd5b60200260200101516109c6565b9050613e4182878581518110613d5e57634e487b7160e01b600052603260045260246000fd5b613ea65760405162461bcd60e51b815260206004820152603060248201527f596f75206d75737420686176652061204d696e74657220746f6b656e20746f2060448201526f33b2b732b930ba32903a37b5b2b7399760811b6064820152608401610942565b60006003806008613eba600d610100615b32565b613ec49190615b6c565b613ece9190615b6c565b613ed89190615b6c565b60ff166001901b82161115613ef057613ef0336128d8565b50613f92565b6001600160a01b03861615613f9257613f2981868481518110613d5e57634e487b7160e01b600052603260045260246000fd5b613f925760405162461bcd60e51b815260206004820152603460248201527f596f75206d75737420686176652061205472616e73666572657220746f6b656e604482015273103a37903a3930b739b332b9103a37b5b2b7399760611b6064820152608401610942565b505b613f9d81615c22565b90506138d6565b505b6001600160a01b038416156141cc5760005b83518110156141ca576101946001016000858381518110613fe957634e487b7160e01b600052603260045260246000fd5b6020026020010151815260200190815260200160002054600014156140955761019460000184828151811061402e57634e487b7160e01b600052603260045260246000fd5b602090810291909101810151825460018101845560009384529183209091015561019454855190916101959187908590811061407a57634e487b7160e01b600052603260045260246000fd5b60200260200101518152602001908152602001600020819055505b6101966000866001600160a01b03166001600160a01b0316815260200190815260200160002060010160008583815181106140e057634e487b7160e01b600052603260045260246000fd5b6020026020010151815260200190815260200160002054600014156141ba576001600160a01b038516600090815261019660205260409020845185908390811061413a57634e487b7160e01b600052603260045260246000fd5b6020908102919091018101518254600181810185556000948552838520909101919091556001600160a01b038816835261019690915260408220805487519093919092019187908590811061419f57634e487b7160e01b600052603260045260246000fd5b60200260200101518152602001908152602001600020819055505b6141c381615c22565b9050613fb8565b505b6001600160a01b038516156143605760005b835181101561435e5782818151811061420757634e487b7160e01b600052603260045260246000fd5b60200260200101516142338786848151811061187557634e487b7160e01b600052603260045260246000fd5b1161434e576001600160a01b0386166000908152610196602052604081208551600191820190839088908690811061427b57634e487b7160e01b600052603260045260246000fd5b602002602001015181526020019081526020016000205461429c9190615b55565b6001600160a01b038816600090815261019660205260409020805491925090829081106142d957634e487b7160e01b600052603260045260246000fd5b90600052602060002001600090556101966000886001600160a01b03166001600160a01b03168152602001908152602001600020600101600086848151811061433257634e487b7160e01b600052603260045260246000fd5b6020026020010151815260200190815260200160002060009055505b61435781615c22565b90506141de565b505b612d258686868686866147d6565b614380846001600160a01b0316612b67565b15612d255760405163bc197c8160e01b81526001600160a01b0385169063bc197c81906143b9908990899088908890889060040161555a565b602060405180830381600087803b1580156143d357600080fd5b505af1925050508015614403575060408051601f3d908101601f1916820190925261440091810190615283565b60015b6144b05761440f615cb3565b806308c379a014156144495750614424615cca565b8061442f575061444b565b8060405162461bcd60e51b8152600401610942919061568c565b505b60405162461bcd60e51b815260206004820152603460248201527f455243313135353a207472616e7366657220746f206e6f6e20455243313135356044820152732932b1b2b4bb32b91034b6b83632b6b2b73a32b960611b6064820152608401610942565b6001600160e01b0319811663bc197c8160e01b146138be5760405162461bcd60e51b8152600401610942906156c4565b6144e981612b67565b61454b5760405162461bcd60e51b815260206004820152602d60248201527f455243313936373a206e657720696d706c656d656e746174696f6e206973206e60448201526c1bdd08184818dbdb9d1c9858dd609a1b6064820152608401610942565b600080516020615dea83398151915280546001600160a01b0319166001600160a01b0392909216919091179055565b6145838361491a565b6000825111806145905750805b15611b9657610d87838361495a565b600054610100900460ff166145c65760405162461bcd60e51b815260040161094290615962565b611bf43361317b565b600054610100900460ff166145f65760405162461bcd60e51b815260040161094290615962565b61145a81614a4c565b6040805160018082528183019092526060916000919060208083019080368337019050509050828160008151811061464757634e487b7160e01b600052603260045260246000fd5b602090810291909101015292915050565b61466a846001600160a01b0316612b67565b15612d255760405163f23a6e6160e01b81526001600160a01b0385169063f23a6e61906146a390899089908890889088906004016155b8565b602060405180830381600087803b1580156146bd57600080fd5b505af19250505080156146ed575060408051601f3d908101601f191682019092526146ea91810190615283565b60015b6146f95761440f615cb3565b6001600160e01b0319811663f23a6e6160e01b146138be5760405162461bcd60e51b8152600401610942906156c4565b80516a636f6e736f6c652e6c6f67602083016000808483855afa5050505050565b611b968383836040516024016147629392919061569f565b60408051601f198184030181529190526020810180516001600160e01b031663969cdd0360e01b179052614729565b61145a816040516024016147a791815260200190565b60408051601f198184030181529190526020810180516001600160e01b0316634e0c1d1d60e01b179052614729565b6001600160a01b0385166148795760005b83518110156148775782818151811061481057634e487b7160e01b600052603260045260246000fd5b602002602001015160fb600086848151811061483c57634e487b7160e01b600052603260045260246000fd5b6020026020010151815260200190815260200160002060008282546148619190615a18565b90915550614870905081615c22565b90506147e7565b505b6001600160a01b038416612d255760005b83518110156138be578281815181106148b357634e487b7160e01b600052603260045260246000fd5b602002602001015160fb60008684815181106148df57634e487b7160e01b600052603260045260246000fd5b6020026020010151815260200190815260200160002060008282546149049190615b55565b90915550614913905081615c22565b905061488a565b614923816144e0565b6040516001600160a01b038216907fbc7cd75a20ee27fd9adebab32041f755214dbc6bffa90cc0225b39da2e5c2d3b90600090a250565b606061496583612b67565b6149c05760405162461bcd60e51b815260206004820152602660248201527f416464726573733a2064656c65676174652063616c6c20746f206e6f6e2d636f6044820152651b9d1c9858dd60d21b6064820152608401610942565b600080846001600160a01b0316846040516149db91906154c7565b600060405180830381855af49150503d8060008114614a16576040519150601f19603f3d011682016040523d82523d6000602084013e614a1b565b606091505b5091509150614a438282604051806060016040528060278152602001615e0a60279139614a5f565b95945050505050565b805161197b906067906020840190614b1c565b60608315614a6e575081611266565b825115614a7e5782518084602001fd5b8160405162461bcd60e51b8152600401610942919061568c565b828054614aa490615bbb565b90600052602060002090601f016020900481019282614ac65760008555614b0c565b82601f10614adf5782800160ff19823516178555614b0c565b82800160010185558215614b0c579182015b82811115614b0c578235825591602001919060010190614af1565b50614b18929150614b90565b5090565b828054614b2890615bbb565b90600052602060002090601f016020900481019282614b4a5760008555614b0c565b82601f10614b6357805160ff1916838001178555614b0c565b82800160010185558215614b0c579182015b82811115614b0c578251825591602001919060010190614b75565b5b80821115614b185760008155600101614b91565b60006001600160401b03831115614bbe57614bbe615c9d565b604051614bd5601f8501601f191660200182615bf6565b809150838152848484011115614bea57600080fd5b83836020830137600060208583010152509392505050565b80356001600160a01b0381168114610a2f57600080fd5b600082601f830112614c29578081fd5b81356020614c36826159f5565b604051614c438282615bf6565b8381528281019150858301600585901b87018401881015614c62578586fd5b855b85811015614c8757614c7582614c02565b84529284019290840190600101614c64565b5090979650505050505050565b600082601f830112614ca4578081fd5b81356020614cb1826159f5565b604051614cbe8282615bf6565b8381528281019150858301600585901b87018401881015614cdd578586fd5b855b85811015614c8757614cf082614d88565b84529284019290840190600101614cdf565b600082601f830112614d12578081fd5b81356020614d1f826159f5565b604051614d2c8282615bf6565b8381528281019150858301600585901b87018401881015614d4b578586fd5b855b85811015614c8757813584529284019290840190600101614d4d565b600082601f830112614d79578081fd5b61126683833560208501614ba5565b8035600d8110610a2f57600080fd5b60008083601f840112614da8578182fd5b5081356001600160401b03811115614dbe578182fd5b602083019150836020828501011115614dd657600080fd5b9250929050565b600060208284031215614dee578081fd5b61126682614c02565b60008060408385031215614e09578081fd5b614e1283614c02565b9150614e2060208401614c02565b90509250929050565b600080600080600060a08688031215614e40578081fd5b614e4986614c02565b9450614e5760208701614c02565b935060408601356001600160401b0380821115614e72578283fd5b614e7e89838a01614d02565b94506060880135915080821115614e93578283fd5b614e9f89838a01614d02565b93506080880135915080821115614eb4578283fd5b50614ec188828901614d69565b9150509295509295909350565b600080600080600060a08688031215614ee5578081fd5b614eee86614c02565b9450614efc60208701614c02565b9350604086013592506060860135915060808601356001600160401b03811115614f24578182fd5b614ec188828901614d69565b600080600060608486031215614f44578081fd5b614f4d84614c02565b925060208401356001600160401b0380821115614f68578283fd5b614f7487838801614c94565b93506040860135915080821115614f89578283fd5b50614f9686828701614c94565b9150509250925092565b600080600060608486031215614fb4578081fd5b614fbd84614c02565b925060208401356001600160401b0380821115614fd8578283fd5b614fe487838801614d02565b93506040860135915080821115614ff9578283fd5b50614f9686828701614d02565b60008060408385031215615018578182fd5b61502183614c02565b915060208301358015158114615035578182fd5b809150509250929050565b60008060408385031215615052578182fd5b61505b83614c02565b915060208301356001600160401b03811115615075578182fd5b61508185828601614d69565b9150509250929050565b6000806040838503121561509d578182fd5b6150a683614c02565b946020939093013593505050565b6000806000606084860312156150c8578081fd5b6150d184614c02565b95602085013595506040909401359392505050565b600080600080608085870312156150fb578182fd5b61510485614c02565b9350602085013592506040850135915060608501356001600160401b0381111561512c578182fd5b61513887828801614d69565b91505092959194509250565b60008060408385031215615156578182fd5b82356001600160401b038082111561516c578384fd5b61517886838701614c19565b9350602085013591508082111561518d578283fd5b5061508185828601614d02565b6000806000606084860312156151ae578081fd5b83356001600160401b03808211156151c4578283fd5b6151d087838801614c19565b94506020860135935060408601359150808211156151ec578283fd5b50614f9686828701614d69565b6000806040838503121561520b578182fd5b82356001600160401b0380821115615221578384fd5b61522d86838701614c94565b93506020850135915080821115615242578283fd5b5061508185828601614c94565b600060208284031215615260578081fd5b5051919050565b600060208284031215615278578081fd5b813561126681615d53565b600060208284031215615294578081fd5b815161126681615d53565b6000602082840312156152b0578081fd5b61126682614d88565b600080604083850312156152cb578182fd5b614e1283614d88565b6000806000606084860312156152e8578081fd5b6152f184614d88565b92506152ff60208501614c02565b9150604084013590509250925092565b60008060408385031215615321578182fd5b6150a683614d88565b6000806000806040858703121561533f578182fd5b84356001600160401b0380821115615355578384fd5b61536188838901614d97565b90965094506020870135915080821115615379578384fd5b5061538687828801614d97565b95989497509550505050565b6000602082840312156153a3578081fd5b81356001600160401b038111156153b8578182fd5b8201601f810184136153c8578182fd5b611df684823560208401614ba5565b6000602082840312156153e8578081fd5b5035919050565b60008060408385031215615401578182fd5b8235915060208301358060070b8114615035578182fd5b60008060006040848603121561542c578081fd5b8335925060208401356001600160401b03811115615448578182fd5b61545486828701614d97565b9497909650939450505050565b6000815180845260208085019450808401835b8381101561549057815187529582019590820190600101615474565b509495945050505050565b600081518084526154b3816020860160208601615b8f565b601f01601f19169290920160200192915050565b600082516154d9818460208701615b8f565b9190910192915050565b7202ab735b737bbb7103937b632903a3cb8329d1606d1b815260008251615511816013850160208701615b8f565b9190910160130192915050565b7302ab735b737bbb7102937b6329024b73232bc1d160651b81526000825161554d816014850160208701615b8f565b9190910160140192915050565b6001600160a01b0386811682528516602082015260a06040820181905260009061558690830186615461565b82810360608401526155988186615461565b905082810360808401526155ac818561549b565b98975050505050505050565b6001600160a01b03868116825285166020820152604081018490526060810183905260a0608082018190526000906155f29083018461549b565b979650505050505050565b6020815260006112666020830184615461565b6040815260006156236040830185615461565b8281036020840152614a438185615461565b60208101600d831061565757634e487b7160e01b600052602160045260246000fd5b91905290565b60208152816020820152818360408301376000818301604090810191909152601f909201601f19160101919050565b602081526000611266602083018461549b565b6060815260006156b2606083018661549b565b60208301949094525060400152919050565b60208082526028908201527f455243313135353a204552433131353552656365697665722072656a656374656040820152676420746f6b656e7360c01b606082015260800190565b60208082526024908201527f455243313135353a206275726e20616d6f756e7420657863656564732062616c604082015263616e636560e01b606082015260800190565b6020808252602c90820152600080516020615dca83398151915260408201526b19195b1959d85d1958d85b1b60a21b606082015260800190565b60208082526029908201527f455243313135353a2063616c6c6572206973206e6f74206f776e6572206e6f7260408201526808185c1c1c9bdd995960ba1b606082015260800190565b6020808252602c90820152600080516020615dca83398151915260408201526b6163746976652070726f787960a01b606082015260800190565b60208082526025908201527f455243313135353a207472616e7366657220746f20746865207a65726f206164604082015264647265737360d81b606082015260800190565b60208082526023908201527f455243313135353a206275726e2066726f6d20746865207a65726f206164647260408201526265737360e81b606082015260800190565b6020808252602a908201527f455243313135353a20696e73756666696369656e742062616c616e636520666f60408201526939103a3930b739b332b960b11b606082015260800190565b6020808252818101527f4f776e61626c653a2063616c6c6572206973206e6f7420746865206f776e6572604082015260600190565b6020808252602e908201527f4552432d3131353520456e756d657261626c653a20746f6b656e20696e64657860408201526d206f7574206f6620626f756e647360901b606082015260800190565b6020808252602b908201527f496e697469616c697a61626c653a20636f6e7472616374206973206e6f74206960408201526a6e697469616c697a696e6760a81b606082015260800190565b60208082526028908201527f455243313135353a2069647320616e6420616d6f756e7473206c656e677468206040820152670dad2e6dac2e8c6d60c31b606082015260800190565b60006001600160401b03821115615a0e57615a0e615c9d565b5060051b60200190565b60008219821115615a2b57615a2b615c71565b500190565b600082615a3f57615a3f615c87565b500490565b600181815b80851115615a7f578160001904821115615a6557615a65615c71565b80851615615a7257918102915b93841c9390800290615a49565b509250929050565b600061126660ff841683600082615aa057506001610970565b81615aad57506000610970565b8160018114615ac35760028114615acd57615ae9565b6001915050610970565b60ff841115615ade57615ade615c71565b50506001821b610970565b5060208310610133831016604e8410600b8410161715615b0c575081810a610970565b615b168383615a44565b8060001904821115615b2a57615b2a615c71565b029392505050565b600061ffff83811690831681811015615b4d57615b4d615c71565b039392505050565b600082821015615b6757615b67615c71565b500390565b600060ff821660ff841680821015615b8657615b86615c71565b90039392505050565b60005b83811015615baa578181015183820152602001615b92565b83811115610d875750506000910152565b600181811c90821680615bcf57607f821691505b60208210811415615bf057634e487b7160e01b600052602260045260246000fd5b50919050565b601f8201601f191681016001600160401b0381118282101715615c1b57615c1b615c9d565b6040525050565b6000600019821415615c3657615c36615c71565b5060010190565b600060ff821660ff811415615c5457615c54615c71565b60010192915050565b600082615c6c57615c6c615c87565b500690565b634e487b7160e01b600052601160045260246000fd5b634e487b7160e01b600052601260045260246000fd5b634e487b7160e01b600052604160045260246000fd5b600060033d1115611afa57600481823e5160e01c90565b600060443d1015615cd85790565b6040516003193d81016004833e81513d6001600160401b038083116024840183101715615d0757505050505090565b8285019150815181811115615d1f5750505050505090565b843d8701016020828501011115615d395750505050505090565b615d4860208286010187615bf6565b509095945050505050565b6001600160e01b03198116811461145a57600080fdfe4a39dc06d4c0dbc64b70af90fd698a233a518aa5d07e595d983b8c0526c8f7fbc3d58168c5ae7397731d063d5bbf3d657854427343f4c083240f7aacaa2d0f62a6f1ac7ad7b125ba5a5e1c96b00ad6914f90a503b1ac3d85a9dadbb4c639df9246756e6374696f6e206d7573742062652063616c6c6564207468726f75676820360894a13ba1a3210667c828492db98dca3e2076cc3735a920a3ca505d382bbc416464726573733a206c6f772d6c6576656c2064656c65676174652063616c6c206661696c6564a2646970667358221220134e51ef62627ed97b3fed638c70fd0e120e087c33b1110e272916f380826bb264736f6c63430008040033",
  "linkReferences": {},
  "deployedLinkReferences": {}
}