{
  "_format": "hh-sol-artifact-1",
  "contractName": "BulkDisbursableNFTs",
  "sourceName": "src/BulkDisbursableNFTs.sol",
  "abi": [
    {
      "inputs": [],
      "stateMutability": "nonpayable",
      "type": "constructor"
    },
    {
      "anonymous": false,
      "inputs": [
        {
          "indexed": false,
          "internalType": "address",
          "name": "previousAdmin",
          "type": "address"
        },
        {
          "indexed": false,
          "internalType": "address",
          "name": "newAdmin",
          "type": "address"
        }
      ],
      "name": "AdminChanged",
      "type": "event"
    },
    {
      "anonymous": false,
      "inputs": [
        {
          "indexed": true,
          "internalType": "address",
          "name": "account",
          "type": "address"
        },
        {
          "indexed": true,
          "internalType": "address",
          "name": "operator",
          "type": "address"
        },
        {
          "indexed": false,
          "internalType": "bool",
          "name": "approved",
          "type": "bool"
        }
      ],
      "name": "ApprovalForAll",
      "type": "event"
    },
    {
      "anonymous": false,
      "inputs": [
        {
          "indexed": true,
          "internalType": "address",
          "name": "beacon",
          "type": "address"
        }
      ],
      "name": "BeaconUpgraded",
      "type": "event"
    },
    {
      "anonymous": false,
      "inputs": [
        {
          "indexed": false,
          "internalType": "uint256",
          "name": "id",
          "type": "uint256"
        },
        {
          "indexed": false,
          "internalType": "address",
          "name": "controller",
          "type": "address"
        }
      ],
      "name": "Created",
      "type": "event"
    },
    {
      "anonymous": false,
      "inputs": [
        {
          "indexed": false,
          "internalType": "uint8",
          "name": "version",
          "type": "uint8"
        }
      ],
      "name": "Initialized",
      "type": "event"
    },
    {
      "anonymous": false,
      "inputs": [
        {
          "indexed": true,
          "internalType": "address",
          "name": "previousOwner",
          "type": "address"
        },
        {
          "indexed": true,
          "internalType": "address",
          "name": "newOwner",
          "type": "address"
        }
      ],
      "name": "OwnershipTransferred",
      "type": "event"
    },
    {
      "anonymous": false,
      "inputs": [
        {
          "indexed": true,
          "internalType": "address",
          "name": "operator",
          "type": "address"
        },
        {
          "indexed": true,
          "internalType": "address",
          "name": "from",
          "type": "address"
        },
        {
          "indexed": true,
          "internalType": "address",
          "name": "to",
          "type": "address"
        },
        {
          "indexed": false,
          "internalType": "uint256[]",
          "name": "ids",
          "type": "uint256[]"
        },
        {
          "indexed": false,
          "internalType": "uint256[]",
          "name": "values",
          "type": "uint256[]"
        }
      ],
      "name": "TransferBatch",
      "type": "event"
    },
    {
      "anonymous": false,
      "inputs": [
        {
          "indexed": true,
          "internalType": "address",
          "name": "operator",
          "type": "address"
        },
        {
          "indexed": true,
          "internalType": "address",
          "name": "from",
          "type": "address"
        },
        {
          "indexed": true,
          "internalType": "address",
          "name": "to",
          "type": "address"
        },
        {
          "indexed": false,
          "internalType": "uint256",
          "name": "id",
          "type": "uint256"
        },
        {
          "indexed": false,
          "internalType": "uint256",
          "name": "value",
          "type": "uint256"
        }
      ],
      "name": "TransferSingle",
      "type": "event"
    },
    {
      "anonymous": false,
      "inputs": [
        {
          "indexed": false,
          "internalType": "string",
          "name": "value",
          "type": "string"
        },
        {
          "indexed": true,
          "internalType": "uint256",
          "name": "id",
          "type": "uint256"
        }
      ],
      "name": "URI",
      "type": "event"
    },
    {
      "anonymous": false,
      "inputs": [
        {
          "indexed": true,
          "internalType": "address",
          "name": "implementation",
          "type": "address"
        }
      ],
      "name": "Upgraded",
      "type": "event"
    },
    {
      "inputs": [
        {
          "internalType": "uint256",
          "name": "",
          "type": "uint256"
        }
      ],
      "name": "Roles",
      "outputs": [
        {
          "internalType": "string",
          "name": "",
          "type": "string"
        }
      ],
      "stateMutability": "view",
      "type": "function"
    },
    {
      "inputs": [
        {
          "internalType": "address",
          "name": "account",
          "type": "address"
        },
        {
          "internalType": "uint256",
          "name": "id",
          "type": "uint256"
        }
      ],
      "name": "balanceOf",
      "outputs": [
        {
          "internalType": "uint256",
          "name": "",
          "type": "uint256"
        }
      ],
      "stateMutability": "view",
      "type": "function"
    },
    {
      "inputs": [
        {
          "internalType": "address[]",
          "name": "accounts",
          "type": "address[]"
        },
        {
          "internalType": "uint256[]",
          "name": "ids",
          "type": "uint256[]"
        }
      ],
      "name": "balanceOfBatch",
      "outputs": [
        {
          "internalType": "uint256[]",
          "name": "",
          "type": "uint256[]"
        }
      ],
      "stateMutability": "view",
      "type": "function"
    },
    {
      "inputs": [
        {
          "internalType": "address",
          "name": "owner",
          "type": "address"
        },
        {
          "internalType": "uint256",
          "name": "id",
          "type": "uint256"
        },
        {
          "internalType": "uint256",
          "name": "quantity",
          "type": "uint256"
        }
      ],
      "name": "burn",
      "outputs": [],
      "stateMutability": "nonpayable",
      "type": "function"
    },
    {
      "inputs": [
        {
          "internalType": "address",
          "name": "account",
          "type": "address"
        },
        {
          "internalType": "uint256[]",
          "name": "ids",
          "type": "uint256[]"
        },
        {
          "internalType": "uint256[]",
          "name": "values",
          "type": "uint256[]"
        }
      ],
      "name": "burnBatch",
      "outputs": [],
      "stateMutability": "nonpayable",
      "type": "function"
    },
    {
      "inputs": [
        {
          "internalType": "enum BulkDisbursableNFTs.Role[]",
          "name": "grants",
          "type": "uint8[]"
        },
        {
          "internalType": "enum BulkDisbursableNFTs.Role[]",
          "name": "disables",
          "type": "uint8[]"
        }
      ],
      "name": "create",
      "outputs": [
        {
          "internalType": "uint256",
          "name": "id",
          "type": "uint256"
        }
      ],
      "stateMutability": "nonpayable",
      "type": "function"
    },
    {
      "inputs": [
        {
          "internalType": "address",
          "name": "maintainer",
          "type": "address"
        },
        {
          "internalType": "enum BulkDisbursableNFTs.Role[]",
          "name": "grants",
          "type": "uint8[]"
        },
        {
          "internalType": "enum BulkDisbursableNFTs.Role[]",
          "name": "disables",
          "type": "uint8[]"
        }
      ],
      "name": "create",
      "outputs": [
        {
          "internalType": "uint256",
          "name": "id",
          "type": "uint256"
        }
      ],
      "stateMutability": "nonpayable",
      "type": "function"
    },
    {
      "inputs": [],
      "name": "create",
      "outputs": [
        {
          "internalType": "uint256",
          "name": "id",
          "type": "uint256"
        }
      ],
      "stateMutability": "nonpayable",
      "type": "function"
    },
    {
      "inputs": [
        {
          "internalType": "enum BulkDisbursableNFTs.Role",
          "name": "toDisable",
          "type": "uint8"
        },
        {
          "internalType": "uint256",
          "name": "disablingIndex",
          "type": "uint256"
        }
      ],
      "name": "disableRole",
      "outputs": [],
      "stateMutability": "nonpayable",
      "type": "function"
    },
    {
      "inputs": [
        {
          "internalType": "uint256",
          "name": "id",
          "type": "uint256"
        }
      ],
      "name": "exists",
      "outputs": [
        {
          "internalType": "bool",
          "name": "",
          "type": "bool"
        }
      ],
      "stateMutability": "view",
      "type": "function"
    },
    {
      "inputs": [
        {
          "internalType": "enum BulkDisbursableNFTs.Role",
          "name": "role",
          "type": "uint8"
        },
        {
          "internalType": "address",
          "name": "user",
          "type": "address"
        },
        {
          "internalType": "uint256",
          "name": "index",
          "type": "uint256"
        }
      ],
      "name": "gateToken",
      "outputs": [
        {
          "internalType": "uint256",
          "name": "id",
          "type": "uint256"
        }
      ],
      "stateMutability": "view",
      "type": "function"
    },
    {
      "inputs": [
        {
          "internalType": "uint256",
          "name": "id",
          "type": "uint256"
        }
      ],
      "name": "getMax",
      "outputs": [
        {
          "internalType": "int64",
          "name": "max",
          "type": "int64"
        }
      ],
      "stateMutability": "view",
      "type": "function"
    },
    {
      "inputs": [
        {
          "internalType": "enum BulkDisbursableNFTs.Role",
          "name": "role",
          "type": "uint8"
        },
        {
          "internalType": "address",
          "name": "user",
          "type": "address"
        },
        {
          "internalType": "uint256",
          "name": "id",
          "type": "uint256"
        },
        {
          "internalType": "bool",
          "name": "singleUse",
          "type": "bool"
        }
      ],
      "name": "grantRole",
      "outputs": [],
      "stateMutability": "nonpayable",
      "type": "function"
    },
    {
      "inputs": [
        {
          "internalType": "enum BulkDisbursableNFTs.Role",
          "name": "role",
          "type": "uint8"
        },
        {
          "internalType": "address",
          "name": "user",
          "type": "address"
        }
      ],
      "name": "grantRole",
      "outputs": [],
      "stateMutability": "nonpayable",
      "type": "function"
    },
    {
      "inputs": [
        {
          "internalType": "enum BulkDisbursableNFTs.Role",
          "name": "role",
          "type": "uint8"
        },
        {
          "internalType": "address",
          "name": "user",
          "type": "address"
        },
        {
          "internalType": "bool",
          "name": "singleUse",
          "type": "bool"
        }
      ],
      "name": "grantRole",
      "outputs": [],
      "stateMutability": "nonpayable",
      "type": "function"
    },
    {
      "inputs": [
        {
          "internalType": "enum BulkDisbursableNFTs.Role",
          "name": "role",
          "type": "uint8"
        },
        {
          "internalType": "address",
          "name": "user",
          "type": "address"
        },
        {
          "internalType": "uint256",
          "name": "id",
          "type": "uint256"
        }
      ],
      "name": "grantRole",
      "outputs": [],
      "stateMutability": "nonpayable",
      "type": "function"
    },
    {
      "inputs": [
        {
          "internalType": "enum BulkDisbursableNFTs.Role",
          "name": "role",
          "type": "uint8"
        }
      ],
      "name": "hasRole",
      "outputs": [
        {
          "internalType": "bool",
          "name": "has",
          "type": "bool"
        }
      ],
      "stateMutability": "view",
      "type": "function"
    },
    {
      "inputs": [
        {
          "internalType": "enum BulkDisbursableNFTs.Role",
          "name": "role",
          "type": "uint8"
        },
        {
          "internalType": "address",
          "name": "user",
          "type": "address"
        },
        {
          "internalType": "uint256",
          "name": "id",
          "type": "uint256"
        }
      ],
      "name": "hasRole",
      "outputs": [
        {
          "internalType": "bool",
          "name": "has",
          "type": "bool"
        }
      ],
      "stateMutability": "view",
      "type": "function"
    },
    {
      "inputs": [
        {
          "internalType": "enum BulkDisbursableNFTs.Role",
          "name": "role",
          "type": "uint8"
        },
        {
          "internalType": "uint256",
          "name": "id",
          "type": "uint256"
        }
      ],
      "name": "hasRole",
      "outputs": [
        {
          "internalType": "bool",
          "name": "has",
          "type": "bool"
        }
      ],
      "stateMutability": "view",
      "type": "function"
    },
    {
      "inputs": [
        {
          "internalType": "enum BulkDisbursableNFTs.Role",
          "name": "role",
          "type": "uint8"
        },
        {
          "internalType": "address",
          "name": "user",
          "type": "address"
        }
      ],
      "name": "hasRole",
      "outputs": [
        {
          "internalType": "bool",
          "name": "has",
          "type": "bool"
        }
      ],
      "stateMutability": "view",
      "type": "function"
    },
    {
      "inputs": [
        {
          "internalType": "string",
          "name": "_name",
          "type": "string"
        },
        {
          "internalType": "string",
          "name": "_symbol",
          "type": "string"
        }
      ],
      "name": "initialize",
      "outputs": [],
      "stateMutability": "nonpayable",
      "type": "function"
    },
    {
      "inputs": [
        {
          "internalType": "uint256",
          "name": "",
          "type": "uint256"
        }
      ],
      "name": "intValues",
      "outputs": [
        {
          "internalType": "int256",
          "name": "",
          "type": "int256"
        }
      ],
      "stateMutability": "view",
      "type": "function"
    },
    {
      "inputs": [
        {
          "internalType": "address",
          "name": "account",
          "type": "address"
        },
        {
          "internalType": "address",
          "name": "operator",
          "type": "address"
        }
      ],
      "name": "isApprovedForAll",
      "outputs": [
        {
          "internalType": "bool",
          "name": "",
          "type": "bool"
        }
      ],
      "stateMutability": "view",
      "type": "function"
    },
    {
      "inputs": [
        {
          "internalType": "address",
          "name": "user",
          "type": "address"
        }
      ],
      "name": "isSuper",
      "outputs": [
        {
          "internalType": "bool",
          "name": "superuser",
          "type": "bool"
        }
      ],
      "stateMutability": "view",
      "type": "function"
    },
    {
      "inputs": [],
      "name": "isSuper",
      "outputs": [
        {
          "internalType": "bool",
          "name": "superuser",
          "type": "bool"
        }
      ],
      "stateMutability": "view",
      "type": "function"
    },
    {
      "inputs": [
        {
          "internalType": "uint256",
          "name": "",
          "type": "uint256"
        }
      ],
      "name": "maxes",
      "outputs": [
        {
          "internalType": "int64",
          "name": "",
          "type": "int64"
        }
      ],
      "stateMutability": "view",
      "type": "function"
    },
    {
      "inputs": [
        {
          "internalType": "address[]",
          "name": "to",
          "type": "address[]"
        },
        {
          "internalType": "uint256",
          "name": "id",
          "type": "uint256"
        },
        {
          "internalType": "bytes",
          "name": "data",
          "type": "bytes"
        }
      ],
      "name": "mint",
      "outputs": [],
      "stateMutability": "nonpayable",
      "type": "function"
    },
    {
      "inputs": [
        {
          "internalType": "address",
          "name": "recipient",
          "type": "address"
        },
        {
          "internalType": "uint256",
          "name": "id",
          "type": "uint256"
        },
        {
          "internalType": "uint256",
          "name": "amount",
          "type": "uint256"
        },
        {
          "internalType": "bytes",
          "name": "data",
          "type": "bytes"
        }
      ],
      "name": "mint",
      "outputs": [
        {
          "internalType": "bool",
          "name": "minted",
          "type": "bool"
        }
      ],
      "stateMutability": "nonpayable",
      "type": "function"
    },
    {
      "inputs": [],
      "name": "name",
      "outputs": [
        {
          "internalType": "string",
          "name": "",
          "type": "string"
        }
      ],
      "stateMutability": "view",
      "type": "function"
    },
    {
      "inputs": [],
      "name": "owner",
      "outputs": [
        {
          "internalType": "address",
          "name": "",
          "type": "address"
        }
      ],
      "stateMutability": "view",
      "type": "function"
    },
    {
      "inputs": [],
      "name": "proxiableUUID",
      "outputs": [
        {
          "internalType": "bytes32",
          "name": "",
          "type": "bytes32"
        }
      ],
      "stateMutability": "view",
      "type": "function"
    },
    {
      "inputs": [],
      "name": "renounceOwnership",
      "outputs": [],
      "stateMutability": "nonpayable",
      "type": "function"
    },
    {
      "inputs": [
        {
          "internalType": "string",
          "name": "roleName",
          "type": "string"
        }
      ],
      "name": "roleIndexForName",
      "outputs": [
        {
          "internalType": "enum BulkDisbursableNFTs.Role",
          "name": "role",
          "type": "uint8"
        }
      ],
      "stateMutability": "pure",
      "type": "function"
    },
    {
      "inputs": [
        {
          "internalType": "enum BulkDisbursableNFTs.Role",
          "name": "index",
          "type": "uint8"
        }
      ],
      "name": "roleNameByIndex",
      "outputs": [
        {
          "internalType": "string",
          "name": "",
          "type": "string"
        }
      ],
      "stateMutability": "pure",
      "type": "function"
    },
    {
      "inputs": [
        {
          "internalType": "enum BulkDisbursableNFTs.Role",
          "name": "role",
          "type": "uint8"
        }
      ],
      "name": "roleToken",
      "outputs": [
        {
          "internalType": "uint256",
          "name": "id",
          "type": "uint256"
        }
      ],
      "stateMutability": "view",
      "type": "function"
    },
    {
      "inputs": [
        {
          "internalType": "enum BulkDisbursableNFTs.Role",
          "name": "role",
          "type": "uint8"
        },
        {
          "internalType": "uint256",
          "name": "index",
          "type": "uint256"
        }
      ],
      "name": "roleToken",
      "outputs": [
        {
          "internalType": "uint256",
          "name": "id",
          "type": "uint256"
        }
      ],
      "stateMutability": "view",
      "type": "function"
    },
    {
      "inputs": [
        {
          "internalType": "address",
          "name": "from",
          "type": "address"
        },
        {
          "internalType": "address",
          "name": "to",
          "type": "address"
        },
        {
          "internalType": "uint256[]",
          "name": "ids",
          "type": "uint256[]"
        },
        {
          "internalType": "uint256[]",
          "name": "amounts",
          "type": "uint256[]"
        },
        {
          "internalType": "bytes",
          "name": "data",
          "type": "bytes"
        }
      ],
      "name": "safeBatchTransferFrom",
      "outputs": [],
      "stateMutability": "nonpayable",
      "type": "function"
    },
    {
      "inputs": [
        {
          "internalType": "address",
          "name": "from",
          "type": "address"
        },
        {
          "internalType": "address",
          "name": "to",
          "type": "address"
        },
        {
          "internalType": "uint256",
          "name": "id",
          "type": "uint256"
        },
        {
          "internalType": "uint256",
          "name": "amount",
          "type": "uint256"
        },
        {
          "internalType": "bytes",
          "name": "data",
          "type": "bytes"
        }
      ],
      "name": "safeTransferFrom",
      "outputs": [],
      "stateMutability": "nonpayable",
      "type": "function"
    },
    {
      "inputs": [
        {
          "internalType": "address",
          "name": "operator",
          "type": "address"
        },
        {
          "internalType": "bool",
          "name": "approved",
          "type": "bool"
        }
      ],
      "name": "setApprovalForAll",
      "outputs": [],
      "stateMutability": "nonpayable",
      "type": "function"
    },
    {
      "inputs": [
        {
          "internalType": "string",
          "name": "_name",
          "type": "string"
        },
        {
          "internalType": "string",
          "name": "_symbol",
          "type": "string"
        }
      ],
      "name": "setDescription",
      "outputs": [],
      "stateMutability": "nonpayable",
      "type": "function"
    },
    {
      "inputs": [
        {
          "internalType": "uint256",
          "name": "id",
          "type": "uint256"
        },
        {
          "internalType": "int64",
          "name": "max",
          "type": "int64"
        }
      ],
      "name": "setMax",
      "outputs": [],
      "stateMutability": "nonpayable",
      "type": "function"
    },
    {
      "inputs": [
        {
          "internalType": "uint256",
          "name": "id",
          "type": "uint256"
        },
        {
          "internalType": "string",
          "name": "newURI",
          "type": "string"
        }
      ],
      "name": "setURI",
      "outputs": [],
      "stateMutability": "nonpayable",
      "type": "function"
    },
    {
      "inputs": [
        {
          "internalType": "bytes4",
          "name": "interfaceId",
          "type": "bytes4"
        }
      ],
      "name": "supportsInterface",
      "outputs": [
        {
          "internalType": "bool",
          "name": "",
          "type": "bool"
        }
      ],
      "stateMutability": "view",
      "type": "function"
    },
    {
      "inputs": [],
      "name": "symbol",
      "outputs": [
        {
          "internalType": "string",
          "name": "",
          "type": "string"
        }
      ],
      "stateMutability": "view",
      "type": "function"
    },
    {
      "inputs": [
        {
          "internalType": "uint256",
          "name": "index",
          "type": "uint256"
        }
      ],
      "name": "tokenByIndex",
      "outputs": [
        {
          "internalType": "uint256",
          "name": "id",
          "type": "uint256"
        }
      ],
      "stateMutability": "view",
      "type": "function"
    },
    {
      "inputs": [
        {
          "internalType": "uint256",
          "name": "id",
          "type": "uint256"
        }
      ],
      "name": "tokenIndex",
      "outputs": [
        {
          "internalType": "uint256",
          "name": "index",
          "type": "uint256"
        }
      ],
      "stateMutability": "view",
      "type": "function"
    },
    {
      "inputs": [
        {
          "internalType": "address",
          "name": "owner",
          "type": "address"
        },
        {
          "internalType": "uint256",
          "name": "index",
          "type": "uint256"
        }
      ],
      "name": "tokenOfOwnerByIndex",
      "outputs": [
        {
          "internalType": "uint256",
          "name": "id",
          "type": "uint256"
        }
      ],
      "stateMutability": "view",
      "type": "function"
    },
    {
      "inputs": [
        {
          "internalType": "uint256",
          "name": "id",
          "type": "uint256"
        }
      ],
      "name": "totalSupply",
      "outputs": [
        {
          "internalType": "uint256",
          "name": "",
          "type": "uint256"
        }
      ],
      "stateMutability": "view",
      "type": "function"
    },
    {
      "inputs": [
        {
          "internalType": "address",
          "name": "newOwner",
          "type": "address"
        }
      ],
      "name": "transferOwnership",
      "outputs": [],
      "stateMutability": "nonpayable",
      "type": "function"
    },
    {
      "inputs": [],
      "name": "typeSupply",
      "outputs": [
        {
          "internalType": "uint256",
          "name": "count",
          "type": "uint256"
        }
      ],
      "stateMutability": "view",
      "type": "function"
    },
    {
      "inputs": [
        {
          "internalType": "uint256",
          "name": "",
          "type": "uint256"
        }
      ],
      "name": "uintValues",
      "outputs": [
        {
          "internalType": "uint256",
          "name": "",
          "type": "uint256"
        }
      ],
      "stateMutability": "view",
      "type": "function"
    },
    {
      "inputs": [
        {
          "internalType": "address",
          "name": "newImplementation",
          "type": "address"
        }
      ],
      "name": "upgradeTo",
      "outputs": [],
      "stateMutability": "nonpayable",
      "type": "function"
    },
    {
      "inputs": [
        {
          "internalType": "address",
          "name": "newImplementation",
          "type": "address"
        },
        {
          "internalType": "bytes",
          "name": "data",
          "type": "bytes"
        }
      ],
      "name": "upgradeToAndCall",
      "outputs": [],
      "stateMutability": "payable",
      "type": "function"
    },
    {
      "inputs": [
        {
          "internalType": "uint256",
          "name": "id",
          "type": "uint256"
        }
      ],
      "name": "uri",
      "outputs": [
        {
          "internalType": "string",
          "name": "metadata",
          "type": "string"
        }
      ],
      "stateMutability": "view",
      "type": "function"
    }
  ],
  "bytecode": "0x60a06040523060601b6080523480156200001857600080fd5b50600054610100900460ff16158080156200003a5750600054600160ff909116105b806200006a575062000057306200014460201b62002b811760201c565b1580156200006a575060005460ff166001145b620000d25760405162461bcd60e51b815260206004820152602e60248201527f496e697469616c697a61626c653a20636f6e747261637420697320616c72656160448201526d191e481a5b9a5d1a585b1a5e995960921b606482015260840160405180910390fd5b6000805460ff191660011790558015620000f6576000805461ff0019166101001790555b80156200013d576000805461ff0019169055604051600181527f7f26b83ff96e1f2b6a682f133852f6798a09c465da95921460cefb38474024989060200160405180910390a15b5062000153565b6001600160a01b03163b151590565b60805160601c615f5a6200018e600039600081816113e10152818161142101528181611961015281816119a10152611ae80152615f5a6000f3fe6080604052600436106102645760003560e01c8062fdd58e1461026957806301ffc9a71461029c5780630583e9f8146102cc57806306fdde03146102ec5780630e89341c1461030e5780630ec0370f1461032e57806311ef04c41461035057806314c464271461037057806316730ab01461039057806319e0755c146103b05780632eb2c2d6146103d05780632f745c59146103f05780633659cfe6146104105780633dbe35de146104305780634468031f1461045057806348289589146104705780634a80070f146104905780634cd88b76146104b05780634e1273f4146104d05780634f1ef286146104fd5780634f558e79146105105780634f6ccce71461053057806352d1902d14610550578063573b9d31146105655780635d5664e1146105855780636755d456146105a55780636b20c454146105c55780636fc0020b146105e5578063715018a614610605578063731133e91461061a578063778f5a7b1461063a5780637b59c72a14610667578063814c245014610687578063862440e2146106a75780638da5cb5b146106c757806395d89b41146106f45780639d969a9c146107095780639e97b8f61461071e578063a22cb4651461073e578063aa8e90661461075e578063b0bdf2611461077e578063b383489a1461079e578063bd85b039146107cc578063c3c8df99146107ec578063d945e78b1461080c578063dabc69871461083a578063e688f89d1461087e578063e985e9c51461089e578063edc79bac146108e7578063efc81a8c146108fc578063f242432a14610911578063f2fde38b14610931578063f5298aca14610951578063fde4047a14610971575b600080fd5b34801561027557600080fd5b50610289610284366004615089565b610991565b6040519081526020015b60405180910390f35b3480156102a857600080fd5b506102bc6102b7366004615265565b610a2c565b6040519015158152602001610293565b3480156102d857600080fd5b506102896102e7366004615463565b610a7c565b3480156102f857600080fd5b50610301610aea565b6040516102939190615789565b34801561031a57600080fd5b50610301610329366004615463565b610b79565b34801561033a57600080fd5b5061034e610349366004615198565b610e98565b005b34801561035c57600080fd5b5061034e61036b36600461547b565b610eef565b34801561037c57600080fd5b5061028961038b36600461529d565b610eff565b34801561039c57600080fd5b506102896103ab366004615314565b610f0c565b3480156103bc57600080fd5b506102bc6103cb36600461529d565b6112fa565b3480156103dc57600080fd5b5061034e6103eb366004614e38565b611306565b3480156103fc57600080fd5b5061028961040b366004615089565b611352565b34801561041c57600080fd5b5061034e61042b366004614dec565b6113d6565b34801561043c57600080fd5b5061028961044b36600461539b565b61149f565b34801561045c57600080fd5b506102bc61046b366004615314565b611616565b34801561047c57600080fd5b506102bc61048b36600461539b565b61163d565b34801561049c57600080fd5b506102896104ab3660046151f7565b61164a565b3480156104bc57600080fd5b5061034e6104cb3660046153b6565b611657565b3480156104dc57600080fd5b506104f06104eb366004615142565b6117f5565b60405161029391906156fa565b61034e61050b36600461503e565b611956565b34801561051c57600080fd5b506102bc61052b366004615463565b611a0c565b34801561053c57600080fd5b5061028961054b366004615463565b611a1f565b34801561055c57600080fd5b50610289611adb565b34801561057157600080fd5b5061034e61058036600461534f565b611b8a565b34801561059157600080fd5b5061034e6105a03660046152b7565b611bae565b3480156105b157600080fd5b5061034e6105c03660046153b6565b611bbb565b3480156105d157600080fd5b5061034e6105e0366004614faf565b611bde565b3480156105f157600080fd5b50610301610600366004615463565b611c26565b34801561061157600080fd5b5061034e611c46565b34801561062657600080fd5b506102bc6106353660046150e4565b611c5a565b34801561064657600080fd5b5061065a61065536600461541e565b611e62565b6040516102939190615732565b34801561067357600080fd5b5061034e6106823660046152d2565b6121aa565b34801561069357600080fd5b506103016106a236600461529d565b6121b7565b3480156106b357600080fd5b5061034e6106c23660046154af565b612586565b3480156106d357600080fd5b506106dc612662565b6040516001600160a01b039091168152602001610293565b34801561070057600080fd5b50610301612671565b34801561071557600080fd5b5061028961267f565b34801561072a57600080fd5b506102bc6107393660046152b7565b612697565b34801561074a57600080fd5b5061034e610759366004615015565b6126a5565b34801561076a57600080fd5b5061034e610779366004615314565b6126b0565b34801561078a57600080fd5b50610289610799366004614f3f565b6126bd565b3480156107aa57600080fd5b506102896107b9366004615463565b6101a36020526000908152604090205481565b3480156107d857600080fd5b506102896107e7366004615463565b61291d565b3480156107f857600080fd5b506102bc610807366004614dec565b61292f565b34801561081857600080fd5b50610289610827366004615463565b6101a46020526000908152604090205481565b34801561084657600080fd5b5061086b610855366004615463565b6101a26020526000908152604090205460070b81565b60405160079190910b8152602001610293565b34801561088a57600080fd5b5061086b610899366004615463565b612964565b3480156108aa57600080fd5b506102bc6108b9366004614e06565b6001600160a01b03918216600090815260666020908152604080832093909416825291909152205460ff1690565b3480156108f357600080fd5b506102bc6129a5565b34801561090857600080fd5b506102896129b0565b34801561091d57600080fd5b5061034e61092c366004614edd565b6129d1565b34801561093d57600080fd5b5061034e61094c366004614dec565b612a16565b34801561095d57600080fd5b5061034e61096c3660046150b2565b612a8c565b34801561097d57600080fd5b5061034e61098c36600461539b565b612b16565b60006001600160a01b038316610a015760405162461bcd60e51b815260206004820152602a60248201527f455243313135353a2061646472657373207a65726f206973206e6f742061207660448201526930b634b21037bbb732b960b11b60648201526084015b60405180910390fd5b5060008181526065602090815260408083206001600160a01b03861684529091529020545b92915050565b60006001600160e01b03198216636cdb3d1360e11b1480610a5d57506001600160e01b031982166303a24d0760e21b145b80610a2657506301ffc9a760e01b6001600160e01b0319831614610a26565b6000818152610195602052604090205480610ae55760405162461bcd60e51b815260206004820152602360248201527f5468652072657175657374656420746f6b656e20646f6573206e6f742065786960448201526239ba1760e91b60648201526084016109f8565b919050565b6101918054610af890615cb5565b80601f0160208091040260200160405190810160405280929190818152602001828054610b2490615cb5565b8015610b715780601f10610b4657610100808354040283529160200191610b71565b820191906000526020600020905b815481529060010190602001808311610b5457829003601f168201915b505050505081565b600081815261019360205260409020805460609190610b9790615cb5565b80601f0160208091040260200160405190810160405280929190818152602001828054610bc390615cb5565b8015610c105780601f10610be557610100808354040283529160200191610c10565b820191906000526020600020905b815481529060010190602001808311610bf357829003601f168201915b50505050509050805160001415610ae55760006008610c32600d610100615c2c565b610c3c9190615c66565b60ff166001610c4d60086002615b81565b610c579190615c4f565b901b831690506008610c6c600d610100615c2c565b610c769190615c66565b60ff166001901b811480610ccb57506008610c94600d610100615c2c565b610c9e9190615c66565b600a60ff919091161b6008610cb6600d610100615c2c565b610cc09190615c66565b60ff166001901b1781145b15610e925760006008610ce1600d610100615c2c565b610ceb9190615c66565b600160ff919091161b6008610d03600d610100615c2c565b610d0d9190615c66565b60ff166001610d1e60086002615b81565b610d289190615c4f565b901b19600160088160038083610d41600d610100615c2c565b610d4b9190615c66565b610d559190615c66565b610d5f9190615c66565b610d699190615c66565b610d739190615c66565b610d7d9190615c66565b60ff166001610d8d816002615b81565b610d979190615c4f565b901b6003806008610dab600d610100615c2c565b610db59190615c66565b610dbf9190615c66565b610dc99190615c66565b60ff166001901b1719600160206002610de29190615b81565b610dec9190615c4f565b198716161617600081815261019360205260409020805491925090610e1090615cb5565b80601f0160208091040260200160405190810160405280929190818152602001828054610e3c90615cb5565b8015610e895780601f10610e5e57610100808354040283529160200191610e89565b820191906000526020600020905b815481529060010190602001808311610e6c57829003601f168201915b50505050509250505b50919050565b60005b8351811015610ee957610ed8848281518110610ec757634e487b7160e01b600052603260045260246000fd5b602002602001015184600185611c5a565b50610ee281615d16565b9050610e9b565b50505050565b610efb82826000612b90565b5050565b6000610a2682600061149f565b600080610f1885610eff565b90506000836008610f2c600d610100615c2c565b610f369190615c66565b600a60ff919091161b8317176000818152610195602052604090205490915015610f635791506112f39050565b6000604051806101000160405280866001600860016003806008600d60ff16610100610f8f9190615c2c565b610f999190615c66565b610fa39190615c66565b610fad9190615c66565b610fb79190615c66565b610fc19190615c66565b610fcb9190615c66565b60ff166001610fdb816002615b81565b610fe59190615c4f565b901b6003806008610ff9600d610100615c2c565b6110039190615c66565b61100d9190615c66565b6110179190615c66565b600160ff919091161b87171717815260200186600380600861103c600d610100615c2c565b6110469190615c66565b6110509190615c66565b61105a9190615c66565b60ff166001901b86171781526020016001600860016003806008600d60ff166101006110869190615c2c565b6110909190615c66565b61109a9190615c66565b6110a49190615c66565b6110ae9190615c66565b6110b89190615c66565b6110c29190615c66565b60ff1660016110d2816002615b81565b6110dc9190615c4f565b901b60038060086110f0600d610100615c2c565b6110fa9190615c66565b6111049190615c66565b61110e9190615c66565b600160ff919091161b86171781526020016003806008611131600d610100615c2c565b61113b9190615c66565b6111459190615c66565b61114f9190615c66565b60ff166001901b85178152602001866001600860016003806008600d60ff1661010061117b9190615c2c565b6111859190615c66565b61118f9190615c66565b6111999190615c66565b6111a39190615c66565b6111ad9190615c66565b6111b79190615c66565b60ff1660016111c7816002615b81565b6111d19190615c4f565b901b86171781526020016001600881600380836111f1600d610100615c2c565b6111fb9190615c66565b6112059190615c66565b61120f9190615c66565b6112199190615c66565b6112239190615c66565b61122d9190615c66565b60ff16600161123d816002615b81565b6112479190615c4f565b901b851781528685176020820152604001849052905060005b60088160ff1610156112ea57600061129f88848460ff166008811061129557634e487b7160e01b600052603260045260246000fd5b6020020151610991565b11156112d857818160ff16600881106112c857634e487b7160e01b600052603260045260246000fd5b60200201519450505050506112f3565b806112e281615d31565b915050611260565b50600093505050505b9392505050565b6000610a268233612697565b6001600160a01b038516331480611322575061132285336108b9565b61133e5760405162461bcd60e51b81526004016109f89061579c565b61134b8585858585612c5a565b5050505050565b6001600160a01b03821660009081526101966020526040812054821061138a5760405162461bcd60e51b81526004016109f8906159bd565b6001600160a01b0383166000908152610196602052604090208054839081106113c357634e487b7160e01b600052603260045260246000fd5b9060005260206000200154905092915050565b306001600160a01b037f000000000000000000000000000000000000000000000000000000000000000016141561141f5760405162461bcd60e51b81526004016109f890615877565b7f00000000000000000000000000000000000000000000000000000000000000006001600160a01b0316611451612e11565b6001600160a01b0316146114775760405162461bcd60e51b81526004016109f8906158b1565b61148081612e2d565b6040805160008082526020820190925261149c91839190612eb3565b50565b60006114ad60206002615b81565b82106114b9602061302d565b6040516020016114c99190615608565b604051602081830303815290604052906114f65760405162461bcd60e51b81526004016109f89190615789565b5081600184600c81111561151a57634e487b7160e01b600052602160045260246000fd5b1461152657600061157f565b6001600380600861153a600d610100615c2c565b6115449190615c66565b61154e9190615c66565b6115589190615c66565b6115629190615c66565b60ff166001611572816002615b81565b61157c9190615c4f565b901b5b6008600160038083611594600d610100615c2c565b61159e9190615c66565b6115a89190615c66565b6115b29190615c66565b6115bc9190615c66565b6115c69190615c66565b60ff1685600c8111156115e957634e487b7160e01b600052602160045260246000fd5b901b60086115fa600d610100615c2c565b6116049190615c66565b60ff166001901b171717905092915050565b600081815261019560205260408120546116339085908590610f0c565b1515949350505050565b60006112f3833384611616565b60006112f33384846126bd565b600054610100900460ff16158080156116775750600054600160ff909116105b80611698575061168630612b81565b158015611698575060005460ff166001145b6116fb5760405162461bcd60e51b815260206004820152602e60248201527f496e697469616c697a61626c653a20636f6e747261637420697320616c72656160448201526d191e481a5b9a5d1a585b1a5e995960921b60648201526084016109f8565b6000805460ff19166001179055801561171e576000805461ff0019166101001790555b611726613146565b6117646040518060400160405280602081526020017f4572726f723a2053696e676c6520546f6b656e20555249204e6f742055736564815250613175565b61176c6131a5565b6117746131a5565b61177c6131a5565b61019480546001810182556000918252600080516020615e9e83398151915201556117a985858585611bbb565b801561134b576000805461ff0019169055604051600181527f7f26b83ff96e1f2b6a682f133852f6798a09c465da95921460cefb38474024989060200160405180910390a15050505050565b6060815183511461185a5760405162461bcd60e51b815260206004820152602960248201527f455243313135353a206163636f756e747320616e6420696473206c656e677468604482015268040dad2e6dac2e8c6d60bb1b60648201526084016109f8565b600083516001600160401b0381111561188357634e487b7160e01b600052604160045260246000fd5b6040519080825280602002602001820160405280156118ac578160200160208202803683370190505b50905060005b845181101561194e576119138582815181106118de57634e487b7160e01b600052603260045260246000fd5b602002602001015185838151811061190657634e487b7160e01b600052603260045260246000fd5b6020026020010151610991565b82828151811061193357634e487b7160e01b600052603260045260246000fd5b602090810291909101015261194781615d16565b90506118b2565b509392505050565b306001600160a01b037f000000000000000000000000000000000000000000000000000000000000000016141561199f5760405162461bcd60e51b81526004016109f890615877565b7f00000000000000000000000000000000000000000000000000000000000000006001600160a01b03166119d1612e11565b6001600160a01b0316146119f75760405162461bcd60e51b81526004016109f8906158b1565b611a0082612e2d565b610efb82826001612eb3565b600080611a188361291d565b1192915050565b6000808211611a835760405162461bcd60e51b815260206004820152602a60248201527f4552432d3131353520456e756d657261626c653a20746f6b656e7320696e64656044820152697865642066726f6d203160b01b60648201526084016109f8565b61019454821115611aa65760405162461bcd60e51b81526004016109f8906159bd565b610194805483908110611ac957634e487b7160e01b600052603260045260246000fd5b90600052602060002001549050919050565b6000306001600160a01b037f00000000000000000000000000000000000000000000000000000000000000001614611b765760405162461bcd60e51b815260206004820152603860248201527f555550535570677261646561626c653a206d757374206e6f742062652063616c6044820152771b1959081d1a1c9bdd59da0819195b1959d85d1958d85b1b60421b60648201526084016109f8565b50600080516020615ede8339815191525b90565b610ee984848415611ba357611b9e85610a7c565b611ba6565b60005b8460006131cc565b610efb8282600080611b8a565b611bc36133f8565b611bd06101918585614a97565b5061134b6101928383614a97565b6001600160a01b038316331480611bfa5750611bfa83336108b9565b611c165760405162461bcd60e51b81526004016109f89061579c565b611c21838383613457565b505050565b61019781600b8110611c3757600080fd5b018054909150610af890615cb5565b611c4e6133f8565b611c586000613600565b565b6000600160088160038083611c72600d610100615c2c565b611c7c9190615c66565b611c869190615c66565b611c909190615c66565b611c9a9190615c66565b611ca49190615c66565b611cae9190615c66565b60ff166001611cbe816002615b81565b611cc89190615c4f565b901b600160088160038083611ce0600d610100615c2c565b611cea9190615c66565b611cf49190615c66565b611cfe9190615c66565b611d089190615c66565b611d129190615c66565b611d1c9190615c66565b60ff166001611d2c816002615b81565b611d369190615c4f565b901b85161415611d9a5760405162461bcd60e51b815260206004820152602960248201527f43616e6e6f74206d696e7420696e7465726e616c20746f6b656e732066726f6d6044820152681037baba39b4b2329760b91b60648201526084016109f8565b60016003806008611dae600d610100615c2c565b611db89190615c66565b611dc29190615c66565b611dcc9190615c66565b611dd69190615c66565b60ff166001901b60016003806008600d60ff16610100611df69190615c2c565b611e009190615c66565b611e0a9190615c66565b611e149190615c66565b611e1e9190615c66565b60ff166001901b8516148015611e3d57506000611e3b8686610991565b115b15611e4a57506000611e5a565b611e5685858585613652565b5060015b949350505050565b60008082604051602001611e76919061555e565b604051602081830303815290604052805190602001209050604051602001611ead906829bab832b93ab9b2b960b91b815260090190565b60405160208183030381529060405280519060200120811415611ed35750600192915050565b6040516526b4b73a32b960d11b602082015260260160405160208183030381529060405280519060200120811415611f0e5750600292915050565b6040516521b0b9ba32b960d11b602082015260260160405160208183030381529060405280519060200120811415611f495750600392915050565b604051692a3930b739b332b932b960b11b6020820152602a0160405160208183030381529060405280519060200120811415611f885750600492915050565b6040516921b7b73334b3bab932b960b11b6020820152602a0160405160208183030381529060405280519060200120811415611fc75750600592915050565b6040516926b0b4b73a30b4b732b960b11b6020820152602a01604051602081830303815290604052805190602001208114156120065750600692915050565b6040516621b932b0ba37b960c91b6020820152602701604051602081830303815290604052805190602001208114156120425750600792915050565b604051662634b6b4ba32b960c91b60208201526027016040516020818303038152906040528051906020012081141561207e5750600892915050565b60405165213ab93732b960d11b6020820152602601604051602081830303815290604052805190602001208114156120b95750600992915050565b604051682232b9ba3937bcb2b960b91b6020820152602901604051602081830303815290604052805190602001208114156120f75750600a92915050565b604051654f7261636c6560d01b6020820152602601604051602081830303815290604052805190602001208114156121325750600b92915050565b6040516b14995cd95c9d995913185cdd60a21b6020820152602c01604051602081830303815290604052805190602001208114156121735750600c92915050565b82604051602001612184919061557a565b60408051601f198184030181529082905262461bcd60e51b82526109f891600401615789565b611c218383600084611b8a565b6060600182600c8111156121db57634e487b7160e01b600052602160045260246000fd5b141561220657505060408051808201909152600981526829bab832b93ab9b2b960b91b602082015290565b600282600c81111561222857634e487b7160e01b600052602160045260246000fd5b141561225057505060408051808201909152600681526526b4b73a32b960d11b602082015290565b600382600c81111561227257634e487b7160e01b600052602160045260246000fd5b141561229a57505060408051808201909152600681526521b0b9ba32b960d11b602082015290565b600482600c8111156122bc57634e487b7160e01b600052602160045260246000fd5b14156122e857505060408051808201909152600a8152692a3930b739b332b932b960b11b602082015290565b600582600c81111561230a57634e487b7160e01b600052602160045260246000fd5b141561233657505060408051808201909152600a81526921b7b73334b3bab932b960b11b602082015290565b600682600c81111561235857634e487b7160e01b600052602160045260246000fd5b141561238457505060408051808201909152600a81526926b0b4b73a30b4b732b960b11b602082015290565b600782600c8111156123a657634e487b7160e01b600052602160045260246000fd5b14156123cf57505060408051808201909152600781526621b932b0ba37b960c91b602082015290565b600882600c8111156123f157634e487b7160e01b600052602160045260246000fd5b141561241a5750506040805180820190915260078152662634b6b4ba32b960c91b602082015290565b600982600c81111561243c57634e487b7160e01b600052602160045260246000fd5b1415612464575050604080518082019091526006815265213ab93732b960d11b602082015290565b600a82600c81111561248657634e487b7160e01b600052602160045260246000fd5b14156124b15750506040805180820190915260098152682232b9ba3937bcb2b960b91b602082015290565b600b82600c8111156124d357634e487b7160e01b600052602160045260246000fd5b14156124fb5750506040805180820190915260068152654f7261636c6560d01b602082015290565b600c82600c81111561251d57634e487b7160e01b600052602160045260246000fd5b141561254b57505060408051808201909152600c81526b14995cd95c9d995913185cdd60a21b602082015290565b61257682600c81111561256e57634e487b7160e01b600052602160045260246000fd5b60ff1661302d565b60405160200161218491906155b5565b61259160058461163d565b8061259f575061259f6129a5565b6126085760405162461bcd60e51b815260206004820152603460248201527f596f75206d7573742068617665206120436f6e6669677572657220746f6b656e604482015273103a379031b430b733b29036b2ba30b230ba309760611b60648201526084016109f8565b600083815261019360205260409020612622908383614a97565b50827f6bb7ff708619ba0610cba295a58592e0451dee2622938c8755667688daf3529b838360405161265592919061575a565b60405180910390a2505050565b6097546001600160a01b031690565b6101928054610af890615cb5565b6101945460009061269290600190615c4f565b905090565b60006112f383836000611616565b610efb338383613765565b611c218383836000611b8a565b610194546000908060086126d4600d610100615c2c565b6126de9190615c66565b60ff166009901b1791506126f360078361163d565b8061270157506127016129a5565b6127695760405162461bcd60e51b815260206004820152603360248201527f596f75206d757374206861766520612043726561746f7220746f6b656e20746f6044820152721031b932b0ba32903732bb903a37b5b2b7399760691b60648201526084016109f8565b610194805460018101909155600080516020615e9e833981519152018290556000828152610195602052604081208290555b84518110156127ec576127da8582815181106127c757634e487b7160e01b600052603260045260246000fd5b60200260200101518784600060016131cc565b806127e481615d16565b91505061279b565b5060005b835181101561283c5761282a84828151811061281c57634e487b7160e01b600052603260045260246000fd5b602002602001015183612b16565b8061283481615d16565b9150506127f0565b50604080518381526001600160a01b03871660208201527f7757890bcab34d673dfca6b71df1b57f75a2fe4231d6e8de726caf534ab1fdd6910160405180910390a1600061288d6007336000610f0c565b905060038060086128a1600d610100615c2c565b6128ab9190615c66565b6128b59190615c66565b6128bf9190615c66565b600160ff919091161b60038060086128da600d610100615c2c565b6128e49190615c66565b6128ee9190615c66565b6128f89190615c66565b60ff166001901b8216141561291457612914335b826001613846565b50509392505050565b600090815260fb602052604090205490565b600061293c600183612697565b80610a26575061294a612662565b6001600160a01b0316826001600160a01b03161492915050565b6000808260405160200161297891906155f1565b60408051601f19818403018152918152815160209283012060009081526101a49092529020549392505050565b60006126923361292f565b604080516000808252602082019092526129cb3382836126bd565b91505090565b6001600160a01b0385163314806129ed57506129ed85336108b9565b612a095760405162461bcd60e51b81526004016109f89061579c565b61134b8585858585613950565b612a1e6133f8565b6001600160a01b038116612a835760405162461bcd60e51b815260206004820152602660248201527f4f776e61626c653a206e6577206f776e657220697320746865207a65726f206160448201526564647265737360d01b60648201526084016109f8565b61149c81613600565b612a9860098484611616565b80612aa75750612aa78361292f565b612b0b5760405162461bcd60e51b815260206004820152602f60248201527f596f75206d75737420686176652061204275726e657220746f6b656e20746f2060448201526e3232b9ba3937bc903a37b5b2b7399760891b60648201526084016109f8565b611c21838383613846565b6000612b22838361149f565b90506008612b33600d610100615c2c565b612b3d9190615c66565b610194805460018101909155600a60ff929092169190911b91909117600080516020615e9e8339815191528201819055600090815261019560205260409020555050565b6001600160a01b03163b151590565b80612c1457612ba060088461163d565b80612bae5750612bae6129a5565b612c145760405162461bcd60e51b815260206004820152603160248201527f596f75206d75737420686176652061204c696d6974657220746f6b656e20746f6044820152701031b430b733b29038bab0b73a34ba3c9760791b60648201526084016109f8565b600083604051602001612c2791906155f1565b60408051601f19818403018152918152815160209283012060009081526101a4909252902060079390930b909255505050565b8151835114612c7b5760405162461bcd60e51b81526004016109f890615a56565b6001600160a01b038416612ca15760405162461bcd60e51b81526004016109f8906158eb565b33612cb0818787878787613a7a565b60005b8451811015612db5576000858281518110612cde57634e487b7160e01b600052603260045260246000fd5b602002602001015190506000858381518110612d0a57634e487b7160e01b600052603260045260246000fd5b60209081029190910181015160008481526065835260408082206001600160a01b038e168352909352919091205490915081811015612d5b5760405162461bcd60e51b81526004016109f890615973565b60008381526065602090815260408083206001600160a01b038e8116855292528083208585039055908b16825281208054849290612d9a908490615b12565b9250508190555050505080612dae90615d16565b9050612cb3565b50846001600160a01b0316866001600160a01b0316826001600160a01b0316600080516020615e5e8339815191528787604051612df392919061570d565b60405180910390a4612e098187878787876143ad565b505050505050565b600080516020615ede833981519152546001600160a01b031690565b612e3760066112fa565b80612e455750612e456129a5565b61149c5760405162461bcd60e51b815260206004820152603960248201527f596f75206d75737420686176652061204d61696e7461696e657220746f6b656e604482015278103a37903ab833b930b232903a34329031b7b73a3930b1ba1760391b60648201526084016109f8565b7f4910fdfa16fed3260ed0e7147f7cc6da11a60208b5b9406d12a635614ffd91435460ff1615612ee657611c218361451f565b826001600160a01b03166352d1902d6040518163ffffffff1660e01b815260040160206040518083038186803b158015612f1f57600080fd5b505afa925050508015612f4f575060408051601f3d908101601f19168201909252612f4c9181019061524d565b60015b612fb25760405162461bcd60e51b815260206004820152602e60248201527f45524331393637557067726164653a206e657720696d706c656d656e7461746960448201526d6f6e206973206e6f74205555505360901b60648201526084016109f8565b600080516020615ede83398151915281146130215760405162461bcd60e51b815260206004820152602960248201527f45524331393637557067726164653a20756e737570706f727465642070726f786044820152681a58589b195555525160ba1b60648201526084016109f8565b50611c218383836145b9565b6060816130515750506040805180820190915260018152600360fc1b602082015290565b8160005b811561307b578061306581615d16565b91506130749050600a83615b2a565b9150613055565b6000816001600160401b038111156130a357634e487b7160e01b600052604160045260246000fd5b6040519080825280601f01601f1916602001820160405280156130cd576020820181803683370190505b5090505b8415611e5a576130e2600183615c4f565b91506130ef600a86615d51565b6130fa906030615b12565b60f81b81838151811061311d57634e487b7160e01b600052603260045260246000fd5b60200101906001600160f81b031916908160001a90535061313f600a86615b2a565b94506130d1565b600054610100900460ff1661316d5760405162461bcd60e51b81526004016109f890615a0b565b611c586145de565b600054610100900460ff1661319c5760405162461bcd60e51b81526004016109f890615a0b565b61149c8161460e565b600054610100900460ff16611c585760405162461bcd60e51b81526004016109f890615a0b565b806132ee57600185600c8111156131f357634e487b7160e01b600052602160045260246000fd5b141561326e576132016129a5565b6132695760405162461bcd60e51b815260206004820152603360248201527f596f75206d75737420626520612053757065727573657220746f206372656174604482015272329037ba3432b91029bab832b93ab9b2b9399760691b60648201526084016109f8565b6132ee565b61327960038461163d565b8061328757506132876129a5565b6132ee5760405162461bcd60e51b815260206004820152603260248201527f596f75206d7573742068617665207468652043617374657220726f6c6520746f6044820152711030b9b9b4b3b7103732bb903937b632b99760711b60648201526084016109f8565b6000826132fc576000613334565b600380600861330e600d610100615c2c565b6133189190615c66565b6133229190615c66565b61332c9190615c66565b60ff166001901b5b826133405760006133af565b600160088160038083613356600d610100615c2c565b6133609190615c66565b61336a9190615c66565b6133749190615c66565b61337e9190615c66565b6133889190615c66565b6133929190615c66565b60ff1660016133a2816002615b81565b6133ac9190615c4f565b901b5b6133b9888761149f565b171790506133dc816133ca83612964565b6133d5906001615ac1565b6001612b90565b612e098582600160405180602001604052806000815250613652565b33613401612662565b6001600160a01b031614611c585760405162461bcd60e51b815260206004820181905260248201527f4f776e61626c653a2063616c6c6572206973206e6f7420746865206f776e657260448201526064016109f8565b6001600160a01b03831661347d5760405162461bcd60e51b81526004016109f890615930565b805182511461349e5760405162461bcd60e51b81526004016109f890615a56565b60003390506134c181856000868660405180602001604052806000815250613a7a565b60005b83518110156135a55760008482815181106134ef57634e487b7160e01b600052603260045260246000fd5b60200260200101519050600084838151811061351b57634e487b7160e01b600052603260045260246000fd5b60209081029190910181015160008481526065835260408082206001600160a01b038c16835290935291909120549091508181101561356c5760405162461bcd60e51b81526004016109f890615833565b60009283526065602090815260408085206001600160a01b038b168652909152909220910390558061359d81615d16565b9150506134c4565b5060006001600160a01b0316846001600160a01b0316826001600160a01b0316600080516020615e5e83398151915286866040516135e492919061570d565b60405180910390a4604080516020810190915260009052610ee9565b609780546001600160a01b038381166001600160a01b0319831681179093556040519116919082907f8be0079c531659141344cd1fd0a4f28419497f9722a3daafe3b4186f6b6457e090600090a35050565b6001600160a01b0384166136b25760405162461bcd60e51b815260206004820152602160248201527f455243313135353a206d696e7420746f20746865207a65726f206164647265736044820152607360f81b60648201526084016109f8565b3360006136be8561463e565b905060006136cb8561463e565b90506136dc83600089858589613a7a565b60008681526065602090815260408083206001600160a01b038b1684529091528120805487929061370e908490615b12565b909155505060408051878152602081018790526001600160a01b03808a169260009291871691600080516020615e7e833981519152910160405180910390a461375c83600089898989614697565b50505050505050565b816001600160a01b0316836001600160a01b031614156137d95760405162461bcd60e51b815260206004820152602960248201527f455243313135353a2073657474696e6720617070726f76616c20737461747573604482015268103337b91039b2b63360b91b60648201526084016109f8565b6001600160a01b03838116600081815260666020908152604080832094871680845294825291829020805460ff191686151590811790915591519182527f17307eab39ab6107e8899845ad3d59bd9653f200f220920489ca2b5937696c31910160405180910390a3505050565b6001600160a01b03831661386c5760405162461bcd60e51b81526004016109f890615930565b3360006138788461463e565b905060006138858461463e565b90506138a583876000858560405180602001604052806000815250613a7a565b60008581526065602090815260408083206001600160a01b038a168452909152902054848110156138e85760405162461bcd60e51b81526004016109f890615833565b60008681526065602090815260408083206001600160a01b038b81168086529184528285208a8703905582518b81529384018a9052909290881691600080516020615e7e833981519152910160405180910390a460408051602081019091526000905261375c565b6001600160a01b0384166139765760405162461bcd60e51b81526004016109f8906158eb565b3360006139828561463e565b9050600061398f8561463e565b905061399f838989858589613a7a565b60008681526065602090815260408083206001600160a01b038c168452909152902054858110156139e25760405162461bcd60e51b81526004016109f890615973565b60008781526065602090815260408083206001600160a01b038d8116855292528083208985039055908a16825281208054889290613a21908490615b12565b909155505060408051888152602081018890526001600160a01b03808b16928c82169291881691600080516020615e7e833981519152910160405180910390a4613a6f848a8a8a8a8a614697565b505050505050505050565b613a826129a5565b613fe55760005b8351811015613fe357600160088160038083613aa8600d610100615c2c565b613ab29190615c66565b613abc9190615c66565b613ac69190615c66565b613ad09190615c66565b613ada9190615c66565b613ae49190615c66565b60ff166001613af4816002615b81565b613afe9190615c4f565b901b600160088160038083613b16600d610100615c2c565b613b209190615c66565b613b2a9190615c66565b613b349190615c66565b613b3e9190615c66565b613b489190615c66565b613b529190615c66565b60ff166001613b62816002615b81565b613b6c9190615c4f565b901b858381518110613b8e57634e487b7160e01b600052603260045260246000fd5b60200260200101511614613fd35760006001600160a01b03871615613bb4576004613bb7565b60025b9050600281600c811115613bdb57634e487b7160e01b600052602160045260246000fd5b1415613f35576000613c13868481518110613c0657634e487b7160e01b600052603260045260246000fd5b6020026020010151612964565b60070b12613cf157613c3e858381518110613c0657634e487b7160e01b600052603260045260246000fd5b60070b848381518110613c6157634e487b7160e01b600052603260045260246000fd5b6020026020010151613c99878581518110613c8c57634e487b7160e01b600052603260045260246000fd5b602002602001015161291d565b613ca39190615b12565b1315613cf15760405162461bcd60e51b815260206004820181905260248201527f4d6178696d756d206d696e7420616c6c6f77616e63652065786365656465642e60448201526064016109f8565b6008613d00600d610100615c2c565b613d0a9190615c66565b600160ff919091161b6008613d22600d610100615c2c565b613d2c9190615c66565b60ff166001613d3d60086002615b81565b613d479190615c4f565b901b868481518110613d6957634e487b7160e01b600052603260045260246000fd5b6020026020010151161415613e2357613daa6003868481518110613d9d57634e487b7160e01b600052603260045260246000fd5b602002602001015161163d565b80613db85750613db86129a5565b613e1e5760405162461bcd60e51b815260206004820152603160248201527f596f75206d757374206861766520612043617374657220746f6b656e20746f2060448201527036b4b73a103a37b5b2b71033b0ba32b99760791b60648201526084016109f8565b613fd1565b6000613e5a82336103ab898781518110613e4d57634e487b7160e01b600052603260045260246000fd5b6020026020010151610a7c565b9050613e8082878581518110613d9d57634e487b7160e01b600052603260045260246000fd5b613ee55760405162461bcd60e51b815260206004820152603060248201527f596f75206d75737420686176652061204d696e74657220746f6b656e20746f2060448201526f33b2b732b930ba32903a37b5b2b7399760811b60648201526084016109f8565b60006003806008613ef9600d610100615c2c565b613f039190615c66565b613f0d9190615c66565b613f179190615c66565b60ff166001901b82161115613f2f57613f2f3361290c565b50613fd1565b6001600160a01b03861615613fd157613f6881868481518110613d9d57634e487b7160e01b600052603260045260246000fd5b613fd15760405162461bcd60e51b815260206004820152603460248201527f596f75206d75737420686176652061205472616e73666572657220746f6b656e604482015273103a37903a3930b739b332b9103a37b5b2b7399760611b60648201526084016109f8565b505b613fdc81615d16565b9050613a89565b505b6001600160a01b0384161561420b5760005b835181101561420957610194600101600085838151811061402857634e487b7160e01b600052603260045260246000fd5b6020026020010151815260200190815260200160002054600014156140d45761019460000184828151811061406d57634e487b7160e01b600052603260045260246000fd5b60209081029190910181015182546001810184556000938452918320909101556101945485519091610195918790859081106140b957634e487b7160e01b600052603260045260246000fd5b60200260200101518152602001908152602001600020819055505b6101966000866001600160a01b03166001600160a01b03168152602001908152602001600020600101600085838151811061411f57634e487b7160e01b600052603260045260246000fd5b6020026020010151815260200190815260200160002054600014156141f9576001600160a01b038516600090815261019660205260409020845185908390811061417957634e487b7160e01b600052603260045260246000fd5b6020908102919091018101518254600181810185556000948552838520909101919091556001600160a01b03881683526101969091526040822080548751909391909201918790859081106141de57634e487b7160e01b600052603260045260246000fd5b60200260200101518152602001908152602001600020819055505b61420281615d16565b9050613ff7565b505b6001600160a01b0385161561439f5760005b835181101561439d5782818151811061424657634e487b7160e01b600052603260045260246000fd5b60200260200101516142728786848151811061190657634e487b7160e01b600052603260045260246000fd5b1161438d576001600160a01b038616600090815261019660205260408120855160019182019083908890869081106142ba57634e487b7160e01b600052603260045260246000fd5b60200260200101518152602001908152602001600020546142db9190615c4f565b6001600160a01b0388166000908152610196602052604090208054919250908290811061431857634e487b7160e01b600052603260045260246000fd5b90600052602060002001600090556101966000886001600160a01b03166001600160a01b03168152602001908152602001600020600101600086848151811061437157634e487b7160e01b600052603260045260246000fd5b6020026020010151815260200190815260200160002060009055505b61439681615d16565b905061421d565b505b612e09868686868686614768565b6143bf846001600160a01b0316612b81565b15612e095760405163bc197c8160e01b81526001600160a01b0385169063bc197c81906143f89089908990889088908890600401615657565b602060405180830381600087803b15801561441257600080fd5b505af1925050508015614442575060408051601f3d908101601f1916820190925261443f91810190615281565b60015b6144ef5761444e615da7565b806308c379a014156144885750614463615dbe565b8061446e575061448a565b8060405162461bcd60e51b81526004016109f89190615789565b505b60405162461bcd60e51b815260206004820152603460248201527f455243313135353a207472616e7366657220746f206e6f6e20455243313135356044820152732932b1b2b4bb32b91034b6b83632b6b2b73a32b960611b60648201526084016109f8565b6001600160e01b0319811663bc197c8160e01b1461375c5760405162461bcd60e51b81526004016109f8906157eb565b61452881612b81565b61458a5760405162461bcd60e51b815260206004820152602d60248201527f455243313936373a206e657720696d706c656d656e746174696f6e206973206e60448201526c1bdd08184818dbdb9d1c9858dd609a1b60648201526084016109f8565b600080516020615ede83398151915280546001600160a01b0319166001600160a01b0392909216919091179055565b6145c283614919565b6000825111806145cf5750805b15611c2157610ee98383614959565b600054610100900460ff166146055760405162461bcd60e51b81526004016109f890615a0b565b611c5833613600565b600054610100900460ff166146355760405162461bcd60e51b81526004016109f890615a0b565b61149c81614a4b565b6040805160018082528183019092526060916000919060208083019080368337019050509050828160008151811061468657634e487b7160e01b600052603260045260246000fd5b602090810291909101015292915050565b6146a9846001600160a01b0316612b81565b15612e095760405163f23a6e6160e01b81526001600160a01b0385169063f23a6e61906146e290899089908890889088906004016156b5565b602060405180830381600087803b1580156146fc57600080fd5b505af192505050801561472c575060408051601f3d908101601f1916820190925261472991810190615281565b60015b6147385761444e615da7565b6001600160e01b0319811663f23a6e6160e01b1461375c5760405162461bcd60e51b81526004016109f8906157eb565b6001600160a01b03851661480b5760005b8351811015614809578281815181106147a257634e487b7160e01b600052603260045260246000fd5b602002602001015160fb60008684815181106147ce57634e487b7160e01b600052603260045260246000fd5b6020026020010151815260200190815260200160002060008282546147f39190615b12565b90915550614802905081615d16565b9050614779565b505b6001600160a01b038416612e095760005b835181101561375c57600084828151811061484757634e487b7160e01b600052603260045260246000fd5b60200260200101519050600084838151811061487357634e487b7160e01b600052603260045260246000fd5b60200260200101519050600060fb6000848152602001908152602001600020549050818110156148f65760405162461bcd60e51b815260206004820152602860248201527f455243313135353a206275726e20616d6f756e74206578636565647320746f74604482015267616c537570706c7960c01b60648201526084016109f8565b600092835260fb60205260409092209103905561491281615d16565b905061481c565b6149228161451f565b6040516001600160a01b038216907fbc7cd75a20ee27fd9adebab32041f755214dbc6bffa90cc0225b39da2e5c2d3b90600090a250565b606061496483612b81565b6149bf5760405162461bcd60e51b815260206004820152602660248201527f416464726573733a2064656c65676174652063616c6c20746f206e6f6e2d636f6044820152651b9d1c9858dd60d21b60648201526084016109f8565b600080846001600160a01b0316846040516149da919061555e565b600060405180830381855af49150503d8060008114614a15576040519150601f19603f3d011682016040523d82523d6000602084013e614a1a565b606091505b5091509150614a428282604051806060016040528060278152602001615efe60279139614a5e565b95945050505050565b8051610efb906067906020840190614b1b565b60608315614a6d5750816112f3565b825115614a7d5782518084602001fd5b8160405162461bcd60e51b81526004016109f89190615789565b828054614aa390615cb5565b90600052602060002090601f016020900481019282614ac55760008555614b0b565b82601f10614ade5782800160ff19823516178555614b0b565b82800160010185558215614b0b579182015b82811115614b0b578235825591602001919060010190614af0565b50614b17929150614b8f565b5090565b828054614b2790615cb5565b90600052602060002090601f016020900481019282614b495760008555614b0b565b82601f10614b6257805160ff1916838001178555614b0b565b82800160010185558215614b0b579182015b82811115614b0b578251825591602001919060010190614b74565b5b80821115614b175760008155600101614b90565b60006001600160401b03831115614bbd57614bbd615d91565b604051614bd4601f8501601f191660200182615cea565b809150838152848484011115614be957600080fd5b83836020830137600060208583010152509392505050565b80356001600160a01b0381168114610ae557600080fd5b600082601f830112614c28578081fd5b81356020614c3582615a9e565b604051614c428282615cea565b8381528281019150858301600585901b87018401881015614c61578586fd5b855b85811015614c8657614c7482614c01565b84529284019290840190600101614c63565b5090979650505050505050565b600082601f830112614ca3578081fd5b81356020614cb082615a9e565b604051614cbd8282615cea565b8381528281019150858301600585901b87018401881015614cdc578586fd5b855b85811015614c8657614cef82614d97565b84529284019290840190600101614cde565b600082601f830112614d11578081fd5b81356020614d1e82615a9e565b604051614d2b8282615cea565b8381528281019150858301600585901b87018401881015614d4a578586fd5b855b85811015614c8657813584529284019290840190600101614d4c565b80358015158114610ae557600080fd5b600082601f830112614d88578081fd5b6112f383833560208501614ba4565b8035600d8110610ae557600080fd5b60008083601f840112614db7578182fd5b5081356001600160401b03811115614dcd578182fd5b602083019150836020828501011115614de557600080fd5b9250929050565b600060208284031215614dfd578081fd5b6112f382614c01565b60008060408385031215614e18578081fd5b614e2183614c01565b9150614e2f60208401614c01565b90509250929050565b600080600080600060a08688031215614e4f578081fd5b614e5886614c01565b9450614e6660208701614c01565b935060408601356001600160401b0380821115614e81578283fd5b614e8d89838a01614d01565b94506060880135915080821115614ea2578283fd5b614eae89838a01614d01565b93506080880135915080821115614ec3578283fd5b50614ed088828901614d78565b9150509295509295909350565b600080600080600060a08688031215614ef4578081fd5b614efd86614c01565b9450614f0b60208701614c01565b9350604086013592506060860135915060808601356001600160401b03811115614f33578182fd5b614ed088828901614d78565b600080600060608486031215614f53578081fd5b614f5c84614c01565b925060208401356001600160401b0380821115614f77578283fd5b614f8387838801614c93565b93506040860135915080821115614f98578283fd5b50614fa586828701614c93565b9150509250925092565b600080600060608486031215614fc3578081fd5b614fcc84614c01565b925060208401356001600160401b0380821115614fe7578283fd5b614ff387838801614d01565b93506040860135915080821115615008578283fd5b50614fa586828701614d01565b60008060408385031215615027578182fd5b61503083614c01565b9150614e2f60208401614d68565b60008060408385031215615050578182fd5b61505983614c01565b915060208301356001600160401b03811115615073578182fd5b61507f85828601614d78565b9150509250929050565b6000806040838503121561509b578182fd5b6150a483614c01565b946020939093013593505050565b6000806000606084860312156150c6578081fd5b6150cf84614c01565b95602085013595506040909401359392505050565b600080600080608085870312156150f9578182fd5b61510285614c01565b9350602085013592506040850135915060608501356001600160401b0381111561512a578182fd5b61513687828801614d78565b91505092959194509250565b60008060408385031215615154578182fd5b82356001600160401b038082111561516a578384fd5b61517686838701614c18565b9350602085013591508082111561518b578283fd5b5061507f85828601614d01565b6000806000606084860312156151ac578081fd5b83356001600160401b03808211156151c2578283fd5b6151ce87838801614c18565b94506020860135935060408601359150808211156151ea578283fd5b50614fa586828701614d78565b60008060408385031215615209578182fd5b82356001600160401b038082111561521f578384fd5b61522b86838701614c93565b93506020850135915080821115615240578283fd5b5061507f85828601614c93565b60006020828403121561525e578081fd5b5051919050565b600060208284031215615276578081fd5b81356112f381615e47565b600060208284031215615292578081fd5b81516112f381615e47565b6000602082840312156152ae578081fd5b6112f382614d97565b600080604083850312156152c9578182fd5b614e2183614d97565b6000806000606084860312156152e6578081fd5b6152ef84614d97565b92506152fd60208501614c01565b915061530b60408501614d68565b90509250925092565b600080600060608486031215615328578081fd5b61533184614d97565b925061533f60208501614c01565b9150604084013590509250925092565b60008060008060808587031215615364578182fd5b61536d85614d97565b935061537b60208601614c01565b92506040850135915061539060608601614d68565b905092959194509250565b600080604083850312156153ad578182fd5b6150a483614d97565b600080600080604085870312156153cb578182fd5b84356001600160401b03808211156153e1578384fd5b6153ed88838901614da6565b90965094506020870135915080821115615405578384fd5b5061541287828801614da6565b95989497509550505050565b60006020828403121561542f578081fd5b81356001600160401b03811115615444578182fd5b8201601f81018413615454578182fd5b611e5a84823560208401614ba4565b600060208284031215615474578081fd5b5035919050565b6000806040838503121561548d578182fd5b8235915060208301358060070b81146154a4578182fd5b809150509250929050565b6000806000604084860312156154c3578081fd5b8335925060208401356001600160401b038111156154df578182fd5b6154eb86828701614da6565b9497909650939450505050565b6000815180845260208085019450808401835b838110156155275781518752958201959082019060010161550b565b509495945050505050565b6000815180845261554a816020860160208601615c89565b601f01601f19169290920160200192915050565b60008251615570818460208701615c89565b9190910192915050565b7202ab735b737bbb7103937b632903a3cb8329d1606d1b8152600082516155a8816013850160208701615c89565b9190910160130192915050565b7302ab735b737bbb7102937b6329024b73232bc1d160651b8152600082516155e4816014850160208701615c89565b9190910160140192915050565b620dac2f60eb1b8152600381019190915260230190565b76024b73234b1b2b99031b0b71031329030ba1036b7b9ba1604d1b81526000825161563a816017850160208701615c89565b65103134ba399760d11b6017939091019283015250601d01919050565b6001600160a01b0386811682528516602082015260a060408201819052600090615683908301866154f8565b828103606084015261569581866154f8565b905082810360808401526156a98185615532565b98975050505050505050565b6001600160a01b03868116825285166020820152604081018490526060810183905260a0608082018190526000906156ef90830184615532565b979650505050505050565b6020815260006112f360208301846154f8565b60408152600061572060408301856154f8565b8281036020840152614a4281856154f8565b60208101600d831061575457634e487b7160e01b600052602160045260246000fd5b91905290565b60208152816020820152818360408301376000818301604090810191909152601f909201601f19160101919050565b6020815260006112f36020830184615532565b6020808252602f908201527f455243313135353a2063616c6c6572206973206e6f7420746f6b656e206f776e60408201526e195c881b9bdc88185c1c1c9bdd9959608a1b606082015260800190565b60208082526028908201527f455243313135353a204552433131353552656365697665722072656a656374656040820152676420746f6b656e7360c01b606082015260800190565b60208082526024908201527f455243313135353a206275726e20616d6f756e7420657863656564732062616c604082015263616e636560e01b606082015260800190565b6020808252602c90820152600080516020615ebe83398151915260408201526b19195b1959d85d1958d85b1b60a21b606082015260800190565b6020808252602c90820152600080516020615ebe83398151915260408201526b6163746976652070726f787960a01b606082015260800190565b60208082526025908201527f455243313135353a207472616e7366657220746f20746865207a65726f206164604082015264647265737360d81b606082015260800190565b60208082526023908201527f455243313135353a206275726e2066726f6d20746865207a65726f206164647260408201526265737360e81b606082015260800190565b6020808252602a908201527f455243313135353a20696e73756666696369656e742062616c616e636520666f60408201526939103a3930b739b332b960b11b606082015260800190565b6020808252602e908201527f4552432d3131353520456e756d657261626c653a20746f6b656e20696e64657860408201526d206f7574206f6620626f756e647360901b606082015260800190565b6020808252602b908201527f496e697469616c697a61626c653a20636f6e7472616374206973206e6f74206960408201526a6e697469616c697a696e6760a81b606082015260800190565b60208082526028908201527f455243313135353a2069647320616e6420616d6f756e7473206c656e677468206040820152670dad2e6dac2e8c6d60c31b606082015260800190565b60006001600160401b03821115615ab757615ab7615d91565b5060051b60200190565b6000600782810b9084900b828212801560016001603f1b0384900383131615615aec57615aec615d65565b60016001603f1b03198390038212811615615b0957615b09615d65565b50019392505050565b60008219821115615b2557615b25615d65565b500190565b600082615b3957615b39615d7b565b500490565b600181815b80851115615b79578160001904821115615b5f57615b5f615d65565b80851615615b6c57918102915b93841c9390800290615b43565b509250929050565b60006112f360ff841683600082615b9a57506001610a26565b81615ba757506000610a26565b8160018114615bbd5760028114615bc757615be3565b6001915050610a26565b60ff841115615bd857615bd8615d65565b50506001821b610a26565b5060208310610133831016604e8410600b8410161715615c06575081810a610a26565b615c108383615b3e565b8060001904821115615c2457615c24615d65565b029392505050565b600061ffff83811690831681811015615c4757615c47615d65565b039392505050565b600082821015615c6157615c61615d65565b500390565b600060ff821660ff841680821015615c8057615c80615d65565b90039392505050565b60005b83811015615ca4578181015183820152602001615c8c565b83811115610ee95750506000910152565b600181811c90821680615cc957607f821691505b60208210811415610e9257634e487b7160e01b600052602260045260246000fd5b601f8201601f191681016001600160401b0381118282101715615d0f57615d0f615d91565b6040525050565b6000600019821415615d2a57615d2a615d65565b5060010190565b600060ff821660ff811415615d4857615d48615d65565b60010192915050565b600082615d6057615d60615d7b565b500690565b634e487b7160e01b600052601160045260246000fd5b634e487b7160e01b600052601260045260246000fd5b634e487b7160e01b600052604160045260246000fd5b600060033d1115611b8757600481823e5160e01c90565b600060443d1015615dcc5790565b6040516003193d81016004833e81513d6001600160401b038083116024840183101715615dfb57505050505090565b8285019150815181811115615e135750505050505090565b843d8701016020828501011115615e2d5750505050505090565b615e3c60208286010187615cea565b509095945050505050565b6001600160e01b03198116811461149c57600080fdfe4a39dc06d4c0dbc64b70af90fd698a233a518aa5d07e595d983b8c0526c8f7fbc3d58168c5ae7397731d063d5bbf3d657854427343f4c083240f7aacaa2d0f62a6f1ac7ad7b125ba5a5e1c96b00ad6914f90a503b1ac3d85a9dadbb4c639df9246756e6374696f6e206d7573742062652063616c6c6564207468726f75676820360894a13ba1a3210667c828492db98dca3e2076cc3735a920a3ca505d382bbc416464726573733a206c6f772d6c6576656c2064656c65676174652063616c6c206661696c6564a26469706673582212207c90abb5f8ad0bc97a38f0dbd4eacaf269dc8886df552b071c0ac63292b83fd964736f6c63430008040033",
  "linkReferences": {},
  "deployedLinkReferences": {}
}