{
  "_format": "hh-sol-artifact-1",
  "contractName": "BulkDisbursableNFTs",
  "sourceName": "src/BulkDisbursableNFTs.sol",
  "abi": [
    {
      "inputs": [],
      "stateMutability": "nonpayable",
      "type": "constructor"
    },
    {
      "anonymous": false,
      "inputs": [
        {
          "indexed": false,
          "internalType": "address",
          "name": "previousAdmin",
          "type": "address"
        },
        {
          "indexed": false,
          "internalType": "address",
          "name": "newAdmin",
          "type": "address"
        }
      ],
      "name": "AdminChanged",
      "type": "event"
    },
    {
      "anonymous": false,
      "inputs": [
        {
          "indexed": true,
          "internalType": "address",
          "name": "account",
          "type": "address"
        },
        {
          "indexed": true,
          "internalType": "address",
          "name": "operator",
          "type": "address"
        },
        {
          "indexed": false,
          "internalType": "bool",
          "name": "approved",
          "type": "bool"
        }
      ],
      "name": "ApprovalForAll",
      "type": "event"
    },
    {
      "anonymous": false,
      "inputs": [
        {
          "indexed": true,
          "internalType": "address",
          "name": "beacon",
          "type": "address"
        }
      ],
      "name": "BeaconUpgraded",
      "type": "event"
    },
    {
      "anonymous": false,
      "inputs": [
        {
          "indexed": false,
          "internalType": "uint256",
          "name": "id",
          "type": "uint256"
        },
        {
          "indexed": false,
          "internalType": "address",
          "name": "controller",
          "type": "address"
        }
      ],
      "name": "Created",
      "type": "event"
    },
    {
      "anonymous": false,
      "inputs": [
        {
          "indexed": false,
          "internalType": "uint8",
          "name": "version",
          "type": "uint8"
        }
      ],
      "name": "Initialized",
      "type": "event"
    },
    {
      "anonymous": false,
      "inputs": [
        {
          "indexed": true,
          "internalType": "address",
          "name": "previousOwner",
          "type": "address"
        },
        {
          "indexed": true,
          "internalType": "address",
          "name": "newOwner",
          "type": "address"
        }
      ],
      "name": "OwnershipTransferred",
      "type": "event"
    },
    {
      "anonymous": false,
      "inputs": [
        {
          "indexed": true,
          "internalType": "address",
          "name": "operator",
          "type": "address"
        },
        {
          "indexed": true,
          "internalType": "address",
          "name": "from",
          "type": "address"
        },
        {
          "indexed": true,
          "internalType": "address",
          "name": "to",
          "type": "address"
        },
        {
          "indexed": false,
          "internalType": "uint256[]",
          "name": "ids",
          "type": "uint256[]"
        },
        {
          "indexed": false,
          "internalType": "uint256[]",
          "name": "values",
          "type": "uint256[]"
        }
      ],
      "name": "TransferBatch",
      "type": "event"
    },
    {
      "anonymous": false,
      "inputs": [
        {
          "indexed": true,
          "internalType": "address",
          "name": "operator",
          "type": "address"
        },
        {
          "indexed": true,
          "internalType": "address",
          "name": "from",
          "type": "address"
        },
        {
          "indexed": true,
          "internalType": "address",
          "name": "to",
          "type": "address"
        },
        {
          "indexed": false,
          "internalType": "uint256",
          "name": "id",
          "type": "uint256"
        },
        {
          "indexed": false,
          "internalType": "uint256",
          "name": "value",
          "type": "uint256"
        }
      ],
      "name": "TransferSingle",
      "type": "event"
    },
    {
      "anonymous": false,
      "inputs": [
        {
          "indexed": false,
          "internalType": "string",
          "name": "value",
          "type": "string"
        },
        {
          "indexed": true,
          "internalType": "uint256",
          "name": "id",
          "type": "uint256"
        }
      ],
      "name": "URI",
      "type": "event"
    },
    {
      "anonymous": false,
      "inputs": [
        {
          "indexed": true,
          "internalType": "address",
          "name": "implementation",
          "type": "address"
        }
      ],
      "name": "Upgraded",
      "type": "event"
    },
    {
      "inputs": [
        {
          "internalType": "uint256",
          "name": "",
          "type": "uint256"
        }
      ],
      "name": "Roles",
      "outputs": [
        {
          "internalType": "string",
          "name": "",
          "type": "string"
        }
      ],
      "stateMutability": "view",
      "type": "function"
    },
    {
      "inputs": [
        {
          "internalType": "address",
          "name": "account",
          "type": "address"
        },
        {
          "internalType": "uint256",
          "name": "id",
          "type": "uint256"
        }
      ],
      "name": "balanceOf",
      "outputs": [
        {
          "internalType": "uint256",
          "name": "",
          "type": "uint256"
        }
      ],
      "stateMutability": "view",
      "type": "function"
    },
    {
      "inputs": [
        {
          "internalType": "address[]",
          "name": "accounts",
          "type": "address[]"
        },
        {
          "internalType": "uint256[]",
          "name": "ids",
          "type": "uint256[]"
        }
      ],
      "name": "balanceOfBatch",
      "outputs": [
        {
          "internalType": "uint256[]",
          "name": "",
          "type": "uint256[]"
        }
      ],
      "stateMutability": "view",
      "type": "function"
    },
    {
      "inputs": [
        {
          "internalType": "address",
          "name": "owner",
          "type": "address"
        },
        {
          "internalType": "uint256",
          "name": "id",
          "type": "uint256"
        },
        {
          "internalType": "uint256",
          "name": "quantity",
          "type": "uint256"
        }
      ],
      "name": "burn",
      "outputs": [],
      "stateMutability": "nonpayable",
      "type": "function"
    },
    {
      "inputs": [
        {
          "internalType": "address",
          "name": "account",
          "type": "address"
        },
        {
          "internalType": "uint256[]",
          "name": "ids",
          "type": "uint256[]"
        },
        {
          "internalType": "uint256[]",
          "name": "values",
          "type": "uint256[]"
        }
      ],
      "name": "burnBatch",
      "outputs": [],
      "stateMutability": "nonpayable",
      "type": "function"
    },
    {
      "inputs": [
        {
          "internalType": "enum BulkDisbursableNFTs.Role[]",
          "name": "grants",
          "type": "uint8[]"
        },
        {
          "internalType": "enum BulkDisbursableNFTs.Role[]",
          "name": "disables",
          "type": "uint8[]"
        }
      ],
      "name": "create",
      "outputs": [
        {
          "internalType": "uint256",
          "name": "id",
          "type": "uint256"
        }
      ],
      "stateMutability": "nonpayable",
      "type": "function"
    },
    {
      "inputs": [
        {
          "internalType": "address",
          "name": "maintainer",
          "type": "address"
        },
        {
          "internalType": "enum BulkDisbursableNFTs.Role[]",
          "name": "grants",
          "type": "uint8[]"
        },
        {
          "internalType": "enum BulkDisbursableNFTs.Role[]",
          "name": "disables",
          "type": "uint8[]"
        }
      ],
      "name": "create",
      "outputs": [
        {
          "internalType": "uint256",
          "name": "id",
          "type": "uint256"
        }
      ],
      "stateMutability": "nonpayable",
      "type": "function"
    },
    {
      "inputs": [],
      "name": "create",
      "outputs": [
        {
          "internalType": "uint256",
          "name": "id",
          "type": "uint256"
        }
      ],
      "stateMutability": "nonpayable",
      "type": "function"
    },
    {
      "inputs": [
        {
          "internalType": "enum BulkDisbursableNFTs.Role",
          "name": "toDisable",
          "type": "uint8"
        },
        {
          "internalType": "uint256",
          "name": "tokenId",
          "type": "uint256"
        }
      ],
      "name": "disableRole",
      "outputs": [],
      "stateMutability": "nonpayable",
      "type": "function"
    },
    {
      "inputs": [
        {
          "internalType": "uint256",
          "name": "id",
          "type": "uint256"
        }
      ],
      "name": "exists",
      "outputs": [
        {
          "internalType": "bool",
          "name": "",
          "type": "bool"
        }
      ],
      "stateMutability": "view",
      "type": "function"
    },
    {
      "inputs": [
        {
          "internalType": "enum BulkDisbursableNFTs.Role",
          "name": "role",
          "type": "uint8"
        },
        {
          "internalType": "address",
          "name": "user",
          "type": "address"
        },
        {
          "internalType": "uint256",
          "name": "index",
          "type": "uint256"
        }
      ],
      "name": "gateToken",
      "outputs": [
        {
          "internalType": "uint256",
          "name": "id",
          "type": "uint256"
        }
      ],
      "stateMutability": "view",
      "type": "function"
    },
    {
      "inputs": [
        {
          "internalType": "uint256",
          "name": "id",
          "type": "uint256"
        }
      ],
      "name": "getMax",
      "outputs": [
        {
          "internalType": "int64",
          "name": "max",
          "type": "int64"
        }
      ],
      "stateMutability": "view",
      "type": "function"
    },
    {
      "inputs": [
        {
          "internalType": "enum BulkDisbursableNFTs.Role",
          "name": "role",
          "type": "uint8"
        },
        {
          "internalType": "address",
          "name": "user",
          "type": "address"
        }
      ],
      "name": "grantRole",
      "outputs": [],
      "stateMutability": "nonpayable",
      "type": "function"
    },
    {
      "inputs": [
        {
          "internalType": "enum BulkDisbursableNFTs.Role",
          "name": "role",
          "type": "uint8"
        },
        {
          "internalType": "address",
          "name": "user",
          "type": "address"
        },
        {
          "internalType": "uint256",
          "name": "id",
          "type": "uint256"
        }
      ],
      "name": "grantRole",
      "outputs": [],
      "stateMutability": "nonpayable",
      "type": "function"
    },
    {
      "inputs": [
        {
          "internalType": "enum BulkDisbursableNFTs.Role",
          "name": "role",
          "type": "uint8"
        }
      ],
      "name": "hasRole",
      "outputs": [
        {
          "internalType": "bool",
          "name": "has",
          "type": "bool"
        }
      ],
      "stateMutability": "view",
      "type": "function"
    },
    {
      "inputs": [
        {
          "internalType": "enum BulkDisbursableNFTs.Role",
          "name": "role",
          "type": "uint8"
        },
        {
          "internalType": "address",
          "name": "user",
          "type": "address"
        },
        {
          "internalType": "uint256",
          "name": "id",
          "type": "uint256"
        }
      ],
      "name": "hasRole",
      "outputs": [
        {
          "internalType": "bool",
          "name": "has",
          "type": "bool"
        }
      ],
      "stateMutability": "view",
      "type": "function"
    },
    {
      "inputs": [
        {
          "internalType": "enum BulkDisbursableNFTs.Role",
          "name": "role",
          "type": "uint8"
        },
        {
          "internalType": "uint256",
          "name": "id",
          "type": "uint256"
        }
      ],
      "name": "hasRole",
      "outputs": [
        {
          "internalType": "bool",
          "name": "has",
          "type": "bool"
        }
      ],
      "stateMutability": "view",
      "type": "function"
    },
    {
      "inputs": [
        {
          "internalType": "enum BulkDisbursableNFTs.Role",
          "name": "role",
          "type": "uint8"
        },
        {
          "internalType": "address",
          "name": "user",
          "type": "address"
        }
      ],
      "name": "hasRole",
      "outputs": [
        {
          "internalType": "bool",
          "name": "has",
          "type": "bool"
        }
      ],
      "stateMutability": "view",
      "type": "function"
    },
    {
      "inputs": [
        {
          "internalType": "string",
          "name": "_name",
          "type": "string"
        },
        {
          "internalType": "string",
          "name": "_symbol",
          "type": "string"
        }
      ],
      "name": "initialize",
      "outputs": [],
      "stateMutability": "nonpayable",
      "type": "function"
    },
    {
      "inputs": [
        {
          "internalType": "address",
          "name": "account",
          "type": "address"
        },
        {
          "internalType": "address",
          "name": "operator",
          "type": "address"
        }
      ],
      "name": "isApprovedForAll",
      "outputs": [
        {
          "internalType": "bool",
          "name": "",
          "type": "bool"
        }
      ],
      "stateMutability": "view",
      "type": "function"
    },
    {
      "inputs": [
        {
          "internalType": "address",
          "name": "user",
          "type": "address"
        }
      ],
      "name": "isSuper",
      "outputs": [
        {
          "internalType": "bool",
          "name": "superuser",
          "type": "bool"
        }
      ],
      "stateMutability": "view",
      "type": "function"
    },
    {
      "inputs": [],
      "name": "isSuper",
      "outputs": [
        {
          "internalType": "bool",
          "name": "superuser",
          "type": "bool"
        }
      ],
      "stateMutability": "view",
      "type": "function"
    },
    {
      "inputs": [
        {
          "internalType": "uint256",
          "name": "",
          "type": "uint256"
        }
      ],
      "name": "maxes",
      "outputs": [
        {
          "internalType": "int64",
          "name": "",
          "type": "int64"
        }
      ],
      "stateMutability": "view",
      "type": "function"
    },
    {
      "inputs": [
        {
          "internalType": "address[]",
          "name": "to",
          "type": "address[]"
        },
        {
          "internalType": "uint256",
          "name": "id",
          "type": "uint256"
        },
        {
          "internalType": "bytes",
          "name": "data",
          "type": "bytes"
        }
      ],
      "name": "mint",
      "outputs": [],
      "stateMutability": "nonpayable",
      "type": "function"
    },
    {
      "inputs": [
        {
          "internalType": "address",
          "name": "recipient",
          "type": "address"
        },
        {
          "internalType": "uint256",
          "name": "id",
          "type": "uint256"
        },
        {
          "internalType": "uint256",
          "name": "amount",
          "type": "uint256"
        },
        {
          "internalType": "bytes",
          "name": "data",
          "type": "bytes"
        }
      ],
      "name": "mint",
      "outputs": [
        {
          "internalType": "bool",
          "name": "minted",
          "type": "bool"
        }
      ],
      "stateMutability": "nonpayable",
      "type": "function"
    },
    {
      "inputs": [],
      "name": "name",
      "outputs": [
        {
          "internalType": "string",
          "name": "",
          "type": "string"
        }
      ],
      "stateMutability": "view",
      "type": "function"
    },
    {
      "inputs": [],
      "name": "owner",
      "outputs": [
        {
          "internalType": "address",
          "name": "",
          "type": "address"
        }
      ],
      "stateMutability": "view",
      "type": "function"
    },
    {
      "inputs": [],
      "name": "proxiableUUID",
      "outputs": [
        {
          "internalType": "bytes32",
          "name": "",
          "type": "bytes32"
        }
      ],
      "stateMutability": "view",
      "type": "function"
    },
    {
      "inputs": [],
      "name": "renounceOwnership",
      "outputs": [],
      "stateMutability": "nonpayable",
      "type": "function"
    },
    {
      "inputs": [
        {
          "internalType": "string",
          "name": "roleName",
          "type": "string"
        }
      ],
      "name": "roleIndexForName",
      "outputs": [
        {
          "internalType": "enum BulkDisbursableNFTs.Role",
          "name": "role",
          "type": "uint8"
        }
      ],
      "stateMutability": "pure",
      "type": "function"
    },
    {
      "inputs": [
        {
          "internalType": "enum BulkDisbursableNFTs.Role",
          "name": "index",
          "type": "uint8"
        }
      ],
      "name": "roleNameByIndex",
      "outputs": [
        {
          "internalType": "string",
          "name": "",
          "type": "string"
        }
      ],
      "stateMutability": "pure",
      "type": "function"
    },
    {
      "inputs": [
        {
          "internalType": "enum BulkDisbursableNFTs.Role",
          "name": "role",
          "type": "uint8"
        }
      ],
      "name": "roleToken",
      "outputs": [
        {
          "internalType": "uint256",
          "name": "id",
          "type": "uint256"
        }
      ],
      "stateMutability": "view",
      "type": "function"
    },
    {
      "inputs": [
        {
          "internalType": "enum BulkDisbursableNFTs.Role",
          "name": "role",
          "type": "uint8"
        },
        {
          "internalType": "uint256",
          "name": "index",
          "type": "uint256"
        }
      ],
      "name": "roleToken",
      "outputs": [
        {
          "internalType": "uint256",
          "name": "id",
          "type": "uint256"
        }
      ],
      "stateMutability": "view",
      "type": "function"
    },
    {
      "inputs": [
        {
          "internalType": "address",
          "name": "from",
          "type": "address"
        },
        {
          "internalType": "address",
          "name": "to",
          "type": "address"
        },
        {
          "internalType": "uint256[]",
          "name": "ids",
          "type": "uint256[]"
        },
        {
          "internalType": "uint256[]",
          "name": "amounts",
          "type": "uint256[]"
        },
        {
          "internalType": "bytes",
          "name": "data",
          "type": "bytes"
        }
      ],
      "name": "safeBatchTransferFrom",
      "outputs": [],
      "stateMutability": "nonpayable",
      "type": "function"
    },
    {
      "inputs": [
        {
          "internalType": "address",
          "name": "from",
          "type": "address"
        },
        {
          "internalType": "address",
          "name": "to",
          "type": "address"
        },
        {
          "internalType": "uint256",
          "name": "id",
          "type": "uint256"
        },
        {
          "internalType": "uint256",
          "name": "amount",
          "type": "uint256"
        },
        {
          "internalType": "bytes",
          "name": "data",
          "type": "bytes"
        }
      ],
      "name": "safeTransferFrom",
      "outputs": [],
      "stateMutability": "nonpayable",
      "type": "function"
    },
    {
      "inputs": [
        {
          "internalType": "address",
          "name": "operator",
          "type": "address"
        },
        {
          "internalType": "bool",
          "name": "approved",
          "type": "bool"
        }
      ],
      "name": "setApprovalForAll",
      "outputs": [],
      "stateMutability": "nonpayable",
      "type": "function"
    },
    {
      "inputs": [
        {
          "internalType": "string",
          "name": "_name",
          "type": "string"
        },
        {
          "internalType": "string",
          "name": "_symbol",
          "type": "string"
        }
      ],
      "name": "setDescription",
      "outputs": [],
      "stateMutability": "nonpayable",
      "type": "function"
    },
    {
      "inputs": [
        {
          "internalType": "uint256",
          "name": "id",
          "type": "uint256"
        },
        {
          "internalType": "int64",
          "name": "max",
          "type": "int64"
        }
      ],
      "name": "setMax",
      "outputs": [],
      "stateMutability": "nonpayable",
      "type": "function"
    },
    {
      "inputs": [
        {
          "internalType": "uint256",
          "name": "id",
          "type": "uint256"
        },
        {
          "internalType": "uint256",
          "name": "max",
          "type": "uint256"
        }
      ],
      "name": "setMax",
      "outputs": [],
      "stateMutability": "nonpayable",
      "type": "function"
    },
    {
      "inputs": [
        {
          "internalType": "uint256",
          "name": "id",
          "type": "uint256"
        },
        {
          "internalType": "string",
          "name": "newURI",
          "type": "string"
        }
      ],
      "name": "setURI",
      "outputs": [],
      "stateMutability": "nonpayable",
      "type": "function"
    },
    {
      "inputs": [
        {
          "internalType": "bytes4",
          "name": "interfaceId",
          "type": "bytes4"
        }
      ],
      "name": "supportsInterface",
      "outputs": [
        {
          "internalType": "bool",
          "name": "",
          "type": "bool"
        }
      ],
      "stateMutability": "view",
      "type": "function"
    },
    {
      "inputs": [],
      "name": "symbol",
      "outputs": [
        {
          "internalType": "string",
          "name": "",
          "type": "string"
        }
      ],
      "stateMutability": "view",
      "type": "function"
    },
    {
      "inputs": [
        {
          "internalType": "uint256",
          "name": "index",
          "type": "uint256"
        }
      ],
      "name": "tokenByIndex",
      "outputs": [
        {
          "internalType": "uint256",
          "name": "id",
          "type": "uint256"
        }
      ],
      "stateMutability": "view",
      "type": "function"
    },
    {
      "inputs": [
        {
          "internalType": "uint256",
          "name": "id",
          "type": "uint256"
        }
      ],
      "name": "tokenIndex",
      "outputs": [
        {
          "internalType": "uint256",
          "name": "index",
          "type": "uint256"
        }
      ],
      "stateMutability": "view",
      "type": "function"
    },
    {
      "inputs": [
        {
          "internalType": "address",
          "name": "owner",
          "type": "address"
        },
        {
          "internalType": "uint256",
          "name": "index",
          "type": "uint256"
        }
      ],
      "name": "tokenOfOwnerByIndex",
      "outputs": [
        {
          "internalType": "uint256",
          "name": "id",
          "type": "uint256"
        }
      ],
      "stateMutability": "view",
      "type": "function"
    },
    {
      "inputs": [
        {
          "internalType": "uint256",
          "name": "id",
          "type": "uint256"
        }
      ],
      "name": "totalSupply",
      "outputs": [
        {
          "internalType": "uint256",
          "name": "",
          "type": "uint256"
        }
      ],
      "stateMutability": "view",
      "type": "function"
    },
    {
      "inputs": [
        {
          "internalType": "address",
          "name": "newOwner",
          "type": "address"
        }
      ],
      "name": "transferOwnership",
      "outputs": [],
      "stateMutability": "nonpayable",
      "type": "function"
    },
    {
      "inputs": [],
      "name": "typeSupply",
      "outputs": [
        {
          "internalType": "uint256",
          "name": "count",
          "type": "uint256"
        }
      ],
      "stateMutability": "view",
      "type": "function"
    },
    {
      "inputs": [
        {
          "internalType": "address",
          "name": "newImplementation",
          "type": "address"
        }
      ],
      "name": "upgradeTo",
      "outputs": [],
      "stateMutability": "nonpayable",
      "type": "function"
    },
    {
      "inputs": [
        {
          "internalType": "address",
          "name": "newImplementation",
          "type": "address"
        },
        {
          "internalType": "bytes",
          "name": "data",
          "type": "bytes"
        }
      ],
      "name": "upgradeToAndCall",
      "outputs": [],
      "stateMutability": "payable",
      "type": "function"
    },
    {
      "inputs": [
        {
          "internalType": "uint256",
          "name": "id",
          "type": "uint256"
        }
      ],
      "name": "uri",
      "outputs": [
        {
          "internalType": "string",
          "name": "metadata",
          "type": "string"
        }
      ],
      "stateMutability": "view",
      "type": "function"
    }
  ],
  "bytecode": "0x60a06040523060601b6080523480156200001857600080fd5b50600054610100900460ff16158080156200003a5750600054600160ff909116105b806200006a575062000057306200014460201b62002ac11760201c565b1580156200006a575060005460ff166001145b620000d25760405162461bcd60e51b815260206004820152602e60248201527f496e697469616c697a61626c653a20636f6e747261637420697320616c72656160448201526d191e481a5b9a5d1a585b1a5e995960921b606482015260840160405180910390fd5b6000805460ff191660011790558015620000f6576000805461ff0019166101001790555b80156200013d576000805461ff0019169055604051600181527f7f26b83ff96e1f2b6a682f133852f6798a09c465da95921460cefb38474024989060200160405180910390a15b5062000153565b6001600160a01b03163b151590565b60805160601c615cc76200018e6000396000818161133401528181611374015281816118f1015281816119310152611a780152615cc76000f3fe6080604052600436106102435760003560e01c8062fdd58e1461024857806301ffc9a71461027b5780630583e9f8146102ab57806306fdde03146102cb5780630e89341c146102ed5780630ec0370f1461030d57806311ef04c41461032f57806314c464271461034f57806316730ab01461036f57806319e0755c1461038f5780632eb2c2d6146103af5780632f745c59146103cf5780633659cfe6146103ef5780633b91ceef1461040f5780633dbe35de1461042f5780634468031f1461044f578063482895891461046f5780634a80070f1461048f5780634cd88b76146104af5780634e1273f4146104cf5780634f1ef286146104fc5780634f558e791461050f5780634f6ccce71461052f57806352d1902d1461054f5780635d5664e1146105645780636755d456146105845780636b20c454146105a45780636fc0020b146105c4578063715018a6146105e4578063731133e9146105f9578063778f5a7b14610619578063814c245014610646578063862440e2146106665780638da5cb5b1461068657806395d89b41146106b35780639d969a9c146106c85780639e97b8f6146106dd578063a22cb465146106fd578063aa8e90661461071d578063b0bdf2611461073d578063bd85b0391461075d578063c3c8df991461077d578063dabc69871461079d578063e688f89d146107e1578063e985e9c514610812578063edc79bac1461085b578063efc81a8c14610870578063f242432a14610885578063f2fde38b146108a5578063f5298aca146108c5578063fde4047a146108e5575b600080fd5b34801561025457600080fd5b50610268610263366004614ece565b610905565b6040519081526020015b60405180910390f35b34801561028757600080fd5b5061029b6102963660046150aa565b6109a0565b6040519015158152602001610272565b3480156102b757600080fd5b506102686102c636600461521a565b6109f0565b3480156102d757600080fd5b506102e0610a5e565b60405161027291906154f0565b3480156102f957600080fd5b506102e061030836600461521a565b610aed565b34801561031957600080fd5b5061032d610328366004614fdd565b610d60565b005b34801561033b57600080fd5b5061032d61034a366004615232565b610db7565b34801561035b57600080fd5b5061026861036a3660046150e2565b610e21565b34801561037b57600080fd5b5061026861038a366004615117565b610e2e565b34801561039b57600080fd5b5061029b6103aa3660046150e2565b61124d565b3480156103bb57600080fd5b5061032d6103ca366004614c6c565b611259565b3480156103db57600080fd5b506102686103ea366004614ece565b6112a5565b3480156103fb57600080fd5b5061032d61040a366004614c20565b611329565b34801561041b57600080fd5b5061032d61042a3660046152a4565b6113f2565b34801561043b57600080fd5b5061026861044a366004615152565b61142b565b34801561045b57600080fd5b5061029b61046a366004615117565b6115a6565b34801561047b57600080fd5b5061029b61048a366004615152565b6115cd565b34801561049b57600080fd5b506102686104aa36600461503c565b6115da565b3480156104bb57600080fd5b5061032d6104ca36600461516d565b6115e7565b3480156104db57600080fd5b506104ef6104ea366004614f87565b611785565b6040516102729190615461565b61032d61050a366004614e83565b6118e6565b34801561051b57600080fd5b5061029b61052a36600461521a565b61199c565b34801561053b57600080fd5b5061026861054a36600461521a565b6119af565b34801561055b57600080fd5b50610268611a6b565b34801561057057600080fd5b5061032d61057f3660046150fc565b611b1a565b34801561059057600080fd5b5061032d61059f36600461516d565b611b26565b3480156105b057600080fd5b5061032d6105bf366004614de3565b611b49565b3480156105d057600080fd5b506102e06105df36600461521a565b611b91565b3480156105f057600080fd5b5061032d611bb1565b34801561060557600080fd5b5061029b610614366004614f29565b611bc5565b34801561062557600080fd5b506106396106343660046151d5565b611dcd565b6040516102729190615499565b34801561065257600080fd5b506102e06106613660046150e2565b612115565b34801561067257600080fd5b5061032d61068136600461525b565b6124e4565b34801561069257600080fd5b5061069b6125c0565b6040516001600160a01b039091168152602001610272565b3480156106bf57600080fd5b506102e06125cf565b3480156106d457600080fd5b506102686125dd565b3480156106e957600080fd5b5061029b6106f83660046150fc565b6125f5565b34801561070957600080fd5b5061032d610718366004614e49565b612603565b34801561072957600080fd5b5061032d610738366004615117565b61260e565b34801561074957600080fd5b50610268610758366004614d73565b612631565b34801561076957600080fd5b5061026861077836600461521a565b61288f565b34801561078957600080fd5b5061029b610798366004614c20565b6128a1565b3480156107a957600080fd5b506107ce6107b836600461521a565b6101a26020526000908152604090205460070b81565b60405160079190910b8152602001610272565b3480156107ed57600080fd5b506107ce6107fc36600461521a565b60009081526101a2602052604090205460070b90565b34801561081e57600080fd5b5061029b61082d366004614c3a565b6001600160a01b03918216600090815260666020908152604080832093909416825291909152205460ff1690565b34801561086757600080fd5b5061029b6128d6565b34801561087c57600080fd5b506102686128e1565b34801561089157600080fd5b5061032d6108a0366004614d11565b612902565b3480156108b157600080fd5b5061032d6108c0366004614c20565b612947565b3480156108d157600080fd5b5061032d6108e0366004614ef7565b6129bd565b3480156108f157600080fd5b5061032d610900366004615152565b612a47565b60006001600160a01b0383166109755760405162461bcd60e51b815260206004820152602a60248201527f455243313135353a2061646472657373207a65726f206973206e6f742061207660448201526930b634b21037bbb732b960b11b60648201526084015b60405180910390fd5b5060008181526065602090815260408083206001600160a01b03861684529091529020545b92915050565b60006001600160e01b03198216636cdb3d1360e11b14806109d157506001600160e01b031982166303a24d0760e21b145b8061099a57506301ffc9a760e01b6001600160e01b031983161461099a565b6000818152610195602052604090205480610a595760405162461bcd60e51b815260206004820152602360248201527f5468652072657175657374656420746f6b656e20646f6573206e6f742065786960448201526239ba1760e91b606482015260840161096c565b919050565b6101918054610a6c90615a1c565b80601f0160208091040260200160405190810160405280929190818152602001828054610a9890615a1c565b8015610ae55780601f10610aba57610100808354040283529160200191610ae5565b820191906000526020600020905b815481529060010190602001808311610ac857829003601f168201915b505050505081565b600081815261019360205260409020805460609190610b0b90615a1c565b80601f0160208091040260200160405190810160405280929190818152602001828054610b3790615a1c565b8015610b845780601f10610b5957610100808354040283529160200191610b84565b820191906000526020600020905b815481529060010190602001808311610b6757829003601f168201915b50505050509050805160001415610a59576008610ba4600d610100615993565b610bae91906159cd565b600160ff919091161b6008610bc6600d610100615993565b610bd091906159cd565b60ff166001610be1600860026158e8565b610beb91906159b6565b901b83161415610a59576000600160088160038083610c0d600d610100615993565b610c1791906159cd565b610c2191906159cd565b610c2b91906159cd565b610c3591906159cd565b610c3f91906159cd565b610c4991906159cd565b60ff166001610c598160026158e8565b610c6391906159b6565b901b6003806008610c77600d610100615993565b610c8191906159cd565b610c8b91906159cd565b610c9591906159cd565b60ff166001901b1719600160206002610cae91906158e8565b610cb891906159b6565b19841616600081815261019360205260409020805491925090610cda90615a1c565b80601f0160208091040260200160405190810160405280929190818152602001828054610d0690615a1c565b8015610d535780601f10610d2857610100808354040283529160200191610d53565b820191906000526020600020905b815481529060010190602001808311610d3657829003601f168201915b5050505050915050919050565b60005b8351811015610db157610da0848281518110610d8f57634e487b7160e01b600052603260045260246000fd5b602002602001015184600185611bc5565b50610daa81615a83565b9050610d63565b50505050565b610dc26008836115cd565b80610dd05750610dd06128d6565b610dec5760405162461bcd60e51b815260040161096c90615805565b60009182526101a26020526040909120805460079290920b6001600160401b03166001600160401b0319909216919091179055565b600061099a82600061142b565b600080610e3a85610e21565b9050600061019581856008610e52600d610100615993565b610e5c91906159cd565b60ff16600a901b851717815260200190815260200160002054905080600014610eb657610194805482908110610ea257634e487b7160e01b600052603260045260246000fd5b906000526020600020015492505050611246565b6000604051806101000160405280866001600860016003806008600d60ff16610100610ee29190615993565b610eec91906159cd565b610ef691906159cd565b610f0091906159cd565b610f0a91906159cd565b610f1491906159cd565b610f1e91906159cd565b60ff166001610f2e8160026158e8565b610f3891906159b6565b901b6003806008610f4c600d610100615993565b610f5691906159cd565b610f6091906159cd565b610f6a91906159cd565b600160ff919091161b871717178152602001866003806008610f8f600d610100615993565b610f9991906159cd565b610fa391906159cd565b610fad91906159cd565b60ff166001901b86171781526020016001600860016003806008600d60ff16610100610fd99190615993565b610fe391906159cd565b610fed91906159cd565b610ff791906159cd565b61100191906159cd565b61100b91906159cd565b61101591906159cd565b60ff1660016110258160026158e8565b61102f91906159b6565b901b6003806008611043600d610100615993565b61104d91906159cd565b61105791906159cd565b61106191906159cd565b600160ff919091161b86171781526020016003806008611084600d610100615993565b61108e91906159cd565b61109891906159cd565b6110a291906159cd565b60ff166001901b85178152602001866001600860016003806008600d60ff166101006110ce9190615993565b6110d891906159cd565b6110e291906159cd565b6110ec91906159cd565b6110f691906159cd565b61110091906159cd565b61110a91906159cd565b60ff16600161111a8160026158e8565b61112491906159b6565b901b8617178152602001600160088160038083611144600d610100615993565b61114e91906159cd565b61115891906159cd565b61116291906159cd565b61116c91906159cd565b61117691906159cd565b61118091906159cd565b60ff1660016111908160026158e8565b61119a91906159b6565b901b851781528685176020820152604001849052905060005b60088160ff16101561123d5760006111f288848460ff16600881106111e857634e487b7160e01b600052603260045260246000fd5b6020020151610905565b111561122b57818160ff166008811061121b57634e487b7160e01b600052603260045260246000fd5b6020020151945050505050611246565b8061123581615a9e565b9150506111b3565b50600093505050505b9392505050565b600061099a82336125f5565b6001600160a01b0385163314806112755750611275853361082d565b6112915760405162461bcd60e51b815260040161096c90615503565b61129e8585858585612ad0565b5050505050565b6001600160a01b0382166000908152610196602052604081205482106112dd5760405162461bcd60e51b815260040161096c90615724565b6001600160a01b03831660009081526101966020526040902080548390811061131657634e487b7160e01b600052603260045260246000fd5b9060005260206000200154905092915050565b306001600160a01b037f00000000000000000000000000000000000000000000000000000000000000001614156113725760405162461bcd60e51b815260040161096c906155de565b7f00000000000000000000000000000000000000000000000000000000000000006001600160a01b03166113a4612c87565b6001600160a01b0316146113ca5760405162461bcd60e51b815260040161096c90615618565b6113d381612ca3565b604080516000808252602082019092526113ef91839190612d29565b50565b6113fd6008836115cd565b8061140b575061140b6128d6565b6114275760405162461bcd60e51b815260040161096c90615805565b5050565b6000611439602060026158e8565b82106114875760405162461bcd60e51b815260206004820152601f60248201527f496e64696365732063616e206265206174206d6f737420333220426974732e00604482015260640161096c565b81600184600c8111156114aa57634e487b7160e01b600052602160045260246000fd5b146114b657600061150f565b600160038060086114ca600d610100615993565b6114d491906159cd565b6114de91906159cd565b6114e891906159cd565b6114f291906159cd565b60ff1660016115028160026158e8565b61150c91906159b6565b901b5b6008600160038083611524600d610100615993565b61152e91906159cd565b61153891906159cd565b61154291906159cd565b61154c91906159cd565b61155691906159cd565b60ff1685600c81111561157957634e487b7160e01b600052602160045260246000fd5b901b600861158a600d610100615993565b61159491906159cd565b60ff166001901b171717905092915050565b600081815261019560205260408120546115c39085908590610e2e565b1515949350505050565b60006112468333846115a6565b6000611246338484612631565b600054610100900460ff16158080156116075750600054600160ff909116105b80611628575061161630612ac1565b158015611628575060005460ff166001145b61168b5760405162461bcd60e51b815260206004820152602e60248201527f496e697469616c697a61626c653a20636f6e747261637420697320616c72656160448201526d191e481a5b9a5d1a585b1a5e995960921b606482015260840161096c565b6000805460ff1916600117905580156116ae576000805461ff0019166101001790555b6116b6612ea3565b6116f46040518060400160405280602081526020017f4572726f723a2053696e676c6520546f6b656e20555249204e6f742055736564815250612ed2565b6116fc612f02565b611704612f02565b61170c612f02565b61019480546001810182556000918252600080516020615c0b833981519152015561173985858585611b26565b801561129e576000805461ff0019169055604051600181527f7f26b83ff96e1f2b6a682f133852f6798a09c465da95921460cefb38474024989060200160405180910390a15050505050565b606081518351146117ea5760405162461bcd60e51b815260206004820152602960248201527f455243313135353a206163636f756e747320616e6420696473206c656e677468604482015268040dad2e6dac2e8c6d60bb1b606482015260840161096c565b600083516001600160401b0381111561181357634e487b7160e01b600052604160045260246000fd5b60405190808252806020026020018201604052801561183c578160200160208202803683370190505b50905060005b84518110156118de576118a385828151811061186e57634e487b7160e01b600052603260045260246000fd5b602002602001015185838151811061189657634e487b7160e01b600052603260045260246000fd5b6020026020010151610905565b8282815181106118c357634e487b7160e01b600052603260045260246000fd5b60209081029190910101526118d781615a83565b9050611842565b509392505050565b306001600160a01b037f000000000000000000000000000000000000000000000000000000000000000016141561192f5760405162461bcd60e51b815260040161096c906155de565b7f00000000000000000000000000000000000000000000000000000000000000006001600160a01b0316611961612c87565b6001600160a01b0316146119875760405162461bcd60e51b815260040161096c90615618565b61199082612ca3565b61142782826001612d29565b6000806119a88361288f565b1192915050565b6000808211611a135760405162461bcd60e51b815260206004820152602a60248201527f4552432d3131353520456e756d657261626c653a20746f6b656e7320696e64656044820152697865642066726f6d203160b01b606482015260840161096c565b61019454821115611a365760405162461bcd60e51b815260040161096c90615724565b610194805483908110611a5957634e487b7160e01b600052603260045260246000fd5b90600052602060002001549050919050565b6000306001600160a01b037f00000000000000000000000000000000000000000000000000000000000000001614611b065760405162461bcd60e51b815260206004820152603860248201527f555550535570677261646561626c653a206d757374206e6f742062652063616c6044820152771b1959081d1a1c9bdd59da0819195b1959d85d1958d85b1b60421b606482015260840161096c565b50600080516020615c4b8339815191525b90565b6114278282600061260e565b611b2e612f29565b611b3b61019185856148db565b5061129e61019283836148db565b6001600160a01b038316331480611b655750611b65833361082d565b611b815760405162461bcd60e51b815260040161096c90615503565b611b8c838383612f88565b505050565b61019781600b8110611ba257600080fd5b018054909150610a6c90615a1c565b611bb9612f29565b611bc36000613131565b565b6000600160088160038083611bdd600d610100615993565b611be791906159cd565b611bf191906159cd565b611bfb91906159cd565b611c0591906159cd565b611c0f91906159cd565b611c1991906159cd565b60ff166001611c298160026158e8565b611c3391906159b6565b901b600160088160038083611c4b600d610100615993565b611c5591906159cd565b611c5f91906159cd565b611c6991906159cd565b611c7391906159cd565b611c7d91906159cd565b611c8791906159cd565b60ff166001611c978160026158e8565b611ca191906159b6565b901b85161415611d055760405162461bcd60e51b815260206004820152602960248201527f43616e6e6f74206d696e7420696e7465726e616c20746f6b656e732066726f6d6044820152681037baba39b4b2329760b91b606482015260840161096c565b60016003806008611d19600d610100615993565b611d2391906159cd565b611d2d91906159cd565b611d3791906159cd565b611d4191906159cd565b60ff166001901b60016003806008600d60ff16610100611d619190615993565b611d6b91906159cd565b611d7591906159cd565b611d7f91906159cd565b611d8991906159cd565b60ff166001901b8516148015611da857506000611da68686610905565b115b15611db557506000611dc5565b611dc185858585613183565b5060015b949350505050565b60008082604051602001611de1919061532b565b604051602081830303815290604052805190602001209050604051602001611e18906829bab832b93ab9b2b960b91b815260090190565b60405160208183030381529060405280519060200120811415611e3e5750600192915050565b6040516526b4b73a32b960d11b602082015260260160405160208183030381529060405280519060200120811415611e795750600292915050565b6040516521b0b9ba32b960d11b602082015260260160405160208183030381529060405280519060200120811415611eb45750600392915050565b604051692a3930b739b332b932b960b11b6020820152602a0160405160208183030381529060405280519060200120811415611ef35750600492915050565b6040516921b7b73334b3bab932b960b11b6020820152602a0160405160208183030381529060405280519060200120811415611f325750600592915050565b6040516926b0b4b73a30b4b732b960b11b6020820152602a0160405160208183030381529060405280519060200120811415611f715750600692915050565b6040516621b932b0ba37b960c91b602082015260270160405160208183030381529060405280519060200120811415611fad5750600792915050565b604051662634b6b4ba32b960c91b602082015260270160405160208183030381529060405280519060200120811415611fe95750600892915050565b60405165213ab93732b960d11b6020820152602601604051602081830303815290604052805190602001208114156120245750600992915050565b604051682232b9ba3937bcb2b960b91b6020820152602901604051602081830303815290604052805190602001208114156120625750600a92915050565b604051654f7261636c6560d01b60208201526026016040516020818303038152906040528051906020012081141561209d5750600b92915050565b6040516b14995cd95c9d995913185cdd60a21b6020820152602c01604051602081830303815290604052805190602001208114156120de5750600c92915050565b826040516020016120ef9190615347565b60408051601f198184030181529082905262461bcd60e51b825261096c916004016154f0565b6060600182600c81111561213957634e487b7160e01b600052602160045260246000fd5b141561216457505060408051808201909152600981526829bab832b93ab9b2b960b91b602082015290565b600282600c81111561218657634e487b7160e01b600052602160045260246000fd5b14156121ae57505060408051808201909152600681526526b4b73a32b960d11b602082015290565b600382600c8111156121d057634e487b7160e01b600052602160045260246000fd5b14156121f857505060408051808201909152600681526521b0b9ba32b960d11b602082015290565b600482600c81111561221a57634e487b7160e01b600052602160045260246000fd5b141561224657505060408051808201909152600a8152692a3930b739b332b932b960b11b602082015290565b600582600c81111561226857634e487b7160e01b600052602160045260246000fd5b141561229457505060408051808201909152600a81526921b7b73334b3bab932b960b11b602082015290565b600682600c8111156122b657634e487b7160e01b600052602160045260246000fd5b14156122e257505060408051808201909152600a81526926b0b4b73a30b4b732b960b11b602082015290565b600782600c81111561230457634e487b7160e01b600052602160045260246000fd5b141561232d57505060408051808201909152600781526621b932b0ba37b960c91b602082015290565b600882600c81111561234f57634e487b7160e01b600052602160045260246000fd5b14156123785750506040805180820190915260078152662634b6b4ba32b960c91b602082015290565b600982600c81111561239a57634e487b7160e01b600052602160045260246000fd5b14156123c2575050604080518082019091526006815265213ab93732b960d11b602082015290565b600a82600c8111156123e457634e487b7160e01b600052602160045260246000fd5b141561240f5750506040805180820190915260098152682232b9ba3937bcb2b960b91b602082015290565b600b82600c81111561243157634e487b7160e01b600052602160045260246000fd5b14156124595750506040805180820190915260068152654f7261636c6560d01b602082015290565b600c82600c81111561247b57634e487b7160e01b600052602160045260246000fd5b14156124a957505060408051808201909152600c81526b14995cd95c9d995913185cdd60a21b602082015290565b6124d482600c8111156124cc57634e487b7160e01b600052602160045260246000fd5b60ff16613296565b6040516020016120ef9190615382565b6124ef6005846115cd565b806124fd57506124fd6128d6565b6125665760405162461bcd60e51b815260206004820152603460248201527f596f75206d7573742068617665206120436f6e6669677572657220746f6b656e604482015273103a379031b430b733b29036b2ba30b230ba309760611b606482015260840161096c565b6000838152610193602052604090206125809083836148db565b50827f6bb7ff708619ba0610cba295a58592e0451dee2622938c8755667688daf3529b83836040516125b39291906154c1565b60405180910390a2505050565b6097546001600160a01b031690565b6101928054610a6c90615a1c565b610194546000906125f0906001906159b6565b905090565b6000611246838360006115a6565b6114273383836133af565b611b8c8383831561262757612622846109f0565b61262a565b60005b6000613490565b61019454600090806008612648600d610100615993565b61265291906159cd565b60ff166009901b1791506126676007836115cd565b8061267557506126756128d6565b6126dd5760405162461bcd60e51b815260206004820152603360248201527f596f75206d757374206861766520612043726561746f7220746f6b656e20746f6044820152721031b932b0ba32903732bb903a37b5b2b7399760691b606482015260840161096c565b610194805460018101909155600080516020615c0b833981519152018290556000828152610195602052604081208290555b845181101561275e5761274c85828151811061273b57634e487b7160e01b600052603260045260246000fd5b602002602001015187846001613490565b8061275681615a83565b91505061270f565b5060005b83518110156127ae5761279c84828151811061278e57634e487b7160e01b600052603260045260246000fd5b602002602001015183612a47565b806127a681615a83565b915050612762565b50604080518381526001600160a01b03871660208201527f7757890bcab34d673dfca6b71df1b57f75a2fe4231d6e8de726caf534ab1fdd6910160405180910390a160006127ff6007336000610e2e565b90506003806008612813600d610100615993565b61281d91906159cd565b61282791906159cd565b61283191906159cd565b600160ff919091161b600380600861284c600d610100615993565b61285691906159cd565b61286091906159cd565b61286a91906159cd565b60ff166001901b8216141561288657612886335b82600161364b565b50509392505050565b600090815260fb602052604090205490565b60006128ae6001836125f5565b8061099a57506128bc6125c0565b6001600160a01b0316826001600160a01b03161492915050565b60006125f0336128a1565b604080516000808252602082019092526128fc338283612631565b91505090565b6001600160a01b03851633148061291e575061291e853361082d565b61293a5760405162461bcd60e51b815260040161096c90615503565b61129e8585858585613755565b61294f612f29565b6001600160a01b0381166129b45760405162461bcd60e51b815260206004820152602660248201527f4f776e61626c653a206e6577206f776e657220697320746865207a65726f206160448201526564647265737360d01b606482015260840161096c565b6113ef81613131565b6129c9600984846115a6565b806129d857506129d8836128a1565b612a3c5760405162461bcd60e51b815260206004820152602f60248201527f596f75206d75737420686176652061204275726e657220746f6b656e20746f2060448201526e3232b9ba3937bc903a37b5b2b7399760891b606482015260840161096c565b611b8c83838361364b565b60008181526101956020526040812054612a6290849061142b565b90506008612a73600d610100615993565b612a7d91906159cd565b610194805460018101909155600a60ff929092169190911b91909117600080516020615c0b8339815191528201819055600090815261019560205260409020555050565b6001600160a01b03163b151590565b8151835114612af15760405162461bcd60e51b815260040161096c906157bd565b6001600160a01b038416612b175760405162461bcd60e51b815260040161096c90615652565b33612b2681878787878761387f565b60005b8451811015612c2b576000858281518110612b5457634e487b7160e01b600052603260045260246000fd5b602002602001015190506000858381518110612b8057634e487b7160e01b600052603260045260246000fd5b60209081029190910181015160008481526065835260408082206001600160a01b038e168352909352919091205490915081811015612bd15760405162461bcd60e51b815260040161096c906156da565b60008381526065602090815260408083206001600160a01b038e8116855292528083208585039055908b16825281208054849290612c10908490615879565b9250508190555050505080612c2490615a83565b9050612b29565b50846001600160a01b0316866001600160a01b0316826001600160a01b0316600080516020615bcb8339815191528787604051612c69929190615474565b60405180910390a4612c7f8187878787876141f1565b505050505050565b600080516020615c4b833981519152546001600160a01b031690565b612cad600661124d565b80612cbb5750612cbb6128d6565b6113ef5760405162461bcd60e51b815260206004820152603960248201527f596f75206d75737420686176652061204d61696e7461696e657220746f6b656e604482015278103a37903ab833b930b232903a34329031b7b73a3930b1ba1760391b606482015260840161096c565b7f4910fdfa16fed3260ed0e7147f7cc6da11a60208b5b9406d12a635614ffd91435460ff1615612d5c57611b8c83614363565b826001600160a01b03166352d1902d6040518163ffffffff1660e01b815260040160206040518083038186803b158015612d9557600080fd5b505afa925050508015612dc5575060408051601f3d908101601f19168201909252612dc291810190615092565b60015b612e285760405162461bcd60e51b815260206004820152602e60248201527f45524331393637557067726164653a206e657720696d706c656d656e7461746960448201526d6f6e206973206e6f74205555505360901b606482015260840161096c565b600080516020615c4b8339815191528114612e975760405162461bcd60e51b815260206004820152602960248201527f45524331393637557067726164653a20756e737570706f727465642070726f786044820152681a58589b195555525160ba1b606482015260840161096c565b50611b8c8383836143fd565b600054610100900460ff16612eca5760405162461bcd60e51b815260040161096c90615772565b611bc3614422565b600054610100900460ff16612ef95760405162461bcd60e51b815260040161096c90615772565b6113ef81614452565b600054610100900460ff16611bc35760405162461bcd60e51b815260040161096c90615772565b33612f326125c0565b6001600160a01b031614611bc35760405162461bcd60e51b815260206004820181905260248201527f4f776e61626c653a2063616c6c6572206973206e6f7420746865206f776e6572604482015260640161096c565b6001600160a01b038316612fae5760405162461bcd60e51b815260040161096c90615697565b8051825114612fcf5760405162461bcd60e51b815260040161096c906157bd565b6000339050612ff28185600086866040518060200160405280600081525061387f565b60005b83518110156130d657600084828151811061302057634e487b7160e01b600052603260045260246000fd5b60200260200101519050600084838151811061304c57634e487b7160e01b600052603260045260246000fd5b60209081029190910181015160008481526065835260408082206001600160a01b038c16835290935291909120549091508181101561309d5760405162461bcd60e51b815260040161096c9061559a565b60009283526065602090815260408085206001600160a01b038b16865290915290922091039055806130ce81615a83565b915050612ff5565b5060006001600160a01b0316846001600160a01b0316826001600160a01b0316600080516020615bcb8339815191528686604051613115929190615474565b60405180910390a4604080516020810190915260009052610db1565b609780546001600160a01b038381166001600160a01b0319831681179093556040519116919082907f8be0079c531659141344cd1fd0a4f28419497f9722a3daafe3b4186f6b6457e090600090a35050565b6001600160a01b0384166131e35760405162461bcd60e51b815260206004820152602160248201527f455243313135353a206d696e7420746f20746865207a65726f206164647265736044820152607360f81b606482015260840161096c565b3360006131ef85614482565b905060006131fc85614482565b905061320d8360008985858961387f565b60008681526065602090815260408083206001600160a01b038b1684529091528120805487929061323f908490615879565b909155505060408051878152602081018790526001600160a01b03808a169260009291871691600080516020615beb833981519152910160405180910390a461328d836000898989896144db565b50505050505050565b6060816132ba5750506040805180820190915260018152600360fc1b602082015290565b8160005b81156132e457806132ce81615a83565b91506132dd9050600a83615891565b91506132be565b6000816001600160401b0381111561330c57634e487b7160e01b600052604160045260246000fd5b6040519080825280601f01601f191660200182016040528015613336576020820181803683370190505b5090505b8415611dc55761334b6001836159b6565b9150613358600a86615abe565b613363906030615879565b60f81b81838151811061338657634e487b7160e01b600052603260045260246000fd5b60200101906001600160f81b031916908160001a9053506133a8600a86615891565b945061333a565b816001600160a01b0316836001600160a01b031614156134235760405162461bcd60e51b815260206004820152602960248201527f455243313135353a2073657474696e6720617070726f76616c20737461747573604482015268103337b91039b2b63360b91b606482015260840161096c565b6001600160a01b03838116600081815260666020908152604080832094871680845294825291829020805460ff191686151590811790915591519182527f17307eab39ab6107e8899845ad3d59bd9653f200f220920489ca2b5937696c31910160405180910390a3505050565b806135aa57600184600c8111156134b757634e487b7160e01b600052602160045260246000fd5b141561352a576134c56128d6565b6135255760405162461bcd60e51b815260206004820152602b60248201527f596f75206d75737420626520612073757065727573657220746f20637265617460448201526a32903732bb9037b732b99760a91b606482015260840161096c565b6135aa565b6135356003836115cd565b8061354357506135436128d6565b6135aa5760405162461bcd60e51b815260206004820152603260248201527f596f75206d7573742068617665207468652043617374657220726f6c6520746f6044820152711030b9b9b4b3b7103732bb903937b632b99760711b606482015260840161096c565b610db183826135ba576000613629565b6001600881600380836135d0600d610100615993565b6135da91906159cd565b6135e491906159cd565b6135ee91906159cd565b6135f891906159cd565b61360291906159cd565b61360c91906159cd565b60ff16600161361c8160026158e8565b61362691906159b6565b901b5b613633878661142b565b17600160405180602001604052806000815250613183565b6001600160a01b0383166136715760405162461bcd60e51b815260040161096c90615697565b33600061367d84614482565b9050600061368a84614482565b90506136aa8387600085856040518060200160405280600081525061387f565b60008581526065602090815260408083206001600160a01b038a168452909152902054848110156136ed5760405162461bcd60e51b815260040161096c9061559a565b60008681526065602090815260408083206001600160a01b038b81168086529184528285208a8703905582518b81529384018a9052909290881691600080516020615beb833981519152910160405180910390a460408051602081019091526000905261328d565b6001600160a01b03841661377b5760405162461bcd60e51b815260040161096c90615652565b33600061378785614482565b9050600061379485614482565b90506137a483898985858961387f565b60008681526065602090815260408083206001600160a01b038c168452909152902054858110156137e75760405162461bcd60e51b815260040161096c906156da565b60008781526065602090815260408083206001600160a01b038d8116855292528083208985039055908a16825281208054889290613826908490615879565b909155505060408051888152602081018890526001600160a01b03808b16928c82169291881691600080516020615beb833981519152910160405180910390a4613874848a8a8a8a8a6144db565b505050505050505050565b6138876128d6565b613e295760005b8351811015613e27576001600881600380836138ad600d610100615993565b6138b791906159cd565b6138c191906159cd565b6138cb91906159cd565b6138d591906159cd565b6138df91906159cd565b6138e991906159cd565b60ff1660016138f98160026158e8565b61390391906159b6565b901b60016008816003808361391b600d610100615993565b61392591906159cd565b61392f91906159cd565b61393991906159cd565b61394391906159cd565b61394d91906159cd565b61395791906159cd565b60ff1660016139678160026158e8565b61397191906159b6565b901b85838151811061399357634e487b7160e01b600052603260045260246000fd5b60200260200101511614613e175760006001600160a01b038716156139b95760046139bc565b60025b9050600281600c8111156139e057634e487b7160e01b600052602160045260246000fd5b1415613d795760006101a26000878581518110613a0d57634e487b7160e01b600052603260045260246000fd5b6020026020010151815260200190815260200160002060009054906101000a900460070b60070b12613b35576101a26000868481518110613a5e57634e487b7160e01b600052603260045260246000fd5b6020026020010151815260200190815260200160002060009054906101000a900460070b60070b848381518110613aa557634e487b7160e01b600052603260045260246000fd5b6020026020010151613add878581518110613ad057634e487b7160e01b600052603260045260246000fd5b602002602001015161288f565b613ae79190615879565b1315613b355760405162461bcd60e51b815260206004820181905260248201527f4d6178696d756d206d696e7420616c6c6f77616e63652065786365656465642e604482015260640161096c565b6008613b44600d610100615993565b613b4e91906159cd565b600160ff919091161b6008613b66600d610100615993565b613b7091906159cd565b60ff166001613b81600860026158e8565b613b8b91906159b6565b901b868481518110613bad57634e487b7160e01b600052603260045260246000fd5b6020026020010151161415613c6757613bee6003868481518110613be157634e487b7160e01b600052603260045260246000fd5b60200260200101516115cd565b80613bfc5750613bfc6128d6565b613c625760405162461bcd60e51b815260206004820152603160248201527f596f75206d757374206861766520612043617374657220746f6b656e20746f2060448201527036b4b73a103a37b5b2b71033b0ba32b99760791b606482015260840161096c565b613e15565b6000613c9e823361038a898781518110613c9157634e487b7160e01b600052603260045260246000fd5b60200260200101516109f0565b9050613cc482878581518110613be157634e487b7160e01b600052603260045260246000fd5b613d295760405162461bcd60e51b815260206004820152603060248201527f596f75206d75737420686176652061204d696e74657220746f6b656e20746f2060448201526f33b2b732b930ba32903a37b5b2b7399760811b606482015260840161096c565b60006003806008613d3d600d610100615993565b613d4791906159cd565b613d5191906159cd565b613d5b91906159cd565b60ff166001901b82161115613d7357613d733361287e565b50613e15565b6001600160a01b03861615613e1557613dac81868481518110613be157634e487b7160e01b600052603260045260246000fd5b613e155760405162461bcd60e51b815260206004820152603460248201527f596f75206d75737420686176652061205472616e73666572657220746f6b656e604482015273103a37903a3930b739b332b9103a37b5b2b7399760611b606482015260840161096c565b505b613e2081615a83565b905061388e565b505b6001600160a01b0384161561404f5760005b835181101561404d576101946001016000858381518110613e6c57634e487b7160e01b600052603260045260246000fd5b602002602001015181526020019081526020016000205460001415613f1857610194600001848281518110613eb157634e487b7160e01b600052603260045260246000fd5b6020908102919091018101518254600181018455600093845291832090910155610194548551909161019591879085908110613efd57634e487b7160e01b600052603260045260246000fd5b60200260200101518152602001908152602001600020819055505b6101966000866001600160a01b03166001600160a01b031681526020019081526020016000206001016000858381518110613f6357634e487b7160e01b600052603260045260246000fd5b60200260200101518152602001908152602001600020546000141561403d576001600160a01b0385166000908152610196602052604090208451859083908110613fbd57634e487b7160e01b600052603260045260246000fd5b6020908102919091018101518254600181810185556000948552838520909101919091556001600160a01b038816835261019690915260408220805487519093919092019187908590811061402257634e487b7160e01b600052603260045260246000fd5b60200260200101518152602001908152602001600020819055505b61404681615a83565b9050613e3b565b505b6001600160a01b038516156141e35760005b83518110156141e15782818151811061408a57634e487b7160e01b600052603260045260246000fd5b60200260200101516140b68786848151811061189657634e487b7160e01b600052603260045260246000fd5b116141d1576001600160a01b038616600090815261019660205260408120855160019182019083908890869081106140fe57634e487b7160e01b600052603260045260246000fd5b602002602001015181526020019081526020016000205461411f91906159b6565b6001600160a01b0388166000908152610196602052604090208054919250908290811061415c57634e487b7160e01b600052603260045260246000fd5b90600052602060002001600090556101966000886001600160a01b03166001600160a01b0316815260200190815260200160002060010160008684815181106141b557634e487b7160e01b600052603260045260246000fd5b6020026020010151815260200190815260200160002060009055505b6141da81615a83565b9050614061565b505b612c7f8686868686866145ac565b614203846001600160a01b0316612ac1565b15612c7f5760405163bc197c8160e01b81526001600160a01b0385169063bc197c819061423c90899089908890889088906004016153be565b602060405180830381600087803b15801561425657600080fd5b505af1925050508015614286575060408051601f3d908101601f19168201909252614283918101906150c6565b60015b61433357614292615b14565b806308c379a014156142cc57506142a7615b2b565b806142b257506142ce565b8060405162461bcd60e51b815260040161096c91906154f0565b505b60405162461bcd60e51b815260206004820152603460248201527f455243313135353a207472616e7366657220746f206e6f6e20455243313135356044820152732932b1b2b4bb32b91034b6b83632b6b2b73a32b960611b606482015260840161096c565b6001600160e01b0319811663bc197c8160e01b1461328d5760405162461bcd60e51b815260040161096c90615552565b61436c81612ac1565b6143ce5760405162461bcd60e51b815260206004820152602d60248201527f455243313936373a206e657720696d706c656d656e746174696f6e206973206e60448201526c1bdd08184818dbdb9d1c9858dd609a1b606482015260840161096c565b600080516020615c4b83398151915280546001600160a01b0319166001600160a01b0392909216919091179055565b6144068361475d565b6000825111806144135750805b15611b8c57610db1838361479d565b600054610100900460ff166144495760405162461bcd60e51b815260040161096c90615772565b611bc333613131565b600054610100900460ff166144795760405162461bcd60e51b815260040161096c90615772565b6113ef8161488f565b604080516001808252818301909252606091600091906020808301908036833701905050905082816000815181106144ca57634e487b7160e01b600052603260045260246000fd5b602090810291909101015292915050565b6144ed846001600160a01b0316612ac1565b15612c7f5760405163f23a6e6160e01b81526001600160a01b0385169063f23a6e6190614526908990899088908890889060040161541c565b602060405180830381600087803b15801561454057600080fd5b505af1925050508015614570575060408051601f3d908101601f1916820190925261456d918101906150c6565b60015b61457c57614292615b14565b6001600160e01b0319811663f23a6e6160e01b1461328d5760405162461bcd60e51b815260040161096c90615552565b6001600160a01b03851661464f5760005b835181101561464d578281815181106145e657634e487b7160e01b600052603260045260246000fd5b602002602001015160fb600086848151811061461257634e487b7160e01b600052603260045260246000fd5b6020026020010151815260200190815260200160002060008282546146379190615879565b90915550614646905081615a83565b90506145bd565b505b6001600160a01b038416612c7f5760005b835181101561328d57600084828151811061468b57634e487b7160e01b600052603260045260246000fd5b6020026020010151905060008483815181106146b757634e487b7160e01b600052603260045260246000fd5b60200260200101519050600060fb60008481526020019081526020016000205490508181101561473a5760405162461bcd60e51b815260206004820152602860248201527f455243313135353a206275726e20616d6f756e74206578636565647320746f74604482015267616c537570706c7960c01b606482015260840161096c565b600092835260fb60205260409092209103905561475681615a83565b9050614660565b61476681614363565b6040516001600160a01b038216907fbc7cd75a20ee27fd9adebab32041f755214dbc6bffa90cc0225b39da2e5c2d3b90600090a250565b60606147a883612ac1565b6148035760405162461bcd60e51b815260206004820152602660248201527f416464726573733a2064656c65676174652063616c6c20746f206e6f6e2d636f6044820152651b9d1c9858dd60d21b606482015260840161096c565b600080846001600160a01b03168460405161481e919061532b565b600060405180830381855af49150503d8060008114614859576040519150601f19603f3d011682016040523d82523d6000602084013e61485e565b606091505b50915091506148868282604051806060016040528060278152602001615c6b602791396148a2565b95945050505050565b805161142790606790602084019061495f565b606083156148b1575081611246565b8251156148c15782518084602001fd5b8160405162461bcd60e51b815260040161096c91906154f0565b8280546148e790615a1c565b90600052602060002090601f016020900481019282614909576000855561494f565b82601f106149225782800160ff1982351617855561494f565b8280016001018555821561494f579182015b8281111561494f578235825591602001919060010190614934565b5061495b9291506149d3565b5090565b82805461496b90615a1c565b90600052602060002090601f01602090048101928261498d576000855561494f565b82601f106149a657805160ff191683800117855561494f565b8280016001018555821561494f579182015b8281111561494f5782518255916020019190600101906149b8565b5b8082111561495b57600081556001016149d4565b60006001600160401b03831115614a0157614a01615afe565b604051614a18601f8501601f191660200182615a57565b809150838152848484011115614a2d57600080fd5b83836020830137600060208583010152509392505050565b80356001600160a01b0381168114610a5957600080fd5b600082601f830112614a6c578081fd5b81356020614a7982615856565b604051614a868282615a57565b8381528281019150858301600585901b87018401881015614aa5578586fd5b855b85811015614aca57614ab882614a45565b84529284019290840190600101614aa7565b5090979650505050505050565b600082601f830112614ae7578081fd5b81356020614af482615856565b604051614b018282615a57565b8381528281019150858301600585901b87018401881015614b20578586fd5b855b85811015614aca57614b3382614bcb565b84529284019290840190600101614b22565b600082601f830112614b55578081fd5b81356020614b6282615856565b604051614b6f8282615a57565b8381528281019150858301600585901b87018401881015614b8e578586fd5b855b85811015614aca57813584529284019290840190600101614b90565b600082601f830112614bbc578081fd5b611246838335602085016149e8565b8035600d8110610a5957600080fd5b60008083601f840112614beb578182fd5b5081356001600160401b03811115614c01578182fd5b602083019150836020828501011115614c1957600080fd5b9250929050565b600060208284031215614c31578081fd5b61124682614a45565b60008060408385031215614c4c578081fd5b614c5583614a45565b9150614c6360208401614a45565b90509250929050565b600080600080600060a08688031215614c83578081fd5b614c8c86614a45565b9450614c9a60208701614a45565b935060408601356001600160401b0380821115614cb5578283fd5b614cc189838a01614b45565b94506060880135915080821115614cd6578283fd5b614ce289838a01614b45565b93506080880135915080821115614cf7578283fd5b50614d0488828901614bac565b9150509295509295909350565b600080600080600060a08688031215614d28578081fd5b614d3186614a45565b9450614d3f60208701614a45565b9350604086013592506060860135915060808601356001600160401b03811115614d67578182fd5b614d0488828901614bac565b600080600060608486031215614d87578081fd5b614d9084614a45565b925060208401356001600160401b0380821115614dab578283fd5b614db787838801614ad7565b93506040860135915080821115614dcc578283fd5b50614dd986828701614ad7565b9150509250925092565b600080600060608486031215614df7578081fd5b614e0084614a45565b925060208401356001600160401b0380821115614e1b578283fd5b614e2787838801614b45565b93506040860135915080821115614e3c578283fd5b50614dd986828701614b45565b60008060408385031215614e5b578182fd5b614e6483614a45565b915060208301358015158114614e78578182fd5b809150509250929050565b60008060408385031215614e95578182fd5b614e9e83614a45565b915060208301356001600160401b03811115614eb8578182fd5b614ec485828601614bac565b9150509250929050565b60008060408385031215614ee0578182fd5b614ee983614a45565b946020939093013593505050565b600080600060608486031215614f0b578081fd5b614f1484614a45565b95602085013595506040909401359392505050565b60008060008060808587031215614f3e578182fd5b614f4785614a45565b9350602085013592506040850135915060608501356001600160401b03811115614f6f578182fd5b614f7b87828801614bac565b91505092959194509250565b60008060408385031215614f99578182fd5b82356001600160401b0380821115614faf578384fd5b614fbb86838701614a5c565b93506020850135915080821115614fd0578283fd5b50614ec485828601614b45565b600080600060608486031215614ff1578081fd5b83356001600160401b0380821115615007578283fd5b61501387838801614a5c565b945060208601359350604086013591508082111561502f578283fd5b50614dd986828701614bac565b6000806040838503121561504e578182fd5b82356001600160401b0380821115615064578384fd5b61507086838701614ad7565b93506020850135915080821115615085578283fd5b50614ec485828601614ad7565b6000602082840312156150a3578081fd5b5051919050565b6000602082840312156150bb578081fd5b813561124681615bb4565b6000602082840312156150d7578081fd5b815161124681615bb4565b6000602082840312156150f3578081fd5b61124682614bcb565b6000806040838503121561510e578182fd5b614c5583614bcb565b60008060006060848603121561512b578081fd5b61513484614bcb565b925061514260208501614a45565b9150604084013590509250925092565b60008060408385031215615164578182fd5b614ee983614bcb565b60008060008060408587031215615182578182fd5b84356001600160401b0380821115615198578384fd5b6151a488838901614bda565b909650945060208701359150808211156151bc578384fd5b506151c987828801614bda565b95989497509550505050565b6000602082840312156151e6578081fd5b81356001600160401b038111156151fb578182fd5b8201601f8101841361520b578182fd5b611dc5848235602084016149e8565b60006020828403121561522b578081fd5b5035919050565b60008060408385031215615244578182fd5b8235915060208301358060070b8114614e78578182fd5b60008060006040848603121561526f578081fd5b8335925060208401356001600160401b0381111561528b578182fd5b61529786828701614bda565b9497909650939450505050565b600080604083850312156152b6578182fd5b50508035926020909101359150565b6000815180845260208085019450808401835b838110156152f4578151875295820195908201906001016152d8565b509495945050505050565b600081518084526153178160208601602086016159f0565b601f01601f19169290920160200192915050565b6000825161533d8184602087016159f0565b9190910192915050565b7202ab735b737bbb7103937b632903a3cb8329d1606d1b8152600082516153758160138501602087016159f0565b9190910160130192915050565b7302ab735b737bbb7102937b6329024b73232bc1d160651b8152600082516153b18160148501602087016159f0565b9190910160140192915050565b6001600160a01b0386811682528516602082015260a0604082018190526000906153ea908301866152c5565b82810360608401526153fc81866152c5565b9050828103608084015261541081856152ff565b98975050505050505050565b6001600160a01b03868116825285166020820152604081018490526060810183905260a060808201819052600090615456908301846152ff565b979650505050505050565b60208152600061124660208301846152c5565b60408152600061548760408301856152c5565b828103602084015261488681856152c5565b60208101600d83106154bb57634e487b7160e01b600052602160045260246000fd5b91905290565b60208152816020820152818360408301376000818301604090810191909152601f909201601f19160101919050565b60208152600061124660208301846152ff565b6020808252602f908201527f455243313135353a2063616c6c6572206973206e6f7420746f6b656e206f776e60408201526e195c881b9bdc88185c1c1c9bdd9959608a1b606082015260800190565b60208082526028908201527f455243313135353a204552433131353552656365697665722072656a656374656040820152676420746f6b656e7360c01b606082015260800190565b60208082526024908201527f455243313135353a206275726e20616d6f756e7420657863656564732062616c604082015263616e636560e01b606082015260800190565b6020808252602c90820152600080516020615c2b83398151915260408201526b19195b1959d85d1958d85b1b60a21b606082015260800190565b6020808252602c90820152600080516020615c2b83398151915260408201526b6163746976652070726f787960a01b606082015260800190565b60208082526025908201527f455243313135353a207472616e7366657220746f20746865207a65726f206164604082015264647265737360d81b606082015260800190565b60208082526023908201527f455243313135353a206275726e2066726f6d20746865207a65726f206164647260408201526265737360e81b606082015260800190565b6020808252602a908201527f455243313135353a20696e73756666696369656e742062616c616e636520666f60408201526939103a3930b739b332b960b11b606082015260800190565b6020808252602e908201527f4552432d3131353520456e756d657261626c653a20746f6b656e20696e64657860408201526d206f7574206f6620626f756e647360901b606082015260800190565b6020808252602b908201527f496e697469616c697a61626c653a20636f6e7472616374206973206e6f74206960408201526a6e697469616c697a696e6760a81b606082015260800190565b60208082526028908201527f455243313135353a2069647320616e6420616d6f756e7473206c656e677468206040820152670dad2e6dac2e8c6d60c31b606082015260800190565b60208082526031908201527f596f75206d75737420686176652061204c696d6974657220746f6b656e20746f6040820152701031b430b733b29038bab0b73a34ba3c9760791b606082015260800190565b60006001600160401b0382111561586f5761586f615afe565b5060051b60200190565b6000821982111561588c5761588c615ad2565b500190565b6000826158a0576158a0615ae8565b500490565b600181815b808511156158e05781600019048211156158c6576158c6615ad2565b808516156158d357918102915b93841c93908002906158aa565b509250929050565b600061124660ff8416836000826159015750600161099a565b8161590e5750600061099a565b8160018114615924576002811461592e5761594a565b600191505061099a565b60ff84111561593f5761593f615ad2565b50506001821b61099a565b5060208310610133831016604e8410600b841016171561596d575081810a61099a565b61597783836158a5565b806000190482111561598b5761598b615ad2565b029392505050565b600061ffff838116908316818110156159ae576159ae615ad2565b039392505050565b6000828210156159c8576159c8615ad2565b500390565b600060ff821660ff8416808210156159e7576159e7615ad2565b90039392505050565b60005b83811015615a0b5781810151838201526020016159f3565b83811115610db15750506000910152565b600181811c90821680615a3057607f821691505b60208210811415615a5157634e487b7160e01b600052602260045260246000fd5b50919050565b601f8201601f191681016001600160401b0381118282101715615a7c57615a7c615afe565b6040525050565b6000600019821415615a9757615a97615ad2565b5060010190565b600060ff821660ff811415615ab557615ab5615ad2565b60010192915050565b600082615acd57615acd615ae8565b500690565b634e487b7160e01b600052601160045260246000fd5b634e487b7160e01b600052601260045260246000fd5b634e487b7160e01b600052604160045260246000fd5b600060033d1115611b1757600481823e5160e01c90565b600060443d1015615b395790565b6040516003193d81016004833e81513d6001600160401b038083116024840183101715615b6857505050505090565b8285019150815181811115615b805750505050505090565b843d8701016020828501011115615b9a5750505050505090565b615ba960208286010187615a57565b509095945050505050565b6001600160e01b0319811681146113ef57600080fdfe4a39dc06d4c0dbc64b70af90fd698a233a518aa5d07e595d983b8c0526c8f7fbc3d58168c5ae7397731d063d5bbf3d657854427343f4c083240f7aacaa2d0f62a6f1ac7ad7b125ba5a5e1c96b00ad6914f90a503b1ac3d85a9dadbb4c639df9246756e6374696f6e206d7573742062652063616c6c6564207468726f75676820360894a13ba1a3210667c828492db98dca3e2076cc3735a920a3ca505d382bbc416464726573733a206c6f772d6c6576656c2064656c65676174652063616c6c206661696c6564a26469706673582212208846c0a5decb5bf8c638539e0665f502ed29f12daf576241b2483897a785bfe964736f6c63430008040033",
  "linkReferences": {},
  "deployedLinkReferences": {}
}