{
  "_format": "hh-sol-artifact-1",
  "contractName": "BulkDisbersableNFTs",
  "sourceName": "src/BulkDisbersableNFTs.sol",
  "abi": [
    {
      "inputs": [],
      "stateMutability": "nonpayable",
      "type": "constructor"
    },
    {
      "anonymous": false,
      "inputs": [
        {
          "indexed": false,
          "internalType": "address",
          "name": "previousAdmin",
          "type": "address"
        },
        {
          "indexed": false,
          "internalType": "address",
          "name": "newAdmin",
          "type": "address"
        }
      ],
      "name": "AdminChanged",
      "type": "event"
    },
    {
      "anonymous": false,
      "inputs": [
        {
          "indexed": true,
          "internalType": "address",
          "name": "account",
          "type": "address"
        },
        {
          "indexed": true,
          "internalType": "address",
          "name": "operator",
          "type": "address"
        },
        {
          "indexed": false,
          "internalType": "bool",
          "name": "approved",
          "type": "bool"
        }
      ],
      "name": "ApprovalForAll",
      "type": "event"
    },
    {
      "anonymous": false,
      "inputs": [
        {
          "indexed": true,
          "internalType": "address",
          "name": "beacon",
          "type": "address"
        }
      ],
      "name": "BeaconUpgraded",
      "type": "event"
    },
    {
      "anonymous": false,
      "inputs": [
        {
          "indexed": false,
          "internalType": "uint256",
          "name": "id",
          "type": "uint256"
        },
        {
          "indexed": false,
          "internalType": "address",
          "name": "controller",
          "type": "address"
        }
      ],
      "name": "Created",
      "type": "event"
    },
    {
      "anonymous": false,
      "inputs": [
        {
          "indexed": true,
          "internalType": "address",
          "name": "previousOwner",
          "type": "address"
        },
        {
          "indexed": true,
          "internalType": "address",
          "name": "newOwner",
          "type": "address"
        }
      ],
      "name": "OwnershipTransferred",
      "type": "event"
    },
    {
      "anonymous": false,
      "inputs": [
        {
          "indexed": true,
          "internalType": "address",
          "name": "operator",
          "type": "address"
        },
        {
          "indexed": true,
          "internalType": "address",
          "name": "from",
          "type": "address"
        },
        {
          "indexed": true,
          "internalType": "address",
          "name": "to",
          "type": "address"
        },
        {
          "indexed": false,
          "internalType": "uint256[]",
          "name": "ids",
          "type": "uint256[]"
        },
        {
          "indexed": false,
          "internalType": "uint256[]",
          "name": "values",
          "type": "uint256[]"
        }
      ],
      "name": "TransferBatch",
      "type": "event"
    },
    {
      "anonymous": false,
      "inputs": [
        {
          "indexed": true,
          "internalType": "address",
          "name": "operator",
          "type": "address"
        },
        {
          "indexed": true,
          "internalType": "address",
          "name": "from",
          "type": "address"
        },
        {
          "indexed": true,
          "internalType": "address",
          "name": "to",
          "type": "address"
        },
        {
          "indexed": false,
          "internalType": "uint256",
          "name": "id",
          "type": "uint256"
        },
        {
          "indexed": false,
          "internalType": "uint256",
          "name": "value",
          "type": "uint256"
        }
      ],
      "name": "TransferSingle",
      "type": "event"
    },
    {
      "anonymous": false,
      "inputs": [
        {
          "indexed": false,
          "internalType": "string",
          "name": "value",
          "type": "string"
        },
        {
          "indexed": true,
          "internalType": "uint256",
          "name": "id",
          "type": "uint256"
        }
      ],
      "name": "URI",
      "type": "event"
    },
    {
      "anonymous": false,
      "inputs": [
        {
          "indexed": true,
          "internalType": "address",
          "name": "implementation",
          "type": "address"
        }
      ],
      "name": "Upgraded",
      "type": "event"
    },
    {
      "inputs": [],
      "name": "ADDRESS_TYPE",
      "outputs": [
        {
          "internalType": "uint256",
          "name": "",
          "type": "uint256"
        }
      ],
      "stateMutability": "view",
      "type": "function"
    },
    {
      "inputs": [],
      "name": "CASTER_ROLE",
      "outputs": [
        {
          "internalType": "uint256",
          "name": "",
          "type": "uint256"
        }
      ],
      "stateMutability": "view",
      "type": "function"
    },
    {
      "inputs": [],
      "name": "CONFIGURER_ROLE",
      "outputs": [
        {
          "internalType": "uint256",
          "name": "",
          "type": "uint256"
        }
      ],
      "stateMutability": "view",
      "type": "function"
    },
    {
      "inputs": [],
      "name": "CREATOR_ROLE",
      "outputs": [
        {
          "internalType": "uint256",
          "name": "",
          "type": "uint256"
        }
      ],
      "stateMutability": "view",
      "type": "function"
    },
    {
      "inputs": [],
      "name": "EXPERIMENTAL_TYPE",
      "outputs": [
        {
          "internalType": "uint256",
          "name": "",
          "type": "uint256"
        }
      ],
      "stateMutability": "view",
      "type": "function"
    },
    {
      "inputs": [],
      "name": "GATING_TYPE",
      "outputs": [
        {
          "internalType": "uint256",
          "name": "",
          "type": "uint256"
        }
      ],
      "stateMutability": "view",
      "type": "function"
    },
    {
      "inputs": [],
      "name": "LIMITER_ROLE",
      "outputs": [
        {
          "internalType": "uint256",
          "name": "",
          "type": "uint256"
        }
      ],
      "stateMutability": "view",
      "type": "function"
    },
    {
      "inputs": [],
      "name": "MAINTAINER_ROLE",
      "outputs": [
        {
          "internalType": "uint256",
          "name": "",
          "type": "uint256"
        }
      ],
      "stateMutability": "view",
      "type": "function"
    },
    {
      "inputs": [],
      "name": "MEMBERSHIP_TYPE",
      "outputs": [
        {
          "internalType": "uint256",
          "name": "",
          "type": "uint256"
        }
      ],
      "stateMutability": "view",
      "type": "function"
    },
    {
      "inputs": [],
      "name": "MINTER_ROLE",
      "outputs": [
        {
          "internalType": "uint256",
          "name": "",
          "type": "uint256"
        }
      ],
      "stateMutability": "view",
      "type": "function"
    },
    {
      "inputs": [],
      "name": "MODE_BOUNDARY",
      "outputs": [
        {
          "internalType": "uint256",
          "name": "",
          "type": "uint256"
        }
      ],
      "stateMutability": "view",
      "type": "function"
    },
    {
      "inputs": [],
      "name": "REQUIRE_ALL",
      "outputs": [
        {
          "internalType": "uint256",
          "name": "",
          "type": "uint256"
        }
      ],
      "stateMutability": "view",
      "type": "function"
    },
    {
      "inputs": [],
      "name": "REQUIRE_NONE",
      "outputs": [
        {
          "internalType": "uint256",
          "name": "",
          "type": "uint256"
        }
      ],
      "stateMutability": "view",
      "type": "function"
    },
    {
      "inputs": [],
      "name": "REQUIRE_ONE",
      "outputs": [
        {
          "internalType": "uint256",
          "name": "",
          "type": "uint256"
        }
      ],
      "stateMutability": "view",
      "type": "function"
    },
    {
      "inputs": [],
      "name": "ROLE_BOUNDARY",
      "outputs": [
        {
          "internalType": "uint256",
          "name": "",
          "type": "uint256"
        }
      ],
      "stateMutability": "view",
      "type": "function"
    },
    {
      "inputs": [],
      "name": "SUPERUSER_ROLE",
      "outputs": [
        {
          "internalType": "uint256",
          "name": "",
          "type": "uint256"
        }
      ],
      "stateMutability": "view",
      "type": "function"
    },
    {
      "inputs": [],
      "name": "TEAM_1",
      "outputs": [
        {
          "internalType": "uint256",
          "name": "",
          "type": "uint256"
        }
      ],
      "stateMutability": "view",
      "type": "function"
    },
    {
      "inputs": [],
      "name": "TEAM_2",
      "outputs": [
        {
          "internalType": "uint256",
          "name": "",
          "type": "uint256"
        }
      ],
      "stateMutability": "view",
      "type": "function"
    },
    {
      "inputs": [],
      "name": "TEAM_3",
      "outputs": [
        {
          "internalType": "uint256",
          "name": "",
          "type": "uint256"
        }
      ],
      "stateMutability": "view",
      "type": "function"
    },
    {
      "inputs": [],
      "name": "TEAM_4",
      "outputs": [
        {
          "internalType": "uint256",
          "name": "",
          "type": "uint256"
        }
      ],
      "stateMutability": "view",
      "type": "function"
    },
    {
      "inputs": [],
      "name": "TEAM_5",
      "outputs": [
        {
          "internalType": "uint256",
          "name": "",
          "type": "uint256"
        }
      ],
      "stateMutability": "view",
      "type": "function"
    },
    {
      "inputs": [],
      "name": "TEAM_6",
      "outputs": [
        {
          "internalType": "uint256",
          "name": "",
          "type": "uint256"
        }
      ],
      "stateMutability": "view",
      "type": "function"
    },
    {
      "inputs": [],
      "name": "TEAM_7",
      "outputs": [
        {
          "internalType": "uint256",
          "name": "",
          "type": "uint256"
        }
      ],
      "stateMutability": "view",
      "type": "function"
    },
    {
      "inputs": [],
      "name": "TEAM_8",
      "outputs": [
        {
          "internalType": "uint256",
          "name": "",
          "type": "uint256"
        }
      ],
      "stateMutability": "view",
      "type": "function"
    },
    {
      "inputs": [],
      "name": "TEAM_9",
      "outputs": [
        {
          "internalType": "uint256",
          "name": "",
          "type": "uint256"
        }
      ],
      "stateMutability": "view",
      "type": "function"
    },
    {
      "inputs": [],
      "name": "TEAM_A",
      "outputs": [
        {
          "internalType": "uint256",
          "name": "",
          "type": "uint256"
        }
      ],
      "stateMutability": "view",
      "type": "function"
    },
    {
      "inputs": [],
      "name": "TEAM_B",
      "outputs": [
        {
          "internalType": "uint256",
          "name": "",
          "type": "uint256"
        }
      ],
      "stateMutability": "view",
      "type": "function"
    },
    {
      "inputs": [],
      "name": "TEAM_BOUNDARY",
      "outputs": [
        {
          "internalType": "uint256",
          "name": "",
          "type": "uint256"
        }
      ],
      "stateMutability": "view",
      "type": "function"
    },
    {
      "inputs": [],
      "name": "TEAM_C",
      "outputs": [
        {
          "internalType": "uint256",
          "name": "",
          "type": "uint256"
        }
      ],
      "stateMutability": "view",
      "type": "function"
    },
    {
      "inputs": [],
      "name": "TEAM_D",
      "outputs": [
        {
          "internalType": "uint256",
          "name": "",
          "type": "uint256"
        }
      ],
      "stateMutability": "view",
      "type": "function"
    },
    {
      "inputs": [],
      "name": "TIME_TYPE",
      "outputs": [
        {
          "internalType": "uint256",
          "name": "",
          "type": "uint256"
        }
      ],
      "stateMutability": "view",
      "type": "function"
    },
    {
      "inputs": [],
      "name": "TRANSFERER_ROLE",
      "outputs": [
        {
          "internalType": "uint256",
          "name": "",
          "type": "uint256"
        }
      ],
      "stateMutability": "view",
      "type": "function"
    },
    {
      "inputs": [],
      "name": "TYPE_BOUNDARY",
      "outputs": [
        {
          "internalType": "uint256",
          "name": "",
          "type": "uint256"
        }
      ],
      "stateMutability": "view",
      "type": "function"
    },
    {
      "inputs": [],
      "name": "UNIQUE",
      "outputs": [
        {
          "internalType": "uint256",
          "name": "",
          "type": "uint256"
        }
      ],
      "stateMutability": "view",
      "type": "function"
    },
    {
      "inputs": [],
      "name": "USE_ONCE",
      "outputs": [
        {
          "internalType": "uint256",
          "name": "",
          "type": "uint256"
        }
      ],
      "stateMutability": "view",
      "type": "function"
    },
    {
      "inputs": [],
      "name": "USE_UNLIMITED",
      "outputs": [
        {
          "internalType": "uint256",
          "name": "",
          "type": "uint256"
        }
      ],
      "stateMutability": "view",
      "type": "function"
    },
    {
      "inputs": [
        {
          "internalType": "address",
          "name": "account",
          "type": "address"
        },
        {
          "internalType": "uint256",
          "name": "id",
          "type": "uint256"
        }
      ],
      "name": "balanceOf",
      "outputs": [
        {
          "internalType": "uint256",
          "name": "",
          "type": "uint256"
        }
      ],
      "stateMutability": "view",
      "type": "function"
    },
    {
      "inputs": [
        {
          "internalType": "address[]",
          "name": "accounts",
          "type": "address[]"
        },
        {
          "internalType": "uint256[]",
          "name": "ids",
          "type": "uint256[]"
        }
      ],
      "name": "balanceOfBatch",
      "outputs": [
        {
          "internalType": "uint256[]",
          "name": "",
          "type": "uint256[]"
        }
      ],
      "stateMutability": "view",
      "type": "function"
    },
    {
      "inputs": [
        {
          "internalType": "bytes32",
          "name": "input",
          "type": "bytes32"
        }
      ],
      "name": "binstr",
      "outputs": [
        {
          "internalType": "uint256",
          "name": "value",
          "type": "uint256"
        }
      ],
      "stateMutability": "pure",
      "type": "function"
    },
    {
      "inputs": [
        {
          "internalType": "address",
          "name": "account",
          "type": "address"
        },
        {
          "internalType": "uint256",
          "name": "id",
          "type": "uint256"
        },
        {
          "internalType": "uint256",
          "name": "value",
          "type": "uint256"
        }
      ],
      "name": "burn",
      "outputs": [],
      "stateMutability": "nonpayable",
      "type": "function"
    },
    {
      "inputs": [
        {
          "internalType": "address",
          "name": "account",
          "type": "address"
        },
        {
          "internalType": "uint256[]",
          "name": "ids",
          "type": "uint256[]"
        },
        {
          "internalType": "uint256[]",
          "name": "values",
          "type": "uint256[]"
        }
      ],
      "name": "burnBatch",
      "outputs": [],
      "stateMutability": "nonpayable",
      "type": "function"
    },
    {
      "inputs": [
        {
          "internalType": "uint256",
          "name": "id",
          "type": "uint256"
        },
        {
          "internalType": "string",
          "name": "newURI",
          "type": "string"
        },
        {
          "internalType": "uint256",
          "name": "max",
          "type": "uint256"
        }
      ],
      "name": "configure",
      "outputs": [],
      "stateMutability": "nonpayable",
      "type": "function"
    },
    {
      "inputs": [
        {
          "internalType": "address",
          "name": "maintainer",
          "type": "address"
        }
      ],
      "name": "create",
      "outputs": [
        {
          "internalType": "uint256",
          "name": "tokenId",
          "type": "uint256"
        }
      ],
      "stateMutability": "nonpayable",
      "type": "function"
    },
    {
      "inputs": [],
      "name": "create",
      "outputs": [
        {
          "internalType": "uint256",
          "name": "tokenId",
          "type": "uint256"
        }
      ],
      "stateMutability": "nonpayable",
      "type": "function"
    },
    {
      "inputs": [
        {
          "internalType": "address",
          "name": "from",
          "type": "address"
        },
        {
          "internalType": "address[]",
          "name": "to",
          "type": "address[]"
        },
        {
          "internalType": "uint256",
          "name": "id",
          "type": "uint256"
        },
        {
          "internalType": "bytes",
          "name": "data",
          "type": "bytes"
        }
      ],
      "name": "distributeSingles",
      "outputs": [],
      "stateMutability": "nonpayable",
      "type": "function"
    },
    {
      "inputs": [
        {
          "internalType": "uint256",
          "name": "id",
          "type": "uint256"
        }
      ],
      "name": "exists",
      "outputs": [
        {
          "internalType": "bool",
          "name": "",
          "type": "bool"
        }
      ],
      "stateMutability": "view",
      "type": "function"
    },
    {
      "inputs": [
        {
          "internalType": "enum BulkDisbersableNFTs.Role",
          "name": "role",
          "type": "uint8"
        },
        {
          "internalType": "address",
          "name": "user",
          "type": "address"
        }
      ],
      "name": "grantRole",
      "outputs": [
        {
          "internalType": "uint8",
          "name": "assignments",
          "type": "uint8"
        }
      ],
      "stateMutability": "nonpayable",
      "type": "function"
    },
    {
      "inputs": [
        {
          "internalType": "enum BulkDisbersableNFTs.Role",
          "name": "role",
          "type": "uint8"
        },
        {
          "internalType": "address",
          "name": "user",
          "type": "address"
        },
        {
          "internalType": "uint256",
          "name": "id",
          "type": "uint256"
        }
      ],
      "name": "grantRole",
      "outputs": [
        {
          "internalType": "uint8",
          "name": "assignments",
          "type": "uint8"
        }
      ],
      "stateMutability": "nonpayable",
      "type": "function"
    },
    {
      "inputs": [
        {
          "internalType": "enum BulkDisbersableNFTs.Role",
          "name": "role",
          "type": "uint8"
        }
      ],
      "name": "hasRole",
      "outputs": [
        {
          "internalType": "bool",
          "name": "has",
          "type": "bool"
        }
      ],
      "stateMutability": "view",
      "type": "function"
    },
    {
      "inputs": [
        {
          "internalType": "enum BulkDisbersableNFTs.Role",
          "name": "role",
          "type": "uint8"
        },
        {
          "internalType": "address",
          "name": "user",
          "type": "address"
        },
        {
          "internalType": "uint256",
          "name": "id",
          "type": "uint256"
        }
      ],
      "name": "hasRole",
      "outputs": [
        {
          "internalType": "bool",
          "name": "has",
          "type": "bool"
        }
      ],
      "stateMutability": "view",
      "type": "function"
    },
    {
      "inputs": [
        {
          "internalType": "enum BulkDisbersableNFTs.Role",
          "name": "role",
          "type": "uint8"
        },
        {
          "internalType": "uint256",
          "name": "id",
          "type": "uint256"
        }
      ],
      "name": "hasRole",
      "outputs": [
        {
          "internalType": "bool",
          "name": "has",
          "type": "bool"
        }
      ],
      "stateMutability": "view",
      "type": "function"
    },
    {
      "inputs": [
        {
          "internalType": "enum BulkDisbersableNFTs.Role",
          "name": "role",
          "type": "uint8"
        },
        {
          "internalType": "address",
          "name": "user",
          "type": "address"
        }
      ],
      "name": "hasRole",
      "outputs": [
        {
          "internalType": "bool",
          "name": "has",
          "type": "bool"
        }
      ],
      "stateMutability": "view",
      "type": "function"
    },
    {
      "inputs": [
        {
          "internalType": "string",
          "name": "_name",
          "type": "string"
        },
        {
          "internalType": "string",
          "name": "_symbol",
          "type": "string"
        }
      ],
      "name": "initialize",
      "outputs": [],
      "stateMutability": "nonpayable",
      "type": "function"
    },
    {
      "inputs": [
        {
          "internalType": "address",
          "name": "account",
          "type": "address"
        },
        {
          "internalType": "address",
          "name": "operator",
          "type": "address"
        }
      ],
      "name": "isApprovedForAll",
      "outputs": [
        {
          "internalType": "bool",
          "name": "",
          "type": "bool"
        }
      ],
      "stateMutability": "view",
      "type": "function"
    },
    {
      "inputs": [
        {
          "internalType": "address",
          "name": "user",
          "type": "address"
        }
      ],
      "name": "isSuper",
      "outputs": [
        {
          "internalType": "bool",
          "name": "superuser",
          "type": "bool"
        }
      ],
      "stateMutability": "view",
      "type": "function"
    },
    {
      "inputs": [],
      "name": "isSuper",
      "outputs": [
        {
          "internalType": "bool",
          "name": "superuser",
          "type": "bool"
        }
      ],
      "stateMutability": "view",
      "type": "function"
    },
    {
      "inputs": [
        {
          "internalType": "address",
          "name": "recipient",
          "type": "address"
        },
        {
          "internalType": "uint256",
          "name": "id",
          "type": "uint256"
        },
        {
          "internalType": "uint256",
          "name": "amount",
          "type": "uint256"
        },
        {
          "internalType": "bytes",
          "name": "data",
          "type": "bytes"
        }
      ],
      "name": "mint",
      "outputs": [],
      "stateMutability": "nonpayable",
      "type": "function"
    },
    {
      "inputs": [],
      "name": "name",
      "outputs": [
        {
          "internalType": "string",
          "name": "",
          "type": "string"
        }
      ],
      "stateMutability": "view",
      "type": "function"
    },
    {
      "inputs": [],
      "name": "owner",
      "outputs": [
        {
          "internalType": "address",
          "name": "",
          "type": "address"
        }
      ],
      "stateMutability": "view",
      "type": "function"
    },
    {
      "inputs": [],
      "name": "proxiableUUID",
      "outputs": [
        {
          "internalType": "bytes32",
          "name": "",
          "type": "bytes32"
        }
      ],
      "stateMutability": "view",
      "type": "function"
    },
    {
      "inputs": [],
      "name": "renounceOwnership",
      "outputs": [],
      "stateMutability": "nonpayable",
      "type": "function"
    },
    {
      "inputs": [
        {
          "internalType": "address",
          "name": "from",
          "type": "address"
        },
        {
          "internalType": "address",
          "name": "to",
          "type": "address"
        },
        {
          "internalType": "uint256[]",
          "name": "ids",
          "type": "uint256[]"
        },
        {
          "internalType": "uint256[]",
          "name": "amounts",
          "type": "uint256[]"
        },
        {
          "internalType": "bytes",
          "name": "data",
          "type": "bytes"
        }
      ],
      "name": "safeBatchTransferFrom",
      "outputs": [],
      "stateMutability": "nonpayable",
      "type": "function"
    },
    {
      "inputs": [
        {
          "internalType": "address",
          "name": "from",
          "type": "address"
        },
        {
          "internalType": "address",
          "name": "to",
          "type": "address"
        },
        {
          "internalType": "uint256",
          "name": "id",
          "type": "uint256"
        },
        {
          "internalType": "uint256",
          "name": "amount",
          "type": "uint256"
        },
        {
          "internalType": "bytes",
          "name": "data",
          "type": "bytes"
        }
      ],
      "name": "safeTransferFrom",
      "outputs": [],
      "stateMutability": "nonpayable",
      "type": "function"
    },
    {
      "inputs": [
        {
          "internalType": "address",
          "name": "operator",
          "type": "address"
        },
        {
          "internalType": "bool",
          "name": "approved",
          "type": "bool"
        }
      ],
      "name": "setApprovalForAll",
      "outputs": [],
      "stateMutability": "nonpayable",
      "type": "function"
    },
    {
      "inputs": [
        {
          "internalType": "string",
          "name": "_name",
          "type": "string"
        },
        {
          "internalType": "string",
          "name": "_symbol",
          "type": "string"
        }
      ],
      "name": "setDescription",
      "outputs": [],
      "stateMutability": "nonpayable",
      "type": "function"
    },
    {
      "inputs": [
        {
          "internalType": "uint256",
          "name": "id",
          "type": "uint256"
        },
        {
          "internalType": "uint256",
          "name": "max",
          "type": "uint256"
        }
      ],
      "name": "setMax",
      "outputs": [],
      "stateMutability": "nonpayable",
      "type": "function"
    },
    {
      "inputs": [
        {
          "internalType": "uint256",
          "name": "id",
          "type": "uint256"
        },
        {
          "internalType": "string",
          "name": "newURI",
          "type": "string"
        }
      ],
      "name": "setURI",
      "outputs": [],
      "stateMutability": "nonpayable",
      "type": "function"
    },
    {
      "inputs": [
        {
          "internalType": "bytes4",
          "name": "interfaceId",
          "type": "bytes4"
        }
      ],
      "name": "supportsInterface",
      "outputs": [
        {
          "internalType": "bool",
          "name": "",
          "type": "bool"
        }
      ],
      "stateMutability": "view",
      "type": "function"
    },
    {
      "inputs": [],
      "name": "symbol",
      "outputs": [
        {
          "internalType": "string",
          "name": "",
          "type": "string"
        }
      ],
      "stateMutability": "view",
      "type": "function"
    },
    {
      "inputs": [],
      "name": "tokenTypeCount",
      "outputs": [
        {
          "internalType": "uint256",
          "name": "numTypes",
          "type": "uint256"
        }
      ],
      "stateMutability": "view",
      "type": "function"
    },
    {
      "inputs": [
        {
          "internalType": "uint256",
          "name": "id",
          "type": "uint256"
        }
      ],
      "name": "totalSupply",
      "outputs": [
        {
          "internalType": "uint256",
          "name": "",
          "type": "uint256"
        }
      ],
      "stateMutability": "view",
      "type": "function"
    },
    {
      "inputs": [
        {
          "internalType": "address",
          "name": "newOwner",
          "type": "address"
        }
      ],
      "name": "transferOwnership",
      "outputs": [],
      "stateMutability": "nonpayable",
      "type": "function"
    },
    {
      "inputs": [
        {
          "internalType": "address",
          "name": "newImplementation",
          "type": "address"
        }
      ],
      "name": "upgradeTo",
      "outputs": [],
      "stateMutability": "nonpayable",
      "type": "function"
    },
    {
      "inputs": [
        {
          "internalType": "address",
          "name": "newImplementation",
          "type": "address"
        },
        {
          "internalType": "bytes",
          "name": "data",
          "type": "bytes"
        }
      ],
      "name": "upgradeToAndCall",
      "outputs": [],
      "stateMutability": "payable",
      "type": "function"
    },
    {
      "inputs": [
        {
          "internalType": "uint256",
          "name": "id",
          "type": "uint256"
        }
      ],
      "name": "uri",
      "outputs": [
        {
          "internalType": "string",
          "name": "",
          "type": "string"
        }
      ],
      "stateMutability": "view",
      "type": "function"
    }
  ],
  "bytecode": "0x60a06040523060601b6080523480156200001857600080fd5b50600054610100900460ff16620000365760005460ff161562000040565b62000040620000e5565b620000a85760405162461bcd60e51b815260206004820152602e60248201527f496e697469616c697a61626c653a20636f6e747261637420697320616c72656160448201526d191e481a5b9a5d1a585b1a5e995960921b606482015260840160405180910390fd5b600054610100900460ff16158015620000cb576000805461ffff19166101011790555b8015620000de576000805461ff00191690555b5062000112565b6000620000fd306200010360201b62001dee1760201c565b15905090565b6001600160a01b03163b151590565b60805160601c613f9b6200014d600039600081816110f801528181611138015281816115550152818161159501526116240152613f9b6000f3fe60806040526004361061043b5760003560e01c80636fa09a7911610234578063b3de42141161012e578063e985e9c5116100b6578063f2fde38b1161007a578063f2fde38b14610c1b578063f5298aca14610c3b578063f73a731114610c5b578063f8418ef314610c70578063f874225414610c8857600080fd5b8063e985e9c514610b70578063edc79bac14610bb9578063efc81a8c14610bce578063f242432a14610be3578063f28a726d14610c0357600080fd5b8063d5391393116100fd578063d53913931461059a578063d701765014610b10578063db58fe9514610b28578063dbd406e814610b40578063e59adacf14610b5857600080fd5b8063b3de421414610a96578063ba952df114610aae578063bd85b03914610ac3578063c3c8df9914610af057600080fd5b80639d6d7eaa116101bc578063a8410bc111610180578063a8410bc114610a16578063a9c906ae14610a2e578063aa8e906614610a46578063aae5270f14610a66578063abbb9f4c14610a7e57600080fd5b80639d6d7eaa1461097e5780639e97b8f61461099e5780639eb3f243146109be5780639ed93318146109d6578063a22cb465146109f657600080fd5b8063862440e211610203578063862440e2146108f15780638aeda25a146109115780638da5cb5b14610929578063957dc9a01461095157806395d89b411461096957600080fd5b80636fa09a791461088f57806371185897146108a7578063715018a6146108bc578063731133e9146108d157600080fd5b806339054c23116103455780634f1ef286116102cd5780635d5664e1116102915780635d5664e1146107ed5780635e2a33861461081f578063666e6fd5146108375780636755d4561461084f5780636b20c4541461086f57600080fd5b80634f1ef286146107665780634f558e79146107795780635157b563146107a857806351d29425146107c057806352d1902d146107d857600080fd5b8063482895891161031457806348289589146106c95780634cd88b76146106e95780634ce7a244146107095780634e1273f4146107215780634f06c0fb1461074e57600080fd5b806339054c23146106595780633b91ceef146106715780633f79f1a4146106915780634468031f146106a957600080fd5b806319e0755c116103c857806334628c1f1161039757806334628c1f146105d457806335ab8629146105ec5780633656a1a4146106045780633659cfe6146106245780633774bc7c1461064457600080fd5b806319e0755c1461055a5780631fcf1d7c1461057a578063216fa4ed1461059a5780632eb2c2d6146105b257600080fd5b80630ade7dc11161040f5780630ade7dc1146104da5780630daec9e4146104f25780630e1d11f51461050a5780630e89341c1461052257806313affe4f1461054257600080fd5b8062fdd58e1461044057806301ffc9a714610473578063067ff866146104a357806306fdde03146104b8575b600080fd5b34801561044c57600080fd5b5061046061045b36600461353f565b610ca0565b6040519081526020015b60405180910390f35b34801561047f57600080fd5b5061049361048e366004613672565b610d39565b604051901515815260200161046a565b3480156104af57600080fd5b5061046060ec81565b3480156104c457600080fd5b506104cd610d8b565b60405161046a91906139e3565b3480156104e657600080fd5b50610460600360e61b81565b3480156104fe57600080fd5b50610460600160fd1b81565b34801561051657600080fd5b50610460600160e71b81565b34801561052e57600080fd5b506104cd61053d366004613642565b610e1a565b34801561054e57600080fd5b50610460600160f71b81565b34801561056657600080fd5b506104936105753660046136aa565b610ebf565b34801561058657600080fd5b50610460610595366004613642565b610ecb565b3480156105a657600080fd5b50610460600160e61b81565b3480156105be57600080fd5b506105d26105cd3660046132c9565b610fcd565b005b3480156105e057600080fd5b50610460600160f81b81565b3480156105f857600080fd5b50610460600160ff1b81565b34801561061057600080fd5b506105d261061f3660046133d0565b611064565b34801561063057600080fd5b506105d261063f36600461327d565b6110ed565b34801561065057600080fd5b5061046060f081565b34801561066557600080fd5b50610460600560f01b81565b34801561067d57600080fd5b506105d261068c366004613836565b6111cd565b34801561069d57600080fd5b50610460600160ed1b81565b3480156106b557600080fd5b506104936106c43660046136df565b611250565b3480156106d557600080fd5b506104936106e436600461371a565b6112b6565b3480156106f557600080fd5b506105d2610704366004613735565b6112c3565b34801561071557600080fd5b50610460600360f01b81565b34801561072d57600080fd5b5061074161073c3660046135ec565b6113e9565b60405161046a919061397c565b34801561075a57600080fd5b50610460600160fe1b81565b6105d26107743660046134f4565b61154a565b34801561078557600080fd5b50610493610794366004613642565b600090815260fb6020526040902054151590565b3480156107b457600080fd5b50610460600160f01b81565b3480156107cc57600080fd5b50610460600160ec1b81565b3480156107e457600080fd5b50610460611617565b3480156107f957600080fd5b5061080d6108083660046136c4565b6116cb565b60405160ff909116815260200161046a565b34801561082b57600080fd5b50610460600160fb1b81565b34801561084357600080fd5b50610460600360ec1b81565b34801561085b57600080fd5b506105d261086a366004613735565b6116d9565b34801561087b57600080fd5b506105d261088a36600461344a565b61171e565b34801561089b57600080fd5b50610460600160f11b81565b3480156108b357600080fd5b50610460611766565b3480156108c857600080fd5b506105d2611777565b3480156108dd57600080fd5b506105d26108ec36600461359a565b6117ad565b3480156108fd57600080fd5b506105d261090c36600461379d565b6118cb565b34801561091d57600080fd5b50610460600360e71b81565b34801561093557600080fd5b506097546040516001600160a01b03909116815260200161046a565b34801561095d57600080fd5b50610460600160ef1b81565b34801561097557600080fd5b506104cd6119a7565b34801561098a57600080fd5b506105d26109993660046137e6565b6119b5565b3480156109aa57600080fd5b506104936109b93660046136c4565b6119ca565b3480156109ca57600080fd5b50610460600160f51b81565b3480156109e257600080fd5b506104606109f136600461327d565b6119d8565b348015610a0257600080fd5b506105d2610a113660046134ba565b611af0565b348015610a2257600080fd5b50610460600160f41b81565b348015610a3a57600080fd5b50610460600160f61b81565b348015610a5257600080fd5b5061080d610a613660046136df565b611afb565b348015610a7257600080fd5b50610460600360f11b81565b348015610a8a57600080fd5b50610460600160e81b81565b348015610aa257600080fd5b50610460600760e61b81565b348015610aba57600080fd5b5061046060e681565b348015610acf57600080fd5b50610460610ade366004613642565b600090815260fb602052604090205490565b348015610afc57600080fd5b50610493610b0b36600461327d565b611c90565b348015610b1c57600080fd5b50610460600160f31b81565b348015610b3457600080fd5b50610460600160fc1b81565b348015610b4c57600080fd5b50610460600160f91b81565b348015610b6457600080fd5b50610460600160ee1b81565b348015610b7c57600080fd5b50610493610b8b366004613297565b6001600160a01b03918216600090815260666020908152604080832093909416825291909152205460ff1690565b348015610bc557600080fd5b50610493611cb8565b348015610bda57600080fd5b50610460611cc3565b348015610bef57600080fd5b506105d2610bfe36600461336e565b611cce565b348015610c0f57600080fd5b50610460600160f21b81565b348015610c2757600080fd5b506105d2610c3636600461327d565b611d13565b348015610c4757600080fd5b506105d2610c56366004613568565b611dab565b348015610c6757600080fd5b5061046060f381565b348015610c7c57600080fd5b50610460600160fa1b81565b348015610c9457600080fd5b50610460600560e61b81565b60006001600160a01b038316610d115760405162461bcd60e51b815260206004820152602b60248201527f455243313135353a2062616c616e636520717565727920666f7220746865207a60448201526a65726f206164647265737360a81b60648201526084015b60405180910390fd5b5060009081526065602090815260408083206001600160a01b03949094168352929052205490565b60006001600160e01b03198216636cdb3d1360e11b1480610d6a57506001600160e01b031982166303a24d0760e21b145b80610d8557506301ffc9a760e01b6001600160e01b03198316145b92915050565b6101918054610d9990613d9a565b80601f0160208091040260200160405190810160405280929190818152602001828054610dc590613d9a565b8015610e125780601f10610de757610100808354040283529160200191610e12565b820191906000526020600020905b815481529060010190602001808311610df557829003601f168201915b505050505081565b60008181526101936020526040812080546060929190610e3990613d9a565b80601f0160208091040260200160405190810160405280929190818152602001828054610e6590613d9a565b8015610eb25780601f10610e8757610100808354040283529160200191610eb2565b820191906000526020600020905b815481529060010190602001808311610e9557829003601f168201915b5093979650505050505050565b6000610d8582336119ca565b60008080600360fc1b6001600160f81b031985831a60f81b16148015610f0457508360011a60f81b6001600160f81b031916603160f91b145b15610f0d575060025b60058160ff161015610fc657610f24600283613d38565b9150838160ff1660208110610f4957634e487b7160e01b600052603260045260246000fd5b1a60f81b6001600160f81b031916603160f81b1415610f7457610f6d600183613d20565b9150610fb4565b838160ff1660208110610f9757634e487b7160e01b600052603260045260246000fd5b1a60f81b6001600160f81b031916600360fc1b14610fb457600080fd5b80610fbe81613e1c565b915050610f0d565b5092915050565b6001600160a01b038516331480610fe95750610fe98533610b8b565b6110505760405162461bcd60e51b815260206004820152603260248201527f455243313135353a207472616e736665722063616c6c6572206973206e6f74206044820152711bdddb995c881b9bdc88185c1c1c9bdd995960721b6064820152608401610d08565b61105d8585858585611dfd565b5050505050565b6001600160a01b03841633148061108057506110808433610b8b565b61109c5760405162461bcd60e51b8152600401610d0890613ace565b60005b835181101561105d576110dd858583815181106110cc57634e487b7160e01b600052603260045260246000fd5b602002602001015185600186611fc6565b6110e681613e01565b905061109f565b306001600160a01b037f00000000000000000000000000000000000000000000000000000000000000001614156111365760405162461bcd60e51b8152600401610d0890613a82565b7f00000000000000000000000000000000000000000000000000000000000000006001600160a01b031661117f600080516020613f1f833981519152546001600160a01b031690565b6001600160a01b0316146111a55760405162461bcd60e51b8152600401610d0890613b17565b6111ae816120f6565b604080516000808252602082019092526111ca91839190612180565b50565b6111d86007836112b6565b806111e657506111e6611cb8565b61124c5760405162461bcd60e51b815260206004820152603160248201527f596f75206d75737420686176652061204c696d6974657220746f6b656e20746f6044820152701031b430b733b29038bab0b73a34ba3c9760791b6064820152608401610d08565b5050565b60008060e685600981111561127557634e487b7160e01b600052602160045260246000fd5b611284911b600160ec1b613d20565b905060006112928583610ca0565b11806112ab575060006112a98561045b8685613d20565b115b9150505b9392505050565b60006112af833384611250565b600054610100900460ff166112de5760005460ff16156112e2565b303b155b6113455760405162461bcd60e51b815260206004820152602e60248201527f496e697469616c697a61626c653a20636f6e747261637420697320616c72656160448201526d191e481a5b9a5d1a585b1a5e995960921b6064820152608401610d08565b600054610100900460ff16158015611367576000805461ffff19166101011790555b61136f6122fa565b6113ad6040518060400160405280602081526020017f4572726f723a2053696e676c6520546f6b656e20555249204e6f742055736564815250612329565b6113b5612359565b6113bd612359565b6113c5612359565b6113d1858585856116d9565b801561105d576000805461ff00191690555050505050565b6060815183511461144e5760405162461bcd60e51b815260206004820152602960248201527f455243313135353a206163636f756e747320616e6420696473206c656e677468604482015268040dad2e6dac2e8c6d60bb1b6064820152608401610d08565b600083516001600160401b0381111561147757634e487b7160e01b600052604160045260246000fd5b6040519080825280602002602001820160405280156114a0578160200160208202803683370190505b50905060005b8451811015611542576115078582815181106114d257634e487b7160e01b600052603260045260246000fd5b60200260200101518583815181106114fa57634e487b7160e01b600052603260045260246000fd5b6020026020010151610ca0565b82828151811061152757634e487b7160e01b600052603260045260246000fd5b602090810291909101015261153b81613e01565b90506114a6565b509392505050565b306001600160a01b037f00000000000000000000000000000000000000000000000000000000000000001614156115935760405162461bcd60e51b8152600401610d0890613a82565b7f00000000000000000000000000000000000000000000000000000000000000006001600160a01b03166115dc600080516020613f1f833981519152546001600160a01b031690565b6001600160a01b0316146116025760405162461bcd60e51b8152600401610d0890613b17565b61160b826120f6565b61124c82826001612180565b6000306001600160a01b037f000000000000000000000000000000000000000000000000000000000000000016146116b75760405162461bcd60e51b815260206004820152603860248201527f555550535570677261646561626c653a206d757374206e6f742062652063616c60448201527f6c6564207468726f7567682064656c656761746563616c6c00000000000000006064820152608401610d08565b50600080516020613f1f8339815191525b90565b60006112af83836000611afb565b6097546001600160a01b031633146117035760405162461bcd60e51b8152600401610d0890613c35565b6117106101918585612faf565b5061105d6101928383612faf565b6001600160a01b03831633148061173a575061173a8333610b8b565b6117565760405162461bcd60e51b8152600401610d0890613ace565b611761838383612380565b505050565b60006117726101945490565b905090565b6097546001600160a01b031633146117a15760405162461bcd60e51b8152600401610d0890613c35565b6117ab600061252d565b565b600160ec1b838116141561183f576117c66002846112b6565b806117d457506117d4611cb8565b61183a5760405162461bcd60e51b815260206004820152603160248201527f596f75206d757374206861766520612043617374657220746f6b656e20746f2060448201527036b4b73a103a37b5b2b71033b0ba32b99760791b6064820152608401610d08565b6118b9565b61184a6001846112b6565b806118585750611858611cb8565b6118b95760405162461bcd60e51b815260206004820152602c60248201527f596f75206d75737420686176652061204d696e74657220746f6b656e20746f2060448201526b36b4b73a103a37b5b2b7399760a11b6064820152608401610d08565b6118c58484848461257f565b50505050565b6118d66004846112b6565b806118e457506118e4611cb8565b61194d5760405162461bcd60e51b815260206004820152603460248201527f596f75206d7573742068617665206120436f6e6669677572657220746f6b656e604482015273103a379031b430b733b29036b2ba30b230ba309760611b6064820152608401610d08565b600083815261019360205260409020611967908383612faf565b50827f6bb7ff708619ba0610cba295a58592e0451dee2622938c8755667688daf3529b838360405161199a9291906139b4565b60405180910390a2505050565b6101928054610d9990613d9a565b6119c08484846118cb565b6118c584826111cd565b60006112af83836000611250565b60006119e961019480546001019055565b60006119f56101945490565b9050611a026006826112b6565b80611a105750611a10611cb8565b611a825760405162461bcd60e51b815260206004820152603a60248201527f596f75206d757374206861766520612043726561746f7220746f6b656e20746f60448201527f206368616e676520637265617465206e657720746f6b656e732e0000000000006064820152608401610d08565b611a8e60018483611afb565b50611a9b60048483611afb565b50611aa860078483611afb565b50604080518281526001600160a01b03851660208201527f7757890bcab34d673dfca6b71df1b57f75a2fe4231d6e8de726caf534ab1fdd6910160405180910390a192915050565b61124c338383612682565b600080846009811115611b1e57634e487b7160e01b600052602160045260246000fd5b1415611b9157611b2c611cb8565b611b8c5760405162461bcd60e51b815260206004820152602b60248201527f596f75206d75737420626520612073757065727573657220746f20637265617460448201526a32903732bb9037b732b99760a91b6064820152608401610d08565b611c11565b611b9c6002836112b6565b80611baa5750611baa611cb8565b611c115760405162461bcd60e51b815260206004820152603260248201527f596f75206d7573742068617665207468652043617374657220726f6c6520746f6044820152711030b9b9b4b3b7103732bb903937b632b99760711b6064820152608401610d08565b611c1c848484611250565b611c865760008260e6866009811115611c4557634e487b7160e01b600052602160045260246000fd5b611c54911b600160ec1b613d20565b611c5e9190613d20565b9050611c7c84826001604051806020016040528060008152506117ad565b60019150506112af565b5060009392505050565b6000611c9d6000836119ca565b80610d855750506097546001600160a01b0391821691161490565b600061177233611c90565b6000611772336119d8565b6001600160a01b038516331480611cea5750611cea8533610b8b565b611d065760405162461bcd60e51b8152600401610d0890613ace565b61105d8585858585611fc6565b6097546001600160a01b03163314611d3d5760405162461bcd60e51b8152600401610d0890613c35565b6001600160a01b038116611da25760405162461bcd60e51b815260206004820152602660248201527f4f776e61626c653a206e6577206f776e657220697320746865207a65726f206160448201526564647265737360d01b6064820152608401610d08565b6111ca8161252d565b6001600160a01b038316331480611dc75750611dc78333610b8b565b611de35760405162461bcd60e51b8152600401610d0890613ace565b611761838383612763565b6001600160a01b03163b151590565b8151835114611e1e5760405162461bcd60e51b8152600401610d0890613cb5565b6001600160a01b038416611e445760405162461bcd60e51b8152600401610d0890613b63565b33611e53818787878787612868565b60005b8451811015611f58576000858281518110611e8157634e487b7160e01b600052603260045260246000fd5b602002602001015190506000858381518110611ead57634e487b7160e01b600052603260045260246000fd5b60209081029190910181015160008481526065835260408082206001600160a01b038e168352909352919091205490915081811015611efe5760405162461bcd60e51b8152600401610d0890613beb565b60008381526065602090815260408083206001600160a01b038e8116855292528083208585039055908b16825281208054849290611f3d908490613d20565b9250508190555050505080611f5190613e01565b9050611e56565b50846001600160a01b0316866001600160a01b0316826001600160a01b03167f4a39dc06d4c0dbc64b70af90fd698a233a518aa5d07e595d983b8c0526c8f7fb8787604051611fa892919061398f565b60405180910390a4611fbe81878787878761293c565b505050505050565b6001600160a01b038416611fec5760405162461bcd60e51b8152600401610d0890613b63565b3361200b818787611ffc88612aa7565b61200588612aa7565b87612868565b60008481526065602090815260408083206001600160a01b038a1684529091529020548381101561204e5760405162461bcd60e51b8152600401610d0890613beb565b60008581526065602090815260408083206001600160a01b038b811685529252808320878503905590881682528120805486929061208d908490613d20565b909155505060408051868152602081018690526001600160a01b03808916928a821692918616917fc3d58168c5ae7397731d063d5bbf3d657854427343f4c083240f7aacaa2d0f62910160405180910390a46120ed828888888888612b00565b50505050505050565b6121006005610ebf565b8061210e575061210e611cb8565b6111ca5760405162461bcd60e51b815260206004820152603960248201527f596f75206d75737420686176652061204d61696e7461696e657220746f6b656e60448201527f20746f20757067726164652074686520636f6e74726163742e000000000000006064820152608401610d08565b7f4910fdfa16fed3260ed0e7147f7cc6da11a60208b5b9406d12a635614ffd91435460ff16156121b35761176183612bca565b826001600160a01b03166352d1902d6040518163ffffffff1660e01b815260040160206040518083038186803b1580156121ec57600080fd5b505afa92505050801561221c575060408051601f3d908101601f191682019092526122199181019061365a565b60015b61227f5760405162461bcd60e51b815260206004820152602e60248201527f45524331393637557067726164653a206e657720696d706c656d656e7461746960448201526d6f6e206973206e6f74205555505360901b6064820152608401610d08565b600080516020613f1f83398151915281146122ee5760405162461bcd60e51b815260206004820152602960248201527f45524331393637557067726164653a20756e737570706f727465642070726f786044820152681a58589b195555525160ba1b6064820152608401610d08565b50611761838383612c66565b600054610100900460ff166123215760405162461bcd60e51b8152600401610d0890613c6a565b6117ab612c8b565b600054610100900460ff166123505760405162461bcd60e51b8152600401610d0890613c6a565b6111ca81612cbb565b600054610100900460ff166117ab5760405162461bcd60e51b8152600401610d0890613c6a565b6001600160a01b0383166123a65760405162461bcd60e51b8152600401610d0890613ba8565b80518251146123c75760405162461bcd60e51b8152600401610d0890613cb5565b60003390506123ea81856000868660405180602001604052806000815250612868565b60005b83518110156124ce57600084828151811061241857634e487b7160e01b600052603260045260246000fd5b60200260200101519050600084838151811061244457634e487b7160e01b600052603260045260246000fd5b60209081029190910181015160008481526065835260408082206001600160a01b038c1683529093529190912054909150818110156124955760405162461bcd60e51b8152600401610d0890613a3e565b60009283526065602090815260408085206001600160a01b038b16865290915290922091039055806124c681613e01565b9150506123ed565b5060006001600160a01b0316846001600160a01b0316826001600160a01b03167f4a39dc06d4c0dbc64b70af90fd698a233a518aa5d07e595d983b8c0526c8f7fb868660405161251f92919061398f565b60405180910390a450505050565b609780546001600160a01b038381166001600160a01b0319831681179093556040519116919082907f8be0079c531659141344cd1fd0a4f28419497f9722a3daafe3b4186f6b6457e090600090a35050565b6001600160a01b0384166125df5760405162461bcd60e51b815260206004820152602160248201527f455243313135353a206d696e7420746f20746865207a65726f206164647265736044820152607360f81b6064820152608401610d08565b336125f081600087611ffc88612aa7565b60008481526065602090815260408083206001600160a01b038916845290915281208054859290612622908490613d20565b909155505060408051858152602081018590526001600160a01b0380881692600092918516917fc3d58168c5ae7397731d063d5bbf3d657854427343f4c083240f7aacaa2d0f62910160405180910390a461105d81600087878787612b00565b816001600160a01b0316836001600160a01b031614156126f65760405162461bcd60e51b815260206004820152602960248201527f455243313135353a2073657474696e6720617070726f76616c20737461747573604482015268103337b91039b2b63360b91b6064820152608401610d08565b6001600160a01b03838116600081815260666020908152604080832094871680845294825291829020805460ff191686151590811790915591519182527f17307eab39ab6107e8899845ad3d59bd9653f200f220920489ca2b5937696c31910160405180910390a3505050565b6001600160a01b0383166127895760405162461bcd60e51b8152600401610d0890613ba8565b336127b88185600061279a87612aa7565b6127a387612aa7565b60405180602001604052806000815250612868565b60008381526065602090815260408083206001600160a01b0388168452909152902054828110156127fb5760405162461bcd60e51b8152600401610d0890613a3e565b60008481526065602090815260408083206001600160a01b03898116808652918452828520888703905582518981529384018890529092908616917fc3d58168c5ae7397731d063d5bbf3d657854427343f4c083240f7aacaa2d0f62910160405180910390a45050505050565b612870611cb8565b61292e5760005b835181101561292c576128b36003878684815181106128a657634e487b7160e01b600052603260045260246000fd5b6020026020010151611250565b61291c5760405162461bcd60e51b815260206004820152603460248201527f596f75206d75737420686176652061205472616e73666572657220746f6b656e604482015273103a37903a3930b739b332b9103a37b5b2b7399760611b6064820152608401610d08565b61292581613e01565b9050612877565b505b611fbe868686868686612ceb565b6001600160a01b0384163b15611fbe5760405163bc197c8160e01b81526001600160a01b0385169063bc197c819061298090899089908890889088906004016138d9565b602060405180830381600087803b15801561299a57600080fd5b505af19250505080156129ca575060408051601f3d908101601f191682019092526129c79181019061368e565b60015b612a77576129d6613e68565b806308c379a01415612a1057506129eb613e7f565b806129f65750612a12565b8060405162461bcd60e51b8152600401610d0891906139e3565b505b60405162461bcd60e51b815260206004820152603460248201527f455243313135353a207472616e7366657220746f206e6f6e20455243313135356044820152732932b1b2b4bb32b91034b6b83632b6b2b73a32b960611b6064820152608401610d08565b6001600160e01b0319811663bc197c8160e01b146120ed5760405162461bcd60e51b8152600401610d08906139f6565b60408051600180825281830190925260609160009190602080830190803683370190505090508281600081518110612aef57634e487b7160e01b600052603260045260246000fd5b602090810291909101015292915050565b6001600160a01b0384163b15611fbe5760405163f23a6e6160e01b81526001600160a01b0385169063f23a6e6190612b449089908990889088908890600401613937565b602060405180830381600087803b158015612b5e57600080fd5b505af1925050508015612b8e575060408051601f3d908101601f19168201909252612b8b9181019061368e565b60015b612b9a576129d6613e68565b6001600160e01b0319811663f23a6e6160e01b146120ed5760405162461bcd60e51b8152600401610d08906139f6565b6001600160a01b0381163b612c375760405162461bcd60e51b815260206004820152602d60248201527f455243313936373a206e657720696d706c656d656e746174696f6e206973206e60448201526c1bdd08184818dbdb9d1c9858dd609a1b6064820152608401610d08565b600080516020613f1f83398151915280546001600160a01b0319166001600160a01b0392909216919091179055565b612c6f83612e2f565b600082511180612c7c5750805b15611761576118c58383612e6f565b600054610100900460ff16612cb25760405162461bcd60e51b8152600401610d0890613c6a565b6117ab3361252d565b600054610100900460ff16612ce25760405162461bcd60e51b8152600401610d0890613c6a565b6111ca81612f63565b6001600160a01b038516612d8e5760005b8351811015612d8c57828181518110612d2557634e487b7160e01b600052603260045260246000fd5b602002602001015160fb6000868481518110612d5157634e487b7160e01b600052603260045260246000fd5b602002602001015181526020019081526020016000206000828254612d769190613d20565b90915550612d85905081613e01565b9050612cfc565b505b6001600160a01b038416611fbe5760005b83518110156120ed57828181518110612dc857634e487b7160e01b600052603260045260246000fd5b602002602001015160fb6000868481518110612df457634e487b7160e01b600052603260045260246000fd5b602002602001015181526020019081526020016000206000828254612e199190613d57565b90915550612e28905081613e01565b9050612d9f565b612e3881612bca565b6040516001600160a01b038216907fbc7cd75a20ee27fd9adebab32041f755214dbc6bffa90cc0225b39da2e5c2d3b90600090a250565b60606001600160a01b0383163b612ed75760405162461bcd60e51b815260206004820152602660248201527f416464726573733a2064656c65676174652063616c6c20746f206e6f6e2d636f6044820152651b9d1c9858dd60d21b6064820152608401610d08565b600080846001600160a01b031684604051612ef291906138bd565b600060405180830381855af49150503d8060008114612f2d576040519150601f19603f3d011682016040523d82523d6000602084013e612f32565b606091505b5091509150612f5a8282604051806060016040528060278152602001613f3f60279139612f76565b95945050505050565b805161124c906067906020840190613033565b60608315612f855750816112af565b825115612f955782518084602001fd5b8160405162461bcd60e51b8152600401610d0891906139e3565b828054612fbb90613d9a565b90600052602060002090601f016020900481019282612fdd5760008555613023565b82601f10612ff65782800160ff19823516178555613023565b82800160010185558215613023579182015b82811115613023578235825591602001919060010190613008565b5061302f9291506130a7565b5090565b82805461303f90613d9a565b90600052602060002090601f0160209004810192826130615760008555613023565b82601f1061307a57805160ff1916838001178555613023565b82800160010185558215613023579182015b8281111561302357825182559160200191906001019061308c565b5b8082111561302f57600081556001016130a8565b80356001600160a01b03811681146130d357600080fd5b919050565b600082601f8301126130e8578081fd5b813560206130f582613cfd565b6040516131028282613dd5565b8381528281019150858301600585901b87018401881015613121578586fd5b855b8581101561314657613134826130bc565b84529284019290840190600101613123565b5090979650505050505050565b600082601f830112613163578081fd5b8135602061317082613cfd565b60405161317d8282613dd5565b8381528281019150858301600585901b8701840188101561319c578586fd5b855b858110156131465781358452928401929084019060010161319e565b600082601f8301126131ca578081fd5b81356001600160401b038111156131e3576131e3613e52565b6040516131fa601f8301601f191660200182613dd5565b81815284602083860101111561320e578283fd5b816020850160208301379081016020019190915292915050565b8035600a81106130d357600080fd5b60008083601f840112613248578182fd5b5081356001600160401b0381111561325e578182fd5b60208301915083602082850101111561327657600080fd5b9250929050565b60006020828403121561328e578081fd5b6112af826130bc565b600080604083850312156132a9578081fd5b6132b2836130bc565b91506132c0602084016130bc565b90509250929050565b600080600080600060a086880312156132e0578081fd5b6132e9866130bc565b94506132f7602087016130bc565b935060408601356001600160401b0380821115613312578283fd5b61331e89838a01613153565b94506060880135915080821115613333578283fd5b61333f89838a01613153565b93506080880135915080821115613354578283fd5b50613361888289016131ba565b9150509295509295909350565b600080600080600060a08688031215613385578081fd5b61338e866130bc565b945061339c602087016130bc565b9350604086013592506060860135915060808601356001600160401b038111156133c4578182fd5b613361888289016131ba565b600080600080608085870312156133e5578384fd5b6133ee856130bc565b935060208501356001600160401b0380821115613409578485fd5b613415888389016130d8565b9450604087013593506060870135915080821115613431578283fd5b5061343e878288016131ba565b91505092959194509250565b60008060006060848603121561345e578283fd5b613467846130bc565b925060208401356001600160401b0380821115613482578384fd5b61348e87838801613153565b935060408601359150808211156134a3578283fd5b506134b086828701613153565b9150509250925092565b600080604083850312156134cc578081fd5b6134d5836130bc565b9150602083013580151581146134e9578182fd5b809150509250929050565b60008060408385031215613506578182fd5b61350f836130bc565b915060208301356001600160401b03811115613529578182fd5b613535858286016131ba565b9150509250929050565b60008060408385031215613551578182fd5b61355a836130bc565b946020939093013593505050565b60008060006060848603121561357c578081fd5b613585846130bc565b95602085013595506040909401359392505050565b600080600080608085870312156135af578182fd5b6135b8856130bc565b9350602085013592506040850135915060608501356001600160401b038111156135e0578182fd5b61343e878288016131ba565b600080604083850312156135fe578182fd5b82356001600160401b0380821115613614578384fd5b613620868387016130d8565b93506020850135915080821115613635578283fd5b5061353585828601613153565b600060208284031215613653578081fd5b5035919050565b60006020828403121561366b578081fd5b5051919050565b600060208284031215613683578081fd5b81356112af81613f08565b60006020828403121561369f578081fd5b81516112af81613f08565b6000602082840312156136bb578081fd5b6112af82613228565b600080604083850312156136d6578182fd5b6132b283613228565b6000806000606084860312156136f3578081fd5b6136fc84613228565b925061370a602085016130bc565b9150604084013590509250925092565b6000806040838503121561372c578182fd5b61355a83613228565b6000806000806040858703121561374a578182fd5b84356001600160401b0380821115613760578384fd5b61376c88838901613237565b90965094506020870135915080821115613784578384fd5b5061379187828801613237565b95989497509550505050565b6000806000604084860312156137b1578081fd5b8335925060208401356001600160401b038111156137cd578182fd5b6137d986828701613237565b9497909650939450505050565b600080600080606085870312156137fb578182fd5b8435935060208501356001600160401b03811115613817578283fd5b61382387828801613237565b9598909750949560400135949350505050565b60008060408385031215613848578182fd5b50508035926020909101359150565b6000815180845260208085019450808401835b838110156138865781518752958201959082019060010161386a565b509495945050505050565b600081518084526138a9816020860160208601613d6e565b601f01601f19169290920160200192915050565b600082516138cf818460208701613d6e565b9190910192915050565b6001600160a01b0386811682528516602082015260a06040820181905260009061390590830186613857565b82810360608401526139178186613857565b9050828103608084015261392b8185613891565b98975050505050505050565b6001600160a01b03868116825285166020820152604081018490526060810183905260a06080820181905260009061397190830184613891565b979650505050505050565b6020815260006112af6020830184613857565b6040815260006139a26040830185613857565b82810360208401526112ab8185613857565b60208152816020820152818360408301376000818301604090810191909152601f909201601f19160101919050565b6020815260006112af6020830184613891565b60208082526028908201527f455243313135353a204552433131353552656365697665722072656a656374656040820152676420746f6b656e7360c01b606082015260800190565b60208082526024908201527f455243313135353a206275726e20616d6f756e7420657863656564732062616c604082015263616e636560e01b606082015260800190565b6020808252602c908201527f46756e6374696f6e206d7573742062652063616c6c6564207468726f7567682060408201526b19195b1959d85d1958d85b1b60a21b606082015260800190565b60208082526029908201527f455243313135353a2063616c6c6572206973206e6f74206f776e6572206e6f7260408201526808185c1c1c9bdd995960ba1b606082015260800190565b6020808252602c908201527f46756e6374696f6e206d7573742062652063616c6c6564207468726f7567682060408201526b6163746976652070726f787960a01b606082015260800190565b60208082526025908201527f455243313135353a207472616e7366657220746f20746865207a65726f206164604082015264647265737360d81b606082015260800190565b60208082526023908201527f455243313135353a206275726e2066726f6d20746865207a65726f206164647260408201526265737360e81b606082015260800190565b6020808252602a908201527f455243313135353a20696e73756666696369656e742062616c616e636520666f60408201526939103a3930b739b332b960b11b606082015260800190565b6020808252818101527f4f776e61626c653a2063616c6c6572206973206e6f7420746865206f776e6572604082015260600190565b6020808252602b908201527f496e697469616c697a61626c653a20636f6e7472616374206973206e6f74206960408201526a6e697469616c697a696e6760a81b606082015260800190565b60208082526028908201527f455243313135353a2069647320616e6420616d6f756e7473206c656e677468206040820152670dad2e6dac2e8c6d60c31b606082015260800190565b60006001600160401b03821115613d1657613d16613e52565b5060051b60200190565b60008219821115613d3357613d33613e3c565b500190565b6000816000190483118215151615613d5257613d52613e3c565b500290565b600082821015613d6957613d69613e3c565b500390565b60005b83811015613d89578181015183820152602001613d71565b838111156118c55750506000910152565b600181811c90821680613dae57607f821691505b60208210811415613dcf57634e487b7160e01b600052602260045260246000fd5b50919050565b601f8201601f191681016001600160401b0381118282101715613dfa57613dfa613e52565b6040525050565b6000600019821415613e1557613e15613e3c565b5060010190565b600060ff821660ff811415613e3357613e33613e3c565b60010192915050565b634e487b7160e01b600052601160045260246000fd5b634e487b7160e01b600052604160045260246000fd5b600060033d11156116c857600481823e5160e01c90565b600060443d1015613e8d5790565b6040516003193d81016004833e81513d6001600160401b038160248401118184111715613ebc57505050505090565b8285019150815181811115613ed45750505050505090565b843d8701016020828501011115613eee5750505050505090565b613efd60208286010187613dd5565b509095945050505050565b6001600160e01b0319811681146111ca57600080fdfe360894a13ba1a3210667c828492db98dca3e2076cc3735a920a3ca505d382bbc416464726573733a206c6f772d6c6576656c2064656c65676174652063616c6c206661696c6564a2646970667358221220155bfc521ef9e11decf44936afe0708ef0386eb03b1075e23773f7dff756bc4c64736f6c63430008040033",
  "linkReferences": {},
  "deployedLinkReferences": {}
}