{
  "_format": "hh-sol-artifact-1",
  "contractName": "BulkDisbersableNFTs",
  "sourceName": "src/BulkDisbersableNFTs.sol",
  "abi": [
    {
      "inputs": [],
      "stateMutability": "nonpayable",
      "type": "constructor"
    },
    {
      "anonymous": false,
      "inputs": [
        {
          "indexed": false,
          "internalType": "address",
          "name": "previousAdmin",
          "type": "address"
        },
        {
          "indexed": false,
          "internalType": "address",
          "name": "newAdmin",
          "type": "address"
        }
      ],
      "name": "AdminChanged",
      "type": "event"
    },
    {
      "anonymous": false,
      "inputs": [
        {
          "indexed": true,
          "internalType": "address",
          "name": "account",
          "type": "address"
        },
        {
          "indexed": true,
          "internalType": "address",
          "name": "operator",
          "type": "address"
        },
        {
          "indexed": false,
          "internalType": "bool",
          "name": "approved",
          "type": "bool"
        }
      ],
      "name": "ApprovalForAll",
      "type": "event"
    },
    {
      "anonymous": false,
      "inputs": [
        {
          "indexed": true,
          "internalType": "address",
          "name": "beacon",
          "type": "address"
        }
      ],
      "name": "BeaconUpgraded",
      "type": "event"
    },
    {
      "anonymous": false,
      "inputs": [
        {
          "indexed": true,
          "internalType": "address",
          "name": "previousOwner",
          "type": "address"
        },
        {
          "indexed": true,
          "internalType": "address",
          "name": "newOwner",
          "type": "address"
        }
      ],
      "name": "OwnershipTransferred",
      "type": "event"
    },
    {
      "anonymous": false,
      "inputs": [
        {
          "indexed": true,
          "internalType": "address",
          "name": "operator",
          "type": "address"
        },
        {
          "indexed": true,
          "internalType": "address",
          "name": "from",
          "type": "address"
        },
        {
          "indexed": true,
          "internalType": "address",
          "name": "to",
          "type": "address"
        },
        {
          "indexed": false,
          "internalType": "uint256[]",
          "name": "ids",
          "type": "uint256[]"
        },
        {
          "indexed": false,
          "internalType": "uint256[]",
          "name": "values",
          "type": "uint256[]"
        }
      ],
      "name": "TransferBatch",
      "type": "event"
    },
    {
      "anonymous": false,
      "inputs": [
        {
          "indexed": true,
          "internalType": "address",
          "name": "operator",
          "type": "address"
        },
        {
          "indexed": true,
          "internalType": "address",
          "name": "from",
          "type": "address"
        },
        {
          "indexed": true,
          "internalType": "address",
          "name": "to",
          "type": "address"
        },
        {
          "indexed": false,
          "internalType": "uint256",
          "name": "id",
          "type": "uint256"
        },
        {
          "indexed": false,
          "internalType": "uint256",
          "name": "value",
          "type": "uint256"
        }
      ],
      "name": "TransferSingle",
      "type": "event"
    },
    {
      "anonymous": false,
      "inputs": [
        {
          "indexed": false,
          "internalType": "string",
          "name": "value",
          "type": "string"
        },
        {
          "indexed": true,
          "internalType": "uint256",
          "name": "id",
          "type": "uint256"
        }
      ],
      "name": "URI",
      "type": "event"
    },
    {
      "anonymous": false,
      "inputs": [
        {
          "indexed": true,
          "internalType": "address",
          "name": "implementation",
          "type": "address"
        }
      ],
      "name": "Upgraded",
      "type": "event"
    },
    {
      "inputs": [
        {
          "internalType": "address",
          "name": "account",
          "type": "address"
        },
        {
          "internalType": "uint256",
          "name": "id",
          "type": "uint256"
        }
      ],
      "name": "balanceOf",
      "outputs": [
        {
          "internalType": "uint256",
          "name": "",
          "type": "uint256"
        }
      ],
      "stateMutability": "view",
      "type": "function"
    },
    {
      "inputs": [
        {
          "internalType": "address[]",
          "name": "accounts",
          "type": "address[]"
        },
        {
          "internalType": "uint256[]",
          "name": "ids",
          "type": "uint256[]"
        }
      ],
      "name": "balanceOfBatch",
      "outputs": [
        {
          "internalType": "uint256[]",
          "name": "",
          "type": "uint256[]"
        }
      ],
      "stateMutability": "view",
      "type": "function"
    },
    {
      "inputs": [
        {
          "internalType": "address",
          "name": "account",
          "type": "address"
        },
        {
          "internalType": "uint256",
          "name": "id",
          "type": "uint256"
        },
        {
          "internalType": "uint256",
          "name": "value",
          "type": "uint256"
        }
      ],
      "name": "burn",
      "outputs": [],
      "stateMutability": "nonpayable",
      "type": "function"
    },
    {
      "inputs": [
        {
          "internalType": "address",
          "name": "account",
          "type": "address"
        },
        {
          "internalType": "uint256[]",
          "name": "ids",
          "type": "uint256[]"
        },
        {
          "internalType": "uint256[]",
          "name": "values",
          "type": "uint256[]"
        }
      ],
      "name": "burnBatch",
      "outputs": [],
      "stateMutability": "nonpayable",
      "type": "function"
    },
    {
      "inputs": [
        {
          "internalType": "address",
          "name": "from",
          "type": "address"
        },
        {
          "internalType": "address[]",
          "name": "to",
          "type": "address[]"
        },
        {
          "internalType": "uint256",
          "name": "id",
          "type": "uint256"
        },
        {
          "internalType": "bytes",
          "name": "data",
          "type": "bytes"
        }
      ],
      "name": "distributeSingles",
      "outputs": [],
      "stateMutability": "nonpayable",
      "type": "function"
    },
    {
      "inputs": [
        {
          "internalType": "uint256",
          "name": "id",
          "type": "uint256"
        }
      ],
      "name": "exists",
      "outputs": [
        {
          "internalType": "bool",
          "name": "",
          "type": "bool"
        }
      ],
      "stateMutability": "view",
      "type": "function"
    },
    {
      "inputs": [
        {
          "internalType": "string",
          "name": "_name",
          "type": "string"
        },
        {
          "internalType": "string",
          "name": "_symbol",
          "type": "string"
        }
      ],
      "name": "initialize",
      "outputs": [],
      "stateMutability": "nonpayable",
      "type": "function"
    },
    {
      "inputs": [
        {
          "internalType": "address",
          "name": "account",
          "type": "address"
        },
        {
          "internalType": "address",
          "name": "operator",
          "type": "address"
        }
      ],
      "name": "isApprovedForAll",
      "outputs": [
        {
          "internalType": "bool",
          "name": "",
          "type": "bool"
        }
      ],
      "stateMutability": "view",
      "type": "function"
    },
    {
      "inputs": [
        {
          "internalType": "address",
          "name": "recipient",
          "type": "address"
        },
        {
          "internalType": "uint256",
          "name": "id",
          "type": "uint256"
        },
        {
          "internalType": "uint256",
          "name": "amount",
          "type": "uint256"
        },
        {
          "internalType": "bytes",
          "name": "data",
          "type": "bytes"
        }
      ],
      "name": "mint",
      "outputs": [],
      "stateMutability": "nonpayable",
      "type": "function"
    },
    {
      "inputs": [
        {
          "internalType": "address",
          "name": "recipient",
          "type": "address"
        },
        {
          "internalType": "uint256",
          "name": "amount",
          "type": "uint256"
        },
        {
          "internalType": "string",
          "name": "metadata",
          "type": "string"
        },
        {
          "internalType": "bytes",
          "name": "data",
          "type": "bytes"
        }
      ],
      "name": "mint",
      "outputs": [
        {
          "internalType": "uint256",
          "name": "tokenId",
          "type": "uint256"
        }
      ],
      "stateMutability": "nonpayable",
      "type": "function"
    },
    {
      "inputs": [],
      "name": "name",
      "outputs": [
        {
          "internalType": "string",
          "name": "",
          "type": "string"
        }
      ],
      "stateMutability": "view",
      "type": "function"
    },
    {
      "inputs": [],
      "name": "owner",
      "outputs": [
        {
          "internalType": "address",
          "name": "",
          "type": "address"
        }
      ],
      "stateMutability": "view",
      "type": "function"
    },
    {
      "inputs": [],
      "name": "proxiableUUID",
      "outputs": [
        {
          "internalType": "bytes32",
          "name": "",
          "type": "bytes32"
        }
      ],
      "stateMutability": "view",
      "type": "function"
    },
    {
      "inputs": [],
      "name": "renounceOwnership",
      "outputs": [],
      "stateMutability": "nonpayable",
      "type": "function"
    },
    {
      "inputs": [
        {
          "internalType": "address",
          "name": "from",
          "type": "address"
        },
        {
          "internalType": "address",
          "name": "to",
          "type": "address"
        },
        {
          "internalType": "uint256[]",
          "name": "ids",
          "type": "uint256[]"
        },
        {
          "internalType": "uint256[]",
          "name": "amounts",
          "type": "uint256[]"
        },
        {
          "internalType": "bytes",
          "name": "data",
          "type": "bytes"
        }
      ],
      "name": "safeBatchTransferFrom",
      "outputs": [],
      "stateMutability": "nonpayable",
      "type": "function"
    },
    {
      "inputs": [
        {
          "internalType": "address",
          "name": "from",
          "type": "address"
        },
        {
          "internalType": "address",
          "name": "to",
          "type": "address"
        },
        {
          "internalType": "uint256",
          "name": "id",
          "type": "uint256"
        },
        {
          "internalType": "uint256",
          "name": "amount",
          "type": "uint256"
        },
        {
          "internalType": "bytes",
          "name": "data",
          "type": "bytes"
        }
      ],
      "name": "safeTransferFrom",
      "outputs": [],
      "stateMutability": "nonpayable",
      "type": "function"
    },
    {
      "inputs": [
        {
          "internalType": "address",
          "name": "operator",
          "type": "address"
        },
        {
          "internalType": "bool",
          "name": "approved",
          "type": "bool"
        }
      ],
      "name": "setApprovalForAll",
      "outputs": [],
      "stateMutability": "nonpayable",
      "type": "function"
    },
    {
      "inputs": [
        {
          "internalType": "string",
          "name": "newuri",
          "type": "string"
        },
        {
          "internalType": "uint256",
          "name": "tokenId",
          "type": "uint256"
        }
      ],
      "name": "setURI",
      "outputs": [],
      "stateMutability": "nonpayable",
      "type": "function"
    },
    {
      "inputs": [
        {
          "internalType": "bytes4",
          "name": "interfaceId",
          "type": "bytes4"
        }
      ],
      "name": "supportsInterface",
      "outputs": [
        {
          "internalType": "bool",
          "name": "",
          "type": "bool"
        }
      ],
      "stateMutability": "view",
      "type": "function"
    },
    {
      "inputs": [],
      "name": "symbol",
      "outputs": [
        {
          "internalType": "string",
          "name": "",
          "type": "string"
        }
      ],
      "stateMutability": "view",
      "type": "function"
    },
    {
      "inputs": [],
      "name": "tokenTypeCount",
      "outputs": [
        {
          "internalType": "uint256",
          "name": "numTypes",
          "type": "uint256"
        }
      ],
      "stateMutability": "view",
      "type": "function"
    },
    {
      "inputs": [
        {
          "internalType": "uint256",
          "name": "id",
          "type": "uint256"
        }
      ],
      "name": "totalSupply",
      "outputs": [
        {
          "internalType": "uint256",
          "name": "",
          "type": "uint256"
        }
      ],
      "stateMutability": "view",
      "type": "function"
    },
    {
      "inputs": [
        {
          "internalType": "address",
          "name": "newOwner",
          "type": "address"
        }
      ],
      "name": "transferOwnership",
      "outputs": [],
      "stateMutability": "nonpayable",
      "type": "function"
    },
    {
      "inputs": [
        {
          "internalType": "address",
          "name": "newImplementation",
          "type": "address"
        }
      ],
      "name": "upgradeTo",
      "outputs": [],
      "stateMutability": "nonpayable",
      "type": "function"
    },
    {
      "inputs": [
        {
          "internalType": "address",
          "name": "newImplementation",
          "type": "address"
        },
        {
          "internalType": "bytes",
          "name": "data",
          "type": "bytes"
        }
      ],
      "name": "upgradeToAndCall",
      "outputs": [],
      "stateMutability": "payable",
      "type": "function"
    },
    {
      "inputs": [
        {
          "internalType": "uint256",
          "name": "tokenId",
          "type": "uint256"
        }
      ],
      "name": "uri",
      "outputs": [
        {
          "internalType": "string",
          "name": "",
          "type": "string"
        }
      ],
      "stateMutability": "view",
      "type": "function"
    }
  ],
  "bytecode": "0x60a06040523060601b6080523480156200001857600080fd5b50600054610100900460ff16620000365760005460ff161562000040565b62000040620000e5565b620000a85760405162461bcd60e51b815260206004820152602e60248201527f496e697469616c697a61626c653a20636f6e747261637420697320616c72656160448201526d191e481a5b9a5d1a585b1a5e995960921b606482015260840160405180910390fd5b600054610100900460ff16158015620000cb576000805461ffff19166101011790555b8015620000de576000805461ff00191690555b5062000112565b6000620000fd306200010360201b620011b21760201c565b15905090565b6001600160a01b03163b151590565b60805160601c6132166200014d600039600081816108550152818161089501528181610bcc01528181610c0c0152610c9f01526132166000f3fe6080604052600436106101805760003560e01c80636b20c454116100d1578063a22cb4651161008a578063e985e9c511610064578063e985e9c514610464578063f242432a146104ad578063f2fde38b146104cd578063f5298aca146104ed57600080fd5b8063a22cb465146103f7578063bd85b03914610417578063d2b04fd61461044457600080fd5b80636b20c454146103505780637118589714610370578063715018a614610385578063731133e91461039a5780638da5cb5b146103ba57806395d89b41146103e257600080fd5b80633659cfe61161013e5780634f1ef286116101185780634f1ef286146102d95780634f558e79146102ec57806352d1902d1461031b57806367db3b8f1461033057600080fd5b80633659cfe61461026c5780634cd88b761461028c5780634e1273f4146102ac57600080fd5b8062fdd58e1461018557806301ffc9a7146101b857806306fdde03146101e85780630e89341c1461020a5780632eb2c2d61461022a5780633656a1a41461024c575b600080fd5b34801561019157600080fd5b506101a56101a03660046128ff565b61050d565b6040519081526020015b60405180910390f35b3480156101c457600080fd5b506101d86101d3366004612a7b565b6105a6565b60405190151581526020016101af565b3480156101f457600080fd5b506101fd6105f8565b6040516101af9190612cd2565b34801561021657600080fd5b506101fd610225366004612b5d565b610687565b34801561023657600080fd5b5061024a610245366004612689565b61072a565b005b34801561025857600080fd5b5061024a610267366004612790565b6107c1565b34801561027857600080fd5b5061024a61028736600461263d565b61084a565b34801561029857600080fd5b5061024a6102a7366004612ab3565b61092a565b3480156102b857600080fd5b506102cc6102c7366004612a0d565b610a60565b6040516101af9190612c9a565b61024a6102e73660046128b4565b610bc1565b3480156102f857600080fd5b506101d8610307366004612b5d565b600090815260fb6020526040902054151590565b34801561032757600080fd5b506101a5610c92565b34801561033c57600080fd5b5061024a61034b366004612b1b565b610d46565b34801561035c57600080fd5b5061024a61036b36600461280a565b610e26565b34801561037c57600080fd5b506101a5610e6e565b34801561039157600080fd5b5061024a610e7f565b3480156103a657600080fd5b5061024a6103b53660046129bb565b610ee5565b3480156103c657600080fd5b506097546040516001600160a01b0390911681526020016101af565b3480156103ee57600080fd5b506101fd61100b565b34801561040357600080fd5b5061024a61041236600461287a565b611019565b34801561042357600080fd5b506101a5610432366004612b5d565b600090815260fb602052604090205490565b34801561045057600080fd5b506101a561045f366004612928565b611024565b34801561047057600080fd5b506101d861047f366004612657565b6001600160a01b03918216600090815260666020908152604080832093909416825291909152205460ff1690565b3480156104b957600080fd5b5061024a6104c836600461272e565b611062565b3480156104d957600080fd5b5061024a6104e836600461263d565b6110a7565b3480156104f957600080fd5b5061024a610508366004612989565b61116f565b60006001600160a01b03831661057e5760405162461bcd60e51b815260206004820152602b60248201527f455243313135353a2062616c616e636520717565727920666f7220746865207a60448201526a65726f206164647265737360a81b60648201526084015b60405180910390fd5b5060009081526065602090815260408083206001600160a01b03949094168352929052205490565b60006001600160e01b03198216636cdb3d1360e11b14806105d757506001600160e01b031982166303a24d0760e21b145b806105f257506301ffc9a760e01b6001600160e01b03198316145b92915050565b610191805461060690613035565b80601f016020809104026020016040519081016040528092919081815260200182805461063290613035565b801561067f5780601f106106545761010080835404028352916020019161067f565b820191906000526020600020905b81548152906001019060200180831161066257829003601f168201915b505050505081565b6000818152610193602052604090208054606091906106a590613035565b80601f01602080910402602001604051908101604052809291908181526020018280546106d190613035565b801561071e5780601f106106f35761010080835404028352916020019161071e565b820191906000526020600020905b81548152906001019060200180831161070157829003601f168201915b50505050509050919050565b6001600160a01b0385163314806107465750610746853361047f565b6107ad5760405162461bcd60e51b815260206004820152603260248201527f455243313135353a207472616e736665722063616c6c6572206973206e6f74206044820152711bdddb995c881b9bdc88185c1c1c9bdd995960721b6064820152608401610575565b6107ba85858585856111c1565b5050505050565b6001600160a01b0384163314806107dd57506107dd843361047f565b6107f95760405162461bcd60e51b815260040161057590612dbd565b60005b83518110156107ba5761083a8585838151811061082957634e487b7160e01b600052603260045260246000fd5b60200260200101518560018661138a565b6108438161309c565b90506107fc565b306001600160a01b037f00000000000000000000000000000000000000000000000000000000000000001614156108935760405162461bcd60e51b815260040161057590612d71565b7f00000000000000000000000000000000000000000000000000000000000000006001600160a01b03166108dc60008051602061319a833981519152546001600160a01b031690565b6001600160a01b0316146109025760405162461bcd60e51b815260040161057590612e06565b61090b816114ba565b6040805160008082526020820190925261092791839190611546565b50565b600054610100900460ff166109455760005460ff1615610949565b303b155b6109ac5760405162461bcd60e51b815260206004820152602e60248201527f496e697469616c697a61626c653a20636f6e747261637420697320616c72656160448201526d191e481a5b9a5d1a585b1a5e995960921b6064820152608401610575565b600054610100900460ff161580156109ce576000805461ffff19166101011790555b6109db610191868661237e565b506109e9610192848461237e565b50610a286040518060400160405280602081526020017f4572726f723a2053696e676c6520546f6b656e20555249204e6f7420557365648152506116c0565b610a306116f0565b610a3861171f565b610a4061171f565b610a4861171f565b80156107ba576000805461ff00191690555050505050565b60608151835114610ac55760405162461bcd60e51b815260206004820152602960248201527f455243313135353a206163636f756e747320616e6420696473206c656e677468604482015268040dad2e6dac2e8c6d60bb1b6064820152608401610575565b600083516001600160401b03811115610aee57634e487b7160e01b600052604160045260246000fd5b604051908082528060200260200182016040528015610b17578160200160208202803683370190505b50905060005b8451811015610bb957610b7e858281518110610b4957634e487b7160e01b600052603260045260246000fd5b6020026020010151858381518110610b7157634e487b7160e01b600052603260045260246000fd5b602002602001015161050d565b828281518110610b9e57634e487b7160e01b600052603260045260246000fd5b6020908102919091010152610bb28161309c565b9050610b1d565b509392505050565b306001600160a01b037f0000000000000000000000000000000000000000000000000000000000000000161415610c0a5760405162461bcd60e51b815260040161057590612d71565b7f00000000000000000000000000000000000000000000000000000000000000006001600160a01b0316610c5360008051602061319a833981519152546001600160a01b031690565b6001600160a01b031614610c795760405162461bcd60e51b815260040161057590612e06565b610c82826114ba565b610c8e82826001611546565b5050565b6000306001600160a01b037f00000000000000000000000000000000000000000000000000000000000000001614610d325760405162461bcd60e51b815260206004820152603860248201527f555550535570677261646561626c653a206d757374206e6f742062652063616c60448201527f6c6564207468726f7567682064656c656761746563616c6c00000000000000006064820152608401610575565b5060008051602061319a8339815191525b90565b610d506000611746565b80610d605750610d606004611746565b610dc95760405162461bcd60e51b815260206004820152603460248201527f596f75206d75737420686176652061204461746153657474657220746f6b656e604482015273103a379031b430b733b29036b2ba30b230ba309760611b6064820152608401610575565b6000818152610193602090815260409091208351610de992850190612402565b50807f6bb7ff708619ba0610cba295a58592e0451dee2622938c8755667688daf3529b83604051610e1a9190612cd2565b60405180910390a25050565b6001600160a01b038316331480610e425750610e42833361047f565b610e5e5760405162461bcd60e51b815260040161057590612dbd565b610e69838383611794565b505050565b6000610e7a6101945490565b905090565b6097546001600160a01b03163314610ed95760405162461bcd60e51b815260206004820181905260248201527f4f776e61626c653a2063616c6c6572206973206e6f7420746865206f776e65726044820152606401610575565b610ee36000611941565b565b6001600160f81b038084161415610f7e57610f006000611746565b80610f105750610f106002611746565b610f795760405162461bcd60e51b815260206004820152603460248201527f596f75206d7573742068617665206120526f6c65476976657220746f6b656e206044820152733a379036b4b73a103a37b5b2b71033b0ba32b99760611b6064820152608401610575565b610ff9565b610f886000611746565b80610f985750610f986001611746565b610ff95760405162461bcd60e51b815260206004820152602c60248201527f596f75206d75737420686176652061204d696e74657220746f6b656e20746f2060448201526b36b4b73a103a37b5b2b7399760a11b6064820152608401610575565b61100584848484611993565b50505050565b610192805461060690613035565b610c8e338383611a96565b600061103561019480546001019055565b60006110416101945490565b905061104f86828786610ee5565b6110598482610d46565b95945050505050565b6001600160a01b03851633148061107e575061107e853361047f565b61109a5760405162461bcd60e51b815260040161057590612dbd565b6107ba858585858561138a565b6097546001600160a01b031633146111015760405162461bcd60e51b815260206004820181905260248201527f4f776e61626c653a2063616c6c6572206973206e6f7420746865206f776e65726044820152606401610575565b6001600160a01b0381166111665760405162461bcd60e51b815260206004820152602660248201527f4f776e61626c653a206e6577206f776e657220697320746865207a65726f206160448201526564647265737360d01b6064820152608401610575565b61092781611941565b6001600160a01b03831633148061118b575061118b833361047f565b6111a75760405162461bcd60e51b815260040161057590612dbd565b610e69838383611b77565b6001600160a01b03163b151590565b81518351146111e25760405162461bcd60e51b815260040161057590612f6f565b6001600160a01b0384166112085760405162461bcd60e51b815260040161057590612e52565b33611217818787878787611c7c565b60005b845181101561131c57600085828151811061124557634e487b7160e01b600052603260045260246000fd5b60200260200101519050600085838151811061127157634e487b7160e01b600052603260045260246000fd5b60209081029190910181015160008481526065835260408082206001600160a01b038e1683529093529190912054909150818110156112c25760405162461bcd60e51b815260040161057590612eda565b60008381526065602090815260408083206001600160a01b038e8116855292528083208585039055908b16825281208054849290611301908490612fda565b92505081905550505050806113159061309c565b905061121a565b50846001600160a01b0316866001600160a01b0316826001600160a01b03167f4a39dc06d4c0dbc64b70af90fd698a233a518aa5d07e595d983b8c0526c8f7fb878760405161136c929190612cad565b60405180910390a4611382818787878787611d0d565b505050505050565b6001600160a01b0384166113b05760405162461bcd60e51b815260040161057590612e52565b336113cf8187876113c088611e78565b6113c988611e78565b87611c7c565b60008481526065602090815260408083206001600160a01b038a168452909152902054838110156114125760405162461bcd60e51b815260040161057590612eda565b60008581526065602090815260408083206001600160a01b038b8116855292528083208785039055908816825281208054869290611451908490612fda565b909155505060408051868152602081018690526001600160a01b03808916928a821692918616917fc3d58168c5ae7397731d063d5bbf3d657854427343f4c083240f7aacaa2d0f62910160405180910390a46114b1828888888888611ed1565b50505050505050565b6114c46000611746565b806114d457506114d46005611746565b6109275760405162461bcd60e51b815260206004820152603960248201527f596f75206d75737420686176652061204d61696e7461696e657220746f6b656e60448201527f20746f20757067726164652074686520636f6e74726163742e000000000000006064820152608401610575565b7f4910fdfa16fed3260ed0e7147f7cc6da11a60208b5b9406d12a635614ffd91435460ff161561157957610e6983611f9b565b826001600160a01b03166352d1902d6040518163ffffffff1660e01b815260040160206040518083038186803b1580156115b257600080fd5b505afa9250505080156115e2575060408051601f3d908101601f191682019092526115df91810190612a63565b60015b6116455760405162461bcd60e51b815260206004820152602e60248201527f45524331393637557067726164653a206e657720696d706c656d656e7461746960448201526d6f6e206973206e6f74205555505360901b6064820152608401610575565b60008051602061319a83398151915281146116b45760405162461bcd60e51b815260206004820152602960248201527f45524331393637557067726164653a20756e737570706f727465642070726f786044820152681a58589b195555525160ba1b6064820152608401610575565b50610e69838383612037565b600054610100900460ff166116e75760405162461bcd60e51b815260040161057590612f24565b6109278161205c565b600054610100900460ff166117175760405162461bcd60e51b815260040161057590612f24565b610ee361208c565b600054610100900460ff16610ee35760405162461bcd60e51b815260040161057590612f24565b6000806001600160f81b0360f884600781111561177357634e487b7160e01b600052602160045260246000fd5b61177e92911b612fda565b9050600061178c338361050d565b119392505050565b6001600160a01b0383166117ba5760405162461bcd60e51b815260040161057590612e97565b80518251146117db5760405162461bcd60e51b815260040161057590612f6f565b60003390506117fe81856000868660405180602001604052806000815250611c7c565b60005b83518110156118e257600084828151811061182c57634e487b7160e01b600052603260045260246000fd5b60200260200101519050600084838151811061185857634e487b7160e01b600052603260045260246000fd5b60209081029190910181015160008481526065835260408082206001600160a01b038c1683529093529190912054909150818110156118a95760405162461bcd60e51b815260040161057590612d2d565b60009283526065602090815260408085206001600160a01b038b16865290915290922091039055806118da8161309c565b915050611801565b5060006001600160a01b0316846001600160a01b0316826001600160a01b03167f4a39dc06d4c0dbc64b70af90fd698a233a518aa5d07e595d983b8c0526c8f7fb8686604051611933929190612cad565b60405180910390a450505050565b609780546001600160a01b038381166001600160a01b0319831681179093556040519116919082907f8be0079c531659141344cd1fd0a4f28419497f9722a3daafe3b4186f6b6457e090600090a35050565b6001600160a01b0384166119f35760405162461bcd60e51b815260206004820152602160248201527f455243313135353a206d696e7420746f20746865207a65726f206164647265736044820152607360f81b6064820152608401610575565b33611a04816000876113c088611e78565b60008481526065602090815260408083206001600160a01b038916845290915281208054859290611a36908490612fda565b909155505060408051858152602081018590526001600160a01b0380881692600092918516917fc3d58168c5ae7397731d063d5bbf3d657854427343f4c083240f7aacaa2d0f62910160405180910390a46107ba81600087878787611ed1565b816001600160a01b0316836001600160a01b03161415611b0a5760405162461bcd60e51b815260206004820152602960248201527f455243313135353a2073657474696e6720617070726f76616c20737461747573604482015268103337b91039b2b63360b91b6064820152608401610575565b6001600160a01b03838116600081815260666020908152604080832094871680845294825291829020805460ff191686151590811790915591519182527f17307eab39ab6107e8899845ad3d59bd9653f200f220920489ca2b5937696c31910160405180910390a3505050565b6001600160a01b038316611b9d5760405162461bcd60e51b815260040161057590612e97565b33611bcc81856000611bae87611e78565b611bb787611e78565b60405180602001604052806000815250611c7c565b60008381526065602090815260408083206001600160a01b038816845290915290205482811015611c0f5760405162461bcd60e51b815260040161057590612d2d565b60008481526065602090815260408083206001600160a01b03898116808652918452828520888703905582518981529384018890529092908616917fc3d58168c5ae7397731d063d5bbf3d657854427343f4c083240f7aacaa2d0f62910160405180910390a45050505050565b611c866000611746565b80611c965750611c966003611746565b611cff5760405162461bcd60e51b815260206004820152603460248201527f596f75206d75737420686176652061205472616e73666572657220746f6b656e604482015273103a37903a3930b739b332b9103a37b5b2b7399760611b6064820152608401610575565b6113828686868686866120bc565b6001600160a01b0384163b156113825760405163bc197c8160e01b81526001600160a01b0385169063bc197c8190611d519089908990889088908890600401612bf7565b602060405180830381600087803b158015611d6b57600080fd5b505af1925050508015611d9b575060408051601f3d908101601f19168201909252611d9891810190612a97565b60015b611e4857611da76130e3565b806308c379a01415611de15750611dbc6130fa565b80611dc75750611de3565b8060405162461bcd60e51b81526004016105759190612cd2565b505b60405162461bcd60e51b815260206004820152603460248201527f455243313135353a207472616e7366657220746f206e6f6e20455243313135356044820152732932b1b2b4bb32b91034b6b83632b6b2b73a32b960611b6064820152608401610575565b6001600160e01b0319811663bc197c8160e01b146114b15760405162461bcd60e51b815260040161057590612ce5565b60408051600180825281830190925260609160009190602080830190803683370190505090508281600081518110611ec057634e487b7160e01b600052603260045260246000fd5b602090810291909101015292915050565b6001600160a01b0384163b156113825760405163f23a6e6160e01b81526001600160a01b0385169063f23a6e6190611f159089908990889088908890600401612c55565b602060405180830381600087803b158015611f2f57600080fd5b505af1925050508015611f5f575060408051601f3d908101601f19168201909252611f5c91810190612a97565b60015b611f6b57611da76130e3565b6001600160e01b0319811663f23a6e6160e01b146114b15760405162461bcd60e51b815260040161057590612ce5565b6001600160a01b0381163b6120085760405162461bcd60e51b815260206004820152602d60248201527f455243313936373a206e657720696d706c656d656e746174696f6e206973206e60448201526c1bdd08184818dbdb9d1c9858dd609a1b6064820152608401610575565b60008051602061319a83398151915280546001600160a01b0319166001600160a01b0392909216919091179055565b61204083612200565b60008251118061204d5750805b15610e69576110058383612240565b600054610100900460ff166120835760405162461bcd60e51b815260040161057590612f24565b6109278161232b565b600054610100900460ff166120b35760405162461bcd60e51b815260040161057590612f24565b610ee333611941565b6001600160a01b03851661215f5760005b835181101561215d578281815181106120f657634e487b7160e01b600052603260045260246000fd5b602002602001015160fb600086848151811061212257634e487b7160e01b600052603260045260246000fd5b6020026020010151815260200190815260200160002060008282546121479190612fda565b9091555061215690508161309c565b90506120cd565b505b6001600160a01b0384166113825760005b83518110156114b15782818151811061219957634e487b7160e01b600052603260045260246000fd5b602002602001015160fb60008684815181106121c557634e487b7160e01b600052603260045260246000fd5b6020026020010151815260200190815260200160002060008282546121ea9190612ff2565b909155506121f990508161309c565b9050612170565b61220981611f9b565b6040516001600160a01b038216907fbc7cd75a20ee27fd9adebab32041f755214dbc6bffa90cc0225b39da2e5c2d3b90600090a250565b60606001600160a01b0383163b6122a85760405162461bcd60e51b815260206004820152602660248201527f416464726573733a2064656c65676174652063616c6c20746f206e6f6e2d636f6044820152651b9d1c9858dd60d21b6064820152608401610575565b600080846001600160a01b0316846040516122c39190612bdb565b600060405180830381855af49150503d80600081146122fe576040519150601f19603f3d011682016040523d82523d6000602084013e612303565b606091505b509150915061105982826040518060600160405280602781526020016131ba6027913961233e565b8051610c8e906067906020840190612402565b6060831561234d575081612377565b82511561235d5782518084602001fd5b8160405162461bcd60e51b81526004016105759190612cd2565b9392505050565b82805461238a90613035565b90600052602060002090601f0160209004810192826123ac57600085556123f2565b82601f106123c55782800160ff198235161785556123f2565b828001600101855582156123f2579182015b828111156123f25782358255916020019190600101906123d7565b506123fe929150612476565b5090565b82805461240e90613035565b90600052602060002090601f01602090048101928261243057600085556123f2565b82601f1061244957805160ff19168380011785556123f2565b828001600101855582156123f2579182015b828111156123f257825182559160200191906001019061245b565b5b808211156123fe5760008155600101612477565b80356001600160a01b03811681146124a257600080fd5b919050565b600082601f8301126124b7578081fd5b813560206124c482612fb7565b6040516124d18282613070565b8381528281019150858301600585901b870184018810156124f0578586fd5b855b85811015612515576125038261248b565b845292840192908401906001016124f2565b5090979650505050505050565b600082601f830112612532578081fd5b8135602061253f82612fb7565b60405161254c8282613070565b8381528281019150858301600585901b8701840188101561256b578586fd5b855b858110156125155781358452928401929084019060010161256d565b600082601f830112612599578081fd5b81356001600160401b038111156125b2576125b26130cd565b6040516125c9601f8301601f191660200182613070565b8181528460208386010111156125dd578283fd5b816020850160208301379081016020019190915292915050565b60008083601f840112612608578182fd5b5081356001600160401b0381111561261e578182fd5b60208301915083602082850101111561263657600080fd5b9250929050565b60006020828403121561264e578081fd5b6123778261248b565b60008060408385031215612669578081fd5b6126728361248b565b91506126806020840161248b565b90509250929050565b600080600080600060a086880312156126a0578081fd5b6126a98661248b565b94506126b76020870161248b565b935060408601356001600160401b03808211156126d2578283fd5b6126de89838a01612522565b945060608801359150808211156126f3578283fd5b6126ff89838a01612522565b93506080880135915080821115612714578283fd5b5061272188828901612589565b9150509295509295909350565b600080600080600060a08688031215612745578081fd5b61274e8661248b565b945061275c6020870161248b565b9350604086013592506060860135915060808601356001600160401b03811115612784578182fd5b61272188828901612589565b600080600080608085870312156127a5578384fd5b6127ae8561248b565b935060208501356001600160401b03808211156127c9578485fd5b6127d5888389016124a7565b94506040870135935060608701359150808211156127f1578283fd5b506127fe87828801612589565b91505092959194509250565b60008060006060848603121561281e578283fd5b6128278461248b565b925060208401356001600160401b0380821115612842578384fd5b61284e87838801612522565b93506040860135915080821115612863578283fd5b5061287086828701612522565b9150509250925092565b6000806040838503121561288c578182fd5b6128958361248b565b9150602083013580151581146128a9578182fd5b809150509250929050565b600080604083850312156128c6578182fd5b6128cf8361248b565b915060208301356001600160401b038111156128e9578182fd5b6128f585828601612589565b9150509250929050565b60008060408385031215612911578182fd5b61291a8361248b565b946020939093013593505050565b6000806000806080858703121561293d578182fd5b6129468561248b565b93506020850135925060408501356001600160401b0380821115612968578384fd5b61297488838901612589565b935060608701359150808211156127f1578283fd5b60008060006060848603121561299d578081fd5b6129a68461248b565b95602085013595506040909401359392505050565b600080600080608085870312156129d0578182fd5b6129d98561248b565b9350602085013592506040850135915060608501356001600160401b03811115612a01578182fd5b6127fe87828801612589565b60008060408385031215612a1f578182fd5b82356001600160401b0380821115612a35578384fd5b612a41868387016124a7565b93506020850135915080821115612a56578283fd5b506128f585828601612522565b600060208284031215612a74578081fd5b5051919050565b600060208284031215612a8c578081fd5b813561237781613183565b600060208284031215612aa8578081fd5b815161237781613183565b60008060008060408587031215612ac8578182fd5b84356001600160401b0380821115612ade578384fd5b612aea888389016125f7565b90965094506020870135915080821115612b02578384fd5b50612b0f878288016125f7565b95989497509550505050565b60008060408385031215612b2d578182fd5b82356001600160401b03811115612b42578283fd5b612b4e85828601612589565b95602094909401359450505050565b600060208284031215612b6e578081fd5b5035919050565b6000815180845260208085019450808401835b83811015612ba457815187529582019590820190600101612b88565b509495945050505050565b60008151808452612bc7816020860160208601613009565b601f01601f19169290920160200192915050565b60008251612bed818460208701613009565b9190910192915050565b6001600160a01b0386811682528516602082015260a060408201819052600090612c2390830186612b75565b8281036060840152612c358186612b75565b90508281036080840152612c498185612baf565b98975050505050505050565b6001600160a01b03868116825285166020820152604081018490526060810183905260a060808201819052600090612c8f90830184612baf565b979650505050505050565b6020815260006123776020830184612b75565b604081526000612cc06040830185612b75565b82810360208401526110598185612b75565b6020815260006123776020830184612baf565b60208082526028908201527f455243313135353a204552433131353552656365697665722072656a656374656040820152676420746f6b656e7360c01b606082015260800190565b60208082526024908201527f455243313135353a206275726e20616d6f756e7420657863656564732062616c604082015263616e636560e01b606082015260800190565b6020808252602c908201527f46756e6374696f6e206d7573742062652063616c6c6564207468726f7567682060408201526b19195b1959d85d1958d85b1b60a21b606082015260800190565b60208082526029908201527f455243313135353a2063616c6c6572206973206e6f74206f776e6572206e6f7260408201526808185c1c1c9bdd995960ba1b606082015260800190565b6020808252602c908201527f46756e6374696f6e206d7573742062652063616c6c6564207468726f7567682060408201526b6163746976652070726f787960a01b606082015260800190565b60208082526025908201527f455243313135353a207472616e7366657220746f20746865207a65726f206164604082015264647265737360d81b606082015260800190565b60208082526023908201527f455243313135353a206275726e2066726f6d20746865207a65726f206164647260408201526265737360e81b606082015260800190565b6020808252602a908201527f455243313135353a20696e73756666696369656e742062616c616e636520666f60408201526939103a3930b739b332b960b11b606082015260800190565b6020808252602b908201527f496e697469616c697a61626c653a20636f6e7472616374206973206e6f74206960408201526a6e697469616c697a696e6760a81b606082015260800190565b60208082526028908201527f455243313135353a2069647320616e6420616d6f756e7473206c656e677468206040820152670dad2e6dac2e8c6d60c31b606082015260800190565b60006001600160401b03821115612fd057612fd06130cd565b5060051b60200190565b60008219821115612fed57612fed6130b7565b500190565b600082821015613004576130046130b7565b500390565b60005b8381101561302457818101518382015260200161300c565b838111156110055750506000910152565b600181811c9082168061304957607f821691505b6020821081141561306a57634e487b7160e01b600052602260045260246000fd5b50919050565b601f8201601f191681016001600160401b0381118282101715613095576130956130cd565b6040525050565b60006000198214156130b0576130b06130b7565b5060010190565b634e487b7160e01b600052601160045260246000fd5b634e487b7160e01b600052604160045260246000fd5b600060033d1115610d4357600481823e5160e01c90565b600060443d10156131085790565b6040516003193d81016004833e81513d6001600160401b03816024840111818411171561313757505050505090565b828501915081518181111561314f5750505050505090565b843d87010160208285010111156131695750505050505090565b61317860208286010187613070565b509095945050505050565b6001600160e01b03198116811461092757600080fdfe360894a13ba1a3210667c828492db98dca3e2076cc3735a920a3ca505d382bbc416464726573733a206c6f772d6c6576656c2064656c65676174652063616c6c206661696c6564a264697066735822122065c1afc25432f5af00d5e21744dd7e8c342bc953ab313d7acc160be558bfa4e964736f6c63430008040033",
  "linkReferences": {},
  "deployedLinkReferences": {}
}