{
  "_format": "hh-sol-artifact-1",
  "contractName": "BulkDisbursableNFTs",
  "sourceName": "src/BulkDisbursableNFTs.sol",
  "abi": [
    {
      "inputs": [],
      "stateMutability": "nonpayable",
      "type": "constructor"
    },
    {
      "anonymous": false,
      "inputs": [
        {
          "indexed": false,
          "internalType": "address",
          "name": "previousAdmin",
          "type": "address"
        },
        {
          "indexed": false,
          "internalType": "address",
          "name": "newAdmin",
          "type": "address"
        }
      ],
      "name": "AdminChanged",
      "type": "event"
    },
    {
      "anonymous": false,
      "inputs": [
        {
          "indexed": true,
          "internalType": "address",
          "name": "account",
          "type": "address"
        },
        {
          "indexed": true,
          "internalType": "address",
          "name": "operator",
          "type": "address"
        },
        {
          "indexed": false,
          "internalType": "bool",
          "name": "approved",
          "type": "bool"
        }
      ],
      "name": "ApprovalForAll",
      "type": "event"
    },
    {
      "anonymous": false,
      "inputs": [
        {
          "indexed": true,
          "internalType": "address",
          "name": "beacon",
          "type": "address"
        }
      ],
      "name": "BeaconUpgraded",
      "type": "event"
    },
    {
      "anonymous": false,
      "inputs": [
        {
          "indexed": false,
          "internalType": "uint256",
          "name": "id",
          "type": "uint256"
        },
        {
          "indexed": false,
          "internalType": "address",
          "name": "controller",
          "type": "address"
        }
      ],
      "name": "Created",
      "type": "event"
    },
    {
      "anonymous": false,
      "inputs": [
        {
          "indexed": true,
          "internalType": "address",
          "name": "previousOwner",
          "type": "address"
        },
        {
          "indexed": true,
          "internalType": "address",
          "name": "newOwner",
          "type": "address"
        }
      ],
      "name": "OwnershipTransferred",
      "type": "event"
    },
    {
      "anonymous": false,
      "inputs": [
        {
          "indexed": true,
          "internalType": "address",
          "name": "operator",
          "type": "address"
        },
        {
          "indexed": true,
          "internalType": "address",
          "name": "from",
          "type": "address"
        },
        {
          "indexed": true,
          "internalType": "address",
          "name": "to",
          "type": "address"
        },
        {
          "indexed": false,
          "internalType": "uint256[]",
          "name": "ids",
          "type": "uint256[]"
        },
        {
          "indexed": false,
          "internalType": "uint256[]",
          "name": "values",
          "type": "uint256[]"
        }
      ],
      "name": "TransferBatch",
      "type": "event"
    },
    {
      "anonymous": false,
      "inputs": [
        {
          "indexed": true,
          "internalType": "address",
          "name": "operator",
          "type": "address"
        },
        {
          "indexed": true,
          "internalType": "address",
          "name": "from",
          "type": "address"
        },
        {
          "indexed": true,
          "internalType": "address",
          "name": "to",
          "type": "address"
        },
        {
          "indexed": false,
          "internalType": "uint256",
          "name": "id",
          "type": "uint256"
        },
        {
          "indexed": false,
          "internalType": "uint256",
          "name": "value",
          "type": "uint256"
        }
      ],
      "name": "TransferSingle",
      "type": "event"
    },
    {
      "anonymous": false,
      "inputs": [
        {
          "indexed": false,
          "internalType": "string",
          "name": "value",
          "type": "string"
        },
        {
          "indexed": true,
          "internalType": "uint256",
          "name": "id",
          "type": "uint256"
        }
      ],
      "name": "URI",
      "type": "event"
    },
    {
      "anonymous": false,
      "inputs": [
        {
          "indexed": true,
          "internalType": "address",
          "name": "implementation",
          "type": "address"
        }
      ],
      "name": "Upgraded",
      "type": "event"
    },
    {
      "inputs": [],
      "name": "ADDRESS_TYPE",
      "outputs": [
        {
          "internalType": "uint256",
          "name": "",
          "type": "uint256"
        }
      ],
      "stateMutability": "view",
      "type": "function"
    },
    {
      "inputs": [],
      "name": "COUNTER_MASK",
      "outputs": [
        {
          "internalType": "uint256",
          "name": "",
          "type": "uint256"
        }
      ],
      "stateMutability": "view",
      "type": "function"
    },
    {
      "inputs": [],
      "name": "COUNTER_WIDTH",
      "outputs": [
        {
          "internalType": "uint8",
          "name": "",
          "type": "uint8"
        }
      ],
      "stateMutability": "view",
      "type": "function"
    },
    {
      "inputs": [],
      "name": "EXPERIMENTAL_TYPE",
      "outputs": [
        {
          "internalType": "uint256",
          "name": "",
          "type": "uint256"
        }
      ],
      "stateMutability": "view",
      "type": "function"
    },
    {
      "inputs": [],
      "name": "GATING_TYPE",
      "outputs": [
        {
          "internalType": "uint256",
          "name": "",
          "type": "uint256"
        }
      ],
      "stateMutability": "view",
      "type": "function"
    },
    {
      "inputs": [],
      "name": "INTERNAL_BOUNDARY",
      "outputs": [
        {
          "internalType": "uint8",
          "name": "",
          "type": "uint8"
        }
      ],
      "stateMutability": "view",
      "type": "function"
    },
    {
      "inputs": [],
      "name": "INTERNAL_MASK",
      "outputs": [
        {
          "internalType": "uint256",
          "name": "",
          "type": "uint256"
        }
      ],
      "stateMutability": "view",
      "type": "function"
    },
    {
      "inputs": [],
      "name": "INTERNAL_WIDTH",
      "outputs": [
        {
          "internalType": "uint8",
          "name": "",
          "type": "uint8"
        }
      ],
      "stateMutability": "view",
      "type": "function"
    },
    {
      "inputs": [],
      "name": "MEMBERSHIP_TYPE",
      "outputs": [
        {
          "internalType": "uint256",
          "name": "",
          "type": "uint256"
        }
      ],
      "stateMutability": "view",
      "type": "function"
    },
    {
      "inputs": [],
      "name": "REACTION_TYPE",
      "outputs": [
        {
          "internalType": "uint256",
          "name": "",
          "type": "uint256"
        }
      ],
      "stateMutability": "view",
      "type": "function"
    },
    {
      "inputs": [],
      "name": "RECORDED_TIME_TYPE",
      "outputs": [
        {
          "internalType": "uint256",
          "name": "",
          "type": "uint256"
        }
      ],
      "stateMutability": "view",
      "type": "function"
    },
    {
      "inputs": [],
      "name": "RECORDING_TYPE",
      "outputs": [
        {
          "internalType": "uint256",
          "name": "",
          "type": "uint256"
        }
      ],
      "stateMutability": "view",
      "type": "function"
    },
    {
      "inputs": [],
      "name": "REPETITION_BOUNDARY",
      "outputs": [
        {
          "internalType": "uint8",
          "name": "",
          "type": "uint8"
        }
      ],
      "stateMutability": "view",
      "type": "function"
    },
    {
      "inputs": [],
      "name": "REPETITION_MASK",
      "outputs": [
        {
          "internalType": "uint256",
          "name": "",
          "type": "uint256"
        }
      ],
      "stateMutability": "view",
      "type": "function"
    },
    {
      "inputs": [],
      "name": "REPETITION_WIDTH",
      "outputs": [
        {
          "internalType": "uint8",
          "name": "",
          "type": "uint8"
        }
      ],
      "stateMutability": "view",
      "type": "function"
    },
    {
      "inputs": [],
      "name": "REQUIREMENT_BOUNDARY",
      "outputs": [
        {
          "internalType": "uint8",
          "name": "",
          "type": "uint8"
        }
      ],
      "stateMutability": "view",
      "type": "function"
    },
    {
      "inputs": [],
      "name": "REQUIREMENT_MASK",
      "outputs": [
        {
          "internalType": "uint256",
          "name": "",
          "type": "uint256"
        }
      ],
      "stateMutability": "view",
      "type": "function"
    },
    {
      "inputs": [],
      "name": "REQUIREMENT_WIDTH",
      "outputs": [
        {
          "internalType": "uint8",
          "name": "",
          "type": "uint8"
        }
      ],
      "stateMutability": "view",
      "type": "function"
    },
    {
      "inputs": [],
      "name": "REQUIRE_ALL",
      "outputs": [
        {
          "internalType": "uint256",
          "name": "",
          "type": "uint256"
        }
      ],
      "stateMutability": "view",
      "type": "function"
    },
    {
      "inputs": [],
      "name": "REQUIRE_NONE",
      "outputs": [
        {
          "internalType": "uint256",
          "name": "",
          "type": "uint256"
        }
      ],
      "stateMutability": "view",
      "type": "function"
    },
    {
      "inputs": [],
      "name": "REQUIRE_ONE",
      "outputs": [
        {
          "internalType": "uint256",
          "name": "",
          "type": "uint256"
        }
      ],
      "stateMutability": "view",
      "type": "function"
    },
    {
      "inputs": [],
      "name": "REVIEW_TYPE",
      "outputs": [
        {
          "internalType": "uint256",
          "name": "",
          "type": "uint256"
        }
      ],
      "stateMutability": "view",
      "type": "function"
    },
    {
      "inputs": [],
      "name": "ROLE_BOUNDARY",
      "outputs": [
        {
          "internalType": "uint8",
          "name": "",
          "type": "uint8"
        }
      ],
      "stateMutability": "view",
      "type": "function"
    },
    {
      "inputs": [],
      "name": "ROLE_MASK",
      "outputs": [
        {
          "internalType": "uint256",
          "name": "",
          "type": "uint256"
        }
      ],
      "stateMutability": "view",
      "type": "function"
    },
    {
      "inputs": [],
      "name": "ROLE_WIDTH",
      "outputs": [
        {
          "internalType": "uint8",
          "name": "",
          "type": "uint8"
        }
      ],
      "stateMutability": "view",
      "type": "function"
    },
    {
      "inputs": [],
      "name": "TEAM_1",
      "outputs": [
        {
          "internalType": "uint256",
          "name": "",
          "type": "uint256"
        }
      ],
      "stateMutability": "view",
      "type": "function"
    },
    {
      "inputs": [],
      "name": "TEAM_2",
      "outputs": [
        {
          "internalType": "uint256",
          "name": "",
          "type": "uint256"
        }
      ],
      "stateMutability": "view",
      "type": "function"
    },
    {
      "inputs": [],
      "name": "TEAM_3",
      "outputs": [
        {
          "internalType": "uint256",
          "name": "",
          "type": "uint256"
        }
      ],
      "stateMutability": "view",
      "type": "function"
    },
    {
      "inputs": [],
      "name": "TEAM_4",
      "outputs": [
        {
          "internalType": "uint256",
          "name": "",
          "type": "uint256"
        }
      ],
      "stateMutability": "view",
      "type": "function"
    },
    {
      "inputs": [],
      "name": "TEAM_5",
      "outputs": [
        {
          "internalType": "uint256",
          "name": "",
          "type": "uint256"
        }
      ],
      "stateMutability": "view",
      "type": "function"
    },
    {
      "inputs": [],
      "name": "TEAM_6",
      "outputs": [
        {
          "internalType": "uint256",
          "name": "",
          "type": "uint256"
        }
      ],
      "stateMutability": "view",
      "type": "function"
    },
    {
      "inputs": [],
      "name": "TEAM_7",
      "outputs": [
        {
          "internalType": "uint256",
          "name": "",
          "type": "uint256"
        }
      ],
      "stateMutability": "view",
      "type": "function"
    },
    {
      "inputs": [],
      "name": "TEAM_8",
      "outputs": [
        {
          "internalType": "uint256",
          "name": "",
          "type": "uint256"
        }
      ],
      "stateMutability": "view",
      "type": "function"
    },
    {
      "inputs": [],
      "name": "TEAM_9",
      "outputs": [
        {
          "internalType": "uint256",
          "name": "",
          "type": "uint256"
        }
      ],
      "stateMutability": "view",
      "type": "function"
    },
    {
      "inputs": [],
      "name": "TEAM_A",
      "outputs": [
        {
          "internalType": "uint256",
          "name": "",
          "type": "uint256"
        }
      ],
      "stateMutability": "view",
      "type": "function"
    },
    {
      "inputs": [],
      "name": "TEAM_B",
      "outputs": [
        {
          "internalType": "uint256",
          "name": "",
          "type": "uint256"
        }
      ],
      "stateMutability": "view",
      "type": "function"
    },
    {
      "inputs": [],
      "name": "TEAM_BOUNDARY",
      "outputs": [
        {
          "internalType": "uint8",
          "name": "",
          "type": "uint8"
        }
      ],
      "stateMutability": "view",
      "type": "function"
    },
    {
      "inputs": [],
      "name": "TEAM_C",
      "outputs": [
        {
          "internalType": "uint256",
          "name": "",
          "type": "uint256"
        }
      ],
      "stateMutability": "view",
      "type": "function"
    },
    {
      "inputs": [],
      "name": "TEAM_D",
      "outputs": [
        {
          "internalType": "uint256",
          "name": "",
          "type": "uint256"
        }
      ],
      "stateMutability": "view",
      "type": "function"
    },
    {
      "inputs": [],
      "name": "TEAM_MASK",
      "outputs": [
        {
          "internalType": "uint256",
          "name": "",
          "type": "uint256"
        }
      ],
      "stateMutability": "view",
      "type": "function"
    },
    {
      "inputs": [],
      "name": "TEAM_WIDTH",
      "outputs": [
        {
          "internalType": "uint8",
          "name": "",
          "type": "uint8"
        }
      ],
      "stateMutability": "view",
      "type": "function"
    },
    {
      "inputs": [],
      "name": "TYPE_BOUNDARY",
      "outputs": [
        {
          "internalType": "uint8",
          "name": "",
          "type": "uint8"
        }
      ],
      "stateMutability": "view",
      "type": "function"
    },
    {
      "inputs": [],
      "name": "TYPE_MASK",
      "outputs": [
        {
          "internalType": "uint256",
          "name": "",
          "type": "uint256"
        }
      ],
      "stateMutability": "view",
      "type": "function"
    },
    {
      "inputs": [],
      "name": "TYPE_WIDTH",
      "outputs": [
        {
          "internalType": "uint8",
          "name": "",
          "type": "uint8"
        }
      ],
      "stateMutability": "view",
      "type": "function"
    },
    {
      "inputs": [],
      "name": "UNIQUE",
      "outputs": [
        {
          "internalType": "uint256",
          "name": "",
          "type": "uint256"
        }
      ],
      "stateMutability": "view",
      "type": "function"
    },
    {
      "inputs": [],
      "name": "UNIQUENESS_BOUNDARY",
      "outputs": [
        {
          "internalType": "uint8",
          "name": "",
          "type": "uint8"
        }
      ],
      "stateMutability": "view",
      "type": "function"
    },
    {
      "inputs": [],
      "name": "UNIQUENESS_MASK",
      "outputs": [
        {
          "internalType": "uint256",
          "name": "",
          "type": "uint256"
        }
      ],
      "stateMutability": "view",
      "type": "function"
    },
    {
      "inputs": [],
      "name": "UNIQUENESS_WIDTH",
      "outputs": [
        {
          "internalType": "uint8",
          "name": "",
          "type": "uint8"
        }
      ],
      "stateMutability": "view",
      "type": "function"
    },
    {
      "inputs": [],
      "name": "USE_AFTER",
      "outputs": [
        {
          "internalType": "uint256",
          "name": "",
          "type": "uint256"
        }
      ],
      "stateMutability": "view",
      "type": "function"
    },
    {
      "inputs": [],
      "name": "USE_ONCE",
      "outputs": [
        {
          "internalType": "uint256",
          "name": "",
          "type": "uint256"
        }
      ],
      "stateMutability": "view",
      "type": "function"
    },
    {
      "inputs": [],
      "name": "USE_UNLIMITED",
      "outputs": [
        {
          "internalType": "uint256",
          "name": "",
          "type": "uint256"
        }
      ],
      "stateMutability": "view",
      "type": "function"
    },
    {
      "inputs": [],
      "name": "USE_UNTIL",
      "outputs": [
        {
          "internalType": "uint256",
          "name": "",
          "type": "uint256"
        }
      ],
      "stateMutability": "view",
      "type": "function"
    },
    {
      "inputs": [],
      "name": "VANILLA_TYPE",
      "outputs": [
        {
          "internalType": "uint256",
          "name": "",
          "type": "uint256"
        }
      ],
      "stateMutability": "view",
      "type": "function"
    },
    {
      "inputs": [],
      "name": "VOUCHED_TIME_TYPE",
      "outputs": [
        {
          "internalType": "uint256",
          "name": "",
          "type": "uint256"
        }
      ],
      "stateMutability": "view",
      "type": "function"
    },
    {
      "inputs": [
        {
          "internalType": "address",
          "name": "account",
          "type": "address"
        },
        {
          "internalType": "uint256",
          "name": "id",
          "type": "uint256"
        }
      ],
      "name": "balanceOf",
      "outputs": [
        {
          "internalType": "uint256",
          "name": "",
          "type": "uint256"
        }
      ],
      "stateMutability": "view",
      "type": "function"
    },
    {
      "inputs": [
        {
          "internalType": "address[]",
          "name": "accounts",
          "type": "address[]"
        },
        {
          "internalType": "uint256[]",
          "name": "ids",
          "type": "uint256[]"
        }
      ],
      "name": "balanceOfBatch",
      "outputs": [
        {
          "internalType": "uint256[]",
          "name": "",
          "type": "uint256[]"
        }
      ],
      "stateMutability": "view",
      "type": "function"
    },
    {
      "inputs": [
        {
          "internalType": "address",
          "name": "account",
          "type": "address"
        },
        {
          "internalType": "uint256",
          "name": "id",
          "type": "uint256"
        },
        {
          "internalType": "uint256",
          "name": "value",
          "type": "uint256"
        }
      ],
      "name": "burn",
      "outputs": [],
      "stateMutability": "nonpayable",
      "type": "function"
    },
    {
      "inputs": [
        {
          "internalType": "address",
          "name": "account",
          "type": "address"
        },
        {
          "internalType": "uint256[]",
          "name": "ids",
          "type": "uint256[]"
        },
        {
          "internalType": "uint256[]",
          "name": "values",
          "type": "uint256[]"
        }
      ],
      "name": "burnBatch",
      "outputs": [],
      "stateMutability": "nonpayable",
      "type": "function"
    },
    {
      "inputs": [
        {
          "internalType": "uint256",
          "name": "id",
          "type": "uint256"
        },
        {
          "internalType": "string",
          "name": "newURI",
          "type": "string"
        },
        {
          "internalType": "uint256",
          "name": "max",
          "type": "uint256"
        }
      ],
      "name": "configure",
      "outputs": [],
      "stateMutability": "nonpayable",
      "type": "function"
    },
    {
      "inputs": [
        {
          "internalType": "address",
          "name": "maintainer",
          "type": "address"
        }
      ],
      "name": "create",
      "outputs": [
        {
          "internalType": "uint256",
          "name": "id",
          "type": "uint256"
        }
      ],
      "stateMutability": "nonpayable",
      "type": "function"
    },
    {
      "inputs": [],
      "name": "create",
      "outputs": [
        {
          "internalType": "uint256",
          "name": "id",
          "type": "uint256"
        }
      ],
      "stateMutability": "nonpayable",
      "type": "function"
    },
    {
      "inputs": [
        {
          "internalType": "uint256",
          "name": "id",
          "type": "uint256"
        }
      ],
      "name": "exists",
      "outputs": [
        {
          "internalType": "bool",
          "name": "",
          "type": "bool"
        }
      ],
      "stateMutability": "view",
      "type": "function"
    },
    {
      "inputs": [
        {
          "internalType": "enum BulkDisbursableNFTs.Role",
          "name": "role",
          "type": "uint8"
        },
        {
          "internalType": "address",
          "name": "user",
          "type": "address"
        }
      ],
      "name": "grantRole",
      "outputs": [],
      "stateMutability": "nonpayable",
      "type": "function"
    },
    {
      "inputs": [
        {
          "internalType": "enum BulkDisbursableNFTs.Role",
          "name": "role",
          "type": "uint8"
        },
        {
          "internalType": "address",
          "name": "user",
          "type": "address"
        },
        {
          "internalType": "uint256",
          "name": "id",
          "type": "uint256"
        }
      ],
      "name": "grantRole",
      "outputs": [],
      "stateMutability": "nonpayable",
      "type": "function"
    },
    {
      "inputs": [
        {
          "internalType": "enum BulkDisbursableNFTs.Role",
          "name": "role",
          "type": "uint8"
        }
      ],
      "name": "hasRole",
      "outputs": [
        {
          "internalType": "bool",
          "name": "has",
          "type": "bool"
        }
      ],
      "stateMutability": "view",
      "type": "function"
    },
    {
      "inputs": [
        {
          "internalType": "enum BulkDisbursableNFTs.Role",
          "name": "role",
          "type": "uint8"
        },
        {
          "internalType": "address",
          "name": "user",
          "type": "address"
        },
        {
          "internalType": "uint256",
          "name": "id",
          "type": "uint256"
        }
      ],
      "name": "hasRole",
      "outputs": [
        {
          "internalType": "bool",
          "name": "has",
          "type": "bool"
        }
      ],
      "stateMutability": "view",
      "type": "function"
    },
    {
      "inputs": [
        {
          "internalType": "enum BulkDisbursableNFTs.Role",
          "name": "role",
          "type": "uint8"
        },
        {
          "internalType": "uint256",
          "name": "id",
          "type": "uint256"
        }
      ],
      "name": "hasRole",
      "outputs": [
        {
          "internalType": "bool",
          "name": "has",
          "type": "bool"
        }
      ],
      "stateMutability": "view",
      "type": "function"
    },
    {
      "inputs": [
        {
          "internalType": "enum BulkDisbursableNFTs.Role",
          "name": "role",
          "type": "uint8"
        },
        {
          "internalType": "address",
          "name": "user",
          "type": "address"
        }
      ],
      "name": "hasRole",
      "outputs": [
        {
          "internalType": "bool",
          "name": "has",
          "type": "bool"
        }
      ],
      "stateMutability": "view",
      "type": "function"
    },
    {
      "inputs": [
        {
          "internalType": "string",
          "name": "_name",
          "type": "string"
        },
        {
          "internalType": "string",
          "name": "_symbol",
          "type": "string"
        }
      ],
      "name": "initialize",
      "outputs": [],
      "stateMutability": "nonpayable",
      "type": "function"
    },
    {
      "inputs": [
        {
          "internalType": "address",
          "name": "account",
          "type": "address"
        },
        {
          "internalType": "address",
          "name": "operator",
          "type": "address"
        }
      ],
      "name": "isApprovedForAll",
      "outputs": [
        {
          "internalType": "bool",
          "name": "",
          "type": "bool"
        }
      ],
      "stateMutability": "view",
      "type": "function"
    },
    {
      "inputs": [
        {
          "internalType": "address",
          "name": "user",
          "type": "address"
        }
      ],
      "name": "isSuper",
      "outputs": [
        {
          "internalType": "bool",
          "name": "superuser",
          "type": "bool"
        }
      ],
      "stateMutability": "view",
      "type": "function"
    },
    {
      "inputs": [],
      "name": "isSuper",
      "outputs": [
        {
          "internalType": "bool",
          "name": "superuser",
          "type": "bool"
        }
      ],
      "stateMutability": "view",
      "type": "function"
    },
    {
      "inputs": [
        {
          "internalType": "address[]",
          "name": "to",
          "type": "address[]"
        },
        {
          "internalType": "uint256",
          "name": "id",
          "type": "uint256"
        },
        {
          "internalType": "bytes",
          "name": "data",
          "type": "bytes"
        }
      ],
      "name": "mint",
      "outputs": [],
      "stateMutability": "nonpayable",
      "type": "function"
    },
    {
      "inputs": [
        {
          "internalType": "address",
          "name": "recipient",
          "type": "address"
        },
        {
          "internalType": "uint256",
          "name": "id",
          "type": "uint256"
        },
        {
          "internalType": "uint256",
          "name": "amount",
          "type": "uint256"
        },
        {
          "internalType": "bytes",
          "name": "data",
          "type": "bytes"
        }
      ],
      "name": "mint",
      "outputs": [
        {
          "internalType": "bool",
          "name": "minted",
          "type": "bool"
        }
      ],
      "stateMutability": "nonpayable",
      "type": "function"
    },
    {
      "inputs": [],
      "name": "name",
      "outputs": [
        {
          "internalType": "string",
          "name": "",
          "type": "string"
        }
      ],
      "stateMutability": "view",
      "type": "function"
    },
    {
      "inputs": [],
      "name": "owner",
      "outputs": [
        {
          "internalType": "address",
          "name": "",
          "type": "address"
        }
      ],
      "stateMutability": "view",
      "type": "function"
    },
    {
      "inputs": [],
      "name": "proxiableUUID",
      "outputs": [
        {
          "internalType": "bytes32",
          "name": "",
          "type": "bytes32"
        }
      ],
      "stateMutability": "view",
      "type": "function"
    },
    {
      "inputs": [],
      "name": "renounceOwnership",
      "outputs": [],
      "stateMutability": "nonpayable",
      "type": "function"
    },
    {
      "inputs": [
        {
          "internalType": "enum BulkDisbursableNFTs.Role",
          "name": "role",
          "type": "uint8"
        }
      ],
      "name": "roleToken",
      "outputs": [
        {
          "internalType": "uint256",
          "name": "tokenId",
          "type": "uint256"
        }
      ],
      "stateMutability": "view",
      "type": "function"
    },
    {
      "inputs": [
        {
          "internalType": "enum BulkDisbursableNFTs.Role",
          "name": "role",
          "type": "uint8"
        },
        {
          "internalType": "uint256",
          "name": "id",
          "type": "uint256"
        }
      ],
      "name": "roleToken",
      "outputs": [
        {
          "internalType": "uint256",
          "name": "tokenId",
          "type": "uint256"
        }
      ],
      "stateMutability": "view",
      "type": "function"
    },
    {
      "inputs": [
        {
          "internalType": "string",
          "name": "roleName",
          "type": "string"
        }
      ],
      "name": "roleValueForName",
      "outputs": [
        {
          "internalType": "enum BulkDisbursableNFTs.Role",
          "name": "role",
          "type": "uint8"
        }
      ],
      "stateMutability": "pure",
      "type": "function"
    },
    {
      "inputs": [
        {
          "internalType": "address",
          "name": "from",
          "type": "address"
        },
        {
          "internalType": "address",
          "name": "to",
          "type": "address"
        },
        {
          "internalType": "uint256[]",
          "name": "ids",
          "type": "uint256[]"
        },
        {
          "internalType": "uint256[]",
          "name": "amounts",
          "type": "uint256[]"
        },
        {
          "internalType": "bytes",
          "name": "data",
          "type": "bytes"
        }
      ],
      "name": "safeBatchTransferFrom",
      "outputs": [],
      "stateMutability": "nonpayable",
      "type": "function"
    },
    {
      "inputs": [
        {
          "internalType": "address",
          "name": "from",
          "type": "address"
        },
        {
          "internalType": "address",
          "name": "to",
          "type": "address"
        },
        {
          "internalType": "uint256",
          "name": "id",
          "type": "uint256"
        },
        {
          "internalType": "uint256",
          "name": "amount",
          "type": "uint256"
        },
        {
          "internalType": "bytes",
          "name": "data",
          "type": "bytes"
        }
      ],
      "name": "safeTransferFrom",
      "outputs": [],
      "stateMutability": "nonpayable",
      "type": "function"
    },
    {
      "inputs": [
        {
          "internalType": "address",
          "name": "operator",
          "type": "address"
        },
        {
          "internalType": "bool",
          "name": "approved",
          "type": "bool"
        }
      ],
      "name": "setApprovalForAll",
      "outputs": [],
      "stateMutability": "nonpayable",
      "type": "function"
    },
    {
      "inputs": [
        {
          "internalType": "string",
          "name": "_name",
          "type": "string"
        },
        {
          "internalType": "string",
          "name": "_symbol",
          "type": "string"
        }
      ],
      "name": "setDescription",
      "outputs": [],
      "stateMutability": "nonpayable",
      "type": "function"
    },
    {
      "inputs": [
        {
          "internalType": "uint256",
          "name": "id",
          "type": "uint256"
        },
        {
          "internalType": "uint256",
          "name": "max",
          "type": "uint256"
        }
      ],
      "name": "setMax",
      "outputs": [],
      "stateMutability": "nonpayable",
      "type": "function"
    },
    {
      "inputs": [
        {
          "internalType": "uint256",
          "name": "id",
          "type": "uint256"
        },
        {
          "internalType": "string",
          "name": "newURI",
          "type": "string"
        }
      ],
      "name": "setURI",
      "outputs": [],
      "stateMutability": "nonpayable",
      "type": "function"
    },
    {
      "inputs": [
        {
          "internalType": "bytes4",
          "name": "interfaceId",
          "type": "bytes4"
        }
      ],
      "name": "supportsInterface",
      "outputs": [
        {
          "internalType": "bool",
          "name": "",
          "type": "bool"
        }
      ],
      "stateMutability": "view",
      "type": "function"
    },
    {
      "inputs": [],
      "name": "symbol",
      "outputs": [
        {
          "internalType": "string",
          "name": "",
          "type": "string"
        }
      ],
      "stateMutability": "view",
      "type": "function"
    },
    {
      "inputs": [
        {
          "internalType": "uint256",
          "name": "index",
          "type": "uint256"
        }
      ],
      "name": "tokenByIndex",
      "outputs": [
        {
          "internalType": "uint256",
          "name": "id",
          "type": "uint256"
        }
      ],
      "stateMutability": "view",
      "type": "function"
    },
    {
      "inputs": [
        {
          "internalType": "uint256",
          "name": "id",
          "type": "uint256"
        }
      ],
      "name": "tokenIndex",
      "outputs": [
        {
          "internalType": "uint256",
          "name": "index",
          "type": "uint256"
        }
      ],
      "stateMutability": "view",
      "type": "function"
    },
    {
      "inputs": [
        {
          "internalType": "address",
          "name": "owner",
          "type": "address"
        },
        {
          "internalType": "uint256",
          "name": "index",
          "type": "uint256"
        }
      ],
      "name": "tokenOfOwnerByIndex",
      "outputs": [
        {
          "internalType": "uint256",
          "name": "",
          "type": "uint256"
        }
      ],
      "stateMutability": "view",
      "type": "function"
    },
    {
      "inputs": [
        {
          "internalType": "uint256",
          "name": "id",
          "type": "uint256"
        }
      ],
      "name": "totalSupply",
      "outputs": [
        {
          "internalType": "uint256",
          "name": "",
          "type": "uint256"
        }
      ],
      "stateMutability": "view",
      "type": "function"
    },
    {
      "inputs": [
        {
          "internalType": "address",
          "name": "newOwner",
          "type": "address"
        }
      ],
      "name": "transferOwnership",
      "outputs": [],
      "stateMutability": "nonpayable",
      "type": "function"
    },
    {
      "inputs": [],
      "name": "typeSupply",
      "outputs": [
        {
          "internalType": "uint256",
          "name": "count",
          "type": "uint256"
        }
      ],
      "stateMutability": "view",
      "type": "function"
    },
    {
      "inputs": [
        {
          "internalType": "address",
          "name": "newImplementation",
          "type": "address"
        }
      ],
      "name": "upgradeTo",
      "outputs": [],
      "stateMutability": "nonpayable",
      "type": "function"
    },
    {
      "inputs": [
        {
          "internalType": "address",
          "name": "newImplementation",
          "type": "address"
        },
        {
          "internalType": "bytes",
          "name": "data",
          "type": "bytes"
        }
      ],
      "name": "upgradeToAndCall",
      "outputs": [],
      "stateMutability": "payable",
      "type": "function"
    },
    {
      "inputs": [
        {
          "internalType": "uint256",
          "name": "id",
          "type": "uint256"
        }
      ],
      "name": "uri",
      "outputs": [
        {
          "internalType": "string",
          "name": "metadata",
          "type": "string"
        }
      ],
      "stateMutability": "view",
      "type": "function"
    }
  ],
  "bytecode": "0x60a06040523060601b6080523480156200001857600080fd5b50600054610100900460ff16620000365760005460ff161562000040565b62000040620000e5565b620000a85760405162461bcd60e51b815260206004820152602e60248201527f496e697469616c697a61626c653a20636f6e747261637420697320616c72656160448201526d191e481a5b9a5d1a585b1a5e995960921b606482015260840160405180910390fd5b600054610100900460ff16158015620000cb576000805461ffff19166101011790555b8015620000de576000805461ff00191690555b5062000112565b6000620000fd306200010360201b620030891760201c565b15905090565b6001600160a01b03163b151590565b60805160601c615dec6200014d6000396000818161193501528181611975015281816124560152818161249601526125bd0152615dec6000f3fe6080604052600436106105585760003560e01c80636b20c454116102bd578063aae5270f11610180578063dbd406e8116100e7578063f242432a116100a0578063f449d92f1161007a578063f449d92f14610eff578063f5298aca14610f14578063f73a731114610f34578063f8418ef314610f4957600080fd5b8063f242432a14610eaa578063f28a726d14610eca578063f2fde38b14610edf57600080fd5b8063dbd406e814610df8578063e5587f7a14610e0d578063e864109214610e22578063e985e9c514610e37578063edc79bac14610e80578063efc81a8c14610e9557600080fd5b8063c3c8df9911610139578063c3c8df9914610d84578063c5a0d9b214610776578063d3e62b0914610da4578063d701765014610db9578063d7fcc11314610dce578063db58fe9514610de357600080fd5b8063aae5270f14610d03578063aaeec72d14610d18578063b8785f8a14610c84578063ba952df114610d2d578063baf42f9314610d42578063bd85b03914610d5757600080fd5b806395d89b41116102245780639ed93318116101dd5780639ed9331814610c645780639f31459a14610c84578063a22cb46514610c99578063a8410bc114610cb9578063a9c906ae14610cce578063aa8e906614610ce357600080fd5b806395d89b4114610bcf5780639c37625c14610be45780639d6d7eaa14610bf95780639d969a9c14610c195780639e97b8f614610c2f5780639eb3f24314610c4f57600080fd5b806384bb0fe61161027657806384bb0fe614610b48578063862440e214610b5d578063891fbef0146108695780638da5cb5b14610b7d57806392e4267b14610ba5578063957dc9a014610bba57600080fd5b80636b20c45414610ab45780636fa09a7914610ad4578063715018a614610ae9578063731133e914610afe5780637e8ceec714610b1e57806383e5b21a14610b3357600080fd5b80633adbbbc1116104205780634f06c0fb1161038757806352d1902d116103405780635e2a33861161031a5780635e2a338614610a55578063666e6fd514610a6a578063669d5bfa14610a7f5780636755d45614610a9457600080fd5b806352d1902d14610a0b5780635523766114610a205780635d5664e114610a3557600080fd5b80634f06c0fb1461096a5780634f1ef2861461097f5780634f558e79146109925780634f6ccce7146109c15780635157b563146109e157806351d29425146109f657600080fd5b80634468031f116103d95780634468031f146108b357806344cca2df146108d357806348289589146108e85780634cd88b76146109085780634ce7a244146109285780634e1273f41461093d57600080fd5b80633adbbbc11461081f5780633b60bd01146108345780633b91ceef146108495780633c176d9f146108695780633dbe35de1461087e5780633f79f1a41461089e57600080fd5b806318ae2375116104c45780632f745c591161047d5780632f745c591461078b57806330c9cf93146107ab57806334628c1f146107c057806335ab8629146107d55780633659cfe6146107ea57806339054c231461080a57600080fd5b806318ae2375146106df57806319e0755c146106f45780631c45349c146107145780632a7ccf13146107295780632eb2c2d6146107565780632ed58d811461077657600080fd5b80630e89341c116105165780630e89341c1461063e5780630ec0370f1461065e5780630f94cc501461068057806311bb8afd1461069557806313affe4f146106aa57806314c46427146106bf57600080fd5b8062fdd58e1461055d57806301ffc9a7146105905780630583e9f8146105c0578063067ff866146105e057806306fdde03146106075780630daec9e414610629575b600080fd5b34801561056957600080fd5b5061057d610578366004615175565b610f5e565b6040519081526020015b60405180910390f35b34801561059c57600080fd5b506105b06105ab3660046152fb565b610ffa565b6040519015158152602001610587565b3480156105cc57600080fd5b5061057d6105db36600461546b565b61104a565b3480156105ec57600080fd5b506105f56110b3565b60405160ff9091168152602001610587565b34801561061357600080fd5b5061061c6110cf565b60405161058791906156f1565b34801561063557600080fd5b5061057d61115e565b34801561064a57600080fd5b5061061c61065936600461546b565b611176565b34801561066a57600080fd5b5061067e610679366004615284565b6113b2565b005b34801561068c57600080fd5b5061057d611409565b3480156106a157600080fd5b506105f5602a81565b3480156106b657600080fd5b5061057d611442565b3480156106cb57600080fd5b5061057d6106da366004615333565b611459565b3480156106eb57600080fd5b506105f5611466565b34801561070057600080fd5b506105b061070f366004615333565b611481565b34801561072057600080fd5b5061057d61148d565b34801561073557600080fd5b50610749610744366004615426565b6114b0565b604051610587919061569a565b34801561076257600080fd5b5061067e610771366004614f79565b6117bd565b34801561078257600080fd5b506105f5600381565b34801561079757600080fd5b5061057d6107a6366004615175565b611854565b3480156107b757600080fd5b5061057d6118d8565b3480156107cc57600080fd5b5061057d6118fb565b3480156107e157600080fd5b5061057d611912565b3480156107f657600080fd5b5061067e610805366004614f2d565b61192a565b34801561081657600080fd5b5061057d611a0a565b34801561082b57600080fd5b5061057d611a44565b34801561084057600080fd5b506105f5600d81565b34801561085557600080fd5b5061067e61086436600461551c565b611a67565b34801561087557600080fd5b506105f5600881565b34801561088a57600080fd5b5061057d6108993660046153a3565b611aea565b3480156108aa57600080fd5b5061057d611da7565b3480156108bf57600080fd5b506105b06108ce366004615368565b611db6565b3480156108df57600080fd5b506105f5612154565b3480156108f457600080fd5b506105b06109033660046153a3565b612170565b34801561091457600080fd5b5061067e6109233660046153be565b61217d565b34801561093457600080fd5b5061057d6122a3565b34801561094957600080fd5b5061095d61095836600461522e565b6122d2565b6040516105879190615662565b34801561097657600080fd5b5061057d612433565b61067e61098d36600461512a565b61244b565b34801561099e57600080fd5b506105b06109ad36600461546b565b600090815260fb6020526040902054151590565b3480156109cd57600080fd5b5061057d6109dc36600461546b565b612518565b3480156109ed57600080fd5b5061057d612572565b348015610a0257600080fd5b5061057d6125a1565b348015610a1757600080fd5b5061057d6125b0565b348015610a2c57600080fd5b5061057d612664565b348015610a4157600080fd5b5061067e610a5036600461534d565b61268a565b348015610a6157600080fd5b5061057d612696565b348015610a7657600080fd5b5061057d6126ae565b348015610a8b57600080fd5b5061057d6126bd565b348015610aa057600080fd5b5061067e610aaf3660046153be565b6126fa565b348015610ac057600080fd5b5061067e610acf366004615080565b61273f565b348015610ae057600080fd5b5061057d612787565b348015610af557600080fd5b5061067e612798565b348015610b0a57600080fd5b506105b0610b193660046151d0565b6127ce565b348015610b2a57600080fd5b5061057d6129d6565b348015610b3f57600080fd5b5061057d6129ee565b348015610b5457600080fd5b5061057d612a11565b348015610b6957600080fd5b5061067e610b78366004615483565b612a52565b348015610b8957600080fd5b506097546040516001600160a01b039091168152602001610587565b348015610bb157600080fd5b5061057d612b2e565b348015610bc657600080fd5b5061057d612b3f565b348015610bdb57600080fd5b5061061c612b67565b348015610bf057600080fd5b506105f5612b75565b348015610c0557600080fd5b5061067e610c143660046154cc565b612ba9565b348015610c2557600080fd5b506101945461057d565b348015610c3b57600080fd5b506105b0610c4a36600461534d565b612bbe565b348015610c5b57600080fd5b5061057d612bcc565b348015610c7057600080fd5b5061057d610c7f366004614f2d565b612bd9565b348015610c9057600080fd5b506105f5600181565b348015610ca557600080fd5b5061067e610cb43660046150f0565b612d3b565b348015610cc557600080fd5b5061057d612d46565b348015610cda57600080fd5b5061057d612d53565b348015610cef57600080fd5b5061067e610cfe366004615368565b612d60565b348015610d0f57600080fd5b5061057d612d6d565b348015610d2457600080fd5b5061057d612d95565b348015610d3957600080fd5b506105f5612db1565b348015610d4e57600080fd5b5061057d612dc6565b348015610d6357600080fd5b5061057d610d7236600461546b565b600090815260fb602052604090205490565b348015610d9057600080fd5b506105b0610d9f366004614f2d565b612de9565b348015610db057600080fd5b5061057d612e11565b348015610dc557600080fd5b5061057d612e5d565b348015610dda57600080fd5b5061057d612e6a565b348015610def57600080fd5b5061057d612e88565b348015610e0457600080fd5b5061057d612ea0565b348015610e1957600080fd5b506105f5612eb7565b348015610e2e57600080fd5b5061057d612ecb565b348015610e4357600080fd5b506105b0610e52366004614f47565b6001600160a01b03918216600090815260666020908152604080832093909416825291909152205460ff1690565b348015610e8c57600080fd5b506105b0612eee565b348015610ea157600080fd5b5061057d612efe565b348015610eb657600080fd5b5061067e610ec536600461501e565b612f09565b348015610ed657600080fd5b5061057d612f4e565b348015610eeb57600080fd5b5061067e610efa366004614f2d565b612f60565b348015610f0b57600080fd5b5061057d612ff8565b348015610f2057600080fd5b5061067e610f2f36600461519e565b613022565b348015610f4057600080fd5b506105f5613065565b348015610f5557600080fd5b5061057d613072565b60006001600160a01b038316610fcf5760405162461bcd60e51b815260206004820152602b60248201527f455243313135353a2062616c616e636520717565727920666f7220746865207a60448201526a65726f206164647265737360a81b60648201526084015b60405180910390fd5b5060008181526065602090815260408083206001600160a01b03861684529091529020545b92915050565b60006001600160e01b03198216636cdb3d1360e11b148061102b57506001600160e01b031982166303a24d0760e21b145b80610ff457506301ffc9a760e01b6001600160e01b0319831614610ff4565b6000818152610195602052604081205480610ff45760405162461bcd60e51b815260206004820152602360248201527f5468652072657175657374656420746f6b656e20646f6573206e6f742065786960448201526239ba1760e91b6064820152608401610fc6565b60086110c2600d610100615b82565b6110cc9190615bbc565b81565b61019180546110dd90615c0b565b80601f016020809104026020016040519081016040528092919081815260200182805461110990615c0b565b80156111565780601f1061112b57610100808354040283529160200191611156565b820191906000526020600020905b81548152906001019060200180831161113957829003601f168201915b505050505081565b61116b600d610100615b82565b60ff16610400901b81565b6000818152610193602052604081208054606092919061119590615c0b565b80601f01602080910402602001604051908101604052809291908181526020018280546111c190615c0b565b801561120e5780601f106111e35761010080835404028352916020019161120e565b820191906000526020600020905b8154815290600101906020018083116111f157829003601f168201915b50505050509050805160001415610ff45761122883613098565b611268600861123a600d610100615b82565b6112449190615bbc565b60ff16600161125560086002615ad7565b61125f9190615ba5565b901b8416613098565b611290600861127a600d610100615b82565b6112849190615bbc565b60ff166001901b613098565b600861129f600d610100615b82565b6112a99190615bbc565b600160ff919091161b60086112c1600d610100615b82565b6112cb9190615bbc565b60ff1660016112dc60086002615ad7565b6112e69190615ba5565b901b84161415610ff45760006001611300602a6002615ad7565b61130a9190615ba5565b19841660008181526101936020526040902080549192509061132b90615c0b565b80601f016020809104026020016040519081016040528092919081815260200182805461135790615c0b565b80156113a45780601f10611379576101008083540402835291602001916113a4565b820191906000526020600020905b81548152906001019060200180831161138757829003601f168201915b505050505091505092915050565b60005b8351811015611403576113f28482815181106113e157634e487b7160e01b600052603260045260246000fd5b6020026020010151846001856127ce565b506113fc81615c72565b90506113b5565b50505050565b6008611418600d610100615b82565b6114229190615bbc565b60ff16600161143360086002615ad7565b61143d9190615ba5565b901b81565b61144f600d610100615b82565b60ff166010901b81565b6000610ff4826000611aea565b60036008611477600d610100615b82565b6110c29190615bbc565b6000610ff48233612bbe565b600861149c600d610100615b82565b6114a69190615bbc565b60ff166006901b81565b600080826040516020016114c491906155a3565b6040516020818303038152906040528051906020012090506040516020016114fb906829bab832b93ab9b2b960b91b815260090190565b604051602081830303815290604052805190602001208114156115215750600192915050565b6040516526b4b73a32b960d11b60208201526026016040516020818303038152906040528051906020012081141561155c5750600292915050565b6040516521b0b9ba32b960d11b6020820152602601604051602081830303815290604052805190602001208114156115975750600392915050565b604051692a3930b739b332b932b960b11b6020820152602a01604051602081830303815290604052805190602001208114156115d65750600492915050565b6040516921b7b73334b3bab932b960b11b6020820152602a01604051602081830303815290604052805190602001208114156116155750600592915050565b6040516926b0b4b73a30b4b732b960b11b6020820152602a01604051602081830303815290604052805190602001208114156116545750600692915050565b6040516621b932b0ba37b960c91b6020820152602701604051602081830303815290604052805190602001208114156116905750600792915050565b604051662634b6b4ba32b960c91b6020820152602701604051602081830303815290604052805190602001208114156116cc5750600892915050565b60405165213ab93732b960d11b6020820152602601604051602081830303815290604052805190602001208114156117075750600992915050565b604051682232b9ba3937bcb2b960b91b6020820152602901604051602081830303815290604052805190602001208114156117455750600a92915050565b604051654f7261636c6560d01b6020820152602601604051602081830303815290604052805190602001208114156117805750600b92915050565b60405162461bcd60e51b81526020600482015260126024820152712ab735b737bbb7103937b632903a3cb8329760711b6044820152606401610fc6565b6001600160a01b0385163314806117d957506117d98533610e52565b6118405760405162461bcd60e51b815260206004820152603260248201527f455243313135353a207472616e736665722063616c6c6572206973206e6f74206044820152711bdddb995c881b9bdc88185c1c1c9bdd995960721b6064820152608401610fc6565b61184d85858585856130dd565b5050505050565b6001600160a01b03821660009081526101966020526040812054821061188c5760405162461bcd60e51b8152600401610fc690615978565b6001600160a01b0383166000908152610196602052604090208054839081106118c557634e487b7160e01b600052603260045260246000fd5b9060005260206000200154905092915050565b60086118e7600d610100615b82565b6118f19190615bbc565b60ff166004901b81565b611908600d610100615b82565b60ff166020901b81565b61191f600d610100615b82565b60ff16611000901b81565b306001600160a01b037f00000000000000000000000000000000000000000000000000000000000000001614156119735760405162461bcd60e51b8152600401610fc690615790565b7f00000000000000000000000000000000000000000000000000000000000000006001600160a01b03166119bc600080516020615d70833981519152546001600160a01b031690565b6001600160a01b0316146119e25760405162461bcd60e51b8152600401610fc690615825565b6119eb816132a6565b60408051600080825260208201909252611a0791839190613330565b50565b6003806008611a1c600d610100615b82565b611a269190615bbc565b611a309190615bbc565b611a3a9190615bbc565b60ff166002901b81565b6008611a53600d610100615b82565b611a5d9190615bbc565b60ff166005901b81565b611a72600883612170565b80611a805750611a80612eee565b611ae65760405162461bcd60e51b815260206004820152603160248201527f596f75206d75737420686176652061204c696d6974657220746f6b656e20746f6044820152701031b430b733b29038bab0b73a34ba3c9760791b6064820152608401610fc6565b5050565b6000611af8602a6002615ad7565b8110611b465760405162461bcd60e51b815260206004820152601f60248201527f496e64696365732063616e206265206174206d6f737420343220626974732e006044820152606401610fc6565b611b4f82613098565b611b7783603c811115611b7257634e487b7160e01b600052602160045260246000fd5b613098565b611beb6008600160038083611b8f600d610100615b82565b611b999190615bbc565b611ba39190615bbc565b611bad9190615bbc565b611bb79190615bbc565b611bc19190615bbc565b60ff1684603c811115611be457634e487b7160e01b600052602160045260246000fd5b901b613098565b611c4e600184603c811115611c1057634e487b7160e01b600052602160045260246000fd5b14611c1c576000613098565b60016003806008611c30600d610100615b82565b611c3a9190615bbc565b611c449190615bbc565b61127a9190615bbc565b611c60600861127a600d610100615b82565b611c88604051806040016040528060078152602001662d2d2d2d2d2d2d60c81b8152506134aa565b81600184603c811115611cab57634e487b7160e01b600052602160045260246000fd5b14611cb7576000611d10565b60016003806008611ccb600d610100615b82565b611cd59190615bbc565b611cdf9190615bbc565b611ce99190615bbc565b611cf39190615bbc565b60ff166001611d03816002615ad7565b611d0d9190615ba5565b901b5b6008600160038083611d25600d610100615b82565b611d2f9190615bbc565b611d399190615bbc565b611d439190615bbc565b611d4d9190615bbc565b611d579190615bbc565b60ff1685603c811115611d7a57634e487b7160e01b600052602160045260246000fd5b901b6008611d8b600d610100615b82565b611d959190615bbc565b60ff166001901b171717905092915050565b6008611a30600d610100615b82565b600080611dc285611459565b9050611dcd846134ed565b611df885603c811115611df057634e487b7160e01b600052602160045260246000fd5b60ff16613098565b611e026004611df0565b611e39604051806040016040528060168152602001752d2d3d3d2d2d3d3d2d2d3d3d2d2d3d3d2d2d3d3d2d2d60501b8152506134aa565b6000611e458583610f5e565b1180611e5c57506000611e5a85858417610f5e565b115b80611ea857506000611ea6856003806008611e7a600d610100615b82565b611e849190615bbc565b611e8e9190615bbc565b611e989190615bbc565b60ff166001901b8417610f5e565b115b80611ef657506000611ef485856003806008611ec7600d610100615b82565b611ed19190615bbc565b611edb9190615bbc565b611ee59190615bbc565b60ff166001901b851717610f5e565b115b80611f7957506000611f7785600160088160038083611f18600d610100615b82565b611f229190615bbc565b611f2c9190615bbc565b611f369190615bbc565b611f409190615bbc565b611f4a9190615bbc565b611f549190615bbc565b60ff166001611f64816002615ad7565b611f6e9190615ba5565b901b8417610f5e565b115b80611ffe57506000611ffc8585600160088160038083611f9c600d610100615b82565b611fa69190615bbc565b611fb09190615bbc565b611fba9190615bbc565b611fc49190615bbc565b611fce9190615bbc565b611fd89190615bbc565b60ff166001611fe8816002615ad7565b611ff29190615ba5565b901b851717610f5e565b115b8061208c5750600061208a85600160088160038083612020600d610100615b82565b61202a9190615bbc565b6120349190615bbc565b61203e9190615bbc565b6120489190615bbc565b6120529190615bbc565b61205c9190615bbc565b60ff16600161206c816002615ad7565b6120769190615ba5565b901b6003806008611ec7600d610100615b82565b115b806121495750600061214785856001600881600380836120af600d610100615b82565b6120b99190615bbc565b6120c39190615bbc565b6120cd9190615bbc565b6120d79190615bbc565b6120e19190615bbc565b6120eb9190615bbc565b60ff1660016120fb816002615ad7565b6121059190615ba5565b901b6003806008612119600d610100615b82565b6121239190615bbc565b61212d9190615bbc565b6121379190615bbc565b60ff166001901b86171717610f5e565b115b9150505b9392505050565b6003806008612166600d610100615b82565b6114779190615bbc565b600061214d833384611db6565b600054610100900460ff166121985760005460ff161561219c565b303b155b6121ff5760405162461bcd60e51b815260206004820152602e60248201527f496e697469616c697a61626c653a20636f6e747261637420697320616c72656160448201526d191e481a5b9a5d1a585b1a5e995960921b6064820152608401610fc6565b600054610100900460ff16158015612221576000805461ffff19166101011790555b612229613535565b6122676040518060400160405280602081526020017f4572726f723a2053696e676c6520546f6b656e20555249204e6f742055736564815250613564565b61226f613594565b612277613594565b61227f613594565b61228b858585856126fa565b801561184d576000805461ff00191690555050505050565b600360086122b4600d610100615b82565b6122be9190615bbc565b6122c89190615bbc565b60ff166003901b81565b606081518351146123375760405162461bcd60e51b815260206004820152602960248201527f455243313135353a206163636f756e747320616e6420696473206c656e677468604482015268040dad2e6dac2e8c6d60bb1b6064820152608401610fc6565b600083516001600160401b0381111561236057634e487b7160e01b600052604160045260246000fd5b604051908082528060200260200182016040528015612389578160200160208202803683370190505b50905060005b845181101561242b576123f08582815181106123bb57634e487b7160e01b600052603260045260246000fd5b60200260200101518583815181106123e357634e487b7160e01b600052603260045260246000fd5b6020026020010151610f5e565b82828151811061241057634e487b7160e01b600052603260045260246000fd5b602090810291909101015261242481615c72565b905061238f565b509392505050565b612440600d610100615b82565b60ff16610800901b81565b306001600160a01b037f00000000000000000000000000000000000000000000000000000000000000001614156124945760405162461bcd60e51b8152600401610fc690615790565b7f00000000000000000000000000000000000000000000000000000000000000006001600160a01b03166124dd600080516020615d70833981519152546001600160a01b031690565b6001600160a01b0316146125035760405162461bcd60e51b8152600401610fc690615825565b61250c826132a6565b611ae682826001613330565b61019454600090821061253d5760405162461bcd60e51b8152600401610fc690615978565b61019480548390811061256057634e487b7160e01b600052603260045260246000fd5b90600052602060002001549050919050565b60036008612583600d610100615b82565b61258d9190615bbc565b6125979190615bbc565b60ff166001901b81565b600861258d600d610100615b82565b6000306001600160a01b037f000000000000000000000000000000000000000000000000000000000000000016146126505760405162461bcd60e51b815260206004820152603860248201527f555550535570677261646561626c653a206d757374206e6f742062652063616c60448201527f6c6564207468726f7567682064656c656761746563616c6c00000000000000006064820152608401610fc6565b50600080516020615d708339815191525b90565b6003806008612676600d610100615b82565b6126809190615bbc565b6118e79190615bbc565b611ae682826000612d60565b6126a3600d610100615b82565b60ff16610100901b81565b60086122be600d610100615b82565b60086001600380836126d2600d610100615b82565b6126dc9190615bbc565b6126e69190615bbc565b6126f09190615bbc565b6114189190615bbc565b6097546001600160a01b031633146127245760405162461bcd60e51b8152600401610fc690615943565b6127316101918585614c51565b5061184d6101928383614c51565b6001600160a01b03831633148061275b575061275b8333610e52565b6127775760405162461bcd60e51b8152600401610fc6906157dc565b6127828383836135bb565b505050565b60036008611a26600d610100615b82565b6097546001600160a01b031633146127c25760405162461bcd60e51b8152600401610fc690615943565b6127cc6000613768565b565b60006001600881600380836127e6600d610100615b82565b6127f09190615bbc565b6127fa9190615bbc565b6128049190615bbc565b61280e9190615bbc565b6128189190615bbc565b6128229190615bbc565b60ff166001612832816002615ad7565b61283c9190615ba5565b901b600160088160038083612854600d610100615b82565b61285e9190615bbc565b6128689190615bbc565b6128729190615bbc565b61287c9190615bbc565b6128869190615bbc565b6128909190615bbc565b60ff1660016128a0816002615ad7565b6128aa9190615ba5565b901b8516141561290e5760405162461bcd60e51b815260206004820152602960248201527f43616e6e6f74206d696e7420696e7465726e616c20746f6b656e732066726f6d6044820152681037baba39b4b2329760b91b6064820152608401610fc6565b60016003806008612922600d610100615b82565b61292c9190615bbc565b6129369190615bbc565b6129409190615bbc565b61294a9190615bbc565b60ff166001901b60016003806008600d60ff1661010061296a9190615b82565b6129749190615bbc565b61297e9190615bbc565b6129889190615bbc565b6129929190615bbc565b60ff166001901b85161480156129b1575060006129af8686610f5e565b115b156129be575060006129ce565b6129ca858585856137ba565b5060015b949350505050565b60016129e4602a6002615ad7565b6110cc9190615ba5565b60086129fd600d610100615b82565b612a079190615bbc565b60ff166008901b81565b6003806008612a23600d610100615b82565b612a2d9190615bbc565b612a379190615bbc565b612a419190615bbc565b60ff16600161143360036002615ad7565b612a5d600584612170565b80612a6b5750612a6b612eee565b612ad45760405162461bcd60e51b815260206004820152603460248201527f596f75206d7573742068617665206120436f6e6669677572657220746f6b656e604482015273103a379031b430b733b29036b2ba30b230ba309760611b6064820152608401610fc6565b600083815261019360205260409020612aee908383614c51565b50827f6bb7ff708619ba0610cba295a58592e0451dee2622938c8755667688daf3529b8383604051612b219291906156c2565b60405180910390a2505050565b60036008612a2d600d610100615b82565b6008612b4e600d610100615b82565b612b589190615bbc565b60ff1661143d60086002615ad7565b61019280546110dd90615c0b565b600160088160038083612b8b600d610100615b82565b612b959190615bbc565b612b9f9190615bbc565b6121669190615bbc565b612bb4848484612a52565b6114038482611a67565b600061214d83836000611db6565b6118f1600d610100615b82565b610194546000908190612bed906001615a7c565b6008612bfc600d610100615b82565b612c069190615bbc565b60ff166009901b179050612c1b600782612170565b80612c295750612c29612eee565b612c915760405162461bcd60e51b815260206004820152603360248201527f596f75206d757374206861766520612043726561746f7220746f6b656e20746f6044820152721031b932b0ba32903732bb903a37b5b2b7399760691b6064820152608401610fc6565b6101948054600181810183556000929092527fa6f1ac7ad7b125ba5a5e1c96b00ad6914f90a503b1ac3d85a9dadbb4c639df9201829055612cd890600290859084906138cc565b612ce66005848360016138cc565b612cf46008848360016138cc565b604080518281526001600160a01b03851660208201527f7757890bcab34d673dfca6b71df1b57f75a2fe4231d6e8de726caf534ab1fdd6910160405180910390a192915050565b611ae6338383613a87565b611a3a600d610100615b82565b612a07600d610100615b82565b61278283838360006138cc565b60016003806008612d81600d610100615b82565b612d8b9190615bbc565b6125839190615bbc565b6003806008612da7600d610100615b82565b6122b49190615bbc565b6008600160038083612b95600d610100615b82565b6008612dd5600d610100615b82565b612ddf9190615bbc565b60ff166007901b81565b6000612df6600183612bbe565b80610ff45750506097546001600160a01b0391821691161490565b60016003806008612e25600d610100615b82565b612e2f9190615bbc565b612e399190615bbc565b612e439190615bbc565b612e4d9190615bbc565b60ff166001611433816002615ad7565b612597600d610100615b82565b612e77600d610100615b82565b60ff166001611433600d6002615ad7565b612e95600d610100615b82565b60ff16610200901b81565b612ead600d610100615b82565b60ff166040901b81565b60016003806008612b9f600d610100615b82565b6008612eda600d610100615b82565b612ee49190615bbc565b60ff166009901b81565b6000612ef933612de9565b905090565b6000612ef933612bd9565b6001600160a01b038516331480612f255750612f258533610e52565b612f415760405162461bcd60e51b8152600401610fc6906157dc565b61184d8585858585613b68565b6003806008612d8b600d610100615b82565b6097546001600160a01b03163314612f8a5760405162461bcd60e51b8152600401610fc690615943565b6001600160a01b038116612fef5760405162461bcd60e51b815260206004820152602660248201527f4f776e61626c653a206e6577206f776e657220697320746865207a65726f206160448201526564647265737360d01b6064820152608401610fc6565b611a0781613768565b60016008816003808361300e600d610100615b82565b6130189190615bbc565b612e259190615bbc565b6001600160a01b03831633148061303e575061303e8333610e52565b61305a5760405162461bcd60e51b8152600401610fc6906157dc565b612782838383613c89565b6110cc600d610100615b82565b61307f600d610100615b82565b60ff166080901b81565b6001600160a01b03163b151590565b611a07816040516024016130ae91815260200190565b60408051601f198184030181529190526020810180516001600160e01b031663f5b1bba960e01b179052613d8e565b81518351146130fe5760405162461bcd60e51b8152600401610fc690615a11565b6001600160a01b0384166131245760405162461bcd60e51b8152600401610fc690615871565b33613133818787878787613daf565b60005b845181101561323857600085828151811061316157634e487b7160e01b600052603260045260246000fd5b60200260200101519050600085838151811061318d57634e487b7160e01b600052603260045260246000fd5b60209081029190910181015160008481526065835260408082206001600160a01b038e1683529093529190912054909150818110156131de5760405162461bcd60e51b8152600401610fc6906158f9565b60008381526065602090815260408083206001600160a01b038e8116855292528083208585039055908b1682528120805484929061321d908490615a7c565b925050819055505050508061323190615c72565b9050613136565b50846001600160a01b0316866001600160a01b0316826001600160a01b03167f4a39dc06d4c0dbc64b70af90fd698a233a518aa5d07e595d983b8c0526c8f7fb8787604051613288929190615675565b60405180910390a461329e8187878787876145de565b505050505050565b6132b06006611481565b806132be57506132be612eee565b611a075760405162461bcd60e51b815260206004820152603960248201527f596f75206d75737420686176652061204d61696e7461696e657220746f6b656e60448201527f20746f20757067726164652074686520636f6e74726163742e000000000000006064820152608401610fc6565b7f4910fdfa16fed3260ed0e7147f7cc6da11a60208b5b9406d12a635614ffd91435460ff16156133635761278283614749565b826001600160a01b03166352d1902d6040518163ffffffff1660e01b815260040160206040518083038186803b15801561339c57600080fd5b505afa9250505080156133cc575060408051601f3d908101601f191682019092526133c9918101906152e3565b60015b61342f5760405162461bcd60e51b815260206004820152602e60248201527f45524331393637557067726164653a206e657720696d706c656d656e7461746960448201526d6f6e206973206e6f74205555505360901b6064820152608401610fc6565b600080516020615d70833981519152811461349e5760405162461bcd60e51b815260206004820152602960248201527f45524331393637557067726164653a20756e737570706f727465642070726f786044820152681a58589b195555525160ba1b6064820152608401610fc6565b506127828383836147e5565b611a07816040516024016134be91906156f1565b60408051601f198184030181529190526020810180516001600160e01b031663104c13eb60e21b179052613d8e565b6040516001600160a01b0382166024820152611a079060440160408051601f198184030181529190526020810180516001600160e01b031663161765e160e11b179052613d8e565b600054610100900460ff1661355c5760405162461bcd60e51b8152600401610fc6906159c6565b6127cc61480a565b600054610100900460ff1661358b5760405162461bcd60e51b8152600401610fc6906159c6565b611a078161483a565b600054610100900460ff166127cc5760405162461bcd60e51b8152600401610fc6906159c6565b6001600160a01b0383166135e15760405162461bcd60e51b8152600401610fc6906158b6565b80518251146136025760405162461bcd60e51b8152600401610fc690615a11565b600033905061362581856000868660405180602001604052806000815250613daf565b60005b835181101561370957600084828151811061365357634e487b7160e01b600052603260045260246000fd5b60200260200101519050600084838151811061367f57634e487b7160e01b600052603260045260246000fd5b60209081029190910181015160008481526065835260408082206001600160a01b038c1683529093529190912054909150818110156136d05760405162461bcd60e51b8152600401610fc69061574c565b60009283526065602090815260408085206001600160a01b038b168652909152909220910390558061370181615c72565b915050613628565b5060006001600160a01b0316846001600160a01b0316826001600160a01b03167f4a39dc06d4c0dbc64b70af90fd698a233a518aa5d07e595d983b8c0526c8f7fb868660405161375a929190615675565b60405180910390a450505050565b609780546001600160a01b038381166001600160a01b0319831681179093556040519116919082907f8be0079c531659141344cd1fd0a4f28419497f9722a3daafe3b4186f6b6457e090600090a35050565b6001600160a01b03841661381a5760405162461bcd60e51b815260206004820152602160248201527f455243313135353a206d696e7420746f20746865207a65726f206164647265736044820152607360f81b6064820152608401610fc6565b3361383a8160008761382b8861486a565b6138348861486a565b87613daf565b60008481526065602090815260408083206001600160a01b03891684529091528120805485929061386c908490615a7c565b909155505060408051858152602081018590526001600160a01b0380881692600092918516917fc3d58168c5ae7397731d063d5bbf3d657854427343f4c083240f7aacaa2d0f62910160405180910390a461184d816000878787876148c3565b806139e657600184603c8111156138f357634e487b7160e01b600052602160045260246000fd5b141561396657613901612eee565b6139615760405162461bcd60e51b815260206004820152602b60248201527f596f75206d75737420626520612073757065727573657220746f20637265617460448201526a32903732bb9037b732b99760a91b6064820152608401610fc6565b6139e6565b613971600383612170565b8061397f575061397f612eee565b6139e65760405162461bcd60e51b815260206004820152603260248201527f596f75206d7573742068617665207468652043617374657220726f6c6520746f6044820152711030b9b9b4b3b7103732bb903937b632b99760711b6064820152608401610fc6565b61140383826139f6576000613a65565b600160088160038083613a0c600d610100615b82565b613a169190615bbc565b613a209190615bbc565b613a2a9190615bbc565b613a349190615bbc565b613a3e9190615bbc565b613a489190615bbc565b60ff166001613a58816002615ad7565b613a629190615ba5565b901b5b613a6f8786611aea565b176001604051806020016040528060008152506137ba565b816001600160a01b0316836001600160a01b03161415613afb5760405162461bcd60e51b815260206004820152602960248201527f455243313135353a2073657474696e6720617070726f76616c20737461747573604482015268103337b91039b2b63360b91b6064820152608401610fc6565b6001600160a01b03838116600081815260666020908152604080832094871680845294825291829020805460ff191686151590811790915591519182527f17307eab39ab6107e8899845ad3d59bd9653f200f220920489ca2b5937696c31910160405180910390a3505050565b6001600160a01b038416613b8e5760405162461bcd60e51b8152600401610fc690615871565b33613b9e81878761382b8861486a565b60008481526065602090815260408083206001600160a01b038a16845290915290205483811015613be15760405162461bcd60e51b8152600401610fc6906158f9565b60008581526065602090815260408083206001600160a01b038b8116855292528083208785039055908816825281208054869290613c20908490615a7c565b909155505060408051868152602081018690526001600160a01b03808916928a821692918616917fc3d58168c5ae7397731d063d5bbf3d657854427343f4c083240f7aacaa2d0f62910160405180910390a4613c808288888888886148c3565b50505050505050565b6001600160a01b038316613caf5760405162461bcd60e51b8152600401610fc6906158b6565b33613cde81856000613cc08761486a565b613cc98761486a565b60405180602001604052806000815250613daf565b60008381526065602090815260408083206001600160a01b038816845290915290205482811015613d215760405162461bcd60e51b8152600401610fc69061574c565b60008481526065602090815260408083206001600160a01b03898116808652918452828520888703905582518981529384018890529092908616917fc3d58168c5ae7397731d063d5bbf3d657854427343f4c083240f7aacaa2d0f62910160405180910390a45050505050565b80516a636f6e736f6c652e6c6f67602083016000808483855afa5050505050565b613db7612eee565b6142095760005b835181101561420757600160088160038083613ddd600d610100615b82565b613de79190615bbc565b613df19190615bbc565b613dfb9190615bbc565b613e059190615bbc565b613e0f9190615bbc565b613e199190615bbc565b60ff166001613e29816002615ad7565b613e339190615ba5565b901b600160088160038083613e4b600d610100615b82565b613e559190615bbc565b613e5f9190615bbc565b613e699190615bbc565b613e739190615bbc565b613e7d9190615bbc565b613e879190615bbc565b60ff166001613e97816002615ad7565b613ea19190615ba5565b901b858381518110613ec357634e487b7160e01b600052603260045260246000fd5b602002602001015116146141f75760006001600160a01b03871615613ee9576004613eec565b60025b9050600281603c811115613f1057634e487b7160e01b600052602160045260246000fd5b14156140d1576008613f25600d610100615b82565b613f2f9190615bbc565b600160ff919091161b6008613f47600d610100615b82565b613f519190615bbc565b60ff166001613f6260086002615ad7565b613f6c9190615ba5565b901b868481518110613f8e57634e487b7160e01b600052603260045260246000fd5b602002602001015116141561404857613fcf6003868481518110613fc257634e487b7160e01b600052603260045260246000fd5b6020026020010151612170565b80613fdd5750613fdd612eee565b6140435760405162461bcd60e51b815260206004820152603160248201527f596f75206d757374206861766520612043617374657220746f6b656e20746f2060448201527036b4b73a103a37b5b2b71033b0ba32b99760791b6064820152608401610fc6565b6141f5565b61406c81868481518110613fc257634e487b7160e01b600052603260045260246000fd5b6140435760405162461bcd60e51b815260206004820152603060248201527f596f75206d75737420686176652061204d696e74657220746f6b656e20746f2060448201526f33b2b732b930ba32903a37b5b2b7399760811b6064820152608401610fc6565b6001600160a01b038616614168576141046009868481518110613fc257634e487b7160e01b600052603260045260246000fd5b6140435760405162461bcd60e51b815260206004820152602f60248201527f596f75206d75737420686176652061204275726e657220746f6b656e20746f2060448201526e3232b9ba3937bc903a37b5b2b7399760891b6064820152608401610fc6565b61418c81868481518110613fc257634e487b7160e01b600052603260045260246000fd5b6141f55760405162461bcd60e51b815260206004820152603460248201527f596f75206d75737420686176652061205472616e73666572657220746f6b656e604482015273103a37903a3930b739b332b9103a37b5b2b7399760611b6064820152608401610fc6565b505b61420081615c72565b9050613dbe565b505b6001600160a01b0384161561442f5760005b835181101561442d57610194600101600085838151811061424c57634e487b7160e01b600052603260045260246000fd5b6020026020010151815260200190815260200160002054600014156142f85761019460000184828151811061429157634e487b7160e01b600052603260045260246000fd5b60209081029190910181015182546001810184556000938452918320909101556101945485519091610195918790859081106142dd57634e487b7160e01b600052603260045260246000fd5b60200260200101518152602001908152602001600020819055505b6101966000866001600160a01b03166001600160a01b03168152602001908152602001600020600101600085838151811061434357634e487b7160e01b600052603260045260246000fd5b60200260200101518152602001908152602001600020546000141561441d576001600160a01b038516600090815261019660205260409020845185908390811061439d57634e487b7160e01b600052603260045260246000fd5b602090810291909101810151825460018181018555600094855283852090910191909155610194546001600160a01b0389168452610196909252604083208751929391019187908590811061440257634e487b7160e01b600052603260045260246000fd5b60200260200101518152602001908152602001600020819055505b61442681615c72565b905061421b565b505b6001600160a01b038516156145d05760005b83518110156145ce5782818151811061446a57634e487b7160e01b600052603260045260246000fd5b6020026020010151614496878684815181106123e357634e487b7160e01b600052603260045260246000fd5b116145be5760006101966000886001600160a01b03166001600160a01b0316815260200190815260200160002060010160008684815181106144e857634e487b7160e01b600052603260045260246000fd5b602002602001015181526020019081526020016000205490506101966000886001600160a01b03166001600160a01b03168152602001908152602001600020600001818154811061454957634e487b7160e01b600052603260045260246000fd5b90600052602060002001600090556101966000886001600160a01b03166001600160a01b0316815260200190815260200160002060010160008684815181106145a257634e487b7160e01b600052603260045260246000fd5b6020026020010151815260200190815260200160002060009055505b6145c781615c72565b9050614441565b505b61329e86868686868661498d565b6001600160a01b0384163b1561329e5760405163bc197c8160e01b81526001600160a01b0385169063bc197c819061462290899089908890889088906004016155bf565b602060405180830381600087803b15801561463c57600080fd5b505af192505050801561466c575060408051601f3d908101601f1916820190925261466991810190615317565b60015b61471957614678615cb9565b806308c379a014156146b2575061468d615cd0565b8061469857506146b4565b8060405162461bcd60e51b8152600401610fc691906156f1565b505b60405162461bcd60e51b815260206004820152603460248201527f455243313135353a207472616e7366657220746f206e6f6e20455243313135356044820152732932b1b2b4bb32b91034b6b83632b6b2b73a32b960611b6064820152608401610fc6565b6001600160e01b0319811663bc197c8160e01b14613c805760405162461bcd60e51b8152600401610fc690615704565b6001600160a01b0381163b6147b65760405162461bcd60e51b815260206004820152602d60248201527f455243313936373a206e657720696d706c656d656e746174696f6e206973206e60448201526c1bdd08184818dbdb9d1c9858dd609a1b6064820152608401610fc6565b600080516020615d7083398151915280546001600160a01b0319166001600160a01b0392909216919091179055565b6147ee83614ad1565b6000825111806147fb5750805b15612782576114038383614b11565b600054610100900460ff166148315760405162461bcd60e51b8152600401610fc6906159c6565b6127cc33613768565b600054610100900460ff166148615760405162461bcd60e51b8152600401610fc6906159c6565b611a0781614c05565b604080516001808252818301909252606091600091906020808301908036833701905050905082816000815181106148b257634e487b7160e01b600052603260045260246000fd5b602090810291909101015292915050565b6001600160a01b0384163b1561329e5760405163f23a6e6160e01b81526001600160a01b0385169063f23a6e6190614907908990899088908890889060040161561d565b602060405180830381600087803b15801561492157600080fd5b505af1925050508015614951575060408051601f3d908101601f1916820190925261494e91810190615317565b60015b61495d57614678615cb9565b6001600160e01b0319811663f23a6e6160e01b14613c805760405162461bcd60e51b8152600401610fc690615704565b6001600160a01b038516614a305760005b8351811015614a2e578281815181106149c757634e487b7160e01b600052603260045260246000fd5b602002602001015160fb60008684815181106149f357634e487b7160e01b600052603260045260246000fd5b602002602001015181526020019081526020016000206000828254614a189190615a7c565b90915550614a27905081615c72565b905061499e565b505b6001600160a01b03841661329e5760005b8351811015613c8057828181518110614a6a57634e487b7160e01b600052603260045260246000fd5b602002602001015160fb6000868481518110614a9657634e487b7160e01b600052603260045260246000fd5b602002602001015181526020019081526020016000206000828254614abb9190615ba5565b90915550614aca905081615c72565b9050614a41565b614ada81614749565b6040516001600160a01b038216907fbc7cd75a20ee27fd9adebab32041f755214dbc6bffa90cc0225b39da2e5c2d3b90600090a250565b60606001600160a01b0383163b614b795760405162461bcd60e51b815260206004820152602660248201527f416464726573733a2064656c65676174652063616c6c20746f206e6f6e2d636f6044820152651b9d1c9858dd60d21b6064820152608401610fc6565b600080846001600160a01b031684604051614b9491906155a3565b600060405180830381855af49150503d8060008114614bcf576040519150601f19603f3d011682016040523d82523d6000602084013e614bd4565b606091505b5091509150614bfc8282604051806060016040528060278152602001615d9060279139614c18565b95945050505050565b8051611ae6906067906020840190614cd5565b60608315614c2757508161214d565b825115614c375782518084602001fd5b8160405162461bcd60e51b8152600401610fc691906156f1565b828054614c5d90615c0b565b90600052602060002090601f016020900481019282614c7f5760008555614cc5565b82601f10614c985782800160ff19823516178555614cc5565b82800160010185558215614cc5579182015b82811115614cc5578235825591602001919060010190614caa565b50614cd1929150614d49565b5090565b828054614ce190615c0b565b90600052602060002090601f016020900481019282614d035760008555614cc5565b82601f10614d1c57805160ff1916838001178555614cc5565b82800160010185558215614cc5579182015b82811115614cc5578251825591602001919060010190614d2e565b5b80821115614cd15760008155600101614d4a565b60006001600160401b03831115614d7757614d77615ca3565b604051614d8e601f8501601f191660200182615c46565b809150838152848484011115614da357600080fd5b83836020830137600060208583010152509392505050565b80356001600160a01b0381168114614dd257600080fd5b919050565b600082601f830112614de7578081fd5b81356020614df482615a59565b604051614e018282615c46565b8381528281019150858301600585901b87018401881015614e20578586fd5b855b85811015614e4557614e3382614dbb565b84529284019290840190600101614e22565b5090979650505050505050565b600082601f830112614e62578081fd5b81356020614e6f82615a59565b604051614e7c8282615c46565b8381528281019150858301600585901b87018401881015614e9b578586fd5b855b85811015614e4557813584529284019290840190600101614e9d565b600082601f830112614ec9578081fd5b61214d83833560208501614d5e565b8035603d8110614dd257600080fd5b60008083601f840112614ef8578182fd5b5081356001600160401b03811115614f0e578182fd5b602083019150836020828501011115614f2657600080fd5b9250929050565b600060208284031215614f3e578081fd5b61214d82614dbb565b60008060408385031215614f59578081fd5b614f6283614dbb565b9150614f7060208401614dbb565b90509250929050565b600080600080600060a08688031215614f90578081fd5b614f9986614dbb565b9450614fa760208701614dbb565b935060408601356001600160401b0380821115614fc2578283fd5b614fce89838a01614e52565b94506060880135915080821115614fe3578283fd5b614fef89838a01614e52565b93506080880135915080821115615004578283fd5b5061501188828901614eb9565b9150509295509295909350565b600080600080600060a08688031215615035578081fd5b61503e86614dbb565b945061504c60208701614dbb565b9350604086013592506060860135915060808601356001600160401b03811115615074578182fd5b61501188828901614eb9565b600080600060608486031215615094578283fd5b61509d84614dbb565b925060208401356001600160401b03808211156150b8578384fd5b6150c487838801614e52565b935060408601359150808211156150d9578283fd5b506150e686828701614e52565b9150509250925092565b60008060408385031215615102578182fd5b61510b83614dbb565b91506020830135801515811461511f578182fd5b809150509250929050565b6000806040838503121561513c578182fd5b61514583614dbb565b915060208301356001600160401b0381111561515f578182fd5b61516b85828601614eb9565b9150509250929050565b60008060408385031215615187578182fd5b61519083614dbb565b946020939093013593505050565b6000806000606084860312156151b2578081fd5b6151bb84614dbb565b95602085013595506040909401359392505050565b600080600080608085870312156151e5578182fd5b6151ee85614dbb565b9350602085013592506040850135915060608501356001600160401b03811115615216578182fd5b61522287828801614eb9565b91505092959194509250565b60008060408385031215615240578182fd5b82356001600160401b0380821115615256578384fd5b61526286838701614dd7565b93506020850135915080821115615277578283fd5b5061516b85828601614e52565b600080600060608486031215615298578081fd5b83356001600160401b03808211156152ae578283fd5b6152ba87838801614dd7565b94506020860135935060408601359150808211156152d6578283fd5b506150e686828701614eb9565b6000602082840312156152f4578081fd5b5051919050565b60006020828403121561530c578081fd5b813561214d81615d59565b600060208284031215615328578081fd5b815161214d81615d59565b600060208284031215615344578081fd5b61214d82614ed8565b6000806040838503121561535f578182fd5b614f6283614ed8565b60008060006060848603121561537c578081fd5b61538584614ed8565b925061539360208501614dbb565b9150604084013590509250925092565b600080604083850312156153b5578182fd5b61519083614ed8565b600080600080604085870312156153d3578182fd5b84356001600160401b03808211156153e9578384fd5b6153f588838901614ee7565b9096509450602087013591508082111561540d578384fd5b5061541a87828801614ee7565b95989497509550505050565b600060208284031215615437578081fd5b81356001600160401b0381111561544c578182fd5b8201601f8101841361545c578182fd5b6129ce84823560208401614d5e565b60006020828403121561547c578081fd5b5035919050565b600080600060408486031215615497578081fd5b8335925060208401356001600160401b038111156154b3578182fd5b6154bf86828701614ee7565b9497909650939450505050565b600080600080606085870312156154e1578182fd5b8435935060208501356001600160401b038111156154fd578283fd5b61550987828801614ee7565b9598909750949560400135949350505050565b6000806040838503121561552e578182fd5b50508035926020909101359150565b6000815180845260208085019450808401835b8381101561556c57815187529582019590820190600101615550565b509495945050505050565b6000815180845261558f816020860160208601615bdf565b601f01601f19169290920160200192915050565b600082516155b5818460208701615bdf565b9190910192915050565b6001600160a01b0386811682528516602082015260a0604082018190526000906155eb9083018661553d565b82810360608401526155fd818661553d565b905082810360808401526156118185615577565b98975050505050505050565b6001600160a01b03868116825285166020820152604081018490526060810183905260a06080820181905260009061565790830184615577565b979650505050505050565b60208152600061214d602083018461553d565b604081526000615688604083018561553d565b8281036020840152612149818561553d565b60208101603d83106156bc57634e487b7160e01b600052602160045260246000fd5b91905290565b60208152816020820152818360408301376000818301604090810191909152601f909201601f19160101919050565b60208152600061214d6020830184615577565b60208082526028908201527f455243313135353a204552433131353552656365697665722072656a656374656040820152676420746f6b656e7360c01b606082015260800190565b60208082526024908201527f455243313135353a206275726e20616d6f756e7420657863656564732062616c604082015263616e636560e01b606082015260800190565b6020808252602c908201527f46756e6374696f6e206d7573742062652063616c6c6564207468726f7567682060408201526b19195b1959d85d1958d85b1b60a21b606082015260800190565b60208082526029908201527f455243313135353a2063616c6c6572206973206e6f74206f776e6572206e6f7260408201526808185c1c1c9bdd995960ba1b606082015260800190565b6020808252602c908201527f46756e6374696f6e206d7573742062652063616c6c6564207468726f7567682060408201526b6163746976652070726f787960a01b606082015260800190565b60208082526025908201527f455243313135353a207472616e7366657220746f20746865207a65726f206164604082015264647265737360d81b606082015260800190565b60208082526023908201527f455243313135353a206275726e2066726f6d20746865207a65726f206164647260408201526265737360e81b606082015260800190565b6020808252602a908201527f455243313135353a20696e73756666696369656e742062616c616e636520666f60408201526939103a3930b739b332b960b11b606082015260800190565b6020808252818101527f4f776e61626c653a2063616c6c6572206973206e6f7420746865206f776e6572604082015260600190565b6020808252602e908201527f4552432d3131353520456e756d657261626c653a20746f6b656e20696e64657860408201526d206f7574206f6620626f756e647360901b606082015260800190565b6020808252602b908201527f496e697469616c697a61626c653a20636f6e7472616374206973206e6f74206960408201526a6e697469616c697a696e6760a81b606082015260800190565b60208082526028908201527f455243313135353a2069647320616e6420616d6f756e7473206c656e677468206040820152670dad2e6dac2e8c6d60c31b606082015260800190565b60006001600160401b03821115615a7257615a72615ca3565b5060051b60200190565b60008219821115615a8f57615a8f615c8d565b500190565b600181815b80851115615acf578160001904821115615ab557615ab5615c8d565b80851615615ac257918102915b93841c9390800290615a99565b509250929050565b600061214d60ff841683600082615af057506001610ff4565b81615afd57506000610ff4565b8160018114615b135760028114615b1d57615b39565b6001915050610ff4565b60ff841115615b2e57615b2e615c8d565b50506001821b610ff4565b5060208310610133831016604e8410600b8410161715615b5c575081810a610ff4565b615b668383615a94565b8060001904821115615b7a57615b7a615c8d565b029392505050565b600061ffff83811690831681811015615b9d57615b9d615c8d565b039392505050565b600082821015615bb757615bb7615c8d565b500390565b600060ff821660ff841680821015615bd657615bd6615c8d565b90039392505050565b60005b83811015615bfa578181015183820152602001615be2565b838111156114035750506000910152565b600181811c90821680615c1f57607f821691505b60208210811415615c4057634e487b7160e01b600052602260045260246000fd5b50919050565b601f8201601f191681016001600160401b0381118282101715615c6b57615c6b615ca3565b6040525050565b6000600019821415615c8657615c86615c8d565b5060010190565b634e487b7160e01b600052601160045260246000fd5b634e487b7160e01b600052604160045260246000fd5b600060033d111561266157600481823e5160e01c90565b600060443d1015615cde5790565b6040516003193d81016004833e81513d6001600160401b038160248401118184111715615d0d57505050505090565b8285019150815181811115615d255750505050505090565b843d8701016020828501011115615d3f5750505050505090565b615d4e60208286010187615c46565b509095945050505050565b6001600160e01b031981168114611a0757600080fdfe360894a13ba1a3210667c828492db98dca3e2076cc3735a920a3ca505d382bbc416464726573733a206c6f772d6c6576656c2064656c65676174652063616c6c206661696c6564a26469706673582212201620aac2fe0155efa30efdeb0a5660f5351f7abba3b9f5f43c51e2ae4e5ab58664736f6c63430008040033",
  "linkReferences": {},
  "deployedLinkReferences": {}
}