{
  "_format": "hh-sol-artifact-1",
  "contractName": "BulkDisbursableNFTs",
  "sourceName": "src/BulkDisbursableNFTs.sol",
  "abi": [
    {
      "inputs": [],
      "stateMutability": "nonpayable",
      "type": "constructor"
    },
    {
      "anonymous": false,
      "inputs": [
        {
          "indexed": false,
          "internalType": "address",
          "name": "previousAdmin",
          "type": "address"
        },
        {
          "indexed": false,
          "internalType": "address",
          "name": "newAdmin",
          "type": "address"
        }
      ],
      "name": "AdminChanged",
      "type": "event"
    },
    {
      "anonymous": false,
      "inputs": [
        {
          "indexed": true,
          "internalType": "address",
          "name": "account",
          "type": "address"
        },
        {
          "indexed": true,
          "internalType": "address",
          "name": "operator",
          "type": "address"
        },
        {
          "indexed": false,
          "internalType": "bool",
          "name": "approved",
          "type": "bool"
        }
      ],
      "name": "ApprovalForAll",
      "type": "event"
    },
    {
      "anonymous": false,
      "inputs": [
        {
          "indexed": true,
          "internalType": "address",
          "name": "beacon",
          "type": "address"
        }
      ],
      "name": "BeaconUpgraded",
      "type": "event"
    },
    {
      "anonymous": false,
      "inputs": [
        {
          "indexed": false,
          "internalType": "uint256",
          "name": "id",
          "type": "uint256"
        },
        {
          "indexed": false,
          "internalType": "address",
          "name": "controller",
          "type": "address"
        }
      ],
      "name": "Created",
      "type": "event"
    },
    {
      "anonymous": false,
      "inputs": [
        {
          "indexed": true,
          "internalType": "address",
          "name": "previousOwner",
          "type": "address"
        },
        {
          "indexed": true,
          "internalType": "address",
          "name": "newOwner",
          "type": "address"
        }
      ],
      "name": "OwnershipTransferred",
      "type": "event"
    },
    {
      "anonymous": false,
      "inputs": [
        {
          "indexed": true,
          "internalType": "address",
          "name": "operator",
          "type": "address"
        },
        {
          "indexed": true,
          "internalType": "address",
          "name": "from",
          "type": "address"
        },
        {
          "indexed": true,
          "internalType": "address",
          "name": "to",
          "type": "address"
        },
        {
          "indexed": false,
          "internalType": "uint256[]",
          "name": "ids",
          "type": "uint256[]"
        },
        {
          "indexed": false,
          "internalType": "uint256[]",
          "name": "values",
          "type": "uint256[]"
        }
      ],
      "name": "TransferBatch",
      "type": "event"
    },
    {
      "anonymous": false,
      "inputs": [
        {
          "indexed": true,
          "internalType": "address",
          "name": "operator",
          "type": "address"
        },
        {
          "indexed": true,
          "internalType": "address",
          "name": "from",
          "type": "address"
        },
        {
          "indexed": true,
          "internalType": "address",
          "name": "to",
          "type": "address"
        },
        {
          "indexed": false,
          "internalType": "uint256",
          "name": "id",
          "type": "uint256"
        },
        {
          "indexed": false,
          "internalType": "uint256",
          "name": "value",
          "type": "uint256"
        }
      ],
      "name": "TransferSingle",
      "type": "event"
    },
    {
      "anonymous": false,
      "inputs": [
        {
          "indexed": false,
          "internalType": "string",
          "name": "value",
          "type": "string"
        },
        {
          "indexed": true,
          "internalType": "uint256",
          "name": "id",
          "type": "uint256"
        }
      ],
      "name": "URI",
      "type": "event"
    },
    {
      "anonymous": false,
      "inputs": [
        {
          "indexed": true,
          "internalType": "address",
          "name": "implementation",
          "type": "address"
        }
      ],
      "name": "Upgraded",
      "type": "event"
    },
    {
      "inputs": [],
      "name": "ADDRESS_TYPE",
      "outputs": [
        {
          "internalType": "uint256",
          "name": "",
          "type": "uint256"
        }
      ],
      "stateMutability": "view",
      "type": "function"
    },
    {
      "inputs": [],
      "name": "COUNTER_WIDTH",
      "outputs": [
        {
          "internalType": "uint8",
          "name": "",
          "type": "uint8"
        }
      ],
      "stateMutability": "view",
      "type": "function"
    },
    {
      "inputs": [],
      "name": "EXPERIMENTAL_TYPE",
      "outputs": [
        {
          "internalType": "uint256",
          "name": "",
          "type": "uint256"
        }
      ],
      "stateMutability": "view",
      "type": "function"
    },
    {
      "inputs": [],
      "name": "GATING_TYPE",
      "outputs": [
        {
          "internalType": "uint256",
          "name": "",
          "type": "uint256"
        }
      ],
      "stateMutability": "view",
      "type": "function"
    },
    {
      "inputs": [],
      "name": "MEMBERSHIP_TYPE",
      "outputs": [
        {
          "internalType": "uint256",
          "name": "",
          "type": "uint256"
        }
      ],
      "stateMutability": "view",
      "type": "function"
    },
    {
      "inputs": [],
      "name": "MINTER_HASH",
      "outputs": [
        {
          "internalType": "bytes32",
          "name": "",
          "type": "bytes32"
        }
      ],
      "stateMutability": "view",
      "type": "function"
    },
    {
      "inputs": [],
      "name": "REACTION_TYPE",
      "outputs": [
        {
          "internalType": "uint256",
          "name": "",
          "type": "uint256"
        }
      ],
      "stateMutability": "view",
      "type": "function"
    },
    {
      "inputs": [],
      "name": "RECORDED_TIME_TYPE",
      "outputs": [
        {
          "internalType": "uint256",
          "name": "",
          "type": "uint256"
        }
      ],
      "stateMutability": "view",
      "type": "function"
    },
    {
      "inputs": [],
      "name": "RECORDING_TYPE",
      "outputs": [
        {
          "internalType": "uint256",
          "name": "",
          "type": "uint256"
        }
      ],
      "stateMutability": "view",
      "type": "function"
    },
    {
      "inputs": [],
      "name": "REPETITION_BOUNDARY",
      "outputs": [
        {
          "internalType": "uint8",
          "name": "",
          "type": "uint8"
        }
      ],
      "stateMutability": "view",
      "type": "function"
    },
    {
      "inputs": [],
      "name": "REPETITION_WIDTH",
      "outputs": [
        {
          "internalType": "uint8",
          "name": "",
          "type": "uint8"
        }
      ],
      "stateMutability": "view",
      "type": "function"
    },
    {
      "inputs": [],
      "name": "REQUIREMENT_BOUNDARY",
      "outputs": [
        {
          "internalType": "uint8",
          "name": "",
          "type": "uint8"
        }
      ],
      "stateMutability": "view",
      "type": "function"
    },
    {
      "inputs": [],
      "name": "REQUIREMENT_WIDTH",
      "outputs": [
        {
          "internalType": "uint8",
          "name": "",
          "type": "uint8"
        }
      ],
      "stateMutability": "view",
      "type": "function"
    },
    {
      "inputs": [],
      "name": "REQUIRE_ALL",
      "outputs": [
        {
          "internalType": "uint256",
          "name": "",
          "type": "uint256"
        }
      ],
      "stateMutability": "view",
      "type": "function"
    },
    {
      "inputs": [],
      "name": "REQUIRE_NONE",
      "outputs": [
        {
          "internalType": "uint256",
          "name": "",
          "type": "uint256"
        }
      ],
      "stateMutability": "view",
      "type": "function"
    },
    {
      "inputs": [],
      "name": "REQUIRE_ONE",
      "outputs": [
        {
          "internalType": "uint256",
          "name": "",
          "type": "uint256"
        }
      ],
      "stateMutability": "view",
      "type": "function"
    },
    {
      "inputs": [],
      "name": "REVIEW_TYPE",
      "outputs": [
        {
          "internalType": "uint256",
          "name": "",
          "type": "uint256"
        }
      ],
      "stateMutability": "view",
      "type": "function"
    },
    {
      "inputs": [],
      "name": "ROLE_BOUNDARY",
      "outputs": [
        {
          "internalType": "uint8",
          "name": "",
          "type": "uint8"
        }
      ],
      "stateMutability": "view",
      "type": "function"
    },
    {
      "inputs": [],
      "name": "ROLE_WIDTH",
      "outputs": [
        {
          "internalType": "uint8",
          "name": "",
          "type": "uint8"
        }
      ],
      "stateMutability": "view",
      "type": "function"
    },
    {
      "inputs": [],
      "name": "SUPERUSER_HASH",
      "outputs": [
        {
          "internalType": "bytes32",
          "name": "",
          "type": "bytes32"
        }
      ],
      "stateMutability": "view",
      "type": "function"
    },
    {
      "inputs": [],
      "name": "TEAM_1",
      "outputs": [
        {
          "internalType": "uint256",
          "name": "",
          "type": "uint256"
        }
      ],
      "stateMutability": "view",
      "type": "function"
    },
    {
      "inputs": [],
      "name": "TEAM_2",
      "outputs": [
        {
          "internalType": "uint256",
          "name": "",
          "type": "uint256"
        }
      ],
      "stateMutability": "view",
      "type": "function"
    },
    {
      "inputs": [],
      "name": "TEAM_3",
      "outputs": [
        {
          "internalType": "uint256",
          "name": "",
          "type": "uint256"
        }
      ],
      "stateMutability": "view",
      "type": "function"
    },
    {
      "inputs": [],
      "name": "TEAM_4",
      "outputs": [
        {
          "internalType": "uint256",
          "name": "",
          "type": "uint256"
        }
      ],
      "stateMutability": "view",
      "type": "function"
    },
    {
      "inputs": [],
      "name": "TEAM_5",
      "outputs": [
        {
          "internalType": "uint256",
          "name": "",
          "type": "uint256"
        }
      ],
      "stateMutability": "view",
      "type": "function"
    },
    {
      "inputs": [],
      "name": "TEAM_6",
      "outputs": [
        {
          "internalType": "uint256",
          "name": "",
          "type": "uint256"
        }
      ],
      "stateMutability": "view",
      "type": "function"
    },
    {
      "inputs": [],
      "name": "TEAM_7",
      "outputs": [
        {
          "internalType": "uint256",
          "name": "",
          "type": "uint256"
        }
      ],
      "stateMutability": "view",
      "type": "function"
    },
    {
      "inputs": [],
      "name": "TEAM_8",
      "outputs": [
        {
          "internalType": "uint256",
          "name": "",
          "type": "uint256"
        }
      ],
      "stateMutability": "view",
      "type": "function"
    },
    {
      "inputs": [],
      "name": "TEAM_9",
      "outputs": [
        {
          "internalType": "uint256",
          "name": "",
          "type": "uint256"
        }
      ],
      "stateMutability": "view",
      "type": "function"
    },
    {
      "inputs": [],
      "name": "TEAM_A",
      "outputs": [
        {
          "internalType": "uint256",
          "name": "",
          "type": "uint256"
        }
      ],
      "stateMutability": "view",
      "type": "function"
    },
    {
      "inputs": [],
      "name": "TEAM_B",
      "outputs": [
        {
          "internalType": "uint256",
          "name": "",
          "type": "uint256"
        }
      ],
      "stateMutability": "view",
      "type": "function"
    },
    {
      "inputs": [],
      "name": "TEAM_BOUNDARY",
      "outputs": [
        {
          "internalType": "uint8",
          "name": "",
          "type": "uint8"
        }
      ],
      "stateMutability": "view",
      "type": "function"
    },
    {
      "inputs": [],
      "name": "TEAM_C",
      "outputs": [
        {
          "internalType": "uint256",
          "name": "",
          "type": "uint256"
        }
      ],
      "stateMutability": "view",
      "type": "function"
    },
    {
      "inputs": [],
      "name": "TEAM_D",
      "outputs": [
        {
          "internalType": "uint256",
          "name": "",
          "type": "uint256"
        }
      ],
      "stateMutability": "view",
      "type": "function"
    },
    {
      "inputs": [],
      "name": "TEAM_WIDTH",
      "outputs": [
        {
          "internalType": "uint8",
          "name": "",
          "type": "uint8"
        }
      ],
      "stateMutability": "view",
      "type": "function"
    },
    {
      "inputs": [],
      "name": "TYPE_BOUNDARY",
      "outputs": [
        {
          "internalType": "uint8",
          "name": "",
          "type": "uint8"
        }
      ],
      "stateMutability": "view",
      "type": "function"
    },
    {
      "inputs": [],
      "name": "TYPE_WIDTH",
      "outputs": [
        {
          "internalType": "uint8",
          "name": "",
          "type": "uint8"
        }
      ],
      "stateMutability": "view",
      "type": "function"
    },
    {
      "inputs": [],
      "name": "UNIQUE",
      "outputs": [
        {
          "internalType": "uint256",
          "name": "",
          "type": "uint256"
        }
      ],
      "stateMutability": "view",
      "type": "function"
    },
    {
      "inputs": [],
      "name": "UNIQUENESS_BOUNDARY",
      "outputs": [
        {
          "internalType": "uint8",
          "name": "",
          "type": "uint8"
        }
      ],
      "stateMutability": "view",
      "type": "function"
    },
    {
      "inputs": [],
      "name": "UNIQUENESS_WIDTH",
      "outputs": [
        {
          "internalType": "uint8",
          "name": "",
          "type": "uint8"
        }
      ],
      "stateMutability": "view",
      "type": "function"
    },
    {
      "inputs": [],
      "name": "USE_AFTER",
      "outputs": [
        {
          "internalType": "uint256",
          "name": "",
          "type": "uint256"
        }
      ],
      "stateMutability": "view",
      "type": "function"
    },
    {
      "inputs": [],
      "name": "USE_ONCE",
      "outputs": [
        {
          "internalType": "uint256",
          "name": "",
          "type": "uint256"
        }
      ],
      "stateMutability": "view",
      "type": "function"
    },
    {
      "inputs": [],
      "name": "USE_UNLIMITED",
      "outputs": [
        {
          "internalType": "uint256",
          "name": "",
          "type": "uint256"
        }
      ],
      "stateMutability": "view",
      "type": "function"
    },
    {
      "inputs": [],
      "name": "USE_UNTIL",
      "outputs": [
        {
          "internalType": "uint256",
          "name": "",
          "type": "uint256"
        }
      ],
      "stateMutability": "view",
      "type": "function"
    },
    {
      "inputs": [],
      "name": "VANILLA_TYPE",
      "outputs": [
        {
          "internalType": "uint256",
          "name": "",
          "type": "uint256"
        }
      ],
      "stateMutability": "view",
      "type": "function"
    },
    {
      "inputs": [],
      "name": "VOUCHED_TIME_TYPE",
      "outputs": [
        {
          "internalType": "uint256",
          "name": "",
          "type": "uint256"
        }
      ],
      "stateMutability": "view",
      "type": "function"
    },
    {
      "inputs": [
        {
          "internalType": "address",
          "name": "account",
          "type": "address"
        },
        {
          "internalType": "uint256",
          "name": "id",
          "type": "uint256"
        }
      ],
      "name": "balanceOf",
      "outputs": [
        {
          "internalType": "uint256",
          "name": "",
          "type": "uint256"
        }
      ],
      "stateMutability": "view",
      "type": "function"
    },
    {
      "inputs": [
        {
          "internalType": "address[]",
          "name": "accounts",
          "type": "address[]"
        },
        {
          "internalType": "uint256[]",
          "name": "ids",
          "type": "uint256[]"
        }
      ],
      "name": "balanceOfBatch",
      "outputs": [
        {
          "internalType": "uint256[]",
          "name": "",
          "type": "uint256[]"
        }
      ],
      "stateMutability": "view",
      "type": "function"
    },
    {
      "inputs": [
        {
          "internalType": "address",
          "name": "account",
          "type": "address"
        },
        {
          "internalType": "uint256",
          "name": "id",
          "type": "uint256"
        },
        {
          "internalType": "uint256",
          "name": "value",
          "type": "uint256"
        }
      ],
      "name": "burn",
      "outputs": [],
      "stateMutability": "nonpayable",
      "type": "function"
    },
    {
      "inputs": [
        {
          "internalType": "address",
          "name": "account",
          "type": "address"
        },
        {
          "internalType": "uint256[]",
          "name": "ids",
          "type": "uint256[]"
        },
        {
          "internalType": "uint256[]",
          "name": "values",
          "type": "uint256[]"
        }
      ],
      "name": "burnBatch",
      "outputs": [],
      "stateMutability": "nonpayable",
      "type": "function"
    },
    {
      "inputs": [
        {
          "internalType": "uint256",
          "name": "id",
          "type": "uint256"
        },
        {
          "internalType": "string",
          "name": "newURI",
          "type": "string"
        },
        {
          "internalType": "uint256",
          "name": "max",
          "type": "uint256"
        }
      ],
      "name": "configure",
      "outputs": [],
      "stateMutability": "nonpayable",
      "type": "function"
    },
    {
      "inputs": [
        {
          "internalType": "address",
          "name": "maintainer",
          "type": "address"
        }
      ],
      "name": "create",
      "outputs": [
        {
          "internalType": "uint256",
          "name": "id",
          "type": "uint256"
        }
      ],
      "stateMutability": "nonpayable",
      "type": "function"
    },
    {
      "inputs": [],
      "name": "create",
      "outputs": [
        {
          "internalType": "uint256",
          "name": "id",
          "type": "uint256"
        }
      ],
      "stateMutability": "nonpayable",
      "type": "function"
    },
    {
      "inputs": [
        {
          "internalType": "uint256",
          "name": "id",
          "type": "uint256"
        }
      ],
      "name": "exists",
      "outputs": [
        {
          "internalType": "bool",
          "name": "",
          "type": "bool"
        }
      ],
      "stateMutability": "view",
      "type": "function"
    },
    {
      "inputs": [
        {
          "internalType": "enum BulkDisbursableNFTs.Role",
          "name": "role",
          "type": "uint8"
        },
        {
          "internalType": "address",
          "name": "user",
          "type": "address"
        }
      ],
      "name": "grantRole",
      "outputs": [
        {
          "internalType": "bool",
          "name": "added",
          "type": "bool"
        }
      ],
      "stateMutability": "nonpayable",
      "type": "function"
    },
    {
      "inputs": [
        {
          "internalType": "enum BulkDisbursableNFTs.Role",
          "name": "role",
          "type": "uint8"
        },
        {
          "internalType": "address",
          "name": "user",
          "type": "address"
        },
        {
          "internalType": "uint256",
          "name": "id",
          "type": "uint256"
        }
      ],
      "name": "grantRole",
      "outputs": [
        {
          "internalType": "bool",
          "name": "added",
          "type": "bool"
        }
      ],
      "stateMutability": "nonpayable",
      "type": "function"
    },
    {
      "inputs": [
        {
          "internalType": "enum BulkDisbursableNFTs.Role",
          "name": "role",
          "type": "uint8"
        }
      ],
      "name": "hasRole",
      "outputs": [
        {
          "internalType": "bool",
          "name": "has",
          "type": "bool"
        }
      ],
      "stateMutability": "view",
      "type": "function"
    },
    {
      "inputs": [
        {
          "internalType": "enum BulkDisbursableNFTs.Role",
          "name": "role",
          "type": "uint8"
        },
        {
          "internalType": "address",
          "name": "user",
          "type": "address"
        },
        {
          "internalType": "uint256",
          "name": "id",
          "type": "uint256"
        }
      ],
      "name": "hasRole",
      "outputs": [
        {
          "internalType": "bool",
          "name": "has",
          "type": "bool"
        }
      ],
      "stateMutability": "view",
      "type": "function"
    },
    {
      "inputs": [
        {
          "internalType": "enum BulkDisbursableNFTs.Role",
          "name": "role",
          "type": "uint8"
        },
        {
          "internalType": "uint256",
          "name": "id",
          "type": "uint256"
        }
      ],
      "name": "hasRole",
      "outputs": [
        {
          "internalType": "bool",
          "name": "has",
          "type": "bool"
        }
      ],
      "stateMutability": "view",
      "type": "function"
    },
    {
      "inputs": [
        {
          "internalType": "enum BulkDisbursableNFTs.Role",
          "name": "role",
          "type": "uint8"
        },
        {
          "internalType": "address",
          "name": "user",
          "type": "address"
        }
      ],
      "name": "hasRole",
      "outputs": [
        {
          "internalType": "bool",
          "name": "has",
          "type": "bool"
        }
      ],
      "stateMutability": "view",
      "type": "function"
    },
    {
      "inputs": [
        {
          "internalType": "string",
          "name": "_name",
          "type": "string"
        },
        {
          "internalType": "string",
          "name": "_symbol",
          "type": "string"
        }
      ],
      "name": "initialize",
      "outputs": [],
      "stateMutability": "nonpayable",
      "type": "function"
    },
    {
      "inputs": [
        {
          "internalType": "address",
          "name": "account",
          "type": "address"
        },
        {
          "internalType": "address",
          "name": "operator",
          "type": "address"
        }
      ],
      "name": "isApprovedForAll",
      "outputs": [
        {
          "internalType": "bool",
          "name": "",
          "type": "bool"
        }
      ],
      "stateMutability": "view",
      "type": "function"
    },
    {
      "inputs": [
        {
          "internalType": "address",
          "name": "user",
          "type": "address"
        }
      ],
      "name": "isSuper",
      "outputs": [
        {
          "internalType": "bool",
          "name": "superuser",
          "type": "bool"
        }
      ],
      "stateMutability": "view",
      "type": "function"
    },
    {
      "inputs": [],
      "name": "isSuper",
      "outputs": [
        {
          "internalType": "bool",
          "name": "superuser",
          "type": "bool"
        }
      ],
      "stateMutability": "view",
      "type": "function"
    },
    {
      "inputs": [
        {
          "internalType": "address[]",
          "name": "to",
          "type": "address[]"
        },
        {
          "internalType": "uint256",
          "name": "id",
          "type": "uint256"
        },
        {
          "internalType": "bytes",
          "name": "data",
          "type": "bytes"
        }
      ],
      "name": "mint",
      "outputs": [],
      "stateMutability": "nonpayable",
      "type": "function"
    },
    {
      "inputs": [
        {
          "internalType": "address",
          "name": "recipient",
          "type": "address"
        },
        {
          "internalType": "uint256",
          "name": "id",
          "type": "uint256"
        },
        {
          "internalType": "uint256",
          "name": "amount",
          "type": "uint256"
        },
        {
          "internalType": "bytes",
          "name": "data",
          "type": "bytes"
        }
      ],
      "name": "mint",
      "outputs": [
        {
          "internalType": "bool",
          "name": "minted",
          "type": "bool"
        }
      ],
      "stateMutability": "nonpayable",
      "type": "function"
    },
    {
      "inputs": [],
      "name": "name",
      "outputs": [
        {
          "internalType": "string",
          "name": "",
          "type": "string"
        }
      ],
      "stateMutability": "view",
      "type": "function"
    },
    {
      "inputs": [],
      "name": "owner",
      "outputs": [
        {
          "internalType": "address",
          "name": "",
          "type": "address"
        }
      ],
      "stateMutability": "view",
      "type": "function"
    },
    {
      "inputs": [],
      "name": "proxiableUUID",
      "outputs": [
        {
          "internalType": "bytes32",
          "name": "",
          "type": "bytes32"
        }
      ],
      "stateMutability": "view",
      "type": "function"
    },
    {
      "inputs": [],
      "name": "renounceOwnership",
      "outputs": [],
      "stateMutability": "nonpayable",
      "type": "function"
    },
    {
      "inputs": [
        {
          "internalType": "enum BulkDisbursableNFTs.Role",
          "name": "role",
          "type": "uint8"
        }
      ],
      "name": "roleToken",
      "outputs": [
        {
          "internalType": "uint256",
          "name": "tokenId",
          "type": "uint256"
        }
      ],
      "stateMutability": "view",
      "type": "function"
    },
    {
      "inputs": [
        {
          "internalType": "enum BulkDisbursableNFTs.Role",
          "name": "role",
          "type": "uint8"
        },
        {
          "internalType": "uint256",
          "name": "id",
          "type": "uint256"
        }
      ],
      "name": "roleToken",
      "outputs": [
        {
          "internalType": "uint256",
          "name": "tokenId",
          "type": "uint256"
        }
      ],
      "stateMutability": "view",
      "type": "function"
    },
    {
      "inputs": [
        {
          "internalType": "string",
          "name": "roleName",
          "type": "string"
        }
      ],
      "name": "roleValueForName",
      "outputs": [
        {
          "internalType": "enum BulkDisbursableNFTs.Role",
          "name": "role",
          "type": "uint8"
        }
      ],
      "stateMutability": "pure",
      "type": "function"
    },
    {
      "inputs": [
        {
          "internalType": "address",
          "name": "from",
          "type": "address"
        },
        {
          "internalType": "address",
          "name": "to",
          "type": "address"
        },
        {
          "internalType": "uint256[]",
          "name": "ids",
          "type": "uint256[]"
        },
        {
          "internalType": "uint256[]",
          "name": "amounts",
          "type": "uint256[]"
        },
        {
          "internalType": "bytes",
          "name": "data",
          "type": "bytes"
        }
      ],
      "name": "safeBatchTransferFrom",
      "outputs": [],
      "stateMutability": "nonpayable",
      "type": "function"
    },
    {
      "inputs": [
        {
          "internalType": "address",
          "name": "from",
          "type": "address"
        },
        {
          "internalType": "address",
          "name": "to",
          "type": "address"
        },
        {
          "internalType": "uint256",
          "name": "id",
          "type": "uint256"
        },
        {
          "internalType": "uint256",
          "name": "amount",
          "type": "uint256"
        },
        {
          "internalType": "bytes",
          "name": "data",
          "type": "bytes"
        }
      ],
      "name": "safeTransferFrom",
      "outputs": [],
      "stateMutability": "nonpayable",
      "type": "function"
    },
    {
      "inputs": [
        {
          "internalType": "address",
          "name": "operator",
          "type": "address"
        },
        {
          "internalType": "bool",
          "name": "approved",
          "type": "bool"
        }
      ],
      "name": "setApprovalForAll",
      "outputs": [],
      "stateMutability": "nonpayable",
      "type": "function"
    },
    {
      "inputs": [
        {
          "internalType": "string",
          "name": "_name",
          "type": "string"
        },
        {
          "internalType": "string",
          "name": "_symbol",
          "type": "string"
        }
      ],
      "name": "setDescription",
      "outputs": [],
      "stateMutability": "nonpayable",
      "type": "function"
    },
    {
      "inputs": [
        {
          "internalType": "uint256",
          "name": "id",
          "type": "uint256"
        },
        {
          "internalType": "uint256",
          "name": "max",
          "type": "uint256"
        }
      ],
      "name": "setMax",
      "outputs": [],
      "stateMutability": "nonpayable",
      "type": "function"
    },
    {
      "inputs": [
        {
          "internalType": "uint256",
          "name": "id",
          "type": "uint256"
        },
        {
          "internalType": "string",
          "name": "newURI",
          "type": "string"
        }
      ],
      "name": "setURI",
      "outputs": [],
      "stateMutability": "nonpayable",
      "type": "function"
    },
    {
      "inputs": [
        {
          "internalType": "bytes4",
          "name": "interfaceId",
          "type": "bytes4"
        }
      ],
      "name": "supportsInterface",
      "outputs": [
        {
          "internalType": "bool",
          "name": "",
          "type": "bool"
        }
      ],
      "stateMutability": "view",
      "type": "function"
    },
    {
      "inputs": [],
      "name": "symbol",
      "outputs": [
        {
          "internalType": "string",
          "name": "",
          "type": "string"
        }
      ],
      "stateMutability": "view",
      "type": "function"
    },
    {
      "inputs": [
        {
          "internalType": "uint256",
          "name": "index",
          "type": "uint256"
        }
      ],
      "name": "tokenByIndex",
      "outputs": [
        {
          "internalType": "uint256",
          "name": "id",
          "type": "uint256"
        }
      ],
      "stateMutability": "view",
      "type": "function"
    },
    {
      "inputs": [
        {
          "internalType": "uint256",
          "name": "id",
          "type": "uint256"
        }
      ],
      "name": "tokenIndex",
      "outputs": [
        {
          "internalType": "uint256",
          "name": "index",
          "type": "uint256"
        }
      ],
      "stateMutability": "view",
      "type": "function"
    },
    {
      "inputs": [
        {
          "internalType": "address",
          "name": "owner",
          "type": "address"
        },
        {
          "internalType": "uint256",
          "name": "index",
          "type": "uint256"
        }
      ],
      "name": "tokenOfOwnerByIndex",
      "outputs": [
        {
          "internalType": "uint256",
          "name": "",
          "type": "uint256"
        }
      ],
      "stateMutability": "view",
      "type": "function"
    },
    {
      "inputs": [],
      "name": "totalSupply",
      "outputs": [
        {
          "internalType": "uint256",
          "name": "count",
          "type": "uint256"
        }
      ],
      "stateMutability": "view",
      "type": "function"
    },
    {
      "inputs": [
        {
          "internalType": "uint256",
          "name": "id",
          "type": "uint256"
        }
      ],
      "name": "totalSupply",
      "outputs": [
        {
          "internalType": "uint256",
          "name": "",
          "type": "uint256"
        }
      ],
      "stateMutability": "view",
      "type": "function"
    },
    {
      "inputs": [
        {
          "internalType": "address",
          "name": "newOwner",
          "type": "address"
        }
      ],
      "name": "transferOwnership",
      "outputs": [],
      "stateMutability": "nonpayable",
      "type": "function"
    },
    {
      "inputs": [
        {
          "internalType": "address",
          "name": "newImplementation",
          "type": "address"
        }
      ],
      "name": "upgradeTo",
      "outputs": [],
      "stateMutability": "nonpayable",
      "type": "function"
    },
    {
      "inputs": [
        {
          "internalType": "address",
          "name": "newImplementation",
          "type": "address"
        },
        {
          "internalType": "bytes",
          "name": "data",
          "type": "bytes"
        }
      ],
      "name": "upgradeToAndCall",
      "outputs": [],
      "stateMutability": "payable",
      "type": "function"
    },
    {
      "inputs": [
        {
          "internalType": "uint256",
          "name": "id",
          "type": "uint256"
        }
      ],
      "name": "uri",
      "outputs": [
        {
          "internalType": "string",
          "name": "metadata",
          "type": "string"
        }
      ],
      "stateMutability": "view",
      "type": "function"
    }
  ],
  "bytecode": "0x60a06040523060601b6080523480156200001857600080fd5b50600054610100900460ff16620000365760005460ff161562000040565b62000040620000e5565b620000a85760405162461bcd60e51b815260206004820152602e60248201527f496e697469616c697a61626c653a20636f6e747261637420697320616c72656160448201526d191e481a5b9a5d1a585b1a5e995960921b606482015260840160405180910390fd5b600054610100900460ff16158015620000cb576000805461ffff19166101011790555b8015620000de576000805461ff00191690555b5062000112565b6000620000fd306200010360201b620027b91760201c565b15905090565b6001600160a01b03163b151590565b60805160601c614ffb6200014d600039600081816117530152818161179301528181611d1601528181611d560152611e6f0152614ffb6000f3fe6080604052600436106104e05760003560e01c80635d5664e111610281578063aa8e90661161015a578063dbd406e8116100cc578063f242432a11610085578063f242432a14610db4578063f28a726d14610dd4578063f2fde38b14610de9578063f5298aca14610e09578063f73a731114610e29578063f8418ef314610e3e57600080fd5b8063dbd406e814610d02578063e5587f7a14610d17578063e864109214610d2c578063e985e9c514610d41578063edc79bac14610d8a578063efc81a8c14610d9f57600080fd5b8063baf42f931161011e578063baf42f9314610c76578063bd85b03914610c8b578063c3c8df9914610cb8578063c5a0d9b2146106ff578063d701765014610cd8578063db58fe9514610ced57600080fd5b8063aa8e906614610c02578063aae5270f14610c22578063aaeec72d14610c37578063b8785f8a14610c4c578063ba952df114610c6157600080fd5b80638da5cb5b116101f35780639e97b8f6116101b75780639e97b8f614610b635780639eb3f24314610b835780639ed9331814610b98578063a22cb46514610bb8578063a8410bc114610bd8578063a9c906ae14610bed57600080fd5b80638da5cb5b14610adc5780638e8f6f8714610b04578063957dc9a014610b1957806395d89b4114610b2e5780639d6d7eaa14610b4357600080fd5b80636fa09a79116102455780636fa09a7914610a5d578063715018a614610a72578063731133e914610a8757806383e5b21a14610aa7578063862440e214610abc578063891fbef01461080757600080fd5b80635d5664e1146109d35780635e2a3386146109f3578063666e6fd514610a085780636755d45614610a1d5780636b20c45414610a3d57600080fd5b80633659cfe6116103be57806348289589116103305780634f558e79116102e95780634f558e79146109305780634f6ccce71461095f5780635157b5631461097f57806351d294251461099457806352d1902d146109a957806355237661146109be57600080fd5b806348289589146108865780634cd88b76146108a65780634ce7a244146108c65780634e1273f4146108db5780634f06c0fb146109085780634f1ef2861461091d57600080fd5b80633b91ceef116103825780633b91ceef146107e75780633c176d9f146108075780633dbe35de1461081c5780633f79f1a41461083c5780634468031f1461085157806344cca2df1461087157600080fd5b80633659cfe61461077357806337b41af11461079357806339054c23146107a85780633adbbbc1146107bd5780633b60bd01146107d257600080fd5b806318160ddd116104575780632eb2c2d61161041b5780632eb2c2d6146106df5780632ed58d81146106ff5780632f745c591461071457806330c9cf931461073457806334628c1f1461074957806335ab86291461075e57600080fd5b806318160ddd1461065257806318ae23751461066857806319e0755c1461067d5780631c45349c1461069d5780632a7ccf13146106b257600080fd5b80630daec9e4116104a95780630daec9e4146105b15780630e89341c146105c65780630ec0370f146105e657806311bb8afd1461060857806313affe4f1461061d57806314c464271461063257600080fd5b8062fdd58e146104e557806301ffc9a7146105185780630583e9f814610548578063067ff8661461056857806306fdde031461058f575b600080fd5b3480156104f157600080fd5b506105056105003660046143a7565b610e53565b6040519081526020015b60405180910390f35b34801561052457600080fd5b5061053861053336600461452d565b610eef565b604051901515815260200161050f565b34801561055457600080fd5b5061050561056336600461469d565b610f3f565b34801561057457600080fd5b5061057d610fa8565b60405160ff909116815260200161050f565b34801561059b57600080fd5b506105a4610fc3565b60405161050f9190614923565b3480156105bd57600080fd5b50610505611052565b3480156105d257600080fd5b506105a46105e136600461469d565b611069565b3480156105f257600080fd5b506106066106013660046144b6565b61121b565b005b34801561061457600080fd5b5061057d602a81565b34801561062957600080fd5b50610505611272565b34801561063e57600080fd5b5061050561064d366004614565565b611288565b34801561065e57600080fd5b5061019454610505565b34801561067457600080fd5b5061057d611295565b34801561068957600080fd5b50610538610698366004614565565b6112a3565b3480156106a957600080fd5b506105056112af565b3480156106be57600080fd5b506106d26106cd366004614658565b6112d1565b60405161050f91906148cc565b3480156106eb57600080fd5b506106066106fa3660046141ab565b6115de565b34801561070b57600080fd5b5061057d600381565b34801561072057600080fd5b5061050561072f3660046143a7565b611675565b34801561074057600080fd5b506105056116f9565b34801561075557600080fd5b5061050561171b565b34801561076a57600080fd5b50610505611731565b34801561077f57600080fd5b5061060661078e36600461415f565b611748565b34801561079f57600080fd5b50610505611828565b3480156107b457600080fd5b5061050561185a565b3480156107c957600080fd5b50610505611887565b3480156107de57600080fd5b5061057d600d81565b3480156107f357600080fd5b5061060661080236600461474e565b6118a9565b34801561081357600080fd5b5061057d600881565b34801561082857600080fd5b506105056108373660046145d5565b61192c565b34801561084857600080fd5b506105056119d9565b34801561085d57600080fd5b5061053861086c36600461459a565b6119e7565b34801561087d57600080fd5b5061057d611a25565b34801561089257600080fd5b506105386108a13660046145d5565b611a3e565b3480156108b257600080fd5b506106066108c13660046145f0565b611a4b565b3480156108d257600080fd5b50610505611b71565b3480156108e757600080fd5b506108fb6108f6366004614460565b611b93565b60405161050f9190614894565b34801561091457600080fd5b50610505611cf4565b61060661092b36600461435c565b611d0b565b34801561093c57600080fd5b5061053861094b36600461469d565b600090815260fb6020526040902054151590565b34801561096b57600080fd5b5061050561097a36600461469d565b611dd8565b34801561098b57600080fd5b50610505611e32565b3480156109a057600080fd5b50610505611e54565b3480156109b557600080fd5b50610505611e62565b3480156109ca57600080fd5b50610505611f16565b3480156109df57600080fd5b506105386109ee36600461457f565b611f2f565b3480156109ff57600080fd5b50610505611f3d565b348015610a1457600080fd5b50610505611f54565b348015610a2957600080fd5b50610606610a383660046145f0565b611f62565b348015610a4957600080fd5b50610606610a583660046142b2565b611fa7565b348015610a6957600080fd5b50610505611fef565b348015610a7e57600080fd5b50610606611ffd565b348015610a9357600080fd5b50610538610aa2366004614402565b612033565b348015610ab357600080fd5b50610505612222565b348015610ac857600080fd5b50610606610ad73660046146b5565b612244565b348015610ae857600080fd5b506097546040516001600160a01b03909116815260200161050f565b348015610b1057600080fd5b50610505612320565b348015610b2557600080fd5b5061050561233a565b348015610b3a57600080fd5b506105a4612366565b348015610b4f57600080fd5b50610606610b5e3660046146fe565b612374565b348015610b6f57600080fd5b50610538610b7e36600461457f565b612389565b348015610b8f57600080fd5b50610505612397565b348015610ba457600080fd5b50610505610bb336600461415f565b6123a3565b348015610bc457600080fd5b50610606610bd3366004614322565b61250e565b348015610be457600080fd5b50610505612519565b348015610bf957600080fd5b50610505612525565b348015610c0e57600080fd5b50610538610c1d36600461459a565b612531565b348015610c2e57600080fd5b50610505612540565b348015610c4357600080fd5b50610505612565565b348015610c5857600080fd5b5061057d600181565b348015610c6d57600080fd5b5061057d61257e565b348015610c8257600080fd5b5061050561258d565b348015610c9757600080fd5b50610505610ca636600461469d565b600090815260fb602052604090205490565b348015610cc457600080fd5b50610538610cd336600461415f565b6125af565b348015610ce457600080fd5b506105056125d7565b348015610cf957600080fd5b506105056125e3565b348015610d0e57600080fd5b506105056125fa565b348015610d2357600080fd5b5061057d612610565b348015610d3857600080fd5b5061050561262b565b348015610d4d57600080fd5b50610538610d5c366004614179565b6001600160a01b03918216600090815260666020908152604080832093909416825291909152205460ff1690565b348015610d9657600080fd5b5061053861264d565b348015610dab57600080fd5b5061050561265d565b348015610dc057600080fd5b50610606610dcf366004614250565b612668565b348015610de057600080fd5b506105056126ad565b348015610df557600080fd5b50610606610e0436600461415f565b6126bc565b348015610e1557600080fd5b50610606610e243660046143d0565b612754565b348015610e3557600080fd5b5061057d612797565b348015610e4a57600080fd5b506105056127a3565b60006001600160a01b038316610ec45760405162461bcd60e51b815260206004820152602b60248201527f455243313135353a2062616c616e636520717565727920666f7220746865207a60448201526a65726f206164647265737360a81b60648201526084015b60405180910390fd5b5060008181526065602090815260408083206001600160a01b03861684529091529020545b92915050565b60006001600160e01b03198216636cdb3d1360e11b1480610f2057506001600160e01b031982166303a24d0760e21b145b80610ee957506301ffc9a760e01b6001600160e01b0319831614610ee9565b6000818152610195602052604081205480610ee95760405162461bcd60e51b815260206004820152602360248201527f5468652072657175657374656420746f6b656e20646f6573206e6f742065786960448201526239ba1760e91b6064820152608401610ebb565b6008610fb6600d60ff614dcb565b610fc09190614dcb565b81565b6101918054610fd190614e1a565b80601f0160208091040260200160405190810160405280929190818152602001828054610ffd90614e1a565b801561104a5780601f1061101f5761010080835404028352916020019161104a565b820191906000526020600020905b81548152906001019060200180831161102d57829003601f168201915b505050505081565b61105e600d60ff614dcb565b60ff16610400901b81565b6000818152610193602052604081208054606092919061108890614e1a565b80601f01602080910402602001604051908101604052809291908181526020018280546110b490614e1a565b80156111015780601f106110d657610100808354040283529160200191611101565b820191906000526020600020905b8154815290600101906020018083116110e457829003601f168201915b50505050509050805160001415610ee9576008611120600d60ff614dcb565b61112a9190614dcb565b60ff166001901b6008600d60ff6111419190614dcb565b61114b9190614dcb565b60ff16600161115c60086002614d09565b6111669190614db4565b901b84161415610ee9576503ffffffffff198316600081815261019360205260409020805461119490614e1a565b80601f01602080910402602001604051908101604052809291908181526020018280546111c090614e1a565b801561120d5780601f106111e25761010080835404028352916020019161120d565b820191906000526020600020905b8154815290600101906020018083116111f057829003601f168201915b505050505091505092915050565b60005b835181101561126c5761125b84828151811061124a57634e487b7160e01b600052603260045260246000fd5b602002602001015184600185612033565b5061126581614e81565b905061121e565b50505050565b61127e600d60ff614dcb565b60ff166010901b81565b6000610ee982600061192c565b6003610fb6600d60ff614dcb565b6000610ee98233612389565b60086112bd600d60ff614dcb565b6112c79190614dcb565b60ff166006901b81565b600080826040516020016112e591906147d5565b60405160208183030381529060405280519060200120905060405160200161131c906829bab832b93ab9b2b960b91b815260090190565b604051602081830303815290604052805190602001208114156113425750600192915050565b6040516526b4b73a32b960d11b60208201526026016040516020818303038152906040528051906020012081141561137d5750600292915050565b6040516521b0b9ba32b960d11b6020820152602601604051602081830303815290604052805190602001208114156113b85750600392915050565b604051692a3930b739b332b932b960b11b6020820152602a01604051602081830303815290604052805190602001208114156113f75750600492915050565b6040516921b7b73334b3bab932b960b11b6020820152602a01604051602081830303815290604052805190602001208114156114365750600592915050565b6040516926b0b4b73a30b4b732b960b11b6020820152602a01604051602081830303815290604052805190602001208114156114755750600692915050565b6040516621b932b0ba37b960c91b6020820152602701604051602081830303815290604052805190602001208114156114b15750600792915050565b604051662634b6b4ba32b960c91b6020820152602701604051602081830303815290604052805190602001208114156114ed5750600892915050565b60405165213ab93732b960d11b6020820152602601604051602081830303815290604052805190602001208114156115285750600992915050565b604051682232b9ba3937bcb2b960b91b6020820152602901604051602081830303815290604052805190602001208114156115665750600a92915050565b604051654f7261636c6560d01b6020820152602601604051602081830303815290604052805190602001208114156115a15750600b92915050565b60405162461bcd60e51b81526020600482015260126024820152712ab735b737bbb7103937b632903a3cb8329760711b6044820152606401610ebb565b6001600160a01b0385163314806115fa57506115fa8533610d5c565b6116615760405162461bcd60e51b815260206004820152603260248201527f455243313135353a207472616e736665722063616c6c6572206973206e6f74206044820152711bdddb995c881b9bdc88185c1c1c9bdd995960721b6064820152608401610ebb565b61166e85858585856127c8565b5050505050565b6001600160a01b0382166000908152610196602052604081205482106116ad5760405162461bcd60e51b8152600401610ebb90614baa565b6001600160a01b0383166000908152610196602052604090208054839081106116e657634e487b7160e01b600052603260045260246000fd5b9060005260206000200154905092915050565b6008611707600d60ff614dcb565b6117119190614dcb565b60ff166004901b81565b611727600d60ff614dcb565b60ff166020901b81565b61173d600d60ff614dcb565b60ff16611000901b81565b306001600160a01b037f00000000000000000000000000000000000000000000000000000000000000001614156117915760405162461bcd60e51b8152600401610ebb906149c2565b7f00000000000000000000000000000000000000000000000000000000000000006001600160a01b03166117da600080516020614f7f833981519152546001600160a01b031690565b6001600160a01b0316146118005760405162461bcd60e51b8152600401610ebb90614a57565b61180981612991565b6040805160008082526020820190925261182591839190612a1b565b50565b6040516829bab832b93ab9b2b960b91b60208201526029015b6040516020818303038152906040528051906020012081565b600380611869600d60ff614dcb565b6118739190614dcb565b61187d9190614dcb565b60ff166002901b81565b6008611895600d60ff614dcb565b61189f9190614dcb565b60ff166005901b81565b6118b4600883611a3e565b806118c257506118c261264d565b6119285760405162461bcd60e51b815260206004820152603160248201527f596f75206d75737420686176652061204c696d6974657220746f6b656e20746f6044820152701031b430b733b29038bab0b73a34ba3c9760791b6064820152608401610ebb565b5050565b60008160088061193e600d60ff614dcb565b6119489190614dcb565b6119529190614dcb565b60ff1684603c81111561197557634e487b7160e01b600052602160045260246000fd5b901b6001600380611988600d60ff614dcb565b6119929190614dcb565b61199c9190614dcb565b6119a69190614dcb565b60ff166001901b6008600d60ff6119bd9190614dcb565b6119c79190614dcb565b60ff166001901b161616905092915050565b6008611873600d60ff614dcb565b6000806119f385611288565b90506000611a018583610e53565b1180611a1a57506000611a18856105008685614cae565b115b9150505b9392505050565b600380611a34600d60ff614dcb565b610fb69190614dcb565b6000611a1e8333846119e7565b600054610100900460ff16611a665760005460ff1615611a6a565b303b155b611acd5760405162461bcd60e51b815260206004820152602e60248201527f496e697469616c697a61626c653a20636f6e747261637420697320616c72656160448201526d191e481a5b9a5d1a585b1a5e995960921b6064820152608401610ebb565b600054610100900460ff16158015611aef576000805461ffff19166101011790555b611af7612b95565b611b356040518060400160405280602081526020017f4572726f723a2053696e676c6520546f6b656e20555249204e6f742055736564815250612bc4565b611b3d612bf4565b611b45612bf4565b611b4d612bf4565b611b5985858585611f62565b801561166e576000805461ff00191690555050505050565b6003611b7f600d60ff614dcb565b611b899190614dcb565b60ff166003901b81565b60608151835114611bf85760405162461bcd60e51b815260206004820152602960248201527f455243313135353a206163636f756e747320616e6420696473206c656e677468604482015268040dad2e6dac2e8c6d60bb1b6064820152608401610ebb565b600083516001600160401b03811115611c2157634e487b7160e01b600052604160045260246000fd5b604051908082528060200260200182016040528015611c4a578160200160208202803683370190505b50905060005b8451811015611cec57611cb1858281518110611c7c57634e487b7160e01b600052603260045260246000fd5b6020026020010151858381518110611ca457634e487b7160e01b600052603260045260246000fd5b6020026020010151610e53565b828281518110611cd157634e487b7160e01b600052603260045260246000fd5b6020908102919091010152611ce581614e81565b9050611c50565b509392505050565b611d00600d60ff614dcb565b60ff16610800901b81565b306001600160a01b037f0000000000000000000000000000000000000000000000000000000000000000161415611d545760405162461bcd60e51b8152600401610ebb906149c2565b7f00000000000000000000000000000000000000000000000000000000000000006001600160a01b0316611d9d600080516020614f7f833981519152546001600160a01b031690565b6001600160a01b031614611dc35760405162461bcd60e51b8152600401610ebb90614a57565b611dcc82612991565b61192882826001612a1b565b610194546000908210611dfd5760405162461bcd60e51b8152600401610ebb90614baa565b610194805483908110611e2057634e487b7160e01b600052603260045260246000fd5b90600052602060002001549050919050565b6003611e40600d60ff614dcb565b611e4a9190614dcb565b60ff166001901b81565b6008611e40600d60ff614dcb565b6000306001600160a01b037f00000000000000000000000000000000000000000000000000000000000000001614611f025760405162461bcd60e51b815260206004820152603860248201527f555550535570677261646561626c653a206d757374206e6f742062652063616c60448201527f6c6564207468726f7567682064656c656761746563616c6c00000000000000006064820152608401610ebb565b50600080516020614f7f8339815191525b90565b600380611f25600d60ff614dcb565b6117079190614dcb565b6000611a1e83836000612531565b611f49600d60ff614dcb565b60ff16610100901b81565b6008611b7f600d60ff614dcb565b6097546001600160a01b03163314611f8c5760405162461bcd60e51b8152600401610ebb90614b75565b611f996101918585613e83565b5061166e6101928383613e83565b6001600160a01b038316331480611fc35750611fc38333610d5c565b611fdf5760405162461bcd60e51b8152600401610ebb90614a0e565b611fea838383612c1b565b505050565b6003611873600d60ff614dcb565b6097546001600160a01b031633146120275760405162461bcd60e51b8152600401610ebb90614b75565b6120316000612dc8565b565b60006001600380612046600d60ff614dcb565b6120509190614dcb565b61205a9190614dcb565b6120649190614dcb565b60ff166001901b6001600380600d60ff61207e9190614dcb565b6120889190614dcb565b6120929190614dcb565b61209c9190614dcb565b60ff166001901b85161480156120bb575060006120b98686610e53565b115b156120c85750600061221a565b60086120d6600d60ff614dcb565b6120e09190614dcb565b60ff166001901b6008600d60ff6120f79190614dcb565b6121019190614dcb565b60ff166001901b851614156121945761211b600385611a3e565b80612129575061212961264d565b61218f5760405162461bcd60e51b815260206004820152603160248201527f596f75206d757374206861766520612043617374657220746f6b656e20746f2060448201527036b4b73a103a37b5b2b71033b0ba32b99760791b6064820152608401610ebb565b61220e565b61219f600285611a3e565b806121ad57506121ad61264d565b61220e5760405162461bcd60e51b815260206004820152602c60248201527f596f75206d75737420686176652061204d696e74657220746f6b656e20746f2060448201526b36b4b73a103a37b5b2b7399760a11b6064820152608401610ebb565b61221a85858585612e1a565b949350505050565b6008612230600d60ff614dcb565b61223a9190614dcb565b60ff166008901b81565b61224f600584611a3e565b8061225d575061225d61264d565b6122c65760405162461bcd60e51b815260206004820152603460248201527f596f75206d7573742068617665206120436f6e6669677572657220746f6b656e604482015273103a379031b430b733b29036b2ba30b230ba309760611b6064820152608401610ebb565b6000838152610193602052604090206122e0908383613e83565b50827f6bb7ff708619ba0610cba295a58592e0451dee2622938c8755667688daf3529b83836040516123139291906148f4565b60405180910390a2505050565b6040516526b4b73a32b960d11b6020820152602601611841565b6008612348600d60ff614dcb565b6123529190614dcb565b60ff1661236160086002614d09565b901b81565b6101928054610fd190614e1a565b61237f848484612244565b61126c84826118a9565b6000611a1e838360006119e7565b611711600d60ff614dcb565b61019454600090819060086123ba600d60ff614dcb565b6123c49190614dcb565b60ff166009901b6123d59190614cae565b6123e0906001614cae565b90506123ed600782611a3e565b806123fb57506123fb61264d565b6124635760405162461bcd60e51b815260206004820152603360248201527f596f75206d757374206861766520612043726561746f7220746f6b656e20746f6044820152721031b932b0ba32903732bb903a37b5b2b7399760691b6064820152608401610ebb565b610194805460018101825560009182527fa6f1ac7ad7b125ba5a5e1c96b00ad6914f90a503b1ac3d85a9dadbb4c639df92018290556124a89060029085908490612f2c565b506124b7600584836000612f2c565b506124c6600884836000612f2c565b50604080518281526001600160a01b03851660208201527f7757890bcab34d673dfca6b71df1b57f75a2fe4231d6e8de726caf534ab1fdd6910160405180910390a192915050565b611928338383613077565b61187d600d60ff614dcb565b61223a600d60ff614dcb565b600061221a8484846001612f2c565b6001600380612551600d60ff614dcb565b61255b9190614dcb565b611e409190614dcb565b600380612574600d60ff614dcb565b611b7f9190614dcb565b600880611a34600d60ff614dcb565b600861259b600d60ff614dcb565b6125a59190614dcb565b60ff166007901b81565b60006125bc600183612389565b80610ee95750506097546001600160a01b0391821691161490565b611e4a600d60ff614dcb565b6125ef600d60ff614dcb565b60ff16610200901b81565b612606600d60ff614dcb565b60ff166040901b81565b6001600380612621600d60ff614dcb565b611a349190614dcb565b6008612639600d60ff614dcb565b6126439190614dcb565b60ff166009901b81565b6000612658336125af565b905090565b6000612658336123a3565b6001600160a01b03851633148061268457506126848533610d5c565b6126a05760405162461bcd60e51b8152600401610ebb90614a0e565b61166e8585858585613158565b60038061255b600d60ff614dcb565b6097546001600160a01b031633146126e65760405162461bcd60e51b8152600401610ebb90614b75565b6001600160a01b03811661274b5760405162461bcd60e51b815260206004820152602660248201527f4f776e61626c653a206e6577206f776e657220697320746865207a65726f206160448201526564647265737360d01b6064820152608401610ebb565b61182581612dc8565b6001600160a01b03831633148061277057506127708333610d5c565b61278c5760405162461bcd60e51b8152600401610ebb90614a0e565b611fea838383613279565b610fc0600d60ff614dcb565b6127af600d60ff614dcb565b60ff166080901b81565b6001600160a01b03163b151590565b81518351146127e95760405162461bcd60e51b8152600401610ebb90614c43565b6001600160a01b03841661280f5760405162461bcd60e51b8152600401610ebb90614aa3565b3361281e81878787878761337e565b60005b845181101561292357600085828151811061284c57634e487b7160e01b600052603260045260246000fd5b60200260200101519050600085838151811061287857634e487b7160e01b600052603260045260246000fd5b60209081029190910181015160008481526065835260408082206001600160a01b038e1683529093529190912054909150818110156128c95760405162461bcd60e51b8152600401610ebb90614b2b565b60008381526065602090815260408083206001600160a01b038e8116855292528083208585039055908b16825281208054849290612908908490614cae565b925050819055505050508061291c90614e81565b9050612821565b50846001600160a01b0316866001600160a01b0316826001600160a01b03167f4a39dc06d4c0dbc64b70af90fd698a233a518aa5d07e595d983b8c0526c8f7fb87876040516129739291906148a7565b60405180910390a4612989818787878787613819565b505050505050565b61299b60066112a3565b806129a957506129a961264d565b6118255760405162461bcd60e51b815260206004820152603960248201527f596f75206d75737420686176652061204d61696e7461696e657220746f6b656e60448201527f20746f20757067726164652074686520636f6e74726163742e000000000000006064820152608401610ebb565b7f4910fdfa16fed3260ed0e7147f7cc6da11a60208b5b9406d12a635614ffd91435460ff1615612a4e57611fea83613984565b826001600160a01b03166352d1902d6040518163ffffffff1660e01b815260040160206040518083038186803b158015612a8757600080fd5b505afa925050508015612ab7575060408051601f3d908101601f19168201909252612ab491810190614515565b60015b612b1a5760405162461bcd60e51b815260206004820152602e60248201527f45524331393637557067726164653a206e657720696d706c656d656e7461746960448201526d6f6e206973206e6f74205555505360901b6064820152608401610ebb565b600080516020614f7f8339815191528114612b895760405162461bcd60e51b815260206004820152602960248201527f45524331393637557067726164653a20756e737570706f727465642070726f786044820152681a58589b195555525160ba1b6064820152608401610ebb565b50611fea838383613a20565b600054610100900460ff16612bbc5760405162461bcd60e51b8152600401610ebb90614bf8565b612031613a45565b600054610100900460ff16612beb5760405162461bcd60e51b8152600401610ebb90614bf8565b61182581613a75565b600054610100900460ff166120315760405162461bcd60e51b8152600401610ebb90614bf8565b6001600160a01b038316612c415760405162461bcd60e51b8152600401610ebb90614ae8565b8051825114612c625760405162461bcd60e51b8152600401610ebb90614c43565b6000339050612c858185600086866040518060200160405280600081525061337e565b60005b8351811015612d69576000848281518110612cb357634e487b7160e01b600052603260045260246000fd5b602002602001015190506000848381518110612cdf57634e487b7160e01b600052603260045260246000fd5b60209081029190910181015160008481526065835260408082206001600160a01b038c168352909352919091205490915081811015612d305760405162461bcd60e51b8152600401610ebb9061497e565b60009283526065602090815260408085206001600160a01b038b1686529091529092209103905580612d6181614e81565b915050612c88565b5060006001600160a01b0316846001600160a01b0316826001600160a01b03167f4a39dc06d4c0dbc64b70af90fd698a233a518aa5d07e595d983b8c0526c8f7fb8686604051612dba9291906148a7565b60405180910390a450505050565b609780546001600160a01b038381166001600160a01b0319831681179093556040519116919082907f8be0079c531659141344cd1fd0a4f28419497f9722a3daafe3b4186f6b6457e090600090a35050565b6001600160a01b038416612e7a5760405162461bcd60e51b815260206004820152602160248201527f455243313135353a206d696e7420746f20746865207a65726f206164647265736044820152607360f81b6064820152608401610ebb565b33612e9a81600087612e8b88613aa5565b612e9488613aa5565b8761337e565b60008481526065602090815260408083206001600160a01b038916845290915281208054859290612ecc908490614cae565b909155505060408051858152602081018590526001600160a01b0380881692600092918516917fc3d58168c5ae7397731d063d5bbf3d657854427343f4c083240f7aacaa2d0f62910160405180910390a461166e81600087878787613afe565b6000811561304957600185603c811115612f5657634e487b7160e01b600052602160045260246000fd5b1415612fc957612f6461264d565b612fc45760405162461bcd60e51b815260206004820152602b60248201527f596f75206d75737420626520612073757065727573657220746f20637265617460448201526a32903732bb9037b732b99760a91b6064820152608401610ebb565b613049565b612fd4600384611a3e565b80612fe25750612fe261264d565b6130495760405162461bcd60e51b815260206004820152603260248201527f596f75206d7573742068617665207468652043617374657220726f6c6520746f6044820152711030b9b9b4b3b7103732bb903937b632b99760711b6064820152608401610ebb565b61306e84613057878661192c565b600160405180602001604052806000815250612033565b95945050505050565b816001600160a01b0316836001600160a01b031614156130eb5760405162461bcd60e51b815260206004820152602960248201527f455243313135353a2073657474696e6720617070726f76616c20737461747573604482015268103337b91039b2b63360b91b6064820152608401610ebb565b6001600160a01b03838116600081815260666020908152604080832094871680845294825291829020805460ff191686151590811790915591519182527f17307eab39ab6107e8899845ad3d59bd9653f200f220920489ca2b5937696c31910160405180910390a3505050565b6001600160a01b03841661317e5760405162461bcd60e51b8152600401610ebb90614aa3565b3361318e818787612e8b88613aa5565b60008481526065602090815260408083206001600160a01b038a168452909152902054838110156131d15760405162461bcd60e51b8152600401610ebb90614b2b565b60008581526065602090815260408083206001600160a01b038b8116855292528083208785039055908816825281208054869290613210908490614cae565b909155505060408051868152602081018690526001600160a01b03808916928a821692918616917fc3d58168c5ae7397731d063d5bbf3d657854427343f4c083240f7aacaa2d0f62910160405180910390a4613270828888888888613afe565b50505050505050565b6001600160a01b03831661329f5760405162461bcd60e51b8152600401610ebb90614ae8565b336132ce818560006132b087613aa5565b6132b987613aa5565b6040518060200160405280600081525061337e565b60008381526065602090815260408083206001600160a01b0388168452909152902054828110156133115760405162461bcd60e51b8152600401610ebb9061497e565b60008481526065602090815260408083206001600160a01b03898116808652918452828520888703905582518981529384018890529092908616917fc3d58168c5ae7397731d063d5bbf3d657854427343f4c083240f7aacaa2d0f62910160405180910390a45050505050565b61338661264d565b6134445760005b8351811015613442576133c96004878684815181106133bc57634e487b7160e01b600052603260045260246000fd5b60200260200101516119e7565b6134325760405162461bcd60e51b815260206004820152603460248201527f596f75206d75737420686176652061205472616e73666572657220746f6b656e604482015273103a37903a3930b739b332b9103a37b5b2b7399760611b6064820152608401610ebb565b61343b81614e81565b905061338d565b505b6001600160a01b0384161561366a5760005b835181101561366857610194600101600085838151811061348757634e487b7160e01b600052603260045260246000fd5b602002602001015181526020019081526020016000205460001415613533576101946000018482815181106134cc57634e487b7160e01b600052603260045260246000fd5b602090810291909101810151825460018101845560009384529183209091015561019454855190916101959187908590811061351857634e487b7160e01b600052603260045260246000fd5b60200260200101518152602001908152602001600020819055505b6101966000866001600160a01b03166001600160a01b03168152602001908152602001600020600101600085838151811061357e57634e487b7160e01b600052603260045260246000fd5b602002602001015181526020019081526020016000205460001415613658576001600160a01b03851660009081526101966020526040902084518590839081106135d857634e487b7160e01b600052603260045260246000fd5b602090810291909101810151825460018181018555600094855283852090910191909155610194546001600160a01b0389168452610196909252604083208751929391019187908590811061363d57634e487b7160e01b600052603260045260246000fd5b60200260200101518152602001908152602001600020819055505b61366181614e81565b9050613456565b505b6001600160a01b0385161561380b5760005b8351811015613809578281815181106136a557634e487b7160e01b600052603260045260246000fd5b60200260200101516136d187868481518110611ca457634e487b7160e01b600052603260045260246000fd5b116137f95760006101966000886001600160a01b03166001600160a01b03168152602001908152602001600020600101600086848151811061372357634e487b7160e01b600052603260045260246000fd5b602002602001015181526020019081526020016000205490506101966000886001600160a01b03166001600160a01b03168152602001908152602001600020600001818154811061378457634e487b7160e01b600052603260045260246000fd5b90600052602060002001600090556101966000886001600160a01b03166001600160a01b0316815260200190815260200160002060010160008684815181106137dd57634e487b7160e01b600052603260045260246000fd5b6020026020010151815260200190815260200160002060009055505b61380281614e81565b905061367c565b505b612989868686868686613bc8565b6001600160a01b0384163b156129895760405163bc197c8160e01b81526001600160a01b0385169063bc197c819061385d90899089908890889088906004016147f1565b602060405180830381600087803b15801561387757600080fd5b505af19250505080156138a7575060408051601f3d908101601f191682019092526138a491810190614549565b60015b613954576138b3614ec8565b806308c379a014156138ed57506138c8614edf565b806138d357506138ef565b8060405162461bcd60e51b8152600401610ebb9190614923565b505b60405162461bcd60e51b815260206004820152603460248201527f455243313135353a207472616e7366657220746f206e6f6e20455243313135356044820152732932b1b2b4bb32b91034b6b83632b6b2b73a32b960611b6064820152608401610ebb565b6001600160e01b0319811663bc197c8160e01b146132705760405162461bcd60e51b8152600401610ebb90614936565b6001600160a01b0381163b6139f15760405162461bcd60e51b815260206004820152602d60248201527f455243313936373a206e657720696d706c656d656e746174696f6e206973206e60448201526c1bdd08184818dbdb9d1c9858dd609a1b6064820152608401610ebb565b600080516020614f7f83398151915280546001600160a01b0319166001600160a01b0392909216919091179055565b613a2983613d0c565b600082511180613a365750805b15611fea5761126c8383613d4c565b600054610100900460ff16613a6c5760405162461bcd60e51b8152600401610ebb90614bf8565b61203133612dc8565b600054610100900460ff16613a9c5760405162461bcd60e51b8152600401610ebb90614bf8565b61182581613e37565b60408051600180825281830190925260609160009190602080830190803683370190505090508281600081518110613aed57634e487b7160e01b600052603260045260246000fd5b602090810291909101015292915050565b6001600160a01b0384163b156129895760405163f23a6e6160e01b81526001600160a01b0385169063f23a6e6190613b42908990899088908890889060040161484f565b602060405180830381600087803b158015613b5c57600080fd5b505af1925050508015613b8c575060408051601f3d908101601f19168201909252613b8991810190614549565b60015b613b98576138b3614ec8565b6001600160e01b0319811663f23a6e6160e01b146132705760405162461bcd60e51b8152600401610ebb90614936565b6001600160a01b038516613c6b5760005b8351811015613c6957828181518110613c0257634e487b7160e01b600052603260045260246000fd5b602002602001015160fb6000868481518110613c2e57634e487b7160e01b600052603260045260246000fd5b602002602001015181526020019081526020016000206000828254613c539190614cae565b90915550613c62905081614e81565b9050613bd9565b505b6001600160a01b0384166129895760005b835181101561327057828181518110613ca557634e487b7160e01b600052603260045260246000fd5b602002602001015160fb6000868481518110613cd157634e487b7160e01b600052603260045260246000fd5b602002602001015181526020019081526020016000206000828254613cf69190614db4565b90915550613d05905081614e81565b9050613c7c565b613d1581613984565b6040516001600160a01b038216907fbc7cd75a20ee27fd9adebab32041f755214dbc6bffa90cc0225b39da2e5c2d3b90600090a250565b60606001600160a01b0383163b613db45760405162461bcd60e51b815260206004820152602660248201527f416464726573733a2064656c65676174652063616c6c20746f206e6f6e2d636f6044820152651b9d1c9858dd60d21b6064820152608401610ebb565b600080846001600160a01b031684604051613dcf91906147d5565b600060405180830381855af49150503d8060008114613e0a576040519150601f19603f3d011682016040523d82523d6000602084013e613e0f565b606091505b509150915061306e8282604051806060016040528060278152602001614f9f60279139613e4a565b8051611928906067906020840190613f07565b60608315613e59575081611a1e565b825115613e695782518084602001fd5b8160405162461bcd60e51b8152600401610ebb9190614923565b828054613e8f90614e1a565b90600052602060002090601f016020900481019282613eb15760008555613ef7565b82601f10613eca5782800160ff19823516178555613ef7565b82800160010185558215613ef7579182015b82811115613ef7578235825591602001919060010190613edc565b50613f03929150613f7b565b5090565b828054613f1390614e1a565b90600052602060002090601f016020900481019282613f355760008555613ef7565b82601f10613f4e57805160ff1916838001178555613ef7565b82800160010185558215613ef7579182015b82811115613ef7578251825591602001919060010190613f60565b5b80821115613f035760008155600101613f7c565b60006001600160401b03831115613fa957613fa9614eb2565b604051613fc0601f8501601f191660200182614e55565b809150838152848484011115613fd557600080fd5b83836020830137600060208583010152509392505050565b80356001600160a01b038116811461400457600080fd5b919050565b600082601f830112614019578081fd5b8135602061402682614c8b565b6040516140338282614e55565b8381528281019150858301600585901b87018401881015614052578586fd5b855b858110156140775761406582613fed565b84529284019290840190600101614054565b5090979650505050505050565b600082601f830112614094578081fd5b813560206140a182614c8b565b6040516140ae8282614e55565b8381528281019150858301600585901b870184018810156140cd578586fd5b855b85811015614077578135845292840192908401906001016140cf565b600082601f8301126140fb578081fd5b611a1e83833560208501613f90565b8035603d811061400457600080fd5b60008083601f84011261412a578182fd5b5081356001600160401b03811115614140578182fd5b60208301915083602082850101111561415857600080fd5b9250929050565b600060208284031215614170578081fd5b611a1e82613fed565b6000806040838503121561418b578081fd5b61419483613fed565b91506141a260208401613fed565b90509250929050565b600080600080600060a086880312156141c2578081fd5b6141cb86613fed565b94506141d960208701613fed565b935060408601356001600160401b03808211156141f4578283fd5b61420089838a01614084565b94506060880135915080821115614215578283fd5b61422189838a01614084565b93506080880135915080821115614236578283fd5b50614243888289016140eb565b9150509295509295909350565b600080600080600060a08688031215614267578081fd5b61427086613fed565b945061427e60208701613fed565b9350604086013592506060860135915060808601356001600160401b038111156142a6578182fd5b614243888289016140eb565b6000806000606084860312156142c6578283fd5b6142cf84613fed565b925060208401356001600160401b03808211156142ea578384fd5b6142f687838801614084565b9350604086013591508082111561430b578283fd5b5061431886828701614084565b9150509250925092565b60008060408385031215614334578182fd5b61433d83613fed565b915060208301358015158114614351578182fd5b809150509250929050565b6000806040838503121561436e578182fd5b61437783613fed565b915060208301356001600160401b03811115614391578182fd5b61439d858286016140eb565b9150509250929050565b600080604083850312156143b9578182fd5b6143c283613fed565b946020939093013593505050565b6000806000606084860312156143e4578081fd5b6143ed84613fed565b95602085013595506040909401359392505050565b60008060008060808587031215614417578182fd5b61442085613fed565b9350602085013592506040850135915060608501356001600160401b03811115614448578182fd5b614454878288016140eb565b91505092959194509250565b60008060408385031215614472578182fd5b82356001600160401b0380821115614488578384fd5b61449486838701614009565b935060208501359150808211156144a9578283fd5b5061439d85828601614084565b6000806000606084860312156144ca578081fd5b83356001600160401b03808211156144e0578283fd5b6144ec87838801614009565b9450602086013593506040860135915080821115614508578283fd5b50614318868287016140eb565b600060208284031215614526578081fd5b5051919050565b60006020828403121561453e578081fd5b8135611a1e81614f68565b60006020828403121561455a578081fd5b8151611a1e81614f68565b600060208284031215614576578081fd5b611a1e8261410a565b60008060408385031215614591578182fd5b6141948361410a565b6000806000606084860312156145ae578081fd5b6145b78461410a565b92506145c560208501613fed565b9150604084013590509250925092565b600080604083850312156145e7578182fd5b6143c28361410a565b60008060008060408587031215614605578182fd5b84356001600160401b038082111561461b578384fd5b61462788838901614119565b9096509450602087013591508082111561463f578384fd5b5061464c87828801614119565b95989497509550505050565b600060208284031215614669578081fd5b81356001600160401b0381111561467e578182fd5b8201601f8101841361468e578182fd5b61221a84823560208401613f90565b6000602082840312156146ae578081fd5b5035919050565b6000806000604084860312156146c9578081fd5b8335925060208401356001600160401b038111156146e5578182fd5b6146f186828701614119565b9497909650939450505050565b60008060008060608587031215614713578182fd5b8435935060208501356001600160401b0381111561472f578283fd5b61473b87828801614119565b9598909750949560400135949350505050565b60008060408385031215614760578182fd5b50508035926020909101359150565b6000815180845260208085019450808401835b8381101561479e57815187529582019590820190600101614782565b509495945050505050565b600081518084526147c1816020860160208601614dee565b601f01601f19169290920160200192915050565b600082516147e7818460208701614dee565b9190910192915050565b6001600160a01b0386811682528516602082015260a06040820181905260009061481d9083018661476f565b828103606084015261482f818661476f565b9050828103608084015261484381856147a9565b98975050505050505050565b6001600160a01b03868116825285166020820152604081018490526060810183905260a060808201819052600090614889908301846147a9565b979650505050505050565b602081526000611a1e602083018461476f565b6040815260006148ba604083018561476f565b8281036020840152611a1a818561476f565b60208101603d83106148ee57634e487b7160e01b600052602160045260246000fd5b91905290565b60208152816020820152818360408301376000818301604090810191909152601f909201601f19160101919050565b602081526000611a1e60208301846147a9565b60208082526028908201527f455243313135353a204552433131353552656365697665722072656a656374656040820152676420746f6b656e7360c01b606082015260800190565b60208082526024908201527f455243313135353a206275726e20616d6f756e7420657863656564732062616c604082015263616e636560e01b606082015260800190565b6020808252602c908201527f46756e6374696f6e206d7573742062652063616c6c6564207468726f7567682060408201526b19195b1959d85d1958d85b1b60a21b606082015260800190565b60208082526029908201527f455243313135353a2063616c6c6572206973206e6f74206f776e6572206e6f7260408201526808185c1c1c9bdd995960ba1b606082015260800190565b6020808252602c908201527f46756e6374696f6e206d7573742062652063616c6c6564207468726f7567682060408201526b6163746976652070726f787960a01b606082015260800190565b60208082526025908201527f455243313135353a207472616e7366657220746f20746865207a65726f206164604082015264647265737360d81b606082015260800190565b60208082526023908201527f455243313135353a206275726e2066726f6d20746865207a65726f206164647260408201526265737360e81b606082015260800190565b6020808252602a908201527f455243313135353a20696e73756666696369656e742062616c616e636520666f60408201526939103a3930b739b332b960b11b606082015260800190565b6020808252818101527f4f776e61626c653a2063616c6c6572206973206e6f7420746865206f776e6572604082015260600190565b6020808252602e908201527f4552432d3131353520456e756d657261626c653a20746f6b656e20696e64657860408201526d206f7574206f6620626f756e647360901b606082015260800190565b6020808252602b908201527f496e697469616c697a61626c653a20636f6e7472616374206973206e6f74206960408201526a6e697469616c697a696e6760a81b606082015260800190565b60208082526028908201527f455243313135353a2069647320616e6420616d6f756e7473206c656e677468206040820152670dad2e6dac2e8c6d60c31b606082015260800190565b60006001600160401b03821115614ca457614ca4614eb2565b5060051b60200190565b60008219821115614cc157614cc1614e9c565b500190565b600181815b80851115614d01578160001904821115614ce757614ce7614e9c565b80851615614cf457918102915b93841c9390800290614ccb565b509250929050565b6000611a1e60ff841683600082614d2257506001610ee9565b81614d2f57506000610ee9565b8160018114614d455760028114614d4f57614d6b565b6001915050610ee9565b60ff841115614d6057614d60614e9c565b50506001821b610ee9565b5060208310610133831016604e8410600b8410161715614d8e575081810a610ee9565b614d988383614cc6565b8060001904821115614dac57614dac614e9c565b029392505050565b600082821015614dc657614dc6614e9c565b500390565b600060ff821660ff841680821015614de557614de5614e9c565b90039392505050565b60005b83811015614e09578181015183820152602001614df1565b8381111561126c5750506000910152565b600181811c90821680614e2e57607f821691505b60208210811415614e4f57634e487b7160e01b600052602260045260246000fd5b50919050565b601f8201601f191681016001600160401b0381118282101715614e7a57614e7a614eb2565b6040525050565b6000600019821415614e9557614e95614e9c565b5060010190565b634e487b7160e01b600052601160045260246000fd5b634e487b7160e01b600052604160045260246000fd5b600060033d1115611f1357600481823e5160e01c90565b600060443d1015614eed5790565b6040516003193d81016004833e81513d6001600160401b038160248401118184111715614f1c57505050505090565b8285019150815181811115614f345750505050505090565b843d8701016020828501011115614f4e5750505050505090565b614f5d60208286010187614e55565b509095945050505050565b6001600160e01b03198116811461182557600080fdfe360894a13ba1a3210667c828492db98dca3e2076cc3735a920a3ca505d382bbc416464726573733a206c6f772d6c6576656c2064656c65676174652063616c6c206661696c6564a2646970667358221220ed209899d223dc7ffb17440c914e2f855ba06bc98c14dc4ee450070fe384bed864736f6c63430008040033",
  "linkReferences": {},
  "deployedLinkReferences": {}
}