{
  "_format": "hh-sol-artifact-1",
  "contractName": "BulkDisbursableNFTs",
  "sourceName": "src/BulkDisbursableNFTs.sol",
  "abi": [
    {
      "inputs": [],
      "stateMutability": "nonpayable",
      "type": "constructor"
    },
    {
      "anonymous": false,
      "inputs": [
        {
          "indexed": false,
          "internalType": "address",
          "name": "previousAdmin",
          "type": "address"
        },
        {
          "indexed": false,
          "internalType": "address",
          "name": "newAdmin",
          "type": "address"
        }
      ],
      "name": "AdminChanged",
      "type": "event"
    },
    {
      "anonymous": false,
      "inputs": [
        {
          "indexed": true,
          "internalType": "address",
          "name": "account",
          "type": "address"
        },
        {
          "indexed": true,
          "internalType": "address",
          "name": "operator",
          "type": "address"
        },
        {
          "indexed": false,
          "internalType": "bool",
          "name": "approved",
          "type": "bool"
        }
      ],
      "name": "ApprovalForAll",
      "type": "event"
    },
    {
      "anonymous": false,
      "inputs": [
        {
          "indexed": true,
          "internalType": "address",
          "name": "beacon",
          "type": "address"
        }
      ],
      "name": "BeaconUpgraded",
      "type": "event"
    },
    {
      "anonymous": false,
      "inputs": [
        {
          "indexed": false,
          "internalType": "uint256",
          "name": "id",
          "type": "uint256"
        },
        {
          "indexed": false,
          "internalType": "address",
          "name": "controller",
          "type": "address"
        }
      ],
      "name": "Created",
      "type": "event"
    },
    {
      "anonymous": false,
      "inputs": [
        {
          "indexed": true,
          "internalType": "address",
          "name": "previousOwner",
          "type": "address"
        },
        {
          "indexed": true,
          "internalType": "address",
          "name": "newOwner",
          "type": "address"
        }
      ],
      "name": "OwnershipTransferred",
      "type": "event"
    },
    {
      "anonymous": false,
      "inputs": [
        {
          "indexed": true,
          "internalType": "address",
          "name": "operator",
          "type": "address"
        },
        {
          "indexed": true,
          "internalType": "address",
          "name": "from",
          "type": "address"
        },
        {
          "indexed": true,
          "internalType": "address",
          "name": "to",
          "type": "address"
        },
        {
          "indexed": false,
          "internalType": "uint256[]",
          "name": "ids",
          "type": "uint256[]"
        },
        {
          "indexed": false,
          "internalType": "uint256[]",
          "name": "values",
          "type": "uint256[]"
        }
      ],
      "name": "TransferBatch",
      "type": "event"
    },
    {
      "anonymous": false,
      "inputs": [
        {
          "indexed": true,
          "internalType": "address",
          "name": "operator",
          "type": "address"
        },
        {
          "indexed": true,
          "internalType": "address",
          "name": "from",
          "type": "address"
        },
        {
          "indexed": true,
          "internalType": "address",
          "name": "to",
          "type": "address"
        },
        {
          "indexed": false,
          "internalType": "uint256",
          "name": "id",
          "type": "uint256"
        },
        {
          "indexed": false,
          "internalType": "uint256",
          "name": "value",
          "type": "uint256"
        }
      ],
      "name": "TransferSingle",
      "type": "event"
    },
    {
      "anonymous": false,
      "inputs": [
        {
          "indexed": false,
          "internalType": "string",
          "name": "value",
          "type": "string"
        },
        {
          "indexed": true,
          "internalType": "uint256",
          "name": "id",
          "type": "uint256"
        }
      ],
      "name": "URI",
      "type": "event"
    },
    {
      "anonymous": false,
      "inputs": [
        {
          "indexed": true,
          "internalType": "address",
          "name": "implementation",
          "type": "address"
        }
      ],
      "name": "Upgraded",
      "type": "event"
    },
    {
      "inputs": [],
      "name": "ADDRESS_TYPE",
      "outputs": [
        {
          "internalType": "uint256",
          "name": "",
          "type": "uint256"
        }
      ],
      "stateMutability": "view",
      "type": "function"
    },
    {
      "inputs": [],
      "name": "COUNTER_MASK",
      "outputs": [
        {
          "internalType": "uint256",
          "name": "",
          "type": "uint256"
        }
      ],
      "stateMutability": "view",
      "type": "function"
    },
    {
      "inputs": [],
      "name": "COUNTER_WIDTH",
      "outputs": [
        {
          "internalType": "uint8",
          "name": "",
          "type": "uint8"
        }
      ],
      "stateMutability": "view",
      "type": "function"
    },
    {
      "inputs": [],
      "name": "EXPERIMENTAL_TYPE",
      "outputs": [
        {
          "internalType": "uint256",
          "name": "",
          "type": "uint256"
        }
      ],
      "stateMutability": "view",
      "type": "function"
    },
    {
      "inputs": [],
      "name": "GATING_TYPE",
      "outputs": [
        {
          "internalType": "uint256",
          "name": "",
          "type": "uint256"
        }
      ],
      "stateMutability": "view",
      "type": "function"
    },
    {
      "inputs": [],
      "name": "INTERNAL_BOUNDARY",
      "outputs": [
        {
          "internalType": "uint8",
          "name": "",
          "type": "uint8"
        }
      ],
      "stateMutability": "view",
      "type": "function"
    },
    {
      "inputs": [],
      "name": "INTERNAL_MASK",
      "outputs": [
        {
          "internalType": "uint256",
          "name": "",
          "type": "uint256"
        }
      ],
      "stateMutability": "view",
      "type": "function"
    },
    {
      "inputs": [],
      "name": "INTERNAL_WIDTH",
      "outputs": [
        {
          "internalType": "uint8",
          "name": "",
          "type": "uint8"
        }
      ],
      "stateMutability": "view",
      "type": "function"
    },
    {
      "inputs": [],
      "name": "MEMBERSHIP_TYPE",
      "outputs": [
        {
          "internalType": "uint256",
          "name": "",
          "type": "uint256"
        }
      ],
      "stateMutability": "view",
      "type": "function"
    },
    {
      "inputs": [],
      "name": "NO_MATCH_FLAGS",
      "outputs": [
        {
          "internalType": "uint256",
          "name": "",
          "type": "uint256"
        }
      ],
      "stateMutability": "view",
      "type": "function"
    },
    {
      "inputs": [],
      "name": "REACTION_TYPE",
      "outputs": [
        {
          "internalType": "uint256",
          "name": "",
          "type": "uint256"
        }
      ],
      "stateMutability": "view",
      "type": "function"
    },
    {
      "inputs": [],
      "name": "RECORDED_TIME_TYPE",
      "outputs": [
        {
          "internalType": "uint256",
          "name": "",
          "type": "uint256"
        }
      ],
      "stateMutability": "view",
      "type": "function"
    },
    {
      "inputs": [],
      "name": "RECORDING_TYPE",
      "outputs": [
        {
          "internalType": "uint256",
          "name": "",
          "type": "uint256"
        }
      ],
      "stateMutability": "view",
      "type": "function"
    },
    {
      "inputs": [],
      "name": "REPETITION_BOUNDARY",
      "outputs": [
        {
          "internalType": "uint8",
          "name": "",
          "type": "uint8"
        }
      ],
      "stateMutability": "view",
      "type": "function"
    },
    {
      "inputs": [],
      "name": "REPETITION_MASK",
      "outputs": [
        {
          "internalType": "uint256",
          "name": "",
          "type": "uint256"
        }
      ],
      "stateMutability": "view",
      "type": "function"
    },
    {
      "inputs": [],
      "name": "REPETITION_WIDTH",
      "outputs": [
        {
          "internalType": "uint8",
          "name": "",
          "type": "uint8"
        }
      ],
      "stateMutability": "view",
      "type": "function"
    },
    {
      "inputs": [],
      "name": "REQUIREMENT_BOUNDARY",
      "outputs": [
        {
          "internalType": "uint8",
          "name": "",
          "type": "uint8"
        }
      ],
      "stateMutability": "view",
      "type": "function"
    },
    {
      "inputs": [],
      "name": "REQUIREMENT_MASK",
      "outputs": [
        {
          "internalType": "uint256",
          "name": "",
          "type": "uint256"
        }
      ],
      "stateMutability": "view",
      "type": "function"
    },
    {
      "inputs": [],
      "name": "REQUIREMENT_WIDTH",
      "outputs": [
        {
          "internalType": "uint8",
          "name": "",
          "type": "uint8"
        }
      ],
      "stateMutability": "view",
      "type": "function"
    },
    {
      "inputs": [],
      "name": "REQUIRE_ALL",
      "outputs": [
        {
          "internalType": "uint256",
          "name": "",
          "type": "uint256"
        }
      ],
      "stateMutability": "view",
      "type": "function"
    },
    {
      "inputs": [],
      "name": "REQUIRE_NONE",
      "outputs": [
        {
          "internalType": "uint256",
          "name": "",
          "type": "uint256"
        }
      ],
      "stateMutability": "view",
      "type": "function"
    },
    {
      "inputs": [],
      "name": "REQUIRE_ONE",
      "outputs": [
        {
          "internalType": "uint256",
          "name": "",
          "type": "uint256"
        }
      ],
      "stateMutability": "view",
      "type": "function"
    },
    {
      "inputs": [],
      "name": "REVIEW_TYPE",
      "outputs": [
        {
          "internalType": "uint256",
          "name": "",
          "type": "uint256"
        }
      ],
      "stateMutability": "view",
      "type": "function"
    },
    {
      "inputs": [],
      "name": "ROLE_BOUNDARY",
      "outputs": [
        {
          "internalType": "uint8",
          "name": "",
          "type": "uint8"
        }
      ],
      "stateMutability": "view",
      "type": "function"
    },
    {
      "inputs": [],
      "name": "ROLE_MASK",
      "outputs": [
        {
          "internalType": "uint256",
          "name": "",
          "type": "uint256"
        }
      ],
      "stateMutability": "view",
      "type": "function"
    },
    {
      "inputs": [],
      "name": "ROLE_WIDTH",
      "outputs": [
        {
          "internalType": "uint8",
          "name": "",
          "type": "uint8"
        }
      ],
      "stateMutability": "view",
      "type": "function"
    },
    {
      "inputs": [],
      "name": "TEAM_1",
      "outputs": [
        {
          "internalType": "uint256",
          "name": "",
          "type": "uint256"
        }
      ],
      "stateMutability": "view",
      "type": "function"
    },
    {
      "inputs": [],
      "name": "TEAM_2",
      "outputs": [
        {
          "internalType": "uint256",
          "name": "",
          "type": "uint256"
        }
      ],
      "stateMutability": "view",
      "type": "function"
    },
    {
      "inputs": [],
      "name": "TEAM_3",
      "outputs": [
        {
          "internalType": "uint256",
          "name": "",
          "type": "uint256"
        }
      ],
      "stateMutability": "view",
      "type": "function"
    },
    {
      "inputs": [],
      "name": "TEAM_4",
      "outputs": [
        {
          "internalType": "uint256",
          "name": "",
          "type": "uint256"
        }
      ],
      "stateMutability": "view",
      "type": "function"
    },
    {
      "inputs": [],
      "name": "TEAM_5",
      "outputs": [
        {
          "internalType": "uint256",
          "name": "",
          "type": "uint256"
        }
      ],
      "stateMutability": "view",
      "type": "function"
    },
    {
      "inputs": [],
      "name": "TEAM_6",
      "outputs": [
        {
          "internalType": "uint256",
          "name": "",
          "type": "uint256"
        }
      ],
      "stateMutability": "view",
      "type": "function"
    },
    {
      "inputs": [],
      "name": "TEAM_7",
      "outputs": [
        {
          "internalType": "uint256",
          "name": "",
          "type": "uint256"
        }
      ],
      "stateMutability": "view",
      "type": "function"
    },
    {
      "inputs": [],
      "name": "TEAM_8",
      "outputs": [
        {
          "internalType": "uint256",
          "name": "",
          "type": "uint256"
        }
      ],
      "stateMutability": "view",
      "type": "function"
    },
    {
      "inputs": [],
      "name": "TEAM_9",
      "outputs": [
        {
          "internalType": "uint256",
          "name": "",
          "type": "uint256"
        }
      ],
      "stateMutability": "view",
      "type": "function"
    },
    {
      "inputs": [],
      "name": "TEAM_A",
      "outputs": [
        {
          "internalType": "uint256",
          "name": "",
          "type": "uint256"
        }
      ],
      "stateMutability": "view",
      "type": "function"
    },
    {
      "inputs": [],
      "name": "TEAM_B",
      "outputs": [
        {
          "internalType": "uint256",
          "name": "",
          "type": "uint256"
        }
      ],
      "stateMutability": "view",
      "type": "function"
    },
    {
      "inputs": [],
      "name": "TEAM_BOUNDARY",
      "outputs": [
        {
          "internalType": "uint8",
          "name": "",
          "type": "uint8"
        }
      ],
      "stateMutability": "view",
      "type": "function"
    },
    {
      "inputs": [],
      "name": "TEAM_C",
      "outputs": [
        {
          "internalType": "uint256",
          "name": "",
          "type": "uint256"
        }
      ],
      "stateMutability": "view",
      "type": "function"
    },
    {
      "inputs": [],
      "name": "TEAM_D",
      "outputs": [
        {
          "internalType": "uint256",
          "name": "",
          "type": "uint256"
        }
      ],
      "stateMutability": "view",
      "type": "function"
    },
    {
      "inputs": [],
      "name": "TEAM_MASK",
      "outputs": [
        {
          "internalType": "uint256",
          "name": "",
          "type": "uint256"
        }
      ],
      "stateMutability": "view",
      "type": "function"
    },
    {
      "inputs": [],
      "name": "TEAM_WIDTH",
      "outputs": [
        {
          "internalType": "uint8",
          "name": "",
          "type": "uint8"
        }
      ],
      "stateMutability": "view",
      "type": "function"
    },
    {
      "inputs": [],
      "name": "TYPE_BOUNDARY",
      "outputs": [
        {
          "internalType": "uint8",
          "name": "",
          "type": "uint8"
        }
      ],
      "stateMutability": "view",
      "type": "function"
    },
    {
      "inputs": [],
      "name": "TYPE_MASK",
      "outputs": [
        {
          "internalType": "uint256",
          "name": "",
          "type": "uint256"
        }
      ],
      "stateMutability": "view",
      "type": "function"
    },
    {
      "inputs": [],
      "name": "TYPE_WIDTH",
      "outputs": [
        {
          "internalType": "uint8",
          "name": "",
          "type": "uint8"
        }
      ],
      "stateMutability": "view",
      "type": "function"
    },
    {
      "inputs": [],
      "name": "UNIQUE",
      "outputs": [
        {
          "internalType": "uint256",
          "name": "",
          "type": "uint256"
        }
      ],
      "stateMutability": "view",
      "type": "function"
    },
    {
      "inputs": [],
      "name": "UNIQUENESS_BOUNDARY",
      "outputs": [
        {
          "internalType": "uint8",
          "name": "",
          "type": "uint8"
        }
      ],
      "stateMutability": "view",
      "type": "function"
    },
    {
      "inputs": [],
      "name": "UNIQUENESS_MASK",
      "outputs": [
        {
          "internalType": "uint256",
          "name": "",
          "type": "uint256"
        }
      ],
      "stateMutability": "view",
      "type": "function"
    },
    {
      "inputs": [],
      "name": "UNIQUENESS_WIDTH",
      "outputs": [
        {
          "internalType": "uint8",
          "name": "",
          "type": "uint8"
        }
      ],
      "stateMutability": "view",
      "type": "function"
    },
    {
      "inputs": [],
      "name": "USE_AFTER",
      "outputs": [
        {
          "internalType": "uint256",
          "name": "",
          "type": "uint256"
        }
      ],
      "stateMutability": "view",
      "type": "function"
    },
    {
      "inputs": [],
      "name": "USE_ONCE",
      "outputs": [
        {
          "internalType": "uint256",
          "name": "",
          "type": "uint256"
        }
      ],
      "stateMutability": "view",
      "type": "function"
    },
    {
      "inputs": [],
      "name": "USE_UNLIMITED",
      "outputs": [
        {
          "internalType": "uint256",
          "name": "",
          "type": "uint256"
        }
      ],
      "stateMutability": "view",
      "type": "function"
    },
    {
      "inputs": [],
      "name": "USE_UNTIL",
      "outputs": [
        {
          "internalType": "uint256",
          "name": "",
          "type": "uint256"
        }
      ],
      "stateMutability": "view",
      "type": "function"
    },
    {
      "inputs": [],
      "name": "VANILLA_TYPE",
      "outputs": [
        {
          "internalType": "uint256",
          "name": "",
          "type": "uint256"
        }
      ],
      "stateMutability": "view",
      "type": "function"
    },
    {
      "inputs": [],
      "name": "VOUCHED_TIME_TYPE",
      "outputs": [
        {
          "internalType": "uint256",
          "name": "",
          "type": "uint256"
        }
      ],
      "stateMutability": "view",
      "type": "function"
    },
    {
      "inputs": [
        {
          "internalType": "address",
          "name": "account",
          "type": "address"
        },
        {
          "internalType": "uint256",
          "name": "id",
          "type": "uint256"
        }
      ],
      "name": "balanceOf",
      "outputs": [
        {
          "internalType": "uint256",
          "name": "",
          "type": "uint256"
        }
      ],
      "stateMutability": "view",
      "type": "function"
    },
    {
      "inputs": [
        {
          "internalType": "address[]",
          "name": "accounts",
          "type": "address[]"
        },
        {
          "internalType": "uint256[]",
          "name": "ids",
          "type": "uint256[]"
        }
      ],
      "name": "balanceOfBatch",
      "outputs": [
        {
          "internalType": "uint256[]",
          "name": "",
          "type": "uint256[]"
        }
      ],
      "stateMutability": "view",
      "type": "function"
    },
    {
      "inputs": [
        {
          "internalType": "address",
          "name": "account",
          "type": "address"
        },
        {
          "internalType": "uint256",
          "name": "id",
          "type": "uint256"
        },
        {
          "internalType": "uint256",
          "name": "value",
          "type": "uint256"
        }
      ],
      "name": "burn",
      "outputs": [],
      "stateMutability": "nonpayable",
      "type": "function"
    },
    {
      "inputs": [
        {
          "internalType": "address",
          "name": "account",
          "type": "address"
        },
        {
          "internalType": "uint256[]",
          "name": "ids",
          "type": "uint256[]"
        },
        {
          "internalType": "uint256[]",
          "name": "values",
          "type": "uint256[]"
        }
      ],
      "name": "burnBatch",
      "outputs": [],
      "stateMutability": "nonpayable",
      "type": "function"
    },
    {
      "inputs": [
        {
          "internalType": "uint256",
          "name": "id",
          "type": "uint256"
        },
        {
          "internalType": "string",
          "name": "newURI",
          "type": "string"
        },
        {
          "internalType": "uint256",
          "name": "max",
          "type": "uint256"
        }
      ],
      "name": "configure",
      "outputs": [],
      "stateMutability": "nonpayable",
      "type": "function"
    },
    {
      "inputs": [
        {
          "internalType": "address",
          "name": "maintainer",
          "type": "address"
        }
      ],
      "name": "create",
      "outputs": [
        {
          "internalType": "uint256",
          "name": "id",
          "type": "uint256"
        }
      ],
      "stateMutability": "nonpayable",
      "type": "function"
    },
    {
      "inputs": [],
      "name": "create",
      "outputs": [
        {
          "internalType": "uint256",
          "name": "id",
          "type": "uint256"
        }
      ],
      "stateMutability": "nonpayable",
      "type": "function"
    },
    {
      "inputs": [
        {
          "internalType": "uint256",
          "name": "id",
          "type": "uint256"
        }
      ],
      "name": "exists",
      "outputs": [
        {
          "internalType": "bool",
          "name": "",
          "type": "bool"
        }
      ],
      "stateMutability": "view",
      "type": "function"
    },
    {
      "inputs": [
        {
          "internalType": "enum BulkDisbursableNFTs.Role",
          "name": "role",
          "type": "uint8"
        },
        {
          "internalType": "address",
          "name": "user",
          "type": "address"
        }
      ],
      "name": "grantRole",
      "outputs": [],
      "stateMutability": "nonpayable",
      "type": "function"
    },
    {
      "inputs": [
        {
          "internalType": "enum BulkDisbursableNFTs.Role",
          "name": "role",
          "type": "uint8"
        },
        {
          "internalType": "address",
          "name": "user",
          "type": "address"
        },
        {
          "internalType": "uint256",
          "name": "index",
          "type": "uint256"
        }
      ],
      "name": "grantRole",
      "outputs": [],
      "stateMutability": "nonpayable",
      "type": "function"
    },
    {
      "inputs": [
        {
          "internalType": "enum BulkDisbursableNFTs.Role",
          "name": "role",
          "type": "uint8"
        }
      ],
      "name": "hasRole",
      "outputs": [
        {
          "internalType": "bool",
          "name": "has",
          "type": "bool"
        }
      ],
      "stateMutability": "view",
      "type": "function"
    },
    {
      "inputs": [
        {
          "internalType": "enum BulkDisbursableNFTs.Role",
          "name": "role",
          "type": "uint8"
        },
        {
          "internalType": "address",
          "name": "user",
          "type": "address"
        },
        {
          "internalType": "uint256",
          "name": "index",
          "type": "uint256"
        }
      ],
      "name": "hasRole",
      "outputs": [
        {
          "internalType": "bool",
          "name": "has",
          "type": "bool"
        }
      ],
      "stateMutability": "view",
      "type": "function"
    },
    {
      "inputs": [
        {
          "internalType": "enum BulkDisbursableNFTs.Role",
          "name": "role",
          "type": "uint8"
        },
        {
          "internalType": "uint256",
          "name": "id",
          "type": "uint256"
        }
      ],
      "name": "hasRole",
      "outputs": [
        {
          "internalType": "bool",
          "name": "has",
          "type": "bool"
        }
      ],
      "stateMutability": "view",
      "type": "function"
    },
    {
      "inputs": [
        {
          "internalType": "enum BulkDisbursableNFTs.Role",
          "name": "role",
          "type": "uint8"
        },
        {
          "internalType": "address",
          "name": "user",
          "type": "address"
        }
      ],
      "name": "hasRole",
      "outputs": [
        {
          "internalType": "bool",
          "name": "has",
          "type": "bool"
        }
      ],
      "stateMutability": "view",
      "type": "function"
    },
    {
      "inputs": [
        {
          "internalType": "string",
          "name": "_name",
          "type": "string"
        },
        {
          "internalType": "string",
          "name": "_symbol",
          "type": "string"
        }
      ],
      "name": "initialize",
      "outputs": [],
      "stateMutability": "nonpayable",
      "type": "function"
    },
    {
      "inputs": [
        {
          "internalType": "address",
          "name": "account",
          "type": "address"
        },
        {
          "internalType": "address",
          "name": "operator",
          "type": "address"
        }
      ],
      "name": "isApprovedForAll",
      "outputs": [
        {
          "internalType": "bool",
          "name": "",
          "type": "bool"
        }
      ],
      "stateMutability": "view",
      "type": "function"
    },
    {
      "inputs": [
        {
          "internalType": "address",
          "name": "user",
          "type": "address"
        }
      ],
      "name": "isSuper",
      "outputs": [
        {
          "internalType": "bool",
          "name": "superuser",
          "type": "bool"
        }
      ],
      "stateMutability": "view",
      "type": "function"
    },
    {
      "inputs": [],
      "name": "isSuper",
      "outputs": [
        {
          "internalType": "bool",
          "name": "superuser",
          "type": "bool"
        }
      ],
      "stateMutability": "view",
      "type": "function"
    },
    {
      "inputs": [
        {
          "internalType": "address[]",
          "name": "to",
          "type": "address[]"
        },
        {
          "internalType": "uint256",
          "name": "id",
          "type": "uint256"
        },
        {
          "internalType": "bytes",
          "name": "data",
          "type": "bytes"
        }
      ],
      "name": "mint",
      "outputs": [],
      "stateMutability": "nonpayable",
      "type": "function"
    },
    {
      "inputs": [
        {
          "internalType": "address",
          "name": "recipient",
          "type": "address"
        },
        {
          "internalType": "uint256",
          "name": "id",
          "type": "uint256"
        },
        {
          "internalType": "uint256",
          "name": "amount",
          "type": "uint256"
        },
        {
          "internalType": "bytes",
          "name": "data",
          "type": "bytes"
        }
      ],
      "name": "mint",
      "outputs": [
        {
          "internalType": "bool",
          "name": "minted",
          "type": "bool"
        }
      ],
      "stateMutability": "nonpayable",
      "type": "function"
    },
    {
      "inputs": [],
      "name": "name",
      "outputs": [
        {
          "internalType": "string",
          "name": "",
          "type": "string"
        }
      ],
      "stateMutability": "view",
      "type": "function"
    },
    {
      "inputs": [],
      "name": "owner",
      "outputs": [
        {
          "internalType": "address",
          "name": "",
          "type": "address"
        }
      ],
      "stateMutability": "view",
      "type": "function"
    },
    {
      "inputs": [],
      "name": "proxiableUUID",
      "outputs": [
        {
          "internalType": "bytes32",
          "name": "",
          "type": "bytes32"
        }
      ],
      "stateMutability": "view",
      "type": "function"
    },
    {
      "inputs": [],
      "name": "renounceOwnership",
      "outputs": [],
      "stateMutability": "nonpayable",
      "type": "function"
    },
    {
      "inputs": [
        {
          "internalType": "enum BulkDisbursableNFTs.Role",
          "name": "role",
          "type": "uint8"
        }
      ],
      "name": "roleToken",
      "outputs": [
        {
          "internalType": "uint256",
          "name": "id",
          "type": "uint256"
        }
      ],
      "stateMutability": "view",
      "type": "function"
    },
    {
      "inputs": [
        {
          "internalType": "enum BulkDisbursableNFTs.Role",
          "name": "role",
          "type": "uint8"
        },
        {
          "internalType": "uint256",
          "name": "index",
          "type": "uint256"
        }
      ],
      "name": "roleToken",
      "outputs": [
        {
          "internalType": "uint256",
          "name": "id",
          "type": "uint256"
        }
      ],
      "stateMutability": "view",
      "type": "function"
    },
    {
      "inputs": [
        {
          "internalType": "string",
          "name": "roleName",
          "type": "string"
        }
      ],
      "name": "roleValueForName",
      "outputs": [
        {
          "internalType": "enum BulkDisbursableNFTs.Role",
          "name": "role",
          "type": "uint8"
        }
      ],
      "stateMutability": "pure",
      "type": "function"
    },
    {
      "inputs": [
        {
          "internalType": "address",
          "name": "from",
          "type": "address"
        },
        {
          "internalType": "address",
          "name": "to",
          "type": "address"
        },
        {
          "internalType": "uint256[]",
          "name": "ids",
          "type": "uint256[]"
        },
        {
          "internalType": "uint256[]",
          "name": "amounts",
          "type": "uint256[]"
        },
        {
          "internalType": "bytes",
          "name": "data",
          "type": "bytes"
        }
      ],
      "name": "safeBatchTransferFrom",
      "outputs": [],
      "stateMutability": "nonpayable",
      "type": "function"
    },
    {
      "inputs": [
        {
          "internalType": "address",
          "name": "from",
          "type": "address"
        },
        {
          "internalType": "address",
          "name": "to",
          "type": "address"
        },
        {
          "internalType": "uint256",
          "name": "id",
          "type": "uint256"
        },
        {
          "internalType": "uint256",
          "name": "amount",
          "type": "uint256"
        },
        {
          "internalType": "bytes",
          "name": "data",
          "type": "bytes"
        }
      ],
      "name": "safeTransferFrom",
      "outputs": [],
      "stateMutability": "nonpayable",
      "type": "function"
    },
    {
      "inputs": [
        {
          "internalType": "address",
          "name": "operator",
          "type": "address"
        },
        {
          "internalType": "bool",
          "name": "approved",
          "type": "bool"
        }
      ],
      "name": "setApprovalForAll",
      "outputs": [],
      "stateMutability": "nonpayable",
      "type": "function"
    },
    {
      "inputs": [
        {
          "internalType": "string",
          "name": "_name",
          "type": "string"
        },
        {
          "internalType": "string",
          "name": "_symbol",
          "type": "string"
        }
      ],
      "name": "setDescription",
      "outputs": [],
      "stateMutability": "nonpayable",
      "type": "function"
    },
    {
      "inputs": [
        {
          "internalType": "uint256",
          "name": "id",
          "type": "uint256"
        },
        {
          "internalType": "uint256",
          "name": "max",
          "type": "uint256"
        }
      ],
      "name": "setMax",
      "outputs": [],
      "stateMutability": "nonpayable",
      "type": "function"
    },
    {
      "inputs": [
        {
          "internalType": "uint256",
          "name": "id",
          "type": "uint256"
        },
        {
          "internalType": "string",
          "name": "newURI",
          "type": "string"
        }
      ],
      "name": "setURI",
      "outputs": [],
      "stateMutability": "nonpayable",
      "type": "function"
    },
    {
      "inputs": [
        {
          "internalType": "bytes4",
          "name": "interfaceId",
          "type": "bytes4"
        }
      ],
      "name": "supportsInterface",
      "outputs": [
        {
          "internalType": "bool",
          "name": "",
          "type": "bool"
        }
      ],
      "stateMutability": "view",
      "type": "function"
    },
    {
      "inputs": [],
      "name": "symbol",
      "outputs": [
        {
          "internalType": "string",
          "name": "",
          "type": "string"
        }
      ],
      "stateMutability": "view",
      "type": "function"
    },
    {
      "inputs": [
        {
          "internalType": "uint256",
          "name": "index",
          "type": "uint256"
        }
      ],
      "name": "tokenByIndex",
      "outputs": [
        {
          "internalType": "uint256",
          "name": "id",
          "type": "uint256"
        }
      ],
      "stateMutability": "view",
      "type": "function"
    },
    {
      "inputs": [
        {
          "internalType": "uint256",
          "name": "id",
          "type": "uint256"
        }
      ],
      "name": "tokenIndex",
      "outputs": [
        {
          "internalType": "uint256",
          "name": "index",
          "type": "uint256"
        }
      ],
      "stateMutability": "view",
      "type": "function"
    },
    {
      "inputs": [
        {
          "internalType": "address",
          "name": "owner",
          "type": "address"
        },
        {
          "internalType": "uint256",
          "name": "index",
          "type": "uint256"
        }
      ],
      "name": "tokenOfOwnerByIndex",
      "outputs": [
        {
          "internalType": "uint256",
          "name": "id",
          "type": "uint256"
        }
      ],
      "stateMutability": "view",
      "type": "function"
    },
    {
      "inputs": [
        {
          "internalType": "uint256",
          "name": "id",
          "type": "uint256"
        }
      ],
      "name": "totalSupply",
      "outputs": [
        {
          "internalType": "uint256",
          "name": "",
          "type": "uint256"
        }
      ],
      "stateMutability": "view",
      "type": "function"
    },
    {
      "inputs": [
        {
          "internalType": "address",
          "name": "newOwner",
          "type": "address"
        }
      ],
      "name": "transferOwnership",
      "outputs": [],
      "stateMutability": "nonpayable",
      "type": "function"
    },
    {
      "inputs": [],
      "name": "typeSupply",
      "outputs": [
        {
          "internalType": "uint256",
          "name": "count",
          "type": "uint256"
        }
      ],
      "stateMutability": "view",
      "type": "function"
    },
    {
      "inputs": [
        {
          "internalType": "address",
          "name": "newImplementation",
          "type": "address"
        }
      ],
      "name": "upgradeTo",
      "outputs": [],
      "stateMutability": "nonpayable",
      "type": "function"
    },
    {
      "inputs": [
        {
          "internalType": "address",
          "name": "newImplementation",
          "type": "address"
        },
        {
          "internalType": "bytes",
          "name": "data",
          "type": "bytes"
        }
      ],
      "name": "upgradeToAndCall",
      "outputs": [],
      "stateMutability": "payable",
      "type": "function"
    },
    {
      "inputs": [
        {
          "internalType": "uint256",
          "name": "id",
          "type": "uint256"
        }
      ],
      "name": "uri",
      "outputs": [
        {
          "internalType": "string",
          "name": "metadata",
          "type": "string"
        }
      ],
      "stateMutability": "view",
      "type": "function"
    }
  ],
  "bytecode": "0x60a06040523060601b6080523480156200001857600080fd5b50600054610100900460ff16620000365760005460ff161562000040565b62000040620000e5565b620000a85760405162461bcd60e51b815260206004820152602e60248201527f496e697469616c697a61626c653a20636f6e747261637420697320616c72656160448201526d191e481a5b9a5d1a585b1a5e995960921b606482015260840160405180910390fd5b600054610100900460ff16158015620000cb576000805461ffff19166101011790555b8015620000de576000805461ff00191690555b5062000112565b6000620000fd306200010360201b62002fef1760201c565b15905090565b6001600160a01b03163b151590565b60805160601c615c536200014d60003960008181611a4a01528181611a8a015281816123b9015281816123f901526125200152615c536000f3fe6080604052600436106105735760003560e01c80636755d456116102d8578063aae5270f11610180578063dbd406e8116100e7578063f242432a116100a0578063f449d92f1161007a578063f449d92f14610f2f578063f5298aca14610f44578063f73a731114610f64578063f8418ef314610f7957600080fd5b8063f242432a14610eda578063f28a726d14610efa578063f2fde38b14610f0f57600080fd5b8063dbd406e814610e28578063e5587f7a14610e3d578063e864109214610e52578063e985e9c514610e67578063edc79bac14610eb0578063efc81a8c14610ec557600080fd5b8063c3c8df9911610139578063c3c8df9914610db4578063c5a0d9b214610791578063d3e62b0914610dd4578063d701765014610de9578063d7fcc11314610dfe578063db58fe9514610e1357600080fd5b8063aae5270f14610d33578063aaeec72d14610d48578063b8785f8a14610cb4578063ba952df114610d5d578063baf42f9314610d72578063bd85b03914610d8757600080fd5b8063957dc9a01161023f5780639eb3f243116101f8578063a22cb465116101d2578063a22cb46514610cc9578063a8410bc114610ce9578063a9c906ae14610cfe578063aa8e906614610d1357600080fd5b80639eb3f24314610c7f5780639ed9331814610c945780639f31459a14610cb457600080fd5b8063957dc9a014610bea57806395d89b4114610bff5780639c37625c14610c145780639d6d7eaa14610c295780639d969a9c14610c495780639e97b8f614610c5f57600080fd5b806383e5b21a1161029157806383e5b21a14610b6357806384bb0fe614610b78578063862440e214610b8d578063891fbef0146108995780638da5cb5b14610bad57806392e4267b14610bd557600080fd5b80636755d45614610ac45780636b20c45414610ae45780636fa09a7914610b04578063715018a614610b19578063731133e914610b2e5780637e8ceec714610b4e57600080fd5b806339054c231161043b5780634e1273f4116103a257806351d294251161035b5780635d5664e1116103355780635d5664e114610a655780635e2a338614610a85578063666e6fd514610a9a578063669d5bfa14610aaf57600080fd5b806351d2942514610a2657806352d1902d14610a3b5780635523766114610a5057600080fd5b80634e1273f41461096d5780634f06c0fb1461099a5780634f1ef286146109af5780634f558e79146109c25780634f6ccce7146109f15780635157b56314610a1157600080fd5b80633f79f1a4116103f45780633f79f1a4146108ce5780634468031f146108e357806344cca2df1461090357806348289589146109185780634cd88b76146109385780634ce7a2441461095857600080fd5b806339054c231461083a5780633adbbbc11461084f5780633b60bd01146108645780633b91ceef146108795780633c176d9f146108995780633dbe35de146108ae57600080fd5b806318ae2375116104df5780632f745c59116104985780632f745c59146107a657806330c9cf93146107c657806333d81088146107db57806334628c1f146107f057806335ab8629146108055780633659cfe61461081a57600080fd5b806318ae2375146106fa57806319e0755c1461070f5780631c45349c1461072f5780632a7ccf13146107445780632eb2c2d6146107715780632ed58d811461079157600080fd5b80630e89341c116105315780630e89341c146106595780630ec0370f146106795780630f94cc501461069b57806311bb8afd146106b057806313affe4f146106c557806314c46427146106da57600080fd5b8062fdd58e1461057857806301ffc9a7146105ab5780630583e9f8146105db578063067ff866146105fb57806306fdde03146106225780630daec9e414610644575b600080fd5b34801561058457600080fd5b50610598610593366004614fdc565b610f8e565b6040519081526020015b60405180910390f35b3480156105b757600080fd5b506105cb6105c6366004615162565b61102a565b60405190151581526020016105a2565b3480156105e757600080fd5b506105986105f63660046152d2565b61107a565b34801561060757600080fd5b506106106110e8565b60405160ff90911681526020016105a2565b34801561062e57600080fd5b50610637611104565b6040516105a29190615558565b34801561065057600080fd5b50610598611193565b34801561066557600080fd5b506106376106743660046152d2565b6111ab565b34801561068557600080fd5b506106996106943660046150eb565b61141e565b005b3480156106a757600080fd5b50610598611475565b3480156106bc57600080fd5b50610610602081565b3480156106d157600080fd5b506105986114ae565b3480156106e657600080fd5b506105986106f536600461519a565b6114c5565b34801561070657600080fd5b506106106114d2565b34801561071b57600080fd5b506105cb61072a36600461519a565b6114ed565b34801561073b57600080fd5b506105986114f9565b34801561075057600080fd5b5061076461075f36600461528d565b61151c565b6040516105a29190615501565b34801561077d57600080fd5b5061069961078c366004614de0565b611829565b34801561079d57600080fd5b50610610600381565b3480156107b257600080fd5b506105986107c1366004614fdc565b6118c0565b3480156107d257600080fd5b50610598611944565b3480156107e757600080fd5b50610598611967565b3480156107fc57600080fd5b50610598611a10565b34801561081157600080fd5b50610598611a27565b34801561082657600080fd5b50610699610835366004614d94565b611a3f565b34801561084657600080fd5b50610598611b1f565b34801561085b57600080fd5b50610598611b59565b34801561087057600080fd5b50610610600d81565b34801561088557600080fd5b50610699610894366004615383565b611b7c565b3480156108a557600080fd5b50610610600881565b3480156108ba57600080fd5b506105986108c936600461520a565b611bff565b3480156108da57600080fd5b50610598611d7a565b3480156108ef57600080fd5b506105cb6108fe3660046151cf565b611d89565b34801561090f57600080fd5b506106106120b0565b34801561092457600080fd5b506105cb61093336600461520a565b6120cc565b34801561094457600080fd5b50610699610953366004615225565b6120e0565b34801561096457600080fd5b50610598612206565b34801561097957600080fd5b5061098d610988366004615095565b612235565b6040516105a291906154c9565b3480156109a657600080fd5b50610598612396565b6106996109bd366004614f91565b6123ae565b3480156109ce57600080fd5b506105cb6109dd3660046152d2565b600090815260fb6020526040902054151590565b3480156109fd57600080fd5b50610598610a0c3660046152d2565b61247b565b348015610a1d57600080fd5b506105986124d5565b348015610a3257600080fd5b50610598612504565b348015610a4757600080fd5b50610598612513565b348015610a5c57600080fd5b506105986125c7565b348015610a7157600080fd5b50610699610a803660046151b4565b6125ed565b348015610a9157600080fd5b506105986125f9565b348015610aa657600080fd5b50610598612611565b348015610abb57600080fd5b50610598612620565b348015610ad057600080fd5b50610699610adf366004615225565b61265d565b348015610af057600080fd5b50610699610aff366004614ee7565b6126a2565b348015610b1057600080fd5b506105986126ea565b348015610b2557600080fd5b506106996126fb565b348015610b3a57600080fd5b506105cb610b49366004615037565b612731565b348015610b5a57600080fd5b50610598612939565b348015610b6f57600080fd5b50610598612951565b348015610b8457600080fd5b50610598612974565b348015610b9957600080fd5b50610699610ba83660046152ea565b6129b5565b348015610bb957600080fd5b506097546040516001600160a01b0390911681526020016105a2565b348015610be157600080fd5b50610598612a91565b348015610bf657600080fd5b50610598612aa2565b348015610c0b57600080fd5b50610637612aca565b348015610c2057600080fd5b50610610612ad8565b348015610c3557600080fd5b50610699610c44366004615333565b612b0c565b348015610c5557600080fd5b5061019454610598565b348015610c6b57600080fd5b506105cb610c7a3660046151b4565b612b21565b348015610c8b57600080fd5b50610598612b2f565b348015610ca057600080fd5b50610598610caf366004614d94565b612b3c565b348015610cc057600080fd5b50610610600181565b348015610cd557600080fd5b50610699610ce4366004614f57565b612ca1565b348015610cf557600080fd5b50610598612cac565b348015610d0a57600080fd5b50610598612cb9565b348015610d1f57600080fd5b50610699610d2e3660046151cf565b612cc6565b348015610d3f57600080fd5b50610598612cd3565b348015610d5457600080fd5b50610598612cfb565b348015610d6957600080fd5b50610610612d17565b348015610d7e57600080fd5b50610598612d2c565b348015610d9357600080fd5b50610598610da23660046152d2565b600090815260fb602052604090205490565b348015610dc057600080fd5b506105cb610dcf366004614d94565b612d4f565b348015610de057600080fd5b50610598612d77565b348015610df557600080fd5b50610598612dc3565b348015610e0a57600080fd5b50610598612dd0565b348015610e1f57600080fd5b50610598612dee565b348015610e3457600080fd5b50610598612e06565b348015610e4957600080fd5b50610610612e1d565b348015610e5e57600080fd5b50610598612e31565b348015610e7357600080fd5b506105cb610e82366004614dae565b6001600160a01b03918216600090815260666020908152604080832093909416825291909152205460ff1690565b348015610ebc57600080fd5b506105cb612e54565b348015610ed157600080fd5b50610598612e64565b348015610ee657600080fd5b50610699610ef5366004614e85565b612e6f565b348015610f0657600080fd5b50610598612eb4565b348015610f1b57600080fd5b50610699610f2a366004614d94565b612ec6565b348015610f3b57600080fd5b50610598612f5e565b348015610f5057600080fd5b50610699610f5f366004615005565b612f88565b348015610f7057600080fd5b50610610612fcb565b348015610f8557600080fd5b50610598612fd8565b60006001600160a01b038316610fff5760405162461bcd60e51b815260206004820152602b60248201527f455243313135353a2062616c616e636520717565727920666f7220746865207a60448201526a65726f206164647265737360a81b60648201526084015b60405180910390fd5b5060008181526065602090815260408083206001600160a01b03861684529091529020545b92915050565b60006001600160e01b03198216636cdb3d1360e11b148061105b57506001600160e01b031982166303a24d0760e21b145b8061102457506301ffc9a760e01b6001600160e01b0319831614611024565b60008181526101956020526040902054806110e35760405162461bcd60e51b815260206004820152602360248201527f5468652072657175657374656420746f6b656e20646f6573206e6f742065786960448201526239ba1760e91b6064820152608401610ff6565b919050565b60086110f7600d6101006159e9565b6111019190615a23565b81565b610191805461111290615a72565b80601f016020809104026020016040519081016040528092919081815260200182805461113e90615a72565b801561118b5780601f106111605761010080835404028352916020019161118b565b820191906000526020600020905b81548152906001019060200180831161116e57829003601f168201915b505050505081565b6111a0600d6101006159e9565b60ff16610400901b81565b6000818152610193602052604090208054606091906111c990615a72565b80601f01602080910402602001604051908101604052809291908181526020018280546111f590615a72565b80156112425780601f1061121757610100808354040283529160200191611242565b820191906000526020600020905b81548152906001019060200180831161122557829003601f168201915b505050505090508051600014156110e3576008611262600d6101006159e9565b61126c9190615a23565b600160ff919091161b6008611284600d6101006159e9565b61128e9190615a23565b60ff16600161129f6008600261593e565b6112a99190615a0c565b901b831614156110e35760006001600881600380836112cb600d6101006159e9565b6112d59190615a23565b6112df9190615a23565b6112e99190615a23565b6112f39190615a23565b6112fd9190615a23565b6113079190615a23565b60ff16600161131781600261593e565b6113219190615a0c565b901b6003806008611335600d6101006159e9565b61133f9190615a23565b6113499190615a23565b6113539190615a23565b60ff166001901b171960016020600261136c919061593e565b6113769190615a0c565b1984161660008181526101936020526040902080549192509061139890615a72565b80601f01602080910402602001604051908101604052809291908181526020018280546113c490615a72565b80156114115780601f106113e657610100808354040283529160200191611411565b820191906000526020600020905b8154815290600101906020018083116113f457829003601f168201915b5050505050915050919050565b60005b835181101561146f5761145e84828151811061144d57634e487b7160e01b600052603260045260246000fd5b602002602001015184600185612731565b5061146881615ad9565b9050611421565b50505050565b6008611484600d6101006159e9565b61148e9190615a23565b60ff16600161149f6008600261593e565b6114a99190615a0c565b901b81565b6114bb600d6101006159e9565b60ff166010901b81565b6000611024826000611bff565b600360086114e3600d6101006159e9565b6110f79190615a23565b60006110248233612b21565b6008611508600d6101006159e9565b6115129190615a23565b60ff166006901b81565b60008082604051602001611530919061540a565b604051602081830303815290604052805190602001209050604051602001611567906829bab832b93ab9b2b960b91b815260090190565b6040516020818303038152906040528051906020012081141561158d5750600192915050565b6040516526b4b73a32b960d11b6020820152602601604051602081830303815290604052805190602001208114156115c85750600292915050565b6040516521b0b9ba32b960d11b6020820152602601604051602081830303815290604052805190602001208114156116035750600392915050565b604051692a3930b739b332b932b960b11b6020820152602a01604051602081830303815290604052805190602001208114156116425750600492915050565b6040516921b7b73334b3bab932b960b11b6020820152602a01604051602081830303815290604052805190602001208114156116815750600592915050565b6040516926b0b4b73a30b4b732b960b11b6020820152602a01604051602081830303815290604052805190602001208114156116c05750600692915050565b6040516621b932b0ba37b960c91b6020820152602701604051602081830303815290604052805190602001208114156116fc5750600792915050565b604051662634b6b4ba32b960c91b6020820152602701604051602081830303815290604052805190602001208114156117385750600892915050565b60405165213ab93732b960d11b6020820152602601604051602081830303815290604052805190602001208114156117735750600992915050565b604051682232b9ba3937bcb2b960b91b6020820152602901604051602081830303815290604052805190602001208114156117b15750600a92915050565b604051654f7261636c6560d01b6020820152602601604051602081830303815290604052805190602001208114156117ec5750600b92915050565b60405162461bcd60e51b81526020600482015260126024820152712ab735b737bbb7103937b632903a3cb8329760711b6044820152606401610ff6565b6001600160a01b03851633148061184557506118458533610e82565b6118ac5760405162461bcd60e51b815260206004820152603260248201527f455243313135353a207472616e736665722063616c6c6572206973206e6f74206044820152711bdddb995c881b9bdc88185c1c1c9bdd995960721b6064820152608401610ff6565b6118b98585858585612ffe565b5050505050565b6001600160a01b0382166000908152610196602052604081205482106118f85760405162461bcd60e51b8152600401610ff6906157df565b6001600160a01b03831660009081526101966020526040902080548390811061193157634e487b7160e01b600052603260045260246000fd5b9060005260206000200154905092915050565b6008611953600d6101006159e9565b61195d9190615a23565b60ff166004901b81565b60016008816003808361197d600d6101006159e9565b6119879190615a23565b6119919190615a23565b61199b9190615a23565b6119a59190615a23565b6119af9190615a23565b6119b99190615a23565b60ff1660016119c981600261593e565b6119d39190615a0c565b901b60038060086119e7600d6101006159e9565b6119f19190615a23565b6119fb9190615a23565b611a059190615a23565b60ff166001901b1781565b611a1d600d6101006159e9565b60ff166020901b81565b611a34600d6101006159e9565b60ff16611000901b81565b306001600160a01b037f0000000000000000000000000000000000000000000000000000000000000000161415611a885760405162461bcd60e51b8152600401610ff6906155f7565b7f00000000000000000000000000000000000000000000000000000000000000006001600160a01b0316611ad1600080516020615bd7833981519152546001600160a01b031690565b6001600160a01b031614611af75760405162461bcd60e51b8152600401610ff69061568c565b611b00816131c7565b60408051600080825260208201909252611b1c91839190613251565b50565b6003806008611b31600d6101006159e9565b611b3b9190615a23565b611b459190615a23565b611b4f9190615a23565b60ff166002901b81565b6008611b68600d6101006159e9565b611b729190615a23565b60ff166005901b81565b611b876008836120cc565b80611b955750611b95612e54565b611bfb5760405162461bcd60e51b815260206004820152603160248201527f596f75206d75737420686176652061204c696d6974657220746f6b656e20746f6044820152701031b430b733b29038bab0b73a34ba3c9760791b6064820152608401610ff6565b5050565b6000611c0d6020600261593e565b8210611c5b5760405162461bcd60e51b815260206004820152601f60248201527f496e64696365732063616e206265206174206d6f737420333220626974732e006044820152606401610ff6565b81600184603c811115611c7e57634e487b7160e01b600052602160045260246000fd5b14611c8a576000611ce3565b60016003806008611c9e600d6101006159e9565b611ca89190615a23565b611cb29190615a23565b611cbc9190615a23565b611cc69190615a23565b60ff166001611cd681600261593e565b611ce09190615a0c565b901b5b6008600160038083611cf8600d6101006159e9565b611d029190615a23565b611d0c9190615a23565b611d169190615a23565b611d209190615a23565b611d2a9190615a23565b60ff1685603c811115611d4d57634e487b7160e01b600052602160045260246000fd5b901b6008611d5e600d6101006159e9565b611d689190615a23565b60ff166001901b171717905092915050565b6008611b45600d6101006159e9565b600080611d95856114c5565b90506000611da38583610f8e565b1180611dba57506000611db885858417610f8e565b115b80611e0657506000611e04856003806008611dd8600d6101006159e9565b611de29190615a23565b611dec9190615a23565b611df69190615a23565b60ff166001901b8417610f8e565b115b80611e5457506000611e5285856003806008611e25600d6101006159e9565b611e2f9190615a23565b611e399190615a23565b611e439190615a23565b60ff166001901b851717610f8e565b115b80611ed757506000611ed585600160088160038083611e76600d6101006159e9565b611e809190615a23565b611e8a9190615a23565b611e949190615a23565b611e9e9190615a23565b611ea89190615a23565b611eb29190615a23565b60ff166001611ec281600261593e565b611ecc9190615a0c565b901b8417610f8e565b115b80611f5c57506000611f5a8585600160088160038083611efa600d6101006159e9565b611f049190615a23565b611f0e9190615a23565b611f189190615a23565b611f229190615a23565b611f2c9190615a23565b611f369190615a23565b60ff166001611f4681600261593e565b611f509190615a0c565b901b851717610f8e565b115b80611fea57506000611fe885600160088160038083611f7e600d6101006159e9565b611f889190615a23565b611f929190615a23565b611f9c9190615a23565b611fa69190615a23565b611fb09190615a23565b611fba9190615a23565b60ff166001611fca81600261593e565b611fd49190615a0c565b901b6003806008611e25600d6101006159e9565b115b806120a7575060006120a5858560016008816003808361200d600d6101006159e9565b6120179190615a23565b6120219190615a23565b61202b9190615a23565b6120359190615a23565b61203f9190615a23565b6120499190615a23565b60ff16600161205981600261593e565b6120639190615a0c565b901b6003806008612077600d6101006159e9565b6120819190615a23565b61208b9190615a23565b6120959190615a23565b60ff166001901b86171717610f8e565b115b95945050505050565b60038060086120c2600d6101006159e9565b6114e39190615a23565b60006120d9833384611d89565b9392505050565b600054610100900460ff166120fb5760005460ff16156120ff565b303b155b6121625760405162461bcd60e51b815260206004820152602e60248201527f496e697469616c697a61626c653a20636f6e747261637420697320616c72656160448201526d191e481a5b9a5d1a585b1a5e995960921b6064820152608401610ff6565b600054610100900460ff16158015612184576000805461ffff19166101011790555b61218c6133cb565b6121ca6040518060400160405280602081526020017f4572726f723a2053696e676c6520546f6b656e20555249204e6f7420557365648152506133fa565b6121d261342a565b6121da61342a565b6121e261342a565b6121ee8585858561265d565b80156118b9576000805461ff00191690555050505050565b60036008612217600d6101006159e9565b6122219190615a23565b61222b9190615a23565b60ff166003901b81565b6060815183511461229a5760405162461bcd60e51b815260206004820152602960248201527f455243313135353a206163636f756e747320616e6420696473206c656e677468604482015268040dad2e6dac2e8c6d60bb1b6064820152608401610ff6565b600083516001600160401b038111156122c357634e487b7160e01b600052604160045260246000fd5b6040519080825280602002602001820160405280156122ec578160200160208202803683370190505b50905060005b845181101561238e5761235385828151811061231e57634e487b7160e01b600052603260045260246000fd5b602002602001015185838151811061234657634e487b7160e01b600052603260045260246000fd5b6020026020010151610f8e565b82828151811061237357634e487b7160e01b600052603260045260246000fd5b602090810291909101015261238781615ad9565b90506122f2565b509392505050565b6123a3600d6101006159e9565b60ff16610800901b81565b306001600160a01b037f00000000000000000000000000000000000000000000000000000000000000001614156123f75760405162461bcd60e51b8152600401610ff6906155f7565b7f00000000000000000000000000000000000000000000000000000000000000006001600160a01b0316612440600080516020615bd7833981519152546001600160a01b031690565b6001600160a01b0316146124665760405162461bcd60e51b8152600401610ff69061568c565b61246f826131c7565b611bfb82826001613251565b6101945460009082106124a05760405162461bcd60e51b8152600401610ff6906157df565b6101948054839081106124c357634e487b7160e01b600052603260045260246000fd5b90600052602060002001549050919050565b600360086124e6600d6101006159e9565b6124f09190615a23565b6124fa9190615a23565b60ff166001901b81565b60086124f0600d6101006159e9565b6000306001600160a01b037f000000000000000000000000000000000000000000000000000000000000000016146125b35760405162461bcd60e51b815260206004820152603860248201527f555550535570677261646561626c653a206d757374206e6f742062652063616c60448201527f6c6564207468726f7567682064656c656761746563616c6c00000000000000006064820152608401610ff6565b50600080516020615bd78339815191525b90565b60038060086125d9600d6101006159e9565b6125e39190615a23565b6119539190615a23565b611bfb82826000612cc6565b612606600d6101006159e9565b60ff16610100901b81565b6008612221600d6101006159e9565b6008600160038083612635600d6101006159e9565b61263f9190615a23565b6126499190615a23565b6126539190615a23565b6114849190615a23565b6097546001600160a01b031633146126875760405162461bcd60e51b8152600401610ff6906157aa565b6126946101918585614abd565b506118b96101928383614abd565b6001600160a01b0383163314806126be57506126be8333610e82565b6126da5760405162461bcd60e51b8152600401610ff690615643565b6126e5838383613451565b505050565b60036008611b3b600d6101006159e9565b6097546001600160a01b031633146127255760405162461bcd60e51b8152600401610ff6906157aa565b61272f60006135fe565b565b6000600160088160038083612749600d6101006159e9565b6127539190615a23565b61275d9190615a23565b6127679190615a23565b6127719190615a23565b61277b9190615a23565b6127859190615a23565b60ff16600161279581600261593e565b61279f9190615a0c565b901b6001600881600380836127b7600d6101006159e9565b6127c19190615a23565b6127cb9190615a23565b6127d59190615a23565b6127df9190615a23565b6127e99190615a23565b6127f39190615a23565b60ff16600161280381600261593e565b61280d9190615a0c565b901b851614156128715760405162461bcd60e51b815260206004820152602960248201527f43616e6e6f74206d696e7420696e7465726e616c20746f6b656e732066726f6d6044820152681037baba39b4b2329760b91b6064820152608401610ff6565b60016003806008612885600d6101006159e9565b61288f9190615a23565b6128999190615a23565b6128a39190615a23565b6128ad9190615a23565b60ff166001901b60016003806008600d60ff166101006128cd91906159e9565b6128d79190615a23565b6128e19190615a23565b6128eb9190615a23565b6128f59190615a23565b60ff166001901b8516148015612914575060006129128686610f8e565b115b1561292157506000612931565b61292d85858585613650565b5060015b949350505050565b60016129476020600261593e565b6111019190615a0c565b6008612960600d6101006159e9565b61296a9190615a23565b60ff166008901b81565b6003806008612986600d6101006159e9565b6129909190615a23565b61299a9190615a23565b6129a49190615a23565b60ff16600161149f6003600261593e565b6129c06005846120cc565b806129ce57506129ce612e54565b612a375760405162461bcd60e51b815260206004820152603460248201527f596f75206d7573742068617665206120436f6e6669677572657220746f6b656e604482015273103a379031b430b733b29036b2ba30b230ba309760611b6064820152608401610ff6565b600083815261019360205260409020612a51908383614abd565b50827f6bb7ff708619ba0610cba295a58592e0451dee2622938c8755667688daf3529b8383604051612a84929190615529565b60405180910390a2505050565b60036008612990600d6101006159e9565b6008612ab1600d6101006159e9565b612abb9190615a23565b60ff166114a96008600261593e565b610192805461111290615a72565b600160088160038083612aee600d6101006159e9565b612af89190615a23565b612b029190615a23565b6120c29190615a23565b612b178484846129b5565b61146f8482611b7c565b60006120d983836000611d89565b61195d600d6101006159e9565b610194546000908190612b509060016158e3565b9050806008612b62600d6101006159e9565b612b6c9190615a23565b60ff166009901b179150612b816007836120cc565b80612b8f5750612b8f612e54565b612bf75760405162461bcd60e51b815260206004820152603360248201527f596f75206d757374206861766520612043726561746f7220746f6b656e20746f6044820152721031b932b0ba32903732bb903a37b5b2b7399760691b6064820152608401610ff6565b6101948054600181810183556000929092527fa6f1ac7ad7b125ba5a5e1c96b00ad6914f90a503b1ac3d85a9dadbb4c639df9201839055612c3e9060029085908490613762565b612c4c600584836001613762565b612c5a600884836001613762565b604080518381526001600160a01b03851660208201527f7757890bcab34d673dfca6b71df1b57f75a2fe4231d6e8de726caf534ab1fdd6910160405180910390a150919050565b611bfb33838361391d565b611b4f600d6101006159e9565b61296a600d6101006159e9565b6126e58383836000613762565b60016003806008612ce7600d6101006159e9565b612cf19190615a23565b6124e69190615a23565b6003806008612d0d600d6101006159e9565b6122179190615a23565b6008600160038083612af8600d6101006159e9565b6008612d3b600d6101006159e9565b612d459190615a23565b60ff166007901b81565b6000612d5c600183612b21565b806110245750506097546001600160a01b0391821691161490565b60016003806008612d8b600d6101006159e9565b612d959190615a23565b612d9f9190615a23565b612da99190615a23565b612db39190615a23565b60ff16600161149f81600261593e565b6124fa600d6101006159e9565b612ddd600d6101006159e9565b60ff16600161149f600d600261593e565b612dfb600d6101006159e9565b60ff16610200901b81565b612e13600d6101006159e9565b60ff166040901b81565b60016003806008612b02600d6101006159e9565b6008612e40600d6101006159e9565b612e4a9190615a23565b60ff166009901b81565b6000612e5f33612d4f565b905090565b6000612e5f33612b3c565b6001600160a01b038516331480612e8b5750612e8b8533610e82565b612ea75760405162461bcd60e51b8152600401610ff690615643565b6118b985858585856139fe565b6003806008612cf1600d6101006159e9565b6097546001600160a01b03163314612ef05760405162461bcd60e51b8152600401610ff6906157aa565b6001600160a01b038116612f555760405162461bcd60e51b815260206004820152602660248201527f4f776e61626c653a206e6577206f776e657220697320746865207a65726f206160448201526564647265737360d01b6064820152608401610ff6565b611b1c816135fe565b600160088160038083612f74600d6101006159e9565b612f7e9190615a23565b612d8b9190615a23565b6001600160a01b038316331480612fa45750612fa48333610e82565b612fc05760405162461bcd60e51b8152600401610ff690615643565b6126e5838383613b1f565b611101600d6101006159e9565b612fe5600d6101006159e9565b60ff166080901b81565b6001600160a01b03163b151590565b815183511461301f5760405162461bcd60e51b8152600401610ff690615878565b6001600160a01b0384166130455760405162461bcd60e51b8152600401610ff6906156d8565b33613054818787878787613c24565b60005b845181101561315957600085828151811061308257634e487b7160e01b600052603260045260246000fd5b6020026020010151905060008583815181106130ae57634e487b7160e01b600052603260045260246000fd5b60209081029190910181015160008481526065835260408082206001600160a01b038e1683529093529190912054909150818110156130ff5760405162461bcd60e51b8152600401610ff690615760565b60008381526065602090815260408083206001600160a01b038e8116855292528083208585039055908b1682528120805484929061313e9084906158e3565b925050819055505050508061315290615ad9565b9050613057565b50846001600160a01b0316866001600160a01b0316826001600160a01b03167f4a39dc06d4c0dbc64b70af90fd698a233a518aa5d07e595d983b8c0526c8f7fb87876040516131a99291906154dc565b60405180910390a46131bf818787878787614453565b505050505050565b6131d160066114ed565b806131df57506131df612e54565b611b1c5760405162461bcd60e51b815260206004820152603960248201527f596f75206d75737420686176652061204d61696e7461696e657220746f6b656e60448201527f20746f20757067726164652074686520636f6e74726163742e000000000000006064820152608401610ff6565b7f4910fdfa16fed3260ed0e7147f7cc6da11a60208b5b9406d12a635614ffd91435460ff1615613284576126e5836145be565b826001600160a01b03166352d1902d6040518163ffffffff1660e01b815260040160206040518083038186803b1580156132bd57600080fd5b505afa9250505080156132ed575060408051601f3d908101601f191682019092526132ea9181019061514a565b60015b6133505760405162461bcd60e51b815260206004820152602e60248201527f45524331393637557067726164653a206e657720696d706c656d656e7461746960448201526d6f6e206973206e6f74205555505360901b6064820152608401610ff6565b600080516020615bd783398151915281146133bf5760405162461bcd60e51b815260206004820152602960248201527f45524331393637557067726164653a20756e737570706f727465642070726f786044820152681a58589b195555525160ba1b6064820152608401610ff6565b506126e583838361465a565b600054610100900460ff166133f25760405162461bcd60e51b8152600401610ff69061582d565b61272f61467f565b600054610100900460ff166134215760405162461bcd60e51b8152600401610ff69061582d565b611b1c816146af565b600054610100900460ff1661272f5760405162461bcd60e51b8152600401610ff69061582d565b6001600160a01b0383166134775760405162461bcd60e51b8152600401610ff69061571d565b80518251146134985760405162461bcd60e51b8152600401610ff690615878565b60003390506134bb81856000868660405180602001604052806000815250613c24565b60005b835181101561359f5760008482815181106134e957634e487b7160e01b600052603260045260246000fd5b60200260200101519050600084838151811061351557634e487b7160e01b600052603260045260246000fd5b60209081029190910181015160008481526065835260408082206001600160a01b038c1683529093529190912054909150818110156135665760405162461bcd60e51b8152600401610ff6906155b3565b60009283526065602090815260408085206001600160a01b038b168652909152909220910390558061359781615ad9565b9150506134be565b5060006001600160a01b0316846001600160a01b0316826001600160a01b03167f4a39dc06d4c0dbc64b70af90fd698a233a518aa5d07e595d983b8c0526c8f7fb86866040516135f09291906154dc565b60405180910390a450505050565b609780546001600160a01b038381166001600160a01b0319831681179093556040519116919082907f8be0079c531659141344cd1fd0a4f28419497f9722a3daafe3b4186f6b6457e090600090a35050565b6001600160a01b0384166136b05760405162461bcd60e51b815260206004820152602160248201527f455243313135353a206d696e7420746f20746865207a65726f206164647265736044820152607360f81b6064820152608401610ff6565b336136d0816000876136c1886146df565b6136ca886146df565b87613c24565b60008481526065602090815260408083206001600160a01b0389168452909152812080548592906137029084906158e3565b909155505060408051858152602081018590526001600160a01b0380881692600092918516917fc3d58168c5ae7397731d063d5bbf3d657854427343f4c083240f7aacaa2d0f62910160405180910390a46118b981600087878787614738565b8061387c57600184603c81111561378957634e487b7160e01b600052602160045260246000fd5b14156137fc57613797612e54565b6137f75760405162461bcd60e51b815260206004820152602b60248201527f596f75206d75737420626520612073757065727573657220746f20637265617460448201526a32903732bb9037b732b99760a91b6064820152608401610ff6565b61387c565b6138076003836120cc565b806138155750613815612e54565b61387c5760405162461bcd60e51b815260206004820152603260248201527f596f75206d7573742068617665207468652043617374657220726f6c6520746f6044820152711030b9b9b4b3b7103732bb903937b632b99760711b6064820152608401610ff6565b61146f838261388c5760006138fb565b6001600881600380836138a2600d6101006159e9565b6138ac9190615a23565b6138b69190615a23565b6138c09190615a23565b6138ca9190615a23565b6138d49190615a23565b6138de9190615a23565b60ff1660016138ee81600261593e565b6138f89190615a0c565b901b5b6139058786611bff565b17600160405180602001604052806000815250613650565b816001600160a01b0316836001600160a01b031614156139915760405162461bcd60e51b815260206004820152602960248201527f455243313135353a2073657474696e6720617070726f76616c20737461747573604482015268103337b91039b2b63360b91b6064820152608401610ff6565b6001600160a01b03838116600081815260666020908152604080832094871680845294825291829020805460ff191686151590811790915591519182527f17307eab39ab6107e8899845ad3d59bd9653f200f220920489ca2b5937696c31910160405180910390a3505050565b6001600160a01b038416613a245760405162461bcd60e51b8152600401610ff6906156d8565b33613a348187876136c1886146df565b60008481526065602090815260408083206001600160a01b038a16845290915290205483811015613a775760405162461bcd60e51b8152600401610ff690615760565b60008581526065602090815260408083206001600160a01b038b8116855292528083208785039055908816825281208054869290613ab69084906158e3565b909155505060408051868152602081018690526001600160a01b03808916928a821692918616917fc3d58168c5ae7397731d063d5bbf3d657854427343f4c083240f7aacaa2d0f62910160405180910390a4613b16828888888888614738565b50505050505050565b6001600160a01b038316613b455760405162461bcd60e51b8152600401610ff69061571d565b33613b7481856000613b56876146df565b613b5f876146df565b60405180602001604052806000815250613c24565b60008381526065602090815260408083206001600160a01b038816845290915290205482811015613bb75760405162461bcd60e51b8152600401610ff6906155b3565b60008481526065602090815260408083206001600160a01b03898116808652918452828520888703905582518981529384018890529092908616917fc3d58168c5ae7397731d063d5bbf3d657854427343f4c083240f7aacaa2d0f62910160405180910390a45050505050565b613c2c612e54565b61407e5760005b835181101561407c57600160088160038083613c52600d6101006159e9565b613c5c9190615a23565b613c669190615a23565b613c709190615a23565b613c7a9190615a23565b613c849190615a23565b613c8e9190615a23565b60ff166001613c9e81600261593e565b613ca89190615a0c565b901b600160088160038083613cc0600d6101006159e9565b613cca9190615a23565b613cd49190615a23565b613cde9190615a23565b613ce89190615a23565b613cf29190615a23565b613cfc9190615a23565b60ff166001613d0c81600261593e565b613d169190615a0c565b901b858381518110613d3857634e487b7160e01b600052603260045260246000fd5b6020026020010151161461406c5760006001600160a01b03871615613d5e576004613d61565b60025b9050600281603c811115613d8557634e487b7160e01b600052602160045260246000fd5b1415613f46576008613d9a600d6101006159e9565b613da49190615a23565b600160ff919091161b6008613dbc600d6101006159e9565b613dc69190615a23565b60ff166001613dd76008600261593e565b613de19190615a0c565b901b868481518110613e0357634e487b7160e01b600052603260045260246000fd5b6020026020010151161415613ebd57613e446003868481518110613e3757634e487b7160e01b600052603260045260246000fd5b60200260200101516120cc565b80613e525750613e52612e54565b613eb85760405162461bcd60e51b815260206004820152603160248201527f596f75206d757374206861766520612043617374657220746f6b656e20746f2060448201527036b4b73a103a37b5b2b71033b0ba32b99760791b6064820152608401610ff6565b61406a565b613ee181868481518110613e3757634e487b7160e01b600052603260045260246000fd5b613eb85760405162461bcd60e51b815260206004820152603060248201527f596f75206d75737420686176652061204d696e74657220746f6b656e20746f2060448201526f33b2b732b930ba32903a37b5b2b7399760811b6064820152608401610ff6565b6001600160a01b038616613fdd57613f796009868481518110613e3757634e487b7160e01b600052603260045260246000fd5b613eb85760405162461bcd60e51b815260206004820152602f60248201527f596f75206d75737420686176652061204275726e657220746f6b656e20746f2060448201526e3232b9ba3937bc903a37b5b2b7399760891b6064820152608401610ff6565b61400181868481518110613e3757634e487b7160e01b600052603260045260246000fd5b61406a5760405162461bcd60e51b815260206004820152603460248201527f596f75206d75737420686176652061205472616e73666572657220746f6b656e604482015273103a37903a3930b739b332b9103a37b5b2b7399760611b6064820152608401610ff6565b505b61407581615ad9565b9050613c33565b505b6001600160a01b038416156142a45760005b83518110156142a25761019460010160008583815181106140c157634e487b7160e01b600052603260045260246000fd5b60200260200101518152602001908152602001600020546000141561416d5761019460000184828151811061410657634e487b7160e01b600052603260045260246000fd5b602090810291909101810151825460018101845560009384529183209091015561019454855190916101959187908590811061415257634e487b7160e01b600052603260045260246000fd5b60200260200101518152602001908152602001600020819055505b6101966000866001600160a01b03166001600160a01b0316815260200190815260200160002060010160008583815181106141b857634e487b7160e01b600052603260045260246000fd5b602002602001015181526020019081526020016000205460001415614292576001600160a01b038516600090815261019660205260409020845185908390811061421257634e487b7160e01b600052603260045260246000fd5b602090810291909101810151825460018181018555600094855283852090910191909155610194546001600160a01b0389168452610196909252604083208751929391019187908590811061427757634e487b7160e01b600052603260045260246000fd5b60200260200101518152602001908152602001600020819055505b61429b81615ad9565b9050614090565b505b6001600160a01b038516156144455760005b8351811015614443578281815181106142df57634e487b7160e01b600052603260045260246000fd5b602002602001015161430b8786848151811061234657634e487b7160e01b600052603260045260246000fd5b116144335760006101966000886001600160a01b03166001600160a01b03168152602001908152602001600020600101600086848151811061435d57634e487b7160e01b600052603260045260246000fd5b602002602001015181526020019081526020016000205490506101966000886001600160a01b03166001600160a01b0316815260200190815260200160002060000181815481106143be57634e487b7160e01b600052603260045260246000fd5b90600052602060002001600090556101966000886001600160a01b03166001600160a01b03168152602001908152602001600020600101600086848151811061441757634e487b7160e01b600052603260045260246000fd5b6020026020010151815260200190815260200160002060009055505b61443c81615ad9565b90506142b6565b505b6131bf868686868686614802565b6001600160a01b0384163b156131bf5760405163bc197c8160e01b81526001600160a01b0385169063bc197c81906144979089908990889088908890600401615426565b602060405180830381600087803b1580156144b157600080fd5b505af19250505080156144e1575060408051601f3d908101601f191682019092526144de9181019061517e565b60015b61458e576144ed615b20565b806308c379a014156145275750614502615b37565b8061450d5750614529565b8060405162461bcd60e51b8152600401610ff69190615558565b505b60405162461bcd60e51b815260206004820152603460248201527f455243313135353a207472616e7366657220746f206e6f6e20455243313135356044820152732932b1b2b4bb32b91034b6b83632b6b2b73a32b960611b6064820152608401610ff6565b6001600160e01b0319811663bc197c8160e01b14613b165760405162461bcd60e51b8152600401610ff69061556b565b6001600160a01b0381163b61462b5760405162461bcd60e51b815260206004820152602d60248201527f455243313936373a206e657720696d706c656d656e746174696f6e206973206e60448201526c1bdd08184818dbdb9d1c9858dd609a1b6064820152608401610ff6565b600080516020615bd783398151915280546001600160a01b0319166001600160a01b0392909216919091179055565b61466383614946565b6000825111806146705750805b156126e55761146f8383614986565b600054610100900460ff166146a65760405162461bcd60e51b8152600401610ff69061582d565b61272f336135fe565b600054610100900460ff166146d65760405162461bcd60e51b8152600401610ff69061582d565b611b1c81614a71565b6040805160018082528183019092526060916000919060208083019080368337019050509050828160008151811061472757634e487b7160e01b600052603260045260246000fd5b602090810291909101015292915050565b6001600160a01b0384163b156131bf5760405163f23a6e6160e01b81526001600160a01b0385169063f23a6e619061477c9089908990889088908890600401615484565b602060405180830381600087803b15801561479657600080fd5b505af19250505080156147c6575060408051601f3d908101601f191682019092526147c39181019061517e565b60015b6147d2576144ed615b20565b6001600160e01b0319811663f23a6e6160e01b14613b165760405162461bcd60e51b8152600401610ff69061556b565b6001600160a01b0385166148a55760005b83518110156148a35782818151811061483c57634e487b7160e01b600052603260045260246000fd5b602002602001015160fb600086848151811061486857634e487b7160e01b600052603260045260246000fd5b60200260200101518152602001908152602001600020600082825461488d91906158e3565b9091555061489c905081615ad9565b9050614813565b505b6001600160a01b0384166131bf5760005b8351811015613b16578281815181106148df57634e487b7160e01b600052603260045260246000fd5b602002602001015160fb600086848151811061490b57634e487b7160e01b600052603260045260246000fd5b6020026020010151815260200190815260200160002060008282546149309190615a0c565b9091555061493f905081615ad9565b90506148b6565b61494f816145be565b6040516001600160a01b038216907fbc7cd75a20ee27fd9adebab32041f755214dbc6bffa90cc0225b39da2e5c2d3b90600090a250565b60606001600160a01b0383163b6149ee5760405162461bcd60e51b815260206004820152602660248201527f416464726573733a2064656c65676174652063616c6c20746f206e6f6e2d636f6044820152651b9d1c9858dd60d21b6064820152608401610ff6565b600080846001600160a01b031684604051614a09919061540a565b600060405180830381855af49150503d8060008114614a44576040519150601f19603f3d011682016040523d82523d6000602084013e614a49565b606091505b50915091506120a78282604051806060016040528060278152602001615bf760279139614a84565b8051611bfb906067906020840190614b41565b60608315614a935750816120d9565b825115614aa35782518084602001fd5b8160405162461bcd60e51b8152600401610ff69190615558565b828054614ac990615a72565b90600052602060002090601f016020900481019282614aeb5760008555614b31565b82601f10614b045782800160ff19823516178555614b31565b82800160010185558215614b31579182015b82811115614b31578235825591602001919060010190614b16565b50614b3d929150614bb5565b5090565b828054614b4d90615a72565b90600052602060002090601f016020900481019282614b6f5760008555614b31565b82601f10614b8857805160ff1916838001178555614b31565b82800160010185558215614b31579182015b82811115614b31578251825591602001919060010190614b9a565b5b80821115614b3d5760008155600101614bb6565b60006001600160401b03831115614be357614be3615b0a565b604051614bfa601f8501601f191660200182615aad565b809150838152848484011115614c0f57600080fd5b83836020830137600060208583010152509392505050565b80356001600160a01b03811681146110e357600080fd5b600082601f830112614c4e578081fd5b81356020614c5b826158c0565b604051614c688282615aad565b8381528281019150858301600585901b87018401881015614c87578586fd5b855b85811015614cac57614c9a82614c27565b84529284019290840190600101614c89565b5090979650505050505050565b600082601f830112614cc9578081fd5b81356020614cd6826158c0565b604051614ce38282615aad565b8381528281019150858301600585901b87018401881015614d02578586fd5b855b85811015614cac57813584529284019290840190600101614d04565b600082601f830112614d30578081fd5b6120d983833560208501614bca565b8035603d81106110e357600080fd5b60008083601f840112614d5f578182fd5b5081356001600160401b03811115614d75578182fd5b602083019150836020828501011115614d8d57600080fd5b9250929050565b600060208284031215614da5578081fd5b6120d982614c27565b60008060408385031215614dc0578081fd5b614dc983614c27565b9150614dd760208401614c27565b90509250929050565b600080600080600060a08688031215614df7578081fd5b614e0086614c27565b9450614e0e60208701614c27565b935060408601356001600160401b0380821115614e29578283fd5b614e3589838a01614cb9565b94506060880135915080821115614e4a578283fd5b614e5689838a01614cb9565b93506080880135915080821115614e6b578283fd5b50614e7888828901614d20565b9150509295509295909350565b600080600080600060a08688031215614e9c578081fd5b614ea586614c27565b9450614eb360208701614c27565b9350604086013592506060860135915060808601356001600160401b03811115614edb578182fd5b614e7888828901614d20565b600080600060608486031215614efb578283fd5b614f0484614c27565b925060208401356001600160401b0380821115614f1f578384fd5b614f2b87838801614cb9565b93506040860135915080821115614f40578283fd5b50614f4d86828701614cb9565b9150509250925092565b60008060408385031215614f69578182fd5b614f7283614c27565b915060208301358015158114614f86578182fd5b809150509250929050565b60008060408385031215614fa3578182fd5b614fac83614c27565b915060208301356001600160401b03811115614fc6578182fd5b614fd285828601614d20565b9150509250929050565b60008060408385031215614fee578182fd5b614ff783614c27565b946020939093013593505050565b600080600060608486031215615019578081fd5b61502284614c27565b95602085013595506040909401359392505050565b6000806000806080858703121561504c578182fd5b61505585614c27565b9350602085013592506040850135915060608501356001600160401b0381111561507d578182fd5b61508987828801614d20565b91505092959194509250565b600080604083850312156150a7578182fd5b82356001600160401b03808211156150bd578384fd5b6150c986838701614c3e565b935060208501359150808211156150de578283fd5b50614fd285828601614cb9565b6000806000606084860312156150ff578081fd5b83356001600160401b0380821115615115578283fd5b61512187838801614c3e565b945060208601359350604086013591508082111561513d578283fd5b50614f4d86828701614d20565b60006020828403121561515b578081fd5b5051919050565b600060208284031215615173578081fd5b81356120d981615bc0565b60006020828403121561518f578081fd5b81516120d981615bc0565b6000602082840312156151ab578081fd5b6120d982614d3f565b600080604083850312156151c6578182fd5b614dc983614d3f565b6000806000606084860312156151e3578081fd5b6151ec84614d3f565b92506151fa60208501614c27565b9150604084013590509250925092565b6000806040838503121561521c578182fd5b614ff783614d3f565b6000806000806040858703121561523a578182fd5b84356001600160401b0380821115615250578384fd5b61525c88838901614d4e565b90965094506020870135915080821115615274578384fd5b5061528187828801614d4e565b95989497509550505050565b60006020828403121561529e578081fd5b81356001600160401b038111156152b3578182fd5b8201601f810184136152c3578182fd5b61293184823560208401614bca565b6000602082840312156152e3578081fd5b5035919050565b6000806000604084860312156152fe578081fd5b8335925060208401356001600160401b0381111561531a578182fd5b61532686828701614d4e565b9497909650939450505050565b60008060008060608587031215615348578182fd5b8435935060208501356001600160401b03811115615364578283fd5b61537087828801614d4e565b9598909750949560400135949350505050565b60008060408385031215615395578182fd5b50508035926020909101359150565b6000815180845260208085019450808401835b838110156153d3578151875295820195908201906001016153b7565b509495945050505050565b600081518084526153f6816020860160208601615a46565b601f01601f19169290920160200192915050565b6000825161541c818460208701615a46565b9190910192915050565b6001600160a01b0386811682528516602082015260a060408201819052600090615452908301866153a4565b828103606084015261546481866153a4565b9050828103608084015261547881856153de565b98975050505050505050565b6001600160a01b03868116825285166020820152604081018490526060810183905260a0608082018190526000906154be908301846153de565b979650505050505050565b6020815260006120d960208301846153a4565b6040815260006154ef60408301856153a4565b82810360208401526120a781856153a4565b60208101603d831061552357634e487b7160e01b600052602160045260246000fd5b91905290565b60208152816020820152818360408301376000818301604090810191909152601f909201601f19160101919050565b6020815260006120d960208301846153de565b60208082526028908201527f455243313135353a204552433131353552656365697665722072656a656374656040820152676420746f6b656e7360c01b606082015260800190565b60208082526024908201527f455243313135353a206275726e20616d6f756e7420657863656564732062616c604082015263616e636560e01b606082015260800190565b6020808252602c908201527f46756e6374696f6e206d7573742062652063616c6c6564207468726f7567682060408201526b19195b1959d85d1958d85b1b60a21b606082015260800190565b60208082526029908201527f455243313135353a2063616c6c6572206973206e6f74206f776e6572206e6f7260408201526808185c1c1c9bdd995960ba1b606082015260800190565b6020808252602c908201527f46756e6374696f6e206d7573742062652063616c6c6564207468726f7567682060408201526b6163746976652070726f787960a01b606082015260800190565b60208082526025908201527f455243313135353a207472616e7366657220746f20746865207a65726f206164604082015264647265737360d81b606082015260800190565b60208082526023908201527f455243313135353a206275726e2066726f6d20746865207a65726f206164647260408201526265737360e81b606082015260800190565b6020808252602a908201527f455243313135353a20696e73756666696369656e742062616c616e636520666f60408201526939103a3930b739b332b960b11b606082015260800190565b6020808252818101527f4f776e61626c653a2063616c6c6572206973206e6f7420746865206f776e6572604082015260600190565b6020808252602e908201527f4552432d3131353520456e756d657261626c653a20746f6b656e20696e64657860408201526d206f7574206f6620626f756e647360901b606082015260800190565b6020808252602b908201527f496e697469616c697a61626c653a20636f6e7472616374206973206e6f74206960408201526a6e697469616c697a696e6760a81b606082015260800190565b60208082526028908201527f455243313135353a2069647320616e6420616d6f756e7473206c656e677468206040820152670dad2e6dac2e8c6d60c31b606082015260800190565b60006001600160401b038211156158d9576158d9615b0a565b5060051b60200190565b600082198211156158f6576158f6615af4565b500190565b600181815b8085111561593657816000190482111561591c5761591c615af4565b8085161561592957918102915b93841c9390800290615900565b509250929050565b60006120d960ff84168360008261595757506001611024565b8161596457506000611024565b816001811461597a5760028114615984576159a0565b6001915050611024565b60ff84111561599557615995615af4565b50506001821b611024565b5060208310610133831016604e8410600b84101617156159c3575081810a611024565b6159cd83836158fb565b80600019048211156159e1576159e1615af4565b029392505050565b600061ffff83811690831681811015615a0457615a04615af4565b039392505050565b600082821015615a1e57615a1e615af4565b500390565b600060ff821660ff841680821015615a3d57615a3d615af4565b90039392505050565b60005b83811015615a61578181015183820152602001615a49565b8381111561146f5750506000910152565b600181811c90821680615a8657607f821691505b60208210811415615aa757634e487b7160e01b600052602260045260246000fd5b50919050565b601f8201601f191681016001600160401b0381118282101715615ad257615ad2615b0a565b6040525050565b6000600019821415615aed57615aed615af4565b5060010190565b634e487b7160e01b600052601160045260246000fd5b634e487b7160e01b600052604160045260246000fd5b600060033d11156125c457600481823e5160e01c90565b600060443d1015615b455790565b6040516003193d81016004833e81513d6001600160401b038160248401118184111715615b7457505050505090565b8285019150815181811115615b8c5750505050505090565b843d8701016020828501011115615ba65750505050505090565b615bb560208286010187615aad565b509095945050505050565b6001600160e01b031981168114611b1c57600080fdfe360894a13ba1a3210667c828492db98dca3e2076cc3735a920a3ca505d382bbc416464726573733a206c6f772d6c6576656c2064656c65676174652063616c6c206661696c6564a2646970667358221220468ed9807dffb678ae94cefb80f2ce7e28809dcd0600bc56c8fec9eaad2a7a8b64736f6c63430008040033",
  "linkReferences": {},
  "deployedLinkReferences": {}
}