{
  "_format": "hh-sol-artifact-1",
  "contractName": "BulkDisbursableNFTs",
  "sourceName": "src/BulkDisbursableNFTs.sol",
  "abi": [
    {
      "inputs": [],
      "stateMutability": "nonpayable",
      "type": "constructor"
    },
    {
      "anonymous": false,
      "inputs": [
        {
          "indexed": false,
          "internalType": "address",
          "name": "previousAdmin",
          "type": "address"
        },
        {
          "indexed": false,
          "internalType": "address",
          "name": "newAdmin",
          "type": "address"
        }
      ],
      "name": "AdminChanged",
      "type": "event"
    },
    {
      "anonymous": false,
      "inputs": [
        {
          "indexed": true,
          "internalType": "address",
          "name": "account",
          "type": "address"
        },
        {
          "indexed": true,
          "internalType": "address",
          "name": "operator",
          "type": "address"
        },
        {
          "indexed": false,
          "internalType": "bool",
          "name": "approved",
          "type": "bool"
        }
      ],
      "name": "ApprovalForAll",
      "type": "event"
    },
    {
      "anonymous": false,
      "inputs": [
        {
          "indexed": true,
          "internalType": "address",
          "name": "beacon",
          "type": "address"
        }
      ],
      "name": "BeaconUpgraded",
      "type": "event"
    },
    {
      "anonymous": false,
      "inputs": [
        {
          "indexed": false,
          "internalType": "uint256",
          "name": "id",
          "type": "uint256"
        },
        {
          "indexed": false,
          "internalType": "address",
          "name": "controller",
          "type": "address"
        }
      ],
      "name": "Created",
      "type": "event"
    },
    {
      "anonymous": false,
      "inputs": [
        {
          "indexed": true,
          "internalType": "address",
          "name": "previousOwner",
          "type": "address"
        },
        {
          "indexed": true,
          "internalType": "address",
          "name": "newOwner",
          "type": "address"
        }
      ],
      "name": "OwnershipTransferred",
      "type": "event"
    },
    {
      "anonymous": false,
      "inputs": [
        {
          "indexed": true,
          "internalType": "address",
          "name": "operator",
          "type": "address"
        },
        {
          "indexed": true,
          "internalType": "address",
          "name": "from",
          "type": "address"
        },
        {
          "indexed": true,
          "internalType": "address",
          "name": "to",
          "type": "address"
        },
        {
          "indexed": false,
          "internalType": "uint256[]",
          "name": "ids",
          "type": "uint256[]"
        },
        {
          "indexed": false,
          "internalType": "uint256[]",
          "name": "values",
          "type": "uint256[]"
        }
      ],
      "name": "TransferBatch",
      "type": "event"
    },
    {
      "anonymous": false,
      "inputs": [
        {
          "indexed": true,
          "internalType": "address",
          "name": "operator",
          "type": "address"
        },
        {
          "indexed": true,
          "internalType": "address",
          "name": "from",
          "type": "address"
        },
        {
          "indexed": true,
          "internalType": "address",
          "name": "to",
          "type": "address"
        },
        {
          "indexed": false,
          "internalType": "uint256",
          "name": "id",
          "type": "uint256"
        },
        {
          "indexed": false,
          "internalType": "uint256",
          "name": "value",
          "type": "uint256"
        }
      ],
      "name": "TransferSingle",
      "type": "event"
    },
    {
      "anonymous": false,
      "inputs": [
        {
          "indexed": false,
          "internalType": "string",
          "name": "value",
          "type": "string"
        },
        {
          "indexed": true,
          "internalType": "uint256",
          "name": "id",
          "type": "uint256"
        }
      ],
      "name": "URI",
      "type": "event"
    },
    {
      "anonymous": false,
      "inputs": [
        {
          "indexed": true,
          "internalType": "address",
          "name": "implementation",
          "type": "address"
        }
      ],
      "name": "Upgraded",
      "type": "event"
    },
    {
      "inputs": [],
      "name": "ADDRESS_TYPE",
      "outputs": [
        {
          "internalType": "uint256",
          "name": "",
          "type": "uint256"
        }
      ],
      "stateMutability": "view",
      "type": "function"
    },
    {
      "inputs": [],
      "name": "COUNTER_WIDTH",
      "outputs": [
        {
          "internalType": "uint8",
          "name": "",
          "type": "uint8"
        }
      ],
      "stateMutability": "view",
      "type": "function"
    },
    {
      "inputs": [],
      "name": "EXPERIMENTAL_TYPE",
      "outputs": [
        {
          "internalType": "uint256",
          "name": "",
          "type": "uint256"
        }
      ],
      "stateMutability": "view",
      "type": "function"
    },
    {
      "inputs": [],
      "name": "GATING_TYPE",
      "outputs": [
        {
          "internalType": "uint256",
          "name": "",
          "type": "uint256"
        }
      ],
      "stateMutability": "view",
      "type": "function"
    },
    {
      "inputs": [],
      "name": "MEMBERSHIP_TYPE",
      "outputs": [
        {
          "internalType": "uint256",
          "name": "",
          "type": "uint256"
        }
      ],
      "stateMutability": "view",
      "type": "function"
    },
    {
      "inputs": [],
      "name": "REACTION_TYPE",
      "outputs": [
        {
          "internalType": "uint256",
          "name": "",
          "type": "uint256"
        }
      ],
      "stateMutability": "view",
      "type": "function"
    },
    {
      "inputs": [],
      "name": "RECORDED_TIME_TYPE",
      "outputs": [
        {
          "internalType": "uint256",
          "name": "",
          "type": "uint256"
        }
      ],
      "stateMutability": "view",
      "type": "function"
    },
    {
      "inputs": [],
      "name": "RECORDING_TYPE",
      "outputs": [
        {
          "internalType": "uint256",
          "name": "",
          "type": "uint256"
        }
      ],
      "stateMutability": "view",
      "type": "function"
    },
    {
      "inputs": [],
      "name": "REPETITION_BOUNDARY",
      "outputs": [
        {
          "internalType": "uint8",
          "name": "",
          "type": "uint8"
        }
      ],
      "stateMutability": "view",
      "type": "function"
    },
    {
      "inputs": [],
      "name": "REPETITION_WIDTH",
      "outputs": [
        {
          "internalType": "uint8",
          "name": "",
          "type": "uint8"
        }
      ],
      "stateMutability": "view",
      "type": "function"
    },
    {
      "inputs": [],
      "name": "REQUIREMENT_BOUNDARY",
      "outputs": [
        {
          "internalType": "uint8",
          "name": "",
          "type": "uint8"
        }
      ],
      "stateMutability": "view",
      "type": "function"
    },
    {
      "inputs": [],
      "name": "REQUIREMENT_WIDTH",
      "outputs": [
        {
          "internalType": "uint8",
          "name": "",
          "type": "uint8"
        }
      ],
      "stateMutability": "view",
      "type": "function"
    },
    {
      "inputs": [],
      "name": "REQUIRE_ALL",
      "outputs": [
        {
          "internalType": "uint256",
          "name": "",
          "type": "uint256"
        }
      ],
      "stateMutability": "view",
      "type": "function"
    },
    {
      "inputs": [],
      "name": "REQUIRE_NONE",
      "outputs": [
        {
          "internalType": "uint256",
          "name": "",
          "type": "uint256"
        }
      ],
      "stateMutability": "view",
      "type": "function"
    },
    {
      "inputs": [],
      "name": "REQUIRE_ONE",
      "outputs": [
        {
          "internalType": "uint256",
          "name": "",
          "type": "uint256"
        }
      ],
      "stateMutability": "view",
      "type": "function"
    },
    {
      "inputs": [],
      "name": "REVIEW_TYPE",
      "outputs": [
        {
          "internalType": "uint256",
          "name": "",
          "type": "uint256"
        }
      ],
      "stateMutability": "view",
      "type": "function"
    },
    {
      "inputs": [],
      "name": "ROLE_BOUNDARY",
      "outputs": [
        {
          "internalType": "uint8",
          "name": "",
          "type": "uint8"
        }
      ],
      "stateMutability": "view",
      "type": "function"
    },
    {
      "inputs": [],
      "name": "ROLE_WIDTH",
      "outputs": [
        {
          "internalType": "uint8",
          "name": "",
          "type": "uint8"
        }
      ],
      "stateMutability": "view",
      "type": "function"
    },
    {
      "inputs": [],
      "name": "TEAM_1",
      "outputs": [
        {
          "internalType": "uint256",
          "name": "",
          "type": "uint256"
        }
      ],
      "stateMutability": "view",
      "type": "function"
    },
    {
      "inputs": [],
      "name": "TEAM_2",
      "outputs": [
        {
          "internalType": "uint256",
          "name": "",
          "type": "uint256"
        }
      ],
      "stateMutability": "view",
      "type": "function"
    },
    {
      "inputs": [],
      "name": "TEAM_3",
      "outputs": [
        {
          "internalType": "uint256",
          "name": "",
          "type": "uint256"
        }
      ],
      "stateMutability": "view",
      "type": "function"
    },
    {
      "inputs": [],
      "name": "TEAM_4",
      "outputs": [
        {
          "internalType": "uint256",
          "name": "",
          "type": "uint256"
        }
      ],
      "stateMutability": "view",
      "type": "function"
    },
    {
      "inputs": [],
      "name": "TEAM_5",
      "outputs": [
        {
          "internalType": "uint256",
          "name": "",
          "type": "uint256"
        }
      ],
      "stateMutability": "view",
      "type": "function"
    },
    {
      "inputs": [],
      "name": "TEAM_6",
      "outputs": [
        {
          "internalType": "uint256",
          "name": "",
          "type": "uint256"
        }
      ],
      "stateMutability": "view",
      "type": "function"
    },
    {
      "inputs": [],
      "name": "TEAM_7",
      "outputs": [
        {
          "internalType": "uint256",
          "name": "",
          "type": "uint256"
        }
      ],
      "stateMutability": "view",
      "type": "function"
    },
    {
      "inputs": [],
      "name": "TEAM_8",
      "outputs": [
        {
          "internalType": "uint256",
          "name": "",
          "type": "uint256"
        }
      ],
      "stateMutability": "view",
      "type": "function"
    },
    {
      "inputs": [],
      "name": "TEAM_9",
      "outputs": [
        {
          "internalType": "uint256",
          "name": "",
          "type": "uint256"
        }
      ],
      "stateMutability": "view",
      "type": "function"
    },
    {
      "inputs": [],
      "name": "TEAM_A",
      "outputs": [
        {
          "internalType": "uint256",
          "name": "",
          "type": "uint256"
        }
      ],
      "stateMutability": "view",
      "type": "function"
    },
    {
      "inputs": [],
      "name": "TEAM_B",
      "outputs": [
        {
          "internalType": "uint256",
          "name": "",
          "type": "uint256"
        }
      ],
      "stateMutability": "view",
      "type": "function"
    },
    {
      "inputs": [],
      "name": "TEAM_BOUNDARY",
      "outputs": [
        {
          "internalType": "uint8",
          "name": "",
          "type": "uint8"
        }
      ],
      "stateMutability": "view",
      "type": "function"
    },
    {
      "inputs": [],
      "name": "TEAM_C",
      "outputs": [
        {
          "internalType": "uint256",
          "name": "",
          "type": "uint256"
        }
      ],
      "stateMutability": "view",
      "type": "function"
    },
    {
      "inputs": [],
      "name": "TEAM_D",
      "outputs": [
        {
          "internalType": "uint256",
          "name": "",
          "type": "uint256"
        }
      ],
      "stateMutability": "view",
      "type": "function"
    },
    {
      "inputs": [],
      "name": "TEAM_WIDTH",
      "outputs": [
        {
          "internalType": "uint8",
          "name": "",
          "type": "uint8"
        }
      ],
      "stateMutability": "view",
      "type": "function"
    },
    {
      "inputs": [],
      "name": "TYPE_BOUNDARY",
      "outputs": [
        {
          "internalType": "uint8",
          "name": "",
          "type": "uint8"
        }
      ],
      "stateMutability": "view",
      "type": "function"
    },
    {
      "inputs": [],
      "name": "TYPE_WIDTH",
      "outputs": [
        {
          "internalType": "uint8",
          "name": "",
          "type": "uint8"
        }
      ],
      "stateMutability": "view",
      "type": "function"
    },
    {
      "inputs": [],
      "name": "UNIQUE",
      "outputs": [
        {
          "internalType": "uint256",
          "name": "",
          "type": "uint256"
        }
      ],
      "stateMutability": "view",
      "type": "function"
    },
    {
      "inputs": [],
      "name": "UNIQUENESS_BOUNDARY",
      "outputs": [
        {
          "internalType": "uint8",
          "name": "",
          "type": "uint8"
        }
      ],
      "stateMutability": "view",
      "type": "function"
    },
    {
      "inputs": [],
      "name": "UNIQUENESS_WIDTH",
      "outputs": [
        {
          "internalType": "uint8",
          "name": "",
          "type": "uint8"
        }
      ],
      "stateMutability": "view",
      "type": "function"
    },
    {
      "inputs": [],
      "name": "USE_AFTER",
      "outputs": [
        {
          "internalType": "uint256",
          "name": "",
          "type": "uint256"
        }
      ],
      "stateMutability": "view",
      "type": "function"
    },
    {
      "inputs": [],
      "name": "USE_ONCE",
      "outputs": [
        {
          "internalType": "uint256",
          "name": "",
          "type": "uint256"
        }
      ],
      "stateMutability": "view",
      "type": "function"
    },
    {
      "inputs": [],
      "name": "USE_UNLIMITED",
      "outputs": [
        {
          "internalType": "uint256",
          "name": "",
          "type": "uint256"
        }
      ],
      "stateMutability": "view",
      "type": "function"
    },
    {
      "inputs": [],
      "name": "USE_UNTIL",
      "outputs": [
        {
          "internalType": "uint256",
          "name": "",
          "type": "uint256"
        }
      ],
      "stateMutability": "view",
      "type": "function"
    },
    {
      "inputs": [],
      "name": "VANILLA_TYPE",
      "outputs": [
        {
          "internalType": "uint256",
          "name": "",
          "type": "uint256"
        }
      ],
      "stateMutability": "view",
      "type": "function"
    },
    {
      "inputs": [],
      "name": "VOUCHED_TIME_TYPE",
      "outputs": [
        {
          "internalType": "uint256",
          "name": "",
          "type": "uint256"
        }
      ],
      "stateMutability": "view",
      "type": "function"
    },
    {
      "inputs": [
        {
          "internalType": "address",
          "name": "account",
          "type": "address"
        },
        {
          "internalType": "uint256",
          "name": "id",
          "type": "uint256"
        }
      ],
      "name": "balanceOf",
      "outputs": [
        {
          "internalType": "uint256",
          "name": "",
          "type": "uint256"
        }
      ],
      "stateMutability": "view",
      "type": "function"
    },
    {
      "inputs": [
        {
          "internalType": "address[]",
          "name": "accounts",
          "type": "address[]"
        },
        {
          "internalType": "uint256[]",
          "name": "ids",
          "type": "uint256[]"
        }
      ],
      "name": "balanceOfBatch",
      "outputs": [
        {
          "internalType": "uint256[]",
          "name": "",
          "type": "uint256[]"
        }
      ],
      "stateMutability": "view",
      "type": "function"
    },
    {
      "inputs": [
        {
          "internalType": "address",
          "name": "account",
          "type": "address"
        },
        {
          "internalType": "uint256",
          "name": "id",
          "type": "uint256"
        },
        {
          "internalType": "uint256",
          "name": "value",
          "type": "uint256"
        }
      ],
      "name": "burn",
      "outputs": [],
      "stateMutability": "nonpayable",
      "type": "function"
    },
    {
      "inputs": [
        {
          "internalType": "address",
          "name": "account",
          "type": "address"
        },
        {
          "internalType": "uint256[]",
          "name": "ids",
          "type": "uint256[]"
        },
        {
          "internalType": "uint256[]",
          "name": "values",
          "type": "uint256[]"
        }
      ],
      "name": "burnBatch",
      "outputs": [],
      "stateMutability": "nonpayable",
      "type": "function"
    },
    {
      "inputs": [
        {
          "internalType": "uint256",
          "name": "id",
          "type": "uint256"
        },
        {
          "internalType": "string",
          "name": "newURI",
          "type": "string"
        },
        {
          "internalType": "uint256",
          "name": "max",
          "type": "uint256"
        }
      ],
      "name": "configure",
      "outputs": [],
      "stateMutability": "nonpayable",
      "type": "function"
    },
    {
      "inputs": [
        {
          "internalType": "address",
          "name": "maintainer",
          "type": "address"
        }
      ],
      "name": "create",
      "outputs": [
        {
          "internalType": "uint256",
          "name": "id",
          "type": "uint256"
        }
      ],
      "stateMutability": "nonpayable",
      "type": "function"
    },
    {
      "inputs": [],
      "name": "create",
      "outputs": [
        {
          "internalType": "uint256",
          "name": "id",
          "type": "uint256"
        }
      ],
      "stateMutability": "nonpayable",
      "type": "function"
    },
    {
      "inputs": [
        {
          "internalType": "uint256",
          "name": "id",
          "type": "uint256"
        }
      ],
      "name": "exists",
      "outputs": [
        {
          "internalType": "bool",
          "name": "",
          "type": "bool"
        }
      ],
      "stateMutability": "view",
      "type": "function"
    },
    {
      "inputs": [
        {
          "internalType": "enum BulkDisbursableNFTs.Role",
          "name": "role",
          "type": "uint8"
        },
        {
          "internalType": "address",
          "name": "user",
          "type": "address"
        }
      ],
      "name": "grantRole",
      "outputs": [
        {
          "internalType": "bool",
          "name": "added",
          "type": "bool"
        }
      ],
      "stateMutability": "nonpayable",
      "type": "function"
    },
    {
      "inputs": [
        {
          "internalType": "enum BulkDisbursableNFTs.Role",
          "name": "role",
          "type": "uint8"
        },
        {
          "internalType": "address",
          "name": "user",
          "type": "address"
        },
        {
          "internalType": "uint256",
          "name": "id",
          "type": "uint256"
        }
      ],
      "name": "grantRole",
      "outputs": [
        {
          "internalType": "bool",
          "name": "added",
          "type": "bool"
        }
      ],
      "stateMutability": "nonpayable",
      "type": "function"
    },
    {
      "inputs": [
        {
          "internalType": "enum BulkDisbursableNFTs.Role",
          "name": "role",
          "type": "uint8"
        }
      ],
      "name": "hasRole",
      "outputs": [
        {
          "internalType": "bool",
          "name": "has",
          "type": "bool"
        }
      ],
      "stateMutability": "view",
      "type": "function"
    },
    {
      "inputs": [
        {
          "internalType": "enum BulkDisbursableNFTs.Role",
          "name": "role",
          "type": "uint8"
        },
        {
          "internalType": "address",
          "name": "user",
          "type": "address"
        },
        {
          "internalType": "uint256",
          "name": "id",
          "type": "uint256"
        }
      ],
      "name": "hasRole",
      "outputs": [
        {
          "internalType": "bool",
          "name": "has",
          "type": "bool"
        }
      ],
      "stateMutability": "view",
      "type": "function"
    },
    {
      "inputs": [
        {
          "internalType": "enum BulkDisbursableNFTs.Role",
          "name": "role",
          "type": "uint8"
        },
        {
          "internalType": "uint256",
          "name": "id",
          "type": "uint256"
        }
      ],
      "name": "hasRole",
      "outputs": [
        {
          "internalType": "bool",
          "name": "has",
          "type": "bool"
        }
      ],
      "stateMutability": "view",
      "type": "function"
    },
    {
      "inputs": [
        {
          "internalType": "enum BulkDisbursableNFTs.Role",
          "name": "role",
          "type": "uint8"
        },
        {
          "internalType": "address",
          "name": "user",
          "type": "address"
        }
      ],
      "name": "hasRole",
      "outputs": [
        {
          "internalType": "bool",
          "name": "has",
          "type": "bool"
        }
      ],
      "stateMutability": "view",
      "type": "function"
    },
    {
      "inputs": [
        {
          "internalType": "string",
          "name": "_name",
          "type": "string"
        },
        {
          "internalType": "string",
          "name": "_symbol",
          "type": "string"
        }
      ],
      "name": "initialize",
      "outputs": [],
      "stateMutability": "nonpayable",
      "type": "function"
    },
    {
      "inputs": [
        {
          "internalType": "address",
          "name": "account",
          "type": "address"
        },
        {
          "internalType": "address",
          "name": "operator",
          "type": "address"
        }
      ],
      "name": "isApprovedForAll",
      "outputs": [
        {
          "internalType": "bool",
          "name": "",
          "type": "bool"
        }
      ],
      "stateMutability": "view",
      "type": "function"
    },
    {
      "inputs": [
        {
          "internalType": "address",
          "name": "user",
          "type": "address"
        }
      ],
      "name": "isSuper",
      "outputs": [
        {
          "internalType": "bool",
          "name": "superuser",
          "type": "bool"
        }
      ],
      "stateMutability": "view",
      "type": "function"
    },
    {
      "inputs": [],
      "name": "isSuper",
      "outputs": [
        {
          "internalType": "bool",
          "name": "superuser",
          "type": "bool"
        }
      ],
      "stateMutability": "view",
      "type": "function"
    },
    {
      "inputs": [
        {
          "internalType": "address[]",
          "name": "to",
          "type": "address[]"
        },
        {
          "internalType": "uint256",
          "name": "id",
          "type": "uint256"
        },
        {
          "internalType": "bytes",
          "name": "data",
          "type": "bytes"
        }
      ],
      "name": "mint",
      "outputs": [],
      "stateMutability": "nonpayable",
      "type": "function"
    },
    {
      "inputs": [
        {
          "internalType": "address",
          "name": "recipient",
          "type": "address"
        },
        {
          "internalType": "uint256",
          "name": "id",
          "type": "uint256"
        },
        {
          "internalType": "uint256",
          "name": "amount",
          "type": "uint256"
        },
        {
          "internalType": "bytes",
          "name": "data",
          "type": "bytes"
        }
      ],
      "name": "mint",
      "outputs": [
        {
          "internalType": "bool",
          "name": "minted",
          "type": "bool"
        }
      ],
      "stateMutability": "nonpayable",
      "type": "function"
    },
    {
      "inputs": [],
      "name": "name",
      "outputs": [
        {
          "internalType": "string",
          "name": "",
          "type": "string"
        }
      ],
      "stateMutability": "view",
      "type": "function"
    },
    {
      "inputs": [],
      "name": "owner",
      "outputs": [
        {
          "internalType": "address",
          "name": "",
          "type": "address"
        }
      ],
      "stateMutability": "view",
      "type": "function"
    },
    {
      "inputs": [],
      "name": "proxiableUUID",
      "outputs": [
        {
          "internalType": "bytes32",
          "name": "",
          "type": "bytes32"
        }
      ],
      "stateMutability": "view",
      "type": "function"
    },
    {
      "inputs": [],
      "name": "renounceOwnership",
      "outputs": [],
      "stateMutability": "nonpayable",
      "type": "function"
    },
    {
      "inputs": [
        {
          "internalType": "enum BulkDisbursableNFTs.Role",
          "name": "role",
          "type": "uint8"
        }
      ],
      "name": "roleToken",
      "outputs": [
        {
          "internalType": "uint256",
          "name": "tokenId",
          "type": "uint256"
        }
      ],
      "stateMutability": "view",
      "type": "function"
    },
    {
      "inputs": [
        {
          "internalType": "enum BulkDisbursableNFTs.Role",
          "name": "role",
          "type": "uint8"
        },
        {
          "internalType": "uint256",
          "name": "id",
          "type": "uint256"
        }
      ],
      "name": "roleToken",
      "outputs": [
        {
          "internalType": "uint256",
          "name": "tokenId",
          "type": "uint256"
        }
      ],
      "stateMutability": "view",
      "type": "function"
    },
    {
      "inputs": [
        {
          "internalType": "string",
          "name": "roleName",
          "type": "string"
        }
      ],
      "name": "roleValueForName",
      "outputs": [
        {
          "internalType": "enum BulkDisbursableNFTs.Role",
          "name": "role",
          "type": "uint8"
        }
      ],
      "stateMutability": "pure",
      "type": "function"
    },
    {
      "inputs": [
        {
          "internalType": "address",
          "name": "from",
          "type": "address"
        },
        {
          "internalType": "address",
          "name": "to",
          "type": "address"
        },
        {
          "internalType": "uint256[]",
          "name": "ids",
          "type": "uint256[]"
        },
        {
          "internalType": "uint256[]",
          "name": "amounts",
          "type": "uint256[]"
        },
        {
          "internalType": "bytes",
          "name": "data",
          "type": "bytes"
        }
      ],
      "name": "safeBatchTransferFrom",
      "outputs": [],
      "stateMutability": "nonpayable",
      "type": "function"
    },
    {
      "inputs": [
        {
          "internalType": "address",
          "name": "from",
          "type": "address"
        },
        {
          "internalType": "address",
          "name": "to",
          "type": "address"
        },
        {
          "internalType": "uint256",
          "name": "id",
          "type": "uint256"
        },
        {
          "internalType": "uint256",
          "name": "amount",
          "type": "uint256"
        },
        {
          "internalType": "bytes",
          "name": "data",
          "type": "bytes"
        }
      ],
      "name": "safeTransferFrom",
      "outputs": [],
      "stateMutability": "nonpayable",
      "type": "function"
    },
    {
      "inputs": [
        {
          "internalType": "address",
          "name": "operator",
          "type": "address"
        },
        {
          "internalType": "bool",
          "name": "approved",
          "type": "bool"
        }
      ],
      "name": "setApprovalForAll",
      "outputs": [],
      "stateMutability": "nonpayable",
      "type": "function"
    },
    {
      "inputs": [
        {
          "internalType": "string",
          "name": "_name",
          "type": "string"
        },
        {
          "internalType": "string",
          "name": "_symbol",
          "type": "string"
        }
      ],
      "name": "setDescription",
      "outputs": [],
      "stateMutability": "nonpayable",
      "type": "function"
    },
    {
      "inputs": [
        {
          "internalType": "uint256",
          "name": "id",
          "type": "uint256"
        },
        {
          "internalType": "uint256",
          "name": "max",
          "type": "uint256"
        }
      ],
      "name": "setMax",
      "outputs": [],
      "stateMutability": "nonpayable",
      "type": "function"
    },
    {
      "inputs": [
        {
          "internalType": "uint256",
          "name": "id",
          "type": "uint256"
        },
        {
          "internalType": "string",
          "name": "newURI",
          "type": "string"
        }
      ],
      "name": "setURI",
      "outputs": [],
      "stateMutability": "nonpayable",
      "type": "function"
    },
    {
      "inputs": [
        {
          "internalType": "bytes4",
          "name": "interfaceId",
          "type": "bytes4"
        }
      ],
      "name": "supportsInterface",
      "outputs": [
        {
          "internalType": "bool",
          "name": "",
          "type": "bool"
        }
      ],
      "stateMutability": "view",
      "type": "function"
    },
    {
      "inputs": [],
      "name": "symbol",
      "outputs": [
        {
          "internalType": "string",
          "name": "",
          "type": "string"
        }
      ],
      "stateMutability": "view",
      "type": "function"
    },
    {
      "inputs": [
        {
          "internalType": "uint256",
          "name": "index",
          "type": "uint256"
        }
      ],
      "name": "tokenByIndex",
      "outputs": [
        {
          "internalType": "uint256",
          "name": "id",
          "type": "uint256"
        }
      ],
      "stateMutability": "view",
      "type": "function"
    },
    {
      "inputs": [
        {
          "internalType": "uint256",
          "name": "id",
          "type": "uint256"
        }
      ],
      "name": "tokenIndex",
      "outputs": [
        {
          "internalType": "uint256",
          "name": "index",
          "type": "uint256"
        }
      ],
      "stateMutability": "view",
      "type": "function"
    },
    {
      "inputs": [
        {
          "internalType": "address",
          "name": "owner",
          "type": "address"
        },
        {
          "internalType": "uint256",
          "name": "index",
          "type": "uint256"
        }
      ],
      "name": "tokenOfOwnerByIndex",
      "outputs": [
        {
          "internalType": "uint256",
          "name": "",
          "type": "uint256"
        }
      ],
      "stateMutability": "view",
      "type": "function"
    },
    {
      "inputs": [],
      "name": "totalSupply",
      "outputs": [
        {
          "internalType": "uint256",
          "name": "count",
          "type": "uint256"
        }
      ],
      "stateMutability": "view",
      "type": "function"
    },
    {
      "inputs": [
        {
          "internalType": "uint256",
          "name": "id",
          "type": "uint256"
        }
      ],
      "name": "totalSupply",
      "outputs": [
        {
          "internalType": "uint256",
          "name": "",
          "type": "uint256"
        }
      ],
      "stateMutability": "view",
      "type": "function"
    },
    {
      "inputs": [
        {
          "internalType": "address",
          "name": "newOwner",
          "type": "address"
        }
      ],
      "name": "transferOwnership",
      "outputs": [],
      "stateMutability": "nonpayable",
      "type": "function"
    },
    {
      "inputs": [
        {
          "internalType": "address",
          "name": "newImplementation",
          "type": "address"
        }
      ],
      "name": "upgradeTo",
      "outputs": [],
      "stateMutability": "nonpayable",
      "type": "function"
    },
    {
      "inputs": [
        {
          "internalType": "address",
          "name": "newImplementation",
          "type": "address"
        },
        {
          "internalType": "bytes",
          "name": "data",
          "type": "bytes"
        }
      ],
      "name": "upgradeToAndCall",
      "outputs": [],
      "stateMutability": "payable",
      "type": "function"
    },
    {
      "inputs": [
        {
          "internalType": "uint256",
          "name": "id",
          "type": "uint256"
        }
      ],
      "name": "uri",
      "outputs": [
        {
          "internalType": "string",
          "name": "metadata",
          "type": "string"
        }
      ],
      "stateMutability": "view",
      "type": "function"
    }
  ],
  "bytecode": "0x60a06040523060601b6080523480156200001857600080fd5b50600054610100900460ff16620000365760005460ff161562000040565b62000040620000e5565b620000a85760405162461bcd60e51b815260206004820152602e60248201527f496e697469616c697a61626c653a20636f6e747261637420697320616c72656160448201526d191e481a5b9a5d1a585b1a5e995960921b606482015260840160405180910390fd5b600054610100900460ff16158015620000cb576000805461ffff19166101011790555b8015620000de576000805461ff00191690555b5062000112565b6000620000fd306200010360201b6200272d1760201c565b15905090565b6001600160a01b03163b151590565b60805160601c614f6f6200014d600039600081816117130152818161175301528181611ca401528181611ce40152611dfd0152614f6f6000f3fe6080604052600436106104ca5760003560e01c80635d5664e111610276578063aae5270f1161014f578063e5587f7a116100c1578063f242432a11610085578063f242432a14610d74578063f28a726d14610d94578063f2fde38b14610da9578063f5298aca14610dc9578063f73a731114610de9578063f8418ef314610dfe57600080fd5b8063e5587f7a14610cd7578063e864109214610cec578063e985e9c514610d01578063edc79bac14610d4a578063efc81a8c14610d5f57600080fd5b8063bd85b03911610113578063bd85b03914610c4b578063c3c8df9914610c78578063c5a0d9b2146106e9578063d701765014610c98578063db58fe9514610cad578063dbd406e814610cc257600080fd5b8063aae5270f14610be2578063aaeec72d14610bf7578063b8785f8a14610c0c578063ba952df114610c21578063baf42f9314610c3657600080fd5b80638da5cb5b116101e85780639eb3f243116101ac5780639eb3f24314610b435780639ed9331814610b58578063a22cb46514610b78578063a8410bc114610b98578063a9c906ae14610bad578063aa8e906614610bc257600080fd5b80638da5cb5b14610ab1578063957dc9a014610ad957806395d89b4114610aee5780639d6d7eaa14610b035780639e97b8f614610b2357600080fd5b80636fa09a791161023a5780636fa09a7914610a32578063715018a614610a47578063731133e914610a5c57806383e5b21a14610a7c578063862440e214610a91578063891fbef0146107dc57600080fd5b80635d5664e1146109a85780635e2a3386146109c8578063666e6fd5146109dd5780636755d456146109f25780636b20c45414610a1257600080fd5b80633659cfe6116103a85780634cd88b761161031a5780634f558e79116102de5780634f558e79146109055780634f6ccce7146109345780635157b5631461095457806351d294251461096957806352d1902d1461097e578063552376611461099357600080fd5b80634cd88b761461087b5780634ce7a2441461089b5780634e1273f4146108b05780634f06c0fb146108dd5780634f1ef286146108f257600080fd5b80633c176d9f1161036c5780633c176d9f146107dc5780633dbe35de146107f15780633f79f1a4146108115780634468031f1461082657806344cca2df14610846578063482895891461085b57600080fd5b80633659cfe61461075d57806339054c231461077d5780633adbbbc1146107925780633b60bd01146107a75780633b91ceef146107bc57600080fd5b806318160ddd116104415780632eb2c2d6116104055780632eb2c2d6146106c95780632ed58d81146106e95780632f745c59146106fe57806330c9cf931461071e57806334628c1f1461073357806335ab86291461074857600080fd5b806318160ddd1461063c57806318ae23751461065257806319e0755c146106675780631c45349c146106875780632a7ccf131461069c57600080fd5b80630daec9e4116104935780630daec9e41461059b5780630e89341c146105b05780630ec0370f146105d057806311bb8afd146105f257806313affe4f1461060757806314c464271461061c57600080fd5b8062fdd58e146104cf57806301ffc9a7146105025780630583e9f814610532578063067ff8661461055257806306fdde0314610579575b600080fd5b3480156104db57600080fd5b506104ef6104ea36600461431b565b610e13565b6040519081526020015b60405180910390f35b34801561050e57600080fd5b5061052261051d3660046144a1565b610eaf565b60405190151581526020016104f9565b34801561053e57600080fd5b506104ef61054d366004614611565b610eff565b34801561055e57600080fd5b50610567610f68565b60405160ff90911681526020016104f9565b34801561058557600080fd5b5061058e610f83565b6040516104f99190614897565b3480156105a757600080fd5b506104ef611012565b3480156105bc57600080fd5b5061058e6105cb366004614611565b611029565b3480156105dc57600080fd5b506105f06105eb36600461442a565b6111db565b005b3480156105fe57600080fd5b50610567602a81565b34801561061357600080fd5b506104ef611232565b34801561062857600080fd5b506104ef6106373660046144d9565b611248565b34801561064857600080fd5b50610194546104ef565b34801561065e57600080fd5b50610567611255565b34801561067357600080fd5b506105226106823660046144d9565b611263565b34801561069357600080fd5b506104ef61126f565b3480156106a857600080fd5b506106bc6106b73660046145cc565b611291565b6040516104f99190614840565b3480156106d557600080fd5b506105f06106e436600461411f565b61159e565b3480156106f557600080fd5b50610567600381565b34801561070a57600080fd5b506104ef61071936600461431b565b611635565b34801561072a57600080fd5b506104ef6116b9565b34801561073f57600080fd5b506104ef6116db565b34801561075457600080fd5b506104ef6116f1565b34801561076957600080fd5b506105f06107783660046140d3565b611708565b34801561078957600080fd5b506104ef6117e8565b34801561079e57600080fd5b506104ef611815565b3480156107b357600080fd5b50610567600d81565b3480156107c857600080fd5b506105f06107d73660046146c2565b611837565b3480156107e857600080fd5b50610567600881565b3480156107fd57600080fd5b506104ef61080c366004614549565b6118ba565b34801561081d57600080fd5b506104ef611967565b34801561083257600080fd5b5061052261084136600461450e565b611975565b34801561085257600080fd5b506105676119b3565b34801561086757600080fd5b50610522610876366004614549565b6119cc565b34801561088757600080fd5b506105f0610896366004614564565b6119d9565b3480156108a757600080fd5b506104ef611aff565b3480156108bc57600080fd5b506108d06108cb3660046143d4565b611b21565b6040516104f99190614808565b3480156108e957600080fd5b506104ef611c82565b6105f06109003660046142d0565b611c99565b34801561091157600080fd5b50610522610920366004614611565b600090815260fb6020526040902054151590565b34801561094057600080fd5b506104ef61094f366004614611565b611d66565b34801561096057600080fd5b506104ef611dc0565b34801561097557600080fd5b506104ef611de2565b34801561098a57600080fd5b506104ef611df0565b34801561099f57600080fd5b506104ef611ea4565b3480156109b457600080fd5b506105226109c33660046144f3565b611ebd565b3480156109d457600080fd5b506104ef611ecb565b3480156109e957600080fd5b506104ef611ee2565b3480156109fe57600080fd5b506105f0610a0d366004614564565b611ef0565b348015610a1e57600080fd5b506105f0610a2d366004614226565b611f35565b348015610a3e57600080fd5b506104ef611f7d565b348015610a5357600080fd5b506105f0611f8b565b348015610a6857600080fd5b50610522610a77366004614376565b611fc1565b348015610a8857600080fd5b506104ef6121b0565b348015610a9d57600080fd5b506105f0610aac366004614629565b6121d2565b348015610abd57600080fd5b506097546040516001600160a01b0390911681526020016104f9565b348015610ae557600080fd5b506104ef6122ae565b348015610afa57600080fd5b5061058e6122da565b348015610b0f57600080fd5b506105f0610b1e366004614672565b6122e8565b348015610b2f57600080fd5b50610522610b3e3660046144f3565b6122fd565b348015610b4f57600080fd5b506104ef61230b565b348015610b6457600080fd5b506104ef610b733660046140d3565b612317565b348015610b8457600080fd5b506105f0610b93366004614296565b612482565b348015610ba457600080fd5b506104ef61248d565b348015610bb957600080fd5b506104ef612499565b348015610bce57600080fd5b50610522610bdd36600461450e565b6124a5565b348015610bee57600080fd5b506104ef6124b4565b348015610c0357600080fd5b506104ef6124d9565b348015610c1857600080fd5b50610567600181565b348015610c2d57600080fd5b506105676124f2565b348015610c4257600080fd5b506104ef612501565b348015610c5757600080fd5b506104ef610c66366004614611565b600090815260fb602052604090205490565b348015610c8457600080fd5b50610522610c933660046140d3565b612523565b348015610ca457600080fd5b506104ef61254b565b348015610cb957600080fd5b506104ef612557565b348015610cce57600080fd5b506104ef61256e565b348015610ce357600080fd5b50610567612584565b348015610cf857600080fd5b506104ef61259f565b348015610d0d57600080fd5b50610522610d1c3660046140ed565b6001600160a01b03918216600090815260666020908152604080832093909416825291909152205460ff1690565b348015610d5657600080fd5b506105226125c1565b348015610d6b57600080fd5b506104ef6125d1565b348015610d8057600080fd5b506105f0610d8f3660046141c4565b6125dc565b348015610da057600080fd5b506104ef612621565b348015610db557600080fd5b506105f0610dc43660046140d3565b612630565b348015610dd557600080fd5b506105f0610de4366004614344565b6126c8565b348015610df557600080fd5b5061056761270b565b348015610e0a57600080fd5b506104ef612717565b60006001600160a01b038316610e845760405162461bcd60e51b815260206004820152602b60248201527f455243313135353a2062616c616e636520717565727920666f7220746865207a60448201526a65726f206164647265737360a81b60648201526084015b60405180910390fd5b5060008181526065602090815260408083206001600160a01b03861684529091529020545b92915050565b60006001600160e01b03198216636cdb3d1360e11b1480610ee057506001600160e01b031982166303a24d0760e21b145b80610ea957506301ffc9a760e01b6001600160e01b0319831614610ea9565b6000818152610195602052604081205480610ea95760405162461bcd60e51b815260206004820152602360248201527f5468652072657175657374656420746f6b656e20646f6573206e6f742065786960448201526239ba1760e91b6064820152608401610e7b565b6008610f76600d60ff614d3f565b610f809190614d3f565b81565b6101918054610f9190614d8e565b80601f0160208091040260200160405190810160405280929190818152602001828054610fbd90614d8e565b801561100a5780601f10610fdf5761010080835404028352916020019161100a565b820191906000526020600020905b815481529060010190602001808311610fed57829003601f168201915b505050505081565b61101e600d60ff614d3f565b60ff16610400901b81565b6000818152610193602052604081208054606092919061104890614d8e565b80601f016020809104026020016040519081016040528092919081815260200182805461107490614d8e565b80156110c15780601f10611096576101008083540402835291602001916110c1565b820191906000526020600020905b8154815290600101906020018083116110a457829003601f168201915b50505050509050805160001415610ea95760086110e0600d60ff614d3f565b6110ea9190614d3f565b60ff166001901b6008600d60ff6111019190614d3f565b61110b9190614d3f565b60ff16600161111c60086002614c7d565b6111269190614d28565b901b84161415610ea9576503ffffffffff198316600081815261019360205260409020805461115490614d8e565b80601f016020809104026020016040519081016040528092919081815260200182805461118090614d8e565b80156111cd5780601f106111a2576101008083540402835291602001916111cd565b820191906000526020600020905b8154815290600101906020018083116111b057829003601f168201915b505050505091505092915050565b60005b835181101561122c5761121b84828151811061120a57634e487b7160e01b600052603260045260246000fd5b602002602001015184600185611fc1565b5061122581614df5565b90506111de565b50505050565b61123e600d60ff614d3f565b60ff166010901b81565b6000610ea98260006118ba565b6003610f76600d60ff614d3f565b6000610ea982336122fd565b600861127d600d60ff614d3f565b6112879190614d3f565b60ff166006901b81565b600080826040516020016112a59190614749565b6040516020818303038152906040528051906020012090506040516020016112dc906829bab832b93ab9b2b960b91b815260090190565b604051602081830303815290604052805190602001208114156113025750600192915050565b6040516526b4b73a32b960d11b60208201526026016040516020818303038152906040528051906020012081141561133d5750600292915050565b6040516521b0b9ba32b960d11b6020820152602601604051602081830303815290604052805190602001208114156113785750600392915050565b604051692a3930b739b332b932b960b11b6020820152602a01604051602081830303815290604052805190602001208114156113b75750600492915050565b6040516921b7b73334b3bab932b960b11b6020820152602a01604051602081830303815290604052805190602001208114156113f65750600592915050565b6040516926b0b4b73a30b4b732b960b11b6020820152602a01604051602081830303815290604052805190602001208114156114355750600692915050565b6040516621b932b0ba37b960c91b6020820152602701604051602081830303815290604052805190602001208114156114715750600792915050565b604051662634b6b4ba32b960c91b6020820152602701604051602081830303815290604052805190602001208114156114ad5750600892915050565b60405165213ab93732b960d11b6020820152602601604051602081830303815290604052805190602001208114156114e85750600992915050565b604051682232b9ba3937bcb2b960b91b6020820152602901604051602081830303815290604052805190602001208114156115265750600a92915050565b604051654f7261636c6560d01b6020820152602601604051602081830303815290604052805190602001208114156115615750600b92915050565b60405162461bcd60e51b81526020600482015260126024820152712ab735b737bbb7103937b632903a3cb8329760711b6044820152606401610e7b565b6001600160a01b0385163314806115ba57506115ba8533610d1c565b6116215760405162461bcd60e51b815260206004820152603260248201527f455243313135353a207472616e736665722063616c6c6572206973206e6f74206044820152711bdddb995c881b9bdc88185c1c1c9bdd995960721b6064820152608401610e7b565b61162e858585858561273c565b5050505050565b6001600160a01b03821660009081526101966020526040812054821061166d5760405162461bcd60e51b8152600401610e7b90614b1e565b6001600160a01b0383166000908152610196602052604090208054839081106116a657634e487b7160e01b600052603260045260246000fd5b9060005260206000200154905092915050565b60086116c7600d60ff614d3f565b6116d19190614d3f565b60ff166004901b81565b6116e7600d60ff614d3f565b60ff166020901b81565b6116fd600d60ff614d3f565b60ff16611000901b81565b306001600160a01b037f00000000000000000000000000000000000000000000000000000000000000001614156117515760405162461bcd60e51b8152600401610e7b90614936565b7f00000000000000000000000000000000000000000000000000000000000000006001600160a01b031661179a600080516020614ef3833981519152546001600160a01b031690565b6001600160a01b0316146117c05760405162461bcd60e51b8152600401610e7b906149cb565b6117c981612905565b604080516000808252602082019092526117e59183919061298f565b50565b6003806117f7600d60ff614d3f565b6118019190614d3f565b61180b9190614d3f565b60ff166002901b81565b6008611823600d60ff614d3f565b61182d9190614d3f565b60ff166005901b81565b6118426008836119cc565b8061185057506118506125c1565b6118b65760405162461bcd60e51b815260206004820152603160248201527f596f75206d75737420686176652061204c696d6974657220746f6b656e20746f6044820152701031b430b733b29038bab0b73a34ba3c9760791b6064820152608401610e7b565b5050565b6000816008806118cc600d60ff614d3f565b6118d69190614d3f565b6118e09190614d3f565b60ff1684603c81111561190357634e487b7160e01b600052602160045260246000fd5b901b6001600380611916600d60ff614d3f565b6119209190614d3f565b61192a9190614d3f565b6119349190614d3f565b60ff166001901b6008600d60ff61194b9190614d3f565b6119559190614d3f565b60ff166001901b171717905092915050565b6008611801600d60ff614d3f565b60008061198185611248565b9050600061198f8583610e13565b11806119a8575060006119a6856104ea8685614c22565b115b9150505b9392505050565b6003806119c2600d60ff614d3f565b610f769190614d3f565b60006119ac833384611975565b600054610100900460ff166119f45760005460ff16156119f8565b303b155b611a5b5760405162461bcd60e51b815260206004820152602e60248201527f496e697469616c697a61626c653a20636f6e747261637420697320616c72656160448201526d191e481a5b9a5d1a585b1a5e995960921b6064820152608401610e7b565b600054610100900460ff16158015611a7d576000805461ffff19166101011790555b611a85612b09565b611ac36040518060400160405280602081526020017f4572726f723a2053696e676c6520546f6b656e20555249204e6f742055736564815250612b38565b611acb612b68565b611ad3612b68565b611adb612b68565b611ae785858585611ef0565b801561162e576000805461ff00191690555050505050565b6003611b0d600d60ff614d3f565b611b179190614d3f565b60ff166003901b81565b60608151835114611b865760405162461bcd60e51b815260206004820152602960248201527f455243313135353a206163636f756e747320616e6420696473206c656e677468604482015268040dad2e6dac2e8c6d60bb1b6064820152608401610e7b565b600083516001600160401b03811115611baf57634e487b7160e01b600052604160045260246000fd5b604051908082528060200260200182016040528015611bd8578160200160208202803683370190505b50905060005b8451811015611c7a57611c3f858281518110611c0a57634e487b7160e01b600052603260045260246000fd5b6020026020010151858381518110611c3257634e487b7160e01b600052603260045260246000fd5b6020026020010151610e13565b828281518110611c5f57634e487b7160e01b600052603260045260246000fd5b6020908102919091010152611c7381614df5565b9050611bde565b509392505050565b611c8e600d60ff614d3f565b60ff16610800901b81565b306001600160a01b037f0000000000000000000000000000000000000000000000000000000000000000161415611ce25760405162461bcd60e51b8152600401610e7b90614936565b7f00000000000000000000000000000000000000000000000000000000000000006001600160a01b0316611d2b600080516020614ef3833981519152546001600160a01b031690565b6001600160a01b031614611d515760405162461bcd60e51b8152600401610e7b906149cb565b611d5a82612905565b6118b68282600161298f565b610194546000908210611d8b5760405162461bcd60e51b8152600401610e7b90614b1e565b610194805483908110611dae57634e487b7160e01b600052603260045260246000fd5b90600052602060002001549050919050565b6003611dce600d60ff614d3f565b611dd89190614d3f565b60ff166001901b81565b6008611dce600d60ff614d3f565b6000306001600160a01b037f00000000000000000000000000000000000000000000000000000000000000001614611e905760405162461bcd60e51b815260206004820152603860248201527f555550535570677261646561626c653a206d757374206e6f742062652063616c60448201527f6c6564207468726f7567682064656c656761746563616c6c00000000000000006064820152608401610e7b565b50600080516020614ef38339815191525b90565b600380611eb3600d60ff614d3f565b6116c79190614d3f565b60006119ac838360006124a5565b611ed7600d60ff614d3f565b60ff16610100901b81565b6008611b0d600d60ff614d3f565b6097546001600160a01b03163314611f1a5760405162461bcd60e51b8152600401610e7b90614ae9565b611f276101918585613df7565b5061162e6101928383613df7565b6001600160a01b038316331480611f515750611f518333610d1c565b611f6d5760405162461bcd60e51b8152600401610e7b90614982565b611f78838383612b8f565b505050565b6003611801600d60ff614d3f565b6097546001600160a01b03163314611fb55760405162461bcd60e51b8152600401610e7b90614ae9565b611fbf6000612d3c565b565b60006001600380611fd4600d60ff614d3f565b611fde9190614d3f565b611fe89190614d3f565b611ff29190614d3f565b60ff166001901b6001600380600d60ff61200c9190614d3f565b6120169190614d3f565b6120209190614d3f565b61202a9190614d3f565b60ff166001901b8516148015612049575060006120478686610e13565b115b15612056575060006121a8565b6008612064600d60ff614d3f565b61206e9190614d3f565b60ff166001901b6008600d60ff6120859190614d3f565b61208f9190614d3f565b60ff166001901b85161415612122576120a96003856119cc565b806120b757506120b76125c1565b61211d5760405162461bcd60e51b815260206004820152603160248201527f596f75206d757374206861766520612043617374657220746f6b656e20746f2060448201527036b4b73a103a37b5b2b71033b0ba32b99760791b6064820152608401610e7b565b61219c565b61212d6002856119cc565b8061213b575061213b6125c1565b61219c5760405162461bcd60e51b815260206004820152602c60248201527f596f75206d75737420686176652061204d696e74657220746f6b656e20746f2060448201526b36b4b73a103a37b5b2b7399760a11b6064820152608401610e7b565b6121a885858585612d8e565b949350505050565b60086121be600d60ff614d3f565b6121c89190614d3f565b60ff166008901b81565b6121dd6005846119cc565b806121eb57506121eb6125c1565b6122545760405162461bcd60e51b815260206004820152603460248201527f596f75206d7573742068617665206120436f6e6669677572657220746f6b656e604482015273103a379031b430b733b29036b2ba30b230ba309760611b6064820152608401610e7b565b60008381526101936020526040902061226e908383613df7565b50827f6bb7ff708619ba0610cba295a58592e0451dee2622938c8755667688daf3529b83836040516122a1929190614868565b60405180910390a2505050565b60086122bc600d60ff614d3f565b6122c69190614d3f565b60ff166122d560086002614c7d565b901b81565b6101928054610f9190614d8e565b6122f38484846121d2565b61122c8482611837565b60006119ac83836000611975565b6116d1600d60ff614d3f565b610194546000908190600861232e600d60ff614d3f565b6123389190614d3f565b60ff166009901b6123499190614c22565b612354906001614c22565b90506123616007826119cc565b8061236f575061236f6125c1565b6123d75760405162461bcd60e51b815260206004820152603360248201527f596f75206d757374206861766520612043726561746f7220746f6b656e20746f6044820152721031b932b0ba32903732bb903a37b5b2b7399760691b6064820152608401610e7b565b610194805460018101825560009182527fa6f1ac7ad7b125ba5a5e1c96b00ad6914f90a503b1ac3d85a9dadbb4c639df920182905561241c9060029085908490612ea0565b5061242b600584836000612ea0565b5061243a600884836000612ea0565b50604080518281526001600160a01b03851660208201527f7757890bcab34d673dfca6b71df1b57f75a2fe4231d6e8de726caf534ab1fdd6910160405180910390a192915050565b6118b6338383612feb565b61180b600d60ff614d3f565b6121c8600d60ff614d3f565b60006121a88484846001612ea0565b60016003806124c5600d60ff614d3f565b6124cf9190614d3f565b611dce9190614d3f565b6003806124e8600d60ff614d3f565b611b0d9190614d3f565b6008806119c2600d60ff614d3f565b600861250f600d60ff614d3f565b6125199190614d3f565b60ff166007901b81565b60006125306001836122fd565b80610ea95750506097546001600160a01b0391821691161490565b611dd8600d60ff614d3f565b612563600d60ff614d3f565b60ff16610200901b81565b61257a600d60ff614d3f565b60ff166040901b81565b6001600380612595600d60ff614d3f565b6119c29190614d3f565b60086125ad600d60ff614d3f565b6125b79190614d3f565b60ff166009901b81565b60006125cc33612523565b905090565b60006125cc33612317565b6001600160a01b0385163314806125f857506125f88533610d1c565b6126145760405162461bcd60e51b8152600401610e7b90614982565b61162e85858585856130cc565b6003806124cf600d60ff614d3f565b6097546001600160a01b0316331461265a5760405162461bcd60e51b8152600401610e7b90614ae9565b6001600160a01b0381166126bf5760405162461bcd60e51b815260206004820152602660248201527f4f776e61626c653a206e6577206f776e657220697320746865207a65726f206160448201526564647265737360d01b6064820152608401610e7b565b6117e581612d3c565b6001600160a01b0383163314806126e457506126e48333610d1c565b6127005760405162461bcd60e51b8152600401610e7b90614982565b611f788383836131ed565b610f80600d60ff614d3f565b612723600d60ff614d3f565b60ff166080901b81565b6001600160a01b03163b151590565b815183511461275d5760405162461bcd60e51b8152600401610e7b90614bb7565b6001600160a01b0384166127835760405162461bcd60e51b8152600401610e7b90614a17565b336127928187878787876132f2565b60005b84518110156128975760008582815181106127c057634e487b7160e01b600052603260045260246000fd5b6020026020010151905060008583815181106127ec57634e487b7160e01b600052603260045260246000fd5b60209081029190910181015160008481526065835260408082206001600160a01b038e16835290935291909120549091508181101561283d5760405162461bcd60e51b8152600401610e7b90614a9f565b60008381526065602090815260408083206001600160a01b038e8116855292528083208585039055908b1682528120805484929061287c908490614c22565b925050819055505050508061289090614df5565b9050612795565b50846001600160a01b0316866001600160a01b0316826001600160a01b03167f4a39dc06d4c0dbc64b70af90fd698a233a518aa5d07e595d983b8c0526c8f7fb87876040516128e792919061481b565b60405180910390a46128fd81878787878761378d565b505050505050565b61290f6006611263565b8061291d575061291d6125c1565b6117e55760405162461bcd60e51b815260206004820152603960248201527f596f75206d75737420686176652061204d61696e7461696e657220746f6b656e60448201527f20746f20757067726164652074686520636f6e74726163742e000000000000006064820152608401610e7b565b7f4910fdfa16fed3260ed0e7147f7cc6da11a60208b5b9406d12a635614ffd91435460ff16156129c257611f78836138f8565b826001600160a01b03166352d1902d6040518163ffffffff1660e01b815260040160206040518083038186803b1580156129fb57600080fd5b505afa925050508015612a2b575060408051601f3d908101601f19168201909252612a2891810190614489565b60015b612a8e5760405162461bcd60e51b815260206004820152602e60248201527f45524331393637557067726164653a206e657720696d706c656d656e7461746960448201526d6f6e206973206e6f74205555505360901b6064820152608401610e7b565b600080516020614ef38339815191528114612afd5760405162461bcd60e51b815260206004820152602960248201527f45524331393637557067726164653a20756e737570706f727465642070726f786044820152681a58589b195555525160ba1b6064820152608401610e7b565b50611f78838383613994565b600054610100900460ff16612b305760405162461bcd60e51b8152600401610e7b90614b6c565b611fbf6139b9565b600054610100900460ff16612b5f5760405162461bcd60e51b8152600401610e7b90614b6c565b6117e5816139e9565b600054610100900460ff16611fbf5760405162461bcd60e51b8152600401610e7b90614b6c565b6001600160a01b038316612bb55760405162461bcd60e51b8152600401610e7b90614a5c565b8051825114612bd65760405162461bcd60e51b8152600401610e7b90614bb7565b6000339050612bf9818560008686604051806020016040528060008152506132f2565b60005b8351811015612cdd576000848281518110612c2757634e487b7160e01b600052603260045260246000fd5b602002602001015190506000848381518110612c5357634e487b7160e01b600052603260045260246000fd5b60209081029190910181015160008481526065835260408082206001600160a01b038c168352909352919091205490915081811015612ca45760405162461bcd60e51b8152600401610e7b906148f2565b60009283526065602090815260408085206001600160a01b038b1686529091529092209103905580612cd581614df5565b915050612bfc565b5060006001600160a01b0316846001600160a01b0316826001600160a01b03167f4a39dc06d4c0dbc64b70af90fd698a233a518aa5d07e595d983b8c0526c8f7fb8686604051612d2e92919061481b565b60405180910390a450505050565b609780546001600160a01b038381166001600160a01b0319831681179093556040519116919082907f8be0079c531659141344cd1fd0a4f28419497f9722a3daafe3b4186f6b6457e090600090a35050565b6001600160a01b038416612dee5760405162461bcd60e51b815260206004820152602160248201527f455243313135353a206d696e7420746f20746865207a65726f206164647265736044820152607360f81b6064820152608401610e7b565b33612e0e81600087612dff88613a19565b612e0888613a19565b876132f2565b60008481526065602090815260408083206001600160a01b038916845290915281208054859290612e40908490614c22565b909155505060408051858152602081018590526001600160a01b0380881692600092918516917fc3d58168c5ae7397731d063d5bbf3d657854427343f4c083240f7aacaa2d0f62910160405180910390a461162e81600087878787613a72565b60008115612fbd57600185603c811115612eca57634e487b7160e01b600052602160045260246000fd5b1415612f3d57612ed86125c1565b612f385760405162461bcd60e51b815260206004820152602b60248201527f596f75206d75737420626520612073757065727573657220746f20637265617460448201526a32903732bb9037b732b99760a91b6064820152608401610e7b565b612fbd565b612f486003846119cc565b80612f565750612f566125c1565b612fbd5760405162461bcd60e51b815260206004820152603260248201527f596f75206d7573742068617665207468652043617374657220726f6c6520746f6044820152711030b9b9b4b3b7103732bb903937b632b99760711b6064820152608401610e7b565b612fe284612fcb87866118ba565b600160405180602001604052806000815250611fc1565b95945050505050565b816001600160a01b0316836001600160a01b0316141561305f5760405162461bcd60e51b815260206004820152602960248201527f455243313135353a2073657474696e6720617070726f76616c20737461747573604482015268103337b91039b2b63360b91b6064820152608401610e7b565b6001600160a01b03838116600081815260666020908152604080832094871680845294825291829020805460ff191686151590811790915591519182527f17307eab39ab6107e8899845ad3d59bd9653f200f220920489ca2b5937696c31910160405180910390a3505050565b6001600160a01b0384166130f25760405162461bcd60e51b8152600401610e7b90614a17565b33613102818787612dff88613a19565b60008481526065602090815260408083206001600160a01b038a168452909152902054838110156131455760405162461bcd60e51b8152600401610e7b90614a9f565b60008581526065602090815260408083206001600160a01b038b8116855292528083208785039055908816825281208054869290613184908490614c22565b909155505060408051868152602081018690526001600160a01b03808916928a821692918616917fc3d58168c5ae7397731d063d5bbf3d657854427343f4c083240f7aacaa2d0f62910160405180910390a46131e4828888888888613a72565b50505050505050565b6001600160a01b0383166132135760405162461bcd60e51b8152600401610e7b90614a5c565b336132428185600061322487613a19565b61322d87613a19565b604051806020016040528060008152506132f2565b60008381526065602090815260408083206001600160a01b0388168452909152902054828110156132855760405162461bcd60e51b8152600401610e7b906148f2565b60008481526065602090815260408083206001600160a01b03898116808652918452828520888703905582518981529384018890529092908616917fc3d58168c5ae7397731d063d5bbf3d657854427343f4c083240f7aacaa2d0f62910160405180910390a45050505050565b6132fa6125c1565b6133b85760005b83518110156133b65761333d60048786848151811061333057634e487b7160e01b600052603260045260246000fd5b6020026020010151611975565b6133a65760405162461bcd60e51b815260206004820152603460248201527f596f75206d75737420686176652061205472616e73666572657220746f6b656e604482015273103a37903a3930b739b332b9103a37b5b2b7399760611b6064820152608401610e7b565b6133af81614df5565b9050613301565b505b6001600160a01b038416156135de5760005b83518110156135dc5761019460010160008583815181106133fb57634e487b7160e01b600052603260045260246000fd5b6020026020010151815260200190815260200160002054600014156134a75761019460000184828151811061344057634e487b7160e01b600052603260045260246000fd5b602090810291909101810151825460018101845560009384529183209091015561019454855190916101959187908590811061348c57634e487b7160e01b600052603260045260246000fd5b60200260200101518152602001908152602001600020819055505b6101966000866001600160a01b03166001600160a01b0316815260200190815260200160002060010160008583815181106134f257634e487b7160e01b600052603260045260246000fd5b6020026020010151815260200190815260200160002054600014156135cc576001600160a01b038516600090815261019660205260409020845185908390811061354c57634e487b7160e01b600052603260045260246000fd5b602090810291909101810151825460018181018555600094855283852090910191909155610194546001600160a01b038916845261019690925260408320875192939101918790859081106135b157634e487b7160e01b600052603260045260246000fd5b60200260200101518152602001908152602001600020819055505b6135d581614df5565b90506133ca565b505b6001600160a01b0385161561377f5760005b835181101561377d5782818151811061361957634e487b7160e01b600052603260045260246000fd5b602002602001015161364587868481518110611c3257634e487b7160e01b600052603260045260246000fd5b1161376d5760006101966000886001600160a01b03166001600160a01b03168152602001908152602001600020600101600086848151811061369757634e487b7160e01b600052603260045260246000fd5b602002602001015181526020019081526020016000205490506101966000886001600160a01b03166001600160a01b0316815260200190815260200160002060000181815481106136f857634e487b7160e01b600052603260045260246000fd5b90600052602060002001600090556101966000886001600160a01b03166001600160a01b03168152602001908152602001600020600101600086848151811061375157634e487b7160e01b600052603260045260246000fd5b6020026020010151815260200190815260200160002060009055505b61377681614df5565b90506135f0565b505b6128fd868686868686613b3c565b6001600160a01b0384163b156128fd5760405163bc197c8160e01b81526001600160a01b0385169063bc197c81906137d19089908990889088908890600401614765565b602060405180830381600087803b1580156137eb57600080fd5b505af192505050801561381b575060408051601f3d908101601f19168201909252613818918101906144bd565b60015b6138c857613827614e3c565b806308c379a01415613861575061383c614e53565b806138475750613863565b8060405162461bcd60e51b8152600401610e7b9190614897565b505b60405162461bcd60e51b815260206004820152603460248201527f455243313135353a207472616e7366657220746f206e6f6e20455243313135356044820152732932b1b2b4bb32b91034b6b83632b6b2b73a32b960611b6064820152608401610e7b565b6001600160e01b0319811663bc197c8160e01b146131e45760405162461bcd60e51b8152600401610e7b906148aa565b6001600160a01b0381163b6139655760405162461bcd60e51b815260206004820152602d60248201527f455243313936373a206e657720696d706c656d656e746174696f6e206973206e60448201526c1bdd08184818dbdb9d1c9858dd609a1b6064820152608401610e7b565b600080516020614ef383398151915280546001600160a01b0319166001600160a01b0392909216919091179055565b61399d83613c80565b6000825111806139aa5750805b15611f785761122c8383613cc0565b600054610100900460ff166139e05760405162461bcd60e51b8152600401610e7b90614b6c565b611fbf33612d3c565b600054610100900460ff16613a105760405162461bcd60e51b8152600401610e7b90614b6c565b6117e581613dab565b60408051600180825281830190925260609160009190602080830190803683370190505090508281600081518110613a6157634e487b7160e01b600052603260045260246000fd5b602090810291909101015292915050565b6001600160a01b0384163b156128fd5760405163f23a6e6160e01b81526001600160a01b0385169063f23a6e6190613ab690899089908890889088906004016147c3565b602060405180830381600087803b158015613ad057600080fd5b505af1925050508015613b00575060408051601f3d908101601f19168201909252613afd918101906144bd565b60015b613b0c57613827614e3c565b6001600160e01b0319811663f23a6e6160e01b146131e45760405162461bcd60e51b8152600401610e7b906148aa565b6001600160a01b038516613bdf5760005b8351811015613bdd57828181518110613b7657634e487b7160e01b600052603260045260246000fd5b602002602001015160fb6000868481518110613ba257634e487b7160e01b600052603260045260246000fd5b602002602001015181526020019081526020016000206000828254613bc79190614c22565b90915550613bd6905081614df5565b9050613b4d565b505b6001600160a01b0384166128fd5760005b83518110156131e457828181518110613c1957634e487b7160e01b600052603260045260246000fd5b602002602001015160fb6000868481518110613c4557634e487b7160e01b600052603260045260246000fd5b602002602001015181526020019081526020016000206000828254613c6a9190614d28565b90915550613c79905081614df5565b9050613bf0565b613c89816138f8565b6040516001600160a01b038216907fbc7cd75a20ee27fd9adebab32041f755214dbc6bffa90cc0225b39da2e5c2d3b90600090a250565b60606001600160a01b0383163b613d285760405162461bcd60e51b815260206004820152602660248201527f416464726573733a2064656c65676174652063616c6c20746f206e6f6e2d636f6044820152651b9d1c9858dd60d21b6064820152608401610e7b565b600080846001600160a01b031684604051613d439190614749565b600060405180830381855af49150503d8060008114613d7e576040519150601f19603f3d011682016040523d82523d6000602084013e613d83565b606091505b5091509150612fe28282604051806060016040528060278152602001614f1360279139613dbe565b80516118b6906067906020840190613e7b565b60608315613dcd5750816119ac565b825115613ddd5782518084602001fd5b8160405162461bcd60e51b8152600401610e7b9190614897565b828054613e0390614d8e565b90600052602060002090601f016020900481019282613e255760008555613e6b565b82601f10613e3e5782800160ff19823516178555613e6b565b82800160010185558215613e6b579182015b82811115613e6b578235825591602001919060010190613e50565b50613e77929150613eef565b5090565b828054613e8790614d8e565b90600052602060002090601f016020900481019282613ea95760008555613e6b565b82601f10613ec257805160ff1916838001178555613e6b565b82800160010185558215613e6b579182015b82811115613e6b578251825591602001919060010190613ed4565b5b80821115613e775760008155600101613ef0565b60006001600160401b03831115613f1d57613f1d614e26565b604051613f34601f8501601f191660200182614dc9565b809150838152848484011115613f4957600080fd5b83836020830137600060208583010152509392505050565b80356001600160a01b0381168114613f7857600080fd5b919050565b600082601f830112613f8d578081fd5b81356020613f9a82614bff565b604051613fa78282614dc9565b8381528281019150858301600585901b87018401881015613fc6578586fd5b855b85811015613feb57613fd982613f61565b84529284019290840190600101613fc8565b5090979650505050505050565b600082601f830112614008578081fd5b8135602061401582614bff565b6040516140228282614dc9565b8381528281019150858301600585901b87018401881015614041578586fd5b855b85811015613feb57813584529284019290840190600101614043565b600082601f83011261406f578081fd5b6119ac83833560208501613f04565b8035603d8110613f7857600080fd5b60008083601f84011261409e578182fd5b5081356001600160401b038111156140b4578182fd5b6020830191508360208285010111156140cc57600080fd5b9250929050565b6000602082840312156140e4578081fd5b6119ac82613f61565b600080604083850312156140ff578081fd5b61410883613f61565b915061411660208401613f61565b90509250929050565b600080600080600060a08688031215614136578081fd5b61413f86613f61565b945061414d60208701613f61565b935060408601356001600160401b0380821115614168578283fd5b61417489838a01613ff8565b94506060880135915080821115614189578283fd5b61419589838a01613ff8565b935060808801359150808211156141aa578283fd5b506141b78882890161405f565b9150509295509295909350565b600080600080600060a086880312156141db578081fd5b6141e486613f61565b94506141f260208701613f61565b9350604086013592506060860135915060808601356001600160401b0381111561421a578182fd5b6141b78882890161405f565b60008060006060848603121561423a578283fd5b61424384613f61565b925060208401356001600160401b038082111561425e578384fd5b61426a87838801613ff8565b9350604086013591508082111561427f578283fd5b5061428c86828701613ff8565b9150509250925092565b600080604083850312156142a8578182fd5b6142b183613f61565b9150602083013580151581146142c5578182fd5b809150509250929050565b600080604083850312156142e2578182fd5b6142eb83613f61565b915060208301356001600160401b03811115614305578182fd5b6143118582860161405f565b9150509250929050565b6000806040838503121561432d578182fd5b61433683613f61565b946020939093013593505050565b600080600060608486031215614358578081fd5b61436184613f61565b95602085013595506040909401359392505050565b6000806000806080858703121561438b578182fd5b61439485613f61565b9350602085013592506040850135915060608501356001600160401b038111156143bc578182fd5b6143c88782880161405f565b91505092959194509250565b600080604083850312156143e6578182fd5b82356001600160401b03808211156143fc578384fd5b61440886838701613f7d565b9350602085013591508082111561441d578283fd5b5061431185828601613ff8565b60008060006060848603121561443e578081fd5b83356001600160401b0380821115614454578283fd5b61446087838801613f7d565b945060208601359350604086013591508082111561447c578283fd5b5061428c8682870161405f565b60006020828403121561449a578081fd5b5051919050565b6000602082840312156144b2578081fd5b81356119ac81614edc565b6000602082840312156144ce578081fd5b81516119ac81614edc565b6000602082840312156144ea578081fd5b6119ac8261407e565b60008060408385031215614505578182fd5b6141088361407e565b600080600060608486031215614522578081fd5b61452b8461407e565b925061453960208501613f61565b9150604084013590509250925092565b6000806040838503121561455b578182fd5b6143368361407e565b60008060008060408587031215614579578182fd5b84356001600160401b038082111561458f578384fd5b61459b8883890161408d565b909650945060208701359150808211156145b3578384fd5b506145c08782880161408d565b95989497509550505050565b6000602082840312156145dd578081fd5b81356001600160401b038111156145f2578182fd5b8201601f81018413614602578182fd5b6121a884823560208401613f04565b600060208284031215614622578081fd5b5035919050565b60008060006040848603121561463d578081fd5b8335925060208401356001600160401b03811115614659578182fd5b6146658682870161408d565b9497909650939450505050565b60008060008060608587031215614687578182fd5b8435935060208501356001600160401b038111156146a3578283fd5b6146af8782880161408d565b9598909750949560400135949350505050565b600080604083850312156146d4578182fd5b50508035926020909101359150565b6000815180845260208085019450808401835b83811015614712578151875295820195908201906001016146f6565b509495945050505050565b60008151808452614735816020860160208601614d62565b601f01601f19169290920160200192915050565b6000825161475b818460208701614d62565b9190910192915050565b6001600160a01b0386811682528516602082015260a060408201819052600090614791908301866146e3565b82810360608401526147a381866146e3565b905082810360808401526147b7818561471d565b98975050505050505050565b6001600160a01b03868116825285166020820152604081018490526060810183905260a0608082018190526000906147fd9083018461471d565b979650505050505050565b6020815260006119ac60208301846146e3565b60408152600061482e60408301856146e3565b82810360208401526119a881856146e3565b60208101603d831061486257634e487b7160e01b600052602160045260246000fd5b91905290565b60208152816020820152818360408301376000818301604090810191909152601f909201601f19160101919050565b6020815260006119ac602083018461471d565b60208082526028908201527f455243313135353a204552433131353552656365697665722072656a656374656040820152676420746f6b656e7360c01b606082015260800190565b60208082526024908201527f455243313135353a206275726e20616d6f756e7420657863656564732062616c604082015263616e636560e01b606082015260800190565b6020808252602c908201527f46756e6374696f6e206d7573742062652063616c6c6564207468726f7567682060408201526b19195b1959d85d1958d85b1b60a21b606082015260800190565b60208082526029908201527f455243313135353a2063616c6c6572206973206e6f74206f776e6572206e6f7260408201526808185c1c1c9bdd995960ba1b606082015260800190565b6020808252602c908201527f46756e6374696f6e206d7573742062652063616c6c6564207468726f7567682060408201526b6163746976652070726f787960a01b606082015260800190565b60208082526025908201527f455243313135353a207472616e7366657220746f20746865207a65726f206164604082015264647265737360d81b606082015260800190565b60208082526023908201527f455243313135353a206275726e2066726f6d20746865207a65726f206164647260408201526265737360e81b606082015260800190565b6020808252602a908201527f455243313135353a20696e73756666696369656e742062616c616e636520666f60408201526939103a3930b739b332b960b11b606082015260800190565b6020808252818101527f4f776e61626c653a2063616c6c6572206973206e6f7420746865206f776e6572604082015260600190565b6020808252602e908201527f4552432d3131353520456e756d657261626c653a20746f6b656e20696e64657860408201526d206f7574206f6620626f756e647360901b606082015260800190565b6020808252602b908201527f496e697469616c697a61626c653a20636f6e7472616374206973206e6f74206960408201526a6e697469616c697a696e6760a81b606082015260800190565b60208082526028908201527f455243313135353a2069647320616e6420616d6f756e7473206c656e677468206040820152670dad2e6dac2e8c6d60c31b606082015260800190565b60006001600160401b03821115614c1857614c18614e26565b5060051b60200190565b60008219821115614c3557614c35614e10565b500190565b600181815b80851115614c75578160001904821115614c5b57614c5b614e10565b80851615614c6857918102915b93841c9390800290614c3f565b509250929050565b60006119ac60ff841683600082614c9657506001610ea9565b81614ca357506000610ea9565b8160018114614cb95760028114614cc357614cdf565b6001915050610ea9565b60ff841115614cd457614cd4614e10565b50506001821b610ea9565b5060208310610133831016604e8410600b8410161715614d02575081810a610ea9565b614d0c8383614c3a565b8060001904821115614d2057614d20614e10565b029392505050565b600082821015614d3a57614d3a614e10565b500390565b600060ff821660ff841680821015614d5957614d59614e10565b90039392505050565b60005b83811015614d7d578181015183820152602001614d65565b8381111561122c5750506000910152565b600181811c90821680614da257607f821691505b60208210811415614dc357634e487b7160e01b600052602260045260246000fd5b50919050565b601f8201601f191681016001600160401b0381118282101715614dee57614dee614e26565b6040525050565b6000600019821415614e0957614e09614e10565b5060010190565b634e487b7160e01b600052601160045260246000fd5b634e487b7160e01b600052604160045260246000fd5b600060033d1115611ea157600481823e5160e01c90565b600060443d1015614e615790565b6040516003193d81016004833e81513d6001600160401b038160248401118184111715614e9057505050505090565b8285019150815181811115614ea85750505050505090565b843d8701016020828501011115614ec25750505050505090565b614ed160208286010187614dc9565b509095945050505050565b6001600160e01b0319811681146117e557600080fdfe360894a13ba1a3210667c828492db98dca3e2076cc3735a920a3ca505d382bbc416464726573733a206c6f772d6c6576656c2064656c65676174652063616c6c206661696c6564a2646970667358221220f0f6c9c4d06fb9405b27453bfef5d2cc2e359c1baa74e0cf1e3eaac2bfc8243b64736f6c63430008040033",
  "linkReferences": {},
  "deployedLinkReferences": {}
}