{
  "_format": "hh-sol-artifact-1",
  "contractName": "BulkDisbursableNFTs",
  "sourceName": "src/BulkDisbursableNFTs.sol",
  "abi": [
    {
      "inputs": [],
      "stateMutability": "nonpayable",
      "type": "constructor"
    },
    {
      "anonymous": false,
      "inputs": [
        {
          "indexed": false,
          "internalType": "address",
          "name": "previousAdmin",
          "type": "address"
        },
        {
          "indexed": false,
          "internalType": "address",
          "name": "newAdmin",
          "type": "address"
        }
      ],
      "name": "AdminChanged",
      "type": "event"
    },
    {
      "anonymous": false,
      "inputs": [
        {
          "indexed": true,
          "internalType": "address",
          "name": "account",
          "type": "address"
        },
        {
          "indexed": true,
          "internalType": "address",
          "name": "operator",
          "type": "address"
        },
        {
          "indexed": false,
          "internalType": "bool",
          "name": "approved",
          "type": "bool"
        }
      ],
      "name": "ApprovalForAll",
      "type": "event"
    },
    {
      "anonymous": false,
      "inputs": [
        {
          "indexed": true,
          "internalType": "address",
          "name": "beacon",
          "type": "address"
        }
      ],
      "name": "BeaconUpgraded",
      "type": "event"
    },
    {
      "anonymous": false,
      "inputs": [
        {
          "indexed": false,
          "internalType": "uint256",
          "name": "id",
          "type": "uint256"
        },
        {
          "indexed": false,
          "internalType": "address",
          "name": "controller",
          "type": "address"
        }
      ],
      "name": "Created",
      "type": "event"
    },
    {
      "anonymous": false,
      "inputs": [
        {
          "indexed": true,
          "internalType": "address",
          "name": "previousOwner",
          "type": "address"
        },
        {
          "indexed": true,
          "internalType": "address",
          "name": "newOwner",
          "type": "address"
        }
      ],
      "name": "OwnershipTransferred",
      "type": "event"
    },
    {
      "anonymous": false,
      "inputs": [
        {
          "indexed": true,
          "internalType": "address",
          "name": "operator",
          "type": "address"
        },
        {
          "indexed": true,
          "internalType": "address",
          "name": "from",
          "type": "address"
        },
        {
          "indexed": true,
          "internalType": "address",
          "name": "to",
          "type": "address"
        },
        {
          "indexed": false,
          "internalType": "uint256[]",
          "name": "ids",
          "type": "uint256[]"
        },
        {
          "indexed": false,
          "internalType": "uint256[]",
          "name": "values",
          "type": "uint256[]"
        }
      ],
      "name": "TransferBatch",
      "type": "event"
    },
    {
      "anonymous": false,
      "inputs": [
        {
          "indexed": true,
          "internalType": "address",
          "name": "operator",
          "type": "address"
        },
        {
          "indexed": true,
          "internalType": "address",
          "name": "from",
          "type": "address"
        },
        {
          "indexed": true,
          "internalType": "address",
          "name": "to",
          "type": "address"
        },
        {
          "indexed": false,
          "internalType": "uint256",
          "name": "id",
          "type": "uint256"
        },
        {
          "indexed": false,
          "internalType": "uint256",
          "name": "value",
          "type": "uint256"
        }
      ],
      "name": "TransferSingle",
      "type": "event"
    },
    {
      "anonymous": false,
      "inputs": [
        {
          "indexed": false,
          "internalType": "string",
          "name": "value",
          "type": "string"
        },
        {
          "indexed": true,
          "internalType": "uint256",
          "name": "id",
          "type": "uint256"
        }
      ],
      "name": "URI",
      "type": "event"
    },
    {
      "anonymous": false,
      "inputs": [
        {
          "indexed": true,
          "internalType": "address",
          "name": "implementation",
          "type": "address"
        }
      ],
      "name": "Upgraded",
      "type": "event"
    },
    {
      "inputs": [],
      "name": "ADDRESS_TYPE",
      "outputs": [
        {
          "internalType": "uint256",
          "name": "",
          "type": "uint256"
        }
      ],
      "stateMutability": "view",
      "type": "function"
    },
    {
      "inputs": [],
      "name": "COUNTER_MASK",
      "outputs": [
        {
          "internalType": "uint256",
          "name": "",
          "type": "uint256"
        }
      ],
      "stateMutability": "view",
      "type": "function"
    },
    {
      "inputs": [],
      "name": "COUNTER_WIDTH",
      "outputs": [
        {
          "internalType": "uint8",
          "name": "",
          "type": "uint8"
        }
      ],
      "stateMutability": "view",
      "type": "function"
    },
    {
      "inputs": [],
      "name": "EXPERIMENTAL_TYPE",
      "outputs": [
        {
          "internalType": "uint256",
          "name": "",
          "type": "uint256"
        }
      ],
      "stateMutability": "view",
      "type": "function"
    },
    {
      "inputs": [],
      "name": "GATING_TYPE",
      "outputs": [
        {
          "internalType": "uint256",
          "name": "",
          "type": "uint256"
        }
      ],
      "stateMutability": "view",
      "type": "function"
    },
    {
      "inputs": [],
      "name": "INTERNAL_BOUNDARY",
      "outputs": [
        {
          "internalType": "uint8",
          "name": "",
          "type": "uint8"
        }
      ],
      "stateMutability": "view",
      "type": "function"
    },
    {
      "inputs": [],
      "name": "INTERNAL_MASK",
      "outputs": [
        {
          "internalType": "uint256",
          "name": "",
          "type": "uint256"
        }
      ],
      "stateMutability": "view",
      "type": "function"
    },
    {
      "inputs": [],
      "name": "INTERNAL_WIDTH",
      "outputs": [
        {
          "internalType": "uint8",
          "name": "",
          "type": "uint8"
        }
      ],
      "stateMutability": "view",
      "type": "function"
    },
    {
      "inputs": [],
      "name": "MEMBERSHIP_TYPE",
      "outputs": [
        {
          "internalType": "uint256",
          "name": "",
          "type": "uint256"
        }
      ],
      "stateMutability": "view",
      "type": "function"
    },
    {
      "inputs": [],
      "name": "NO_MATCH_FLAGS",
      "outputs": [
        {
          "internalType": "uint256",
          "name": "",
          "type": "uint256"
        }
      ],
      "stateMutability": "view",
      "type": "function"
    },
    {
      "inputs": [],
      "name": "REACTION_TYPE",
      "outputs": [
        {
          "internalType": "uint256",
          "name": "",
          "type": "uint256"
        }
      ],
      "stateMutability": "view",
      "type": "function"
    },
    {
      "inputs": [],
      "name": "RECORDED_TIME_TYPE",
      "outputs": [
        {
          "internalType": "uint256",
          "name": "",
          "type": "uint256"
        }
      ],
      "stateMutability": "view",
      "type": "function"
    },
    {
      "inputs": [],
      "name": "RECORDING_TYPE",
      "outputs": [
        {
          "internalType": "uint256",
          "name": "",
          "type": "uint256"
        }
      ],
      "stateMutability": "view",
      "type": "function"
    },
    {
      "inputs": [],
      "name": "REPETITION_BOUNDARY",
      "outputs": [
        {
          "internalType": "uint8",
          "name": "",
          "type": "uint8"
        }
      ],
      "stateMutability": "view",
      "type": "function"
    },
    {
      "inputs": [],
      "name": "REPETITION_MASK",
      "outputs": [
        {
          "internalType": "uint256",
          "name": "",
          "type": "uint256"
        }
      ],
      "stateMutability": "view",
      "type": "function"
    },
    {
      "inputs": [],
      "name": "REPETITION_WIDTH",
      "outputs": [
        {
          "internalType": "uint8",
          "name": "",
          "type": "uint8"
        }
      ],
      "stateMutability": "view",
      "type": "function"
    },
    {
      "inputs": [],
      "name": "REQUIREMENT_BOUNDARY",
      "outputs": [
        {
          "internalType": "uint8",
          "name": "",
          "type": "uint8"
        }
      ],
      "stateMutability": "view",
      "type": "function"
    },
    {
      "inputs": [],
      "name": "REQUIREMENT_MASK",
      "outputs": [
        {
          "internalType": "uint256",
          "name": "",
          "type": "uint256"
        }
      ],
      "stateMutability": "view",
      "type": "function"
    },
    {
      "inputs": [],
      "name": "REQUIREMENT_WIDTH",
      "outputs": [
        {
          "internalType": "uint8",
          "name": "",
          "type": "uint8"
        }
      ],
      "stateMutability": "view",
      "type": "function"
    },
    {
      "inputs": [],
      "name": "REQUIRE_ALL",
      "outputs": [
        {
          "internalType": "uint256",
          "name": "",
          "type": "uint256"
        }
      ],
      "stateMutability": "view",
      "type": "function"
    },
    {
      "inputs": [],
      "name": "REQUIRE_NONE",
      "outputs": [
        {
          "internalType": "uint256",
          "name": "",
          "type": "uint256"
        }
      ],
      "stateMutability": "view",
      "type": "function"
    },
    {
      "inputs": [],
      "name": "REQUIRE_ONE",
      "outputs": [
        {
          "internalType": "uint256",
          "name": "",
          "type": "uint256"
        }
      ],
      "stateMutability": "view",
      "type": "function"
    },
    {
      "inputs": [],
      "name": "REVIEW_TYPE",
      "outputs": [
        {
          "internalType": "uint256",
          "name": "",
          "type": "uint256"
        }
      ],
      "stateMutability": "view",
      "type": "function"
    },
    {
      "inputs": [],
      "name": "ROLE_BOUNDARY",
      "outputs": [
        {
          "internalType": "uint8",
          "name": "",
          "type": "uint8"
        }
      ],
      "stateMutability": "view",
      "type": "function"
    },
    {
      "inputs": [],
      "name": "ROLE_MASK",
      "outputs": [
        {
          "internalType": "uint256",
          "name": "",
          "type": "uint256"
        }
      ],
      "stateMutability": "view",
      "type": "function"
    },
    {
      "inputs": [],
      "name": "ROLE_WIDTH",
      "outputs": [
        {
          "internalType": "uint8",
          "name": "",
          "type": "uint8"
        }
      ],
      "stateMutability": "view",
      "type": "function"
    },
    {
      "inputs": [],
      "name": "TEAM_1",
      "outputs": [
        {
          "internalType": "uint256",
          "name": "",
          "type": "uint256"
        }
      ],
      "stateMutability": "view",
      "type": "function"
    },
    {
      "inputs": [],
      "name": "TEAM_2",
      "outputs": [
        {
          "internalType": "uint256",
          "name": "",
          "type": "uint256"
        }
      ],
      "stateMutability": "view",
      "type": "function"
    },
    {
      "inputs": [],
      "name": "TEAM_3",
      "outputs": [
        {
          "internalType": "uint256",
          "name": "",
          "type": "uint256"
        }
      ],
      "stateMutability": "view",
      "type": "function"
    },
    {
      "inputs": [],
      "name": "TEAM_4",
      "outputs": [
        {
          "internalType": "uint256",
          "name": "",
          "type": "uint256"
        }
      ],
      "stateMutability": "view",
      "type": "function"
    },
    {
      "inputs": [],
      "name": "TEAM_5",
      "outputs": [
        {
          "internalType": "uint256",
          "name": "",
          "type": "uint256"
        }
      ],
      "stateMutability": "view",
      "type": "function"
    },
    {
      "inputs": [],
      "name": "TEAM_6",
      "outputs": [
        {
          "internalType": "uint256",
          "name": "",
          "type": "uint256"
        }
      ],
      "stateMutability": "view",
      "type": "function"
    },
    {
      "inputs": [],
      "name": "TEAM_7",
      "outputs": [
        {
          "internalType": "uint256",
          "name": "",
          "type": "uint256"
        }
      ],
      "stateMutability": "view",
      "type": "function"
    },
    {
      "inputs": [],
      "name": "TEAM_8",
      "outputs": [
        {
          "internalType": "uint256",
          "name": "",
          "type": "uint256"
        }
      ],
      "stateMutability": "view",
      "type": "function"
    },
    {
      "inputs": [],
      "name": "TEAM_9",
      "outputs": [
        {
          "internalType": "uint256",
          "name": "",
          "type": "uint256"
        }
      ],
      "stateMutability": "view",
      "type": "function"
    },
    {
      "inputs": [],
      "name": "TEAM_A",
      "outputs": [
        {
          "internalType": "uint256",
          "name": "",
          "type": "uint256"
        }
      ],
      "stateMutability": "view",
      "type": "function"
    },
    {
      "inputs": [],
      "name": "TEAM_B",
      "outputs": [
        {
          "internalType": "uint256",
          "name": "",
          "type": "uint256"
        }
      ],
      "stateMutability": "view",
      "type": "function"
    },
    {
      "inputs": [],
      "name": "TEAM_BOUNDARY",
      "outputs": [
        {
          "internalType": "uint8",
          "name": "",
          "type": "uint8"
        }
      ],
      "stateMutability": "view",
      "type": "function"
    },
    {
      "inputs": [],
      "name": "TEAM_C",
      "outputs": [
        {
          "internalType": "uint256",
          "name": "",
          "type": "uint256"
        }
      ],
      "stateMutability": "view",
      "type": "function"
    },
    {
      "inputs": [],
      "name": "TEAM_D",
      "outputs": [
        {
          "internalType": "uint256",
          "name": "",
          "type": "uint256"
        }
      ],
      "stateMutability": "view",
      "type": "function"
    },
    {
      "inputs": [],
      "name": "TEAM_MASK",
      "outputs": [
        {
          "internalType": "uint256",
          "name": "",
          "type": "uint256"
        }
      ],
      "stateMutability": "view",
      "type": "function"
    },
    {
      "inputs": [],
      "name": "TEAM_WIDTH",
      "outputs": [
        {
          "internalType": "uint8",
          "name": "",
          "type": "uint8"
        }
      ],
      "stateMutability": "view",
      "type": "function"
    },
    {
      "inputs": [],
      "name": "TYPE_BOUNDARY",
      "outputs": [
        {
          "internalType": "uint8",
          "name": "",
          "type": "uint8"
        }
      ],
      "stateMutability": "view",
      "type": "function"
    },
    {
      "inputs": [],
      "name": "TYPE_MASK",
      "outputs": [
        {
          "internalType": "uint256",
          "name": "",
          "type": "uint256"
        }
      ],
      "stateMutability": "view",
      "type": "function"
    },
    {
      "inputs": [],
      "name": "TYPE_WIDTH",
      "outputs": [
        {
          "internalType": "uint8",
          "name": "",
          "type": "uint8"
        }
      ],
      "stateMutability": "view",
      "type": "function"
    },
    {
      "inputs": [],
      "name": "UNIQUE",
      "outputs": [
        {
          "internalType": "uint256",
          "name": "",
          "type": "uint256"
        }
      ],
      "stateMutability": "view",
      "type": "function"
    },
    {
      "inputs": [],
      "name": "UNIQUENESS_BOUNDARY",
      "outputs": [
        {
          "internalType": "uint8",
          "name": "",
          "type": "uint8"
        }
      ],
      "stateMutability": "view",
      "type": "function"
    },
    {
      "inputs": [],
      "name": "UNIQUENESS_MASK",
      "outputs": [
        {
          "internalType": "uint256",
          "name": "",
          "type": "uint256"
        }
      ],
      "stateMutability": "view",
      "type": "function"
    },
    {
      "inputs": [],
      "name": "UNIQUENESS_WIDTH",
      "outputs": [
        {
          "internalType": "uint8",
          "name": "",
          "type": "uint8"
        }
      ],
      "stateMutability": "view",
      "type": "function"
    },
    {
      "inputs": [],
      "name": "USE_AFTER",
      "outputs": [
        {
          "internalType": "uint256",
          "name": "",
          "type": "uint256"
        }
      ],
      "stateMutability": "view",
      "type": "function"
    },
    {
      "inputs": [],
      "name": "USE_ONCE",
      "outputs": [
        {
          "internalType": "uint256",
          "name": "",
          "type": "uint256"
        }
      ],
      "stateMutability": "view",
      "type": "function"
    },
    {
      "inputs": [],
      "name": "USE_UNLIMITED",
      "outputs": [
        {
          "internalType": "uint256",
          "name": "",
          "type": "uint256"
        }
      ],
      "stateMutability": "view",
      "type": "function"
    },
    {
      "inputs": [],
      "name": "USE_UNTIL",
      "outputs": [
        {
          "internalType": "uint256",
          "name": "",
          "type": "uint256"
        }
      ],
      "stateMutability": "view",
      "type": "function"
    },
    {
      "inputs": [],
      "name": "VANILLA_TYPE",
      "outputs": [
        {
          "internalType": "uint256",
          "name": "",
          "type": "uint256"
        }
      ],
      "stateMutability": "view",
      "type": "function"
    },
    {
      "inputs": [],
      "name": "VOUCHED_TIME_TYPE",
      "outputs": [
        {
          "internalType": "uint256",
          "name": "",
          "type": "uint256"
        }
      ],
      "stateMutability": "view",
      "type": "function"
    },
    {
      "inputs": [
        {
          "internalType": "address",
          "name": "account",
          "type": "address"
        },
        {
          "internalType": "uint256",
          "name": "id",
          "type": "uint256"
        }
      ],
      "name": "balanceOf",
      "outputs": [
        {
          "internalType": "uint256",
          "name": "",
          "type": "uint256"
        }
      ],
      "stateMutability": "view",
      "type": "function"
    },
    {
      "inputs": [
        {
          "internalType": "address[]",
          "name": "accounts",
          "type": "address[]"
        },
        {
          "internalType": "uint256[]",
          "name": "ids",
          "type": "uint256[]"
        }
      ],
      "name": "balanceOfBatch",
      "outputs": [
        {
          "internalType": "uint256[]",
          "name": "",
          "type": "uint256[]"
        }
      ],
      "stateMutability": "view",
      "type": "function"
    },
    {
      "inputs": [
        {
          "internalType": "address",
          "name": "account",
          "type": "address"
        },
        {
          "internalType": "uint256",
          "name": "id",
          "type": "uint256"
        },
        {
          "internalType": "uint256",
          "name": "value",
          "type": "uint256"
        }
      ],
      "name": "burn",
      "outputs": [],
      "stateMutability": "nonpayable",
      "type": "function"
    },
    {
      "inputs": [
        {
          "internalType": "address",
          "name": "account",
          "type": "address"
        },
        {
          "internalType": "uint256[]",
          "name": "ids",
          "type": "uint256[]"
        },
        {
          "internalType": "uint256[]",
          "name": "values",
          "type": "uint256[]"
        }
      ],
      "name": "burnBatch",
      "outputs": [],
      "stateMutability": "nonpayable",
      "type": "function"
    },
    {
      "inputs": [
        {
          "internalType": "uint256",
          "name": "id",
          "type": "uint256"
        },
        {
          "internalType": "string",
          "name": "newURI",
          "type": "string"
        },
        {
          "internalType": "uint256",
          "name": "max",
          "type": "uint256"
        }
      ],
      "name": "configure",
      "outputs": [],
      "stateMutability": "nonpayable",
      "type": "function"
    },
    {
      "inputs": [
        {
          "internalType": "address",
          "name": "maintainer",
          "type": "address"
        }
      ],
      "name": "create",
      "outputs": [
        {
          "internalType": "uint256",
          "name": "id",
          "type": "uint256"
        }
      ],
      "stateMutability": "nonpayable",
      "type": "function"
    },
    {
      "inputs": [],
      "name": "create",
      "outputs": [
        {
          "internalType": "uint256",
          "name": "id",
          "type": "uint256"
        }
      ],
      "stateMutability": "nonpayable",
      "type": "function"
    },
    {
      "inputs": [
        {
          "internalType": "uint256",
          "name": "id",
          "type": "uint256"
        }
      ],
      "name": "exists",
      "outputs": [
        {
          "internalType": "bool",
          "name": "",
          "type": "bool"
        }
      ],
      "stateMutability": "view",
      "type": "function"
    },
    {
      "inputs": [
        {
          "internalType": "enum BulkDisbursableNFTs.Role",
          "name": "role",
          "type": "uint8"
        },
        {
          "internalType": "address",
          "name": "user",
          "type": "address"
        }
      ],
      "name": "grantRole",
      "outputs": [],
      "stateMutability": "nonpayable",
      "type": "function"
    },
    {
      "inputs": [
        {
          "internalType": "enum BulkDisbursableNFTs.Role",
          "name": "role",
          "type": "uint8"
        },
        {
          "internalType": "address",
          "name": "user",
          "type": "address"
        },
        {
          "internalType": "uint256",
          "name": "index",
          "type": "uint256"
        }
      ],
      "name": "grantRole",
      "outputs": [],
      "stateMutability": "nonpayable",
      "type": "function"
    },
    {
      "inputs": [
        {
          "internalType": "enum BulkDisbursableNFTs.Role",
          "name": "role",
          "type": "uint8"
        }
      ],
      "name": "hasRole",
      "outputs": [
        {
          "internalType": "bool",
          "name": "has",
          "type": "bool"
        }
      ],
      "stateMutability": "view",
      "type": "function"
    },
    {
      "inputs": [
        {
          "internalType": "enum BulkDisbursableNFTs.Role",
          "name": "role",
          "type": "uint8"
        },
        {
          "internalType": "address",
          "name": "user",
          "type": "address"
        },
        {
          "internalType": "uint256",
          "name": "index",
          "type": "uint256"
        }
      ],
      "name": "hasRole",
      "outputs": [
        {
          "internalType": "bool",
          "name": "has",
          "type": "bool"
        }
      ],
      "stateMutability": "view",
      "type": "function"
    },
    {
      "inputs": [
        {
          "internalType": "enum BulkDisbursableNFTs.Role",
          "name": "role",
          "type": "uint8"
        },
        {
          "internalType": "uint256",
          "name": "id",
          "type": "uint256"
        }
      ],
      "name": "hasRole",
      "outputs": [
        {
          "internalType": "bool",
          "name": "has",
          "type": "bool"
        }
      ],
      "stateMutability": "view",
      "type": "function"
    },
    {
      "inputs": [
        {
          "internalType": "enum BulkDisbursableNFTs.Role",
          "name": "role",
          "type": "uint8"
        },
        {
          "internalType": "address",
          "name": "user",
          "type": "address"
        }
      ],
      "name": "hasRole",
      "outputs": [
        {
          "internalType": "bool",
          "name": "has",
          "type": "bool"
        }
      ],
      "stateMutability": "view",
      "type": "function"
    },
    {
      "inputs": [
        {
          "internalType": "string",
          "name": "_name",
          "type": "string"
        },
        {
          "internalType": "string",
          "name": "_symbol",
          "type": "string"
        }
      ],
      "name": "initialize",
      "outputs": [],
      "stateMutability": "nonpayable",
      "type": "function"
    },
    {
      "inputs": [
        {
          "internalType": "address",
          "name": "account",
          "type": "address"
        },
        {
          "internalType": "address",
          "name": "operator",
          "type": "address"
        }
      ],
      "name": "isApprovedForAll",
      "outputs": [
        {
          "internalType": "bool",
          "name": "",
          "type": "bool"
        }
      ],
      "stateMutability": "view",
      "type": "function"
    },
    {
      "inputs": [
        {
          "internalType": "address",
          "name": "user",
          "type": "address"
        }
      ],
      "name": "isSuper",
      "outputs": [
        {
          "internalType": "bool",
          "name": "superuser",
          "type": "bool"
        }
      ],
      "stateMutability": "view",
      "type": "function"
    },
    {
      "inputs": [],
      "name": "isSuper",
      "outputs": [
        {
          "internalType": "bool",
          "name": "superuser",
          "type": "bool"
        }
      ],
      "stateMutability": "view",
      "type": "function"
    },
    {
      "inputs": [
        {
          "internalType": "address[]",
          "name": "to",
          "type": "address[]"
        },
        {
          "internalType": "uint256",
          "name": "id",
          "type": "uint256"
        },
        {
          "internalType": "bytes",
          "name": "data",
          "type": "bytes"
        }
      ],
      "name": "mint",
      "outputs": [],
      "stateMutability": "nonpayable",
      "type": "function"
    },
    {
      "inputs": [
        {
          "internalType": "address",
          "name": "recipient",
          "type": "address"
        },
        {
          "internalType": "uint256",
          "name": "id",
          "type": "uint256"
        },
        {
          "internalType": "uint256",
          "name": "amount",
          "type": "uint256"
        },
        {
          "internalType": "bytes",
          "name": "data",
          "type": "bytes"
        }
      ],
      "name": "mint",
      "outputs": [
        {
          "internalType": "bool",
          "name": "minted",
          "type": "bool"
        }
      ],
      "stateMutability": "nonpayable",
      "type": "function"
    },
    {
      "inputs": [],
      "name": "name",
      "outputs": [
        {
          "internalType": "string",
          "name": "",
          "type": "string"
        }
      ],
      "stateMutability": "view",
      "type": "function"
    },
    {
      "inputs": [],
      "name": "owner",
      "outputs": [
        {
          "internalType": "address",
          "name": "",
          "type": "address"
        }
      ],
      "stateMutability": "view",
      "type": "function"
    },
    {
      "inputs": [],
      "name": "proxiableUUID",
      "outputs": [
        {
          "internalType": "bytes32",
          "name": "",
          "type": "bytes32"
        }
      ],
      "stateMutability": "view",
      "type": "function"
    },
    {
      "inputs": [],
      "name": "renounceOwnership",
      "outputs": [],
      "stateMutability": "nonpayable",
      "type": "function"
    },
    {
      "inputs": [
        {
          "internalType": "enum BulkDisbursableNFTs.Role",
          "name": "role",
          "type": "uint8"
        }
      ],
      "name": "roleToken",
      "outputs": [
        {
          "internalType": "uint256",
          "name": "id",
          "type": "uint256"
        }
      ],
      "stateMutability": "view",
      "type": "function"
    },
    {
      "inputs": [
        {
          "internalType": "enum BulkDisbursableNFTs.Role",
          "name": "role",
          "type": "uint8"
        },
        {
          "internalType": "uint256",
          "name": "index",
          "type": "uint256"
        }
      ],
      "name": "roleToken",
      "outputs": [
        {
          "internalType": "uint256",
          "name": "id",
          "type": "uint256"
        }
      ],
      "stateMutability": "view",
      "type": "function"
    },
    {
      "inputs": [
        {
          "internalType": "string",
          "name": "roleName",
          "type": "string"
        }
      ],
      "name": "roleValueForName",
      "outputs": [
        {
          "internalType": "enum BulkDisbursableNFTs.Role",
          "name": "role",
          "type": "uint8"
        }
      ],
      "stateMutability": "pure",
      "type": "function"
    },
    {
      "inputs": [
        {
          "internalType": "address",
          "name": "from",
          "type": "address"
        },
        {
          "internalType": "address",
          "name": "to",
          "type": "address"
        },
        {
          "internalType": "uint256[]",
          "name": "ids",
          "type": "uint256[]"
        },
        {
          "internalType": "uint256[]",
          "name": "amounts",
          "type": "uint256[]"
        },
        {
          "internalType": "bytes",
          "name": "data",
          "type": "bytes"
        }
      ],
      "name": "safeBatchTransferFrom",
      "outputs": [],
      "stateMutability": "nonpayable",
      "type": "function"
    },
    {
      "inputs": [
        {
          "internalType": "address",
          "name": "from",
          "type": "address"
        },
        {
          "internalType": "address",
          "name": "to",
          "type": "address"
        },
        {
          "internalType": "uint256",
          "name": "id",
          "type": "uint256"
        },
        {
          "internalType": "uint256",
          "name": "amount",
          "type": "uint256"
        },
        {
          "internalType": "bytes",
          "name": "data",
          "type": "bytes"
        }
      ],
      "name": "safeTransferFrom",
      "outputs": [],
      "stateMutability": "nonpayable",
      "type": "function"
    },
    {
      "inputs": [
        {
          "internalType": "address",
          "name": "operator",
          "type": "address"
        },
        {
          "internalType": "bool",
          "name": "approved",
          "type": "bool"
        }
      ],
      "name": "setApprovalForAll",
      "outputs": [],
      "stateMutability": "nonpayable",
      "type": "function"
    },
    {
      "inputs": [
        {
          "internalType": "string",
          "name": "_name",
          "type": "string"
        },
        {
          "internalType": "string",
          "name": "_symbol",
          "type": "string"
        }
      ],
      "name": "setDescription",
      "outputs": [],
      "stateMutability": "nonpayable",
      "type": "function"
    },
    {
      "inputs": [
        {
          "internalType": "uint256",
          "name": "id",
          "type": "uint256"
        },
        {
          "internalType": "uint256",
          "name": "max",
          "type": "uint256"
        }
      ],
      "name": "setMax",
      "outputs": [],
      "stateMutability": "nonpayable",
      "type": "function"
    },
    {
      "inputs": [
        {
          "internalType": "uint256",
          "name": "id",
          "type": "uint256"
        },
        {
          "internalType": "string",
          "name": "newURI",
          "type": "string"
        }
      ],
      "name": "setURI",
      "outputs": [],
      "stateMutability": "nonpayable",
      "type": "function"
    },
    {
      "inputs": [
        {
          "internalType": "bytes4",
          "name": "interfaceId",
          "type": "bytes4"
        }
      ],
      "name": "supportsInterface",
      "outputs": [
        {
          "internalType": "bool",
          "name": "",
          "type": "bool"
        }
      ],
      "stateMutability": "view",
      "type": "function"
    },
    {
      "inputs": [],
      "name": "symbol",
      "outputs": [
        {
          "internalType": "string",
          "name": "",
          "type": "string"
        }
      ],
      "stateMutability": "view",
      "type": "function"
    },
    {
      "inputs": [
        {
          "internalType": "uint256",
          "name": "index",
          "type": "uint256"
        }
      ],
      "name": "tokenByIndex",
      "outputs": [
        {
          "internalType": "uint256",
          "name": "id",
          "type": "uint256"
        }
      ],
      "stateMutability": "view",
      "type": "function"
    },
    {
      "inputs": [
        {
          "internalType": "uint256",
          "name": "id",
          "type": "uint256"
        }
      ],
      "name": "tokenIndex",
      "outputs": [
        {
          "internalType": "uint256",
          "name": "index",
          "type": "uint256"
        }
      ],
      "stateMutability": "view",
      "type": "function"
    },
    {
      "inputs": [
        {
          "internalType": "address",
          "name": "owner",
          "type": "address"
        },
        {
          "internalType": "uint256",
          "name": "index",
          "type": "uint256"
        }
      ],
      "name": "tokenOfOwnerByIndex",
      "outputs": [
        {
          "internalType": "uint256",
          "name": "id",
          "type": "uint256"
        }
      ],
      "stateMutability": "view",
      "type": "function"
    },
    {
      "inputs": [
        {
          "internalType": "uint256",
          "name": "id",
          "type": "uint256"
        }
      ],
      "name": "totalSupply",
      "outputs": [
        {
          "internalType": "uint256",
          "name": "",
          "type": "uint256"
        }
      ],
      "stateMutability": "view",
      "type": "function"
    },
    {
      "inputs": [
        {
          "internalType": "address",
          "name": "newOwner",
          "type": "address"
        }
      ],
      "name": "transferOwnership",
      "outputs": [],
      "stateMutability": "nonpayable",
      "type": "function"
    },
    {
      "inputs": [],
      "name": "typeSupply",
      "outputs": [
        {
          "internalType": "uint256",
          "name": "count",
          "type": "uint256"
        }
      ],
      "stateMutability": "view",
      "type": "function"
    },
    {
      "inputs": [
        {
          "internalType": "address",
          "name": "newImplementation",
          "type": "address"
        }
      ],
      "name": "upgradeTo",
      "outputs": [],
      "stateMutability": "nonpayable",
      "type": "function"
    },
    {
      "inputs": [
        {
          "internalType": "address",
          "name": "newImplementation",
          "type": "address"
        },
        {
          "internalType": "bytes",
          "name": "data",
          "type": "bytes"
        }
      ],
      "name": "upgradeToAndCall",
      "outputs": [],
      "stateMutability": "payable",
      "type": "function"
    },
    {
      "inputs": [
        {
          "internalType": "uint256",
          "name": "id",
          "type": "uint256"
        }
      ],
      "name": "uri",
      "outputs": [
        {
          "internalType": "string",
          "name": "metadata",
          "type": "string"
        }
      ],
      "stateMutability": "view",
      "type": "function"
    }
  ],
  "bytecode": "0x60a06040523060601b6080523480156200001857600080fd5b50600054610100900460ff16620000365760005460ff161562000040565b62000040620000e5565b620000a85760405162461bcd60e51b815260206004820152602e60248201527f496e697469616c697a61626c653a20636f6e747261637420697320616c72656160448201526d191e481a5b9a5d1a585b1a5e995960921b606482015260840160405180910390fd5b600054610100900460ff16158015620000cb576000805461ffff19166101011790555b8015620000de576000805461ff00191690555b5062000112565b6000620000fd306200010360201b620030041760201c565b15905090565b6001600160a01b03163b151590565b60805160601c615c686200014d60003960008181611a5101528181611a91015281816123c00152818161240001526125270152615c686000f3fe6080604052600436106105735760003560e01c80636755d456116102d8578063aae5270f11610180578063dbd406e8116100e7578063f242432a116100a0578063f449d92f1161007a578063f449d92f14610f2f578063f5298aca14610f44578063f73a731114610f64578063f8418ef314610f7957600080fd5b8063f242432a14610eda578063f28a726d14610efa578063f2fde38b14610f0f57600080fd5b8063dbd406e814610e28578063e5587f7a14610e3d578063e864109214610e52578063e985e9c514610e67578063edc79bac14610eb0578063efc81a8c14610ec557600080fd5b8063c3c8df9911610139578063c3c8df9914610db4578063c5a0d9b214610791578063d3e62b0914610dd4578063d701765014610de9578063d7fcc11314610dfe578063db58fe9514610e1357600080fd5b8063aae5270f14610d33578063aaeec72d14610d48578063b8785f8a14610cb4578063ba952df114610d5d578063baf42f9314610d72578063bd85b03914610d8757600080fd5b8063957dc9a01161023f5780639eb3f243116101f8578063a22cb465116101d2578063a22cb46514610cc9578063a8410bc114610ce9578063a9c906ae14610cfe578063aa8e906614610d1357600080fd5b80639eb3f24314610c7f5780639ed9331814610c945780639f31459a14610cb457600080fd5b8063957dc9a014610bea57806395d89b4114610bff5780639c37625c14610c145780639d6d7eaa14610c295780639d969a9c14610c495780639e97b8f614610c5f57600080fd5b806383e5b21a1161029157806383e5b21a14610b6357806384bb0fe614610b78578063862440e214610b8d578063891fbef0146108995780638da5cb5b14610bad57806392e4267b14610bd557600080fd5b80636755d45614610ac45780636b20c45414610ae45780636fa09a7914610b04578063715018a614610b19578063731133e914610b2e5780637e8ceec714610b4e57600080fd5b806339054c231161043b5780634e1273f4116103a257806351d294251161035b5780635d5664e1116103355780635d5664e114610a655780635e2a338614610a85578063666e6fd514610a9a578063669d5bfa14610aaf57600080fd5b806351d2942514610a2657806352d1902d14610a3b5780635523766114610a5057600080fd5b80634e1273f41461096d5780634f06c0fb1461099a5780634f1ef286146109af5780634f558e79146109c25780634f6ccce7146109f15780635157b56314610a1157600080fd5b80633f79f1a4116103f45780633f79f1a4146108ce5780634468031f146108e357806344cca2df1461090357806348289589146109185780634cd88b76146109385780634ce7a2441461095857600080fd5b806339054c231461083a5780633adbbbc11461084f5780633b60bd01146108645780633b91ceef146108795780633c176d9f146108995780633dbe35de146108ae57600080fd5b806318ae2375116104df5780632f745c59116104985780632f745c59146107a657806330c9cf93146107c657806333d81088146107db57806334628c1f146107f057806335ab8629146108055780633659cfe61461081a57600080fd5b806318ae2375146106fa57806319e0755c1461070f5780631c45349c1461072f5780632a7ccf13146107445780632eb2c2d6146107715780632ed58d811461079157600080fd5b80630e89341c116105315780630e89341c146106595780630ec0370f146106795780630f94cc501461069b57806311bb8afd146106b057806313affe4f146106c557806314c46427146106da57600080fd5b8062fdd58e1461057857806301ffc9a7146105ab5780630583e9f8146105db578063067ff866146105fb57806306fdde03146106225780630daec9e414610644575b600080fd5b34801561058457600080fd5b50610598610593366004614ff1565b610f8e565b6040519081526020015b60405180910390f35b3480156105b757600080fd5b506105cb6105c6366004615177565b61102a565b60405190151581526020016105a2565b3480156105e757600080fd5b506105986105f63660046152e7565b61107a565b34801561060757600080fd5b506106106110ee565b60405160ff90911681526020016105a2565b34801561062e57600080fd5b5061063761110a565b6040516105a2919061556d565b34801561065057600080fd5b50610598611199565b34801561066557600080fd5b506106376106743660046152e7565b6111b1565b34801561068557600080fd5b50610699610694366004615100565b611425565b005b3480156106a757600080fd5b5061059861147c565b3480156106bc57600080fd5b50610610602081565b3480156106d157600080fd5b506105986114b5565b3480156106e657600080fd5b506105986106f53660046151af565b6114cc565b34801561070657600080fd5b506106106114d9565b34801561071b57600080fd5b506105cb61072a3660046151af565b6114f4565b34801561073b57600080fd5b50610598611500565b34801561075057600080fd5b5061076461075f3660046152a2565b611523565b6040516105a29190615516565b34801561077d57600080fd5b5061069961078c366004614df5565b611830565b34801561079d57600080fd5b50610610600381565b3480156107b257600080fd5b506105986107c1366004614ff1565b6118c7565b3480156107d257600080fd5b5061059861194b565b3480156107e757600080fd5b5061059861196e565b3480156107fc57600080fd5b50610598611a17565b34801561081157600080fd5b50610598611a2e565b34801561082657600080fd5b50610699610835366004614da9565b611a46565b34801561084657600080fd5b50610598611b26565b34801561085b57600080fd5b50610598611b60565b34801561087057600080fd5b50610610600d81565b34801561088557600080fd5b50610699610894366004615398565b611b83565b3480156108a557600080fd5b50610610600881565b3480156108ba57600080fd5b506105986108c936600461521f565b611c06565b3480156108da57600080fd5b50610598611d81565b3480156108ef57600080fd5b506105cb6108fe3660046151e4565b611d90565b34801561090f57600080fd5b506106106120b7565b34801561092457600080fd5b506105cb61093336600461521f565b6120d3565b34801561094457600080fd5b5061069961095336600461523a565b6120e7565b34801561096457600080fd5b5061059861220d565b34801561097957600080fd5b5061098d6109883660046150aa565b61223c565b6040516105a291906154de565b3480156109a657600080fd5b5061059861239d565b6106996109bd366004614fa6565b6123b5565b3480156109ce57600080fd5b506105cb6109dd3660046152e7565b600090815260fb6020526040902054151590565b3480156109fd57600080fd5b50610598610a0c3660046152e7565b612482565b348015610a1d57600080fd5b506105986124dc565b348015610a3257600080fd5b5061059861250b565b348015610a4757600080fd5b5061059861251a565b348015610a5c57600080fd5b506105986125ce565b348015610a7157600080fd5b50610699610a803660046151c9565b6125f4565b348015610a9157600080fd5b50610598612600565b348015610aa657600080fd5b50610598612618565b348015610abb57600080fd5b50610598612627565b348015610ad057600080fd5b50610699610adf36600461523a565b612664565b348015610af057600080fd5b50610699610aff366004614efc565b6126a9565b348015610b1057600080fd5b506105986126f1565b348015610b2557600080fd5b50610699612702565b348015610b3a57600080fd5b506105cb610b4936600461504c565b612738565b348015610b5a57600080fd5b50610598612940565b348015610b6f57600080fd5b50610598612958565b348015610b8457600080fd5b5061059861297b565b348015610b9957600080fd5b50610699610ba83660046152ff565b6129bc565b348015610bb957600080fd5b506097546040516001600160a01b0390911681526020016105a2565b348015610be157600080fd5b50610598612a98565b348015610bf657600080fd5b50610598612aa9565b348015610c0b57600080fd5b50610637612ad1565b348015610c2057600080fd5b50610610612adf565b348015610c3557600080fd5b50610699610c44366004615348565b612b13565b348015610c5557600080fd5b5061019454610598565b348015610c6b57600080fd5b506105cb610c7a3660046151c9565b612b28565b348015610c8b57600080fd5b50610598612b36565b348015610ca057600080fd5b50610598610caf366004614da9565b612b43565b348015610cc057600080fd5b50610610600181565b348015610cd557600080fd5b50610699610ce4366004614f6c565b612cb6565b348015610cf557600080fd5b50610598612cc1565b348015610d0a57600080fd5b50610598612cce565b348015610d1f57600080fd5b50610699610d2e3660046151e4565b612cdb565b348015610d3f57600080fd5b50610598612ce8565b348015610d5457600080fd5b50610598612d10565b348015610d6957600080fd5b50610610612d2c565b348015610d7e57600080fd5b50610598612d41565b348015610d9357600080fd5b50610598610da23660046152e7565b600090815260fb602052604090205490565b348015610dc057600080fd5b506105cb610dcf366004614da9565b612d64565b348015610de057600080fd5b50610598612d8c565b348015610df557600080fd5b50610598612dd8565b348015610e0a57600080fd5b50610598612de5565b348015610e1f57600080fd5b50610598612e03565b348015610e3457600080fd5b50610598612e1b565b348015610e4957600080fd5b50610610612e32565b348015610e5e57600080fd5b50610598612e46565b348015610e7357600080fd5b506105cb610e82366004614dc3565b6001600160a01b03918216600090815260666020908152604080832093909416825291909152205460ff1690565b348015610ebc57600080fd5b506105cb612e69565b348015610ed157600080fd5b50610598612e79565b348015610ee657600080fd5b50610699610ef5366004614e9a565b612e84565b348015610f0657600080fd5b50610598612ec9565b348015610f1b57600080fd5b50610699610f2a366004614da9565b612edb565b348015610f3b57600080fd5b50610598612f73565b348015610f5057600080fd5b50610699610f5f36600461501a565b612f9d565b348015610f7057600080fd5b50610610612fe0565b348015610f8557600080fd5b50610598612fed565b60006001600160a01b038316610fff5760405162461bcd60e51b815260206004820152602b60248201527f455243313135353a2062616c616e636520717565727920666f7220746865207a60448201526a65726f206164647265737360a81b60648201526084015b60405180910390fd5b5060008181526065602090815260408083206001600160a01b03861684529091529020545b92915050565b60006001600160e01b03198216636cdb3d1360e11b148061105b57506001600160e01b031982166303a24d0760e21b145b8061102457506301ffc9a760e01b6001600160e01b0319831614611024565b60008181526101956020526040902054806110e35760405162461bcd60e51b815260206004820152602360248201527f5468652072657175657374656420746f6b656e20646f6573206e6f742065786960448201526239ba1760e91b6064820152608401610ff6565b611024600182615a21565b60086110fd600d6101006159fe565b6111079190615a38565b81565b610191805461111890615a87565b80601f016020809104026020016040519081016040528092919081815260200182805461114490615a87565b80156111915780601f1061116657610100808354040283529160200191611191565b820191906000526020600020905b81548152906001019060200180831161117457829003601f168201915b505050505081565b6111a6600d6101006159fe565b60ff16610400901b81565b6000818152610193602052604090208054606091906111cf90615a87565b80601f01602080910402602001604051908101604052809291908181526020018280546111fb90615a87565b80156112485780601f1061121d57610100808354040283529160200191611248565b820191906000526020600020905b81548152906001019060200180831161122b57829003601f168201915b50505050509050805160001415611420576008611268600d6101006159fe565b6112729190615a38565b600160ff919091161b600861128a600d6101006159fe565b6112949190615a38565b60ff1660016112a560086002615953565b6112af9190615a21565b901b831614156114205760006001600881600380836112d1600d6101006159fe565b6112db9190615a38565b6112e59190615a38565b6112ef9190615a38565b6112f99190615a38565b6113039190615a38565b61130d9190615a38565b60ff16600161131d816002615953565b6113279190615a21565b901b600380600861133b600d6101006159fe565b6113459190615a38565b61134f9190615a38565b6113599190615a38565b60ff166001901b17196001602060026113729190615953565b61137c9190615a21565b1984161660008181526101936020526040902080549192509061139e90615a87565b80601f01602080910402602001604051908101604052809291908181526020018280546113ca90615a87565b80156114175780601f106113ec57610100808354040283529160200191611417565b820191906000526020600020905b8154815290600101906020018083116113fa57829003601f168201915b50505050509150505b919050565b60005b83518110156114765761146584828151811061145457634e487b7160e01b600052603260045260246000fd5b602002602001015184600185612738565b5061146f81615aee565b9050611428565b50505050565b600861148b600d6101006159fe565b6114959190615a38565b60ff1660016114a660086002615953565b6114b09190615a21565b901b81565b6114c2600d6101006159fe565b60ff166010901b81565b6000611024826000611c06565b600360086114ea600d6101006159fe565b6110fd9190615a38565b60006110248233612b28565b600861150f600d6101006159fe565b6115199190615a38565b60ff166006901b81565b60008082604051602001611537919061541f565b60405160208183030381529060405280519060200120905060405160200161156e906829bab832b93ab9b2b960b91b815260090190565b604051602081830303815290604052805190602001208114156115945750600192915050565b6040516526b4b73a32b960d11b6020820152602601604051602081830303815290604052805190602001208114156115cf5750600292915050565b6040516521b0b9ba32b960d11b60208201526026016040516020818303038152906040528051906020012081141561160a5750600392915050565b604051692a3930b739b332b932b960b11b6020820152602a01604051602081830303815290604052805190602001208114156116495750600492915050565b6040516921b7b73334b3bab932b960b11b6020820152602a01604051602081830303815290604052805190602001208114156116885750600592915050565b6040516926b0b4b73a30b4b732b960b11b6020820152602a01604051602081830303815290604052805190602001208114156116c75750600692915050565b6040516621b932b0ba37b960c91b6020820152602701604051602081830303815290604052805190602001208114156117035750600792915050565b604051662634b6b4ba32b960c91b60208201526027016040516020818303038152906040528051906020012081141561173f5750600892915050565b60405165213ab93732b960d11b60208201526026016040516020818303038152906040528051906020012081141561177a5750600992915050565b604051682232b9ba3937bcb2b960b91b6020820152602901604051602081830303815290604052805190602001208114156117b85750600a92915050565b604051654f7261636c6560d01b6020820152602601604051602081830303815290604052805190602001208114156117f35750600b92915050565b60405162461bcd60e51b81526020600482015260126024820152712ab735b737bbb7103937b632903a3cb8329760711b6044820152606401610ff6565b6001600160a01b03851633148061184c575061184c8533610e82565b6118b35760405162461bcd60e51b815260206004820152603260248201527f455243313135353a207472616e736665722063616c6c6572206973206e6f74206044820152711bdddb995c881b9bdc88185c1c1c9bdd995960721b6064820152608401610ff6565b6118c08585858585613013565b5050505050565b6001600160a01b0382166000908152610196602052604081205482106118ff5760405162461bcd60e51b8152600401610ff6906157f4565b6001600160a01b03831660009081526101966020526040902080548390811061193857634e487b7160e01b600052603260045260246000fd5b9060005260206000200154905092915050565b600861195a600d6101006159fe565b6119649190615a38565b60ff166004901b81565b600160088160038083611984600d6101006159fe565b61198e9190615a38565b6119989190615a38565b6119a29190615a38565b6119ac9190615a38565b6119b69190615a38565b6119c09190615a38565b60ff1660016119d0816002615953565b6119da9190615a21565b901b60038060086119ee600d6101006159fe565b6119f89190615a38565b611a029190615a38565b611a0c9190615a38565b60ff166001901b1781565b611a24600d6101006159fe565b60ff166020901b81565b611a3b600d6101006159fe565b60ff16611000901b81565b306001600160a01b037f0000000000000000000000000000000000000000000000000000000000000000161415611a8f5760405162461bcd60e51b8152600401610ff69061560c565b7f00000000000000000000000000000000000000000000000000000000000000006001600160a01b0316611ad8600080516020615bec833981519152546001600160a01b031690565b6001600160a01b031614611afe5760405162461bcd60e51b8152600401610ff6906156a1565b611b07816131dc565b60408051600080825260208201909252611b2391839190613266565b50565b6003806008611b38600d6101006159fe565b611b429190615a38565b611b4c9190615a38565b611b569190615a38565b60ff166002901b81565b6008611b6f600d6101006159fe565b611b799190615a38565b60ff166005901b81565b611b8e6008836120d3565b80611b9c5750611b9c612e69565b611c025760405162461bcd60e51b815260206004820152603160248201527f596f75206d75737420686176652061204c696d6974657220746f6b656e20746f6044820152701031b430b733b29038bab0b73a34ba3c9760791b6064820152608401610ff6565b5050565b6000611c1460206002615953565b8210611c625760405162461bcd60e51b815260206004820152601f60248201527f496e64696365732063616e206265206174206d6f737420333220626974732e006044820152606401610ff6565b81600184603c811115611c8557634e487b7160e01b600052602160045260246000fd5b14611c91576000611cea565b60016003806008611ca5600d6101006159fe565b611caf9190615a38565b611cb99190615a38565b611cc39190615a38565b611ccd9190615a38565b60ff166001611cdd816002615953565b611ce79190615a21565b901b5b6008600160038083611cff600d6101006159fe565b611d099190615a38565b611d139190615a38565b611d1d9190615a38565b611d279190615a38565b611d319190615a38565b60ff1685603c811115611d5457634e487b7160e01b600052602160045260246000fd5b901b6008611d65600d6101006159fe565b611d6f9190615a38565b60ff166001901b171717905092915050565b6008611b4c600d6101006159fe565b600080611d9c856114cc565b90506000611daa8583610f8e565b1180611dc157506000611dbf85858417610f8e565b115b80611e0d57506000611e0b856003806008611ddf600d6101006159fe565b611de99190615a38565b611df39190615a38565b611dfd9190615a38565b60ff166001901b8417610f8e565b115b80611e5b57506000611e5985856003806008611e2c600d6101006159fe565b611e369190615a38565b611e409190615a38565b611e4a9190615a38565b60ff166001901b851717610f8e565b115b80611ede57506000611edc85600160088160038083611e7d600d6101006159fe565b611e879190615a38565b611e919190615a38565b611e9b9190615a38565b611ea59190615a38565b611eaf9190615a38565b611eb99190615a38565b60ff166001611ec9816002615953565b611ed39190615a21565b901b8417610f8e565b115b80611f6357506000611f618585600160088160038083611f01600d6101006159fe565b611f0b9190615a38565b611f159190615a38565b611f1f9190615a38565b611f299190615a38565b611f339190615a38565b611f3d9190615a38565b60ff166001611f4d816002615953565b611f579190615a21565b901b851717610f8e565b115b80611ff157506000611fef85600160088160038083611f85600d6101006159fe565b611f8f9190615a38565b611f999190615a38565b611fa39190615a38565b611fad9190615a38565b611fb79190615a38565b611fc19190615a38565b60ff166001611fd1816002615953565b611fdb9190615a21565b901b6003806008611e2c600d6101006159fe565b115b806120ae575060006120ac8585600160088160038083612014600d6101006159fe565b61201e9190615a38565b6120289190615a38565b6120329190615a38565b61203c9190615a38565b6120469190615a38565b6120509190615a38565b60ff166001612060816002615953565b61206a9190615a21565b901b600380600861207e600d6101006159fe565b6120889190615a38565b6120929190615a38565b61209c9190615a38565b60ff166001901b86171717610f8e565b115b95945050505050565b60038060086120c9600d6101006159fe565b6114ea9190615a38565b60006120e0833384611d90565b9392505050565b600054610100900460ff166121025760005460ff1615612106565b303b155b6121695760405162461bcd60e51b815260206004820152602e60248201527f496e697469616c697a61626c653a20636f6e747261637420697320616c72656160448201526d191e481a5b9a5d1a585b1a5e995960921b6064820152608401610ff6565b600054610100900460ff1615801561218b576000805461ffff19166101011790555b6121936133e0565b6121d16040518060400160405280602081526020017f4572726f723a2053696e676c6520546f6b656e20555249204e6f74205573656481525061340f565b6121d961343f565b6121e161343f565b6121e961343f565b6121f585858585612664565b80156118c0576000805461ff00191690555050505050565b6003600861221e600d6101006159fe565b6122289190615a38565b6122329190615a38565b60ff166003901b81565b606081518351146122a15760405162461bcd60e51b815260206004820152602960248201527f455243313135353a206163636f756e747320616e6420696473206c656e677468604482015268040dad2e6dac2e8c6d60bb1b6064820152608401610ff6565b600083516001600160401b038111156122ca57634e487b7160e01b600052604160045260246000fd5b6040519080825280602002602001820160405280156122f3578160200160208202803683370190505b50905060005b84518110156123955761235a85828151811061232557634e487b7160e01b600052603260045260246000fd5b602002602001015185838151811061234d57634e487b7160e01b600052603260045260246000fd5b6020026020010151610f8e565b82828151811061237a57634e487b7160e01b600052603260045260246000fd5b602090810291909101015261238e81615aee565b90506122f9565b509392505050565b6123aa600d6101006159fe565b60ff16610800901b81565b306001600160a01b037f00000000000000000000000000000000000000000000000000000000000000001614156123fe5760405162461bcd60e51b8152600401610ff69061560c565b7f00000000000000000000000000000000000000000000000000000000000000006001600160a01b0316612447600080516020615bec833981519152546001600160a01b031690565b6001600160a01b03161461246d5760405162461bcd60e51b8152600401610ff6906156a1565b612476826131dc565b611c0282826001613266565b6101945460009082106124a75760405162461bcd60e51b8152600401610ff6906157f4565b6101948054839081106124ca57634e487b7160e01b600052603260045260246000fd5b90600052602060002001549050919050565b600360086124ed600d6101006159fe565b6124f79190615a38565b6125019190615a38565b60ff166001901b81565b60086124f7600d6101006159fe565b6000306001600160a01b037f000000000000000000000000000000000000000000000000000000000000000016146125ba5760405162461bcd60e51b815260206004820152603860248201527f555550535570677261646561626c653a206d757374206e6f742062652063616c60448201527f6c6564207468726f7567682064656c656761746563616c6c00000000000000006064820152608401610ff6565b50600080516020615bec8339815191525b90565b60038060086125e0600d6101006159fe565b6125ea9190615a38565b61195a9190615a38565b611c0282826000612cdb565b61260d600d6101006159fe565b60ff16610100901b81565b6008612228600d6101006159fe565b600860016003808361263c600d6101006159fe565b6126469190615a38565b6126509190615a38565b61265a9190615a38565b61148b9190615a38565b6097546001600160a01b0316331461268e5760405162461bcd60e51b8152600401610ff6906157bf565b61269b6101918585614ad2565b506118c06101928383614ad2565b6001600160a01b0383163314806126c557506126c58333610e82565b6126e15760405162461bcd60e51b8152600401610ff690615658565b6126ec838383613466565b505050565b60036008611b42600d6101006159fe565b6097546001600160a01b0316331461272c5760405162461bcd60e51b8152600401610ff6906157bf565b6127366000613613565b565b6000600160088160038083612750600d6101006159fe565b61275a9190615a38565b6127649190615a38565b61276e9190615a38565b6127789190615a38565b6127829190615a38565b61278c9190615a38565b60ff16600161279c816002615953565b6127a69190615a21565b901b6001600881600380836127be600d6101006159fe565b6127c89190615a38565b6127d29190615a38565b6127dc9190615a38565b6127e69190615a38565b6127f09190615a38565b6127fa9190615a38565b60ff16600161280a816002615953565b6128149190615a21565b901b851614156128785760405162461bcd60e51b815260206004820152602960248201527f43616e6e6f74206d696e7420696e7465726e616c20746f6b656e732066726f6d6044820152681037baba39b4b2329760b91b6064820152608401610ff6565b6001600380600861288c600d6101006159fe565b6128969190615a38565b6128a09190615a38565b6128aa9190615a38565b6128b49190615a38565b60ff166001901b60016003806008600d60ff166101006128d491906159fe565b6128de9190615a38565b6128e89190615a38565b6128f29190615a38565b6128fc9190615a38565b60ff166001901b851614801561291b575060006129198686610f8e565b115b1561292857506000612938565b61293485858585613665565b5060015b949350505050565b600161294e60206002615953565b6111079190615a21565b6008612967600d6101006159fe565b6129719190615a38565b60ff166008901b81565b600380600861298d600d6101006159fe565b6129979190615a38565b6129a19190615a38565b6129ab9190615a38565b60ff1660016114a660036002615953565b6129c76005846120d3565b806129d557506129d5612e69565b612a3e5760405162461bcd60e51b815260206004820152603460248201527f596f75206d7573742068617665206120436f6e6669677572657220746f6b656e604482015273103a379031b430b733b29036b2ba30b230ba309760611b6064820152608401610ff6565b600083815261019360205260409020612a58908383614ad2565b50827f6bb7ff708619ba0610cba295a58592e0451dee2622938c8755667688daf3529b8383604051612a8b92919061553e565b60405180910390a2505050565b60036008612997600d6101006159fe565b6008612ab8600d6101006159fe565b612ac29190615a38565b60ff166114b060086002615953565b610192805461111890615a87565b600160088160038083612af5600d6101006159fe565b612aff9190615a38565b612b099190615a38565b6120c99190615a38565b612b1e8484846129bc565b6114768482611b83565b60006120e083836000611d90565b611964600d6101006159fe565b610194546000908190612b579060016158f8565b9050806008612b69600d6101006159fe565b612b739190615a38565b60ff166009901b179150612b886007836120d3565b80612b965750612b96612e69565b612bfe5760405162461bcd60e51b815260206004820152603360248201527f596f75206d757374206861766520612043726561746f7220746f6b656e20746f6044820152721031b932b0ba32903732bb903a37b5b2b7399760691b6064820152608401610ff6565b6101948054600181810183557fa6f1ac7ad7b125ba5a5e1c96b00ad6914f90a503b1ac3d85a9dadbb4c639df92909101849055905460008481526101956020526040902055612c539060029085908490613777565b612c61600584836001613777565b612c6f600884836001613777565b604080518381526001600160a01b03851660208201527f7757890bcab34d673dfca6b71df1b57f75a2fe4231d6e8de726caf534ab1fdd6910160405180910390a150919050565b611c02338383613932565b611b56600d6101006159fe565b612971600d6101006159fe565b6126ec8383836000613777565b60016003806008612cfc600d6101006159fe565b612d069190615a38565b6124ed9190615a38565b6003806008612d22600d6101006159fe565b61221e9190615a38565b6008600160038083612aff600d6101006159fe565b6008612d50600d6101006159fe565b612d5a9190615a38565b60ff166007901b81565b6000612d71600183612b28565b806110245750506097546001600160a01b0391821691161490565b60016003806008612da0600d6101006159fe565b612daa9190615a38565b612db49190615a38565b612dbe9190615a38565b612dc89190615a38565b60ff1660016114a6816002615953565b612501600d6101006159fe565b612df2600d6101006159fe565b60ff1660016114a6600d6002615953565b612e10600d6101006159fe565b60ff16610200901b81565b612e28600d6101006159fe565b60ff166040901b81565b60016003806008612b09600d6101006159fe565b6008612e55600d6101006159fe565b612e5f9190615a38565b60ff166009901b81565b6000612e7433612d64565b905090565b6000612e7433612b43565b6001600160a01b038516331480612ea05750612ea08533610e82565b612ebc5760405162461bcd60e51b8152600401610ff690615658565b6118c08585858585613a13565b6003806008612d06600d6101006159fe565b6097546001600160a01b03163314612f055760405162461bcd60e51b8152600401610ff6906157bf565b6001600160a01b038116612f6a5760405162461bcd60e51b815260206004820152602660248201527f4f776e61626c653a206e6577206f776e657220697320746865207a65726f206160448201526564647265737360d01b6064820152608401610ff6565b611b2381613613565b600160088160038083612f89600d6101006159fe565b612f939190615a38565b612da09190615a38565b6001600160a01b038316331480612fb95750612fb98333610e82565b612fd55760405162461bcd60e51b8152600401610ff690615658565b6126ec838383613b34565b611107600d6101006159fe565b612ffa600d6101006159fe565b60ff166080901b81565b6001600160a01b03163b151590565b81518351146130345760405162461bcd60e51b8152600401610ff69061588d565b6001600160a01b03841661305a5760405162461bcd60e51b8152600401610ff6906156ed565b33613069818787878787613c39565b60005b845181101561316e57600085828151811061309757634e487b7160e01b600052603260045260246000fd5b6020026020010151905060008583815181106130c357634e487b7160e01b600052603260045260246000fd5b60209081029190910181015160008481526065835260408082206001600160a01b038e1683529093529190912054909150818110156131145760405162461bcd60e51b8152600401610ff690615775565b60008381526065602090815260408083206001600160a01b038e8116855292528083208585039055908b168252812080548492906131539084906158f8565b925050819055505050508061316790615aee565b905061306c565b50846001600160a01b0316866001600160a01b0316826001600160a01b03167f4a39dc06d4c0dbc64b70af90fd698a233a518aa5d07e595d983b8c0526c8f7fb87876040516131be9291906154f1565b60405180910390a46131d4818787878787614468565b505050505050565b6131e660066114f4565b806131f457506131f4612e69565b611b235760405162461bcd60e51b815260206004820152603960248201527f596f75206d75737420686176652061204d61696e7461696e657220746f6b656e60448201527f20746f20757067726164652074686520636f6e74726163742e000000000000006064820152608401610ff6565b7f4910fdfa16fed3260ed0e7147f7cc6da11a60208b5b9406d12a635614ffd91435460ff1615613299576126ec836145d3565b826001600160a01b03166352d1902d6040518163ffffffff1660e01b815260040160206040518083038186803b1580156132d257600080fd5b505afa925050508015613302575060408051601f3d908101601f191682019092526132ff9181019061515f565b60015b6133655760405162461bcd60e51b815260206004820152602e60248201527f45524331393637557067726164653a206e657720696d706c656d656e7461746960448201526d6f6e206973206e6f74205555505360901b6064820152608401610ff6565b600080516020615bec83398151915281146133d45760405162461bcd60e51b815260206004820152602960248201527f45524331393637557067726164653a20756e737570706f727465642070726f786044820152681a58589b195555525160ba1b6064820152608401610ff6565b506126ec83838361466f565b600054610100900460ff166134075760405162461bcd60e51b8152600401610ff690615842565b612736614694565b600054610100900460ff166134365760405162461bcd60e51b8152600401610ff690615842565b611b23816146c4565b600054610100900460ff166127365760405162461bcd60e51b8152600401610ff690615842565b6001600160a01b03831661348c5760405162461bcd60e51b8152600401610ff690615732565b80518251146134ad5760405162461bcd60e51b8152600401610ff69061588d565b60003390506134d081856000868660405180602001604052806000815250613c39565b60005b83518110156135b45760008482815181106134fe57634e487b7160e01b600052603260045260246000fd5b60200260200101519050600084838151811061352a57634e487b7160e01b600052603260045260246000fd5b60209081029190910181015160008481526065835260408082206001600160a01b038c16835290935291909120549091508181101561357b5760405162461bcd60e51b8152600401610ff6906155c8565b60009283526065602090815260408085206001600160a01b038b16865290915290922091039055806135ac81615aee565b9150506134d3565b5060006001600160a01b0316846001600160a01b0316826001600160a01b03167f4a39dc06d4c0dbc64b70af90fd698a233a518aa5d07e595d983b8c0526c8f7fb86866040516136059291906154f1565b60405180910390a450505050565b609780546001600160a01b038381166001600160a01b0319831681179093556040519116919082907f8be0079c531659141344cd1fd0a4f28419497f9722a3daafe3b4186f6b6457e090600090a35050565b6001600160a01b0384166136c55760405162461bcd60e51b815260206004820152602160248201527f455243313135353a206d696e7420746f20746865207a65726f206164647265736044820152607360f81b6064820152608401610ff6565b336136e5816000876136d6886146f4565b6136df886146f4565b87613c39565b60008481526065602090815260408083206001600160a01b0389168452909152812080548592906137179084906158f8565b909155505060408051858152602081018590526001600160a01b0380881692600092918516917fc3d58168c5ae7397731d063d5bbf3d657854427343f4c083240f7aacaa2d0f62910160405180910390a46118c08160008787878761474d565b8061389157600184603c81111561379e57634e487b7160e01b600052602160045260246000fd5b1415613811576137ac612e69565b61380c5760405162461bcd60e51b815260206004820152602b60248201527f596f75206d75737420626520612073757065727573657220746f20637265617460448201526a32903732bb9037b732b99760a91b6064820152608401610ff6565b613891565b61381c6003836120d3565b8061382a575061382a612e69565b6138915760405162461bcd60e51b815260206004820152603260248201527f596f75206d7573742068617665207468652043617374657220726f6c6520746f6044820152711030b9b9b4b3b7103732bb903937b632b99760711b6064820152608401610ff6565b61147683826138a1576000613910565b6001600881600380836138b7600d6101006159fe565b6138c19190615a38565b6138cb9190615a38565b6138d59190615a38565b6138df9190615a38565b6138e99190615a38565b6138f39190615a38565b60ff166001613903816002615953565b61390d9190615a21565b901b5b61391a8786611c06565b17600160405180602001604052806000815250613665565b816001600160a01b0316836001600160a01b031614156139a65760405162461bcd60e51b815260206004820152602960248201527f455243313135353a2073657474696e6720617070726f76616c20737461747573604482015268103337b91039b2b63360b91b6064820152608401610ff6565b6001600160a01b03838116600081815260666020908152604080832094871680845294825291829020805460ff191686151590811790915591519182527f17307eab39ab6107e8899845ad3d59bd9653f200f220920489ca2b5937696c31910160405180910390a3505050565b6001600160a01b038416613a395760405162461bcd60e51b8152600401610ff6906156ed565b33613a498187876136d6886146f4565b60008481526065602090815260408083206001600160a01b038a16845290915290205483811015613a8c5760405162461bcd60e51b8152600401610ff690615775565b60008581526065602090815260408083206001600160a01b038b8116855292528083208785039055908816825281208054869290613acb9084906158f8565b909155505060408051868152602081018690526001600160a01b03808916928a821692918616917fc3d58168c5ae7397731d063d5bbf3d657854427343f4c083240f7aacaa2d0f62910160405180910390a4613b2b82888888888861474d565b50505050505050565b6001600160a01b038316613b5a5760405162461bcd60e51b8152600401610ff690615732565b33613b8981856000613b6b876146f4565b613b74876146f4565b60405180602001604052806000815250613c39565b60008381526065602090815260408083206001600160a01b038816845290915290205482811015613bcc5760405162461bcd60e51b8152600401610ff6906155c8565b60008481526065602090815260408083206001600160a01b03898116808652918452828520888703905582518981529384018890529092908616917fc3d58168c5ae7397731d063d5bbf3d657854427343f4c083240f7aacaa2d0f62910160405180910390a45050505050565b613c41612e69565b6140935760005b835181101561409157600160088160038083613c67600d6101006159fe565b613c719190615a38565b613c7b9190615a38565b613c859190615a38565b613c8f9190615a38565b613c999190615a38565b613ca39190615a38565b60ff166001613cb3816002615953565b613cbd9190615a21565b901b600160088160038083613cd5600d6101006159fe565b613cdf9190615a38565b613ce99190615a38565b613cf39190615a38565b613cfd9190615a38565b613d079190615a38565b613d119190615a38565b60ff166001613d21816002615953565b613d2b9190615a21565b901b858381518110613d4d57634e487b7160e01b600052603260045260246000fd5b602002602001015116146140815760006001600160a01b03871615613d73576004613d76565b60025b9050600281603c811115613d9a57634e487b7160e01b600052602160045260246000fd5b1415613f5b576008613daf600d6101006159fe565b613db99190615a38565b600160ff919091161b6008613dd1600d6101006159fe565b613ddb9190615a38565b60ff166001613dec60086002615953565b613df69190615a21565b901b868481518110613e1857634e487b7160e01b600052603260045260246000fd5b6020026020010151161415613ed257613e596003868481518110613e4c57634e487b7160e01b600052603260045260246000fd5b60200260200101516120d3565b80613e675750613e67612e69565b613ecd5760405162461bcd60e51b815260206004820152603160248201527f596f75206d757374206861766520612043617374657220746f6b656e20746f2060448201527036b4b73a103a37b5b2b71033b0ba32b99760791b6064820152608401610ff6565b61407f565b613ef681868481518110613e4c57634e487b7160e01b600052603260045260246000fd5b613ecd5760405162461bcd60e51b815260206004820152603060248201527f596f75206d75737420686176652061204d696e74657220746f6b656e20746f2060448201526f33b2b732b930ba32903a37b5b2b7399760811b6064820152608401610ff6565b6001600160a01b038616613ff257613f8e6009868481518110613e4c57634e487b7160e01b600052603260045260246000fd5b613ecd5760405162461bcd60e51b815260206004820152602f60248201527f596f75206d75737420686176652061204275726e657220746f6b656e20746f2060448201526e3232b9ba3937bc903a37b5b2b7399760891b6064820152608401610ff6565b61401681868481518110613e4c57634e487b7160e01b600052603260045260246000fd5b61407f5760405162461bcd60e51b815260206004820152603460248201527f596f75206d75737420686176652061205472616e73666572657220746f6b656e604482015273103a37903a3930b739b332b9103a37b5b2b7399760611b6064820152608401610ff6565b505b61408a81615aee565b9050613c48565b505b6001600160a01b038416156142b95760005b83518110156142b75761019460010160008583815181106140d657634e487b7160e01b600052603260045260246000fd5b6020026020010151815260200190815260200160002054600014156141825761019460000184828151811061411b57634e487b7160e01b600052603260045260246000fd5b602090810291909101810151825460018101845560009384529183209091015561019454855190916101959187908590811061416757634e487b7160e01b600052603260045260246000fd5b60200260200101518152602001908152602001600020819055505b6101966000866001600160a01b03166001600160a01b0316815260200190815260200160002060010160008583815181106141cd57634e487b7160e01b600052603260045260246000fd5b6020026020010151815260200190815260200160002054600014156142a7576001600160a01b038516600090815261019660205260409020845185908390811061422757634e487b7160e01b600052603260045260246000fd5b602090810291909101810151825460018181018555600094855283852090910191909155610194546001600160a01b0389168452610196909252604083208751929391019187908590811061428c57634e487b7160e01b600052603260045260246000fd5b60200260200101518152602001908152602001600020819055505b6142b081615aee565b90506140a5565b505b6001600160a01b0385161561445a5760005b8351811015614458578281815181106142f457634e487b7160e01b600052603260045260246000fd5b60200260200101516143208786848151811061234d57634e487b7160e01b600052603260045260246000fd5b116144485760006101966000886001600160a01b03166001600160a01b03168152602001908152602001600020600101600086848151811061437257634e487b7160e01b600052603260045260246000fd5b602002602001015181526020019081526020016000205490506101966000886001600160a01b03166001600160a01b0316815260200190815260200160002060000181815481106143d357634e487b7160e01b600052603260045260246000fd5b90600052602060002001600090556101966000886001600160a01b03166001600160a01b03168152602001908152602001600020600101600086848151811061442c57634e487b7160e01b600052603260045260246000fd5b6020026020010151815260200190815260200160002060009055505b61445181615aee565b90506142cb565b505b6131d4868686868686614817565b6001600160a01b0384163b156131d45760405163bc197c8160e01b81526001600160a01b0385169063bc197c81906144ac908990899088908890889060040161543b565b602060405180830381600087803b1580156144c657600080fd5b505af19250505080156144f6575060408051601f3d908101601f191682019092526144f391810190615193565b60015b6145a357614502615b35565b806308c379a0141561453c5750614517615b4c565b80614522575061453e565b8060405162461bcd60e51b8152600401610ff6919061556d565b505b60405162461bcd60e51b815260206004820152603460248201527f455243313135353a207472616e7366657220746f206e6f6e20455243313135356044820152732932b1b2b4bb32b91034b6b83632b6b2b73a32b960611b6064820152608401610ff6565b6001600160e01b0319811663bc197c8160e01b14613b2b5760405162461bcd60e51b8152600401610ff690615580565b6001600160a01b0381163b6146405760405162461bcd60e51b815260206004820152602d60248201527f455243313936373a206e657720696d706c656d656e746174696f6e206973206e60448201526c1bdd08184818dbdb9d1c9858dd609a1b6064820152608401610ff6565b600080516020615bec83398151915280546001600160a01b0319166001600160a01b0392909216919091179055565b6146788361495b565b6000825111806146855750805b156126ec57611476838361499b565b600054610100900460ff166146bb5760405162461bcd60e51b8152600401610ff690615842565b61273633613613565b600054610100900460ff166146eb5760405162461bcd60e51b8152600401610ff690615842565b611b2381614a86565b6040805160018082528183019092526060916000919060208083019080368337019050509050828160008151811061473c57634e487b7160e01b600052603260045260246000fd5b602090810291909101015292915050565b6001600160a01b0384163b156131d45760405163f23a6e6160e01b81526001600160a01b0385169063f23a6e61906147919089908990889088908890600401615499565b602060405180830381600087803b1580156147ab57600080fd5b505af19250505080156147db575060408051601f3d908101601f191682019092526147d891810190615193565b60015b6147e757614502615b35565b6001600160e01b0319811663f23a6e6160e01b14613b2b5760405162461bcd60e51b8152600401610ff690615580565b6001600160a01b0385166148ba5760005b83518110156148b85782818151811061485157634e487b7160e01b600052603260045260246000fd5b602002602001015160fb600086848151811061487d57634e487b7160e01b600052603260045260246000fd5b6020026020010151815260200190815260200160002060008282546148a291906158f8565b909155506148b1905081615aee565b9050614828565b505b6001600160a01b0384166131d45760005b8351811015613b2b578281815181106148f457634e487b7160e01b600052603260045260246000fd5b602002602001015160fb600086848151811061492057634e487b7160e01b600052603260045260246000fd5b6020026020010151815260200190815260200160002060008282546149459190615a21565b90915550614954905081615aee565b90506148cb565b614964816145d3565b6040516001600160a01b038216907fbc7cd75a20ee27fd9adebab32041f755214dbc6bffa90cc0225b39da2e5c2d3b90600090a250565b60606001600160a01b0383163b614a035760405162461bcd60e51b815260206004820152602660248201527f416464726573733a2064656c65676174652063616c6c20746f206e6f6e2d636f6044820152651b9d1c9858dd60d21b6064820152608401610ff6565b600080846001600160a01b031684604051614a1e919061541f565b600060405180830381855af49150503d8060008114614a59576040519150601f19603f3d011682016040523d82523d6000602084013e614a5e565b606091505b50915091506120ae8282604051806060016040528060278152602001615c0c60279139614a99565b8051611c02906067906020840190614b56565b60608315614aa85750816120e0565b825115614ab85782518084602001fd5b8160405162461bcd60e51b8152600401610ff6919061556d565b828054614ade90615a87565b90600052602060002090601f016020900481019282614b005760008555614b46565b82601f10614b195782800160ff19823516178555614b46565b82800160010185558215614b46579182015b82811115614b46578235825591602001919060010190614b2b565b50614b52929150614bca565b5090565b828054614b6290615a87565b90600052602060002090601f016020900481019282614b845760008555614b46565b82601f10614b9d57805160ff1916838001178555614b46565b82800160010185558215614b46579182015b82811115614b46578251825591602001919060010190614baf565b5b80821115614b525760008155600101614bcb565b60006001600160401b03831115614bf857614bf8615b1f565b604051614c0f601f8501601f191660200182615ac2565b809150838152848484011115614c2457600080fd5b83836020830137600060208583010152509392505050565b80356001600160a01b038116811461142057600080fd5b600082601f830112614c63578081fd5b81356020614c70826158d5565b604051614c7d8282615ac2565b8381528281019150858301600585901b87018401881015614c9c578586fd5b855b85811015614cc157614caf82614c3c565b84529284019290840190600101614c9e565b5090979650505050505050565b600082601f830112614cde578081fd5b81356020614ceb826158d5565b604051614cf88282615ac2565b8381528281019150858301600585901b87018401881015614d17578586fd5b855b85811015614cc157813584529284019290840190600101614d19565b600082601f830112614d45578081fd5b6120e083833560208501614bdf565b8035603d811061142057600080fd5b60008083601f840112614d74578182fd5b5081356001600160401b03811115614d8a578182fd5b602083019150836020828501011115614da257600080fd5b9250929050565b600060208284031215614dba578081fd5b6120e082614c3c565b60008060408385031215614dd5578081fd5b614dde83614c3c565b9150614dec60208401614c3c565b90509250929050565b600080600080600060a08688031215614e0c578081fd5b614e1586614c3c565b9450614e2360208701614c3c565b935060408601356001600160401b0380821115614e3e578283fd5b614e4a89838a01614cce565b94506060880135915080821115614e5f578283fd5b614e6b89838a01614cce565b93506080880135915080821115614e80578283fd5b50614e8d88828901614d35565b9150509295509295909350565b600080600080600060a08688031215614eb1578081fd5b614eba86614c3c565b9450614ec860208701614c3c565b9350604086013592506060860135915060808601356001600160401b03811115614ef0578182fd5b614e8d88828901614d35565b600080600060608486031215614f10578283fd5b614f1984614c3c565b925060208401356001600160401b0380821115614f34578384fd5b614f4087838801614cce565b93506040860135915080821115614f55578283fd5b50614f6286828701614cce565b9150509250925092565b60008060408385031215614f7e578182fd5b614f8783614c3c565b915060208301358015158114614f9b578182fd5b809150509250929050565b60008060408385031215614fb8578182fd5b614fc183614c3c565b915060208301356001600160401b03811115614fdb578182fd5b614fe785828601614d35565b9150509250929050565b60008060408385031215615003578182fd5b61500c83614c3c565b946020939093013593505050565b60008060006060848603121561502e578081fd5b61503784614c3c565b95602085013595506040909401359392505050565b60008060008060808587031215615061578182fd5b61506a85614c3c565b9350602085013592506040850135915060608501356001600160401b03811115615092578182fd5b61509e87828801614d35565b91505092959194509250565b600080604083850312156150bc578182fd5b82356001600160401b03808211156150d2578384fd5b6150de86838701614c53565b935060208501359150808211156150f3578283fd5b50614fe785828601614cce565b600080600060608486031215615114578081fd5b83356001600160401b038082111561512a578283fd5b61513687838801614c53565b9450602086013593506040860135915080821115615152578283fd5b50614f6286828701614d35565b600060208284031215615170578081fd5b5051919050565b600060208284031215615188578081fd5b81356120e081615bd5565b6000602082840312156151a4578081fd5b81516120e081615bd5565b6000602082840312156151c0578081fd5b6120e082614d54565b600080604083850312156151db578182fd5b614dde83614d54565b6000806000606084860312156151f8578081fd5b61520184614d54565b925061520f60208501614c3c565b9150604084013590509250925092565b60008060408385031215615231578182fd5b61500c83614d54565b6000806000806040858703121561524f578182fd5b84356001600160401b0380821115615265578384fd5b61527188838901614d63565b90965094506020870135915080821115615289578384fd5b5061529687828801614d63565b95989497509550505050565b6000602082840312156152b3578081fd5b81356001600160401b038111156152c8578182fd5b8201601f810184136152d8578182fd5b61293884823560208401614bdf565b6000602082840312156152f8578081fd5b5035919050565b600080600060408486031215615313578081fd5b8335925060208401356001600160401b0381111561532f578182fd5b61533b86828701614d63565b9497909650939450505050565b6000806000806060858703121561535d578182fd5b8435935060208501356001600160401b03811115615379578283fd5b61538587828801614d63565b9598909750949560400135949350505050565b600080604083850312156153aa578182fd5b50508035926020909101359150565b6000815180845260208085019450808401835b838110156153e8578151875295820195908201906001016153cc565b509495945050505050565b6000815180845261540b816020860160208601615a5b565b601f01601f19169290920160200192915050565b60008251615431818460208701615a5b565b9190910192915050565b6001600160a01b0386811682528516602082015260a060408201819052600090615467908301866153b9565b828103606084015261547981866153b9565b9050828103608084015261548d81856153f3565b98975050505050505050565b6001600160a01b03868116825285166020820152604081018490526060810183905260a0608082018190526000906154d3908301846153f3565b979650505050505050565b6020815260006120e060208301846153b9565b60408152600061550460408301856153b9565b82810360208401526120ae81856153b9565b60208101603d831061553857634e487b7160e01b600052602160045260246000fd5b91905290565b60208152816020820152818360408301376000818301604090810191909152601f909201601f19160101919050565b6020815260006120e060208301846153f3565b60208082526028908201527f455243313135353a204552433131353552656365697665722072656a656374656040820152676420746f6b656e7360c01b606082015260800190565b60208082526024908201527f455243313135353a206275726e20616d6f756e7420657863656564732062616c604082015263616e636560e01b606082015260800190565b6020808252602c908201527f46756e6374696f6e206d7573742062652063616c6c6564207468726f7567682060408201526b19195b1959d85d1958d85b1b60a21b606082015260800190565b60208082526029908201527f455243313135353a2063616c6c6572206973206e6f74206f776e6572206e6f7260408201526808185c1c1c9bdd995960ba1b606082015260800190565b6020808252602c908201527f46756e6374696f6e206d7573742062652063616c6c6564207468726f7567682060408201526b6163746976652070726f787960a01b606082015260800190565b60208082526025908201527f455243313135353a207472616e7366657220746f20746865207a65726f206164604082015264647265737360d81b606082015260800190565b60208082526023908201527f455243313135353a206275726e2066726f6d20746865207a65726f206164647260408201526265737360e81b606082015260800190565b6020808252602a908201527f455243313135353a20696e73756666696369656e742062616c616e636520666f60408201526939103a3930b739b332b960b11b606082015260800190565b6020808252818101527f4f776e61626c653a2063616c6c6572206973206e6f7420746865206f776e6572604082015260600190565b6020808252602e908201527f4552432d3131353520456e756d657261626c653a20746f6b656e20696e64657860408201526d206f7574206f6620626f756e647360901b606082015260800190565b6020808252602b908201527f496e697469616c697a61626c653a20636f6e7472616374206973206e6f74206960408201526a6e697469616c697a696e6760a81b606082015260800190565b60208082526028908201527f455243313135353a2069647320616e6420616d6f756e7473206c656e677468206040820152670dad2e6dac2e8c6d60c31b606082015260800190565b60006001600160401b038211156158ee576158ee615b1f565b5060051b60200190565b6000821982111561590b5761590b615b09565b500190565b600181815b8085111561594b57816000190482111561593157615931615b09565b8085161561593e57918102915b93841c9390800290615915565b509250929050565b60006120e060ff84168360008261596c57506001611024565b8161597957506000611024565b816001811461598f5760028114615999576159b5565b6001915050611024565b60ff8411156159aa576159aa615b09565b50506001821b611024565b5060208310610133831016604e8410600b84101617156159d8575081810a611024565b6159e28383615910565b80600019048211156159f6576159f6615b09565b029392505050565b600061ffff83811690831681811015615a1957615a19615b09565b039392505050565b600082821015615a3357615a33615b09565b500390565b600060ff821660ff841680821015615a5257615a52615b09565b90039392505050565b60005b83811015615a76578181015183820152602001615a5e565b838111156114765750506000910152565b600181811c90821680615a9b57607f821691505b60208210811415615abc57634e487b7160e01b600052602260045260246000fd5b50919050565b601f8201601f191681016001600160401b0381118282101715615ae757615ae7615b1f565b6040525050565b6000600019821415615b0257615b02615b09565b5060010190565b634e487b7160e01b600052601160045260246000fd5b634e487b7160e01b600052604160045260246000fd5b600060033d11156125cb57600481823e5160e01c90565b600060443d1015615b5a5790565b6040516003193d81016004833e81513d6001600160401b038160248401118184111715615b8957505050505090565b8285019150815181811115615ba15750505050505090565b843d8701016020828501011115615bbb5750505050505090565b615bca60208286010187615ac2565b509095945050505050565b6001600160e01b031981168114611b2357600080fdfe360894a13ba1a3210667c828492db98dca3e2076cc3735a920a3ca505d382bbc416464726573733a206c6f772d6c6576656c2064656c65676174652063616c6c206661696c6564a2646970667358221220fafda018b29e9f314d9e1ed683cf908e1cc844823c37e0f81cfc41e8453a4af064736f6c63430008040033",
  "linkReferences": {},
  "deployedLinkReferences": {}
}